:100000000C946A1C0C949B1C0C949B1C0C949B1CC5
:100010000C949B1C0C949B1C0C949B1C0C949B1C84
:100020000C949B1C0C949B1C0C949B1C0C949B1C74
:100030000C949B1C0C949B1C0C949B1C0C949B1C64
:100040000C949B1C0C9494B50C949B1C0C949B1CC2
:100050000C949B1C0C949B1C0D9415030C944AE966
:100060000C949B1C0C94FD380C949B1C0C949B1CB6
:100070000C949B1C0C949B1C0C949B1C0C949B1C24
:100080000C94BABE0C949B1C0C949B1C0C949B1C53
:100090000C949B1C0C949B1C0C949B1C0C949B1C04
:1000A0000C949B1C0C949B1C0C948CBE0C949B1C61
:1000B0000C949B1C0C949B1C0C949B1C0C945EBE7F
:1000C0000C949B1C0C949B1C0C949B1C0C949B1CD4
:1000D0000C949B1C0C949B1C0C949B1C0C949B1CC4
:1000E0000C949B1CA150AA50B450BD50C650E15076
:1000F000EE50F750CF50D850EAE6EDE6DCE6E0E609
:10010000E6E624E7F1E6F5E6FBE6FFE603E709E7C6
:100110000DE711E724E717E71BE71FE766E86BE841
:1001200070E87AE884E8FDE88EE896E89EE8A8E8BA
:10013000B2E8BCE8CBE8D5E8FDE8DFE8E9E8F3E8B9
:10014000084AD73B3BCE016E84BCBFFDC12F3D6C3E
:1001500074319ABD56833DDA3D00C77F11BED9E4A4
:10016000BB4C3E916BAAAABE000000803F05A84C84
:10017000CDB2D44EB93836A9020C50B99186880850
:100180003CA6AAAA2ABE000000803F000D94740A73
:100190000D94110F0D94420D0D94AF0D0D94300878
:1001A0000D94A2240D940C0F0D946F0D0D94470D1A
:1001B0000D943A060D94760A0D9481240D94380618
:1001C0000D944C0D0D94740D0D947C0A0D94790AC8
:1001D0000D94510D0D94070F0D946A0D4E414E492B
:1001E0004E495459494E46CDCCCC3D0AD7233C17F5
:1001F000B7D13877CC2B329595E6241FB14F0A0042
:100200000020410000C84200401C4620BCBE4CCA31
:100210001B0E5AAEC59D7447322F4733206261646E
:1002200020706172616D65746572730A00536C654C
:1002300065702E2E2E00205A3A200020593A2000B8
:1002400042656420583A20004D65736820706F69DC
:100250006E742063616E6E6F7420626520726573C8
:100260006F6C7665640A00526573756D696E672000
:100270007072696E74005072696E74657220726576
:100280006164792E00436C69636B20746F20726522
:1002900073756D652E2E2E004E6F206D6F76652E58
:1002A00000456E642066696C65206C6973740A0091
:1002B000426567696E2066696C65206C6973740AB3
:1002C0000046696C652064656C657465643A004439
:1002D000656C6574696F6E206661696C65642C205D
:1002E00046696C653A20006F70656E206661696CC6
:1002F00065642C2046696C653A20002569730025E9
:10030000696D20256973002569682025696D2025A0
:10031000697300256964202569682025696D202599
:10032000697300256979202569642025696820257D
:10033000696D20256973005072696E742074696D4F
:10034000653A200050726F7465637465642050696B
:100350006E0A006F6E2E0A006F66662E0A00473224
:1003600036204465627567200045256920257300A5
:100370005072696E7465722072656164792E004BEB
:10038000494C4C45442E20004D3131332053006FF1
:100390006B0048656174696E6720646F6E652E003E
:1003A00020573A00452569202573005072696E7404
:1003B00065722072656164792E0042656420646F05
:1003C0006E652E0020573A004265642048656174CE
:1003D000696E672E005072696E746572204F666692
:1003E0002E00454D455247454E43595F50415253AB
:1003F000455200434153455F4C494748545F425280
:10040000494748544E45535300544F47474C455F66
:100410004C494748545300534F4654574152455F47
:10042000504F574552004255494C445F5045524346
:10043000454E54004C4556454C494E475F44415447
:1004400041005A5F50524F4245004155544F4C4570
:1004500056454C005052494E545F4A4F420050524C
:100460004F4752455353004155544F5245504F52F8
:10047000545F54454D5000564F4C554D45545249CC
:100480004300454550524F4D0053455249414C5F42
:10049000584F4E5F584F4646004649524D574152BD
:1004A000455F4E414D453A4D61726C696E20312E6B
:1004B000312E3820284769746875622920534F55BA
:1004C0005243455F434F44455F55524C3A687474FC
:1004D00070733A2F2F6769746875622E636F6D2F82
:1004E0004D61726C696E4669726D776172652F4DF0
:1004F00061726C696E2050524F544F434F4C5F569F
:10050000455253494F4E3A312E30204D41434849D0
:100510004E455F545950453A5072696E7465722069
:1005200045585452554445525F434F554E543A3105
:1005300020555549443A63656465326132662D340D
:100540003161322D343734382D396231322D6335F3
:10055000356336326633363766660A002F2F200041
:100560007A5F6D696E3A2000795F6D696E3A20009E
:10057000785F6D696E3A20005265706F7274696EB3
:100580006720656E6473746F702073746174757323
:100590000A0053657474696E672054726176656CE5
:1005A00020416363656C65726174696F6E3A200007
:1005B00053657474696E6720526574726163742048
:1005C000416363656C65726174696F6E3A200053B4
:1005D000657474696E67205072696E74204163633C
:1005E000656C65726174696F6E3A2000536574744E
:1005F000696E67205072696E7420616E6420547257
:100600006176656C20416363656C65726174696FC6
:100610006E3A2000205A00205900580020204D61D9
:10062000783A2000205A00205900580020204D69B7
:100630006E3A20004F6E20004F666600536F66745E
:1006400020656E6473746F70733A20000001252773
:100650002318FF1F211D1CFF19171B1EFFFF0C0471
:1006600009FFFFFF2E2C0CFFFF04400AFF41FFFF94
:10067000FFFFFFFF206F7574206F662072616E6749
:10068000650A00536572766F20003A20002053659A
:1006900072766F200020643A0020693A0020703A98
:1006A0000020643A0020693A0020703A0043290A89
:1006B0000061626C656420286D696E2074656D70E0
:1006C0002000436F6C6420657874727564657320D4
:1006D00061726520003A2000207A5F6D696E3A20D1
:1006E000202D3230207A5F6D61783A202032300A36
:1006F0000050726F6265205A204F66667365740001
:10070000290A00466978656420706172616D6574BC
:1007100065722062797465733B20637263200046C2
:100720006978656420706172616D657465722028F6
:100730000048565F7365745F6F6B0A0041637469AC
:1007400076652045787472756465723A2000556E3E
:100750006B6E6F776E20636F6D6D616E643A2022F1
:10076000004D6573682056616C69646174696F6ED1
:100770002053746F707065642E00696E206D6F7603
:10078000655F746F282920666565645F76616C75A6
:100790006520666F722058593A004C656176696E23
:1007A0006720473236004732362048656174696EEB
:1007B00067204E6F7A7A6C652E0047323620486586
:1007C0006174696E67204265642E00446F6E652017
:1007D0005072696D696E6700446F6E652050726972
:1007E0006D696E67004669786564204C656E677454
:1007F00068205072696D652E00557365722D436FC8
:100800006E74726F6C6C6564205072696D65002C3B
:100810002065793D0029202D3E202865783D002C5B
:100820002073793D0020436F6E6E656374696E6757
:10083000207769746820766572746963616C206CD6
:10084000696E65202873783D002C2065793D00296C
:10085000202D3E202865783D002C2073793D002016
:10086000436F6E6E656374696E6720776974682084
:10087000686F72697A6F6E74616C206C696E652046
:100880002873783D004C656176696E672047323683
:10089000002C2079693D00202020446F696E67207C
:1008A000636972636C652061743A202878693D0041
:1008B0003F53706563696669656420582C592063ED
:1008C0006F6F7264696E617465206F7574206F66F6
:1008D00020626F756E64732E0A003F28522965707E
:1008E0006561742076616C7565206E6F7420706C24
:1008F00061757369626C653B206D75737420626508
:10090000206174206C6561737420312E0A003F539E
:100910007065636966696564206E6F7A7A6C6520BC
:1009200074656D7065726174757265206E6F742088
:10093000706C61757369626C652E0A003F53706557
:100940006369666965642066696C616D656E7420B3
:1009500073697A65206E6F7420706C61757369625B
:100960006C652E0A003F5370656369666965642093
:100970007072696D65206C656E677468206E6F7447
:1009800020706C61757369626C652E0A003F53704C
:1009900065636966696564206E6F7A7A6C65207339
:1009A000697A65206E6F7420706C61757369626C12
:1009B000652E0A003F53706563696669656420525D
:1009C000657472616374696F6E204D756C746970C3
:1009D0006C696572206E6F7420706C6175736962EA
:1009E0006C652E0A003F52657472616374696F6EA4
:1009F000204D756C7469706C696572206D757374C7
:100A0000206265207370656369666965642E0A00FB
:100A10003F537065636966696564206C61796572CE
:100A200020686569676874206E6F7420706C6175EA
:100A30007369626C652E0A003F537065636966696D
:100A40006564206265642074656D7065726174759B
:100A50007265206E6F7420706C61757369626C656D
:100A60002E0A0047323620636F6D6D616E6420730D
:100A70007461727465642E2057616974696E6720B1
:100A8000666F72206865617465722873292E0A008A
:100A9000200D466978656420706172616D657465CA
:100AA00072206E62797465733B2063726320657295
:100AB000726F722000200D0A4669786564207061AB
:100AC00072616D657465722062797465733B206331
:100AD0007263206572726F722000290A00206279A9
:100AE0007465733B206372632000466978656420F7
:100AF000706172616D657465722028002068617292
:100B000064776172652076657273696F6E3A004B27
:100B1000494C4C45442E2000202D20496E76616CB6
:100B20006964206578747275646572206E756D6293
:100B3000657220210A001FFFFFFFFFFFFF6000001A
:100B4000000001FF400000000000FF8000000000E6
:100B5000007F83CF00000C303F87FF80000C301FE8
:100B6000867980000C000F8C30C7838C30E78C3086
:100B7000CFC7CC31F38C30DCECEC33B98C30D86C93
:100B80006C33198C30D06C0C33198C30D86C0C331E
:100B9000198C30DC6C0E3B198C30CF7C079F198C84
:100BA00030C77C038F194000000000000260000085
:100BB000000000061FFFFFFFFFFFF82020506C61C0
:100BC0006E6E657242756666657242797465733AD7
:100BD00020002046726565204D656D6F72793A2060
:100BE00000436F6D70696C65643A204A616E203114
:100BF0003620323032300A00207C20417574686F14
:100C0000723A20286E6F6E652C2064656661756C83
:100C10007420636F6E666967290A00323031372DA0
:100C200031322D32352031323A303000204C617370
:100C30007420557064617465643A2000312E312E41
:100C4000380A004D61726C696E0020536F667477CC
:100C50006172652052657365740A00205761746380
:100C600068646F672052657365740A002042726F72
:100C7000776E206F75742052657365740A00204585
:100C8000787465726E616C2052657365740A0050E9
:100C90006F77657255700A0073746172740A00652B
:100CA00072726F722077726974696E6720746F2038
:100CB00066696C650A00456E6473746F70732025F5
:100CC0006320256320256320256300205A3A0020F5
:100CD000593A0020583A00656E6473746F7073203F
:100CE0006869743A200047323820580066696C61A0
:100CF0006D656E74206F75740A004D333220532574
:100D00006C7520212573004D33322053256C7520DE
:100D1000212F25732F257300473020463130303086
:100D2000205A25752E257500473238205900473244
:100D3000382058004D313036202053323535004DA3
:100D400031303920543020532575004D3139302051
:100D500053257500446F6E6520736176696E672058
:100D600066696C652E0A004D32390020204E6F7A7C
:100D70007A6C653A2000200066696C616D656E745E
:100D800020756E6C6F6164005761697420666F72C4
:100D9000005052494E5420504155534544002020A4
:100DA0004E6F7A7A6C653A20002000506C65617352
:100DB0006520776169742E2E2E0048656174696E16
:100DC00067206E6F7A7A6C65005052494E542050FD
:100DD00041555345440020204E6F7A7A6C653A2085
:100DE00000200068656174206E6F7A7A6C652E0051
:100DF000507265737320627574746F6E20746F0027
:100E00005052494E54205041555345440020204EE5
:100E10006F7A7A6C653A2000746F20636F6E746924
:100E20006E75652E2E2E00616E6420707265737370
:100E300020627574746F6E00496E736572742066FB
:100E4000696C616D656E74005052494E542050417A
:100E5000555345440020204E6F7A7A6C653A200045
:100E6000200066696C616D656E74206C6F61640052
:100E70005761697420666F72005052494E54205079
:100E800041555345440020204E6F7A7A6C653A20D4
:100E900000200066696C616D656E742065787472FF
:100EA000756465005761697420666F72005052491D
:100EB0004E542050415553454400746F2072657361
:100EC000756D65005761697420666F722070726974
:100ED0006E74005052494E542050415553454400C1
:100EE00053442063617264206F6B0A006F70656EFB
:100EF000526F6F74206661696C65640A00766F6C6E
:100F0000756D652E696E6974206661696C65640A29
:100F100000534420696E6974206661696C0A00613F
:100F200075746F25692E67004D3234004D323320C1
:100F300025730057726974696E6720746F20666943
:100F40006C653A20006F70656E206661696C65643F
:100F50002C2046696C653A20006F70656E206661D2
:100F6000696C65642C2046696C653A200046696CA2
:100F7000652073656C65637465640A002053697A43
:100F8000653A200046696C65206F70656E65643A4D
:100F900020006F70656E206661696C65642C204668
:100FA000696C653A20002066696C653A2000646FC0
:100FB000696E67006672657368004E6F7720004542
:100FC0004E4420535542524F5554494E450A002233
:100FD00020706F73002220706172656E743A220077
:100FE000535542524F5554494E452043414C4C2095
:100FF0007461726765743A22004B494C4C45442E2B
:101000002000747279696E6720746F2063616C6C64
:10101000207375622D67636F64652066696C657304
:10102000207769746820746F6F206D616E79206C11
:101030006576656C732E204D4158206C6576656C25
:101040002069733A004572726F723A0020746F6FB4
:10105000206C6F6E6720657874727573696F6E208F
:1010600070726576656E7465640A0020636F6C64E7
:1010700020657874727573696F6E2070726576651D
:101080006E7465640A004368616E67652066696C0A
:10109000616D656E74004261627973746570205A87
:1010A00000466C6F7700466C6F770046616E207368
:1010B000706565640046616E20737065656400420A
:1010C000656400426564004E6F7A7A6C65004E6F0D
:1010D0007A7A6C6500537065656400537065656469
:1010E000004D61696E005072656865617420504CF6
:1010F0004120456E64005072656865617420504CF3
:101100004120426564005072656865617420504CEE
:10111000410050726570617265005072656865616A
:10112000742041425320456E6400507265686561C9
:1011300074204142532042656400507265686561C5
:1011400074204142530050726570617265004261C3
:10115000636B004E65787420636F726E6572004D2C
:10116000323830205030205331363000424C546FEA
:101170007563682053656C662D54657374004D3239
:10118000383020503020533132300050726568655D
:10119000617420414253005072656865617420504B
:1011A0004C4100436F6F6C646F776E0052657365DE
:1011B0007420424C546F756368004368616E6765C4
:1011C0002066696C616D656E740044697361626C60
:1011D00065207374657070657273004D3834004C0F
:1011E0006576656C20636F726E657273004265642C
:1011F000204C6576656C696E67004732380A473265
:1012000039004175746F20686F6D65004732380092
:101210004D6F76652061786973004D61696E004D90
:1012200036303020486F74656E6420746F6F2063B1
:101230006F6C6420746F206368616E6765206669F7
:101240006C616D656E740A007C3C3E5E2B3D3F2FE9
:101250005B5D3B2C2A225C0050726F62696E6720D6
:101260006661696C65640A0050726F62696E67201E
:101270006661696C656400205A3A200020593A2062
:101280000042656420583A20005344207072696E11
:1012900074696E67206279746520004E6F74205304
:1012A00044207072696E74696E670A00486F6D65DC
:1012B0002025732573257320666972737400206678
:1012C000697273740A005A0059005800486F6D65BE
:1012D0002000496E697469616C697A6520454550E2
:1012E000524F4D00436F6E74726F6C005265737491
:1012F0006F7265206661696C73616665004C6F6131
:10130000642073657474696E677300496E697469EB
:10131000616C697A6520454550524F4D0053746F9A
:1013200072652073657474696E677300424C546F04
:101330007563680046696C616D656E74004D6F740D
:10134000696F6E0054656D706572617475726500C9
:101350004D61696E004D333033205531204525698C
:1013600020532569005072656865617420414253BD
:1013700020636F6E66005072656865617420504C22
:101380004120636F6E6600504944204175746F744C
:10139000756E6500504944204175746F74756E65B3
:1013A000005049442D44005049442D4400504944C4
:1013B0002D49005049442D49005049442D500050BA
:1013C00049442D5000200820466163740020082005
:1013D00046616374002008204D6178002008204D8C
:1013E0006178002008204D6178002008204D696E4A
:1013F000002008204D696E002008204D696E004FC6
:101400006666004F6E20004175746F74656D7000E4
:1014100046616E2073706565640046616E2073706E
:101420006565640042656400426564004E6F7A7AC7
:101430006C65004E6F7A7A6C6500436F6E74726FE4
:101440006C0053746F72652073657474696E677392
:101450000042656400426564004E6F7A7A6C6500F4
:101460004E6F7A7A6C650046616E207370656564B4
:101470000046616E2073706565640054656D70652B
:1014800072617475726500436172642072656D6F7C
:10149000766564004361726420696E736572746579
:1014A000640000060900FE0701920321207FFF0768
:1014B000FF07FF000000060000010707060200808A
:1014C000808080800080030202060105A0A005073D
:1014D000070600005050F850F85050050707060066
:1014E000002078A07028F020050707060000C0C87B
:1014F00010204098180507070600006090A040A83B
:101500009068020303060104C04080030707060138
:1015100000204080808040200307070601008040B3
:10152000202020408005050506000120A870A82085
:101530000505050600012020F8202002030306020D
:10154000FFC04080050101060003F8020202060206
:1015500000C0C005050506000108102040800507F1
:1015600007060000708888888888700307070601CE
:101570000040C040404040E005070706000070887A
:1015800008708080F8050707060000F81020100892
:1015900008F005070706000010305090F8101005FD
:1015A0000707060000F880F008088870050707069E
:1015B0000000708080F0888870050707060000F83A
:1015C000081020202020050707060000708888707A
:1015D00088887005070706000070888878080870FA
:1015E000020505060200C0C000C0C00206060602D1
:1015F000FFC0C000C0408004070706000010204064
:1016000080402010050303060002F800F8040707D5
:1016100006010080402010204080050707060000DA
:101620007088081020002005070706000070880851
:1016300068A8A870050707060000708888F88888E1
:1016400088050707060000F08888F08888F00507FD
:1016500007060000708880808088700507070600F4
:1016600000F08888888888F0050707060000F88061
:1016700080F08080F8050707060000F88080F08081
:101680008080050707060000708880B8888870058C
:101690000707060000888888F888888801070706F9
:1016A0000200808080808080800507070600003867
:1016B0001010101090600507070600008890A0C069
:1016C000A09088050707060000808080808080F851
:1016D00005070706000088D8A888888888050707B6
:1016E0000600008888C8A8988888050707060000B3
:1016F00070888888888870050707060000F0888849
:10170000F080808005070706000070888888A89010
:1017100068050707060000F08888F0A09088050794
:1017200007060000788080700808F00507070600AB
:1017300000F82020202020200507070600008888C8
:101740008888888870050707060000888888888848
:1017500050200507070600008888888888A850055B
:10176000070706000088885020508888050707066C
:10177000000088888850202020050707060000F810
:101780000810204080F8030707060100E0808080F1
:101790008080E00505050600018040201008030751
:1017A00007060100E02020202020E00503030600BA
:1017B00004205088050101060000F802020206021A
:1017C0000580400505050600007008788878050743
:1017D000070600008080B0C88888F005050506006F
:1017E0000070808088700507070600000808689868
:1017F0008888780505050600007088F88070050760
:10180000070600003048E04040404005060606005C
:10181000FF7088887808700507070600008080B090
:10182000C8888888010707060200800080808080C1
:10183000800308080601FF200020202020A040048B
:101840000707060000808090A0C0A090030707064D
:101850000100C04040404040E0050505060000D0C2
:10186000A8A8A8A8050505060000B0C888888805AE
:10187000050506000070888888700506060600FFCA
:10188000F08888F080800506060600FF7888887852
:101890000808050505060000B0C88080800505051C
:1018A00006000070807008F0040707060000404042
:1018B000E0404040300505050600008888889868AB
:1018C00005050506000088888850200505050600E6
:1018D000008888A8A85005050506000088502050FB
:1018E000880506060600FF888888780870050505C3
:1018F000060000F8102040F803070706010020400A
:1019000040804040200107070602008080808080E0
:10191000808003070706010080404020404080058A
:101920000202060002689000000006000056652DC5
:101930006A65726B0056652D6A65726B0056652D7F
:101940006A65726B00567A2D6A65726B00567A2D45
:101950006A65726B0056792D6A65726B0056792D37
:101960006A65726B0056792D6A65726B0056782D28
:101970006A65726B0056782D6A65726B0056782D19
:101980006A65726B004D6F74696F6E0045737465A4
:1019900070732F6D6D004573746570732F6D6D00DE
:1019A0005A73746570732F6D6D005A73746570731C
:1019B0002F6D6D005973746570732F6D6D005973C1
:1019C000746570732F6D6D005873746570732F6D2F
:1019D0006D005873746570732F6D6D004D6F746971
:1019E0006F6E0053746570732F6D6D004A65726B76
:1019F00000416363656C65726174696F6E00566562
:101A00006C6F63697479005A204F66667365740061
:101A10005A204F666673657400436F6E74726F6C04
:101A2000004F6E200052756E6F75742073656E7373
:101A30006F7273004F66660046696C2E20446961C0
:101A40002E0046696C2E204469612E004F666600A8
:101A50004F6E20004520696E206D6D3300436F6E20
:101A600074726F6C0043616E6E6F7420656E746586
:101A700072207375626469723A2000022E2E004D46
:101A800061696E004572726F722077726974696E57
:101A90006720746F20454550524F4D210A00290A96
:101AA000002062797465733B206372632000536584
:101AB0007474696E67732053746F726564202800B4
:101AC000290A57726974652066696C65206E616DBC
:101AD000653A20002062797465733B20637263204D
:101AE00000506F7765726F66662053746F7265641D
:101AF0002028004D313034205325750047393220DD
:101B000045257500473932205A25752E2575004D1B
:101B10003530300043616E63656C207072696E749D
:101B200000526573756D65207072696E7400506F38
:101B3000776572206F75746167650025753A253089
:101B4000327500253032753A2530327500257564BE
:101B500020253032753A25303275005A0059005828
:101B6000000920000000000000000000000000004C
:101B70007FFFE00000000000000000000000007097
:101B800000E000000000000000000000000061F81C
:101B90006000000000000000000000000041F8208C
:101BA00000000000000000000000000040F02000E5
:101BB0000000000000000000000000406020000065
:101BC000000000000000000000005801A07F80001D
:101BD0000000000000004104005C63A0FFC00000A2
:101BE00000000000002082005EF7A0FFC00000009F
:101BF000000000002082005EF7A0FFC0000000008F
:101C00000000004104005C63A07F80000000000031
:101C100000008208005801A07F8000000000000042
:101C200001041000406020FFC0000000000000011F
:101C300004100040F020FFC00000000000000082FF
:101C4000080041F820FFC00000000000000041042F
:101C50000061F8603F00000000000000000000008C
:101C60007000E01E0000000000000001FFFF807F08
:101C7000FFE00C0000000000000001FFFF800000FA
:101C8000000000000000000000000000007FFFE0F6
:101C90000000000000000000000000007000E000F4
:101CA0000000000000000000000000630C60000065
:101CB00000000000000000000000470E20000000AF
:101CC0000000000000000000004F0F200000000096
:101CD00000000000000000005F0FA00000000000F6
:101CE000000000000000005E07A07F8000000000F0
:101CF000000000410400406020FFC0000000000020
:101D0000000020820040F020FFC000000000000022
:101D10000020820040F020FFC00000000000000012
:101D20004104004060207F8000000000000000822D
:101D300008005E07A07F8000000000000001041082
:101D4000005F0FA0FFC000000000000001041000B1
:101D50004F0F20FFC0000000000000008208004775
:101D60000E20FFC000000000000000410400630CD2
:101D7000603F00000000000000000000007000E074
:101D80001E0000000000000001FFFF807FFFE00C4C
:101D90000000000000000001FFFF800000000006BE
:101DA0000900FE000000000001090008FE00000517
:101DB000080806000040F0C88888987810050808D0
:101DC000060000C0F88888888888F80505050600A0
:101DD000012030F830200508080600002070F820A7
:101DE000202020E00509090600FF2070A8A8B88877
:101DF0008870200509090600FFE080C0B0A82830DF
:101E000028280509090600FFF8A88888888888A876
:101E1000F8050A0A0600FE205050505088A8A888ED
:101E20007003030306000340A04020204D383531E5
:101E3000205A005A2D50726F6265204F6666736596
:101E40007420286D6D293A0A0020440020490020A2
:101E5000204D333034205000204400204900202001
:101E60004D333031205000504944207365747469FB
:101E70006E67733A0A002046002042002048002086
:101E8000204D3134352053004D6174657269616CA9
:101E90002068656174757020706172616D6574652C
:101EA00072733A0A00205A0020204D3432302053F9
:101EB000004175746F20426564204C6576656C69DD
:101EC0006E673A0A00204500205A00205900205829
:101ED0000020420020540020204D32303520530095
:101EE000416476616E6365643A20533C6D696E5F50
:101EF00066656564726174653E20543C6D696E5F11
:101F000074726176656C5F66656564726174653E66
:101F100020423C6D696E5F7365676D656E745F74BA
:101F2000696D655F75733E20583C6D61785F7879A7
:101F30005F6A65726B3E205A3C6D61785F7A5F6ABA
:101F400065726B3E20453C6D61785F655F6A6572C6
:101F50006B3E0A0020540020520020204D323034C5
:101F6000205000416363656C65726174696F6E2017
:101F700028756E6974732F7332293A20503C707241
:101F8000696E745F616363656C3E20523C72657478
:101F9000726163745F616363656C3E20543C74726C
:101FA0006176656C5F616363656C3E0A0020450085
:101FB000205A0020590020204D3230312058004D49
:101FC0006178696D756D20416363656C65726174DC
:101FD000696F6E2028756E6974732F7332293A0AFF
:101FE00000204500205A0020590020204D32303377
:101FF0002058004D6178696D756D20666565647265
:10200000617465732028756E6974732F73293A0A99
:1020100000204500205A0020590020204D39322050
:10202000580053746570732070657220756E697402
:102030003A0A0020204D3230302044300A0020205F
:102040004D3230302044002044697361626C656415
:102050000A0046696C616D656E74207365747469FD
:102060006E67733A0020204D3134392043203B20E5
:10207000556E69747320696E2043656C736975735E
:102080000A002020473231202020203B20556E6955
:10209000747320696E206D6D0A0024F4D43050C32F
:1020A0008E20C2A24017828B7011127A910D816C22
:1020B000D90AA861E108C7586607615143061E4B5B
:1020C0005D05C145A7041A411104093D9803713902
:1020D00031034036DB0265339102D4305402802E46
:1020E0001D02632CEE01752AC501B028A00110273E
:1020F00081018F2564012B244B01E0223401AC21A6
:102100001F018D200D01801FFC00841EED00971D16
:10211000DF00B81CD200E61BC600201BBC00641AFE
:10212000B200B219A8000A19A0006A189900D117C4
:10213000910040178B00B516840031167E00B31550
:1021400079003A157300C7146F0058146A00EE1333
:1021500066008813630025135E00C7125B006C12D3
:10216000570015125400C111510070114F00211178
:102170004B00D61049008D10470046104400021055
:102180004200C00F4000800F3E00420F3C00060F8F
:102190003B00CB0E3800930E37005C0E3500270E47
:1021A0003400F30D3200C10D3100900D3000600D90
:1021B0002E00320D2D00050D2C00D90C2B00AE0C7D
:1021C0002900850C29005C0C2700350C27000E0C1B
:1021D0002600E80B2400C40B2400A00B23007D0B79
:1021E00023005A0B2100390B2100180B2000F80A9C
:1021F0001F00D90A1E00BB0A1E009D0A1D00800A8E
:102200001D00630A1C00470A1B002C0A1B00110A50
:102210001A00F7091A00DD091900C4091900AB09F1
:102220001900920917007B091800630917004C096F
:10223000160036091600200916000A091500F508CF
:102240001500E0081400CC081400B8081400A40815
:102250001400900813007D0812006B081300580842
:102260001200460812003408110023081100120859
:10227000110001081100F0071000E0071000D0075E
:102280001000C0071000B0070F00A1071000910751
:102290000E0083070F0074070F0065070E00570735
:1022A0000E0049070E003B070D002E070E00200709
:1022B0000D0013070D0006070D00F9060C00ED06D2
:1022C0000D00E0060C00D4060C00C8060C00BC068D
:1022D0000C00B0060C00A4060B0099060C008D063D
:1022E0000B0082060B0077060B006C060B006106E4
:1022F0000A0057060B004C060A0042060A00380680
:102300000A002E060A0024060A001A060A00100611
:10231000090007060A00FD050900F4050900EB05A0
:102320000900E2050900D9050900D0050900C70523
:102330000900BE050900B5050800AD050800A505A2
:1023400009009C050800940508008C050800840518
:1023500008007C050800740508006C050700650589
:1023600008005D050700560508004E0507004705F3
:1023700007004005080038050700310507002A0559
:102380000700230507001C050600160507000F05BA
:1023900007000805060002050700FB040600F50417
:1023A0000700EE040600E8040600E2040700DB0470
:1023B0000600D5040600CF040600C9040600C304C5
:1023C0000600BD040600B7040600B1040500AC0415
:1023D0000600A6040600A00405009B040600950460
:1023E0000500900406008A040500850405008004A9
:1023F00006007A04050075040500700405006B04EE
:10240000050066040500610405005C04050057042E
:102410000500520405004D0405004804050043046E
:1024200005003E0404003A040500350405003004AC
:1024300004002C04050027040400230405001E04E6
:1024400004001A04040016040500110404000D041D
:102450000400090405000404040000040400FC0353
:102460000400F8030400F4030400F0030400EC0388
:102470000400E8030400E4030400E0030400DC03B8
:102480000400D8030400D4030400D0030400CC03E8
:102490000400C8030300C503030024F404D9201B6F
:1024A000C40C5C0E9804C4095F0265077101F40551
:1024B000F900FB04B30048048700C1036900580316
:1024C000550003034500BE023A0084023100530266
:1024D0002A002902250004022000E4011C00C80192
:1024E0001900AF0117009801140084011300710155
:1024F00010006101100051010E0043010D00360172
:102500000B002B010B0020010B00150109000C0131
:10251000090003010800FB000800F3000800EB00BD
:102520000700E4000600DE000600D8000600D20026
:102530000600CC000500C7000500C2000500BD0074
:102540000400B9000400B5000400B1000400AD00AF
:102550000400A9000400A5000300A20003009F00DE
:1025600004009B0003009800030095000200930004
:102570000300900003008D0002008B000300880020
:1025800002008600020084000300810002007F0038
:1025900002007D0002007B0002007900020077004B
:1025A0000100760002007400020072000100710058
:1025B00002006F0002006D0001006C0002006A0062
:1025C000010069000200670001006600010065006B
:1025D000010064000200620001006100010060006F
:1025E00001005F0002005D0001005C0001005B0073
:1025F00001005A0001005900010058000100570075
:102600000100560001005500010054000100530074
:102610000000530001005200010051000100500071
:1026200001004F0001004E0000004E0001004D006F
:1026300001004C0001004B0000004B0001004A006B
:102640000100490001004800000048000100470067
:102650000100460000004600010045000000450062
:10266000010044000100430000004300010042005B
:102670000000420001004100000041000100400054
:1026800001003F0000003F0001003E0000003E004E
:1026900001003D0000003D0001003C0000003C0046
:1026A00000003C0001003B0000003B0001003A003C
:1026B00000003A0001003900000039000100380034
:1026C000000038000000380001003700000037002B
:1026D0000100360000003600000036000100350021
:1026E0000000350000003500010034000000340017
:1026F000000034000100330000003300000033000C
:102700000100320000003200000032000100310000
:1027100000003100000031000100300000003000F6
:102720000000300001002F0000002F0000002F00EB
:1027300000002F0001002E0000002E0000002E00DF
:1027400001002D0000002D0000002D0000002D00D4
:1027500001002C0000002C0000002C0000002C00C8
:1027600001002B0000002B0000002B0000002B00BC
:1027700001002A0000002A0000002A0000002A00B0
:1027800001002900000029000000290000002900A4
:102790000000290001002800000028000000280097
:1027A000000028000000280001002700000027008A
:1027B000000027000000270000002700010026007D
:1027C0000000260000002600000026000000260071
:1027D0000100250000002500000025000000250064
:1027E0000000250000002500010024000000240056
:1027F0000000240000002400000024000100230049
:10280000000023000000230000002300000023003C
:10281000000023000000230001002200000022002D
:102820000000220000002200000022000000220020
:102830000100210000002100000021000000210013
:102840000000210000002100000021000100200004
:1028500000002000000020000000200000002000F8
:1028600000002000000020000000200001001F00E8
:1028700000001F0000001F0000001F0000001F00DC
:1028800000001F0000001F0001001E0000001E00CD
:1028900000001E0000001E0000004D3834205820AB
:1028A00059205A2045005A25752C45256C752C5009
:1028B000256C752C5425752C4225752C0050726999
:1028C0006E7465722072656164792E005072696E53
:1028D0007465722072656164792E004572723A4E99
:1028E0006F2046696C616D656E7400434F4D4D55A8
:1028F0004E49434154494F4E0044525952554E009F
:102900004552524F525300494E464F004543484F9F
:102910000020706F736974696F6E206F7574206F1B
:10292000662072616E67652E0A003F50726F6265A5
:102930002000202844525952554E29004732392050
:102940004175746F20426564204C6576656C696ED4
:10295000670028422961636B00284629726F6E74F4
:10296000002852296967687400284C29656674003C
:102970003F2856296572626F7365206C6576656CB9
:1029800020697320696D706C61757369626C652074
:1029900028302D34292E0A00426164205A207661A5
:1029A0006C75650A004E6F2062696C696E656172B4
:1029B00020677269640A004D313235000C290729FD
:1029C0000029F928EB286F66660044454255473ACE
:1029D000004D31343520533C696E6465783E206F7C
:1029E0007574206F662072616E67652028302D3106
:1029F000290A00205A3A0020593A0020436F756E88
:102A00007420583A0020453A00205A3A0020593A9A
:102A100000583A003A004361703A004B64200023AA
:102A2000646566696E65202044454641554C545F97
:102A3000004B69200023646566696E65202044456B
:102A40004641554C545F004B702000236465666915
:102A50006E65202044454641554C545F0050494422
:102A6000204175746F74756E652066696E69736850
:102A70006564212050757420746865206C617374DE
:102A8000204B702C204B6920616E64204B642063C6
:102A90006F6E7374616E74732066726F6D20626501
:102AA0006C6F7720696E746F20436F6E666967750F
:102AB000726174696F6E2E680A0050494420417536
:102AC000746F74756E65206661696C65642120742D
:102AD000696D656F75740A00544845524D414C202C
:102AE00052554E4157415900546865726D616C20D2
:102AF00052756E617761790048656174696E67200F
:102B00006661696C65640048656174696E6720661A
:102B100061696C656400504944204175746F747537
:102B20006E65206661696C6564212054656D706511
:102B300072617475726520746F6F20686967680AC6
:102B400000204B643A2000204B693A2000204B7053
:102B50003A20000A20436C61737369632050494432
:102B6000200A002054753A2000204B753A2000209E
:102B70006D61783A2000206D696E3A200020643A39
:102B8000200020626961733A20004F66660A0046A1
:102B90006164652048656967687420004265642047
:102BA0004C6576656C696E6720004661696C65648A
:102BB00020746F20656E61626C6520426564204CF4
:102BC0006576656C696E670A004D65736820706F85
:102BD000696E742063616E6E6F7420626520726529
:102BE000736F6C7665640A004D34323120696E6310
:102BF0006F727265637420706172616D6574657265
:102C00002075736167650A0043617365206C6967AD
:102C100068743A200070012C0190012701B0012254
:102C200001C0011D01F00118011002130130020E54
:102C3000016002090190020401C002FF000003FAD2
:102C4000004003F5008003F000D003EB002004E611
:102C5000007004E100E004DC004005D700C005D2AC
:102C6000004006CD00D006C8008007C3003008BE73
:102C700000F008B900C009B400B00AAF00B00BAA58
:102C800000D00CA500000EA000500F9B00C01096B5
:102C9000005012910000148C00C0158700B01782FC
:102CA00000B0197D00D01B7800001E730040206E1C
:102CB0000090226900F024640040275F0090295AA8
:102CC00000E02B5500102E500020304B00103246F3
:102CD00000E033410090353C001037370070383247
:102CE00000A0392D00B03A2800A03B2300603C1E14
:102CF00000103D1900903D1400103E0F00703E0A78
:102D000000C03E0500003F0000403FFBFF803FF653
:102D1000FFC03FF1FF20746F6F206C6F6E672065FE
:102D20007874727573696F6E2070726576656E74F3
:102D300065640A0020636F6C642065787472757333
:102D4000696F6E2070726576656E7465640A0062E4
:102D50007573793A2070617573656420666F7220AF
:102D6000696E7075740A00627573793A20706175C6
:102D700073656420666F7220757365720A006275F0
:102D800073793A2070726F63657373696E670A00B6
:102D90004B494C4C45442E20004B494C4C20636120
:102DA0007573656420627920746F6F206D75636838
:102DB00020696E6163746976652074696D65202D84
:102DC0002063757272656E7420636F6D6D616E64E1
:102DD0003A2000506C6561736520726573657400FC
:102DE0005052494E5445522048414C54454400509D
:102DF00072696E7465722068616C7465642E206BF4
:102E0000696C6C28292063616C6C6564210A000080
:102E100000A0C00000A0C000000000000070420040
:102E20000070420000C040000000005761726E69EF
:102E30006E673A20486F6D696E672042756D70202D
:102E400044697669736F72203C20310A00020204E3
:102E50000000A0400000A0400000004000007F43B0
:102E600000007F4300007A43FFFFFF43616E6E6FF7
:102E700074206F70656E20737562646972200065DE
:102E80006E7175657565696E672022006563686F90
:102E90003A00544845524D414C2052554E415741FD
:102EA0005900546865726D616C2052756E6177616E
:102EB000790053544F505045442E20005072696E93
:102EC0007465722073746F7070656420647565201A
:102ED000746F206572726F72732E20466978207449
:102EE0006865206572726F7220616E64207573650B
:102EF000204D39393920746F207265737461727492
:102F00002E202854656D7065726174757265206934
:102F1000732072657365742E205365742069742064
:102F200061667465722072657374617274696E672C
:102F3000290A0053544F502063616C6C6564206211
:102F4000656361757365206F6620424C546F7563CD
:102F500068206572726F72202D20726573746172C1
:102F6000742077697468204D3939390A0042696CD8
:102F7000696E656172204C6576656C696E67204785
:102F80007269643A0A00473238205A20466F7262EA
:102F9000696464656E0A00473238205A20466F72B1
:102FA00062696464656E0000002100240027002A25
:102FB000002D003000330001010000040107010A68
:102FC0000100002200250028002B002E00310034D3
:102FD0000002010000050108010B01000020002390
:102FE00000260029002C002F003200000100000301
:102FF000010601090105050505070508080808027D
:103000000202020A0A080804040404010101010181
:103010000101010303030303030303040707070C70
:103020000C0C0C0C0C0C0C02020202060606060626
:103030000606060B0B0B0B0B0B0B0B0102102020D3
:1030400008081020401020408002010201080402FC
:103050000101020408102040808040201008040272
:1030600001800402018040201008040201080402CB
:1030700001010204081020408001020408102040D1
:103080008000000A0B02090C0D0E08070304010062
:103090000000000000000000000000000000000030
:1030A00000000000000000000000000000121110ED
:1030B0000000000000000000000000000000000010
:1030C0000000000000000020213D2000637263200A
:1030D0006572726F723A20000A72656164206669D7
:1030E0006C65206E616D653A2000290A7265616425
:1030F0002066696C65206469723A200020627974E8
:1031000065733B206372632000706F7765726F6632
:10311000662073746F7265642073657474696E677A
:1031200073207265747269657665642028002028B2
:1031300063616C63756C6174656429210A002021E8
:103140003D2000454550524F4D20435243206D696C
:10315000736D61746368202D202873746F726564C9
:10316000292000290A002062797465733B2063726C
:103170006320002073746F726564207365747469D2
:103180006E677320726574726965766564202800C5
:10319000204D61726C696E3D563232290A00284515
:1031A0004550524F4D3D00454550524F4D2076659C
:1031B0007273696F6E206D69736D6174636820004E
:1031C00048617264636F6465642044656661756C10
:1031D000742053657474696E6773204C6F61646505
:1031E000640A00B80B0000B80B000032000000B801
:1031F0000B000000009643000096430000A0410031
:1032000000C8419A99A0429A99A0420000C8430080
:1032100000BA424D61782054656D703A20313235E4
:10322000004D696E2054656D703A2035005442653A
:10323000643A4550434F53203130304B004D617854
:103240002054656D703A20323635004D696E205439
:10325000656D703A20350054303A204550434F5345
:10326000203130304B005053553A2047656E65721F
:1032700069630050726F746F636F6C3A20312E3047
:1032800000202020204857205665723A20560046DC
:1032900057205665723A2056322E310042617564CD
:1032A0003A20323530303030004754323536302015
:1032B00056332E780042696C696E656172204C65E8
:1032C00076656C696E6700457874727564657273B3
:1032D0003A203100687474703A2F2F6D61726C69F6
:1032E0006E66772E6F7267005072696E7465720039
:1032F000323031372D31322D32352031323A3030C3
:1033000000312E312E38004D61726C696E005468A8
:1033100065726D6973746F727300426F61726420BD
:10332000496E666F005072696E74657220496E66F0
:103330006F004D61696E0020204E6F7A7A6C653A9D
:10334000200020004261636B004D696E696D756DF0
:103350002054656D70206973203137302E00486528
:103360006174696E67206661696C65640045787494
:1033700072756465206D6F726500526573756D6559
:10338000207072696E7400524553554D45204F5060
:1033900054494F4E533A0020204E6F7A7A6C653A6A
:1033A00020006368616E6765006F66207468652041
:1033B00066696C616D656E74005761697420666F33
:1033C00072207374617274005052494E54205041FF
:1033D00055534544004C696E65204E756D626572AB
:1033E000206973206E6F74204C617374204C696E79
:1033F00065204E756D6265722B312C204C617374A3
:10340000204C696E653A20004B494C4C45442E20B7
:103410000053544F505045442E20005072696E7432
:1034200065722073746F70706564206475652074B4
:103430006F206572726F72732E20466978207468EF
:1034400065206572726F7220616E642075736520ED
:103450004D39393920746F20726573746172742E1E
:10346000202854656D70657261747572652069738A
:103470002072657365742E20536574206974206111
:10348000667465722072657374617274696E6729FF
:103490000A004E6F20436865636B73756D20776912
:1034A0007468206C696E65206E756D6265722C2083
:1034B0004C617374204C696E653A200063686563E3
:1034C0006B73756D206D69736D617463682C204C2E
:1034D000617374204C696E653A20004D31313000C3
:1034E0004D333100473120463130303020593231B0
:1034F00030004732382058590053442072656164C7
:10350000206572726F720A00446F6E652070726976
:103510006E74696E672066696C650A0020496E7674
:10352000616C6964206578747275646572200053FB
:10353000746F7720424C546F756368004D32383099
:1035400020503020533930004465706C6F79204230
:103550004C546F756368004D323830205030205322
:10356000313000424C546F7563682053656C662D92
:1035700054657374004D323830205030205331324E
:103580003000526573657420424C546F7563680057
:103590004D3238302050302053313630004D616983
:1035A0006E005072696E7420706175736564004DB1
:1035B00031323500002573004D3234005072696E8F
:1035C000742061626F727465640047323820585904
:1035D00000473930004731204631303030205A32F0
:1035E0003000473931004E6F2053442063617264CC
:1035F000005072696E742066726F6D2053440053E0
:10360000746F70207072696E7400526573756D65A9
:10361000207072696E740041626F75742050726917
:103620006E746572005061757365207072696E7496
:1036300000436F6E74726F6C0050726570617265DA
:103640000054756E6500496E666F20736372656520
:103650006E004261627973746570205A004D363095
:1036600030204230004572723A204D494E54454D4B
:103670005020424544004572723A204D494E54450F
:103680004D50004D494E54454D5020747269676746
:1036900065726564004572723A204D415854454D3B
:1036A0005020424544004572723A204D41585445DD
:1036B0004D50004D415854454D5020747269676714
:1036C0006572656400202F002042403A0020403A95
:1036D000005654726176206D696E005654726176A0
:1036E000206D696E005654726176206D696E0056C9
:1036F0006D696E00566D696E00566D696E00566D8F
:103700006178204500566D6178204500566D6178DE
:10371000204500566D6178205A00566D6178205A18
:1037200000566D6178205A00566D61782059005618
:103730006D6178205900566D6178205900566D6191
:1037400078205800566D6178205800566D617820B9
:1037500058004D6F74696F6E00416D6178204500AF
:10376000416D6178204500416D6178205A00416DBE
:103770006178205A00416D6178205900416D61786F
:10378000205900416D6178205800416D61782058C2
:1037900000412D74726176656C00412D7472617602
:1037A000656C00412D7265747261637400412D7205
:1037B00065747261637400416363656C00416363A7
:1037C000656C004D6F74696F6E004D6F76652058A3
:1037D000004D6F76652059004D6F7665205A004583
:1037E00078747275646572004D6F766520302E3185
:1037F0006D6D004D6F766520316D6D004D6F766596
:103800002031306D6D004D6F7665206178697300F1
:10381000486F74656E6420746F6F20636F6C640012
:103820004578747275646572004D6F7665205A0034
:103830004D6F76652059004D6F76652058004578AC
:10384000747275646572004D6F7665205A004D6F15
:1038500076652059004D6F7665205800507265706E
:1038600061726500526573656E643A20006F6B008B
:103870006265640A002C2073797374656D2073741B
:103880006F7070656421204865617465725F49449A
:103890003A200048656174696E67206661696C65ED
:1038A000640048656174696E67206661696C65646F
:1038B0000048656174696E67206661696C656400C3
:1038C00048656174696E67206661696C65640000B3
:1038D000D000DC0011241FBECFEFD1E2DEBFCDBF90
:1038E00000E00CBF14E0A0E0B2E0E0E2F8E602E0A5
:1038F0000BBF02C007900D92A031B107D9F728E1A4
:10390000A0E1B4E001C01D92A03BB207E1F71CE1C9
:10391000C9E6DCE100E006C021970109802FFE0125
:103920000F946E33C836D10780E00807A9F70F94CB
:1039300061190D94FF330C9400002F923F924F9227
:103940005F926F927F928F929F92AF92BF92CF922F
:10395000DF92EF92FF920F931F93CF93DF93CDB738
:10396000DEB7C657D1090FB6F894DEBF0FBECDBF84
:1039700081E090E09093390B8093380B80919917F8
:103980008D3411F40C94D624843511F40C94133333
:10399000873411F00C944D338091971790919817BC
:1039A0008B31910509F448C6B4F4843091053CF498
:1039B00082309105C4F597FF2FC00C946433843096
:1039C000910509F4F2C54A9711F00C9464330E94F2
:1039D000193B0C9464338A32910509F426C75CF4D0
:1039E0008D31910509F459C60CF452C64E9709F46D
:1039F00058C60C9464338B35910509F4C1C68C35D7
:103A0000910509F4C2C68A35910511F00C9464330E
:103A1000109215040C9464338091A20281110C94CD
:103A20006B330C9464332091A202222311F40C9482
:103A3000643311E0029709F010E00E94C2E082E5D1
:103A40000E94BC39882309F45CC10E9456396B017D
:103A50007C0140909D0B50909E0B60909F0B70904E
:103A6000A00B2091A10B3091A20B4091A30B509180
:103A7000A40B23962CAF3DAF4EAF5FAF2397809141
:103A8000C0089091C108A091C208B091C3082796C0
:103A90008CAF9DAFAEAFBFAF27972091C4083091D8
:103AA000C5084091C6085091C70863962CAF3DAF3A
:103AB0004EAF5FAF639720E030E0A901C701B601C8
:103AC0000F943A2C882309F456C5A3019201279636
:103AD0006CAD7DAD8EAD9FAD27970F943A2C8111C3
:103AE00011C023962CAD3DAD4EAD5FAD23976396CF
:103AF0006CAD7DAD8EAD9FAD63970F943A2C88234E
:103B000009F439C520E030E0A901C701B6010F94DE
:103B10003A2C881F8827881F18130BC080E090E07C
:103B2000A0E8BFE36B968CAF9DAFAEAFBFAF6B9716
:103B30000AC020E030E040E85FEB6B962CAF3DAF71
:103B40004EAF5FAF6B97A301920127966CAD7DAD31
:103B50008EAD9FAD27970F9472302F966CAF7DAFCF
:103B60008EAF9FAF2F9723962CAD3DAD4EAD5FAD81
:103B7000239763966CAD7DAD8EAD9FAD63970F942B
:103B8000723067966CAF7DAF8EAF9FAF67972F9601
:103B90002CAD3DAD4EAD5FAD2F97CA01B9010F946D
:103BA0009F2C4B015C0167962CAD3DAD4EAD5FADDA
:103BB0006797CA01B9010F949F2C9B01AC01C50105
:103BC000B4010F9473300F94DE322B966CAF7DAF3F
:103BD0008EAF9FAF2B9720E030E040E05FE30F9483
:103BE0009F2C4B015C01A7019601C701B6010F9400
:103BF0009F2C6B017C01A5019401C501B4010F94B8
:103C00009F2C9B01AC01C701B6010F9472300F9439
:103C1000DE329B01AC016B966CAD7DAD8EAD9FAD80
:103C20006B970F949F2C4B015C0127962CAD3DADFB
:103C30004EAD5FAD2797C301B2010F94733020E002
:103C400030E040E05FE30F949F2C6B017C016796AE
:103C50006CAD7DAD8EAD9FAD679790582B962CAD1A
:103C60003DAD4EAD5FAD2B970F944F319B01AC0135
:103C7000C501B4010F949F2C9B01AC01C701B60193
:103C80000F947330A30192010F9472306B017C0189
:103C900063962CAD3DAD4EAD5FAD639723966CAD95
:103CA0007DAD8EAD9FAD23970F94733020E030E053
:103CB00040E05FE30F949F2C2B013C012B962CAD31
:103CC0003DAD4EAD5FAD2B972F966CAD7DAD8EADFE
:103CD0009FAD2F970F944F319B01AC01C501B401EB
:103CE0000F949F2C9B01AC01C301B2010F94733060
:103CF00023962CAD3DAD4EAD5FAD23970F94723042
:103D000014C089E40E94BC39882329F00E945639E6
:103D10006B017C0103C0C12CD12C76018AE40E9486
:103D2000BC398823F9F00E94563963966CAF7DAF99
:103D30008EAF9FAF639720E030E0A901C701B601C5
:103D40000F943A2C81111EC020E030E0A901639647
:103D50006CAD7DAD8EAD9FAD63970F943A2C811104
:103D600011C009C420E030E0A901C701B6010F94D9
:103D70003A2C882309F4FFC363961CAE1DAE1EAE19
:103D80001FAE6397D701C601B05823968CAF9DAF85
:103D9000AEAFBFAF239763962CAD3DAD4EAD5FADDB
:103DA0006397505827962CAF3DAF4EAF5FAF279724
:103DB0009C01AD01BC01CD010F949F2C4B015C0116
:103DC00027962CAD3DAD4EAD5FAD2797CA01B90129
:103DD0000F949F2C9B01AC01C501B4010F9473306B
:103DE0000F94DE32AB966CAF7DAF8EAF9FAFAB97CB
:103DF00080919D0B90919E0BA0919F0BB091A00B79
:103E00002B968CAF9DAFAEAFBFAF2B97A70196019E
:103E1000BC01CD010F9473306B966CAF7DAF8EAF4C
:103E20009FAF6B972091A10B3091A20B4091A30BF8
:103E30005091A40B67962CAF3DAF4EAF5FAF679725
:103E400063962CAD3DAD4EAD5FAD639767966CAD9F
:103E50007DAD8EAD9FAD67970F9473306F966CAF4D
:103E60007DAF8EAF9FAF6F978091C0089091C108D2
:103E7000A091C208B091C308A3968CAF9DAFAEAF1E
:103E8000BFAFA3976B962CAD3DAD4EAD5FAD6B97BD
:103E9000BC01CD010F9472306B017C012091C408EC
:103EA0003091C5084091C6085091C708A7962CAF1D
:103EB0003DAF4EAF5FAFA7976F962CAD3DAD4EAD0A
:103EC0005FAD6F97A7966CAD7DAD8EAD9FADA7979B
:103ED0000F9472304B015C018091A50B9091A60B61
:103EE000A091A70BB091A80BE3968CAF9DAFAEAF9E
:103EF000BFAFE3979C01AD016091C8087091C908FC
:103F00008091CA089091CB080F9472302F966CAFB5
:103F10007DAF8EAF9FAF2F972091CC083091CD0809
:103F20004091CE085091CF08AF962CAF3DAF4EAF29
:103F30005FAFAF978091A90B9091AA0BA091AB0BAB
:103F4000B091AC0BE7968CAF9DAFAEAFBFAFE7972C
:103F5000A701960123966CAD7DAD8EAD9FAD2397E5
:103F60000F949F2C2B013C01A501940127966CAD69
:103F70007DAD8EAD9FAD27970F949F2C9B01AC011B
:103F8000C301B2010F9473302B013C01A5019401D0
:103F900023966CAD7DAD8EAD9FAD23970F949F2C76
:103FA0004B015C01A701960127966CAD7DAD8EADEE
:103FB0009FAD27970F949F2C9B01AC01C501B401C5
:103FC0000F947230A30192010F94E6306B017C01D3
:103FD00020E030E0A9010F943A2C87FF0AC02BEDB6
:103FE0003FE049EC50E4C701B6010F9473306B0118
:103FF0007C01112351F02BED3FE049EC50E4C70167
:10400000B6010F9472306B017C0120E030E0A90111
:10401000C701B6010F943A2C811128C0A3962CAD8C
:104020003DAD4EAD5FADA3972B966CAD7DAD8EAD26
:104030009FAD2B970F943A2C811118C0A7962CADE9
:104040003DAD4EAD5FADA79767966CAD7DAD8EADC6
:104050009FAD67970F943A2C811108C06BEDC62E67
:104060006FE0D62E69ECE62E60E4F62EAB962CAD12
:104070003DAD4EAD5FADAB97C701B6010F949F2C20
:104080009B01AC010F949F2C4B015C012F962CAD32
:104090003DAD4EAD5FAD2F97CA01B9010F949F2C76
:1040A0009B01AC01C501B4010F9473300F94DE3253
:1040B0004B015C012FE632E143E85AE30F943A2CBE
:1040C00087FD55C2C501B4010F94E8310F94BC318E
:1040D0001B01672B19F422242394312CB10180E0B9
:1040E00090E00F943E2C4B015C019B01AC01C70199
:1040F000B6010F944F312B966CAF7DAF8EAF9FAF53
:104100002B97A50194012F966CAD7DAD8EAD9FAD23
:104110002F970F944F31AB966CAF7DAF8EAF9FAFA3
:10412000AB97E7962CAD3DAD4EAD5FADE797AF9643
:104130006CAD7DAD8EAD9FADAF970F947230A50184
:1041400094010F944F31AF966CAF7DAF8EAF9FAFA0
:10415000AF972B962CAD3DAD4EAD5FAD2B97CA0101
:10416000B9010F949F2C20E030E040E05FE30F9412
:104170009F2C9B01AC0160E070E080E89FE30F940E
:104180007230A3966CAF7DAF8EAF9FAFA397E396CF
:104190002CAD3DAD4EAD5FADE39729873A874B8798
:1041A0005C87E7968CAD9DADAEADBFADE7978D87D3
:1041B0009E87AF87B88B6091140270911502072E0D
:1041C000000C880B990B0F94402C20911C0230910D
:1041D0001D0240911E0250911F020F949F2C2AE055
:1041E00037ED43E25CE30F949F2C6BAF7CAF8DAF58
:1041F0009EAF0E943EE99B01AC0128533F4F4F4FB9
:104200005F4FA7962CAF3DAF4EAF5FAFA7974FACB8
:1042100021965FAC219722966FAC229723967FACB4
:10422000239741E050E065965FAF4EAF659759E147
:104230002C965FAF2C976596AEADBFAD6597A21576
:10424000B30509F459C10F9441160E943EE9DC01FF
:10425000CB01A7962CAD3DAD4EAD5FADA797821BB0
:10426000930BA40BB50BB7FD11C00E943EE99B0157
:10427000AC0128533F4F4F4F5F4FA7962CAF3DAF38
:104280004EAF5FAFA79780E00E9439D62C963FAD26
:104290002C9731502C963FAF2C97332309F44BC009
:1042A000A3962CAD3DAD4EAD5FADA39727966CADFB
:1042B0007DAD8EAD9FAD27970F949F2C6B017C0138
:1042C0002B962CAD3DAD4EAD5FAD2B97B201C3012A
:1042D0000F949F2CA70196010F9473306B017C0102
:1042E000A3962CAD3DAD4EAD5FADA397B201C3011A
:1042F0000F949F2C4B015C012B962CAD3DAD4EAD28
:104300005FAD2B9727966CAD7DAD8EAD9FAD27979A
:104310000F949F2C9B01AC01C501B4010F94723026
:104320002B013C01C601D70127968CAF9DAFAEAFE4
:10433000BFAF279761C065964EAD5FAD6597BA0177
:1043400080E090E00F943E2C2B962CAD3DAD4EAD11
:104350005FAD2B970F949F2C4B015C010F944C3158
:104360006B017C01C501B4010F94D4324B015C0197
:10437000A701960123966CAD7DAD8EAD9FAD2397C1
:104380000F949F2C2B013C01A501940163966CAD09
:104390007DAD8EAD9FAD63970F949F2C9B01AC01BB
:1043A000C301B2010F9473302B013C01A5019401AC
:1043B00023966CAD7DAD8EAD9FAD23970F949F2C52
:1043C0004B015C01A701960163966CAD7DAD8EAD8E
:1043D0009FAD63970F949F2C9B01AC01C501B40165
:1043E0000F94723027966CAF7DAF8EAF9FAF27973B
:1043F00059E12C965FAF2C979201A3016B966CAD9F
:104400007DAD8EAD9FAD6B970F94733069837A83CA
:104410008B839C8327962CAD3DAD4EAD5FAD27972A
:104420006F966CAD7DAD8EAD9FAD6F970F94733071
:104430006D837E838F839887AB962CAD3DAD4EAD5B
:104440005FADAB9769857A858B859C850F947330BA
:1044500069877A878B879C87AF962CAD3DAD4EAD33
:104460005FADAF976D857E858F8598890F9473308A
:104470006D877E878F87988B80919702882321F0A4
:10448000CE0101960E9434D5E090310B89819A814A
:10449000AB81BC8188A399A3AAA3BBA38D819E8174
:1044A000AF81B8858CA39DA3AEA3BFA389859A8550
:1044B000AB85BC8588A799A7AAA7BBA7CE01809684
:1044C0000E9418FE8E01055C1F4F9E01235F3F4F27
:1044D000AE01485D5F4FBE016C5D7F4FCE0180969F
:1044E0000E94BA6865968EAD9FAD659701966596F8
:1044F0009FAF8EAF65979FCEE090310B8091C00843
:104500009091C108A091C208B091C30888A399A353
:10451000AAA3BBA38091C4089091C508A091C60826
:10452000B091C7088CA39DA3AEA3BFA38091C80878
:104530009091C908A091CA08B091CB0888A799A703
:10454000AAA7BBA7CE0180960E9418FE8E01055C2B
:104550001F4F2CEC38E0AE01485D5F4FBE016C5D33
:104560007F4FCE0180960E94BA680E940F3B0E9446
:1045700020FE0C946433E5E4F0E184918F010F5F39
:104580001F4F882321F00E94ED37F801F6CFE7E1B5
:10459000F2E084918F010F5F1F4F882311F40C9478
:1045A00064330E94ED37F801F4CF80E50E94BC39F6
:1045B000882329F00E94F9FD6B017C0103C0C12C06
:1045C000D12C760183E50E94BC39882361F00E94DA
:1045D000563920E030E04AE754E40F949F2C0F94C2
:1045E000BC316B017C010F94C81780914F0281117F
:1045F00005C060E08DE292E00E94F0900E9420FEF3
:1046000080916E1290916F12A0917012B091711200
:10461000C80ED91EEA1EFB1E0E943EE9DC01CB013A
:104620008C199D09AE09BF09B7FD02C00C94643313
:1046300080E00E9439D6F0CF0E94827D81110C94D7
:10464000643380E090E0A0E4B0E489839A83AB8394
:10465000BC838D839E83AF83B88780E090E0A0E227
:10466000B1E489879A87AB87BC8780E50E94BC3913
:10467000882319F00E94263901C060E068A3BE01BA
:104680006F5F7F4FCE0180960E941FB00C94643301
:1046900080E00E94BDE40C9464330E949FC20C949D
:1046A0006433C0909D0BD0909E0BE0909F0BF090D8
:1046B000A00B88E50E94BC39811109C020E030E0E0
:1046C00044E152E4C701B6010F94723002C00E9467
:1046D000563968A379A38AA39BA3C090A10BD0905D
:1046E000A20BE090A30BF090A40B89E50E94BC39CB
:1046F000811108C020E030E0A901C701B6010F9484
:10470000733002C00E9456396B017C0169837A8341
:104710008B839C8388A099A0AAA0BBA02FE632E13E
:1047200043E85AEBC501B4010F94993287FF02C0E8
:104730000C94643322E430E045E553E4C501B40150
:104740000F943A2C181614F40C9464332FE632E1CB
:1047500043E85AEBC701B6010F94993287FF02C0B4
:104760000C94643322E430E04AE753E4C701B60115
:104770000F943A2C181614F40C9464330C94703380
:1047800081E0809315040C9464330F94C81737EAC2
:10479000232E32E0332E4DE9E42E4BE0F42E00E0E0
:1047A000D12C10E0F10181911F010E94BC398823B6
:1047B00051F10E9456392B013C01D7012D913D91B9
:1047C0004D915C910F9472304B015C012DEB37E3FE
:1047D00046E855EB0F94993287FD0AC02DEB37E37D
:1047E00046E855E3C501B4010F943A2C18165CF461
:1047F000133019F0DD24D39401C001E0F7014082A9
:104800005182628273821F5FF4E0EF0EF11C14305C
:1048100049F6DD2019F00E94B2FD03C001110E948B
:10482000A07B0E94D3BF0C9464338091A2028823A2
:1048300011F40C94643389E40E94BC39182F882346
:1048400021F00E942639E62E01C0E12C8AE40E9464
:10485000BC39F82E882331F00E942639062F111119
:1048600004C00BC000E01123B9F022E02E1510F0B7
:104870000C942E37E8E4F2E003C00330D8F70CC004
:1048800084918F010F5F1F4F882311F40C946433C0
:104890000E94ED37F801F4CF0E94C8391123F1F0DE
:1048A00020918D1630918E164E2D4203B001439FFC
:1048B000700D11242091891630918A16620F731F92
:1048C000072E000C880B990B0F94402C6093C008A6
:1048D0007093C1088093C2089093C308FF20E9F049
:1048E00020918F16309190160203B001039F700D36
:1048F000112480918B1690918C16680F791F072ECA
:10490000000C880B990B0F94402C6093C408709393
:10491000C5088093C6089093C70880E50E94BC39FB
:10492000882319F00E94473903C080E50E948D3921
:104930008823C1F01123B1F020E030E044E152E4DB
:104940006091C0087091C1088091C2089091C3081D
:104950000F9473306093C0087093C1088093C208AD
:104960009093C30886E40E94BC398823D9F00E9442
:1049700056396B017C0120E030E0A9010F94993297
:10498000181684F420E030E040E752E4C701B60195
:104990000F944F3160931C0270931D0280931E028E
:1049A00090931F020E94AAD80C94643380919717A9
:1049B000909198178737910511F40C94B92D0CF04C
:1049C000EBC08D34910509F483C50CF057C08931D3
:1049D000910509F4FFC21CF58431910509F47BC2ED
:1049E0007CF48131910509F46BC22CF4029708F430
:1049F000DBC10C946433429709F451C70C946433BF
:104A00008631910509F4B0C20CF4AAC28731910530
:104A100009F4B0C2489709F4C3C20C9464338F31CF
:104A2000910509F446C47CF48B31910509F4E4C284
:104A30000CF4D4C28C31910509F4E2C24E9709F40A
:104A4000E9C20C9464338133910509F418C54CF420
:104A50008032910509F4E3C38A9709F4D0C40C9419
:104A600064338B34910509F42FC58C34910511F012
:104A70000C9464330E94EF7E0C9464338B36910562
:104A800009F481C60CF052C08535910509F43CC784
:104A90007CF58235910509F4FBC604F58135910555
:104AA00011F00C9464330F9456050F94C8170E94AC
:104AB000CDD51092640B1092630B68EE73E080E02A
:104AC00090E00E94D18F0F94C8170E948CFA60E08A
:104AD00085ED93E00E94F0900C946433833591054A
:104AE00009F4D9C68435910509F4D9C60C94643308
:104AF0008836910509F4F0C47CF48C35910511F0E9
:104B00000C946433B7EACB2EB2E0DB2E1DEAE12E23
:104B10001BE0F12E10E011C78936910509F498C504
:104B20008A36910509F40CC60C94643380379105DC
:104B300009F440C59CF48D36910509F4CCC50CF4FC
:104B400035C58E36910509F41EC58F36910511F0D5
:104B50000C9464330E9417C10C946433833791051D
:104B600009F46AC77CF48137910509F427C58237B7
:104B7000910511F00C9464330F94C8170E94D3BFB1
:104B80000C9464338537910509F4A9C786379105DC
:104B900009F4ADC70C9464338E3251E0950711F4DB
:104BA0000C94EB310CF071C08B3C910511F40C941A
:104BB0002E2E8CF58139910511F40C94282E94F445
:104BC0008937910511F40C94232E14F40C941D2EA6
:104BD0008D37910509F4E7C58C38910509F41AC59C
:104BE0000C9464338E3B910509F490C534F48B39F1
:104BF000910509F44AC50C946433883C910511F47D
:104C00000C942B2E893C910511F00C9464330E9476
:104C100021BF0C9464338D3D910511F40C94902FB9
:104C2000A4F48D3C910511F40C949B2E14F40C9477
:104C3000312E833D910511F40C94062F8C3D910586
:104C400011F40C94832F0C9464338232B1E09B07EF
:104C500011F40C94A63064F4823E910511F40C9486
:104C6000D72F8831914011F40C9400300C946433A8
:104C70008C3221E0920711F40C94B1308D329140C6
:104C800011F40C94DA300C946433843A41E09407C4
:104C900011F40C9447320CF03FC08139A1E09A071F
:104CA00011F40C943C32C4F48033E1E09E0711F41B
:104CB0000C94743114F40C943932833621E0920749
:104CC00011F40C94A8328039914011F00C946433A3
:104CD0000F94C8170C946433883941E0940711F499
:104CE0000C94403254F48239914011F00C946433A6
:104CF00080E00E94ADE20C9464338939B1E09B07F7
:104D000011F40C9444328A39914011F00C946433BC
:104D10000E941BCA0C946433873FF1E09F0711F493
:104D20000C945032FCF4843F31E0930711F40C945E
:104D30004A324CF4853A914011F00C9464330E944D
:104D40008EC80C946433853FA1E09A0711F40C944B
:104D50004D32863F914011F00C9464330E9460EB19
:104D60000C946433803AE3E09E0709F495C27CF426
:104D7000883522E0920711F40C94A53283359340D4
:104D800011F00C946433ECE8FEE20C945332873E4D
:104D900043E0940711F40C94AB32893D974011F431
:104DA0000C94AE320C946433A0909517B090961783
:104DB00080E50E94BC39882359F00E94F9FD6B01FF
:104DC0007C0111E0672B682B692B31F410E004C0E3
:104DD00010E0C12CD12C760183E50E94BC398823D8
:104DE000F1F00E94563920E030E04AE754E40F9495
:104DF0009F2C0F94BC316B017C01111112C0672BE9
:104E0000682B692B71F4A114B10459F0D5018C9170
:104E1000882339F061E0C5010E940E9107C011237B
:104E200091F360E085E892E00E94F09083E090E0EA
:104E30009093390B8093380B81E08093F20B0F94A1
:104E4000C8170E9420FEC114D104E104F104F1F05E
:104E500080916E1290916F12A0917012B0917112A8
:104E6000C80ED91EEA1EFB1E0E943EE9DC01CB01E2
:104E70008C199D09AE09BF09B7FF1EC08091F20BC6
:104E80008823D1F080E00E9439D6EECF8091F20BDA
:104E9000882321F080E00E9439D6F8CF80918413D6
:104EA0009091851360E0029719F486E792E002C0C2
:104EB00087E692E00E94F0901092F20B0C9464331B
:104EC00060E088E992E00E94F09042981798159867
:104ED0002E980C946433E0EBF2E084918F010F5F25
:104EE0001F4F882321F00E94ED37F801F6CF109272
:104EF00044161092431640E050E0BA018DEC93E165
:104F00000E9467718BE1EDECF3E1DE0115960190F3
:104F10000D928A95E1F78091CB139091CC139C83ED
:104F20008B8387ED92E09A83898340E050E0BE0155
:104F30006F5F7F4F88E993E00E94EADECE01019621
:104F40000E94C3D5E1EAF2E084918F010F5F1F4F09
:104F5000882311F40C9464330E94ED37F801F4CFE8
:104F60000E949E570C9464331092941310929513E0
:104F70000C946433E0919517F09196178081882303
:104F800029F0803209F410823196F8CF40E061E0D8
:104F900080919517909196170E9461540C946433F8
:104FA00019821A821B821C8218A219A21AA21BA2A1
:104FB00080913A0B882341F040E0BE016F5F7F4F44
:104FC000CE0180960E94DA790E9444540E942B7E82
:104FD0000C9464330E948EC10C94643380919513B9
:104FE000882311F40C94643383E50E94BC39811149
:104FF0000C94C3330C9464330E94097F0C94643383
:1050000040E060E080919517909196170E9461545E
:105010000C94643380919513882311F40C946433B9
:1050200081E995E10E94E4A481E995E10E94507232
:105030001092931310929213E0909517F090961798
:1050400080919513882311F40C9464330E94565474
:10505000FE0131966F01CF010E9489A289EC93E194
:105060009093E9138093E813D7018C918F3209F064
:1050700060C06FE270E0C7010F94BC338C010F5F1A
:105080001F4F09F45CC06FE270E0C8010F94BC339D
:105090005C01009709F454C00817190708F050C0C4
:1050A0004C01801A910AA401B801CE0180960F9498
:1050B000E533E0E2F0E0EC0FFD1FE80DF91D108292
:1050C0008E01005E1F4FF80181918F01882319F036
:1050D0000E94ED37F8CF8AE00E94ED376091E81327
:1050E0007091E9136115710511F06C5F7F4F21E03C
:1050F000AE01405E5F4FCE0105960E940F78811190
:1051000012C0BE01605E7F4F87EE92E00E94FA6699
:105110008EE20E94ED378AE00E94ED37C6010E94C0
:10512000C3D50C946433D092E913C092E81385017F
:10513000A6CF8AEE93E19093E9138093E813870159
:105140006091E8137091E9136115710511F06C5FBE
:105150007F4F18A21BA222E0A801CE0180960E94D8
:105160000F78811102C0F12C14C0CE0180960E94EC
:1051700058DE8823C1F361E0CE0180960E94597207
:10518000009789F325EEDC012C931BA20E9493A2C9
:10519000F82ECE0180960E9409FEFF2019F1E1EC65
:1051A000F2E084917F01BFEFEB1AFB0A882321F024
:1051B0000E94ED37F701F5CFF80181918F01882327
:1051C00019F00E94ED37F8CF8AE00E94ED37109277
:1051D000C5131092C6131092C7131092C8130E94E1
:1051E0000A5318C0EFECF2E084917F012FEFE21A2E
:1051F000F20A882321F00E94ED37F701F5CFD8019C
:105200008D918D01882319F00E94ED37F8CF8EE241
:105210000E94ED37C6010E94C3D50C94643380917F
:10522000941381110F94C81780919513882311F45A
:105230000C94643380E50E94BC39882319F00E94E5
:10524000473903C080E50E948D39182F482F61E04F
:1052500080919517909196170E94615483E50E9462
:10526000BC39882381F00E942639AB01BC014093F0
:10527000C5135093C6136093C7137093C81381E985
:1052800095E10E9467710E94445411110C9464339B
:105290000E942B7E0C946433809195179091961701
:1052A00021E02093931340E060E00E9461540C944D
:1052B00064330E94F9DD2CE3C22ED12CE12CF12CB9
:1052C000A70196010F941530762E672ECA01B901F9
:1052D000A70196010F9415306B017C01CA01B90139
:1052E00028E130E040E050E00F9415304B015C01C4
:1052F000C9016DE671E00F9447338E010F5F1F4FB8
:105300006115710599F06F927F92DF92CF929F9213
:105310008F929F938F937F936F9383E293E09F93FA
:105320008F931F930F930F94D32B12C00097B1F05C
:105330006F927F92DF92CF929F928F929F938F93E3
:1053400083E193E09F938F931F930F930F94D32B3D
:105350000FB6F894DEBF0FBECDBF36C081149104E6
:10536000A104B10479F06F927F92DF92CF929F9265
:105370008F9287E093E09F938F931F930F930F94E7
:10538000D32BE6CFC114D104E104F10469F06F928C
:105390007F92DF92CF928FEF92E09F938F931F9334
:1053A0000F930F94D32BD4CF6F927F928BEF92E019
:1053B0009F938F931F930F930F94D32B0F900F9066
:1053C0000F900F900F900F9060E0C8010E940E9117
:1053D000ECE8FEE284917F019FEFE91AF90A882345
:1053E00021F00E94ED37F701F5CFB80187E393E094
:1053F0000E94FA668AE00E94ED370C94643383E5DC
:105400000E94BC39882311F40C9464330E9436390D
:10541000E82E80E50E94BC39882341F00E9426399D
:105420008B0177FF02C00C94643302C006E010E0E9
:10543000902FECE4F6E088E28E0F2491921729F089
:1054400031968E13FACF0C94D333E5E4F0E18491D6
:105450008F010F5F1F4F882321F00E94ED37F80165
:10546000F6CFE4E4F3E084918F010F5F1F4F8823B0
:1054700011F40C9464330E94ED37F801F4CFF090EE
:10548000100481E0F826F0921004EEE5F3E0849138
:105490008F010F5F1F4F882321F00E94ED37F80125
:1054A000F6CFF11003C0E8E5F3E002C0E3E5F3E076
:1054B00084918F010F5F1F4F882311F40C94643384
:1054C0000E94ED37F801F4CF0E942B7E0C946433D8
:1054D0000E94C7DB0C94643388E690E00E944AFA8D
:1054E00081110C94643380910D1783FF02C00C94DA
:1054F000643383E50E94BC39882309F440C00E94CC
:1055000056390F94B7317093620B6093610B80E052
:105510000F940B050E94563920E030E04AEA52E42D
:105520000F943A2C18163CF00E94C7DB60E080E72D
:1055300093E00E94F0900E9456392091F80B309130
:10554000F90B4091FA0B5091FB0B0F9499321816FE
:10555000B4F484E493E09F938F938091241790E0B8
:1055600001969F938F9389E693E09F938F931F9269
:105570000E94677D0FB6F894DEBF0FBECDBF0F94BB
:10558000F3200C9464338EE40E94BC39882311F418
:105590000C9464330E9426396093D2087093D30828
:1055A0008093D4089093D5080C946433109292029F
:1055B0000C9464338FE793E00E94D6D583E50E9474
:1055C000BC39882369F00E9436398D3320F48093EA
:1055D0004A020C9464338CE380934A020C94643343
:1055E000ECE8FEE284918F010F5F1F4F882321F0CA
:1055F0000E94ED37F801F6CF40914A0250E060E09A
:1056000070E088E893E00E948A668AE00E94ED37A5
:105610000C94643380910D1783FF02C00C946433A3
:1056200083E50E94BC39882311F40C9464330E94F2
:1056300056390F94B7316E37710514F06DE770E08D
:105640007093600B60935F0B0F94C0040C946433F1
:1056500089E690E00E944AFA811111C0EFE8F3E078
:1056600084918F010F5F1F4F882321F00E94ED3737
:10567000F801F6CF0F9489028AE00E94ED3710926C
:10568000390B1092380B0C945D3783E50E94BC39BE
:10569000882311F40C9464330E943639182F8D330B
:1056A00008F01CE310936B120E943EE96B017C0131
:1056B000212F30E0A8EEB3E00F946330C60ED71E62
:1056C000E81EF91EC0926712D0926812E092691229
:1056D000F0926A12F9C78DE690E00E944AFA8111B1
:1056E000F3C780910D1783FF01C0EEC783E50E94C9
:1056F000BC3960968FAF609781110C94E93382E5D5
:105700000E94BC3981110C94E933DEC780910D17DA
:1057100083FF01C0D9C760E088EC93E00E94F0905D
:1057200083E50E94BC3960968FAF609781110C941D
:10573000753582E50E94BC3981110C947535C4C75A
:1057400080E50E94BC39811108C083E50E94BC3904
:10575000811108C03FEF20E009C00E943639811155
:10576000B3C7F3CF0E942639362F272F832F922FCE
:105770008F3F910519F010F08FEF90E09093640B3C
:105780008093630BA1C780E50E94BC39811105C0DD
:105790001092640B1092630B97C70E942639672BF7
:1057A00009F092C7F5CF8CE40E948D39882319F057
:1057B0000E94563904C060E070E080E090EC6BAF6E
:1057C0007CAF8DAF9EAF80E090E0A0E4B0E4898331
:1057D0009A83AB83BC838D839E83AF83B88780E03D
:1057E00090E0A0E2B1E489879A87AB87BC8788E51F
:1057F0000E94BC39882379F088E50E94BC3988234F
:1058000019F00E94563903C060E070E0CB01698353
:105810007A838B839C8389E50E94BC39882379F045
:1058200089E50E94BC39882319F00E94563903C0CB
:1058300060E070E0CB016D837E838F8398878AE57B
:105840000E94BC39882379F08AE50E94BC398823FC
:1058500019F00E94563903C060E070E0CB016987FF
:105860007A878B879C8718A219A21AA21BA2809103
:105870003A0B811129C700E020E0AE01405E5F4F86
:10588000BE016F5F7F4FCE01CB960E94FD781CC793
:105890001092140419C781E08093140415C783E59E
:1058A0000E94BC39882399F00E94563920E030E0EC
:1058B0004AE754E40F949F2C0F94BC3160934B0241
:1058C00070934C0280934D0290934E02FDC688E582
:1058D0000E948D3981110C94D63689E50E948D394C
:1058E00081110C94D6368AE50E948D3981110C9471
:1058F000D63685E40E948D3981110C94D6360F94EA
:10590000C8170E94CDD5E0C683E50E948D39882353
:1059100009F4DAC60E94563920E030E04AE754E440
:105920000F949F2C0F94BC3160937212709373127A
:105930008093741290937512C7C6D6018D916D0134
:105940000E948D39882309F46DC0133009F063C0BB
:105950000E9456394B015C0120E030E040EA51E4FE
:105960000F943A2C87FF4EC0A50194016091B90BAA
:105970007091BA0B8091BB0B9091BC0B0F944F317F
:105980002B013C019B01AC0160911D0C70911E0C20
:1059900080911F0C9091200C0F949F2C60931D0CF4
:1059A00070931E0C80931F0C9093200CA301920106
:1059B00060914D1770914E1780914F17909150172D
:1059C0000F949F2C60934D1770934E1780934F1731
:1059D0009093501760911D0B70911E0B80911F0BBF
:1059E0009091200B0F943E2CA30192010F949F2CB9
:1059F0000F94BC3160931D0B70931E0B80931F0B93
:105A00009093200B8092B90B9092BA0BA092BB0B93
:105A1000B092BC0B07C00E945639F70160837183B6
:105A2000828393831F5FF4E0EF0EF11C143009F0C2
:105A300084CF0E944F6848C6E9E9F4E084918F0161
:105A40000F5F1F4F882321F00E94ED37F801F6CF3A
:105A500060E089E894E00E948FBF61E082E894E012
:105A60000E948FBF61E087E794E00E948FBF61E0F2
:105A700087E694E00E948FBF60E08EE594E00E948C
:105A80008FBF61E084E594E00E948FBF61E08AE40B
:105A900094E00E948FBF61E082E494E00E948FBF97
:105AA00061E084E394E00E948FBF60E086E294E0CE
:105AB0000E948FBF60E087E194E00E948FBF61E0A9
:105AC00089E094E00E948FBF61E083EF93E00E9441
:105AD0008FBF60E082EE93E00E948FBFF5C560E06B
