:100000000C94A5180C94D6180C94D6180C94D618E9
:100010000C94D6180C94D6180C94D6180C94D618A8
:100020000C94D6180C94D6180C94D6180C94D61898
:100030000C94D6180C94D6180C94D6180C94D61888
:100040000C94D6180C94B1790C94D6180C94D6183C
:100050000C94D6180C94D6180C9489D80C948094CF
:100060000C94D6180C948B410C94D6180C94D6187A
:100070000C94D6180C94D6180C94D6180C94D61848
:100080000C94D6180C94D6180C94D6180C94D61838
:100090000C94D6180C94D6180C94D6180C94D61828
:1000A0000C94D6180C94D6180C94D6180C94D61818
:1000B0000C94D6180C94D6180C94D6180C94D61808
:1000C0000C94D6180C94D6180C94D6180C94D618F8
:1000D0000C94D6180C94D6180C94D6180C94D618E8
:1000E0000C94D6184B4B544B5E4B674B704B8B4B61
:1000F000984BA14B794B824B04920792F691FA915F
:1001000000923E920B920F92159219921D92239299
:1001100027922B923E923192359239929C93A193E1
:10012000A693B093BA933394C493CC93D493DE93B1
:10013000E893F29301940B94339415941F942994AB
:10014000084AD73B3BCE016E84BCBFFDC12F3D6C3E
:1001500074319ABD56833DDA3D00C77F11BED9E4A4
:10016000BB4C3E916BAAAABE000000803F05A84C84
:10017000CDB2D44EB93836A9020C50B99186880850
:100180003CA6AAAA2ABE000000803F004E414E496C
:100190004E495459494E46CDCCCC3D0AD7233C1745
:1001A000B7D13877CC2B329595E6241FB14F0A0092
:1001B0000020410000C84200401C4620BCBE4CCA82
:1001C0001B0E5AAEC59D7420746F6F206C6F6E67E6
:1001D00020657874727573696F6E207072657665CC
:1001E0006E7465640A0020636F6C642065787472B5
:1001F0007573696F6E2070726576656E7465640ADA
:100200000047322F47332062616420706172616D54
:1002100065746572730A00536C6565702E2E2E002E
:10022000526573756D696E67207072696E740050E7
:1002300072696E7465722072656164792E00436C18
:1002400069636B20746F20726573756D652E2E2E39
:10025000004E6F206D6F76652E00456E64206669D6
:100260006C65206C6973740A00426567696E20666C
:10027000696C65206C6973740A0046696C6520645A
:10028000656C657465643A0044656C6574696F6E8D
:10029000206661696C65642C2046696C653A2000B3
:1002A0006F70656E206661696C65642C2046696CB0
:1002B000653A20002569730025696D202569730062
:1002C0002569682025696D202569730025696420EA
:1002D0002569682025696D202569730025697920C5
:1002E000256964202569682025696D2025697300CA
:1002F0005072696E742074696D653A200050726F97
:100300007465637465642050696E0A004525692030
:100310002573005072696E7465722072656164792C
:100320002E004B494C4C45442E200042656420640D
:100330006F6E652E0020573A004265642048656163
:1003400074696E672E00454D455247454E43595FCF
:1003500050415253455200434153455F4C49474831
:10036000545F4252494748544E45535300544F47F7
:10037000474C455F4C494748545300534F465457E8
:100380004152455F504F574552004255494C445FDA
:1003900050455243454E54004C4556454C494E47F6
:1003A0005F44415441005A5F50524F42450041550D
:1003B000544F4C4556454C005052494E545F4A4F9D
:1003C000420050524F4752455353004155544F52EB
:1003D00045504F52545F54454D5000564F4C554D6B
:1003E000455452494300454550524F4D00534552E4
:1003F00049414C5F584F4E5F584F46460046495260
:100400004D574152455F4E414D453A4D61726C69C1
:100410006E20312E312E3820284769746875622984
:1004200020534F555243455F434F44455F55524C0F
:100430003A68747470733A2F2F6769746875622E06
:10044000636F6D2F4D61726C696E4669726D776175
:1004500072652F4D61726C696E2050524F544F433C
:100460004F4C5F56455253494F4E3A312E30204D36
:10047000414348494E455F545950453A5072696E60
:100480007465722045585452554445525F434F5548
:100490004E543A3120555549443A6365646532619A
:1004A00032662D343161322D343734382D39623192
:1004B000322D6335356336326633363766660A0069
:1004C0002F2F20007A5F6D696E3A2000795F6D6989
:1004D0006E3A2000785F6D696E3A20005265706F49
:1004E0007274696E6720656E6473746F70207374C4
:1004F000617475730A004D31343520533C696E6464
:1005000065783E206F7574206F662072616E676536
:100510002028302D31290A0053657474696E6720D4
:1005200054726176656C20416363656C65726174B9
:10053000696F6E3A200053657474696E6720526566
:10054000747261637420416363656C657261746980
:100550006F6E3A200053657474696E67205072693B
:100560006E7420416363656C65726174696F6E3A85
:10057000200053657474696E67205072696E742030
:10058000616E642054726176656C20416363656CB2
:1005900065726174696F6E3A2000205A002059001C
:1005A000580020204D61783A2000205A0020590040
:1005B000580020204D696E3A20004F6E20004F6693
:1005C0006600536F667420656E6473746F70733A5F
:1005D0002000000125272318FF1F211D1CFF1917CC
:1005E0001B1EFFFF0C0409FFFFFF2E2C0CFFFF0456
:1005F000400AFF41FFFFFFFFFFFF20643A00206930
:100600003A0020703A0020643A0020693A002070D5
:100610003A0043290A0061626C656420286D696EA6
:100620002074656D702000436F6C6420657874726F
:10063000756465732061726520004B64200023643B
:100640006566696E65202044454641554C545F00FF
:100650004B69200023646566696E65202044454629
:1006600041554C545F004B70200023646566696EF1
:1006700065202044454641554C545F005049442074
:100680004175746F74756E652066696E697368650F
:1006900064212050757420746865206C6173742027
:1006A0004B702C204B6920616E64204B6420636F7B
:1006B0006E7374616E74732066726F6D2062656C08
:1006C0006F7720696E746F20436F6E66696775720D
:1006D0006174696F6E2E680A005049442041757438
:1006E0006F74756E65206661696C6564212074693C
:1006F0006D656F75740A00544845524D414C205247
:10070000554E4157415900546865726D616C2052D5
:10071000756E617761790048656174696E672066FE
:1007200061696C65640048656174696E6720666123
:10073000696C656400504944204175746F74756E2E
:1007400065206661696C6564212054656D70657211
:10075000617475726520746F6F20686967680A003C
:10076000204B643A2000204B693A2000204B703A1D
:1007700020000A20436C6173736963205049442050
:100780000A002054753A2000204B753A2000206D55
:1007900061783A2000206D696E3A200020643A208A
:1007A0000020626961733A200043617365206C69BF
:1007B0006768743A2000290A0046697865642070E9
:1007C0006172616D657465722062797465733B2036
:1007D0006372632000466978656420706172616DA0
:1007E0006574657220280048565F7365745F6F6B8F
:1007F0000A00416374697665204578747275646592
:10080000723A2000556E6B6E6F776E20636F6D6D60
:10081000616E643A2022004C696E65204E756D62EF
:100820006572206973206E6F74204C617374204C64
:10083000696E65204E756D6265722B312C204C619E
:100840007374204C696E653A20004B494C4C45440A
:100850002E200053544F505045442E2000507269B2
:100860006E7465722073746F707065642064756552
:1008700020746F206572726F72732E204669782023
:10088000746865206572726F7220616E6420757382
:1008900065204D39393920746F2072657374617227
:1008A000742E202854656D706572617475726520B0
:1008B00069732072657365742E20536574206974A2
:1008C0002061667465722072657374617274696EFA
:1008D00067290A004E6F20436865636B73756D204E
:1008E00077697468206C696E65206E756D626572DB
:1008F0002C204C617374204C696E653A200063684B
:1009000065636B73756D206D69736D617463682CBD
:10091000204C617374204C696E653A20004D313172
:1009200030004D33310047312046313030302059CE
:100930003231300047323820585900534420726514
:100940006164206572726F720A00446F6E65207078
:1009500072696E74696E672066696C650A00204969
:100960006E76616C69642065787472756465722056
:10097000004D313235006F6B00200D46697865649B
:1009800020706172616D65746572206E6279746544
:10099000733B20637263206572726F722000200DBA
:1009A0000A466978656420706172616D657465726C
:1009B0002062797465733B20637263206572726F85
:1009C000722000290A002062797465733B206372EB
:1009D000632000466978656420706172616D65749A
:1009E00065722028002068617264776172652076E4
:1009F000657273696F6E3A004B494C4C45442E202A
:100A000000202D20496E76616C69642065787472CF
:100A100075646572206E756D62657220210A001F13
:100A2000FFFFFFFFFFFF600000000001FF4000002C
:100A3000000000FF8000000000007F83CF00000C5A
:100A4000303F87FF80000C301F867980000C000F3C
:100A50008C30C7838C30E78C30CFC7CC31F38C30EF
:100A6000DCECEC33B98C30D86C6C33198C30D06C36
:100A70000C33198C30D86C0C33198C30DC6C0E3B79
:100A8000198C30CF7C079F198C30C77C038F19409D
:100A9000000000000002600000000000061FFFFFD1
:100AA000FFFFFFF82020506C616E6E657242756624
:100AB00066657242797465733A20002046726565F6
:100AC000204D656D6F72793A2000436F6D70696CCF
:100AD00065643A204A616E20313520323032300A66
:100AE00000207C20417574686F723A20286E6F6E0A
:100AF000652C2064656661756C7420636F6E666931
:100B000067290A00323031372D31322D323520310C
:100B1000323A303000204C61737420557064617437
:100B200065643A2000312E312E380A004D61726C16
:100B3000696E0020536F6674776172652052657329
:100B400065740A00205761746368646F672052659A
:100B50007365740A002042726F776E206F7574207F
:100B600052657365740A002045787465726E616C15
:100B70002052657365740A00506F77657255700A6C
:100B80000073746172740A006572726F72207772FA
:100B90006974696E6720746F2066696C650A004528
:100BA0006E6473746F707320256320256320256342
:100BB00020256300205A3A0020593A0020583A0074
:100BC000656E6473746F7073206869743A200047AF
:100BD000323820580066696C616D656E74206F75DF
:100BE000740A004D33322053256C75202125730083
:100BF0004D33322053256C7520212F25732F2573FB
:100C0000004730204631303030205A25752E25756A
:100C1000004732382059004732382058004D3130D3
:100C200036202053323535004D31303920543020B4
:100C3000532575004D3139302053257500446F6EB2
:100C40006520736176696E672066696C652E0A009F
:100C50004D32390020204E6F7A7A6C653A200020A0
:100C600000506C6561736520776169742E2E2E00CB
:100C700048656174696E67206E6F7A7A6C650050A2
:100C800052494E54205041555345440020204E6F48
:100C90007A7A6C653A2000200068656174206E6F76
:100CA0007A7A6C652E005072657373206275747465
:100CB0006F6E20746F005052494E5420504155536E
:100CC00045440020204E6F7A7A6C653A2000746F9C
:100CD00020636F6E74696E75652E2E2E00616E64D2
:100CE00020707265737320627574746F6E00496E44
:100CF000736572742066696C616D656E7400505224
:100D0000494E54205041555345440020204E6F7A9F
:100D10007A6C653A2000200066696C616D656E74BE
:100D2000206C6F6164005761697420666F720050B7
:100D300052494E54205041555345440020204E6F97
:100D40007A7A6C653A2000200066696C616D656E88
:100D500074206578747275646500576169742066E3
:100D60006F72005052494E54205041555345440033
:100D7000746F20726573756D6500576169742066C4
:100D80006F72207072696E74005052494E54205038
:100D9000415553454400496E697469616C697A65CF
:100DA00020454550524F4D00436F6E74726F6C007A
:100DB000526573746F7265206661696C73616665F4
:100DC000004C6F61642073657474696E67730049C9
:100DD0006E697469616C697A6520454550524F4D62
:100DE0000053746F72652073657474696E67730065
:100DF00046696C616D656E74004D6F74696F6E004D
:100E000054656D7065726174757265004D61696ECF
:100E1000004D333033205531204525692053256955
:100E200000507265686561742041425320636F6EA3
:100E300066005072656865617420504C4120636F94
:100E40006E6600504944204175746F74756E65007C
:100E5000504944204175746F74756E650050494463
:100E60002D44005049442D44005049442D49005020
:100E700049442D49005049442D50005049442D50BB
:100E800000200820466163740020082046616374D6
:100E9000002008204D6178002008204D6178002056
:100EA00008204D6178002008204D696E0020082040
:100EB0004D696E002008204D696E004F6666004F38
:100EC0006E20004175746F74656D700046616E2010
:100ED00073706565640046616E20737065656400BB
:100EE00042656400426564004E6F7A7A6C65004E1C
:100EF0006F7A7A6C6500436F6E74726F6C00537416
:100F00006F72652073657474696E677300426564FF
:100F100000426564004E6F7A7A6C65004E6F7A7A93
:100F20006C650046616E2073706565640046616E95
:100F30002073706565640054656D706572617475C9
:100F4000726500544845524D414C2052554E415710
:100F5000415900546865726D616C2052756E6177FD
:100F600061790043616E6E6F74206F70656E2073DF
:100F700075626469722000656E7175657565696E6C
:100F8000672022006563686F3A00526573656E647E
:100F90003A20006F6B00627573793A207061757347
:100FA000656420666F7220696E7075740A006275E0
:100FB00073793A2070617573656420666F7220756D
:100FC0007365720A00627573793A2070726F636597
:100FD0007373696E670A004B494C4C45442E2000E0
:100FE0004B494C4C206361757365642062792074B1
:100FF0006F6F206D75636820696E616374697665D3
:101000002074696D65202D2063757272656E742081
:10101000636F6D6D616E643A2000506C656173653D
:10102000207265736574005052494E5445522048F1
:10103000414C544544005072696E74657220686179
:101040006C7465642E206B696C6C28292063616C5C
:101050006C6564210A000000A0C00000A0C0000070
:1010600000000000C8420000C8420000A04100008B
:1010700000005761726E696E673A20486F6D696E45
:10108000672042756D702044697669736F72203CE9
:1010900020310A000202040000A0400000A040002D
:1010A00000004000007F4300007F4300007A43FFC0
:1010B000FFFF4D36303020486F74656E6420746FCA
:1010C0006F20636F6C6420746F206368616E676566
:1010D0002066696C616D656E740A004D3130342094
:1010E0005325750047393220452575004739322090
:1010F0005A25752E2575004D3530300043616E63DD
:10110000656C207072696E7400526573756D652030
:101110007072696E7400506F776572206F757461BC
:1011200067650025753A2530327500253032753AED
:10113000253032750025756420253032753A25300A
:101140003275005A005900580009200000000000C4
:1011500000000000000000007FFFE0000000000031
:10116000000000000000007000E00000000000002F
:1011700000000000000061F86000000000000000B6
:10118000000000000041F820000000000000000006
:101190000000000040F020000000000000000000FF
:1011A000000000406020000000000000000000007F
:1011B00000005801A07F80000000000000004104F2
:1011C000005C63A0FFC0000000000000002082005F
:1011D0005EF7A0FFC0000000000000002082005E5B
:1011E000F7A0FFC0000000000000004104005C63A5
:1011F000A07F80000000000000008208005801A0CD
:101200007F8000000000000001041000406020FF0B
:10121000C00000000000000104100040F020FFC0EA
:101220000000000000000082080041F820FFC0001C
:1012300000000000000041040061F8603F00000071
:1012400000000000000000007000E01E0000000030
:1012500000000001FFFF807FFFE00C0000000000A5
:10126000000001FFFF8000000000000000000000FF
:1012700000000000007FFFE0000000000000000010
:10128000000000007000E00000000000000000000E
:10129000000000630C60000000000000000000007F
:1012A0000000470E200000000000000000000000C9
:1012B000004F0F20000000000000000000000000B0
:1012C0005F0FA00000000000000000000000005EB2
:1012D00007A07F8000000000000000410400406083
:1012E00020FFC00000000000000020820040F0202D
:1012F000FFC00000000000000020820040F020FF3E
:10130000C0000000000000004104004060207F8019
:10131000000000000000008208005E07A07F80003F
:101320000000000000010410005F0FA0FFC00000DB
:1013300000000000010410004F0F20FFC00000005B
:1013400000000000820800470E20FFC000000000DF
:10135000000000410400630C603F0000000000003A
:1013600000000000007000E01E000000000000000F
:1013700001FFFF807FFFE00C000000000000000183
:10138000FFFF8000000000060900FE0000000000D2
:1013900001090008FE000005080806000040F0C82A
:1013A0008888987810050808060000C0F8888888A2
:1013B0008888F80505050600012030F8302005086A
:1013C000080600002070F820202020E0050909060A
:1013D00000FF2070A8A8B8888870200509090600B9
:1013E000FFE080C0B0A8283028280509090600FFC2
:1013F000F8A88888888888A8F8050A0A0600FE20C8
:101400005050505088A8A88870030303060003407A
:10141000A04056652D6A65726B0056652D6A65722F
:101420006B0056652D6A65726B00567A2D6A65727F
:101430006B00567A2D6A65726B0056792D6A65725B
:101440006B0056792D6A65726B0056792D6A65724C
:101450006B0056782D6A65726B0056782D6A65723E
:101460006B0056782D6A65726B004D6F74696F6EF4
:10147000004573746570732F6D6D004573746570EE
:10148000732F6D6D005A73746570732F6D6D005AF4
:1014900073746570732F6D6D005973746570732F5D
:1014A0006D6D005973746570732F6D6D0058737492
:1014B0006570732F6D6D005873746570732F6D6D4B
:1014C000004D6F74696F6E0053746570732F6D6D8E
:1014D000004A65726B00416363656C657261746993
:1014E0006F6E0056656C6F6369747900436F6E743C
:1014F000726F6C004F6E200052756E6F75742073A2
:10150000656E736F7273004F66660046696C2E20BD
:101510004469612E0046696C2E204469612E004F9B
:101520006666004F6E20004520696E206D6D3300A9
:10153000436F6E74726F6C0043616E6E6F742065E2
:101540006E746572207375626469723A2000022EAF
:101550002E004D61696E004572726F72207772695C
:1015600074696E6720746F20454550524F4D210AB3
:1015700000290A002062797465733B20637263203E
:101580000053657474696E67732053746F72656479
:1015900020280024F4D43050C38E20C2A2401782E9
:1015A0008B7011127A910D816CD90AA861E108C77C
:1015B000586607615143061E4B5D05C145A7041AD5
:1015C000411104093D9803713931034036DB02654E
:1015D000339102D4305402802E1D02632CEE01752B
:1015E0002AC501B028A001102781018F2564012B95
:1015F000244B01E0223401AC211F018D200D01801C
:101600001FFC00841EED00971DDF00B81CD200E611
:101610001BC600201BBC00641AB200B219A8000A45
:1016200019A0006A189900D117910040178B00B5D6
:1016300016840031167E00B31579003A157300C781
:10164000146F0058146A00EE1366008813630025B7
:10165000135E00C7125B006C12570015125400C1D4
:1016600011510070114F0021114B00D61049008D0F
:101670001047004610440002104200C00F40008096
:101680000F3E00420F3C00060F3B00CB0E3800938C
:101690000E37005C0E3500270E3400F30D3200C10A
:1016A0000D3100900D3000600D2E00320D2D000523
:1016B0000D2C00D90C2B00AE0C2900850C29005CE8
:1016C0000C2700350C27000E0C2600E80B2400C464
:1016D0000B2400A00B23007D0B23005A0B210039A3
:1016E0000B2100180B2000F80A1F00D90A1E00BBAE
:1016F0000A1E009D0A1D00800A1D00630A1C004787
:101700000A1B002C0A1B00110A1A00F7091A00DD37
:10171000091900C4091900AB091900920917007BC7
:10172000091800630917004C091600360916002035
:101730000916000A091500F5081500E0081400CC88
:10174000081400B8081400A4081400900813007DC1
:101750000812006B081300580812004608120034E3
:10176000081100230811001208110001081100F0EF
:10177000071000E0071000D0071000C0071000B0ED
:10178000070F00A107100091070E0083070F0074D8
:10179000070F0065070E0057070E0049070E003BB4
:1017A000070D002E070E0020070D0013070D000681
:1017B000070D00F9060C00ED060D00E0060C00D444
:1017C000060C00C8060C00BC060C00B0060C00A4F9
:1017D000060B0099060C008D060B0082060B0077A5
:1017E000060B006C060B0061060A0057060B004C46
:1017F000060A0042060A0038060A002E060A0024DD
:10180000060A001A060A001006090007060A00FD6B
:10181000050900F4050900EB050900E2050900D9F6
:10182000050900D0050900C7050900BE050900B576
:10183000050800AD050800A50509009C05080094F1
:101840000508008C050800840508007C0508007464
:101850000508006C050700650508005D05070056D2
:101860000508004E05070047050700400508003839
:10187000050700310507002A050700230507001C9E
:10188000050600160507000F0507000805060002FB
:10189000050700FB040600F5040700EE040600E857
:1018A000040600E2040700DB040600D5040600CFAE
:1018B000040600C9040600C3040600BD040600B700
:1018C000040600B1040500AC040600A6040600A04E
:1018D0000405009B04060095040500900406008A98
:1018E00004050085040500800406007A04050075DF
:1018F000040500700405006B040500660405006122
:101900000405005C04050057040500520405004D61
:1019100004050048040500430405003E0404003AA1
:1019200004050035040500300404002C04050027DC
:10193000040400230405001E0404001A0404001615
:10194000040500110404000D04040009040500044A
:1019500004040000040400FC030400F8030400F481
:10196000030400F0030400EC030400E8030400E4B3
:10197000030400E0030400DC030400D8030400D4E3
:10198000030400D0030400CC030400C8030300C513
:1019900003030024F404D9201BC40C5C0E9804C477
:1019A000095F0265077101F405F900FB04B3004803
:1019B000048700C10369005803550003034500BEB6
:1019C000023A008402310053022A00290225000451
:1019D000022000E4011C00C8011900AF01170098A3
:1019E0000114008401130071011000610110005105
:1019F000010E0043010D0036010B002B010B0020EE
:101A0000010B00150109000C01090003010800FB8E
:101A1000000800F3000800EB000700E4000600DE09
:101A2000000600D8000600D2000600CC000500C762
:101A3000000500C2000500BD000400B9000400B5A7
:101A4000000400B1000400AD000400A9000400A5DA
:101A5000000300A20003009F0004009B0003009805
:101A60000003009500020093000300900003008D26
:101A70000002008B00030088000200860002008440
:101A8000000300810002007F0002007D0002007B55
:101A90000002007900020077000100760002007465
:101AA00000020072000100710002006F0002006D70
:101AB0000001006C0002006A00010069000200677A
:101AC0000001006600010065000100640002006280
:101AD00000010061000100600001005F0002005D84
:101AE0000001005C0001005B0001005A0001005988
:101AF0000001005800010057000100560001005588
:101B00000001005400010053000000530001005286
:101B100000010051000100500001004F0001004E83
:101B20000000004E0001004D0001004C0001004B80
:101B30000000004B0001004A00010049000100487C
:101B40000000004800010047000100460000004678
:101B50000001004500000045000100440001004371
:101B6000000000430001004200000042000100416B
:101B700000000041000100400001003F0000003F64
:101B80000001003E0000003E0001003D0000003D5D
:101B90000001003C0000003C0000003C0001003B54
:101BA0000000003B0001003A0000003A000100394B
:101BB0000000003900010038000000380000003843
:101BC0000001003700000037000100360000003639
:101BD000000000360001003500000035000000352F
:101BE0000001003400000034000000340001003324
:101BF000000000330000003300010032000000321A
:101C0000000000320001003100000031000000310E
:101C10000001003000000030000000300001002F03
:101C20000000002F0000002F0000002F0001002EF8
:101C30000000002E0000002E0001002D0000002DED
:101C40000000002D0000002D0001002C0000002CE1
:101C50000000002C0000002C0001002B0000002BD5
:101C60000000002B0000002B0001002A0000002AC9
:101C70000000002A0000002A0001002900000029BD
:101C800000000029000000290000002900010028B0
:101C900000000028000000280000002800000028A4
:101CA0000001002700000027000000270000002797
:101CB000000000270001002600000026000000268A
:101CC000000000260000002600010025000000257D
:101CD0000000002500000025000000250000002570
:101CE0000001002400000024000000240000002463
:101CF0000000002400010023000000230000002356
:101D00000000002300000023000000230000002347
:101D1000000100220000002200000022000000223A
:101D2000000000220000002200010021000000212C
:101D3000000000210000002100000021000000211F
:101D40000000002100010020000000200000002011
:101D50000000002000000020000000200000002003
:101D6000000000200001001F0000001F0000001FF5
:101D70000000001F0000001F0000001F0000001FE7
:101D80000001001E0000001E0000001E0000001EDA
:101D90000000004D383420582059205A2045005A60
:101DA00025752C45256C752C50256C752C54257586
:101DB0002C4225752C005072696E74657220726514
:101DC0006164792E005072696E746572207265616B
:101DD00064792E004572723A4E6F2046696C616DCF
:101DE000656E740020746F6F206C6F6E672065786D
:101DF00074727573696F6E2070726576656E746546
:101E0000640A0020636F6C6420657874727573696E
:101E10006F6E2070726576656E7465640A000000EE
:101E20002100240027002A002D003000330001018A
:101E30000000040107010A0100002200250028001B
:101E40002B002E00310034000201000005010801C2
:101E50000B01000020002300260029002C002F0089
:101E60003200000100000301060109010505050516
:101E7000070508080808020202020A0A0808040402
:101E80000404010101010101010103030303030330
:101E90000303040707070C0C0C0C0C0C0C0C0202BF
:101EA000020206060606060606060B0B0B0B0B0BBC
:101EB0000B0B010210202008081020401020408049
:101EC00002010201080402010102040810204080FE
:101ED000804020100804020180040201804020108C
:101EE00008040201080402010102040810204080D5
:101EF000010204081020408000000A0B02090C0DAA
:101F00000E080703040100000000000000000000AC
:101F100000000000000000000000000000000000C1
:101F2000000000001211100000000000000000007E
:101F3000000000000000000000000000000053440A
:101F40002063617264206F6B0A006F70656E526F60
:101F50006F74206661696C65640A00766F6C756DDC
:101F6000652E696E6974206661696C65640A005348
:101F70004420696E6974206661696C0A0061757439
:101F80006F25692E67004D3234004D3233202573A2
:101F90000057726974696E6720746F2066696C659A
:101FA0003A20006F70656E206661696C65642C2054
:101FB00046696C653A20006F70656E206661696CD9
:101FC00065642C2046696C653A200046696C652082
:101FD00073656C65637465640A002053697A653AB9
:101FE000200046696C65206F70656E65643A20005C
:101FF0006F70656E206661696C65642C2046696C43
:10200000653A20002066696C653A2000646F696E4D
:1020100067006672657368004E6F772000454E4416
:1020200020535542524F5554494E450A00222070C4
:102030006F73002220706172656E743A22005355EE
:1020400042524F5554494E452043414C4C207461F7
:10205000726765743A22004B494C4C45442E20006F
:10206000747279696E6720746F2063616C6C207381
:1020700075622D67636F64652066696C6573207790
:1020800069746820746F6F206D616E79206C65765D
:10209000656C732E204D4158206C6576656C206907
:1020A000733A004572726F723A00434F4D4D554E70
:1020B00049434154494F4E0044525952554E0045F0
:1020C00052524F525300494E464F004543484F002D
:1020D00048656174696E6720646F6E652E002057D5
:1020E0003A00452569202573005072696E74657247
:1020F0002072656164792E00CB20C620BF20B820F5
:10210000AA206F66660044454255473A004D31317A
:10211000332053005072696E746572204F66662ECC
:1021200000205A3A0020593A0020436F756E7420FF
:10213000583A0020453A00205A3A0020593A0058AF
:102140003A003A004361703A0020440020490020E0
:10215000204D3330342050002044002049002020FE
:102160004D333031205000504944207365747469F8
:102170006E67733A0A002046002042002048002083
:10218000204D3134352053004D6174657269616CA6
:102190002068656174757020706172616D65746529
:1021A00072733A0A00204500205A00205900205836
:1021B0000020420020540020204D323035205300B2
:1021C000416476616E6365643A20533C6D696E5F6D
:1021D00066656564726174653E20543C6D696E5F2E
:1021E00074726176656C5F66656564726174653E84
:1021F00020423C6D696E5F7365676D656E745F74D8
:10220000696D655F75733E20583C6D61785F7879C4
:102210005F6A65726B3E205A3C6D61785F7A5F6AD7
:1022200065726B3E20453C6D61785F655F6A6572E3
:102230006B3E0A0020540020520020204D323034E2
:10224000205000416363656C65726174696F6E2034
:1022500028756E6974732F7332293A20503C70725E
:10226000696E745F616363656C3E20523C72657495
:10227000726163745F616363656C3E20543C747289
:102280006176656C5F616363656C3E0A00204500A2
:10229000205A0020590020204D3230312058004D66
:1022A0006178696D756D20416363656C65726174F9
:1022B000696F6E2028756E6974732F7332293A0A1C
:1022C00000204500205A0020590020204D32303394
:1022D0002058004D6178696D756D20666565647282
:1022E000617465732028756E6974732F73293A0AB7
:1022F00000204500205A0020590020204D3932206E
:10230000580053746570732070657220756E69741F
:102310003A0A0020204D3230302044300A0020207C
:102320004D3230302044002044697361626C656432
:102330000A0046696C616D656E742073657474691A
:102340006E67733A0020204D3134392043203B2002
:10235000556E69747320696E2043656C736975737B
:102360000A002020473231202020203B20556E6972
:10237000747320696E206D6D0A004361726420726F
:10238000656D6F766564004361726420696E736584
:10239000727465640000060900FE070192032120A3
:1023A0007FFF07FF07FF0000000600000107070688
:1023B000020080808080800080030202060105A068
:1023C000A00507070600005050F850F850500507C8
:1023D000070600002078A07028F0200507070600F7
:1023E00000C0C8102040981805070706000060903C
:1023F000A040A89068020303060104C040800307C0
:102400000706010020408080804020030707060166
:10241000008040202020408005050506000120A8FE
:1024200070A8200505050600012020F820200203E1
:10243000030602FFC04080050101060003F8020206
:1024400002060200C0C00505050600010810204074
:102450008005070706000070888888888870030751
:102460000706010040C040404040E0050707060065
:1024700000708808708080F8050707060000F810D3
:1024800020100808F005070706000010305090F8EB
:102490001010050707060000F880F008088870058E
:1024A0000707060000708080F0888870050707061F
:1024B0000000F80810202020200507070600007003
:1024C00088887088887005070706000070888878FB
:1024D000080870020505060200C0C000C0C0020660
:1024E000060602FFC0C000C04080040707060000C7
:1024F00010204080402010050303060002F800F879
:1025000004070706010080402010204080050707CF
:10251000060000708808102000200507070600004C
:1025200070880868A8A870050707060000708888EA
:10253000F8888888050707060000F08888F08888F2
:10254000F005070706000070888080808870050706
:1025500007060000F08888888888F00507070600CD
:1025600000F88080F08080F8050707060000F880FA
:1025700080F0808080050707060000708880B8889A
:102580008870050707060000888888F88888880111
:10259000070706020080808080808080050707068C
:1025A0000000381010101090600507070600008822
:1025B00090A0C0A09088050707060000808080805A
:1025C0008080F805070706000088D8A888888888D2
:1025D0000507070600008888C8A8988888050707A7
:1025E0000600007088888888887005070706000044
:1025F000F08888F0808080050707060000708888D2
:1026000088A89068050707060000F08888F0A09069
:1026100088050707060000788080700808F0050725
:1026200007060000F82020202020200507070600CC
:1026300000888888888888700507070600008888D1
:1026400088888850200507070600008888888888C1
:10265000A850050707060000888850205088880584
:1026600007070600008888885020202005070706F5
:102670000000F80810204080F8030707060100E07A
:102680008080808080E005050506000180402010E4
:1026900008030707060100E02020202020E00503B2
:1026A00003060004205088050101060000F802021C
:1026B00002060205804005050506000070087888BE
:1026C000780507070600008080B0C88888F00505F7
:1026D0000506000070808088700507070600000866
:1026E0000868988888780505050600007088F880D5
:1026F000700507070600003048E0404040400506EE
:10270000060600FF70888878087005070706000035
:102710008080B0C888888801070706020080008092
:10272000808080800308080601FF200020202020F0
:10273000A040040707060000808090A0C0A090037E
:102740000707060100C04040404040E0050505067F
:102750000000D0A8A8A8A8050505060000B0C888F4
:1027600088880505050600007088888870050606BB
:102770000600FFF08888F080800506060600FF78D6
:102780008888780808050505060000B0C8808080A4
:1027900005050506000070807008F00407070600B4
:1027A000004040E0404040300505050600008888B4
:1027B000889868050505060000888888502005056A
:1027C000050600008888A8A85005050506000088B1
:1027D000502050880506060600FF88888878087013
:1027E000050505060000F8102040F803070706015C
:1027F0000020404080404020010707060200808002
:1028000080808080800307070601008040402040D0
:1028100040800502020600026890000000060000E9
:102820005072696E7420706175736564004D313249
:102830003500002573004D3234005072696E7420EB
:1028400061626F72746564004732382058590047DE
:102850003930004731204631303030205A32300094
:10286000473931004E6F2053442063617264005039
:1028700072696E742066726F6D2053440053746FDA
:1028800070207072696E7400526573756D6520708A
:1028900072696E740041626F7574205072696E7453
:1028A0006572005061757365207072696E740043C3
:1028B0006F6E74726F6C0050726570617265005457
:1028C000756E6500496E666F2073637265656E0094
:1028D0004261627973746570205A004D3630302041
:1028E0004230004368616E67652066696C616D65A2
:1028F0006E74004261627973746570205A00466C90
:102900006F7700466C6F770046616E207370656567
:10291000640046616E207370656564004265640002
:10292000426564004E6F7A7A6C65004E6F7A7A6CFD
:1029300065005370656564005370656564004D61A2
:10294000696E004D61782054656D703A20313235E2
:10295000004D696E2054656D703A20350054426513
:10296000643A4550434F53203130304B004D61782D
:102970002054656D703A20323635004D696E205412
:10298000656D703A20350054303A204550434F531E
:10299000203130304B005053553A2047656E6572F8
:1029A00069630050726F746F636F6C3A20312E3020
:1029B00000202020204857205665723A20560046B5
:1029C00057205665723A2056322E310042617564A6
:1029D0003A203235303030300047543235363020EE
:1029E00056332E78004578747275646572733A2098
:1029F0003100687474703A2F2F6D61726C696E6665
:102A0000772E6F7267005072696E74657200323093
:102A100031372D31322D32352031323A30300031DC
:102A20002E312E38004D61726C696E0054686572EB
:102A30006D6973746F727300426F61726420496EC6
:102A4000666F005072696E74657220496E666F0021
:102A50004D61696E0020204E6F7A7A6C653A2000D5
:102A600020004261636B004D696E696D756D205485
:102A7000656D70206973203137302E0048656174B0
:102A8000696E67206661696C65640045787472756B
:102A90006465206D6F726500526573756D65207099
:102AA00072696E7400524553554D45204F5054493C
:102AB0004F4E533A0020204E6F7A7A6C653A2000D0
:102AC0006368616E6765006F66207468652066697B
:102AD0006C616D656E74005761697420666F722059
:102AE0007374617274005052494E542050415553D2
:102AF00045440020204E6F7A7A6C653A2000200011
:102B000066696C616D656E7420756E6C6F616400D2
:102B10005761697420666F72005052494E542050BC
:102B20004155534544007C3C3E5E2B3D3F2F5B5D51
:102B30003B2C2A225C00290A577269746520666959
:102B40006C65206E616D653A200020627974657352
:102B50003B206372632000506F7765726F6666205A
:102B600053746F72656420280020213D2000637239
:102B700063206572726F723A20000A726561642088
:102B800066696C65206E616D653A2000290A726580
:102B900061642066696C65206469723A2000206275
:102BA000797465733B206372632000706F77657280
:102BB0006F66662073746F726564207365747469E0
:102BC0006E6773207265747269657665642028008B
:102BD000202863616C63756C6174656429210A0047
:102BE00020213D2000454550524F4D204352432067
:102BF0006D69736D61746368202D202873746F7222
:102C00006564292000290A002062797465733B20DD
:102C100063726320002073746F726564207365743F
:102C200074696E6773207265747269657665642075
:102C30002800204D61726C696E3D563232290A00BF
:102C400028454550524F4D3D00454550524F4D206F
:102C500076657273696F6E206D69736D61746368F8
:102C6000200048617264636F646564204465666136
:102C7000756C742053657474696E6773204C6F6152
:102C80006465640A00B80B0000B80B000032000055
:102C900000B80B000000009643000096430000A01F
:102CA000410000C8419A99A0429A99A0420000C8E8
:102CB000430000BA425072656865617420504C410F
:102CC00020456E64005072656865617420504C4107
:102CD00020426564005072656865617420504C4103
:102CE000005072657061726500507265686561744C
:102CF0002041425320456E640050726568656174DE
:102D000020414253204265640050726568656174D9
:102D100020414253005072657061726500426163E8
:102D20006B004E65787420636F726E65720050722E
:102D3000656865617420504C4100436F6F6C646F2F
:102D4000776E00507265686561742041425300439C
:102D500068616E67652066696C616D656E740044BC
:102D6000697361626C65207374657070657273005D
:102D70004D3834004C6576656C20636F726E6572F9
:102D800073004175746F20686F6D650047323800BD
:102D90004D6F76652061786973004D61696E0053EF
:102DA00044207072696E74696E6720627974652060
:102DB000004E6F74205344207072696E74696E67A0
:102DC0000A00486F6D652025732573257320666999
:102DD000727374002066697273740A005A00590095
:102DE0005800486F6D65200070012C01900127018B
:102DF000B0012201C0011D01F001180110021301F0
:102E000030020E016002090190020401C002FF00BD
:102E10000003FA004003F5008003F000D003EB004C
:102E20002004E6007004E100E004DC004005D70067
:102E3000C005D2004006CD00D006C8008007C30000
:102E40003008BE00F008B900C009B400B00AAF00F5
:102E5000B00BAA00D00CA500000EA000500F9B00E4
:102E6000C01096005012910000148C00C01587000D
:102E7000B0178200B0197D00D01B7800001E7300CF
:102E800040206E0090226900F024640040275F001B
:102E900090295A00E02B5500102E500020304B0096
:102EA00010324600E033410090353C0010373700C7
:102EB00070383200A0392D00B03A2800A03B230022
:102EC000603C1E00103D1900903D1400103E0F00A4
:102ED000703E0A00C03E0500003F0000403FFBFF7F
:102EE000803FF6FFC03FF1FF4572723A204D494ED8
:102EF00054454D5020424544004572723A204D4998
:102F00004E54454D50004D494E54454D502074721D
:102F100069676765726564004572723A204D415871
:102F200054454D5020424544004572723A204D416F
:102F30005854454D50004D415854454D50207472E1
:102F40006967676572656400202F002042403A007F
:102F500020403A005654726176206D696E005654D6
:102F6000726176206D696E005654726176206D69CB
:102F70006E00566D696E00566D696E00566D696E15
:102F800000566D6178204500566D617820450056E9
:102F90006D6178204500566D6178205A00566D614C
:102FA00078205A00566D6178205A00566D6178205D
:102FB0005900566D6178205900566D61782059008E
:102FC000566D6178205800566D6178205800566D16
:102FD00061782058004D6F74696F6E00416D6178A3
:102FE000204500416D6178204500416D6178205A8F
:102FF00000416D6178205A00416D6178205900418F
:103000006D6178205900416D6178205800416D61F3
:1030100078205800412D74726176656C00412D74E2
:10302000726176656C00412D726574726163740023
:10303000412D7265747261637400416363656C0055
:10304000416363656C004D6F74696F6E004D6F7600
:10305000652058004D6F76652059004D6F766520CC
:103060005A004578747275646572004D6F766520FC
:10307000302E316D6D004D6F766520316D6D004DD8
:103080006F76652031306D6D004D6F76652061780B
:10309000697300486F74656E6420746F6F20636F8E
:1030A0006C64004578747275646572004D6F766566
:1030B000205A004D6F76652059004D6F7665205877
:1030C000004578747275646572004D6F7665205A9C
:1030D000004D6F76652059004D6F76652058005081
:1030E000726570617265006265640A002C207379F4
:1030F0007374656D2073746F70706564212048650A
:10310000617465725F49443A200048656174696E74
:1031100067206661696C65640048656174696E6703
:10312000206661696C65640048656174696E67203A
:103130006661696C65640048656174696E672066E4
:1031400061696C65640005F2EDF211241FBECFEFDA
:10315000D1E2DEBFCDBF00E00CBF13E0A0E0B2E0E3
:10316000E0E4F5E002E00BBF02C007900D92AE3D37
:10317000B107D9F727E1AEEDB3E001C01D92A83049
:10318000B207E1F718E1C4EAD8E100E006C02197F0
:103190000109802FFE010F94F801C33AD10780E0A6
:1031A0000807A9F70E94A1EA0D948F020C94000071
:1031B0002F923F924F925F926F927F928F929F9247
:1031C000AF92BF92CF92DF92EF92FF920F931F9335
:1031D000CF93DF93CDB7DEB7C35AD1090FB6F894BA
:1031E000DEBF0FBECDBF81E090E09093A40C809332
:1031F000A30C809101178D3409F482C6843511F433
:103200000C94FA31873411F00C943C328091FF1603
:10321000909100178430910509F4B1C554F497FFDB
:1032200002C00C94563220918C02823091057CF5BC
:1032300029C08A35910509F415C66CF48B319105C6
:1032400009F4E4C54C9711F00C94563280E00E94CA
:10325000DF3B0C9456328B35910509F407C68C354B
:10326000910511F00C9456320E941FE93DE8232E7F
:1032700032E0332E42E0E42E46E1F42E00E0D12C81
:1032800010E01EC621110C945D320C94563222239C
:1032900011F40C94563211E0029709F010E00E94EC
:1032A0000D3B82E50E94D53A882309F45CC10E9457
:1032B000733A6B017C0140900216509003166090A7
:1032C0000416709005168091061690910716A0912D
:1032D0000816B09109162B968CAF9DAFAEAFBFAF5D
:1032E0002B972091930C3091940C4091950C509118
:1032F000960C2F962CAF3DAF4EAF5FAF2F978091BE
:10330000970C9091980CA091990CB0919A0C6B9697
:103310008CAF9DAFAEAFBFAF6B9720E030E0A9019F
:10332000C701B6010E94DAFA882309F40EC5A30189
:1033300092012F966CAD7DAD8EAD9FAD2F970E9403
:10334000DAFA811111C02B962CAD3DAD4EAD5FADBB
:103350002B976B966CAD7DAD8EAD9FAD6B970E943C
:10336000DAFA882309F4F1C420E030E0A901C701AA
:10337000B6010E94DAFA881F8827881F18130BC02D
:1033800020E030E040E85FE3A3962CAF3DAF4EAFC6
:103390005FAFA3970AC080E090E0A0E8BFEBA396E0
:1033A0008CAF9DAFAEAFBFAFA397A30192012F9695
:1033B0006CAD7DAD8EAD9FAD2F970E94F0FE6796F0
:1033C0006CAF7DAF8EAF9FAF67972B962CAD3DADA9
:1033D0004EAD5FAD2B976B966CAD7DAD8EAD9FAD59
:1033E0006B970E94F0FE6F966CAF7DAF8EAF9FAF74
:1033F0006F9767962CAD3DAD4EAD5FAD6797CA0137
:10340000B9010E943FFB4B015C016F962CAD3DADB5
:103410004EAD5FAD6F97CA01B9010E943FFB9B01A2
:10342000AC01C501B4010E94F1FE0F945C016396EA
:103430006CAF7DAF8EAF9FAF639720E030E040E090
:103440005FE30E943FFB4B015C01A7019601C701AE
:10345000B6010E943FFB6B017C01A5019401C501EF
:10346000B4010E943FFB9B01AC01C701B6010E9461
:10347000F0FE0F945C019B01AC01A3966CAD7DAD99
:103480008EAD9FADA3970E943FFB4B015C012F9631
:103490002CAD3DAD4EAD5FAD2F97C301B2010E9483
:1034A000F1FE20E030E040E05FE30E943FFB6B0173
:1034B0007C016F966CAD7DAD8EAD9FAD6F979058D2
:1034C00063962CAD3DAD4EAD5FAD63970E94CDFFD1
:1034D0009B01AC01C501B4010E943FFB9B01AC0103
:1034E000C701B6010E94F1FEA30192010E94F0FE05
:1034F0006B017C016B962CAD3DAD4EAD5FAD6B9716
:103500002B966CAD7DAD8EAD9FAD2B970E94F1FEDD
:1035100020E030E040E05FE30E943FFB2B013C01F4
:1035200063962CAD3DAD4EAD5FAD639767966CADC8
:103530007DAD8EAD9FAD67970E94CDFF9B01AC0125
:10354000C501B4010E943FFB9B01AC01C301B20164
:103550000E94F1FE2B962CAD3DAD4EAD5FAD2B978D
:103560000E94F0FE14C089E40E94D53A882329F015
:103570000E94733A6B017C0103C0C12CD12C7601EF
:103580008AE40E94D53A8823F9F00E94733A6B9638
:103590006CAF7DAF8EAF9FAF6B9720E030E0A9019D
:1035A000C701B6010E94DAFA81111EC020E030E0A6
:1035B000A9016B966CAD7DAD8EAD9FAD6B970E94F2
:1035C000DAFA811111C0C1C320E030E0A901C701BE
:1035D000B6010E94DAFA882309F4B7C36B961CAED1
:1035E0001DAE1EAE1FAE6B97A701960150582B96CD
:1035F0002CAF3DAF4EAF5FAF2B976B968CAD9DADB3
:10360000AEADBFAD6B97B0582F968CAF9DAFAEAF40
:10361000BFAF2F97CA01B9010E943FFB4B015C016C
:103620002F962CAD3DAD4EAD5FAD2F97CA01B901C0
:103630000E943FFB9B01AC01C501B4010E94F1FE59
:103640000F945C01E3966CAF7DAF8EAF9FAFE397B5
:1036500020910216309103164091041650910516E0
:1036600063962CAF3DAF4EAF5FAF6397A701960156
:1036700063966CAD7DAD8EAD9FAD63970E94F1FEFC
:10368000A3966CAF7DAF8EAF9FAFA39780910616C8
:1036900090910716A0910816B09109166F968CAFFD
:1036A0009DAFAEAFBFAF6F976B962CAD3DAD4EAD3E
:1036B0005FAD6B97BC01CD010E94F1FEA7966CAF88
:1036C0007DAF8EAF9FAFA7972091930C3091940C54
:1036D0004091950C5091960CAB962CAF3DAF4EAFF0
:1036E0005FAFAB97A3962CAD3DAD4EAD5FADA3974D
:1036F000AB966CAD7DAD8EAD9FADAB970E94F0FEED
:103700006B017C018091970C9091980CA091990C81
:10371000B0919A0CAF968CAF9DAFAEAFBFAFAF97E5
:10372000A7962CAD3DAD4EAD5FADA797BC01CD01C9
:103730000E94F0FE4B015C0120910A1630910B169D
:1037400040910C1650910D16EB962CAF3DAF4EAF3D
:103750005FAFEB9760919B0C70919C0C80919D0CDE
:1037600090919E0C0E94F0FE67966CAF7DAF8EAF7D
:103770009FAF679780919F0C9091A00CA091A10C96
:10378000B091A20CE7968CAF9DAFAEAFBFAFE797FD
:1037900020910E1630910F1640911016509111166F
:1037A000EF962CAF3DAF4EAF5FAFEF97A7019601FD
:1037B0002B966CAD7DAD8EAD9FAD2B970E943FFBE0
:1037C0002B013C01A50194012F966CAD7DAD8EAD12
:1037D0009FAD2F970E943FFB9B01AC01C301B2013B
:1037E0000E94F1FE2B013C01A50194012B966CADCA
:1037F0007DAD8EAD9FAD2B970E943FFB4B015C01D1
:10380000A70196012F966CAD7DAD8EAD9FAD2F9724
:103810000E943FFB9B01AC01C501B4010E94F0FE78
:10382000A30192010E9464FF6B017C0120E030E063
:10383000A9010E94DAFA87FF0AC02BED3FE049ECAC
:1038400050E4C701B6010E94F1FE6B017C01112317
:1038500051F02BED3FE049EC50E4C701B6010E9466
:10386000F0FE6B017C0120E030E0A901C701B60148
:103870000E94DAFA811128C0AB962CAD3DAD4EAD59
:103880005FADAB9763966CAD7DAD8EAD9FAD63972D
:103890000E94DAFA811118C0AF962CAD3DAD4EAD45
:1038A0005FADAF976F966CAD7DAD8EAD9FAD6F97F1
:1038B0000E94DAFA811108C06BEDC62E6FE0D62E99
:1038C00069ECE62E60E4F62EE3962CAD3DAD4EADF0
:1038D0005FADE397C701B6010E943FFB9B01AC01BE
:1038E0000E943FFB4B015C0167962CAD3DAD4EAD98
:1038F0005FAD6797CA01B9010E943FFB9B01AC0114
:10390000C501B4010E94F1FE0F945C014B015C0102
:103910002FE632E143E85AE30E94DAFA87FD11C24A
:10392000C501B4010F9466000F943A001B01672B88
:1039300019F422242394312CB10180E090E00E94FC
:10394000DEFA4B015C019B01AC01C701B6010E948C
:10395000CDFF63966CAF7DAF8EAF9FAF6397A50130
:10396000940167966CAD7DAD8EAD9FAD67970E945B
:10397000CDFFE3966CAF7DAF8EAF9FAFE397EF9631
:103980002CAD3DAD4EAD5FADEF97E7966CAD7DAD27
:103990008EAD9FADE7970E94F0FEA50194010E94B5
:1039A000CDFFE7966CAF7DAF8EAF9FAFE797639685
:1039B0002CAD3DAD4EAD5FAD6397CA01B9010E941C
:1039C0003FFB20E030E040E05FE30E943FFB9B01D3
:1039D000AC0160E070E080E89FE30E94F0FEAB96EF
:1039E0006CAF7DAF8EAF9FAFAB97EB968CAD9DADBF
:1039F000AEADBFADEB9789879A87AB87BC87EF9653
:103A00002CAD3DAD4EAD5FADEF972D873E874F8717
:103A1000588B6091820270918302072E000C880BF4
:103A2000990B0E94E0FA209100023091010240912E
:103A30000202509103020E943FFB2AE037ED43E26D
:103A40005CE30E943FFB68A379A38AA39BA30E9427
:103A500074949B01AC0128533F4F4F4F5F4FAF967B
:103A60002CAF3DAF4EAF5FAFAF9728964FAC2897C6
:103A700029965FAC29972A966FAC2A972B967FAC34
:103A80002B9741E050E06D965FAF4EAF6D9759E1D7
:103A900064965FAF64976D96AEADBFAD6D97A2159E
:103AA000B30509F43DC10E9498E70E947494DC01BB
:103AB000CB01AF962CAD3DAD4EAD5FADAF97821B48
:103AC000930BA40BB50BB7FD11C00E9474949B011E
:103AD000AC0128533F4F4F4F5F4FAF962CAF3DAFD8
:103AE0004EAF5FAFAF9780E00E94B15C64963FAD90
:103AF0006497315064963FAF6497332309F44BC009
:103B0000AB962CAD3DAD4EAD5FADAB972F966CAD8A
:103B10007DAD8EAD9FAD2F970E943FFB6B017C0169
:103B200063962CAD3DAD4EAD5FAD6397B201C30161
:103B30000E943FFBA70196010E94F1FE6B017C01F0
:103B4000AB962CAD3DAD4EAD5FADAB97B201C301B1
:103B50000E943FFB4B015C0163962CAD3DAD4EAD29
:103B60005FAD63972F966CAD7DAD8EAD9FAD2F97FA
:103B70000E943FFB9B01AC01C501B4010E94F0FE15
:103B80002B013C01C601D7012F968CAF9DAFAEAF84
:103B9000BFAF2F9761C06D964EAD5FAD6D97BA0107
:103BA00080E090E00E94DEFA63962CAD3DAD4EAD14
:103BB0005FAD63970E943FFB4B015C010E94CAFF0F
:103BC0006B017C01C501B4010F9452014B015C01F2
:103BD000A70196012B966CAD7DAD8EAD9FAD2B9759
:103BE0000E943FFB2B013C01A50194016B966CAD3B
:103BF0007DAD8EAD9FAD6B970E943FFB9B01AC01ED
:103C0000C301B2010E94F1FE2B013C01A501940108
:103C10002B966CAD7DAD8EAD9FAD2B970E943FFB7B
:103C20004B015C01A70196016B966CAD7DAD8EAD2D
:103C30009FAD6B970E943FFB9B01AC01C501B40196
:103C40000E94F0FE2F966CAF7DAF8EAF9FAF2F9787
:103C500059E164965FAF64979201A301A3966CAD9E
:103C60007DAD8EAD9FADA3970E94F1FE69837A83EF
:103C70008B839C832F962CAD3DAD4EAD5FAD2F97C2
:103C8000A7966CAD7DAD8EAD9FADA7970E94F1FE5E
:103C90006D837E838F839887E3962CAD3DAD4EADCB
:103CA0005FADE39769857A858B859C850E94F1FEDF
:103CB00069877A878B879C87E7962CAD3DAD4EADA3
:103CC0005FADE7976D857E858F8598890E94F1FEAF
:103CD0006D877E878F87988B80918B02882321F058
:103CE000CE0101960E94DA5AE090C9158E01005E5D
:103CF0001F4F9E01235F3F4FAE01475F5F4FBE01E5
:103D00006B5F7F4FCE0101960E9494906D968EADB1
:103D10009FAD6D9701966D969FAF8EAF6D97BBCEA1
:103D2000E090C9158E01005E1F4F2FE93CE04BE982
:103D30005CE067E97CE083E99CE00E9494900E944B
:103D4000CA3B0E94D43B0C945632E3EAF0E28491E1
:103D50008F010F5F1F4F882321F00E94933DF801D0
:103D6000F6CFE1E0F2E084918F010F5F1F4F8823CF
:103D700011F40C9456320E94933DF801F4CF80E583
:103D80000E94D53A882329F00E94333A6B017C01C6
:103D900003C0C12CD12C760183E50E94D53A88233B
:103DA00061F00E94733A20E030E04AE754E40E9458
:103DB0003FFB0F943A006B017C010E941FE9809148
:103DC0001C02811105C060E087E192E00E945AB2B6
:103DD0000E94D43B80918B0C90918C0CA0918D0C07
:103DE000B0918E0CC80ED91EEA1EFB1E0E94749460
:103DF000DC01CB018C199D09AE09BF09B7FD02C0DA
:103E00000C94563280E00E94B15CF0CF0E9444D402
:103E100081110C94563280E090E0A0E4B0E48983F4
:103E20009A83AB83BC838D839E83AF83B88780E006
:103E300090E0A0E2B1E489879A87AB87BC8780E5F0
:103E40000E94D53A882319F00E94433A01C060E0ED
:103E500068A3BE016F5F7F4FCE0180960E9409A9C3
:103E60000C9456321092E2030C94563281E0809307
:103E7000E2030C9456320E94733A2B013C01D701A5
:103E80002D913D914D915C910E94F0FE4B015C01A2
:103E90002DEB37E346E855EB0F94170187FD18C06B
:103EA0002DEB37E346E855E3C501B4010E94DAFA89
:103EB000181674F01F5FF4E0EF0EF11C1430A1F03F
:103EC000F10181911F010E94D53A882399F3D3CF44
:103ED000133019F0DD24D39401C001E0F7014082D2
:103EE000518262827382E6CFDD2019F00E94B639DA
:103EF00003C001110E94E1D40E9431A30C945632F8
:103F00008091FF16909100178337910509F482C6BE
:103F10000CF0C6C08C34910509F428C50CF06AC0B9
:103F20008831910509F4A8C2ACF58231910509F4F4
:103F3000E0C5BCF497FF02C00C9456328230910564
:103F40000CF4B0C1419711F00C94563260E081E559
:103F500092E00E945AB24298179815982E980C94A5
:103F600056328531910509F46CC23CF4449711F046
:103F70000C945632E9E6F2E021C28631910509F44B
:103F800064C2479711F00C945632E091FD16F091FF
:103F9000FE1665C28E31910509F49EC2C4F48A31C1
:103FA000910509F487C20CF481C28B31910509F4A3
:103FB0008FC24C9711F00C94563240E060E0809133
:103FC000FD169091FE160E9434990C945632803260
:103FD000910509F49BC30CF4E3C38A32910509F4FB
:103FE00085C48B34910511F00C9456320E9404D490
:103FF0000C9456328936910509F43AC524F5833577
:10400000910509F471C57CF48135910509F464C505
:104010000CF066C58D34910511F00C9456320E9457
:104020009F570C9456328535910509F466C50CF4FA
:1040300060C58C35910509F464C58836910509F48D
:1040400099C40C9456328E36910509F4EAC49CF456
:104050008B36910509F438C50CF432C58C369105C0
:1040600009F4F6C48D36910511F00C9456320E9475
:104070003BA50C9456328037910509F4EDC40CF43D
:10408000E3C48137910509F4EBC48237910511F03F
:104090000C9456320E941FE90E9431A30C945632B0
:1040A000823E910511F40C94B5290CF073C08B3944
:1040B000910509F4E5C49CF58837910509F4A5C676
:1040C000A4F48637910509F4F9C50CF03AC6853792
:1040D000910511F00C94563260E08091FD1690919C
:1040E000FE160E9478B20C9456328D37910509F471
:1040F000EFC45CF48937910511F00C94563210929C
:104100001409109213090C9456328C38910509F455
:10411000ABC48139910509F47FC60C9456328C3CAE
:10412000910509F472C7F4F4883C910509F4EDC6D1
:1041300034F48E3B910509F4A7C40C945632893CA3
:10414000910509F42AC78B3C910511F00C94563265
:1041500043E5E42E46E1F42E0DE812E054E0D52EBE
:10416000D00E44C7833D910511F40C94DE2834F43D
:104170008D3C910509F4B5C70C9456328C3D9105E0
:1041800011F40C945C298D3D910511F40C946B296C
:104190000C945632893921E0920711F40C940B30BB
:1041A0000CF040C08F3241E0940711F40C948B2B3B
:1041B000DCF48C32A1E09A0711F40C94F2293CF45F
:1041C0008232914011F40C94E4290C9456328D32D1
:1041D000F1E09F0711F40C941C2A8E32914011F4E7
:1041E0000C94372B0C945632833631E0930711F43C
:1041F0000C943B313CF48033914011F40C94BA2A76
:104200000C9456328039A1E09A0711F40C940830CE
:104210008839914011F00C94563281E080930A0D58
:104220000C945632873FE1E09E0711F40C94143051
:10423000FCF4843F21E0920711F40C940E304CF40E
:104240008A39914011F00C9456320E9405A20C94C8
:104250005632853F51E0950711F40C941130863F9A
:10426000914011F00C9456320E94C4C70C945632FF
:10427000803AB3E09B0709F486C23CF4883592404B
:1042800011F40C9420300C945632873E23E09207B0
:1042900011F40C947B31893D974011F40C949031CA
:1042A0000C945632A090FD16B090FE1680E50E9448
:1042B000D53A882359F00E94333A6B017C0111E012
:1042C000672B682B692B31F410E004C010E0C12C7F
:1042D000D12C760183E50E94D53A8823F1F00E9423
:1042E000733A20E030E04AE754E40E943FFB0F9429
:1042F0003A006B017C01111112C0672B682B692BEE
:1043000071F4A114B10459F0D5018C91882339F0CE
:1043100061E0C5010E9478B207C0112391F360E00B
:104320008EE392E00E945AB283E090E09093A40C56
:104330008093A30C81E080938F150E941FE90E9457
:10434000D43BC114D104E104F104F1F080918B0C51
:1043500090918C0CA0918D0CB0918E0CC80ED91E32
:10436000EA1EFB1E0E947494DC01CB018C199D098E
:10437000AE09BF09B7FF1EC080918F158823D1F009
:1043800080E00E94B15CEECF80918F15882321F0F0
:1043900080E00E94B15CF8CF80913309909134099C
:1043A00060E0029719F48FE292E002C080E292E0AE
:1043B0000E945AB210928F150C94563284918F013C
:1043C0000F5F1F4F882321F00E94933DF801F6CF25
:1043D0001092F30B1092F20B40E050E0BA018CE720
:1043E00099E00E94FDC08BE1ECE7F9E0DE01159653
:1043F00001900D928A95E1F780917A0990917B095D
:104400009C838B838BE992E09A83898340E050E020
:10441000BE016F5F7F4F88EC93E00E94C553CE01D1
:1044200001960E94375CEAE5F2E084918F010F5F0C
:104430001F4F882311F40C9456320E94933DF801CB
:10444000F4CF0E947E9C0C94563210924309109235
:1044500044090C945632803209F4108231968081DE
:104460008111F9CF40E061E08091FD169091FE1638
:104470000E9434990C94563219821A821B821C8233
:1044800018A219A21AA21BA28091A50C882341F0A0
:1044900040E0BE016F5F7F4FCE0180960E94FC5FBF
:1044A0000E94D3590E9404D40C9456320E94AB3916
:1044B0000C94563280914409882311F40C9456329E
:1044C00083E50E94D53A81110C9411330C94563235
:1044D0000E9439D50C94563280914409882311F4F6
:1044E0000C94563280E49BE00E94A47780E49BE029
:1044F0000E945AC31092420910924109E090FD16A1
:10450000F090FE1680914409882311F40C945632E1
:104510000E9494571D8218861C821B828BE992E0B0
:104520009A83898388E799E0909398098093970903
:10453000F70180818F3209F068C06FE270E0C70137
:104540000F944C028C010F5F1F4F9E012F5F3F4F56
:1045500049010115110509F45EC06FE270E0C80160
:104560000F944C026C01009709F456C00817190704
:1045700008F052C05C01A01AB10AA501B801CE0131
:1045800080960F947502E0E2F0E0EC0FFD1FEA0D5B
:10459000FB1D10828E01005E1F4FD8018D918D0191
:1045A000882319F00E94933DF8CF8AE00E94933D42
:1045B00060919709709198096115710511F06C5F10
:1045C0007F4F21E0AE01405E5F4FCE0105960E9415
:1045D000D6C6811112C0BE01605E7F4F80EA92E0B4
:1045E0000E94E58E8EE20E94933D8AE00E94933DF8
:1045F000C4010E94375C0C945632909298098092C4
:10460000970986010F5F1F4FA4CF89E999E0909326
:10461000980980939709870160919709709198098B
:104620006115710511F06C5F7F4F18A21BA222E08B
:10463000A801CE0180960E94D6C6811102C0F12C3D
:104640001EC0CE0180960E9433538823C1F36CA50F
:104650007DA58EA59FA541E00E949375882379F3DF
:10466000E8A9B0E2EB9FF0011124EA5CFD4E30971F
:1046700031F385EE80831BA20E945375F82ECE0184
:1046800080960E947C3BFF2019F1EAE7F2E08491DA
:104690007F012FEFE21AF20A882321F00E94933D56
:1046A000F701F5CFD8018D918D01882319F00E9473
:1046B000933DF8CF8AE00E94933D109274091092C6
:1046C000750910927609109277090E945A5618C0FF
:1046D000E8E8F2E084917F01BFEFEB1AFB0A882340
:1046E00021F00E94933DF701F5CFF80181918F01F0
:1046F000882319F00E94933DF8CF8EE20E94933DEB
:10470000CE0101960E94375C0C9456328091430989
:1047100081110E941FE980914409882311F40C94AF
:10472000563280E50E94D53A882319F00E94643AF7
:1047300003C080E50E94A63A182F482F61E08091BF
:10474000FD169091FE160E94349983E50E94D53A99
:10475000882381F00E94433AAB01BC014093740965
:1047600050937509609376097093770980E49BE014
:104770000E94FDC00E94D35911110C9456320E9420
:1047800004D40C9456328091FD169091FE1621E0CF
:104790002093420940E060E00E9434990C94563224
:1047A0000E949D592CE3C22ED12CE12CF12CA701A3
:1047B00096010E94B5FE762E672ECA01B901A701A7
:1047C00096010E94B5FE6B017C01CA01B90128E186
:1047D00030E040E050E00E94B5FE4B015C01C901B1
:1047E0006DE671E00F94B5018E010F5F1F4F6115EB
:1047F000710599F06F927F92DF92CF929F928F9284
:104800009F938F937F936F938CED92E09F938F9301
:104810001F930F930E9473FA12C00097B1F06F922A
:104820007F92DF92CF929F928F929F938F938CEC87
:1048300092E09F938F931F930F930E9473FA0FB68A
:10484000F894DEBF0FBECDBF36C081149104A10421
:10485000B10479F06F927F92DF92CF929F928F9204
:1048600080EC92E09F938F931F930F930E9473FAB3
:10487000E6CFC114D104E104F10469F06F927F9294
:10488000DF92CF9288EB92E09F938F931F930F93C9
:104890000E9473FAD4CF6F927F9284EB92E09F9341
:1048A0008F931F930F930E9473FA0F900F900F90A6
:1048B0000F900F900F9060E0C8010E9478B2E4E87A
:1048C000FFE084917F01BFEFEB1AFB0A882321F000
:1048D0000E94933DF701F5CFB80180EF92E00E946E
:1048E000E58E8AE00E94933D0C94563283E50E9447
:1048F000D53A882311F40C9456320E94533AE82E8C
:1049000080E50E94D53A882341F00E94433A8B010A
:1049100077FF02C00C94563202C006E010E0902FE0
:10492000E2EDF5E088E28E0F2491921729F031969E
:104930008E13FACF0C942133E3EAF0E284918F01D5
:104940000F5F1F4F882321F00E94933DF801F6CF9F
:10495000EDEFF2E084918F010F5F1F4F882311F478
:104960000C9456320E94933DF801F4CF0E941FD55B
:104970000C94563288E690E00E94AA4081110C9473
:1049800056328091B41583FF02C00C94563283E5F1
:104990000E94D53A882309F440C00E94733A0F94CC
:1049A00035007093E5156093E41580E00E947FDA8E
:1049B0000E94733A20E030E04AEA52E40E94DAFAB8
:1049C00018163CF00E949F5760E083E193E00E943C
:1049D0005AB20E94733A20919115309192154091EC
:1049E0009315509194150F9417011816B4F482E2A0
:1049F00093E09F938F938091361690E001969F935A
:104A00008F938CE093E09F938F931F920E94E9D342
:104A10000FB6F894DEBF0FBECDBF0E940D8F0C9471
:104A200056328EE40E94D53A882311F40C94563203
:104A30000E94433A6093321270933312809334127F
:104A4000909335120C9456320E94C4A40C945632A2
:104A500010927B020C94563282E293E00E944A5CF0
:104A60000E949AA40C9456320E9481A40C9456324F
:104A70000E94E6401092A40C1092A30C0C94AB364A
:104A80000E94E13A0C9456328091B41583FF02C023
:104A90000C94563260E089E393E00E945AB283E5B9
:104AA0000E94D53A68968FAF689781110C9437337E
:104AB00082E50E94D53A81110C9437330C9456321A
:104AC0000E9412A70C9456320E9403A70C945632EF
:104AD0000E9464A20C9456320E9468A40C94563230
:104AE0001092E1030C94563281E08093E1030C9420
:104AF00056320E9417A40C9456320E94FFA30C94C5
:104B000056321DE8C12E12E0D12E02E1E02E06E160
:104B1000F02E10E0D6018D916D010E94A63A8823F7
:104B200009F46DC0133009F063C00E94733A4B0161
:104B30005C0120E030E040EA51E40E94DAFA87FFAD
:104B40004EC0A501940160911E1670911F168091B0
:104B50002016909121160E94CDFF2B013C019B0154
:104B6000AC016091060D7091070D8091080D909138
:104B7000090D0E943FFB6093060D7093070D809313
:104B8000080D9093090DA301920160915F16709139
:104B9000601680916116909162160E943FFB6093AF
:104BA0005F16709360168093611690936216609101
:104BB0001A1270911B1280911C1290911D120E946A
:104BC000DEFAA30192010E943FFB0F943A0060932A
:104BD0001A1270931B1280931C1290931D128092D4
:104BE0001E1690921F16A0922016B092211607C092
:104BF0000E94733AF70160837183828393831F5FFE
:104C0000F4E0EF0EF11C143009F084CF0E946A909A
:104C10000C945632EDEFF3E084918F010F5F1F4F3C
:104C2000882321F00E94933DF801F6CF60E08DEEDD
:104C300093E00E94EDA261E086EE93E00E94EDA277
:104C400061E08BED93E00E94EDA261E08BEC93E0DC
:104C50000E94EDA260E082EC93E00E94EDA261E090
:104C600088EB93E00E94EDA260E08EEA93E00E9460
:104C7000EDA260E086EA93E00E94EDA260E088E9A0
:104C800093E00E94EDA260E08AE893E00E94EDA22A
:104C900060E08BE793E00E94EDA261E08DE693E097
:104CA0000E94EDA261E087E593E00E94EDA260E042
:104CB00086E493E00E94EDA20C94563285E40E94B3
:104CC000D53A882319F00E94643A03C085E40E9413
:104CD000A63A882361F0E4E8FFE084918F010F5F3A
:104CE0001F4F882321F00E94933DF801F6CF81E405
:104CF0000E94D53A882319F00E94643A03C081E4E7
:104D00000E94A63A882361F0E0ECF4E084918F01E0
:104D10000F5F1F4F882321F00E94933DF801F6CFCB
:104D20000091FD161091FE16D8018D918D018823FA
:104D300019F00E94933DF8CF8AE00E94933D0C94B5
:104D40005632ECEDF4E084918F010F5F1F4F882302
:104D500021F00E94933DF801F6CFE4EDF4E0849158
:104D60008F010F5F1F4F882321F00E94933DF801B0
:104D7000F6CF029B03C00BE013E002C000E113E09A
:104D8000F80181918F01882319F00E94933DF8CF9B
:104D90008AE00E94933DECECF4E084918F010F5F78
:104DA0001F4F882321F00E94933DF801F6CF069B08
:104DB00003C00BE013E002C000E113E0D8018D91C5
:104DC0008D01882319F00E94933DF8CF8AE00E945C
:104DD000933DE4ECF4E084918F010F5F1F4F882333
:104DE00021F00E94933DF801F6CF379B03C00BE002
:104DF00013E002C000E113E0F80181918F018823E4
:104E000009F49ACF0E94933DF7CF81E08093140973
:104E1000809313090C94563283E50E94D53A882377
:104E200019F00E94433A02C060E070E08B01112744
:104E300002301105D4F0E3EAF0E284918F010F5FB4
:104E40001F4F882321F00E94933DF801F6CFE6EF33
:104E5000F4E084918F010F5F1F4F882311F40C94AD
:104E600056320E94933DF801F4CF88E40E94D53A6F
:104E70008823A1F00E94433A6A3A710534F06B3FEF
:104E800071052CF06AEF70E002C06AEA70E0F80188
:104E9000EE0FFF1FE956F74F7183608386E40E948F
:104EA000D53A8823A9F00E94433AF801EE0FFF1F7C
:104EB000E556F74F718360836F3F710519F014F069
:104EC0006FEF70E077FF02C060E070E07183608395
:104ED00082E40E94D53A882311F40C9456320E9441
:104EE000433A6530710534F06F3671052CF06EE68B
:104EF00070E002C065E070E0000F111FF801ED5690
:104F0000F74F718360830C94563288EC90E00E94D6
:104F1000AA4081110C94563284E40E94A63A882358
:104F2000C1F10E94733A11E020E030E0A9010E9433
:104F3000DAFA811101C010E010930F0D112349F12D
:104F40000E94733AE091361624E0E29FF0011124AA
:104F5000E55FF24F608371838283938320E030E0CA
:104F6000A90160910B0D70910C0D80910D0D909128
:104F70000E0D0E94DAFA81110CC080E090E0A0EEE4
:104F8000BFE380930B0D90930C0DA0930D0DB09388
:104F90000E0D0E9414820C94563263E6E62E66E1F2
:104FA000F62E0DE812E074E0D72ED00ED8018D91C8
:104FB0008D010E94A63A882349F00E94733A0F940B
:104FC0003A00F7016083718382839383F4E0EF0EEC
:104FD000F11CD012EBCF0E943D8F0C945632F4E0BE
:104FE000EF0EF11CD01611F40C945632D8018D91AD
:104FF0008D010E94A63A882391F30E94733AF7012B
:105000006083718382839383EACF83E50E94A63A0B
:105010008823D9F00E94733AAB01BC0140937B1600
:1050200050937C1660937D1670937E164093731692
:1050300050937416609375167093761682E795E018
:105040000E94F7818AE00E94933D80E50E94A63A83
:10505000882399F00E94733AAB01BC0140937B1600
:1050600050937C1660937D1670937E1685E595E0CF
:105070000E94F7818AE00E94933D82E50E94A63A51
:10508000882399F00E94733AAB01BC0140937716D4
:10509000509378166093791670937A1686E395E0AC
:1050A0000E94F7818AE00E94933D84E50E94A63A1F
:1050B000882311F40C9456320E94733AAB01BC0160
:1050C000409373165093741660937516709376160A
:1050D00088E195E00E94F7818AE00E94933D0C945C
:1050E000563283E50E94A63A882351F00E94733A13
:1050F00060934F16709350168093511690935216EA
:1051000084E50E94A63A882351F00E94733A609386
:105110004B1670934C1680934D1690934E1682E466
:105120000E94A63A882351F00E94333A60930A12F3
:1051300070930B1280930C1290930D1288E50E94CD
:10514000A63A882351F00E94733A6093FA0C709348
:10515000FB0C8093FC0C9093FD0C89E50E94A63A11
:10516000882351F00E94733A6093FE0C7093FF0CF9
:105170008093000D9093010D8AE50E94A63A882342
:1051800051F00E94733A6093020D7093030D809367
:10519000040D9093050D85E40E94A63A882311F42E
:1051A0000C9456320E94733A6093060D7093070D6B
:1051B0008093080D9093090D0C945632E4E8FFE0BB
:1051C00084918F010F5F1F4F882321F00E94933D30
:1051D000F801F6CF83E50E94A63A882321F00E94C9
:1051E000643A80938B02E2ECF5E084918F010F5FCB
:1051F0001F4F882321F00E94933DF801F6CF809144
:105200008B02811103C0EEEBF5E002C0EAEBF5E0A2
:1052100084918F010F5F1F4F882321F00E94933DDF
:10522000F801F6CFE2EBF5E084918F010F5F1F4F9D
:10523000882321F00E94933DF801F6CF40E050E032
:10524000BA0180EB95E00E94F78140E050E0BA019E
:105250008DEA95E00E94F78140E050E0BA018AEAC9
:1052600095E00E94F781E2EAF5E084918F010F5FFB
:105270001F4F882321F00E94933DF801F6CF40E0B4
:1052800050E06AE773E480EA95E00E94F78140E02D
:1052900050E06AE773E48DE995E00E94F78140E011
:1052A00050E06AE773E48AE995E00E94F7818AE0BA
:1052B0000E94933D0C94563283E50E94D53A882390
:1052C00011F40C9456320E94433A70938302609317
:1052D00082020C9456328DED90E00E94AA4081111A
:1052E0000C94563283E50E94D53A882311F40C942D
:1052F00056320091361610E00E94433A000F111FFB
:10530000F801E058FD4F718360838091361690E07C
:105310008C01000F111F000F111F980124583D4FE1
:105320007901880F991FFC01E058FD4F6081718160
:10533000072E000C880B990B0E94E0FA2AE037ED4B
:1053400043E25CE30E943FFBF801EB54FA4E2081FC
:105350003181428153810E943FFBD7016D937D9340
:105360008D939C9313970C94563280E50E94A63A35
:10537000882311F40C9456320E94433A6B017C014D
:1053800083E50E94D53A882321F00E94433A8B019D
:1053900002C00FEF1FEFC8010196039710F00C94A5
:1053A0005632D7FE02C00C9456329C2DE2EDF5E049
:1053B00088E28E0F2491921711F40C945632319694
:1053C0008E13F8CF0C9482368AE50E94D53A81116B
:1053D0000C949E3483E50E94D53A81110C949E343E
:1053E0000C94563283E50E94D53A882319F00E9426
:1053F000433A02C064E071E079A368A380E50E94AB
:10540000D53A882339F00E94433A6938B3E17B07E3
:1054100030F402C068EE73E07A83698304C088E8E0
:1054200093E19A838983BE01605E7F4FCE0101962E
:105430000E94B5D30C94563285E40E94D53A81116E
:1054400010C080E50E94A63A882391F00E94733A2A
:1054500060938608709387088093880890938908E2
:1054600007C00E94533A882361F3E3EAF0E271C077
:1054700089E40E94A63A882381F00E94733A2CEABC
:1054800035EC47E25EE30E943FFB60938E08709329
:105490008F08809390089093910884E40E94A63A24
:1054A000882381F00E94733A2CEA35EC47E25EE3F0
:1054B0000E94CDFF60938A0870938B0880938C08BC
:1054C00090938D08E4E8FFE084918F010F5F1F4FF8
:1054D000882321F00E94933DF801F6CF4091860881
:1054E00050918708609188087091890882E096E061
:1054F0000E94F7812CEA35EC47E25EE360918E086A
:1055000070918F0880919008909191080E94CDFF32
:10551000AB01BC018EEF95E00E94DA812CEA35ECFC
:1055200047E25EE360918A0870918B0880918C0855
:1055300090918D080E943FFBAB01BC018AEF95E082
:105540000E94DA818AE00E94933DB0C70E94933D99
:10555000F80184918F010F5F1F4F8111F7CF0DE28A
:1055600013E0F80181918F01882309F4E5CB0E94B3
:10557000933DF7CF80E50E94A63A882351F00E9420
:10558000733A6093991670939A1680939B16909332
:105590009C1689E40E94A63A882381F00E94733AFF
:1055A0002CEA35EC47E25EE30E943FFB60939516E0
:1055B00070939616809397169093981684E40E94A1
:1055C000A63A882381F00E94733A2CEA35EC47E230
:1055D0005EE30E94CDFF60939116709392168093C4
:1055E000931690939416E4E8FFE084918F010F5F87
:1055F0001F4F882321F00E94933DF801F6CF409180
:10560000991650919A1660919B1670919C168EE097
:1056100096E00E94F7812CEA35EC47E25EE3609168
:1056200095167091961680919716909198160E94F3
:10563000CDFFAB01BC018AE096E00E94DA812CEA42
:1056400035EC47E25EE3609191167091921680917D
:105650009316909194160E943FFBAB01BC0186E02B
:1056600096E00E94DA818AE00E94933D1FC783E59D
:105670000E94A63A182F882371F00E94733A0F9463
:10568000350070937A026093790221E0672B09F06C
:1056900020E02093951580E50E94A63A882359F0D2
:1056A0002091790230917A02232B11F00E94643A02
:1056B00080939515FBC61111F9C6E4E8FFE08491CB
:1056C0008F010F5F1F4F882321F00E94933DF80147
:1056D000F6CF80919515811103C06AE173E002C095
:1056E0006DE073E087E296E00E94E58E60917902BA
:1056F00070917A0286E196E00E94CC8EE2E1F6E0BB
:1057000084918F010F5F1F4F882309F4CFC60E9439
:10571000933DF801F5CF85E40E94D53A882321F026
:105720000E94433A7B0102C0E12CF12C83E40E94E9
:10573000D53A882341F00E94433ACB57DF4F688324
:10574000C558D04006C045E0CB57DF4F4883C55809
:10575000D04085E50E94D53A882319F00E94643A2A
:1057600003C085E50E94A63ACF56DF4F8883C15912
:10577000D040F7FC07C0812C912C86E1A82E83E451
:10578000B82E06C0812C912C0CE8A02E02E4B02E7D
:1057900083E50E94D53A882321F00E94733A4B0199
:1057A0005C01E114F10411F4109236162896EFAE64
:1057B00028970E9474942B013C0128965FAD28978E
:1057C00057FD02C00CE301C004EB61E06E0D6230D6
:1057D00028F41EE3E12E13E0F12E0BC001E513E0E7
:1057E000D8018D918D01882309F4A6CA0E94933DAA
:1057F000F7CFF70181917F01882319F00E94933D33
:10580000F8CF8AE00E94933D0E94CADA2896FFAD45
:105810002897F7FF04C08FE7809335160AC02896B3
:105820002FAD2897E22F220FFF0BEC5CF94E8FE78C
:105830008083C501B4010F943500072E000C880B3E
:10584000990B0E94E0FA60966FAF609764967FAF05
:1058500064976C968FAF6C97A0969FAFA097A02F80
:10586000000FBB0B28EE33E00F940002CE56DF4F43
:10587000688379838A839B83C259D040DC01CB0142
:10588000840D951DA61DB71DC256DF4F88839983D1
:10589000AA83BB83CE59D04081E080937B02C75757
:1058A000DF4F488259826A827B82C958D040CA56EB
:1058B000DF4F488259826A827B82C659D040C857DE
:1058C000DF4F1882C858D040C656DF4F1882198261
:1058D0001A821B82CA59D040E8961FAEE89790E41E
:1058E000EC969FAFEC97ACE1E096AFAFE097B6E4F3
:1058F000E496BFAFE497C158DF4F1882CF57D0402E
:10590000C058DF4F1882C058D040CF57DF4F1882A1
:10591000C158D040CE57DF4F1882C258D040AF9602
:105920001CAE1DAE1EAE1FAEAF97AB961CAE1DAE2D
:105930001EAE1FAEAB97C12CD12C7601AFE78A2EDD
:10594000912CA12CB12C2FE730E040E050E06B9679
:105950002CAF3DAF4EAF5FAF6B97C357DF4F188291
:1059600019821A821B82CD58D04031E0C957DF4FCF
:105970003883C758D040A5961FAE1EAEA59710E03D
:10598000212C312C00E028964FAD2897842F440F0E
:10599000990BDC01AC5CB94ECE55DF4FB983A883BF
:1059A000C25AD040880F991F880F991FFC01EF56EB
:1059B000FA4ECD57DF4FF983E883C358D040CB5719
:1059C000DF4F2881C558D040022E000C330BCB5737
:1059D000DF4F39832883C558D04080917B028823CC
:1059E00009F446C10E9474942F966CAF7DAF8EAFC0
:1059F0009FAF2F9780913216882309F415C10E941A
:105A000089DB28963FAD289737FF09C01091E40C39
:105A10002090E50C3090E60C0091E70C0FC0CD57BC
:105A2000DF4FA881B981C358D0401C9111962C90AA
:105A3000119712963C90129713960C91212F322DAC
:105A4000432D502FC158DF4F6881CF57D040C058E9
:105A5000DF4F7881C058D040CF57DF4F8881C15881
:105A6000D040CE57DF4F9881C258D0400E94DAFA1A
:105A700087FF14C0C158DF4F1883CF57D040C0589C
:105A8000DF4F2882C058D040CF57DF4F3882C158EF
:105A9000D040CE57DF4F0883C258D040212F322D3F
:105AA000432D502FE8966FADE897EC967FADEC97BD
:105AB000E0968FADE097E4969FADE4970F941701C1
:105AC000181664F4E8961FAFE897EC962FAEEC97A3
:105AD000E0963FAEE097E4960FAFE497C957DF4FEB
