:100000000C94131A0C94441A0C94441A0C94441A29
:100010000C94441A0C94441A0C94441A0C94441AE8
:100020000C94441A0C94441A0C94441A0C94441AD8
:100030000C94441A0C94441A0C94441A0C94441AC8
:100040000C94441A0C945E590C94441A0C94441A5F
:100050000C94441A0C94441A0C94ABC90C9467B5D4
:100060000C94441A0C946E410C94441A0C94441A47
:100070000C94441A0C94441A0C94441A0C94441A88
:100080000C94441A0C94441A0C94441A0C94441A78
:100090000C94441A0C94441A0C94441A0C94441A68
:1000A0000C94441A0C94441A0C94441A0C94441A58
:1000B0000C94441A0C94441A0C94441A0C94441A48
:1000C0000C94441A0C94441A0C94441A0C94441A38
:1000D0000C94441A0C94441A0C94441A0C94441A28
:1000E0000C94441A1C6C256C2F6C386C416C5C6C45
:1000F000696C726C4A6C536C01B304B3F3B2F7B21F
:10010000FDB23BB308B30CB312B316B31AB320B3AA
:1001100024B328B33BB32EB332B336B383B488B41D
:100120008DB497B4A1B41AB5ABB4B3B4BBB4C5B471
:10013000CFB4D9B4E8B4F2B41AB5FCB406B510B56E
:10014000084AD73B3BCE016E84BCBFFDC12F3D6C3E
:1001500074319ABD56833DDA3D00C77F11BED9E4A4
:10016000BB4C3E916BAAAABE000000803F05A84C84
:10017000CDB2D44EB93836A9020C50B99186880850
:100180003CA6AAAA2ABE000000803F000D940502EA
:100190000D944D044E414E494E495459494E46CD59
:1001A000CCCC3D0AD7233C17B7D13877CC2B32952E
:1001B00095E6241FB14F0A000020410000C842000C
:1001C000401C4620BCBE4CCA1B0E5AAEC59D744393
:1001D0004F4D4D554E49434154494F4E004452599D
:1001E00052554E004552524F525300494E464F0011
:1001F0004543484F0020746F6F206C6F6E67206519
:100200007874727573696F6E2070726576656E743E
:1002100065640A0020636F6C64206578747275737E
:10022000696F6E2070726576656E7465640A00543D
:10023000454D5020544F4F204C4F57210052657070
:100240006F732E2E2E004D6F746575727320626C65
:100250006F717565732E0046696C652064656C6509
:100260007465643A0044656C6574696F6E206661FC
:10027000696C65642C2046696C653A20006F706576
:100280006E206661696C65642C2046696C653A2055
:10029000002569730025696D20256973002569684B
:1002A0002025696D2025697300256964202569680A
:1002B0002025696D202569730025697920256964E9
:1002C000202569682025696D2025697300507269B1
:1002D0006E742074696D653A200050726F746563A6
:1002E0007465642050696E0A0045256920257300F5
:1002F0005072696E7465722070726574652E00F0BC
:1003000001EB01E401DD01CF016F66660044454267
:1003100055473A004D4F52542E004D313133205342
:100320000043686175666665206C69742074657247
:100330006D696E65650020573A004C697420656EE2
:1003400020636861756666652E2E005072696E7452
:1003500065722041727265742E00454D45524745C5
:100360004E43595F50415253455200434153455FFC
:100370004C494748545F4252494748544E455353AD
:1003800000544F47474C455F4C494748545300532E
:100390004F4654574152455F504F574552004255C2
:1003A000494C445F50455243454E54004C455645D8
:1003B0004C494E475F44415441005A5F50524F42AE
:1003C00045004155544F4C4556454C005052494EFE
:1003D000545F4A4F420050524F47524553530041D9
:1003E00055544F5245504F52545F54454D5000564E
:1003F0004F4C554D455452494300454550524F4D81
:100400000053455249414C5F584F4E5F584F464646
:10041000004649524D574152455F4E414D453A4D78
:1004200061726C696E20312E312E38202847697434
:100430006875622920534F555243455F434F4445E9
:100440005F55524C3A68747470733A2F2F67697411
:100450006875622E636F6D2F4D61726C696E4669AF
:10046000726D776172652F4D61726C696E205052AA
:100470004F544F434F4C5F56455253494F4E3A31BC
:100480002E30204D414348494E455F545950453A1E
:100490005072696E746572204558545255444552E5
:1004A0005F434F554E543A3120555549443A6365A0
:1004B0006465326132662D343161322D343734381F
:1004C0002D396231322D6335356336326633363736
:1004D00066660A002F2F20007A5F6D696E3A200051
:1004E000795F6D696E3A2000785F6D696E3A200021
:1004F0005265706F7274696E6720656E6473746F95
:1005000070207374617475730A004D313435205353
:100510003C696E6465783E206F7574206F6620724A
:10052000616E67652028302D31290A005761726E8F
:10053000696E673A204D697820666163746F7273E3
:10054000206D7573742061646420757020746F2051
:10055000312E302E205363616C696E672E0A0025A0
:100560002900257C00202800252920746F205A00AE
:10057000257C002028004F4E2066726F6D205A00A7
:100580004F4646004772616469656E74204D697814
:10059000200053657474696E672054726176656CCF
:1005A00020416363656C65726174696F6E3A200007
:1005B00053657474696E6720526574726163742048
:1005C000416363656C65726174696F6E3A200053B4
:1005D000657474696E67205072696E74204163633C
:1005E000656C65726174696F6E3A2000536574744E
:1005F000696E67205072696E7420616E6420547257
:100600006176656C20416363656C65726174696FC6
:100610006E3A2000205A00205900580020204D61D9
:10062000783A2000205A00205900580020204D69B7
:100630006E3A20004D6172636865004172726574A4
:1006400000536F667420656E6473746F70733A2024
:1006500000000125272318FF1F211D1CFF19171B50
:100660001EFFFF0C0409FFFFFF2E2C0CFFFF312F94
:100670003004400AFF41FFFFFFFFFFFF20643A0004
:1006800020693A0020703A0020643A0020693A005C
:1006900020703A0043290A0061626C656420286D6D
:1006A000696E2074656D702000436F6C64206578FE
:1006B0007472756465732061726520004B6420005C
:1006C00023646566696E65202044454641554C5457
:1006D0005F004B69200023646566696E65202044D5
:1006E000454641554C545F004B70200023646566BD
:1006F000696E65202044454641554C545F00504981
:1007000044204175746F74756E652066696E6973F7
:10071000686564212050757420746865206C61736D
:1007200074204B702C204B6920616E64204B642038
:10073000636F6E7374616E74732066726F6D206286
:10074000656C6F7720696E746F20436F6E666967A2
:1007500075726174696F6E2E680A005049442041B9
:1007600075746F74756E65206661696C65642120AF
:1007700074696D656F75740A00454D42414C4C4576
:100780004D454E5420544845524D2E0054686572D4
:100790006D616C2052756E6177617900457272658A
:1007A00075722064652063686175666665004865DA
:1007B0006174696E67206661696C656400504944C4
:1007C000204175746F74756E65206661696C65642F
:1007D000212054656D706572617475726520746F47
:1007E0006F20686967680A00204B643A2000204B3C
:1007F000693A2000204B703A20000A20436C617354
:1008000073696320504944200A002054753A20003F
:10081000204B753A2000206D61783A2000206D69E8
:100820006E3A200020643A200020626961733A2009
:100830000043617365206C696768743A2000290A77
:1008400000466978656420706172616D65746572D7
:100850002062797465733B20637263200046697877
:10086000656420706172616D65746572202800484E
:10087000565F7365745F6F6B0A00556E6B6E6F77B2
:100880006E20636F6D6D616E643A2022004C696E5C
:1008900065204E756D626572206973206E6F7420DD
:1008A0004C617374204C696E65204E756D62657283
:1008B0002B312C204C617374204C696E653A2000FA
:1008C0004D4F52542E0053544F5050652E005072CD
:1008D000696E7465722073746F70706564206475DE
:1008E0006520746F206572726F72732E204669786E
:1008F00020746865206572726F7220616E64207565
:100900007365204D39393920746F207265737461B5
:1009100072742E202854656D7065726174757265ED
:100920002069732072657365742E20536574206985
:100930007420616674657220726573746172746983
:100940006E67290A004E6F20436865636B73756D8F
:100950002077697468206C696E65206E756D6265BC
:10096000722C204C617374204C696E653A200063D0
:100970006865636B73756D206D69736D6174636811
:100980002C204C617374204C696E653A20004D3107
:100990003130004D33310047312046313030302086
:1009A00059323130004732382058590053442072B0
:1009B000656164206572726F720A00446F6E652013
:1009C0007072696E74696E672066696C650A0020D2
:1009D000496E76616C6964206578747275646572BD
:1009E000200047322F4733206261642070617261BA
:1009F0006D65746572730A00200D46697865642020
:100A0000706172616D65746572206E627974657370
:100A10003B20637263206572726F722000200D0AA2
:100A2000466978656420706172616D6574657220D5
:100A300062797465733B20637263206572726F72B2
:100A40002000290A002062797465733B2063726379
:100A50002000466978656420706172616D65746517
:100A60007220280020686172647761726520766563
:100A70007273696F6E3A004D4F52542E00202D2034
:100A8000496E76616C69642065787472756465720C
:100A9000206E756D62657220210A001FFFFFFFFF47
:100AA000FFFF600000000001FF400000000000FFA9
:100AB0008000000000007F83CF00000C303F87FFE4
:100AC00080000C301F867980000C000F8C30C783AB
:100AD0008C30E78C30CFC7CC31F38C30DCECEC338E
:100AE000B98C30D86C6C33198C30D06C0C33198CB9
:100AF00030D86C0C33198C30DC6C0E3B198C30CF39
:100B00007C079F198C30C77C038F194000000000C0
:100B10000002600000000000061FFFFFFFFFFFF85B
:100B20002020506C616E6E65724275666665724219
:100B3000797465733A20002046726565204D656DB5
:100B40006F72793A2000436F6D70696C65643A206A
:100B50004A616E20313120323032300A00207C2050
:100B6000417574686F723A20286E6F6E652C206430
:100B7000656661756C7420636F6E666967290A002B
:100B8000323031372D31322D32352031323A30305A
:100B900000204C61737420557064617465643A2060
:100BA00000312E312E380A004D61726C696E0020C2
:100BB000536F6674776172652052657365740A00BD
:100BC000205761746368646F672052657365740AA7
:100BD000002042726F776E206F75742052657365C6
:100BE000740A002045787465726E616C20526573DA
:100BF00065740A00506F77657255700A00737461EE
:100C000072740A006572726F722077726974696E0D
:100C10006720746F2066696C650A004275746565AB
:100C20007320256320256320256320256300205A37
:100C30003A0020593A0020583A00656E6473746F88
:100C40007073206869743A20004732382058006673
:100C5000696C616D656E74206F75740A004D333276
:100C60002053256C7520212573004D3332205325E8
:100C70006C7520212F25732F2573004730204631B6
:100C8000303030205A25752E2575004732382059CE
:100C9000004732382058004D31303620205332354D
:100CA00035004D31303920543020532575004D31F9
:100CB00039302053257500446F6E65207361766965
:100CC0006E672066696C652E0A004D3239005265E8
:100CD0007072692E206465206C27696D70722E0019
:100CE0005072696E7465722070726574652E004171
:100CF0007474656E2E206465206C277574696C2E83
:100D000000456E642066696C65206C6973740A0026
:100D1000426567696E2066696C65206C6973740A48
:100D2000004D313235006F6B004368617566666552
:100D3000207465726D696E65650020573A0045251F
:100D400069202573005072696E7465722070726537
:100D500074652E00205A3A0020593A0020436F75DE
:100D60006E7420583A0020453A00205A3A00205923
:100D70003A00583A003A004361703A004572726F87
:100D8000722077726974696E6720746F20454550D0
:100D9000524F4D210A00290A002062797465733B85
:100DA00020637263200053657474696E6773205307
:100DB000746F72656420280024F4D43050C38E20F0
:100DC000C2A24017828B7011127A910D816CD90AE0
:100DD000A861E108C7586607615143061E4B5D05CF
:100DE000C145A7041A411104093D98037139310323
:100DF0004036DB0265339102D4305402802E1D024E
:100E0000632CEE01752AC501B028A00110278101CD
:100E10008F2564012B244B01E0223401AC211F01FA
:100E20008D200D01801FFC00841EED00971DDF004A
:100E3000B81CD200E61BC600201BBC00641AB2001E
:100E4000B219A8000A19A0006A189900D1179100D8
:100E500040178B00B516840031167E00B31579005B
:100E60003A157300C7146F0058146A00EE13660039
:100E70008813630025135E00C7125B006C125700D5
:100E800015125400C111510070114F0021114B0077
:100E9000D61049008D104700461044000210420051
:100EA000C00F4000800F3E00420F3C00060F3B0089
:100EB000CB0E3800930E37005C0E3500270E340041
:100EC000F30D3200C10D3100900D3000600D2E0089
:100ED000320D2D00050D2C00D90C2B00AE0C290075
:100EE000850C29005C0C2700350C27000E0C260011
:100EF000E80B2400C40B2400A00B23007D0B23006F
:100F00005A0B2100390B2100180B2000F80A1F0092
:100F1000D90A1E00BB0A1E009D0A1D00800A1D0082
:100F2000630A1C00470A1B002C0A1B00110A1A0046
:100F3000F7091A00DD091900C4091900AB091900E5
:100F4000920917007B091800630917004C09160065
:100F500036091600200916000A091500F5081500C3
:100F6000E0081400CC081400B8081400A408140009
:100F7000900813007D0812006B0813005808120037
:100F8000460812003408110023081100120811004D
:100F900001081100F0071000E0071000D007100052
:100FA000C0071000B0070F00A107100091070E0046
:100FB00083070F0074070F0065070E0057070E0028
:100FC00049070E003B070D002E070E0020070D00FD
:100FD00013070D0006070D00F9060C00ED060D00C5
:100FE000E0060C00D4060C00C8060C00BC060C0081
:100FF000B0060C00A4060B0099060C008D060B0031
:1010000082060B0077060B006C060B0061060A00D7
:1010100057060B004C060A0042060A0038060A0072
:101020002E060A0024060A001A060A001006090005
:1010300007060A00FD050900F4050900EB05090093
:10104000E2050900D9050900D0050900C705090016
:10105000BE050900B5050800AD050800A505090095
:101060009C050800940508008C050800840508000C
:101070007C050800740508006C050700650508007C
:101080005D050700560508004E05070047050700E7
:101090004005080038050700310507002A0507004C
:1010A000230507001C050600160507000F050700AD
:1010B0000805060002050700FB040600F50407000A
:1010C000EE040600E8040600E2040700DB04060064
:1010D000D5040600CF040600C9040600C3040600B8
:1010E000BD040600B7040600B1040500AC04060008
:1010F000A6040600A00405009B0406009504050054
:10110000900406008A04050085040500800406009A
:101110007A04050075040500700405006B040500E1
:1011200066040500610405005C0405005704050021
:10113000520405004D040500480405004304050061
:101140003E0404003A0405003504050030040400A0
:101150002C04050027040400230405001E040400D9
:101160001A04040016040500110404000D04040010
:10117000090405000404040000040400FC03040046
:10118000F8030400F4030400F0030400EC0304007B
:10119000E8030400E4030400E0030400DC030400AB
:1011A000D8030400D4030400D0030400CC030400DB
:1011B000C8030300C503030024F404D9201BC40C96
:1011C0005C0E9804C4095F0265077101F405F9001B
:1011D000FB04B30048048700C103690058035500AD
:1011E00003034500BE023A008402310053022A0084
:1011F0002902250004022000E4011C00C801190096
:10120000AF01170098011400840113007101100050
:101210006101100051010E0043010D0036010B0069
:101220002B010B0020010B00150109000C01090026
:1012300003010800FB000800F3000800EB000700B2
:10124000E4000600DE000600D8000600D20006001A
:10125000CC000500C7000500C2000500BD00040069
:10126000B9000400B5000400B1000400AD000400A2
:10127000A9000400A5000300A20003009F000400D1
:101280009B000300980003009500020093000300F8
:10129000900003008D0002008B0003008800020014
:1012A0008600020084000300810002007F0002002B
:1012B0007D0002007B00020079000200770001003F
:1012C000760002007400020072000100710002004A
:1012D0006F0002006D0001006C0002006A00010056
:1012E000690002006700010066000100650001005E
:1012F0006400020062000100610001006000010062
:101300005F0002005D0001005C0001005B00010065
:101310005A00010059000100580001005700010067
:101320005600010055000100540001005300000068
:101330005300010052000100510001005000010063
:101340004F0001004E0000004E0001004D00010062
:101350004C0001004B0000004B0001004A0001005E
:10136000490001004800000048000100470001005A
:101370004600000046000100450000004500010055
:10138000440001004300000043000100420000004F
:101390004200010041000000410001004000010046
:1013A0003F0000003F0001003E0000003E00010041
:1013B0003D0000003D0001003C0000003C0000003A
:1013C0003C0001003B0000003B0001003A0000002F
:1013D0003A00010039000000390001003800000027
:1013E000380000003800010037000000370001001D
:1013F0003600000036000000360001003500000015
:101400003500000035000100340000003400000009
:1014100034000100330000003300000033000100FD
:1014200032000000320000003200010031000000F4
:1014300031000000310001003000000030000000E9
:10144000300001002F0000002F0000002F000000DE
:101450002F0001002E0000002E0000002E000100D1
:101460002D0000002D0000002D0000002D000100C7
:101470002C0000002C0000002C0000002C000100BB
:101480002B0000002B0000002B0000002B000100AF
:101490002A0000002A0000002A0000002A000100A3
:1014A0002900000029000000290000002900000098
:1014B000290001002800000028000000280000008A
:1014C000280000002800010027000000270000007D
:1014D0002700000027000000270001002600000070
:1014E0002600000026000000260000002600010063
:1014F0002500000025000000250000002500000058
:101500002500000025000100240000002400000048
:10151000240000002400000024000100230000003B
:10152000230000002300000023000000230000002F
:101530002300000023000100220000002200000020
:101540002200000022000000220000002200010012
:101550002100000021000000210000002100000007
:1015600021000000210000002100010020000000F7
:1015700020000000200000002000000020000000EB
:101580002000000020000000200001001F000000DB
:101590001F0000001F0000001F0000001F000000CF
:1015A0001F0000001F0001001E0000001E000000C0
:1015B0001E0000001E0000004D3834205820592025
:1015C0005A2045005A25752C45256C752C50256CE4
:1015D000752C5425752C4225752C005072696E743B
:1015E00065722070726574652E005072696E746544
:1015F000722070726574652E004572723A4E6F20CB
:1016000046696C616D656E74006265640A002C2029
:1016100073797374656D2073746F707065642120C5
:101620004865617465725F49443A20002020427524
:1016300073653A20006368616E67657200647520A7
:1016400066696C616D656E7400417474656E746575
:101650002044656D617272616765005052494E5455
:1016600020504155534544002020427573653A206F
:101670000020006465636861726765722066696C4A
:10168000616D656E7400617474656E746520646567
:10169000005052494E54205041555345440020209B
:1016A000427573653A2000200050617469656E745C
:1016B000657A205356502E2E2E0042757365206594
:1016C0006E2063686175666665005052494E54200D
:1016D000504155534544002020427573653A20001F
:1016E00020005072206368617566666572206C61C7
:1016F00020627573650050726573736572206C6546
:1017000020626F75746F6E2E2E2E005052494E540B
:1017100020504155534544002020427573653A20BE
:1017200000706F757220636F6E74696E7565722ECE
:101730002E2E006574206170702E20626F75746F9C
:101740006E00696E73657265722066696C616D65A5
:101750006E74005052494E54205041555345440038
:101760002020427573653A2000200063686172672B
:10177000656D656E742066696C616D656E7400617F
:101780007474656E7465206465005052494E54202F
:10179000504155534544002020427573653A20005E
:1017A0002000657874727573696F6E2066696C616C
:1017B0006D656E7400617474656E74652064650097
:1017C0005052494E542050415553454400706F7556
:1017D000722072657072656E647265006174746502
:1017E0006E746520696D7072657373696F6E0050F9
:1017F00052494E542050415553454400496E697436
:1018000069616C6973657220454550524F4D0043C4
:101810006F6E74726F6C657200526573746175726D
:1018200065722064656661757473004C6972652029
:10183000636F6E66696700496E697469616C69738C
:10184000657220454550524F4D0053617576657263
:1018500020636F6E6669670046696C616D656E74C2
:10186000004D6F7576656D656E740054656D7065BD
:10187000726174757265004D656E75207072696E67
:10188000636970616C004D3330332055312045253C
:101890006920532569005265676C2E20707265635C
:1018A000682E20414253005265676C2E207072658D
:1018B00063682E20504C4100504944204175746F9C
:1018C00074756E6500504944204175746F74756E6F
:1018D00065005049442D44005049442D440050496E
:1018E000442D49005049442D49005049442D500091
:1018F0005049442D5000082046616374657572009C
:101900000820466163746575720008204D61780097
:1019100008204D61780008204D61780008204D694D
:101920006E0008204D696E0008204D696E004172FE
:10193000726574004D61726368650054656D702E48
:10194000204175746F2E0056697465737365207637
:10195000656E74696C2E00566974657373652076C4
:10196000656E74696C2E004C6974004C6974004299
:10197000757365004275736500436F6E74726F6CAA
:1019800065720053617576657220636F6E66696774
:10199000004C6974004C69740042757365004275AF
:1019A000736500566974657373652076656E746936
:1019B0006C2E00566974657373652076656E746964
:1019C0006C2E0054656D70657261747572650045AA
:1019D0004D42414C4C454D454E5420544845524D86
:1019E0002E00546865726D616C2052756E6177616E
:1019F000790043616E6E6F74206F70656E20737531
:101A0000626469722000656E7175657565696E67DF
:101A10002022006563686F3A0020746F6F206C6F3E
:101A20006E6720657874727573696F6E2070726569
:101A300076656E7465640A0020636F6C6420657857
:101A400074727573696F6E2070726576656E7465F9
:101A5000640A004D36303020486F74656E6420741F
:101A60006F6F20636F6C6420746F206368616E67B2
:101A7000652066696C616D656E740A007C3C3E5E33
:101A80002B3D3F2F5B5D3B2C2A225C0056652D6A67
:101A900065726B0056652D6A65726B0056652D6A1E
:101AA00065726B00567A2D6A65726B00567A2D6AE4
:101AB00065726B0056792D6A65726B0056792D6AD6
:101AC00065726B0056792D6A65726B0056782D6AC7
:101AD00065726B0056782D6A65726B0056782D6AB8
:101AE00065726B004D6F7576656D656E740045703F
:101AF00061732F6D6D00457061732F6D6D005A70AD
:101B000061732F6D6D005A7061732F6D6D00597088
:101B100061732F6D6D00597061732F6D6D0058707A
:101B200061732F6D6D00587061732F6D6D004D6F77
:101B30007576656D656E74005061732F6D6D004A2A
:101B400065726B00416363656C65726174696F6E89
:101B50000056656C6F6369746500436F6E74726FD5
:101B60006C6572004D61726368650052756E6F75C9
:101B7000742073656E736F727300417272657400C6
:101B80004469616D2E2046696C2E004469616D2E9A
:101B90002046696C2E004172726574004D6172635B
:101BA0006865004520656E206D6D3300436F6E746F
:101BB000726F6C65720043616E6E6F7420656E7437
:101BC0006572207375626469723A2000022E2E00DD
:101BD0004D656E75207072696E636970616C004D41
:101BE00031303420532575004739322045257500A2
:101BF000473932205A25752E2575004D3530300075
:101C000043616E63656C207072696E74005265701A
:101C100072656E64726520696D70722E00506F7708
:101C20006572206F75746167650025753A253032DD
:101C30007500253032753A253032750025756420DF
:101C4000253032753A25303275005A004D782025FE
:101C5000643B2564252520004D785E25643B256482
:101C600025252000092000000000000000000000E1
:101C70000000007FFFE00000000000000000000006
:101C800000007000E0000000000000000000000004
:101C90000061F8600000000000000000000000008B
:101CA00041F820000000000000000000000000409B
:101CB000F020000000000000000000000000406074
:101CC000200000000000000000000000005801A0FB
:101CD0007F80000000000000004104005C63A0FF62
:101CE000C0000000000000002082005EF7A0FFC0DE
:101CF000000000000000002082005EF7A0FFC0008E
:101D00000000000000004104005C63A07F80000030
:101D100000000000008208005801A07F8000000041
:101D200000000001041000406020FFC0000000001F
:101D300000000104100040F020FFC000000000007F
:101D4000000082080041F820FFC0000000000000F1
:101D50000041040061F8603F000000000000000046
:101D60000000007000E01E0000000000000001FF05
:101D7000FF807FFFE00C0000000000000001FFFF7B
:101D800080000000000000000000000000000000D3
:101D90007FFFE00000000000000000000000007075
:101DA00000E0000000000000000000000000630CE4
:101DB00060000000000000000000000000470E204E
:101DC0000000000000000000000000004F0F200095
:101DD00000000000000000000000005F0FA00000F5
:101DE000000000000000000000005E07A07F8000EF
:101DF000000000000000410400406020FFC000001F
:101E0000000000000020820040F020FFC000000021
:101E10000000000020820040F020FFC00000000011
:101E20000000004104004060207F800000000000AE
:101E300000008208005E07A07F8000000000000014
:101E4000010410005F0FA0FFC000000000000001AF
:101E50000410004F0F20FFC00000000000000082AF
:101E60000800470E20FFC0000000000000004104F1
:101E700000630C603F000000000000000000000054
:101E80007000E01E0000000000000001FFFF807FE6
:101E9000FFE00C0000000000000001FFFF800000D8
:101EA0000000060900FE000000000001090008FE15
:101EB000000005080806000040F0C88888987810DF
:101EC000050808060000C0F88888888888F8050595
:101ED000050600012030F830200508080600002023
:101EE00070F820202020E00509090600FF2070A8D6
:101EF000A8B8888870200509090600FFE080C0B0F6
:101F0000A8283028280509090600FFF8A88888882D
:101F10008888A8F8050A0A0600FE2050505050880C
:101F2000A8A8887003030306000340A0404D697809
:101F30003A202020202533642525202533642525BB
:101F4000004772616469656E7400546F67676C6501
:101F5000206D6978002533643B2533642525004DC9
:101F60006978004D656E75207072696E6369706185
:101F70006C00496D70722E20656E207061757365FE
:101F8000004D31323500002573004D323400496D6B
:101F900070722E20416E6E756C6565004732382078
:101FA0005859004739300047312046313030302011
:101FB0005A32300047393100506173206465206324
:101FC0006172746500496D70722E20646570756968
:101FD00073205344004172726574657220696D709C
:101FE000722E00496E666F7320696D7072696D6143
:101FF0006E74650052657072656E64726520696DFD
:1020000070722E00496E746572726F6D7072652009
:10201000696D70722E004D6978657200436F6E7441
:10202000726F6C65720050726570617265720052F9
:1020300065676C6572005375727665696C6C657264
:10204000004261627973746570205A004D363030F9
:10205000204230004368616E6765722066696C617A
:102060006D656E74004261627973746570205A0008
:10207000466C757800466C757800566974657373A4
:10208000652076656E74696C2E005669746573738D
:10209000652076656E74696C2E004C6974004C691D
:1020A000740042757365004275736500205669744B
:1020B00065737365002056697465737365004D65BB
:1020C0006E75207072696E636970616C0043617235
:1020D0007465207265746972656500436172746528
:1020E00020696E73657265650000060900FE0701D0
:1020F000920321207FFF07FF07FF0000000600007A
:1021000001070706020080808080800080030202B1
:10211000060105A0A00507070600005050F850F87A
:1021200050500507070600002078A07028F0200511
:102130000707060000C0C8102040981805070706CA
:1021400000006090A040A89068020303060104C04C
:102150004080030707060100204080808040200364
:102160000707060100804020202040800505050665
:10217000000120A870A8200505050600012020F810
:1021800020200203030602FFC04080050101060073
:1021900003F8020202060200C0C0050505060001A0
:1021A000081020408005070706000070888888888E
:1021B000887003070706010040C040404040E0052A
:1021C0000707060000708808708080F8050707067A
:1021D0000000F81020100808F0050707060000109E
:1021E000305090F81010050707060000F880F0083E
:1021F000088870050707060000708080F0888870E6
:10220000050707060000F808102020202005070712
:10221000060000708888708888700507070600002F
:1022200070888878080870020505060200C0C000A2
:10223000C0C00206060602FFC0C000C040800407FE
:102240000706000010204080402010050303060010
:1022500002F800F804070706010080402010204023
:102260008005070706000070880810200020050779
:102270000706000070880868A8A870050707060010
:1022800000708888F8888888050707060000F088AD
:1022900088F08888F0050707060000708880808035
:1022A0008870050707060000F08888888888F00590
:1022B0000707060000F88080F08080F80507070611
:1022C0000000F88080F0808080050707060000701D
:1022D0008880B8888870050707060000888888F815
:1022E00088888801070706020080808080808080BF
:1022F000050707060000381010101090600507074A
:102300000600008890A0C0A090880507070600007E
:10231000808080808080F805070706000088D8A8A4
:10232000888888880507070600008888C8A89888D4
:102330008805070706000070888888888870050768
:1023400007060000F08888F08080800507070600F7
:102350000070888888A89068050707060000F08844
:1023600088F0A09088050707060000788080700834
:1023700008F0050707060000F8202020202020058F
:102380000707060000888888888888700507070680
:102390000000888888888850200507070600008884
:1023A00088888888A850050707060000888850207C
:1023B000508888050707060000888888502020205C
:1023C000050707060000F80810204080F8030707FB
:1023D000060100E08080808080E0050505060001A0
:1023E0008040201008030707060100E0202020207D
:1023F00020E00503030600042050880501010600C3
:1024000000F80202020602058040050505060000EC
:1024100070087888780507070600008080B0C888B3
:1024200088F00505050600007080808870050707A4
:1024300006000008086898888878050505060000E9
:102440007088F880700507070600003048E04040BB
:1024500040400506060600FF70888878087005076A
:10246000070600008080B0C8888888010707060238
:1024700000800080808080800308080601FF200023
:1024800020202020A040040707060000808090A0A4
:10249000C0A090030707060100C04040404040E054
:1024A000050505060000D0A8A8A8A8050505060092
:1024B00000B0C888888805050506000070888888EF
:1024C000700506060600FFF08888F0808005060685
:1024D0000600FF788888780808050505060000B022
:1024E000C880808005050506000070807008F00433
:1024F00007070600004040E0404040300505050663
:102500000000888888986805050506000088888886
:1025100050200505050600008888A8A85005050577
:1025200006000088502050880506060600FF8888AF
:1025300088780870050505060000F8102040F803AB
:1025400007070601002040408040402001070706A1
:102550000200808080808080800307070601008061
:1025600040402040408005020206000268900000C2
:102570000006000000002100240027002A002D0092
:102580003000330001010000040107010A010000CE
:102590002200250028002B002E003100340002010B
:1025A0000000050108010B010000200023002600A7
:1025B00029002C002F003200000100000301060159
:1025C00009010505050507050808080802020202B9
:1025D0000A0A0808040404040101010101010101BF
:1025E0000303030303030303040707070C0C0C0C8A
:1025F0000C0C0C0C02020202060606060606060673
:102600000B0B0B0B0B0B0B0B0102102020080810FF
:102610002040102040800201020108040201010252
:10262000040810204080804020100804020180042B
:102630000201804020100804020108040201010286
:10264000040810204080010204081020408000008F
:102650000A0B02090C0D0E0807030401000000001C
:10266000000000000000000000000000000000006A
:102670000000000000000000000012111000000027
:10268000000000000000000000000000000000004A
:102690000000000053442063617264206F6B0A00E5
:1026A0006F70656E526F6F74206661696C65640A45
:1026B00000766F6C756D652E696E69742066616950
:1026C0006C65640A00534420696E69742066616910
:1026D0006C0A006175746F25692E67004D323400F5
:1026E0004D32332025730057726974696E67207408
:1026F0006F2066696C653A20006F70656E206661B8
:10270000696C65642C2046696C653A20006F7065C1
:102710006E206661696C65642C2046696C653A20A0
:102720000046696C652073656C65637465640A00B6
:102730002053697A653A200046696C65206F7065A0
:102740006E65643A20006F70656E206661696C6525
:10275000642C2046696C653A20002066696C653AF5
:102760002000646F696E67006672657368004E6F63
:10277000772000454E4420535542524F5554494E00
:10278000450A002220706F73002220706172656E0E
:10279000743A2200535542524F5554494E452043F6
:1027A000414C4C207461726765743A22004D4F525F
:1027B000542E00747279696E6720746F2063616CA7
:1027C0006C207375622D67636F64652066696C6544
:1027D00073207769746820746F6F206D616E792043
:1027E0006C6576656C732E204D4158206C6576655E
:1027F0006C2069733A004572726F723A00526573C9
:10280000656E643A20006F6B00627573793A2070D0
:10281000617573656420666F7220696E7075740AE5
:1028200000627573793A2070617573656420666F14
:102830007220757365720A00627573793A2070723E
:102840006F63657373696E670A004D4F52542E00B3
:102850004B494C4C20636175736564206279207428
:102860006F6F206D75636820696E6163746976654A
:102870002074696D65202D2063757272656E7420F9
:10288000636F6D6D616E643A200052615A2E205361
:10289000565000494D50522E2053544F50506545CC
:1028A000005072696E7465722068616C7465642E84
:1028B000206B696C6C28292063616C6C6564210A4B
:1028C00000000020C10000A0C0000000000000C8FF
:1028D000420000C8420000A04100000000576172A1
:1028E0006E696E673A20486F6D696E672042756D3C
:1028F000702044697669736F72203C20310A0002AF
:1029000002040000A0400000A040000000400000C1
:10291000824300007F4300007A43FFFFFF4572724D
:102920006575722064652063686175666665004838
:10293000656174696E67206661696C6564004572E3
:1029400072657572206465206368617566666500EE
:1029500048656174696E67206661696C65640070C2
:10296000012C0190012701B0012201C0011D01F0DD
:102970000118011002130130020E016002090190DA
:10298000020401C002FF000003FA004003F50080CA
:1029900003F000D003EB002004E6007004E100E047
:1029A00004DC004005D700C005D2004006CD00D0B1
:1029B00006C8008007C3003008BE00F008B900C098
:1029C00009B400B00AAF00B00BAA00D00CA50000FB
:1029D0000EA000500F9B00C01096005012910000F6
:1029E000148C00C0158700B0178200B0197D00D08C
:1029F0001B7800001E730040206E0090226900F0DA
:102A000024640040275F0090295A00E02B550010F5
:102A10002E500020304B0010324600E03341009031
:102A2000353C001037370070383200A0392D00B027
:102A30003A2800A03B2300603C1E00103D19009086
:102A40003D1400103E0F00703E0A00C03E0500001D
:102A50003F0000403FFBFF803FF6FFC03FF1FF45D6
:102A600072723A2054454D502E204D494E204C490B
:102A700054004572723A2054454D502E204D494E17
:102A8000004D494E54454D50207472696767657218
:102A90006564004572723A2054454D502E204D41D8
:102AA00058204C4954004572723A2054454D502EDE
:102AB000204D4158004D415854454D502074726985
:102AC00067676572656400202F002042403A00204D
:102AD000403A00507265636861756666616765209B
:102AE000504C412066696E690050726563682E2003
:102AF000504C41206C697400507265636861756662
:102B00006661676520504C41005072657061726566
:102B10007200507265636861756666616765204121
:102B200042532066696E690050726563682E2041C9
:102B30004253206C69740050726563686175666603
:102B40006167652041425300507265706172657221
:102B5000004E65787420636F726E65720052657402
:102B60006F7572005072656368617566666167654E
:102B700020504C4100526566726F69646972005062
:102B800072656368617566666167652041425300DE
:102B90004368616E6765722066696C616D656E740D
:102BA0000041727265746572206D6F746575727321
:102BB000004D3834004C6576656C20636F726E652D
:102BC0007273004F726967696E65206175746F2E4C
:102BD00000473238004465706C6163657220756E21
:102BE00020617865004D656E75207072696E63694D
:102BF00070616C005344207072696E74696E672056
:102C00006279746520004E6F74205344207072699D
:102C10006E74696E670A004F726967696E65202578
:102C20007325732573205072656D6965720020509D
:102C300072656D6965720A005A00590058004F723A
:102C40006967696E65200048617264636F646564DA
:102C50002044656661756C742053657474696E6791
:102C600073204C6F616465640A00B80B0000B80BF8
:102C7000000032000000B80B000000009643000086
:102C800096430000A0410000C8419A99A0429A9939
:102C9000A1420000C8430080C543204400204900F1
:102CA00020204D33303420500020440020490020A3
:102CB000204D3330312050005049442073657474E6
:102CC000696E67733A0A00204600204200204800DF
:102CD00020204D3134352053004D61746572696197
:102CE0006C2068656174757020706172616D6574C7
:102CF0006572733A0A00204500205A0020590020CE
:102D0000580020420020540020204D3230352053FE
:102D100000416476616E6365643A20533C6D696E70
:102D20005F66656564726174653E20543C6D696ED2
:102D30005F74726176656C5F666565647261746507
:102D40003E20423C6D696E5F7365676D656E745FB2
:102D500074696D655F75733E20583C6D61785F786E
:102D6000795F6A65726B3E205A3C6D61785F7A5F6D
:102D70006A65726B3E20453C6D61785F655F6A6590
:102D8000726B3E0A0020540020520020204D323049
:102D900034205000416363656C65726174696F6EC5
:102DA0002028756E6974732F7332293A20503C7055
:102DB00072696E745F616363656C3E20523C72653C
:102DC00074726163745F616363656C3E20543C742C
:102DD000726176656C5F616363656C3E0A002045D5
:102DE00000205A0020590020204D32303120580058
:102DF0004D6178696D756D20416363656C657261C5
:102E000074696F6E2028756E6974732F7332293A56
:102E10000A00204500205A0020590020204D323061
:102E2000332058004D6178696D756D206665656465
:102E300072617465732028756E6974732F73293AF3
:102E40000A00204500205A0020590020204D393228
:102E500020580053746570732070657220756E6918
:102E6000743A0A0020204D3230302044300A0020CD
:102E7000204D3230302044002044697361626C651B
:102E8000640A0046696C616D656E742073657474C4
:102E9000696E67733A0020204D3134392043203B5E
:102EA00020556E69747320696E2043656C73697573
:102EB000730A002020473231202020203B20556E0D
:102EC00069747320696E206D6D0A00290A57726952
:102ED00074652066696C65206E616D653A2000201E
:102EE00062797465733B206372632000506F77656D
:102EF000726F66662053746F72656420280020210B
:102F00003D2000637263206572726F723A20000A7E
:102F1000726561642066696C65206E616D653A203A
:102F200000290A726561642066696C6520646972B3
:102F30003A20002062797465733B2063726320003D
:102F4000706F7765726F66662073746F7265642048
:102F500073657474696E67732072657472696576DF
:102F60006564202800202863616C63756C6174655A
:102F70006429210A0020213D2000454550524F4D33
:102F800020435243206D69736D61746368202D2066
:102F90002873746F726564292000290A0020627901
:102FA0007465733B2063726320002073746F7265D5
:102FB000642073657474696E6773207265747269D6
:102FC00065766564202800204D61726C696E3D56FF
:102FD000343032290A0028454550524F4D3D0045B6
:102FE0004550524F4D2076657273696F6E206D6942
:102FF000736D61746368200054656D70204D617855
:103000003A203132350054656D70204D696E3A209A
:103010003500544265643A4550434F5320313030B7
:103020004B0054656D70204D61783A203236350082
:1030300054656D70204D696E3A20350054303A2049
:103040004550434F53203130304B00416C696D6522
:103050006E746174696F6E3A2047656E657269635C
:103060000050726F746F636F6C653A20312E3000C0
:10307000202020204857205665723A205600465797
:10308000205665723A2056322E3000426175643AFD
:10309000203235303030300047543235363020560B
:1030A000332E7800457874727564657572733A20B2
:1030B0003100687474703A2F2F6D61726C696E669E
:1030C000772E6F7267005072696E746572003230CD
:1030D00031372D31322D32352031323A3030003116
:1030E0002E312E38004D61726C696E005468657225
:1030F0006D6973746F727300496E666F73206361DC
:1031000072746500496E666F7320696D7072696DC7
:10311000616E7465004D656E75207072696E6369CD
:1031200070616C002020427573653A2000200052C7
:1031300065746F7572004C612074656D702E206D22
:10314000696E696D756D20657374203137302E009E
:103150004572726575722064652063686175666684
:1031600065002B20657874727573696F6E00526507
:103170007072656E64726520696D70722E005245C2
:1031800053554D45204F5054494F4E533A005374B8
:10319000617274205A3A202534642E2564206D6DA6
:1031A000002020456E64205A3A202534642E256480
:1031B000206D6D00285A203C3D2025642E25642971
:1031C000005374617274206D69783A202533642548
:1031D0002520253364252500285A203E3D202564DE
:1031E0002E256429002020456E64206D69783A20E0
:1031F00025336425252025336425250046756C6C10
:10320000206772616469656E74002533643B253301
:10321000642525002020456E64206D69783A0025DC
:1032200033643B2533642525005374617274206D2B
:1032300069783A004772616469656E740025346488
:103240002E2564206D6D002020456E64205A3A00C2
:103250002534642E2564206D6D00537461727420D2
:103260005A3A004772616469656E74206D6978002E
:103270004D6978657200566465706C206D696E00EA
:10328000566465706C206D696E00566465706C20C4
:103290006D696E00566D696E00566D696E00566DF3
:1032A000696E00566D61784500566D61784500562F
:1032B0006D61784500566D61785A00566D61785A97
:1032C00000566D61785A00566D61785900566D61EF
:1032D000785900566D61785900566D6178580056DE
:1032E0006D61785800566D617858004D6F75766540
:1032F0006D656E7400416D6178204500416D6178A7
:10330000204500416D6178205A00416D6178205A56
:1033100000416D6178205900416D6178205900416C
:103320006D6178205800416D6178205800412D442E
:1033300065706C2E00412D4465706C2E00412D721D
:1033400065747261637400412D7265747261637497
:1033500000416363656C65726174696F6E004163FF
:1033600063656C65726174696F6E004D6F7576652B
:103370006D656E74004465706C2E20580044657055
:103380006C2E2059004465706C2E205A00457874CC
:103390007275646572004465706C2E20302E316D3C
:1033A0006D004465706C2E20316D6D004465706C4D
:1033B0002E2031306D6D004465706C616365722044
:1033C000756E2061786500486F74656E6420746F57
:1033D0006F20636F6C640045787472756465720069
:1033E0004465706C2E205A004465706C2E20590084
:1033F0004465706C2E20580045787472756465724F
:10340000004465706C2E205A004465706C2E205963
:10341000004465706C2E20580050726570617265B2
:103420007200C600C80011241FBECFEFD1E2DEBF7C
:10343000CDBF00E00CBF13E0A0E0B2E0EEE3F6E2A7
:1034400002E00BBF02C007900D92A63FB107D9F76B
:1034500028E1A6EFB3E001C01D92AE33B207E1F759
:103460001AE1C2E1DAE100E006C021970109802FEC
:10347000FE010F947712C131D10780E00807A9F748
:103480000E942CFA0D940E130C9400002F923F9280
:103490004F925F926F927F928F929F92AF92BF9264
:1034A000CF92DF92EF92FF920F931F93CF93DF9310
:1034B000CDB7DEB7C958D1090FB6F894DEBF0FBE3D
:1034C000CDBF81E090E090938F1280938E12809117
:1034D000B1168D3409F4C4C0843511F40C94E92F6D
:1034E000873411F00C9437302091AF163091B0161C
:1034F00024303105C9F144F437FF02C00C94513037
:103500002230310544F520C02A35310509F49FC029
:1035100074F42B31310509F46EC02C31310511F0F2
:103520000C94513080E00E9497480C9451302B3518
:10353000310509F490C02C35310511F00C9451304F
:103540000E942F480C9451308091280281110C94D4
:1035500058300C94513081E02230310509F080E080
:103560000E949F380C94513080E50E94EF378823E9
:1035700029F00E944D376B017C0103C0C12CD12C76
:10358000760183E50E94EF37882361F00E948D3732
:1035900020E030E04AE754E40F94BE0B0F94B910DA
:1035A0006B017C010E944F5980913702811105C047
:1035B00060E08DE392E00E945EAF0E948D388091C2
:1035C0003B1790913C17A0913D17B0913E17C80E44
:1035D000D91EEA1EFB1E0E945BB5DC01CB018C19D3
:1035E0009D09AE09BF09B7FD02C00C94513080E0BF
:1035F0000E944DC4F0CF0E945ED381110C945130D3
:1036000080E090E0A0E4B0E489839A83AB83BC833C
:103610008D839E83AF83B88780E090E0A0E2B1E421
:1036200089879A87AB87BC8780E50E94EF3788231C
:1036300019F00E945D3701C060E068A3BE016F5FB2
:103640007F4FCE0180960E94F28A0C9451301092E6
:10365000FA030C94513081E08093FA030C945130BA
:103660008091AF169091B0168637910509F40DC779
:103670000CF0DBC08D34910509F494C40CF056C0F5
:103680008931910509F421C234F58431910509F499
:10369000DEC194F48131910509F4C6C144F4029766
:1036A00010F00C9451300E9490470C945130429786
:1036B00009F472C60C9451308631910509F4CFC1DA
:1036C0000CF4C9C18731910509F4CFC1489709F4B9
:1036D000E2C10C9451308F31910509F479C37CF427
:1036E0008B31910509F403C20CF4F3C18C319105BF
:1036F00009F401C24E9709F408C20C9451308A3281
:10370000910509F40BC42CF4809709F417C30C94A9
:1037100051308B34910509F441C48C34910511F07A
:103720000C9451300E9439D40C9451308B36910551
:1037300009F4A0C50CF04CC08535910509F430C6DC
:103740007CF58235910509F41EC604F58135910595
:1037500011F00C9451300E94ECCB0E944F590E9402
:10376000E0C310929D1710929C1768EE73E080E002
:1037700090E00E9451AE0E944F590E94613660E075
:103780008BE493E00E945EAF0C9451308335910539
:1037900009F4FDC58435910509F4FEC50C9451303A
:1037A0008836910509F402C44CF48C35910511F06A
:1037B0000C9451300E9411430C945130893691057C
:1037C00009F407C58A36910509F42FC50C945130C8
:1037D0008037910509F4C9C484F48D36910509F444
:1037E00004C50CF4BEC48E36910509F436C48F3678
:1037F000910509F445C40C9451308237910509F4C0
:10380000EAC50CF4B6C48337910509F4EAC58537D7
:10381000910511F00C94513060E08091AD169091BB
:10382000AE160E947CAF0C945130823E910511F48B
:103830000C94F0270CF070C0863A910511F40C94AA
:10384000B52454F58C38910509F4BFC484F4883745
:10385000910509F4BDC60CF457C68937910509F4E2
:10386000BEC68D37910509F417C50C9451308B39BC
:10387000910509F4B6C434F48139910509F4B5C64B
:103880000C945130833A910509F428C7843A910584
:1038900009F48AC70C9451308C3C910511F40C94B6
:1038A00040260CF5883C910511F40C94C02534F4A5
:1038B0008E3B910509F49DC40C945130893C9105CF
:1038C00011F40C9408268B3C910511F00C945130A6
:1038D0004EEEE42E47E1F42E02EA12E054E0D52E3B
:1038E000D00E0C943126833D910511F40C941927C8
:1038F0003CF48D3C910511F40C94AC260C945130A1
:103900008C3D910511F40C9497278D3D910511F490
:103910000C94A6270C945130893921E0920711F4B8
:103920000C94F72D0CF040C08F3241E0940711F455
:103930000C94C629DCF48C32A1E09A0711F40C94A3
:103940002D283CF48232914011F40C941F280C94E1
:1039500051308D32F1E09F0711F40C9456288E32CD
:10396000914011F40C9472290C945130833631E05B
:10397000930711F40C942A2F3CF48033914011F4F6
:103980000C94F5280C9451308039A1E09A0711F479
:103990000C94F42D8839914011F00C94513081E051
:1039A0008093B2120C945130873FE1E09E0711F4EE
:1039B0000C94002EFCF4843F21E0920711F40C9447
:1039C000FA2D4CF48A39914011F00C9451300E9438
:1039D000A8410C945130853F51E0950711F40C94A7
:1039E000FD2D863F914011F00C9451300E940FDA6A
:1039F0000C945130803AB3E09B0709F4DCC13CF4ED
:103A00008835924011F40C940C2E0C945130873E62
:103A100023E0920711F40C946A2F893D974011F42A
:103A20000C947F2F0C94513060E086E492E00E9469
:103A30005EAF4298179815982E989FB7F89480918A
:103A40000B018D7F80930B019FBF0C9451300E941E
:103A500035460C9451300E946BBD0C94513010923D
:103A6000B40F1092B50F0C945130E091AD16F09157
:103A7000AE168081882329F0803209F410823196B5
:103A8000F8CF40E061E08091AD169091AE160E94B3
:103A900022BA0C94513019821A821B821C8218A2FD
:103AA00019A21AA21BA280919012882341F040E033
:103AB000BE016F5F7F4FCE0180960E9405930E94EA
:103AC000AE7A0E941ED30C9451300E9429460C9469
:103AD00051308091B50F882311F40C94513083E557
:103AE0000E94EF3781110C942A310C9451300E94BE
:103AF00053D40C94513040E060E08091AD16909129
:103B0000AE160E9422BA0C9451308091B50F8823D2
:103B100011F40C94513081EB91E10E940F5281EB32
:103B200091E10E94D08C1092B30F1092B20FE090EE
:103B3000AD16F090AE168091B50F882311F40C9459
:103B400051300E946F781D8218861C821B8280EB88
:103B500092E09A83898389EE9FE090930910809385
:103B60000810D7018C918F3209F067C06FE270E0C6
:103B7000C7010F94CB128C010F5F1F4FFE013196CE
:103B80004F010115110509F45EC06FE270E0C80134
:103B90000F94CB126C01009709F456C0081719074F
:103BA00008F052C05C01A01AB10AA501B801CE010B
:103BB00080960F94F412E0E2F0E0EC0FFD1FEA0DA6
:103BC000FB1D10828E01005E1F4FD8018D918D016B
:103BD000882319F00E949838F8CF8AE00E9498381C
:103BE00060910810709109106115710511F06C5FFA
:103BF0007F4F21E0AE01405E5F4FCE0105960E94EF
:103C0000DF90811112C0BE01605E7F4F8DE792E0B0
:103C10000E9453F78EE20E9498388AE00E949838FA
:103C2000C4010E94CEC30C9451309092091080922E
:103C3000081086010F5F1F4FA4CF8AE090E1909398
:103C40000910809308108701609108107091091085
:103C50006115710511F06C5F7F4F18A21BA222E065
:103C6000A801CE0180960E94DF90811102C0F12C44
:103C70001EC0CE0180960E940A748823C1F36CA5F1
:103C80007DA58EA59FA541E00E946050882379F311
:103C9000E8A9B0E2EB9FF0011124E75BFC4E3097FE
:103CA00031F385EE80831BA20E942050F82ECE01B6
:103CB00080960E946A38FF2019F1E7E5F2E08491CE
:103CC0007F012FEFE21AF20A882321F00E94983830
:103CD000F701F5CFD8018D918D01882319F00E944D
:103CE0009838F8CF8AE00E9498381092E50F109229
:103CF000E60F1092E70F1092E80F0E94357718C078
:103D0000E5E6F2E084917F01BFEFEB1AFB0A88231E
:103D100021F00E949838F701F5CFF80181918F01C9
:103D2000882319F00E949838F8CF8EE20E949838C4
:103D3000CE0101960E94CEC30C9451308091B40FF5
:103D400081110E944F598091B50F882311F40C9472
:103D5000513080E50E94EF37882319F00E947E37AA
:103D600003C080E50E94C037182F482F61E0809182
:103D7000AD169091AE160E9422BA83E50E94EF37ED
:103D8000882381F00E945D37AB01BC014093E50FB1
:103D90005093E60F6093E70F7093E80F81EB91E18A
:103DA0000E9450520E94AE7A11110C9451300E9420
:103DB0001ED30C9451308091AD169091AE1621E037
:103DC0002093B30F40E060E00E9422BA0C9451307F
:103DD0000E94787A3CE3C32ED12CE12CF12CA70170
:103DE00096010F94340F762E672ECA01B901A701F0
:103DF00096010F94340F6B017C01CA01B90128E1CF
:103E000030E040E050E00F94340F4B015C01C901F9
:103E10006DE671E00F9434128E010F5F1F4F611534
:103E2000710599F06F927F92DF92CF929F928F925D
:103E30009F938F937F936F9389EB92E09F938F93E0
:103E40001F930F930F94F20A12C00097B1F06F9274
:103E50007F92DF92CF929F928F929F938F9389EA66
:103E600092E09F938F931F930F930F94F20A0FB6D4
:103E7000F894DEBF0FBECDBF36C081149104A104FB
:103E8000B10479F06F927F92DF92CF929F928F92DE
:103E90008DE992E09F938F931F930F930F94F20AF3
:103EA000E6CFC114D104E104F10469F06F927F926E
:103EB000DF92CF9285E992E09F938F931F930F93A8
:103EC0000F94F20AD4CF6F927F9281E992E09F9390
:103ED0008F931F930F930F94F20A0F900F900F90F0
:103EE0000F900F900F9060E0C8010E947CAFE3E15B
:103EF000FAE184917F01BFEFEB1AFB0A882321F0DE
:103F00000E949838F701F5CFB8018DEC92E00E943D
:103F100053F78AE00E9498380C94513083E50E9450
:103F2000EF37882311F40C9451300E946D37E82E3E
:103F300080E50E94EF37882341F00E945D378B01B6
:103F400077FF02C00C94513002C006E010E0902FC1
:103F5000E1E5F6E08BE28E0F2491921729F031967D
:103F60008E13FACF0C943A31E6EFF7E284918F0189
:103F70000F5F1F4F882321F00E949838F801F6CF79
:103F8000EAEDF2E084918F010F5F1F4F882311F457
:103F90000C9451300E949838F801F4CF0E941ED33F
:103FA0000C9451300E947A780C94513088E690E05D
:103FB0000E94A14081110C9451308091FF1283FF27
:103FC00002C00C94513083E50E94EF37882309F436
:103FD00040C00E948D370F94B41070939B1760936C
:103FE0009A1780E00E94A1CB0E948D3720E030E03C
:103FF0004AEA52E40F94590B18163CF00E947A7862
:1040000060E080EF92E00E945EAF0E948D372091C9
:104010001C1330911D1340911E1350911F130F94C8
:1040200096111816B4F487E393E09F938F938091D1
:10403000531790E001969F938F9389EE92E09F93A0
:104040008F931F920E9403D30FB6F894DEBF0FBE6A
:10405000CDBF0E947BF70C9451308EE40E94EF3765
:10406000882311F40C9451300E945D3760934513FE
:104070007093461380934713909348130C945130D8
:1040800083E50E94C037882359F083E50E94EF370B
:10409000882319F00E946D3701C080E08093FF12E1
:1040A000E3E1FAE184918F010F5F1F4F882321F034
:1040B0000E949838F801F6CFEDE0F3E084918F018B
:1040C0000F5F1F4F882321F00E949838F801F6CF28
:1040D0008091FF128823A1F12FEFC22E22E0D22E71
:1040E000E12CF12C20E08091FF1290E00E2C02C018
:1040F000959587950A94E2F780FF17C0BB24B39487
:10410000B20E222319F08CE20E949838F601259114
:104110003491F901849189010F5F1F4F882321F0A9
:104120000E9498389801F5CF2B2DFFEFEF1AFF0A68
:1041300032E0C30ED11C45E0E416F104A1F60CC038
:10414000E9E0F3E084918F010F5F1F4F882321F096
:104150000E949838F801F6CF8AE00E9498380C94B3
:10416000513010927A020C94513084E193E00E9415
:10417000E9C383E50E94EF37882369F00E946D3719
:104180008D3320F4809395020C9451308CE380930E
:1041900095020C945130E3E1FAE184918F010F5FB5
:1041A0001F4F882321F00E949838F801F6CF4091E4
:1041B000950250E060E070E08AE193E00E94E3F64F
:1041C0008AE00E9498380C9451300E9400440C946C
:1041D00051300E940D4610928F1210928E120C9444
:1041E000A9340E94DF450C9451300E9419440C946C
:1041F00051308091FF1283FF02C00C94513060E077
:104200008AE393E00E945EAF83E50E94EF372D962C
:104210008FAF2D9781110C94503182E50E94EF37BA
:1042200081110C9450310C94513080E50E94EF378D
:10423000811108C083E50E94EF37811109C03FEF6B
:1042400020E00AC00E946D3781110C945130F2CFEA
:104250000E945D37362F272F832F922F8F3F910596
:1042600019F010F08FEF90E090939D1780939C17BA
:104270000C94513080E50E94EF37811106C01092F6
:104280009D1710929C170C9451300E945D37672B3C
:1042900011F00C945130F3CF8CE40E94C037882386
:1042A00019F00E948D3704C060E070E080E090EC6F
:1042B0006BAF7CAF8DAF9EAF80E090E0A0E4B0E448
:1042C00089839A83AB83BC838D839E83AF83B887B6
:1042D00080E090E0A0E2B1E489879A87AB87BC8751
:1042E00088E50E94EF37882379F088E50E94EF3750
:1042F000882319F00E948D3703C060E070E0CB0185
:1043000069837A838B839C8389E50E94EF378823B6
:1043100079F089E50E94EF37882319F00E948D37E4
:1043200003C060E070E0CB016D837E838F8398874C
:104330008AE50E94EF37882379F08AE50E94EF37FB
:10434000882319F00E948D3703C060E070E0CB0134
:1043500069877A878B879C8718A219A21AA21BA249
:104360008091901281110C94513000E020E0AE0158
:10437000405E5F4FBE016F5F7F4FCE01CB960E94C4
:1043800028920C9451301092F9030C94513081E032
:104390008093F9030C9451300E94AF430C94513038
:1043A00083E50E94C037882311F40C9451300E9499
:1043B0008D3720E030E04AE754E40F94BE0B0F94B1
:1043C000B91060933F1770934017809341179093F3
:1043D00042170C9451300E944F590E944A420C944B
:1043E0005130E1E1F4E084918F010F5F1F4F88238A
:1043F00021F00E949838F801F6CF60E081E094E067
:104400000E94074261E08AEF93E00E94074261E068
:104410008FEE93E00E94074261E08FED93E00E94EF
:10442000074260E086ED93E00E94074261E08CEC79
:1044300093E00E94074260E082EC93E00E94074212
:1044400060E08AEB93E00E94074260E08CEA93E030
:104450000E94074260E08EE993E00E94074260E01C
:104460008FE893E00E94074261E081E893E00E94B8
:10447000074261E08BE693E00E94074260E08AE534
:1044800093E00E9407420C94513085E40E94EF377C
:10449000882319F00E947E3703C085E40E94C0374C
:1044A000882361F0E3E1FAE184918F010F5F1F4FF0
:1044B000882321F00E949838F801F6CF81E40E9409
:1044C000EF37882319F00E947E3703C081E40E94F1
:1044D000C037882361F0E4EDF4E084918F010F5F31
:1044E0001F4F882321F00E949838F801F6CF0091E1
:1044F000AD161091AE16D8018D918D01882309F467
:104500002BCE0E949838F7CFE0EFF4E084918F0132
:104510000F5F1F4F882321F00E949838F801F6CFD3
:10452000E8EEF4E084918F010F5F1F4F882321F0A4
:104530000E949838F801F6CF029B03C000E213E016
:1045400002C005E213E0F80181918F01882319F080
:104550000E949838F8CF8AE00E949838E0EEF4E0A4
:1045600084918F010F5F1F4F882321F00E9498389C
:10457000F801F6CF069B03C000E213E002C005E29B
:1045800013E0D8018D918D01882319F00E9498388D
:10459000F8CF8AE00E949838E8EDF4E084918F012A
:1045A0000F5F1F4F882321F00E949838F801F6CF43
:1045B000379B03C000E213E002C005E213E0F801FC
:1045C00081918F01882309F4C7CD0E949838F7CFD5
:1045D00081E08093850F8093840F0C94513010926A
:1045E000850F1092840F0C94513083E50E94EF37B1
:1045F000882319F00E945D3702C060E070E08B01F3
:10460000112702301105D4F0E6EFF7E284918F0113
:104610000F5F1F4F882321F00E949838F801F6CFD2
:10462000EAE0F5E084918F010F5F1F4F882311F4BA
:104630000C9451300E949838F801F4CF88E40E941D
:10464000EF378823A1F00E945D376A3A710534F094
:104650006B3F71052CF06AEF70E002C06AEA70E00F
:10466000F801EE0FFF1FE85FF04F7183608386E46F
:104670000E94EF378823A9F00E945D37F801EE0F02
:10468000FF1FE45FF04F718360836F3F710519F086
:1046900014F06FEF70E077FF02C060E070E07183AC
:1046A000608382E40E94EF37882311F40C94513028
:1046B0000E945D376530710534F06F3671052CF05E
:1046C0006EE670E002C065E070E0000F111FF801B7
:1046D000EC5FF04F718360830C94513083E50E944E
:1046E000EF37882349F00E945D378B0162307105F6
:1046F00014F00C94513002C000E010E080E50E94FC
:10470000EF37882341F10E948D376B017C0120E057
:1047100030E0A9010F94590B87FD1DC02DEB37E345
:1047200046E855EBC701B6010F94961187FD0AC004
:104730002DEB37E346E855E3C701B6010F94590B5B
:1047400018167CF4A701960160E070E080E89FE312
:104750000F944C1009C0C12CD12C7601C701B601B1
:1047600003C060E070E0CB01F801EE0FFF1FEE0F19
:10477000FF1FEA5EFA4F6083718382839383012B6C
:1047800011F00C94513020E030E048EC52E4C701C5
:10479000B6010F94BE0B0F94B91070E070938015A2
:1047A00060937F150C94513083E50E94EF37882386
:1047B00049F00E945D378B016031710514F00C9453
:1047C000513002C000E010E0C0901605D0901705EF
:1047D000E0901805F09019052DEB37E346E855EB0E
:1047E000C701B6010F94961187FF09C0A701960172
:1047F00060E070E080E89FE30F944C100DC02DEB5B
:1048000037E346E855E3C701B6010F94590B181674
:104810006CF360E070E0CB0120E030E0A9010F9480
:10482000700F4B015C01C0901A05D0901B05E09001
:104830001C05F0901D052DEB37E346E855EBC7014D
:10484000B6010F94961187FF0BC0A701960160E097
:1048500070E080E89FE30F944C109B01AC010DC009
:104860002DEB37E346E855E3C701B6010F94590B2A
:1048700018165CF320E030E0A901C501B4010F94E3
:10488000700F4B015C0120E030E040E85FE30F94E3
:104890006F0F6B017C012DEB37E346E855EB0F946E
:1048A000961187FF03C0ECE2F5E00EC02DEB37E375
:1048B00046E855E3C701B6010F94590B18169CF34F
:1048C00032C00E949838F70184917F012FEFE21ADD
:1048D000F20A8111F6CFA50194016091160570913D
:1048E000170580911805909119050F94BE0B6093E0
:1048F0001605709317058093180590931905A50167
:10490000940160911A0570911B0580911C0590918E
:104910001D050F94BE0B60931A0570931B058093C1
:104920001C0590931D05E3E0000F111FEA95E1F7C8
:10493000F801E659FB4F8091160590911705A0915B
:104940001805B091190580839183A283B383809168
:104950001A0590911B05A0911C05B0911D0584833B
:104960009583A683B7830C94513083E50E94C037AA
:10497000882321F00E947E37182F02C01091220256
:1049800081E40E94EF37882351F00E948D376093B5
:1049900018027093190280931A0290931B028AE501
:1049A0000E94EF37882351F00E948D3760931C02DC
:1049B00070931D0280931E0290931F0280E50E9457
:1049C000EF37882389F00E945D3777FD08C00E9489
:1049D0005D37653671052CF40E945D3703C060E0D9
:1049E00001C064E66093200281E50E94EF378823CE
:1049F00089F00E945D3777FD08C00E945D376536FB
:104A000071052CF40E945D3703C060E001C064E6CC
:104A100060932102F090200200912102F016A1F093
:104A200020911C0230911D0240911E0250911F02E4
:104A3000609118027091190280911A0290911B02E4
:104A40000F94590B811101C010E081E08093220284
:104A50008EE690E09093801580937F15F0928115FB
:104A6000009382158091180290911902A0911A0268
:104A7000B0911B028093831590938415A0938515A4
:104A8000B093861580911C0290911D02A0911E0288
:104A9000B0911F028093871590938815A093891574
:104AA000B0938A15E4E8F5E084917F013FEFE31AC3
:104AB000F30A882321F00E949838F701F5CF10936C
:104AC0002202112309F44FC040911802509119029B
:104AD00060911A0270911B0286E795E00E941DF713
:104AE00060912002062E000C770B83E795E00E9470
:104AF0003AF78091200204E610E0B801681B7109C2
:104B000087FD739580E795E00E943AF740911C027B
:104B100050911D0260911E0270911F0288E695E07F
:104B20000E941DF760912102062E000C770B85E68E
:104B300095E00E943AF780912102B801681B710943
:104B400087FD739582E695E00E943AF7EFE5F5E080
:104B500084918F010F5F1F4F882309F4FDCA0E94C3
:104B60009838F801F5CFE0E8F5E084918F010F5F08
:104B70001F4F882309F4F0CA0E949838F801F5CF36
:104B800088EC90E00E94A14081110C94513084E4A3
:104B90000E94C0378823C1F10E948D3711E020E0C8
:104BA00030E0A9010F94590B811101C010E010935E
:104BB000B712112349F10E948D37E091531744E059
:104BC000E49FF0011124ED54FD4E608371838283D4
:104BD000938320E030E0A9016091B3127091B41288
:104BE0008091B5129091B6120F94590B81110CC09F
:104BF00080E090E0A0EEBFE38093B3129093B412F4
:104C0000A093B512B093B6120E94C07A0C945130A2
:104C10006EEFE62E67E1F62E02EA12E074E0D72E80
:104C2000D00ED8018D918D010E94C037882349F0A4
:104C30000E948D370F94B910F701608371838283CE
:104C40009383F4E0EF0EF11CD012EBCF0E94ABF790
:104C50000C945130F4E0EF0EF11CD01611F40C94CA
:104C60005130D8018D918D010E94C037882391F376
:104C70000E948D37F7016083718382839383EACF2B
:104C800083E50E94C0378823D9F00E948D37AB019D
:104C9000BC0140931618509317186093181870931E
:104CA000191840930E1850930F18609310187093B2
:104CB00011188CEE95E00E941DF78AE00E9498384A
:104CC00080E50E94C037882399F00E948D37AB01A0
:104CD000BC014093161850931718609318187093DE
:104CE00019188FEC95E00E941DF78AE00E94983811
:104CF00082E50E94C037882399F00E948D37AB016E
:104D0000BC014093121850931318609314187093B9
:104D1000151880EB95E00E941DF78AE00E949838F4
:104D200084E50E94C037882311F40C9451300E940E
:104D30008D37AB01BC0140930E1850930F18609350
:104D400010187093111882E995E00E941DF78AE00F
:104D50000E9498380C94513083E50E94C037882314
:104D600051F00E948D376093EA177093EB17809390
:104D7000EC179093ED1784E50E94C037882351F01B
:104D80000E948D376093E6177093E7178093E817BA
:104D90009093E91782E40E94C037882351F00E9463
:104DA0004D376093731270937412809375129093C1
:104DB000761288E50E94C037882351F00E948D3713
:104DC0006093A2127093A3128093A4129093A512E1
:104DD00089E50E94C037882351F00E948D37609387
:104DE000A6127093A7128093A8129093A9128AE535
:104DF0000E94C037882351F00E948D376093AA1219
:104E00007093AB128093AC129093AD1285E40E9424
:104E1000C037882311F40C9451300E948D37609371
:104E2000AE127093AF128093B0129093B1120C94A3
:104E30005130E3E1FAE184918F010F5F1F4F882326
:104E400021F00E949838F801F6CF83E50E94C03720
:104E5000882321F00E947E378093A102E1E4F6E0EE
:104E600084918F010F5F1F4F882321F00E94983893
:104E7000F801F6CF8091A102811103C0EBE3F6E0C7
:104E800002C0E4E3F6E084918F010F5F1F4F882397
:104E900021F00E949838F801F6CFECE2F6E0849118
:104EA0008F010F5F1F4F882321F00E949838F8016F
:104EB000F6CF40E050E0BA018AE296E00E941DF78A
:104EC00040E050E0BA0187E296E00E941DF740E022
:104ED00050E0BA0184E296E00E941DF7ECE1F6E0B2
:104EE00084918F010F5F1F4F882321F00E94983813
:104EF000F801F6CF40E050E06AE773E48AE196E01B
:104F00000E941DF740E050E06AE773E487E196E015
:104F10000E941DF740E050E06AE773E484E196E008
:104F20000E941DF78AE00E9498380C94513083E566
:104F30000E94EF37882311F40C9451300E945D37A2
:104F400070938202609381020C9451308DED90E059
:104F50000E94A14081110C94513083E50E94EF37EB
:104F6000882311F40C9451300091531710E00E94E3
:104F70005D37000F111FF801E158FD4F7183608309
:104F80008091531790E08C01000F111F000F111F2B
:104F9000980125583D4F7901880F991FFC01E15870
:104FA000FD4F60817181072E000C880B990B0F94C7
:104FB0005F0B2AE037ED43E25CE30F94BE0BF80190
:104FC000E050FD4E20813181428153810F94BE0B10
:104FD000D7016D937D938D939C9313970C945130CF
:104FE00080E50E94C037882311F40C9451300E9450
:104FF0005D376B017C0183E50E94EF37882321F048
:105000000E945D378B0102C00FEF1FEFC8010196B0
:10501000039710F00C945130D7FE02C00C9451301D
:105020009C2DE1E5F6E08BE28E0F2491921711F4AE
:105030000C94513031968E13F8CF0C9480348AE55D
:105040000E94EF3781110C94B23283E50E94EF3752
:1050500081110C94B2320C94513083E50E94EF37E9
:10506000882319F00E945D3702C064E071E079A3E3
:1050700068A380E50E94EF37882339F00E945D37EE
:105080006938B3E17B0730F402C068EE73E07A83DD
:10509000698304C088E893E19A838983BE01605ED6
:1050A0007F4FCE0101960E94D0D2FBC785E40E94BB
:1050B000EF37811110C080E50E94C037882391F03E
:1050C0000E948D376093F70E7093F80E8093F90E5F
:1050D0009093FA0E07C00E946D37882361F3E6EFC4
:1050E000F7E271C089E40E94C037882381F00E94F2
:1050F0008D372CEA35EC47E25EE30F94BE0B6093EC
:10510000FF0E7093000F8093010F9093020F84E4C1
:105110000E94C037882381F00E948D372CEA35EC3D
:1051200047E25EE30F944C106093FB0E7093FC0E0D
:105130008093FD0E9093FE0EE3E1FAE184918F01DE
:105140000F5F1F4F882321F00E949838F801F6CF97
:105150004091F70E5091F80E6091F90E7091FA0E91
:1051600084E896E00E941DF72CEA35EC47E25EE306
:105170006091FF0E7091000F8091010F9091020FCE
:105180000F944C10AB01BC0180E896E00E9400F740
:105190002CEA35EC47E25EE36091FB0E7091FC0E69
:1051A0008091FD0E9091FE0E0F94BE0BAB01BC01E1
:1051B0008CE796E00E9400F78AE00E94983871C759
:1051C0000E949838F80184918F010F5F1F4F811161
:1051D000F7CF05E413E0F80181918F01882311F4E2
:1051E0000C94AC200E949838F6CF80E50E94C0371E
:1051F000882351F00E948D376093860E7093870E3E
:105200008093880E9093890E89E40E94C03788238A
:1052100081F00E948D372CEA35EC47E25EE30F9473
:10522000BE0B6093820E7093830E8093840E9093D6
:10523000850E84E40E94C037882381F00E948D3758
:105240002CEA35EC47E25EE30F944C1060937E0E3F
:1052500070937F0E8093800E9093810EE3E1FAE1CC
:1052600084918F010F5F1F4F882321F00E9498388F
:10527000F801F6CF4091860E5091870E6091880E0E
:105280007091890E80E996E00E941DF72CEA35ECBA
:1052900047E25EE36091820E7091830E8091840EEE
:1052A0009091850E0F944C10AB01BC018CE896E0F8
:1052B0000E9400F72CEA35EC47E25EE360917E0E37
:1052C00070917F0E8091800E9091810E0F94BE0B95
:1052D000AB01BC0188E896E00E9400F78AE00E94DA
:1052E0009838DFC683E50E94C037182F882371F0F5
:1052F0000E948D370F94B4107093860260938502DC
:1053000021E0672B09F020E02093201380E50E9424
:10531000C037882359F02091850230918602232BD3
:1053200011F00E947E3780932013BBC61111B9C6BD
:10533000E3E1FAE184918F010F5F1F4F882321F091
:105340000E949838F801F6CF80912013811103C094
:105350006FE273E002C062E273E089EA96E00E94C5
:1053600053F7609185027091860288E996E00E9469
:105370003AF7E4E9F6E084918F010F5F1F4F88232D
:1053800009F48FC60E949838F801F5CF85E40E9491
:10539000EF37882321F00E945D377B0102C0E12CAA
:1053A000F12C83E40E94EF37882331F00E945D37AF
:1053B000AC966FAFAC9704C045E0AC964FAFAC97DE
:1053C00085E50E94EF37882319F00E947E3703C0DD
:1053D00085E50E94C037E8968FAFE897F7FC07C0D5
:1053E000812C912C86E1A82E83E4B82E06C0812C56
:1053F000912C0CE8A02E02E4B02E83E50E94EF373A
:10540000882321F00E948D374B015C01E114F104E7
:1054100011F4109253172896EFAE28970E945BB5AF
:105420002B013C0128965FAD289757FD02C00CE385
:1054300001C004EB61E06E0D623028F416E5E12E48
:1054400013E0F12E0CC009E613E0D8018D918D0117
:10545000882311F40C94AC200E949838F6CFF70101
:1054600081917F01882319F00E949838F8CF8AE053
:105470000E9498380E94ECCB2896FFAD2897F7FF42
:1054800004C08FE7809352170AC028962FAD289743
:10549000E22F220FFF0BEF5AF84E8FE78083C501F2
:1054A000B4010F94B410072E000C880B990B0F94C5
:1054B0005F0B61966FAF619765967FAF6597669654
:1054C0008FAF669767969FAF6797A02F000FBB0BB4
:1054D00028EE33E00F947F12EC966CAF7DAF8EAF69
:1054E0009FAFEC97DC01CB01840D951DA61DB71D68
:1054F000CC57DF4F88839983AA83BB83C458D0409D
:1055000081E080937A02E3964CAE5DAE6EAE7FAEE4
:10551000E397C458DF4F488259826A827B82CC5716
:10552000D040AF961FAEAF97C058DF4F1882198298
:105530001A821B82C058D040A2961FAEA29790E458
:10554000A3969FAFA397ACE1A496AFAFA497B6E4A0
:10555000A596BFAFA597A6961FAEA697A7961FAE16
:10556000A797A8961FAEA897A9961FAEA997A19630
:105570001CAE1DAE1EAE1FAEA1976D961CAE1DAE2D
:105580001EAE1FAE6D97C12CD12C7601AFE78A2ECF
:10559000912CA12CB12C2FE730E040E050E0609638
:1055A0002CAF3DAF4EAF5FAF6097E7961CAE1DAE20
:1055B0001EAE1FAEE79731E0AE963FAFAE9769964D
:1055C0001FAE1EAE699710E0212C312C00E028960A
:1055D0004FAD2897842F440F990BDC01AF5AB84E7A
:1055E000C857DF4FB983A883C858D040880F991F88
:1055F000880F991FFC01E45EFC4EAB96FFAFEEAF47
:10560000AB97AC962FADAC97022E000C330BAD963A
:105610003FAF2EAFAD9780917A02882309F422C163
:105620000E945BB52C966CAF7DAF8EAF9FAF2C9771
:1056300080914F17882309F4F1C00E94ABCC2896C3
:105640003FAD289737FF09C01091E2122090E31276
:105650003090E4120091E5120DC0AB96AEADBFAD37
:10566000AB971C9111962C90119712963C90129723
:1056700013960C91212F322D432D502FA6966FADEE
:10568000A697A7967FADA797A8968FADA897A9963E
:105690009FADA9970F94590B87FF0CC0A6961FAF1B
:1056A000A697A7962FAEA797A8963FAEA897A996BC
:1056B0000FAFA997212F322D432D502FA2966FADFA
:1056C000A297A3967FADA397A4968FADA497A59616
:1056D0009FADA5970F949611181664F4A2961FAF6C
:1056E000A297A3962FAEA397A4963FAEA497A59694
:1056F0000FAFA597AE96BFADAE9761962FAD6197F0
:1057000065963FAD659766964FAD669767965FADB8
:105710006797612F722D832D902FBB2309F462C0F0
:105720000F94961118160CF079C02C964CAD5DAD07
:105730006EAD7FAD2C974419550966097709DB01D9
:10574000CA0188589341A109B109B7FD67C06096A5
:105750008CAD9DADAEADBFAD609788199909AA0912
:10576000BB092896EFAD2897B595A795979587958E
:10577000E7FF03C08093521707C0C857DF4FE88187
:10578000F981C858D0408083E7964CAF5DAF6EAFCB
:105790007FAFE7976196FFAD6197A696FFAFA6979B
:1057A00065962FAD6597A7962FAFA79766963FADE5
:1057B0006697A8963FAFA89767964FAD6797A9964B
:1057C0004FAFA9972C968CAD9DADAEADBFAD2C97CC
:1057D000E3968CAF9DAFAEAFBFAFE397AE961FAE73
:1057E000AE971CC00F94590B87FF18C02C968CAD38
:1057F0009DADAEADBFAD2C97E3962CAD3DAD4EAD9E
:105800005FADE397821B930BA40BB50BAC01BD01FD
:10581000485853416109710977FFDDC620E030E047
:1058200040EA51E461966FAD619765967FAD6597EB
:1058300066968FAD669767969FAD67970F94700FCA
:105840009B01AC01612F722D832D902F0F94961127
:1058500018167CF4EDEBF7E084918F010F5F1F4F7A
:10586000811103C00E94ECCB1CC40E949838F8013F
:10587000F3CF2C968CAD9DADAEADBFAD2C97C4587B
:10588000DF4F288139814A815B81CC57D040821B10
:10589000930BA40BB50BB7FDB9C00E941FC98AE0DA
:1058A0000E9498382C968CAD9DADAEADBFAD2C97B7
:1058B0008053984FAF4FBF4FC458DF4F88839983B1
:1058C000AA83BB83CC57D040AF969FADAF979111C1
:1058D00078C0C058DF4F288139814A815B81C05828
:1058E000D040612F722D832D902F0F949611181692
:1058F0000CF04EC020E030E040EC50E461966FAD1B
:10590000619765967FAD659766968FAD669767964A
:105910009FAD67970F946F0F9B01AC01A1E0AF960D
:10592000AFAFAF97612F722D832D902F0F949611EB
:1059300018161CF0AF961FAEAF9720E030E040E0A5
:1059400050E4612F722D832D902F0F94700FC0584B
:10595000DF4F688379838A839B83C058D0402C961D
:105960002CAD3DAD4EAD5FAD2C97EC968CAD9DADA5
:10597000AEADBFADEC97280F391F4A1F5B1FCC5748
:10598000DF4F288339834A835B83C458D0403EC0AD
:105990002C968CAD9DADAEADBFAD2C97CC57DF4FE7
:1059A000288139814A815B81C458D040821B930B86
:1059B000A40BB50BB7FD2AC04CE957E06EEA77E0BF
:1059C00020C020E030E040EA51E461966FAD61977D
:1059D00065967FAD659766968FAD669767969FAD26
:1059E00067970F946F0F9B01AC01612F722D832D70
:1059F000902F0F94590B87FF09C049E757E06CE8D7
:105A000077E028968FAD28970E9492582C968CADFF
:105A10009DADAEADBFAD2C97880F991FAA1FBB1FC0
:105A2000E3962CAD3DAD4EAD5FADE397821B930B7E
:105A3000A40BB50B84199509A609B70981389F44B1
:105A4000A241B10568F0EBE5F7E084918F010F5FAB
:105A50001F4F882309F406CF0E949838F801F5CF2C
:105A600069964EAD5FAD6997AD968EAD9FADAD9722
:105A7000841795070CF0B5C0EEEFF6E084918F0126
:105A80000F5F1F4F882321F00E949838F801F6CF4E
:105A900028969FAD289797FD03C00EED13E002C036
:105AA00003E313E0B8018CEE96E00E9453F7B701D0
:105AB000A60188EE96E00E941DF78AE00E949838C1
:105AC000B80186ED96E00E9453F76D964CAD5DAD42
:105AD0006EAD7FAD6D9782ED96E00E941DF78AE076
