:100000000C947B190C94AC190C94AC190C94AC198D
:100010000C94AC190C94AC190C94AC190C94AC194C
:100020000C94AC190C94AC190C94AC190C94AC193C
:100030000C94AC190C94AC190C94AC190C94AC192C
:100040000C94AC190C94C6580C94AC190C94AC19C3
:100050000C94AC190C94AC190C9413C90C94CFB437
:100060000C94AC190C94D6400C94AC190C94AC19AB
:100070000C94AC190C94AC190C94AC190C94AC19EC
:100080000C94AC190C94AC190C94AC190C94AC19DC
:100090000C94AC190C94AC190C94AC190C94AC19CC
:1000A0000C94AC190C94AC190C94AC190C94AC19BC
:1000B0000C94AC190C94AC190C94AC190C94AC19AC
:1000C0000C94AC190C94AC190C94AC190C94AC199C
:1000D0000C94AC190C94AC190C94AC190C94AC198C
:1000E0000C94AC19846B8D6B976BA06BA96BC46B74
:1000F000D16BDA6BB26BBB6B69B26CB25BB25FB2E5
:1001000065B2A3B270B274B27AB27EB282B288B271
:100110008CB290B2A3B296B29AB29EB2EBB3F0B3E5
:10012000F5B3FFB309B482B413B41BB423B42DB434
:1001300037B441B450B45AB482B464B46EB478B431
:10014000084AD73B3BCE016E84BCBFFDC12F3D6C3E
:1001500074319ABD56833DDA3D00C77F11BED9E4A4
:10016000BB4C3E916BAAAABE000000803F05A84C84
:10017000CDB2D44EB93836A9020C50B99186880850
:100180003CA6AAAA2ABE000000803F000D946D0183
:100190000D94B5034E414E494E495459494E46CDF2
:1001A000CCCC3D0AD7233C17B7D13877CC2B32952E
:1001B00095E6241FB14F0A000020410000C842000C
:1001C000401C4620BCBE4CCA1B0E5AAEC59D744393
:1001D0004F4D4D554E49434154494F4E004452599D
:1001E00052554E004552524F525300494E464F0011
:1001F0004543484F0020746F6F206C6F6E67206519
:100200007874727573696F6E2070726576656E743E
:1002100065640A0020636F6C64206578747275737E
:10022000696F6E2070726576656E7465640A00543D
:10023000454D5020544F4F204C4F572100536C6573
:1002400065702E2E2E004E6F206D6F76652E004647
:10025000696C652064656C657465643A0044656C1E
:100260006574696F6E206661696C65642C204669EF
:100270006C653A20006F70656E206661696C65641C
:100280002C2046696C653A20002569730025696D4C
:1002900020256973002569682025696D202569730B
:1002A00000256964202569682025696D202569730A
:1002B0000025697920256964202569682025696DF4
:1002C00020256973005072696E742074696D653AF7
:1002D000200050726F7465637465642050696E0A03
:1002E00000452569202573005072696E746572207F
:1002F00072656164792E00F001EB01E401DD01CF4C
:10030000016F66660044454255473A004B494C4CE4
:1003100045442E20004D3131332053004265642086
:10032000646F6E652E0020573A0042656420486570
:100330006174696E672E005072696E746572204F29
:1003400066662E00454D455247454E43595F504124
:100350005253455200434153455F4C494748545F0F
:100360004252494748544E45535300544F47474C17
:10037000455F4C494748545300534F4654574152E8
:10038000455F504F574552004255494C445F5045D8
:100390005243454E54004C4556454C494E475F44E8
:1003A000415441005A5F50524F4245004155544F0D
:1003B0004C4556454C005052494E545F4A4F4200FE
:1003C00050524F4752455353004155544F52455098
:1003D0004F52545F54454D5000564F4C554D455467
:1003E00052494300454550524F4D005345524941F3
:1003F0004C5F584F4E5F584F4646004649524D5746
:100400004152455F4E414D453A4D61726C696E20D7
:10041000312E312E3820284769746875622920539F
:100420004F555243455F434F44455F55524C3A68E0
:10043000747470733A2F2F6769746875622E636FD6
:100440006D2F4D61726C696E4669726D7761726570
:100450002F4D61726C696E2050524F544F434F4C78
:100460005F56455253494F4E3A312E30204D41434D
:1004700048494E455F545950453A5072696E74650B
:10048000722045585452554445525F434F554E547F
:100490003A3120555549443A6365646532613266A4
:1004A0002D343161322D343734382D396231322DCB
:1004B0006335356336326633363766660A002F2F6A
:1004C00020007A5F6D696E3A2000795F6D696E3A3F
:1004D0002000785F6D696E3A20005265706F72740B
:1004E000696E6720656E6473746F702073746174D5
:1004F00075730A004D31343520533C696E6465785C
:100500003E206F7574206F662072616E67652028CB
:10051000302D31290A005761726E696E673A204D9D
:10052000697820666163746F7273206D75737420CF
:1005300061646420757020746F20312E302E20533A
:1005400063616C696E672E0A00252900257C0020F6
:100550002800252920746F205A00257C00202800BF
:100560004F4E2066726F6D205A004F46460047720C
:10057000616469656E74204D6978200053657474F8
:10058000696E672054726176656C20416363656CA7
:1005900065726174696F6E3A200053657474696E98
:1005A00067205265747261637420416363656C6592
:1005B000726174696F6E3A200053657474696E6776
:1005C000205072696E7420416363656C657261745A
:1005D000696F6E3A200053657474696E67205072BB
:1005E000696E7420616E642054726176656C20417E
:1005F0006363656C65726174696F6E3A2000205A9E
:1006000000205900580020204D61783A2000205ADF
:1006100000205900580020204D696E3A20004F6E8E
:1006200020004F666600536F667420656E647374B5
:100630006F70733A2000000125272318FF1F211D2A
:100640001CFF19171B1EFFFF0C0409FFFFFF2E2CB8
:100650000CFFFF312F3004400AFF41FFFFFFFFFF77
:10066000FF20643A0020693A0020703A0020643A82
:100670000020693A0020703A0043290A0061626C48
:10068000656420286D696E2074656D702000436F6D
:100690006C6420657874727564657320617265207E
:1006A000004B64200023646566696E652020444524
:1006B0004641554C545F004B6920002364656669D0
:1006C0006E65202044454641554C545F004B7020D8
:1006D0000023646566696E65202044454641554C9B
:1006E000545F00504944204175746F74756E6520E5
:1006F00066696E697368656421205075742074683A
:1007000065206C617374204B702C204B6920616EE6
:1007100064204B6420636F6E7374616E7473206623
:10072000726F6D2062656C6F7720696E746F204305
:100730006F6E66696775726174696F6E2E680A0004
:10074000504944204175746F74756E652066616907
:100750006C6564212074696D656F75740A00544876
:1007600045524D414C2052554E4157415900546815
:1007700065726D616C2052756E61776179004865B4
:100780006174696E67206661696C656400486561C3
:1007900074696E67206661696C6564005049442025
:1007A0004175746F74756E65206661696C6564214E
:1007B0002054656D706572617475726520746F6F19
:1007C00020686967680A00204B643A2000204B6962
:1007D0003A2000204B703A20000A20436C6173736A
:1007E000696320504944200A002054753A200020B3
:1007F0004B753A2000206D61783A2000206D696EBB
:100800003A200020643A200020626961733A200097
:1008100043617365206C696768743A2000290A0097
:10082000466978656420706172616D6574657220D7
:1008300062797465733B2063726320004669786552
:100840006420706172616D6574657220280048567D
:100850005F7365745F6F6B0A00556E6B6E6F776EBA
:1008600020636F6D6D616E643A2022004C696E6585
:10087000204E756D626572206973206E6F74204C16
:10088000617374204C696E65204E756D6265722BC4
:10089000312C204C617374204C696E653A20004BFA
:1008A000494C4C45442E200053544F505045442E43
:1008B00020005072696E7465722073746F70706579
:1008C000642064756520746F206572726F72732E78
:1008D0002046697820746865206572726F722061A5
:1008E0006E6420757365204D39393920746F20721C
:1008F0006573746172742E202854656D7065726121
:10090000747572652069732072657365742E205347
:1009100065742069742061667465722072657374F1
:10092000617274696E67290A004E6F2043686563BF
:100930006B73756D2077697468206C696E65206EC5
:10094000756D6265722C204C617374204C696E6504
:100950003A2000636865636B73756D206D69736D14
:10096000617463682C204C617374204C696E653A25
:1009700020004D313130004D3331004731204631B8
:100980003030302059323130004732382058590049
:1009900053442072656164206572726F720A00446C
:1009A0006F6E65207072696E74696E672066696C1F
:1009B000650A0020496E76616C69642065787472FE
:1009C00075646572200047322F47332062616420CE
:1009D000706172616D65746572730A00200D4669FD
:1009E00078656420706172616D65746572206E62F5
:1009F000797465733B20637263206572726F722035
:100A000000200D0A466978656420706172616D6529
:100A10007465722062797465733B2063726320652C
:100A200072726F722000290A002062797465733B2C
:100A3000206372632000466978656420706172618A
:100A40006D65746572202800206861726477617238
:100A5000652076657273696F6E3A004B494C4C4560
:100A6000442E2000202D20496E76616C696420653B
:100A700078747275646572206E756D62657220217E
:100A80000A001FFFFFFFFFFFFF600000000001FFE3
:100A9000400000000000FF8000000000007F83CFC6
:100AA00000000C303F87FF80000C301F86798000EB
:100AB0000C000F8C30C7838C30E78C30CFC7CC3123
:100AC000F38C30DCECEC33B98C30D86C6C33198C93
:100AD00030D06C0C33198C30D86C0C33198C30DC62
:100AE0006C0E3B198C30CF7C079F198C30C77C0370
:100AF0008F194000000000000260000000000006A6
:100B00001FFFFFFFFFFFF82020506C616E6E6572C3
:100B100042756666657242797465733A20002046B4
:100B2000726565204D656D6F72793A2000436F6D77
:100B300070696C65643A204A616E2031352032302C
:100B400032300A00207C20417574686F723A202888
:100B50006E6F6E652C2064656661756C7420636FC2
:100B60006E666967290A00323031372D31322D32F5
:100B7000352031323A303000204C6173742055708A
:100B800064617465643A2000312E312E380A004DBC
:100B900061726C696E0020536F66747761726520B4
:100BA00052657365740A00205761746368646F67E7
:100BB0002052657365740A002042726F776E206F51
:100BC00075742052657365740A00204578746572E7
:100BD0006E616C2052657365740A00506F776572A0
:100BE00055700A0073746172740A006572726F72D4
:100BF0002077726974696E6720746F2066696C650E
:100C00000A00456E6473746F70732025632025633A
:100C100020256320256300205A3A0020593A0020FD
:100C2000583A00656E6473746F7073206869743A23
:100C3000200047323820580066696C616D656E741B
:100C4000206F75740A004D33322053256C752021B6
:100C50002573004D33322053256C7520212F2573C9
:100C60002F2573004730204631303030205A25750B
:100C70002E25750047323820590047323820580059
:100C80004D313036202053323535004D313039204A
:100C9000543020532575004D3139302053257500CF
:100CA000446F6E6520736176696E672066696C6556
:100CB0002E0A004D323900526573756D696E6720DA
:100CC0007072696E74005072696E7465722072651C
:100CD0006164792E00436C69636B20746F207265C8
:100CE00073756D652E2E2E00456E642066696C65E9
:100CF000206C6973740A00426567696E2066696CCE
:100D000065206C6973740A004D313235006F6B00D9
:100D100048656174696E6720646F6E652E002057A8
:100D20003A00452569202573005072696E7465721A
:100D30002072656164792E00205A3A0020593A00E9
:100D400020436F756E7420583A0020453A00205AAF
:100D50003A0020593A00583A003A004361703A008C
:100D60004572726F722077726974696E6720746F52
:100D700020454550524F4D210A00290A0020627932
:100D80007465733B20637263200053657474696EED
:100D900067732053746F72656420280024F4D43084
:100DA00050C38E20C2A24017828B7011127A910D0F
:100DB000816CD90AA861E108C758660761514306EA
:100DC0001E4B5D05C145A7041A411104093D980356
:100DD000713931034036DB0265339102D43054025D
:100DE000802E1D02632CEE01752AC501B028A001DA
:100DF000102781018F2564012B244B01E02234014F
:100E0000AC211F018D200D01801FFC00841EED0010
:100E1000971DDF00B81CD200E61BC600201BBC00DB
:100E2000641AB200B219A8000A19A0006A18990041
:100E3000D117910040178B00B516840031167E0043
:100E4000B31579003A157300C7146F0058146A007F
:100E5000EE1366008813630025135E00C7125B0063
:100E60006C12570015125400C111510070114F003F
:100E700021114B00D61049008D1047004610440048
:100E800002104200C00F4000800F3E00420F3C00A5
:100E9000060F3B00CB0E3800930E37005C0E35007A
:100EA000270E3400F30D3200C10D3100900D3000DB
:100EB000600D2E00320D2D00050D2C00D90C2B00DD
:100EC000AE0C2900850C29005C0C2700350C27008E
:100ED0000E0C2600E80B2400C40B2400A00B2300FA
:100EE0007D0B23005A0B2100390B2100180B200029
:100EF000F80A1F00D90A1E00BB0A1E009D0A1D0029
:100F0000800A1D00630A1C00470A1B002C0A1B00F4
:100F1000110A1A00F7091A00DD091900C40919009D
:100F2000AB091900920917007B0918006309170023
:100F30004C09160036091600200916000A0915008A
:100F4000F5081500E0081400CC081400B8081400D7
:100F5000A4081400900813007D0812006B08130009
:100F60005808120046081200340811002308110026
:100F70001208110001081100F0071000E00710002E
:100F8000D0071000C0071000B0070F00A107100025
:100F900091070E0083070F0074070F0065070E000E
:100FA00057070E0049070E003B070D002E070E00E5
:100FB00020070D0013070D0006070D00F9060C00B1
:100FC000ED060D00E0060C00D4060C00C8060C006F
:100FD000BC060C00B0060C00A4060B0099060C0021
:100FE0008D060B0082060B0077060B006C060B00CB
:100FF00061060A0057060B004C060A0042060A006A
:1010000038060A002E060A0024060A001A060A00FC
:101010001006090007060A00FD050900F40509008D
:10102000EB050900E2050900D9050900D005090012
:10103000C7050900BE050900B5050800AD05080093
:10104000A50509009C050800940508008C0508000A
:10105000840508007C050800740508006C0507007D
:10106000650508005D050700560508004E050700E8
:10107000470507004005080038050700310507004F
:101080002A050700230507001C05060016050700B2
:101090000F0507000805060002050700FB0406000F
:1010A000F5040700EE040600E8040600E204070069
:1010B000DB040600D5040600CF040600C9040600C0
:1010C000C3040600BD040600B7040600B104050011
:1010D000AC040600A6040600A00405009B0406005C
:1010E00095040500900406008A04050085040500A7
:1010F000800406007A0405007504050070040500EC
:101100006B04050066040500610405005C0405002D
:1011100057040500520405004D040500480405006D
:10112000430405003E0404003A04050035040500AC
:10113000300404002C0405002704040023040500E7
:101140001E0404001A04040016040500110404001F
:101150000D04040009040500040404000004040054
:10116000FC030400F8030400F4030400F00304008B
:10117000EC030400E8030400E4030400E0030400BB
:10118000DC030400D8030400D4030400D0030400EB
:10119000CC030400C8030300C503030024F404D9EE
:1011A000201BC40C5C0E9804C4095F026507710122
:1011B000F405F900FB04B30048048700C10369008B
:1011C0005803550003034500BE023A008402310073
:1011D00053022A002902250004022000E4011C0019
:1011E000C8011900AF011700980114008401130011
:1011F000710110006101100051010E0043010D004A
:1012000036010B002B010B0020010B00150109001A
:101210000C01090003010800FB000800F3000800AE
:10122000EB000700E4000600DE000600D800060020
:10123000D2000600CC000500C7000500C200050072
:10124000BD000400B9000400B5000400B1000400B2
:10125000AD000400A9000400A5000300A2000300E3
:101260009F0004009B00030098000300950002000B
:1012700093000300900003008D0002008B00030028
:101280008800020086000200840003008100020042
:101290007F0002007D0002007B0002007900020056
:1012A0007700010076000200740002007200010065
:1012B000710002006F0002006D0001006C0002006E
:1012C0006A00010069000200670001006600010079
:1012D000650001006400020062000100610001007D
:1012E000600001005F0002005D0001005C00010081
:1012F0005B0001005A000100590001005800010084
:101300005700010056000100550001005400010083
:101310005300000053000100520001005100010081
:10132000500001004F0001004E0000004E0001007F
:101330004D0001004C0001004B0000004B0001007B
:101340004A00010049000100480000004800010077
:101350004700010046000000460001004500000073
:10136000450001004400010043000000430001006B
:101370004200000042000100410000004100010065
:10138000400001003F0000003F0001003E0000005F
:101390003E0001003D0000003D0001003C00000057
:1013A0003C0000003C0001003B0000003B0001004D
:1013B0003A0000003A000100390000003900010045
:1013C000380000003800000038000100370000003D
:1013D0003700010036000000360000003600010032
:1013E0003500000035000000350001003400000029
:1013F000340000003400010033000000330000001E
:101400003300010032000000320000003200010011
:101410003100000031000000310001003000000008
:1014200030000000300001002F0000002F000000FD
:101430002F0000002F0001002E0000002E000000F1
:101440002E0001002D0000002D0000002D000000E6
:101450002D0001002C0000002C0000002C000000DA
:101460002C0001002B0000002B0000002B000000CE
:101470002B0001002A0000002A0000002A000000C2
:101480002A000100290000002900000029000000B6
:1014900029000000290001002800000028000000A9
:1014A000280000002800000028000100270000009C
:1014B000270000002700000027000000270001008F
:1014C0002600000026000000260000002600000084
:1014D0002600010025000000250000002500000076
:1014E0002500000025000000250001002400000068
:1014F000240000002400000024000000240001005B
:10150000230000002300000023000000230000004F
:10151000230000002300000023000100220000003F
:101520002200000022000000220000002200000033
:101530002200010021000000210000002100000025
:101540002100000021000000210000002100010016
:10155000200000002000000020000000200000000B
:1015600020000000200000002000000020000100FA
:101570001F0000001F0000001F0000001F000000EF
:101580001F0000001F0000001F0001001E000000DF
:101590001E0000001E0000001E0000004D38342018
:1015A000582059205A2045005A25752C45256C7520
:1015B0002C50256C752C5425752C4225752C00500B
:1015C00072696E7465722072656164792E00507262
:1015D000696E7465722072656164792E004572725D
:1015E0003A4E6F2046696C616D656E740062656489
:1015F0000A002C2073797374656D2073746F70709A
:10160000656421204865617465725F49443A200031
:1016100020204E6F7A7A6C653A20006368616E67AD
:1016200065006F66207468652066696C616D656E23
:1016300074005761697420666F72207374617274EC
:10164000005052494E5420504155534544002020EB
:101650004E6F7A7A6C653A2000200066696C616D85
:10166000656E7420756E6C6F6164005761697420DB
:10167000666F72005052494E5420504155534544B4
:101680000020204E6F7A7A6C653A20002000506C62
:101690006561736520776169742E2E2E004865613F
:1016A00074696E67206E6F7A7A6C65005052494E8D
:1016B00054205041555345440020204E6F7A7A6C97
:1016C000653A2000200068656174206E6F7A7A6C3C
:1016D000652E00507265737320627574746F6E208E
:1016E000746F005052494E542050415553454400A8
:1016F00020204E6F7A7A6C653A2000746F20636FF9
:101700006E74696E75652E2E2E00616E6420707287
:1017100065737320627574746F6E00496E736572C1
:10172000742066696C616D656E74005052494E5448
:10173000205041555345440020204E6F7A7A6C6505
:101740003A2000200066696C616D656E74206C6FD4
:101750006164005761697420666F72005052494E8F
:1017600054205041555345440020204E6F7A7A6CE6
:10177000653A2000200066696C616D656E742065B5
:10178000787472756465005761697420666F7200C1
:101790005052494E542050415553454400746F20D7
:1017A000726573756D65005761697420666F72208C
:1017B0007072696E74005052494E54205041555316
:1017C000454400496E697469616C697A65204545D4
:1017D00050524F4D00436F6E74726F6C00526573C0
:1017E000746F7265206661696C73616665004C6F29
:1017F00061642073657474696E677300496E6974FF
:1018000069616C697A6520454550524F4D005374AB
:101810006F72652073657474696E67730046696CD6
:10182000616D656E74004D6F74696F6E0054656D07
:101830007065726174757265004D61696E004D333B
:1018400030332055312045256920532569005072D9
:1018500065686561742041425320636F6E66005075
:1018600072656865617420504C4120636F6E66003C
:10187000504944204175746F74756E650050494439
:10188000204175746F74756E65005049442D440095
:101890005049442D44005049442D49005049442D9D
:1018A00049005049442D50005049442D5000200813
:1018B000204661637400200820466163740020089C
:1018C000204D6178002008204D6178002008204DCF
:1018D0006178002008204D696E002008204D696E57
:1018E000002008204D696E004F6666004F6E200094
:1018F0004175746F74656D700046616E207370651C
:1019000065640046616E20737065656400426564BD
:1019100000426564004E6F7A7A6C65004E6F7A7A89
:101920006C6500436F6E74726F6C0053746F7265F8
:101930002073657474696E67730042656400426564
:1019400064004E6F7A7A6C65004E6F7A7A6C65002F
:1019500046616E2073706565640046616E20737029
:101960006565640054656D706572617475726500BB
:10197000544845524D414C2052554E415741590013
:10198000546865726D616C2052756E617761790083
:1019900043616E6E6F74206F70656E207375626444
:1019A00069722000656E7175657565696E672022C4
:1019B000006563686F3A0020746F6F206C6F6E670C
:1019C00020657874727573696F6E207072657665C4
:1019D0006E7465640A0020636F6C642065787472AD
:1019E0007573696F6E2070726576656E7465640AD2
:1019F000004D36303020486F74656E6420746F6F10
:101A000020636F6C6420746F206368616E6765206B
:101A100066696C616D656E740A007C3C3E5E2B3DB0
:101A20003F2F5B5D3B2C2A225C0056652D6A657258
:101A30006B0056652D6A65726B0056652D6A65727E
:101A40006B00567A2D6A65726B00567A2D6A657244
:101A50006B0056792D6A65726B0056792D6A657236
:101A60006B0056792D6A65726B0056782D6A657227
:101A70006B0056782D6A65726B0056782D6A657218
:101A80006B004D6F74696F6E004573746570732FD2
:101A90006D6D004573746570732F6D6D005A7374AE
:101AA0006570732F6D6D005A73746570732F6D6D53
:101AB000005973746570732F6D6D00597374657080
:101AC000732F6D6D005873746570732F6D6D0058B2
:101AD00073746570732F6D6D004D6F74696F6E0058
:101AE00053746570732F6D6D004A65726B004163AE
:101AF00063656C65726174696F6E0056656C6F63C7
:101B000069747900436F6E74726F6C004F6E2000C1
:101B100052756E6F75742073656E736F7273004FBC
:101B200066660046696C2E204469612E0046696C29
:101B30002E204469612E004F6666004F6E200045DE
:101B400020696E206D6D3300436F6E74726F6C0090
:101B500043616E6E6F7420656E746572207375627A
:101B60006469723A2000022E2E004D61696E004DAC
:101B70003130342053257500473932204525750012
:101B8000473932205A25752E2575004D35303000E5
:101B900043616E63656C207072696E740052657388
:101BA000756D65207072696E7400506F7765722074
:101BB0006F75746167650025753A253032750025AB
:101BC0003032753A25303275002575642025303263
:101BD000753A25303275005A004D782025643B2532
:101BE00064252520004D785E25643B25642525204D
:101BF00000092000000000000000000000000000BC
:101C00007FFFE00000000000000000000000007006
:101C100000E000000000000000000000000061F88B
:101C20006000000000000000000000000041F820FB
:101C300000000000000000000000000040F0200054
:101C400000000000000000000000004060200000D4
:101C5000000000000000000000005801A07F80008C
:101C60000000000000004104005C63A0FFC0000011
:101C700000000000002082005EF7A0FFC00000000E
:101C8000000000002082005EF7A0FFC000000000FE
:101C90000000004104005C63A07F800000000000A1
:101CA00000008208005801A07F80000000000000B2
:101CB00001041000406020FFC0000000000000018F
:101CC00004100040F020FFC000000000000000826F
:101CD000080041F820FFC00000000000000041049F
:101CE0000061F8603F0000000000000000000000FC
:101CF0007000E01E0000000000000001FFFF807F78
:101D0000FFE00C0000000000000001FFFF80000069
:101D1000000000000000000000000000007FFFE065
:101D20000000000000000000000000007000E00063
:101D30000000000000000000000000630C600000D4
:101D400000000000000000000000470E200000001E
:101D50000000000000000000004F0F200000000005
:101D600000000000000000005F0FA0000000000065
:101D7000000000000000005E07A07F80000000005F
:101D8000000000410400406020FFC000000000008F
:101D9000000020820040F020FFC000000000000092
:101DA0000020820040F020FFC00000000000000082
:101DB0004104004060207F8000000000000000829D
:101DC00008005E07A07F80000000000000010410F2
:101DD000005F0FA0FFC00000000000000104100021
:101DE0004F0F20FFC00000000000000082080047E5
:101DF0000E20FFC000000000000000410400630C42
:101E0000603F00000000000000000000007000E0E3
:101E10001E0000000000000001FFFF807FFFE00CBB
:101E20000000000000000001FFFF8000000000062D
:101E30000900FE000000000001090008FE00000586
:101E4000080806000040F0C888889878100508083F
:101E5000060000C0F88888888888F805050506000F
:101E6000012030F830200508080600002070F82016
:101E7000202020E00509090600FF2070A8A8B888E6
:101E80008870200509090600FFE080C0B0A828304E
:101E900028280509090600FFF8A88888888888A8E6
:101EA000F8050A0A0600FE205050505088A8A8885D
:101EB0007003030306000340A0404D69783A2020D8
:101EC00020202533642525202533642525004772ED
:101ED000616469656E7400546F67676C65206D6935
:101EE00078002533643B2533642525004D6978004F
:101EF0004D61696E005072696E7420706175736512
:101F000064004D31323500002573004D32340050ED
:101F100072696E742061626F727465640047323852
:101F20002058590047393000473120463130303091
:101F3000205A323000473931004E6F20534420631D
:101F4000617264005072696E742066726F6D205306
:101F5000440053746F70207072696E740041626F38
:101F60007574205072696E74657200526573756D78
:101F700065207072696E74005061757365207072AF
:101F8000696E74004D6978657200436F6E74726F8C
:101F90006C00507265706172650054756E65004921
:101FA0006E666F2073637265656E0042616279735D
:101FB000746570205A004D3630302042300043683E
:101FC000616E67652066696C616D656E7400426163
:101FD000627973746570205A00466C6F7700466CA6
:101FE0006F770046616E2073706565640046616EB0
:101FF0002073706565640042656400426564004E4C
:102000006F7A7A6C65004E6F7A7A6C6500537065F2
:102010006564005370656564004D61696E004361DD
:1020200072642072656D6F7665640043617264202E
:10203000696E7365727465640000060900FE07012D
:10204000920321207FFF07FF07FF0000000600002A
:102050000107070602008080808080008003020262
:10206000060105A0A00507070600005050F850F82B
:1020700050500507070600002078A07028F02005C2
:102080000707060000C0C81020409818050707067B
:1020900000006090A040A89068020303060104C0FD
:1020A0004080030707060100204080808040200315
:1020B0000707060100804020202040800505050616
:1020C000000120A870A8200505050600012020F8C1
:1020D00020200203030602FFC04080050101060024
:1020E00003F8020202060200C0C005050506000151
:1020F000081020408005070706000070888888883F
:10210000887003070706010040C040404040E005DA
:102110000707060000708808708080F8050707062A
:102120000000F81020100808F0050707060000104E
:10213000305090F81010050707060000F880F008EE
:10214000088870050707060000708080F088887096
:10215000050707060000F8081020202020050707C3
:1021600006000070888870888870050707060000E0
:1021700070888878080870020505060200C0C00053
:10218000C0C00206060602FFC0C000C040800407AF
:1021900007060000102040804020100503030600C1
:1021A00002F800F8040707060100804020102040D4
:1021B000800507070600007088081020002005072A
:1021C0000706000070880868A8A8700507070600C1
:1021D00000708888F8888888050707060000F0885E
:1021E00088F08888F00507070600007088808080E6
:1021F0008870050707060000F08888888888F00541
:102200000707060000F88080F08080F805070706C1
:102210000000F88080F080808005070706000070CD
:102220008880B8888870050707060000888888F8C5
:10223000888888010707060200808080808080806F
:1022400005070706000038101010109060050707FA
:102250000600008890A0C0A090880507070600002F
:10226000808080808080F805070706000088D8A855
:10227000888888880507070600008888C8A8988885
:102280008805070706000070888888888870050719
:1022900007060000F08888F08080800507070600A8
:1022A0000070888888A89068050707060000F088F5
:1022B00088F0A090880507070600007880807008E5
:1022C00008F0050707060000F82020202020200540
:1022D0000707060000888888888888700507070631
:1022E0000000888888888850200507070600008835
:1022F00088888888A850050707060000888850202D
:10230000508888050707060000888888502020200C
:10231000050707060000F80810204080F8030707AB
:10232000060100E08080808080E005050506000150
:102330008040201008030707060100E0202020202D
:1023400020E0050303060004205088050101060073
:1023500000F802020206020580400505050600009D
:1023600070087888780507070600008080B0C88864
:1023700088F0050505060000708080887005070755
:10238000060000080868988888780505050600009A
:102390007088F880700507070600003048E040406C
:1023A00040400506060600FF70888878087005071B
:1023B000070600008080B0C88888880107070602E9
:1023C00000800080808080800308080601FF2000D4
:1023D00020202020A040040707060000808090A055
:1023E000C0A090030707060100C04040404040E005
:1023F000050505060000D0A8A8A8A8050505060043
:1024000000B0C8888888050505060000708888889F
:10241000700506060600FFF08888F0808005060635
:102420000600FF788888780808050505060000B0D2
:10243000C880808005050506000070807008F004E3
:1024400007070600004040E0404040300505050613
:102450000000888888986805050506000088888837
:1024600050200505050600008888A8A85005050528
:1024700006000088502050880506060600FF888860
:1024800088780870050505060000F8102040F8035C
:102490000707060100204040804040200107070652
:1024A0000200808080808080800307070601008012
:1024B0004040204040800502020600026890000073
:1024C0000006000000002100240027002A002D0043
:1024D0003000330001010000040107010A0100007F
:1024E0002200250028002B002E00310034000201BC
:1024F0000000050108010B01000020002300260058
:1025000029002C002F003200000100000301060109
:102510000901050505050705080808080202020269
:102520000A0A08080404040401010101010101016F
:102530000303030303030303040707070C0C0C0C3A
:102540000C0C0C0C02020202060606060606060623
:102550000B0B0B0B0B0B0B0B0102102020080810B0
:102560002040102040800201020108040201010203
:1025700004081020408080402010080402018004DC
:102580000201804020100804020108040201010237
:102590000408102040800102040810204080000040
:1025A0000A0B02090C0D0E080703040100000000CD
:1025B000000000000000000000000000000000001B
:1025C00000000000000000000000121110000000D8
:1025D00000000000000000000000000000000000FB
:1025E0000000000053442063617264206F6B0A0096
:1025F0006F70656E526F6F74206661696C65640AF6
:1026000000766F6C756D652E696E69742066616900
:102610006C65640A00534420696E697420666169C0
:102620006C0A006175746F25692E67004D323400A5
:102630004D32332025730057726974696E672074B8
:102640006F2066696C653A20006F70656E20666168
:10265000696C65642C2046696C653A20006F706572
:102660006E206661696C65642C2046696C653A2051
:102670000046696C652073656C65637465640A0067
:102680002053697A653A200046696C65206F706551
:102690006E65643A20006F70656E206661696C65D6
:1026A000642C2046696C653A20002066696C653AA6
:1026B0002000646F696E67006672657368004E6F14
:1026C000772000454E4420535542524F5554494EB1
:1026D000450A002220706F73002220706172656EBF
:1026E000743A2200535542524F5554494E452043A7
:1026F000414C4C207461726765743A22004B494C1E
:102700004C45442E2000747279696E6720746F20E6
:1027100063616C6C207375622D67636F64652066FE
:10272000696C6573207769746820746F6F206D61C0
:102730006E79206C6576656C732E204D4158206C47
:102740006576656C2069733A004572726F723A0063
:10275000526573656E643A20006F6B006275737921
:102760003A2070617573656420666F7220696E70BF
:1027700075740A00627573793A20706175736564C7
:1027800020666F7220757365720A00627573793AFC
:102790002070726F63657373696E670A004B494CF2
:1027A0004C45442E20004B494C4C206361757365A9
:1027B0006420627920746F6F206D75636820696E84
:1027C0006163746976652074696D65202D20637579
:1027D0007272656E7420636F6D6D616E643A200075
:1027E000506C656173652072657365740050524961
:1027F0004E5445522048414C544544005072696E35
:102800007465722068616C7465642E206B696C6CF1
:1028100028292063616C6C6564210A00000040C0B7
:102820000000A0C0000000000000C8420000C84234
:102830000000A041000000005761726E696E673AA7
:1028400020486F6D696E672042756D70204469760F
:1028500069736F72203C20310A000202040000A05C
:10286000400000A0400000004000007D4300007FC9
:102870004300007A43FFFFFF48656174696E67207B
:102880006661696C65640048656174696E6720669D
:1028900061696C65640048656174696E6720666192
:1028A000696C65640048656174696E67206661697A
:1028B0006C65640070012C0190012701B0012201B8
:1028C000C0011D01F00118011002130130020E01B8
:1028D0006002090190020401C002FF000003FA0037
:1028E0004003F5008003F000D003EB002004E60075
:1028F0007004E100E004DC004005D700C005D20010
:102900004006CD00D006C8008007C3003008BE00D6
:10291000F008B900C009B400B00AAF00B00BAA00BB
:10292000D00CA500000EA000500F9B00C010960018
:102930005012910000148C00C0158700B01782005F
:10294000B0197D00D01B7800001E730040206E007F
:1029500090226900F024640040275F0090295A000B
:10296000E02B5500102E500020304B001032460056
:10297000E033410090353C001037370070383200AA
:10298000A0392D00B03A2800A03B2300603C1E0077
:10299000103D1900903D1400103E0F00703E0A00DB
:1029A000C03E0500003F0000403FFBFF803FF6FFB8
:1029B000C03FF1FF4572723A204D494E54454D508B
:1029C00020424544004572723A204D494E54454DCF
:1029D00050004D494E54454D5020747269676765EB
:1029E000726564004572723A204D415854454D500D
:1029F00020424544004572723A204D415854454D9D
:102A000050004D415854454D5020747269676765B8
:102A100072656400202F002042403A0020403A00B6
:102A20005072656865617420504C4120456E6400A9
:102A30005072656865617420504C412042656400A5
:102A40005072656865617420504C41005072657029
:102A5000617265005072656865617420414253205F
:102A6000456E640050726568656174204142532070
:102A7000426564005072656865617420414253008C
:102A800050726570617265004E65787420636F7274
:102A90006E6572004261636B0050726568656174B7
:102AA00020504C4100436F6F6C646F776E00507222
:102AB000656865617420414253004368616E6765D3
:102AC0002066696C616D656E740044697361626C47
:102AD00065207374657070657273004D3834004CF6
:102AE0006576656C20636F726E65727300417574F4
:102AF0006F20686F6D6500473238004D6F76652036
:102B000061786973004D61696E0053442070726989
:102B10006E74696E67206279746520004E6F742050
:102B20005344207072696E74696E670A00486F6D55
:102B300065202573257325732066697273740020E0
:102B400066697273740A005A0059005800486F6D24
:102B500065200048617264636F6465642044656643
:102B600061756C742053657474696E6773204C6F63
:102B7000616465640A00B80B0000B80B0000320005
:102B80000000B80B000000009643000096430000D0
:102B9000A0410000C8419A99A0429A99A142000020
:102BA000C8430080C54320440020490020204D3305
:102BB000303420500020440020490020204D333084
:102BC000312050005049442073657474696E6773F6
:102BD0003A0A0020460020420020480020204D31C3
:102BE00034352053004D6174657269616C206865ED
:102BF0006174757020706172616D65746572733A8D
:102C00000A00204500205A00205900205800204288
:102C10000020540020204D3230352053004164768E
:102C2000616E6365643A20533C6D696E5F666565ED
:102C300064726174653E20543C6D696E5F747261AC
:102C400076656C5F66656564726174653E20423CC2
:102C50006D696E5F7365676D656E745F74696D65D0
:102C60005F75733E20583C6D61785F78795F6A6567
:102C7000726B3E205A3C6D61785F7A5F6A65726B59
:102C80003E20453C6D61785F655F6A65726B3E0A08
:102C90000020540020520020204D323034205000BB
:102CA000416363656C65726174696F6E2028756E2F
:102CB0006974732F7332293A20503C7072696E74B4
:102CC0005F616363656C3E20523C72657472616340
:102CD000745F616363656C3E20543C747261766519
:102CE0006C5F616363656C3E0A00204500205A00FA
:102CF00020590020204D3230312058004D61786934
:102D00006D756D20416363656C65726174696F6E8A
:102D10002028756E6974732F7332293A0A00204592
:102D200000205A0020590020204D32303320580016
:102D30004D6178696D756D20666565647261746555
:102D4000732028756E6974732F73293A0A00204521
:102D500000205A0020590020204D393220580053BD
:102D6000746570732070657220756E69743A0A001C
:102D700020204D3230302044300A0020204D3230A7
:102D8000302044002044697361626C65640A004627
:102D9000696C616D656E742073657474696E6773B8
:102DA0003A0020204D3134392043203B20556E69B4
:102DB000747320696E2043656C736975730A002013
:102DC00020473231202020203B20556E697473202B
:102DD000696E206D6D0A00290A5772697465206654
:102DE000696C65206E616D653A20002062797465BA
:102DF000733B206372632000506F7765726F666665
:102E00002053746F72656420280020213D200063E8
:102E10007263206572726F723A20000A7265616493
:102E20002066696C65206E616D653A2000290A7222
:102E30006561642066696C65206469723A200020CF
:102E400062797465733B206372632000706F7765ED
:102E5000726F66662073746F726564207365747434
:102E6000696E67732072657472696576656420287F
:102E700000202863616C63756C6174656429210AA4
:102E80000020213D2000454550524F4D20435243E4
:102E9000206D69736D61746368202D202873746FD1
:102EA000726564292000290A002062797465733BE9
:102EB0002063726320002073746F726564207365F1
:102EC0007474696E6773207265747269657665647F
:102ED000202800204D61726C696E3D5634303229D5
:102EE0000A0028454550524F4D3D00454550524F30
:102EF0004D2076657273696F6E206D69736D6174B4
:102F0000636820004D61782054656D703A2031323D
:102F100035004D696E2054656D703A20350054427D
:102F200065643A4550434F53203130304B004D617A
:102F3000782054656D703A20323635004D696E2028
:102F400054656D703A20350054303A204550434F57
:102F500053203130304B005053553A2047656E6551
:102F60007269630050726F746F636F6C3A20312E18
:102F70003000202020204857205665723A20560005
:102F80004657205665723A2056322E3100426175FE
:102F9000643A2032353030303000475432353630E4
:102FA0002056332E78004578747275646572733AD2
:102FB000203100687474703A2F2F6D61726C696EE5
:102FC00066772E6F7267005072696E746572003298
:102FD0003031372D31322D32352031323A30300018
:102FE000312E312E38004D61726C696E0054686567
:102FF000726D6973746F727300426F6172642049FD
:103000006E666F005072696E74657220496E666FED
:10301000004D61696E0020204E6F7A7A6C653A200F
:103020000020004261636B004D696E696D756D2013
:1030300054656D70206973203137302E004865610A
:1030400074696E67206661696C65640045787472A6
:10305000756465206D6F726500526573756D6520CE
:103060007072696E7400524553554D45204F50544F
:10307000494F4E533A005374617274205A3A2025D6
:1030800034642E2564206D6D002020456E64205A26
:103090003A202534642E2564206D6D00285A203C8A
:1030A0003D2025642E256429005374617274206DBF
:1030B00069783A20253364252520253364252500A9
:1030C000285A203E3D2025642E25642900202045D5
:1030D0006E64206D69783A202533642525202533D8
:1030E0006425250046756C6C206772616469656EA5
:1030F00074002533643B2533642525002020456E6C
:1031000064206D69783A002533643B2533642525B6
:10311000005374617274206D69783A00477261647B
:1031200069656E74002534642E2564206D6D002061
:1031300020456E64205A3A002534642E2564206DA3
:103140006D005374617274205A3A00477261646969
:10315000656E74206D6978004D697865720056540B
:10316000726176206D696E005654726176206D69C9
:103170006E005654726176206D696E00566D696EF0
:1031800000566D696E00566D696E00566D6178204F
:103190004500566D6178204500566D6178204500E8
:1031A000566D6178205A00566D6178205A00566D30
:1031B0006178205A00566D6178205900566D61780B
:1031C000205900566D6178205900566D617820585D
:1031D00000566D6178205800566D61782058004D7A
:1031E0006F74696F6E00416D6178204500416D61BB
:1031F00078204500416D6178205A00416D6178204A
:103200005A00416D6178205900416D617820590064
:10321000416D6178205800416D6178205800412D42
:1032200074726176656C00412D74726176656C0014
:10323000412D7265747261637400412D7265747200
:1032400061637400416363656C00416363656C0096
:103250004D6F74696F6E004D6F76652058004D6F2D
:1032600076652059004D6F7665205A004578747256
:1032700075646572004D6F766520302E316D6D007E
:103280004D6F766520316D6D004D6F766520313064
:103290006D6D004D6F7665206178697300486F74BD
:1032A000656E6420746F6F20636F6C640045787482
:1032B0007275646572004D6F7665205A004D6F76A9
:1032C000652059004D6F76652058004578747275F9
:1032D000646572004D6F7665205A004D6F766520EB
:1032E00059004D6F766520580050726570617265A7
:1032F0000000C600C80011241FBECFEFD1E2DEBF20
:10330000CDBF00E00CBF13E0A0E0B2E0EEE0F5E2DC
:1033100002E00BBF02C007900D92A23FB107D9F7A0
:1033200028E1A2EFB3E001C01D92AA33B207E1F792
:1033300019E1CAE7D9E100E006C021970109802F11
:10334000FE010F94DF11C937D10780E00807A9F704
:103350000E9494F90D9476120C9400002F923F92E3
:103360004F925F926F927F928F929F92AF92BF9295
:10337000CF92DF92EF92FF920F931F93CF93DF9341
:10338000CDB7DEB7C958D1090FB6F894DEBF0FBE6E
:10339000CDBF81E090E090938B1280938A12809150
:1033A000AD168D3409F4C4C0843511F40C94512F3A
:1033B000873411F00C949F2F2091AB163091AC16EE
:1033C00024303105C9F144F437FF02C00C94B92F01
:1033D0002230310544F520C02A35310509F49FC05B
:1033E00074F42B31310509F46EC02C31310511F024
:1033F0000C94B92F80E00E94FF470C94B92F2B3515
:10340000310509F490C02C35310511F00C94B92F19
:103410000E9497470C94B92F8091280281110C9437
:10342000C02F0C94B92F81E02230310509F080E0E3
:103430000E9407380C94B92F80E50E9457378823E3
:1034400029F00E94B5366B017C0103C0C12CD12C40
:10345000760183E50E945737882361F00E94F53694
:1034600020E030E04AE754E40F94260B0F9421103B
:103470006B017C010E94B75880913702811105C011
:1034800060E08DE392E00E94C6AE0E94F537809125
:10349000371790913817A0913917B0913A17C80E85
:1034A000D91EEA1EFB1E0E94C3B4DC01CB018C199D
:1034B0009D09AE09BF09B7FD02C00C94B92F80E089
:1034C0000E94B5C3F0CF0E94C6D281110C94B92FCF
:1034D00080E090E0A0E4B0E489839A83AB83BC836E
:1034E0008D839E83AF83B88780E090E0A0E2B1E453
:1034F00089879A87AB87BC8780E50E9457378823E6
:1035000019F00E94C53601C060E068A3BE016F5F7C
:103510007F4FCE0180960E945A8A0C94B92F109248
:10352000F6030C94B92F81E08093F6030C94B92F25
:103530008091AB169091AC168637910509F40DC7B2
:103540000CF0DBC08D34910509F494C40CF056C026
:103550008931910509F421C234F58431910509F4CA
:10356000DEC194F48131910509F4C6C144F4029797
:1035700010F00C94B92F0E94F8460C94B92F429782
:1035800009F472C60C94B92F8631910509F4CFC1A4
:103590000CF4C9C18731910509F4CFC1489709F4EA
:1035A000E2C10C94B92F8F31910509F479C37CF4F1
:1035B0008B31910509F403C20CF4F3C18C319105F0
:1035C00009F401C24E9709F408C20C94B92F8A324B
:1035D000910509F40BC42CF4809709F417C30C94DB
:1035E000B92F8B34910509F441C48C34910511F045
:1035F0000C94B92F0E94A1D30C94B92F8B3691054E
:1036000009F4A0C50CF04CC08535910509F430C60D
:103610007CF58235910509F41EC604F581359105C6
:1036200011F00C94B92F0E9454CB0E94B7580E94FD
:1036300048C3109299171092981768EE73E080E0D3
:1036400090E00E94B9AD0E94B7580E94C93560E071
:1036500087E393E00E94C6AE0C94B92F83359105A1
:1036600009F4FDC58435910509F4FEC50C94B92F04
:103670008836910509F402C44CF48C35910511F09B
:103680000C94B92F0E9479420C94B92F8936910578
:1036900009F407C58A36910509F42FC50C94B92F92
:1036A0008037910509F4C9C484F48D36910509F475
:1036B00004C50CF4BEC48E36910509F436C48F36A9
:1036C000910509F445C40C94B92F8237910509F48A
:1036D000EAC50CF4B6C48337910509F4EAC5853709
:1036E000910511F00C94B92F60E08091A91690918A
:1036F000AA160E94E4AE0C94B92F823E910511F4F3
:103700000C9458270CF070C0863A910511F40C9473
:103710001D2454F58C38910509F4BFC484F488370E
:10372000910509F4BDC60CF457C68937910509F413
:10373000BEC68D37910509F417C50C94B92F8B3986
:10374000910509F4B6C434F48139910509F4B5C67C
:103750000C94B92F833A910509F428C7843A91054E
:1037600009F48AC70C94B92F8C3C910511F40C9480
:10377000A8250CF5883C910511F40C94282534F407
:103780008E3B910509F49DC40C94B92F893C910599
:1037900011F40C9470258B3C910511F00C94B92F09
:1037A0004AEEE42E47E1F42E02EA12E054E0D52E70
:1037B000D00E0C949925833D910511F40C9481262B
:1037C0003CF48D3C910511F40C9414260C94B92F03
:1037D0008C3D910511F40C94FF268D3D910511F45B
:1037E0000C940E270C94B92F893921E0920711F41B
:1037F0000C945F2D0CF040C08F3241E0940711F41F
:103800000C942E29DCF48C32A1E09A0711F40C946C
:1038100095273CF48232914011F40C9487270C9444
:10382000B92F8D32F1E09F0711F40C94BE278E3230
:10383000914011F40C94DA280C94B92F833631E0BE
:10384000930711F40C94922E3CF48033914011F4C0
:103850000C945D280C94B92F8039A1E09A0711F4DB
:103860000C945C2D8839914011F00C94B92F81E0B3
:103870008093AE120C94B92F873FE1E09E0711F4BC
:103880000C94682DFCF4843F21E0920711F40C9411
:10389000622D4CF48A39914011F00C94B92F0E949A
:1038A00010410C94B92F853F51E0950711F40C9409
:1038B000652D863F914011F00C94B92F0E9477D965
:1038C0000C94B92F803AB3E09B0709F4DCC13CF4B7
:1038D0008835924011F40C94742D0C94B92F873EC6
:1038E00023E0920711F40C94D22E893D974011F4F5
:1038F0000C94E72E0C94B92F60E086E492E00E94CD
:10390000C6AE4298179815982E989FB7F894809154
:103910000B018D7F80930B019FBF0C94B92F0E94E8
:103920009D450C94B92F0E94D3BC0C94B92F1092D2
:10393000B00F1092B10F0C94B92FE091A916F0912D
:10394000AA168081882329F0803209F410823196EA
:10395000F8CF40E061E08091A9169091AA160E94EC
:103960008AB90C94B92F19821A821B821C8218A260
:1039700019A21AA21BA280918C12882341F040E068
:10398000BE016F5F7F4FCE0180960E946D920E94B4
:10399000167A0E9486D20C94B92F0E9491450C94FD
:1039A000B92F8091B10F882311F40C94B92F83E5BE
:1039B0000E94573781110C9492300C94B92F0E94B9
:1039C000BBD30C94B92F40E060E08091A916909190
:1039D000AA160E948AB90C94B92F8091B10F88233E
:1039E00011F40C94B92F8DEA91E10E9477518DEA80
:1039F00091E10E94388C1092AF0F1092AE0FE090C0
:103A0000A916F090AA168091B10F882311F40C9496
:103A1000B92F0E94D7771D8218861C821B8280EBEB
:103A200092E09A83898385EE9FE0909305108093BE
:103A30000410D7018C918F3209F067C06FE270E0FB
:103A4000C7010F9433128C010F5F1F4FFE01319697
:103A50004F010115110509F45EC06FE270E0C80165
:103A60000F9433126C01009709F456C00817190718
:103A700008F052C05C01A01AB10AA501B801CE013C
:103A800080960F945C12E0E2F0E0EC0FFD1FEA0D6F
:103A9000FB1D10828E01005E1F4FD8018D918D019C
:103AA000882319F00E940038F8CF8AE00E9400387D
:103AB00060910410709105106115710511F06C5F33
:103AC0007F4F21E0AE01405E5F4FCE0105960E9420
:103AD0004790811112C0BE01605E7F4F85E792E082
:103AE0000E94BBF68EE20E9400388AE00E940038F5
:103AF000C4010E9436C30C94B92F90920510809295
:103B0000041086010F5F1F4FA4CF86E090E19093D1
:103B100005108093041087016091041070910510C6
:103B20006115710511F06C5F7F4F18A21BA222E096
:103B3000A801CE0180960E944790811102C0F12C0D
:103B40001EC0CE0180960E9472738823C1F36CA5BB
:103B50007DA58EA59FA541E00E94C84F882379F3DB
:103B6000E8A9B0E2EB9FF0011124EB5BFC4E30972B
:103B700031F385EE80831BA20E94884FF82ECE0180
:103B800080960E94D237FF2019F1EFE4F2E0849191
:103B90007F012FEFE21AF20A882321F00E940038F9
:103BA000F701F5CFD8018D918D01882319F00E947E
:103BB0000038F8CF8AE00E9400381092E10F10928E
:103BC000E20F1092E30F1092E40F0E949D7618C04E
:103BD000EDE5F2E084917F01BFEFEB1AFB0A882349
:103BE00021F00E940038F701F5CFF80181918F0193
:103BF000882319F00E940038F8CF8EE20E94003826
:103C0000CE0101960E9436C30C94B92F8091B00F5B
:103C100081110E94B7588091B10F882311F40C9440
:103C2000B92F80E50E945737882319F00E94E636A5
:103C300003C080E50E942837182F482F61E080914B
:103C4000A9169091AA160E948AB983E50E94573757
:103C5000882381F00E94C536AB01BC014093E10F7F
:103C60005093E20F6093E30F7093E40F8DEA91E1BC
:103C70000E94B8510E94167A11110C94B92F0E941B
:103C800086D20C94B92F8091A9169091AA1621E0A2
:103C90002093AF0F40E060E00E948AB90C94B92FE6
:103CA0000E94E0793CE3C32ED12CE12CF12CA7013A
:103CB00096010F949C0E762E672ECA01B901A701BA
:103CC00096010F949C0E6B017C01CA01B90128E199
:103CD00030E040E050E00F949C0E4B015C01C901C4
:103CE0006DE671E00F949C118E010F5F1F4F6115FF
:103CF000710599F06F927F92DF92CF929F928F928F
:103D00009F938F937F936F9381EB92E09F938F9319
:103D10001F930F930F945A0A12C00097B1F06F923D
:103D20007F92DF92CF929F928F929F938F9381EA9F
:103D300092E09F938F931F930F930F945A0A0FB69D
:103D4000F894DEBF0FBECDBF36C081149104A1042C
:103D5000B10479F06F927F92DF92CF929F928F920F
:103D600085E992E09F938F931F930F930F945A0AC4
:103D7000E6CFC114D104E104F10469F06F927F929F
:103D8000DF92CF928DE892E09F938F931F930F93D2
:103D90000F945A0AD4CF6F927F9289E892E09F9352
:103DA0008F931F930F930F945A0A0F900F900F90B9
:103DB0000F900F900F9060E0C8010E94E4AEE1EB1D
:103DC000F9E184917F01BFEFEB1AFB0A882321F010
:103DD0000E940038F701F5CFB80185EC92E00E940F
:103DE000BBF68AE00E9400380C94B92F83E50E944C
:103DF0005737882311F40C94B92F0E94D536E82E3A
:103E000080E50E945737882341F00E94C5368B0118
:103E100077FF02C00C94B92F02C006E010E0902F8B
:103E2000E6E3F6E08BE28E0F2491921729F03196AB
:103E30008E13FACF0C94A230E9E4F7E284918F015B
:103E40000F5F1F4F882321F00E940038F801F6CF42
:103E5000E2EDF2E084918F010F5F1F4F882311F490
:103E60000C94B92F0E940038F801F4CF0E9486D23A
:103E70000C94B92F0E94E2770C94B92F88E690E059
:103E80000E94094081110C94B92F8091FB1283FF8D
:103E900002C00C94B92F83E50E945737882309F498
:103EA00040C00E94F5360F941C10709397176093D2
:103EB000961780E00E9409CB0E94F53620E030E0A2
:103EC0004AEA52E40F94C10A18163CF00E94E277C5
:103ED00060E088EE92E00E94C6AE0E94F536209126
:103EE00018133091191340911A1350911B130F940A
:103EF000FE101816B4F487E393E09F938F9380919C
:103F00004F1790E001969F938F9381EE92E09F93DD
:103F10008F931F920E946BD20FB6F894DEBF0FBE34
:103F2000CDBF0E94E3F60C94B92F8EE40E94573760
:103F3000882311F40C94B92F0E94C5366093411365
:103F40007093421380934313909344130C94B92FAE
:103F500083E50E942837882359F083E50E9457376C
:103F6000882319F00E94D53601C080E08093FB12AF
:103F7000E1EBF9E184918F010F5F1F4F882321F05E
:103F80000E940038F801F6CFE5E0F3E084918F015C
:103F90000F5F1F4F882321F00E940038F801F6CFF1
:103FA0008091FB128823A1F127EFC22E22E0D22EAE
:103FB000E12CF12C20E08091FB1290E00E2C02C04D
:103FC000959587950A94E2F780FF17C0BB24B394B8
:103FD000B20E222319F08CE20E940038F6012591DE
:103FE0003491F901849189010F5F1F4F882321F0DB
:103FF0000E9400389801F5CF2B2DFFEFEF1AFF0A32
:1040000032E0C30ED11C45E0E416F104A1F60CC069
:10401000E1E0F3E084918F010F5F1F4F882321F0CF
:104020000E940038F801F6CF8AE00E9400380C9414
:10403000B92F10927A020C94B92F8CE093E00E9471
:1040400051C383E50E945737882369F00E94D53613
:104050008D3320F4809395020C94B92F8CE38093D8
:1040600095020C94B92FE1EBF9E184918F010F5F78
:104070001F4F882321F00E940038F801F6CF4091AD
:10408000950250E060E070E085E193E00E944BF61D
:104090008AE00E9400380C94B92F0E9468430C9467
:1040A000B92F0E94754510928B1210928A120C94AF
:1040B00011340E9447450C94B92F0E9481430C94FF
:1040C000B92F8091FB1283FF02C00C94B92F60E0DE
:1040D0008AE293E00E94C6AE83E50E9457372D9690
:1040E0008FAF2D9781110C94B83082E50E9457371D
:1040F00081110C94B8300C94B92F80E50E94573789
:10410000811108C083E50E945737811109C03FEF34
:1041100020E00AC00E94D53681110C94B92FF2CF4D
:104120000E94C536362F272F832F922F8F3F910560
:1041300019F010F08FEF90E09093991780939817F3
:104140000C94B92F80E50E945737811106C0109258
:104150009917109298170C94B92F0E94C536672BA7
:1041600011F00C94B92FF3CF8CE40E9428378823E8
:1041700019F00E94F53604C060E070E080E090EC39
:104180006BAF7CAF8DAF9EAF80E090E0A0E4B0E479
:1041900089839A83AB83BC838D839E83AF83B887E7
:1041A00080E090E0A0E2B1E489879A87AB87BC8782
:1041B00088E50E945737882379F088E50E945737B1
:1041C000882319F00E94F53603C060E070E0CB014F
:1041D00069837A838B839C8389E50E945737882380
:1041E00079F089E50E945737882319F00E94F53647
:1041F00003C060E070E0CB016D837E838F8398877E
:104200008AE50E945737882379F08AE50E9457375C
:10421000882319F00E94F53603C060E070E0CB01FE
:1042200069877A878B879C8718A219A21AA21BA27A
:1042300080918C1281110C94B92F00E020E0AE0126
:10424000405E5F4FBE016F5F7F4FCE01CB960E94F5
:1042500090910C94B92F1092F5030C94B92F81E032
:104260008093F5030C94B92F0E9417430C94B92F37
:1042700083E50E942837882311F40C94B92F0E94FB
:10428000F53620E030E04AE754E40F94260B0F9413
:10429000211060933B1770933C1780933D179093C8
:1042A0003E170C94B92F0E94B7580E94B2410C944B
:1042B000B92FEBEFF3E084918F010F5F1F4F88233D
:1042C00021F00E940038F801F6CF60E08BEE93E019
:1042D0000E946F4161E084EE93E00E946F4161E0D3
:1042E00089ED93E00E946F4161E089EC93E00E94C8
:1042F0006F4160E080EC93E00E946F4161E086EBEB
:1043000093E00E946F4160E08CEA93E00E946F416D
:1043100060E084EA93E00E946F4160E086E993E008
:104320000E946F4160E088E893E00E946F4160E086
:1043300089E793E00E946F4161E08BE693E00E9481
:104340006F4161E085E593E00E946F4160E084E4A5
:1043500093E00E946F410C94B92F85E40E94573777
:10436000882319F00E94E63603C085E40E942837AE
:10437000882361F0E1EBF9E184918F010F5F1F4F1A
:10438000882321F00E940038F801F6CF81E40E94D2
:104390005737882319F00E94E63603C081E40E9453
:1043A0002837882361F0EEEBF4E084918F010F5FF2
:1043B0001F4F882321F00E940038F801F6CF0091AA
:1043C000A9161091AA16D8018D918D01882309F4A0
:1043D0002BCE0E940038F7CFEAEDF4E084918F01F4
:1043E0000F5F1F4F882321F00E940038F801F6CF9D
:1043F000E2EDF4E084918F010F5F1F4F882321F0DD
:104400000E940038F801F6CF029B03C000E213E0DF
:1044100002C005E213E0F80181918F01882319F0B1
:104420000E940038F8CF8AE00E940038EAECF4E0FD
:1044300084918F010F5F1F4F882321F00E94003865
:10444000F801F6CF069B03C000E213E002C005E2CC
:1044500013E0D8018D918D01882319F00E94003856
:10446000F8CF8AE00E940038E2ECF4E084918F01FA
:104470000F5F1F4F882321F00E940038F801F6CF0C
:10448000379B03C000E213E002C005E213E0F8012D
:1044900081918F01882309F4C7CD0E940038F7CF9E
:1044A00081E08093810F8093800F0C94B92F10923C
:1044B000810F1092800F0C94B92F83E50E9457371B
:1044C000882319F00E94C53602C060E070E08B01BD
:1044D000112702301105D4F0E9E4F7E284918F014D
:1044E0000F5F1F4F882321F00E940038F801F6CF9C
:1044F000E4EFF4E084918F010F5F1F4F882311F4E4
:104500000C94B92F0E940038F801F4CF88E40E947F
:1045100057378823A1F00E94C5366A3A710534F0F6
:104520006B3F71052CF06AEF70E002C06AEA70E040
:10453000F801EE0FFF1FEC5FF04F7183608386E49C
:104540000E9457378823A9F00E94C536F801EE0F64
:10455000FF1FE85FF04F718360836F3F710519F0B3
:1045600014F06FEF70E077FF02C060E070E07183DD
:10457000608382E40E945737882311F40C94B92F8A
:104580000E94C5366530710534F06F3671052CF028
:104590006EE670E002C065E070E0000F111FF801E8
:1045A000E050F14F718360830C94B92F83E50E9432
:1045B0005737882349F00E94C5368B016230710558
:1045C00014F00C94B92F02C000E010E080E50E94C6
:1045D0005737882341F10E94F5366B017C0120E0BA
:1045E00030E0A9010F94C10A87FD1DC02DEB37E310
:1045F00046E855EBC701B6010F94FE1087FD0AC0CF
:104600002DEB37E346E855E3C701B6010F94C10A25
:1046100018167CF4A701960160E070E080E89FE343
:104620000F94B40F09C0C12CD12C7601C701B6017B
:1046300003C060E070E0CB01F801EE0FFF1FEE0F4A
:10464000FF1FEE5EFA4F6083718382839383012B99
:1046500011F00C94B92F20E030E048EC52E4C7018F
:10466000B6010F94260B0F94211070E070937C1507
:1046700060937B150C94B92F83E50E9457378823EC
:1046800049F00E94C5368B016031710514F00C941D
:10469000B92F02C000E010E0C0901205D0901305C1
:1046A000E0901405F09015052DEB37E346E855EB47
:1046B000C701B6010F94FE1087FF09C0A70196013C
:1046C00060E070E080E89FE30F94B40F0DC02DEB25
:1046D00037E346E855E3C701B6010F94C10A18163F
:1046E0006CF360E070E0CB0120E030E0A9010F94B2
:1046F000D80E4B015C01C0901605D0901705E090D4
:104700001805F09019052DEB37E346E855EBC70186
:10471000B6010F94FE1087FF0BC0A701960160E061
:1047200070E080E89FE30F94B40F9B01AC010DC0D3
:104730002DEB37E346E855E3C701B6010F94C10AF4
:1047400018165CF320E030E0A901C501B4010F9414
:10475000D80E4B015C0120E030E040E85FE30F94AD
:10476000D70E6B017C012DEB37E346E855EB0F9438
:10477000FE1087FF03C0E6E1F5E00EC02DEB37E346
:1047800046E855E3C701B6010F94C10A18169CF319
:1047900032C00E940038F70184917F012FEFE21AA6
:1047A000F20A8111F6CFA501940160911205709172
:1047B000130580911405909115050F94260B6093B5
:1047C0001205709313058093140590931505A501A8
:1047D00094016091160570911705809118059091CC
:1047E00019050F94260B6093160570931705809397
:1047F000180590931905E3E0000F111FEA95E1F702
:10480000F801EA59FB4F8091120590911305A09190
:104810001405B091150580839183A283B3838091A1
:10482000160590911705A0911805B091190584837C
:104830009583A683B7830C94B92F83E50E9428370C
:10484000882321F00E94E636182F02C01091220220
:1048500081E40E945737882351F00E94F536609317
:1048600018027093190280931A0290931B028AE532
:104870000E945737882351F00E94F53660931C023E
:1048800070931D0280931E0290931F0280E50E9488
:104890005737882389F00E94C53677FD08C00E94EB
:1048A000C536653671052CF40E94C53603C060E03C
:1048B00001C064E66093200281E50E945737882397
:1048C00089F00E94C53677FD08C00E94C53665365E
:1048D00071052CF40E94C53603C060E001C064E697
:1048E00060932102F090200200912102F016A1F0C5
:1048F00020911C0230911D0240911E0250911F0216
:10490000609118027091190280911A0290911B0215
:104910000F94C10A811101C010E081E0809322024E
:104920008EE690E090937C1580937B15F0927D1538
:1049300000937E158091180290911902A0911A029D
:10494000B0911B0280937F1590938015A0938115E1
:10495000B093821580911C0290911D02A0911E02BD
:10496000B0911F028093831590938415A0938515B1
:10497000B0938615EEE6F5E084917F013FEFE31AF0
:10498000F30A882321F00E940038F701F5CF109335
:104990002202112309F44FC04091180250911902CC
:1049A00060911A0270911B0280E695E00E9485F6E4
:1049B00060912002062E000C770B8DE595E00E9499
:1049C000A2F68091200204E610E0B801681B71098C
:1049D00087FD73958AE595E00E94A2F640911C023E
:1049E00050911D0260911E0270911F0282E595E0B8
:1049F0000E9485F660912102062E000C770B8FE451
:104A000095E00E94A2F680912102B801681B71090D
:104A100087FD73958CE495E00E94A2F6E9E4F5E049
:104A200084918F010F5F1F4F882309F4FDCA0E94F4
:104A30000038F801F5CFEAE6F5E084918F010F5FC9
:104A40001F4F882309F4F0CA0E940038F801F5CFFF
:104A500088EC90E00E94094081110C94B92F84E405
:104A60000E9428378823C1F10E94F53611E020E02A
:104A700030E0A9010F94C10A811101C010E0109328
:104A8000B312112349F10E94F536E0914F1744E02B
:104A9000E49FF0011124E155FD4E60837183828310
:104AA000938320E030E0A9016091AF127091B012C1
:104AB0008091B1129091B2120F94C10A81110CC071
:104AC00080E090E0A0EEBFE38093AF129093B0122D
:104AD000A093B112B093B2120E94287A0C94B92F0D
:104AE0006AEFE62E67E1F62E02EA12E074E0D72EB6
:104AF000D00ED8018D918D010E942837882349F06E
:104B00000E94F5360F942110F70160837183828330
:104B10009383F4E0EF0EF11CD012EBCF0E9413F759
:104B20000C94B92FF4E0EF0EF11CD01611F40C9494
:104B3000B92FD8018D918D010E942837882391F3D8
:104B40000E94F536F7016083718382839383EACFF5
:104B500083E50E9428378823D9F00E94F536AB01FF
:104B6000BC0140931218509313186093141870935B
:104B7000151840930A1850930B1860930C187093F3
:104B80000D1886ED95E00E9485F68AE00E940038B7
:104B900080E50E942837882399F00E94F536AB0102
:104BA000BC0140931218509313186093141870931B
:104BB000151889EB95E00E9485F68AE00E9400387E
:104BC00082E50E942837882399F00E94F536AB01D0
:104BD000BC0140930E1850930F18609310187093F7
:104BE00011188AE995E00E9485F68AE00E94003853
:104BF00084E50E942837882311F40C94B92F0E9471
:104C0000F536AB01BC0140930A1850930B18609322
:104C10000C1870930D188CE795E00E9485F68AE0D9
:104C20000E9400380C94B92F83E50E94283788230E
:104C300051F00E94F5366093E6177093E717809362
:104C4000E8179093E91784E50E942837882351F0EC
:104C50000E94F5366093E2177093E3178093E41790
:104C60009093E51782E40E942837882351F00E9430
:104C7000B53660936F127093701280937112909397
:104C8000721288E50E942837882351F00E94F53679
:104C900060939E1270939F128093A0129093A11222
:104CA00089E50E942837882351F00E94F5366093E9
:104CB000A2127093A3128093A4129093A5128AE576
:104CC0000E942837882351F00E94F5366093A6127F
:104CD0007093A7128093A8129093A91285E40E9462
:104CE0002837882311F40C94B92F0E94F53660936D
:104CF000AA127093AB128093AC129093AD120C94E5
:104D0000B92FE1EBF9E184918F010F5F1F4F8823E9
:104D100021F00E940038F801F6CF83E50E94283781
:104D2000882321F00E94E6368093A102E6E2F6E0B5
:104D300084918F010F5F1F4F882321F00E9400385C
:104D4000F801F6CF8091A102811103C0E2E2F6E002
:104D500002C0EEE1F6E084918F010F5F1F4F8823C0
:104D600021F00E940038F801F6CFE6E1F6E08491E8
:104D70008F010F5F1F4F882321F00E940038F80138
:104D8000F6CF40E050E0BA0184E196E00E9485F65B
:104D900040E050E0BA0181E196E00E9485F640E0F3
:104DA00050E0BA018EE096E00E9485F6E6E0F6E07B
:104DB00084918F010F5F1F4F882321F00E940038DC
:104DC000F801F6CF40E050E06AE773E484E096E053
:104DD0000E9485F640E050E06AE773E481E096E0E7
:104DE0000E9485F640E050E06AE773E48EEF95E0BC
:104DF0000E9485F68AE00E9400380C94B92F83E562
:104E00000E945737882311F40C94B92F0E94C5369D
:104E100070938202609381020C94B92F8DED90E023
:104E20000E94094081110C94B92F83E50E945737E5
:104E3000882311F40C94B92F00914F1710E00E94B1
:104E4000C536000F111FF801E158FD4F71836083D3
:104E500080914F1790E08C01000F111F000F111F60
:104E6000980125583D4F7901880F991FFC01E158A1
:104E7000FD4F60817181072E000C880B990B0F94F8
:104E8000C70A2AE037ED43E25CE30F94260BF801F2
:104E9000E450FD4E20813181428153810F94260BD5
:104EA000D7016D937D938D939C9313970C94B92F99
:104EB00080E50E942837882311F40C94B92F0E94B2
:104EC000C5366B017C0183E50E945737882321F0AA
:104ED0000E94C5368B0102C00FEF1FEFC80101967B
:104EE000039710F00C94B92FD7FE02C00C94B92F81
:104EF0009C2DE6E3F6E08BE28E0F2491921711F4DD
:104F00000C94B92F31968E13F8CF0C94E8338AE5C0
:104F10000E94573781110C941A3283E50E9457374B
:104F200081110C941A320C94B92F83E50E945737E3
:104F3000882319F00E94C53602C064E071E079A3AD
:104F400068A380E50E945737882339F00E94C53650
:104F50006938B3E17B0730F402C068EE73E07A830E
:104F6000698304C088E893E19A838983BE01605E07
:104F70007F4FCE0101960E9438D2FBC785E40E9484
:104F80005737811110C080E50E942837882391F09F
:104F90000E94F5366093F30E7093F40E8093F50E35
:104FA0009093F60E07C00E94D536882361F3E9E49A
:104FB000F7E271C089E40E942837882381F00E94BB
:104FC000F5362CEA35EC47E25EE30F94260B60934E
:104FD000FB0E7093FC0E8093FD0E9093FE0E84E406
:104FE0000E942837882381F00E94F5362CEA35ECA0
:104FF00047E25EE30F94B40F6093F70E7093F80EE0
:105000008093F90E9093FA0EE1EBF9E184918F0110
:105010000F5F1F4F882321F00E940038F801F6CF60
:105020004091F30E5091F40E6091F50E7091F60ED2
:1050300089E696E00E9485F62CEA35EC47E25EE3CD
:105040006091FB0E7091FC0E8091FD0E9091FE0E12
:105050000F94B40FAB01BC0185E696E00E9468F6A0
:105060002CEA35EC47E25EE36091F70E7091F80EA2
:105070008091F90E9091FA0E0F94260BAB01BC01B2
:1050800081E696E00E9468F68AE00E94003871C7C7
:105090000E940038F80184918F010F5F1F4F81112A
:1050A000F7CF02E413E0F80181918F01882311F416
:1050B0000C9414200E940038F6CF80E50E94283717
:1050C000882351F00E94F5366093820E7093830E10
:1050D0008093840E9093850E89E40E94283788235C
:1050E00081F00E94F5362CEA35EC47E25EE30F943E
:1050F000260B60937E0E70937F0E8093800E9093AC
:10510000810E84E40E942837882381F00E94F536BE
:105110002CEA35EC47E25EE30F94B40F60937A0E0D
:1051200070937B0E80937C0E90937D0EE1EBF9E102
:1051300084918F010F5F1F4F882321F00E94003858
:10514000F801F6CF4091820E5091830E6091840E4B
:105150007091850E85E796E00E9485F62CEA35EC85
:1051600047E25EE360917E0E70917F0E8091800E2B
:105170009091810E0F94B40FAB01BC0181E796E0D2
:105180000E9468F62CEA35EC47E25EE360917A0E05
:1051900070917B0E80917C0E90917D0E0F94260B6A
:1051A000AB01BC018DE696E00E9468F68AE00E94A1
:1051B0000038DFC683E50E942837182F882371F056
:1051C0000E94F5360F941C1070938602609385023E
:1051D00021E0672B09F020E020931C1380E50E945A
:1051E0002837882359F02091850230918602232B9D
:1051F00011F00E94E63680931C13BBC61111B9C68C
:10520000E1EBF9E184918F010F5F1F4F882321F0BB
:105210000E940038F801F6CF80911C13811103C061
:105220006FE273E002C062E273E08EE896E00E94F3
:10523000BBF660918502709186028DE796E00E9430
:10524000A2F6E9E7F6E084918F010F5F1F4F8823F4
:1052500009F48FC60E940038F801F5CF85E40E945A
:105260005737882321F00E94C5367B0102C0E12C0C
:10527000F12C83E40E945737882331F00E94C53611
:10528000AC966FAFAC9704C045E0AC964FAFAC970F
:1052900085E50E945737882319F00E94E63603C03F
:1052A00085E50E942837E8968FAFE897F7FC07C09E
:1052B000812C912C86E1A82E83E4B82E06C0812C87
:1052C000912C0CE8A02E02E4B02E83E50E94573703
:1052D000882321F00E94F5364B015C01E114F104B2
:1052E00011F410924F172896EFAE28970E94C3B47E
:1052F0002B013C0128965FAD289757FD02C00CE3B7
:1053000001C004EB61E06E0D623028F413E5E12E7C
:1053100013E0F12E0CC006E613E0D8018D918D014B
:10532000882311F40C9414200E940038F6CFF70162
:1053300081917F01882319F00E940038F8CF8AE01C
:105340000E9400380E9454CB2896FFAD2897F7FFA3
:1053500004C08FE780934E170AC028962FAD289778
:10536000E22F220FFF0BE35BF84E8FE78083C5012E
:10537000B4010F941C10072E000C880B990B0F948E
:10538000C70A61966FAF619765967FAF659766961E
:105390008FAF669767969FAF6797A02F000FBB0BE5
:1053A00028EE33E00F94E711EC966CAF7DAF8EAF33
:1053B0009FAFEC97DC01CB01840D951DA61DB71D99
:1053C000CC57DF4F88839983AA83BB83C458D040CE
:1053D00081E080937A02E3964CAE5DAE6EAE7FAE16
:1053E000E397C458DF4F488259826A827B82CC5748
:1053F000D040AF961FAEAF97C058DF4F18821982CA
:105400001A821B82C058D040A2961FAEA29790E489
:10541000A3969FAFA397ACE1A496AFAFA497B6E4D1
:10542000A596BFAFA597A6961FAEA697A7961FAE47
:10543000A797A8961FAEA897A9961FAEA997A19661
:105440001CAE1DAE1EAE1FAEA1976D961CAE1DAE5E
:105450001EAE1FAE6D97C12CD12C7601AFE78A2E00
:10546000912CA12CB12C2FE730E040E050E0609669
:105470002CAF3DAF4EAF5FAF6097E7961CAE1DAE51
:105480001EAE1FAEE79731E0AE963FAFAE9769967E
:105490001FAE1EAE699710E0212C312C00E028963B
:1054A0004FAD2897842F440F990BDC01A35BB84EB6
:1054B000C857DF4FB983A883C858D040880F991FB9
:1054C000880F991FFC01E85EFC4EAB96FFAFEEAF74
:1054D000AB97AC962FADAC97022E000C330BAD966C
:1054E0003FAF2EAFAD9780917A02882309F422C195
:1054F0000E94C3B42C966CAF7DAF8EAF9FAF2C973C
:1055000080914B17882309F4F1C00E9413CC289690
:105510003FAD289737FF09C01091DE122090DF12AF
:105520003090E0120091E1120DC0AB96AEADBFAD70
:10553000AB971C9111962C90119712963C90129754
:1055400013960C91212F322D432D502FA6966FAD1F
:10555000A697A7967FADA797A8968FADA897A9966F
:105560009FADA9970F94C10A87FF0CC0A6961FAFE5
:10557000A697A7962FAEA797A8963FAEA897A996ED
:105580000FAFA997212F322D432D502FA2966FAD2B
:10559000A297A3967FADA397A4968FADA497A59647
:1055A0009FADA5970F94FE10181664F4A2961FAF36
:1055B000A297A3962FAEA397A4963FAEA497A596C5
:1055C0000FAFA597AE96BFADAE9761962FAD619721
:1055D00065963FAD659766964FAD669767965FADEA
:1055E0006797612F722D832D902FBB2309F462C022
:1055F0000F94FE1018160CF079C02C964CAD5DADD2
:105600006EAD7FAD2C974419550966097709DB010A
:10561000CA0188589341A109B109B7FD67C06096D6
:105620008CAD9DADAEADBFAD609788199909AA0943
:10563000BB092896EFAD2897B595A79597958795BF
:10564000E7FF03C080934E1707C0C857DF4FE881BC
:10565000F981C858D0408083E7964CAF5DAF6EAFFC
:105660007FAFE7976196FFAD6197A696FFAFA697CC
:1056700065962FAD6597A7962FAFA79766963FAD16
:105680006697A8963FAFA89767964FAD6797A9967C
:105690004FAFA9972C968CAD9DADAEADBFAD2C97FD
:1056A000E3968CAF9DAFAEAFBFAFE397AE961FAEA4
:1056B000AE971CC00F94C10A87FF18C02C968CAD02
:1056C0009DADAEADBFAD2C97E3962CAD3DAD4EADCF
:1056D0005FADE397821B930BA40BB50BAC01BD012F
:1056E000485853416109710977FFDDC620E030E079
:1056F00040EA51E461966FAD619765967FAD65971D
:1057000066968FAD669767969FAD67970F94D80E94
:105710009B01AC01612F722D832D902F0F94FE10F1
:1057200018167CF4ECE9F7E084918F010F5F1F4FAE
:10573000811103C00E9454CB1CC40E940038F801A0
:10574000F3CF2C968CAD9DADAEADBFAD2C97C458AC
:10575000DF4F288139814A815B81CC57D040821B41
:10576000930BA40BB50BB7FDB9C00E9487C88AE0A4
:105770000E9400382C968CAD9DADAEADBFAD2C9780
:105780008053984FAF4FBF4FC458DF4F88839983E2
:10579000AA83BB83CC57D040AF969FADAF979111F2
:1057A00078C0C058DF4F288139814A815B81C05859
:1057B000D040612F722D832D902F0F94FE1018165C
:1057C0000CF04EC020E030E040EC50E461966FAD4C
:1057D000619765967FAD659766968FAD669767967C
:1057E0009FAD67970F94D70E9B01AC01A1E0AF96D8
:1057F000AFAFAF97612F722D832D902F0F94FE10B6
:1058000018161CF0AF961FAEAF9720E030E040E0D6
:1058100050E4612F722D832D902F0F94D80EC05815
:10582000DF4F688379838A839B83C058D0402C964E
:105830002CAD3DAD4EAD5FAD2C97EC968CAD9DADD6
:10584000AEADBFADEC97280F391F4A1F5B1FCC5779
:10585000DF4F288339834A835B83C458D0403EC0DE
:105860002C968CAD9DADAEADBFAD2C97CC57DF4F18
:10587000288139814A815B81C458D040821B930BB7
:10588000A40BB50BB7FD2AC04EE757E06DE877E0F3
:1058900020C020E030E040EA51E461966FAD6197AE
:1058A00065967FAD659766968FAD669767969FAD57
:1058B00067970F94D70E9B01AC01612F722D832D3A
:1058C000902F0F94C10A87FF09C04EE557E06EE69E
:1058D00077E028968FAD28970E94FA572C968CADCA
:1058E0009DADAEADBFAD2C97880F991FAA1FBB1FF2
:1058F000E3962CAD3DAD4EAD5FADE397821B930BB0
:10590000A40BB50B84199509A609B70981389F44E2
:10591000A241B10568F0E0E4F7E084918F010F5FE8
:105920001F4F882309F406CF0E940038F801F5CFF5
:1059300069964EAD5FAD6997AD968EAD9FADAD9753
:10594000841795070CF0B5C0E3EEF6E084918F0163
:105950000F5F1F4F882321F00E940038F801F6CF17
:1059600028969FAD289797FD03C00BED13E002C06A
:1059700003E313E0B80181ED96E00E94BBF6B701A6
:10598000A6018DEC96E00E9485F68AE00E94003820
:10599000B8018BEB96E00E94BBF66D964CAD5DAD09
:1059A0006EAD7FAD6D9787EB96E00E9485F68AE03D
:1059B0000E940038B80185EA96E00E94BBF6A196E5
:1059C0004CAD5DAD6EAD7FADA19781EA96E00E94D2
:1059D00085F68AE00E940038E896AFADE897AA23E2
:1059E00009F4C7C22896BFAD2897B7FF31C0C0924F
:1059F000820ED092830EE092840EF092850E2CEAF5
:105A000035EC47E25EE36D966CAD7DAD8EAD9FAD3E
:105A10006D970F94260B60937E0E70937F0E80938C
:105A2000800E9093810E2CEA35EC47E25EE3A1965E
:105A30006CAD7DAD8EAD9FADA1970F94B40F60930B
:105A40007A0E70937B0E80937C0E90937D0E91C2A4
:105A5000C092F30ED092F40EE092F50EF092F60E94
:105A60002CEA35EC47E25EE36D966CAD7DAD8EAD14
:105A70009FAD6D970F94260B6093FB0E7093FC0EF9
:105A80008093FD0E9093FE0E2CEA35EC47E25EE328
:105A9000A1966CAD7DAD8EAD9FADA1970F94B40F67
:105AA0006093F70E7093F80E8093F90E9093FA0EB0
:105AB00060C20E94F4AE17CD0E94B7585AC210922D
:105AC000AE1257C20E94674A54C20E94A5DA51C260
:105AD00083E50E942837882321F00E94E63691E072
