:100000000C94D5180C9406190C9406190C94061926
:100010000C9406190C9406190C9406190C940619E4
:100020000C9406190C9406190C9406190C940619D4
:100030000C9406190C9406190C9406190C940619C4
:100040000C9406190C940C8A0C9406190C9406193D
:100050000C9406190C9406190C94EAAE0C94C395F2
:100060000C9406190C94B1370C9406190C940619CB
:100070000C9406190C9406190C9406190C94061984
:100080000C942E930C9406190C9406190C940619D2
:100090000C9406190C9406190C9406190C94061964
:1000A0000C9406190C9406190C9400930C940619E0
:1000B0000C9406190C9406190C9406190C94D292FF
:1000C0000C9406190C9406190C9406190C94061934
:1000D0000C9406190C9406190C9406190C94061924
:1000E0000C940619A981B281BC81C581CE81E981B8
:1000F000F681FF81D781E081A293A5939493989391
:100100009E93DC93A993AD93B393B793BB93C193A1
:10011000C593C993DC93CF93D393D793DF94E4949F
:10012000E994F394FD94769507950F95179521958D
:100130002B95359544954E957695589562956C9589
:10014000084AD73B3BCE016E84BCBFFDC12F3D6C3E
:1001500074319ABD56833DDA3D00C77F11BED9E4A4
:10016000BB4C3E916BAAAABE000000803F05A84C84
:10017000CDB2D44EB93836A9020C50B99186880850
:100180003CA6AAAA2ABE000000803F000D949E0251
:100190000D94EF000D94F4000D94C7000D94D10060
:1001A0000D943E180D94F9000D94CC000D94990215
:1001B0000D9434010D94A3020D94061D0D94D600E8
:1001C0004E414E494E495459494E46CDCCCC3D0A3C
:1001D000D7233C17B7D13877CC2B329595E6241F1F
:1001E000B14F0A000020410000C84200401C4620D8
:1001F000BCBE4CCA1B0E5AAEC59D7454454D502012
:10020000544F4F204C4F57210047322F4733206225
:10021000616420706172616D65746572730A00209B
:100220005A3A200020593A200042656420583A206A
:1002300000526573756D696E67207072696E740027
:100240005072696E7465722072656164792E004324
:100250006C69636B20746F20726573756D652E2EEB
:100260002E004E6F206D6F76652E0046696C6520FE
:1002700064656C657465643A0044656C6574696FA7
:100280006E206661696C65642C2046696C653A2055
:10029000006F70656E206661696C65642C2046692C
:1002A0006C653A20002569730025696D2025697306
:1002B000002569682025696D20256973002569641A
:1002C000202569682025696D2025697300256979D5
:1002D00020256964202569682025696D20256973BA
:1002E000005072696E742074696D653A20004B4944
:1002F0004C4C45442E200042656420646F6E652E90
:100300000020573A004265642048656174696E6751
:100310002E002F2F20007A5F6D696E3A2000795FE2
:100320006D696E3A2000785F6D696E3A2000526503
:10033000706F7274696E6720656E6473746F70207D
:100340007374617475730A004D31343520533C6900
:100350006E6465783E206F7574206F662072616EE2
:1003600067652028302D31290A0053657474696E41
:10037000672054726176656C20416363656C6572B9
:100380006174696F6E3A200053657474696E6720FA
:100390005265747261637420416363656C65726158
:1003A00074696F6E3A200053657474696E672050EB
:1003B00072696E7420416363656C65726174696F04
:1003C0006E3A200053657474696E67205072696ECE
:1003D0007420616E642054726176656C20416363A1
:1003E000656C65726174696F6E3A2000205A002056
:1003F0005900580020204D61783A2000205A0020F2
:100400005900580020204D696E3A20004F6E2000A0
:100410004F666600536F667420656E6473746F7008
:10042000733A2000000125272318FF1F211D1CFF00
:1004300019171B1EFFFF0C0409FFFFFF2E2C0CFFDA
:10044000FF04400AFF41FFFFFFFFFFFF206F7574AD
:10045000206F662072616E67650A00536572766F61
:1004600020003A200020536572766F200020643A05
:100470000020693A0020703A0020643A0020693A6E
:100480000020703A0043290A0061626C65642028EC
:100490006D696E2074656D702000436F6C6420651B
:1004A000787472756465732061726520004B6420F6
:1004B0000023646566696E65202044454641554CBD
:1004C000545F004B69200023646566696E652020D7
:1004D00044454641554C545F004B702000236465F1
:1004E00066696E65202044454641554C545F005076
:1004F0004944204175746F74756E652066696E6934
:1005000073686564212050757420746865206C617F
:100510007374204B702C204B6920616E64204B64F7
:1005200020636F6E7374616E74732066726F6D20DA
:1005300062656C6F7720696E746F20436F6E6669B9
:100540006775726174696F6E2E680A0050494420A5
:100550004175746F74756E65206661696C656421A0
:100560002074696D656F75740A00544845524D4199
:100570004C2052554E4157415900546865726D6187
:100580006C2052756E617761790048656174696E9F
:1005900067206661696C65640048656174696E67AF
:1005A000206661696C656400504944204175746F30
:1005B00074756E65206661696C6564212054656D93
:1005C000706572617475726520746F6F20686967F9
:1005D000680A00204B643A2000204B693A20002032
:1005E0004B703A20000A20436C617373696320509A
:1005F0004944200A002054753A2000204B753A20C7
:1006000000206D61783A2000206D696E3A2000204C
:10061000643A200020626961733A20004F66660ADE
:10062000004661646520486569676874200042651A
:1006300064204C6576656C696E6720004661696C64
:10064000656420746F20656E61626C65204265642C
:10065000204C6576656C696E670A004D657368208D
:10066000706F696E742063616E6E6F7420626520B6
:100670007265736F6C7665640A004D34323120699F
:100680006E636F727265637420706172616D657400
:1006900065722075736167650A003A2000207A5FF1
:1006A0006D696E3A20202D3230207A5F6D61783A84
:1006B000202032300A0050726F6265205A204F6647
:1006C000667365740043617365206C696768743A8A
:1006D000200041637469766520457874727564659D
:1006E000723A2000556E6B6E6F776E20636F6D6D82
:1006F000616E643A2022004D6573682056616C6912
:10070000646174696F6E2053746F707065642E003D
:10071000696E206D6F76655F746F28292066656548
:10072000645F76616C756520666F722058593A0077
:100730004C656176696E6720473236004732362055
:1007400048656174696E67204E6F7A7A6C652E0019
:100750004732362048656174696E67204265642EB1
:1007600000446F6E65205072696D696E6700446F5A
:100770006E65205072696D696E67004669786564C0
:10078000204C656E677468205072696D652E005547
:100790007365722D436F6E74726F6C6C656420505C
:1007A00072696D65002C2065793D0029202D3E2061
:1007B0002865783D002C2073793D0020436F6E6ED4
:1007C000656374696E6720776974682076657274F2
:1007D0006963616C206C696E65202873783D002C1C
:1007E0002065793D0029202D3E202865783D002C8C
:1007F0002073793D0020436F6E6E656374696E6788
:10080000207769746820686F72697A6F6E74616CA2
:10081000206C696E65202873783D004C65617669AF
:100820006E6720473236002C2079693D0020202059
:10083000446F696E6720636972636C652061743A06
:10084000202878693D003F53706563696669656477
:1008500020582C5920636F6F7264696E6174652033
:100860006F7574206F6620626F756E64732E0A0058
:100870003F28522965706561742076616C7565202A
:100880006E6F7420706C61757369626C653B206D6E
:10089000757374206265206174206C6561737420C7
:1008A000312E0A003F537065636966696564206E86
:1008B0006F7A7A6C652074656D706572617475729B
:1008C00065206E6F7420706C61757369626C652E43
:1008D0000A003F5370656369666965642066696CE8
:1008E000616D656E742073697A65206E6F74207017
:1008F0006C61757369626C652E0A003F53706563A5
:100900006966696564207072696D65206C656E67E3
:100910007468206E6F7420706C61757369626C65A9
:100920002E0A003F537065636966696564206E6FC7
:100930007A7A6C652073697A65206E6F7420706CAA
:1009400061757369626C652E0A003F537065636957
:10095000666965642052657472616374696F6E20A4
:100960004D756C7469706C696572206E6F7420705F
:100970006C61757369626C652E0A003F5265747212
:10098000616374696F6E204D756C7469706C696514
:1009900072206D757374206265207370656369667B
:1009A0006965642E0A003F53706563696669656412
:1009B000206C6179657220686569676874206E6F64
:1009C0007420706C61757369626C652E0A003F5308
:1009D0007065636966696564206265642074656D2D
:1009E0007065726174757265206E6F7420706C61D1
:1009F000757369626C652E0A0047323620636F6D2D
:100A00006D616E6420737461727465642E20576129
:100A10006974696E6720666F7220686561746572BB
:100A20002873292E0A00200D4669786564207061BC
:100A300072616D65746572206E62797465733B20B6
:100A4000637263206572726F722000200D0A46691E
:100A500078656420706172616D6574657220627979
:100A60007465733B20637263206572726F7220003D
:100A7000290A002062797465733B20637263200049
:100A8000466978656420706172616D657465722075
:100A900028002068617264776172652076657273E0
:100AA000696F6E3A004B494C4C45442E2000202D76
:100AB00020496E76616C696420657874727564652E
:100AC00072206E756D62657220210A002D2D2D2D0C
:100AD0002D2D007C4D61726C696E7C002D2D2D2DAD
:100AE0002D2D00687474703A2F2F6D61726C696ED1
:100AF00066772E6F726700687474703A2F2F6D617D
:100B0000726C696E66772E6F72670020312E312EFF
:100B100038002020506C616E6E65724275666665A5
:100B20007242797465733A20002046726565204DE3
:100B3000656D6F72793A2000436F6D70696C656402
:100B40003A204A616E20313620323032300A00209D
:100B50007C20417574686F723A20286E6F6E652C28
:100B60002064656661756C7420636F6E66696729C1
:100B70000A00323031372D31322D32352031323AC0
:100B8000303000204C61737420557064617465646A
:100B90003A2000312E312E380A004D61726C696E98
:100BA0000020536F667477617265205265736574B7
:100BB0000A00205761746368646F6720526573652B
:100BC000740A002042726F776E206F757420526530
:100BD0007365740A002045787465726E616C2052EA
:100BE000657365740A00506F77657255700A0073FB
:100BF000746172740A006572726F72207772697420
:100C0000696E6720746F2066696C650A00456E64C2
:100C100073746F707320256320256320256320255E
:100C20006300205A3A0020593A0020583A00656E75
:100C30006473746F7073206869743A2000473238A7
:100C400020580066696C616D656E74206F75740A5A
:100C5000004D33322053256C7520212573004D3310
:100C6000322053256C7520212F25732F25730047C3
:100C700030204631303030205A25752E25750047FA
:100C800032382059004732382058004D3130362054
:100C90002053323535004D31303920543020532522
:100CA00075004D3139302053257500446F6E652035
:100CB000736176696E672066696C652E0A004D3235
:100CC00039004368616E67652066696C616D656EA9
:100CD00074004261627973746570205A00466C6FCB
:100CE0007700466C6F770046616E207370656564AF
:100CF0000046616E20737065656400426564004261
:100D00006564004E6F7A7A6C65004E6F7A7A6C6516
:100D1000005370656564005370656564004D6169DA
:100D20006E005072656865617420504C4120456EBC
:100D300064005072656865617420504C41204265C2
:100D400064005072656865617420504C41005072B7
:100D5000657061726500507265686561742041421A
:100D60005320456E6400507265686561742041428D
:100D70005320426564005072656865617420414289
:100D8000530050726570617265004261636B004E82
:100D900065787420636F726E6572004D3238302052
:100DA0005030205331363000424C546F7563682008
:100DB00053656C662D54657374004D323830205085
:100DC00030205331323000507265686561742041C3
:100DD0004253005072656865617420504C41004375
:100DE0006F6F6C646F776E00526573657420424C50
:100DF000546F756368004368616E67652066696C4F
:100E0000616D656E740044697361626C6520737412
:100E1000657070657273004D3834004C6576656C92
:100E200020636F726E65727300426564204C657654
:100E3000656C696E67004732380A47323900417580
:100E4000746F20686F6D6500473238004D6F7665AE
:100E50002061786973004D61696E00473238205A0D
:100E600020466F7262696464656E0A0047323820FA
:100E70005A20466F7262696464656E0020706F73F9
:100E80006974696F6E206F7574206F662072616E71
:100E900067652E0A003F50726F626520002028446B
:100EA000525952554E2900473239204175746F20EE
:100EB000426564204C6576656C696E67002842293E
:100EC00061636B00284629726F6E7400285229698D
:100ED00067687400284C29656674003F28562965A8
:100EE00072626F7365206C6576656C20697320692A
:100EF0006D706C61757369626C652028302D3429C2
:100F00002E0A00426164205A2076616C75650A00E1
:100F10004E6F2062696C696E6561722067726964E8
:100F20000A004D65736820706F696E742063616E8E
:100F30006E6F74206265207265736F6C7665640AEB
:100F400000456E642066696C65206C6973740A00E4
:100F5000426567696E2066696C65206C6973740A06
:100F6000004D3132350050726F74656374656420D2
:100F700050696E0A00434F4D4D554E494341544907
:100F80004F4E0044525952554E004552524F525303
:100F900000494E464F004543484F006F6E2E0A00F1
:100FA0006F66662E0A0047323620446562756720F8
:100FB00000452569202573005072696E74657220A2
:100FC00072656164792E006F6B0048656174696EAB
:100FD0006720646F6E652E0020573A004525692012
:100FE0002573005072696E74657220726561647950
:100FF0002E00960F910F8A0F830F750F6F66660094
:1010000044454255473A004D313133205300507228
:10101000696E746572204F66662E00205A3A002071
:10102000593A0020436F756E7420583A0020453AB3
:1010300000205A3A0020593A00583A003A004361D9
:10104000703A00454D455247454E43595F50415215
:1010500053455200434153455F4C494748545F4212
:1010600052494748544E45535300544F47474C4507
:101070005F4C494748545300534F465457415245DB
:101080005F504F574552004255494C445F504552BE
:1010900043454E54004C4556454C494E475F4441EC
:1010A0005441005A5F50524F4245004155544F4CF5
:1010B0004556454C005052494E545F4A4F420050ED
:1010C000524F4752455353004155544F5245504F8C
:1010D00052545F54454D5000564F4C554D45545257
:1010E000494300454550524F4D0053455249414CEC
:1010F0005F584F4E5F584F4646004649524D574144
:1011000052455F4E414D453A4D61726C696E2031DA
:101110002E312E3820284769746875622920534F74
:10112000555243455F434F44455F55524C3A6874AE
:101130007470733A2F2F6769746875622E636F6DD0
:101140002F4D61726C696E4669726D776172652FA1
:101150004D61726C696E2050524F544F434F4C5F3B
:1011600056455253494F4E3A312E30204D41434857
:10117000494E455F545950453A5072696E746572D4
:101180002045585452554445525F434F554E543AAA
:101190003120555549443A63656465326132662DA4
:1011A000343161322D343734382D396231322D6388
:1011B00035356336326633363766660A00290A00EB
:1011C000466978656420706172616D65746572202E
:1011D00062797465733B20637263200046697865A9
:1011E0006420706172616D657465722028004856D4
:1011F0005F7365745F6F6B0A00496E697469616C37
:10120000697A6520454550524F4D00436F6E7472A8
:101210006F6C00526573746F7265206661696C73E0
:10122000616665004C6F61642073657474696E67F4
:101230007300496E697469616C697A65204545502F
:10124000524F4D0053746F72652073657474696EEC
:10125000677300424C546F7563680046696C616D3A
:10126000656E74004D6F74696F6E0054656D7065C6
:10127000726174757265004D61696E004D33303373
:101280002055312045256920532569005072656835
:101290006561742041425320636F6E660050726531
:1012A0006865617420504C4120636F6E6600504940
:1012B00044204175746F74756E6500504944204137
:1012C00075746F74756E65005049442D4400504923
:1012D000442D44005049442D49005049442D4900B3
:1012E0005049442D50005049442D500020022046C2
:1012F0006163740020022046616374002002204D67
:101300006178002002204D6178002002204D617834
:10131000002002204D696E002002204D696E0020E1
:1013200002204D696E004F6666004F6E20004175C9
:10133000746F74656D700046616E207370656564CE
:101340000046616E2073706565640042656400420A
:101350006564004E6F7A7A6C65004E6F7A7A6C65C0
:1013600000436F6E74726F6C0053746F72652073FC
:10137000657474696E677300426564004265640059
:101380004E6F7A7A6C65004E6F7A7A6C65004661B2
:101390006E2073706565640046616E2073706565CC
:1013A000640054656D706572617475726500457294
:1013B000726F722077726974696E6720746F20454E
:1013C0004550524F4D210A00290A00206279746568
:1013D000733B20637263200053657474696E677396
:1013E0002053746F726564202800446F776E0A0082
:1013F000290A57726974652066696C65206E616D93
:101400006520416D69743A20002062797465733BF0
:10141000206372632000506F7765726F6666205399
:10142000746F726564202800446F776E00486172A3
:1014300064636F6465642044656661756C742053F1
:10144000657474696E6773204C6F616465640A002B
:10145000B80B0000B80B000032000000B80B000011
:1014600000009643000096430000A0410000C841E0
:101470009A99A0429A99A0420000C8430000BA423B
:1014800020204D383531205A005A2D50726F626538
:10149000204F666673657420286D6D293A0A002016
:1014A000440020490020204D333034205000204497
:1014B0000020490020204D33303120500050494455
:1014C0002073657474696E67733A0A0020460020C1
:1014D000420020480020204D3134352053004D611A
:1014E00074657269616C20686561747570207061E3
:1014F00072616D65746572733A0A00205A0020208B
:101500004D3432302053004175746F2042656420A1
:101510004C6576656C696E673A0A00204500205A72
:101520000020590020580020420020540020204D67
:10153000323035205300416476616E6365643A2031
:10154000533C6D696E5F66656564726174653E20CB
:10155000543C6D696E5F74726176656C5F6665653B
:1015600064726174653E20423C6D696E5F736567AD
:101570006D656E745F74696D655F75733E20583C70
:101580006D61785F78795F6A65726B3E205A3C6D59
:1015900061785F7A5F6A65726B3E20453C6D617869
:1015A0005F655F6A65726B3E0A002054002052003E
:1015B00020204D323034205000416363656C6572E9
:1015C0006174696F6E2028756E6974732F73322988
:1015D0003A20503C7072696E745F616363656C3E63
:1015E00020523C726574726163745F616363656C01
:1015F0003E20543C74726176656C5F616363656C18
:101600003E0A00204500205A0020590020204D327B
:1016100030312058004D6178696D756D20416363EC
:10162000656C65726174696F6E2028756E6974737C
:101630002F7332293A0A00204500205A0020590011
:1016400020204D3230332058004D6178696D756D22
:10165000206665656472617465732028756E6974AF
:10166000732F73293A0A00204500205A00205900A0
:1016700020204D39322058005374657073207065F6
:101680007220756E69743A0A0020204D3230302085
:1016900044300A0020204D3230302044002044697C
:1016A0007361626C65640A0046696C616D656E7495
:1016B0002073657474696E67733A0020204D31346D
:1016C000392043203B20556E69747320696E204396
:1016D000656C736975730A00202047323120202021
:1016E000203B20556E69747320696E206D6D0A0071
:1016F0005053553A2047656E657269630050726FAA
:10170000746F636F6C3A20312E3000202020204807
:1017100057205665723A2056004657205665723A51
:101720002056322E3100426175643A203235303015
:101730003030004754323536302056332E78004250
:10174000696C696E656172204C6576656C696E675F
:10175000004578747275646572733A20310068745C
:1017600074703A2F2F6D61726C696E66772E6F728E
:1017700067005072696E74657200323031372D31F6
:10178000322D32352031323A303000312E312E3880
:10179000004D61726C696E00546865726D69737496
:1017A0006F727300426F61726420496E666F005001
:1017B00072696E74657220496E666F004D61696E64
:1017C0000020204E6F7A7A6C653A20004261636B8C
:1017D000004D696E696D756D2054656D702069737B
:1017E000203137302E0048656174696E672066616C
:1017F000696C65640045787472756465206D6F72FC
:101800006500526573756D65207072696E74005263
:101810004553554D45204F5054494F4E533A0020A3
:10182000204E6F7A7A6C653A20006368616E676556
:10183000006F66207468652066696C616D656E7402
:10184000005761697420666F72207374617274004E
:101850005052494E54205041555345440020204E8B
:101860006F7A7A6C653A200066696C616D656E749A
:1018700020756E6C6F6164005761697420666F72C9
:10188000005052494E5420504155534544002020A9
:101890004E6F7A7A6C653A2000506C6561736520F2
:1018A000776169742E2E2E0048656174696E672019
:1018B0006E6F7A7A6C65005052494E5420504155F3
:1018C0005345440020204E6F7A7A6C653A200068B8
:1018D000656174206E6F7A7A6C652E005072657344
:1018E0007320627574746F6E20746F005052494E8D
:1018F00054205041555345440020204E6F7A7A6C55
:10190000653A2000746F20636F6E74696E75652E82
:101910002E2E00616E642070726573732062757480
:10192000746F6E00496E736572742066696C616DC8
:10193000656E74005052494E5420504155534544F1
:101940000020204E6F7A7A6C653A200066696C61DF
:101950006D656E74206C6F616400576169742066F8
:101960006F72005052494E54205041555345440027
:1019700020204E6F7A7A6C653A200066696C616D42
:10198000656E74206578747275646500576169745A
:1019900020666F72005052494E54205041555345B5
:1019A0004400746F20726573756D650057616974CA
:1019B00020666F72207072696E74005052494E54E6
:1019C000205041555345440050726F62696E672044
:1019D0006661696C65640A0050726F62696E6720A7
:1019E0006661696C656400205A3A200020593A20EB
:1019F0000042656420583A20005344207072696E9A
:101A000074696E67206279746520004E6F7420538C
:101A100044207072696E74696E670A00486F6D6564
:101A20002025732573257320666972737400206600
:101A3000697273740A005A0059005800486F6D6546
:101A4000200053442063617264206F6B0A006F7042
:101A5000656E526F6F74206661696C65640A00760A
:101A60006F6C756D652E696E6974206661696C6551
:101A7000640A00534420696E6974206661696C0AC7
:101A80000024F4D43050C38E20C2A24017828B7041
:101A900011127A910D816CD90AA861E108C75866C4
:101AA00007615143061E4B5D05C145A7041A41114C
:101AB00004093D9803713931034036DB02653391E7
:101AC00002D4305402802E1D02632CEE01752AC50B
:101AD00001B028A001102781018F2564012B244B20
:101AE00001E0223401AC211F018D200D01801FFC7B
:101AF00000841EED00971DDF00B81CD200E61BC657
:101B000000201BBC00641AB200B219A8000A19A078
:101B1000006A189900D117910040178B00B5168400
:101B20000031167E00B31579003A157300C7146FA3
:101B30000058146A00EE1366008813630025135ED4
:101B400000C7125B006C12570015125400C11151EE
:101B50000070114F0021114B00D61049008D104725
:101B6000004610440002104200C00F4000800F3EAB
:101B700000420F3C00060F3B00CB0E3800930E379F
:101B8000005C0E3500270E3400F30D3200C10D311C
:101B900000900D3000600D2E00320D2D00050D2C33
:101BA00000D90C2B00AE0C2900850C29005C0C27F9
:101BB00000350C27000E0C2600E80B2400C40B2473
:101BC00000A00B23007D0B23005A0B2100390B21B1
:101BD00000180B2000F80A1F00D90A1E00BB0A1EBD
:101BE000009D0A1D00800A1D00630A1C00470A1B95
:101BF000002C0A1B00110A1A00F7091A00DD091946
:101C000000C4091900AB091900920917007B0918D3
:101C100000630917004C0916003609160020091642
:101C2000000A091500F5081500E0081400CC081496
:101C300000B8081400A4081400900813007D0812CE
:101C4000006B0813005808120046081200340811EF
:101C500000230811001208110001081100F00710FC
:101C600000E0071000D0071000C0071000B0070FF9
:101C700000A107100091070E0083070F0074070FE3
:101C80000065070E0057070E0049070E003B070DC1
:101C9000002E070E0020070D0013070D0006070D8C
:101CA00000F9060C00ED060D00E0060C00D4060C51
:101CB00000C8060C00BC060C00B0060C00A4060B05
:101CC0000099060C008D060B0082060B0077060BB0
:101CD000006C060B0061060A0057060B004C060A52
:101CE0000042060A0038060A002E060A0024060AE8
:101CF000001A060A001006090007060A00FD050979
:101D000000F4050900EB050900E2050900D9050901
:101D100000D0050900C7050900BE050900B5050882
:101D200000AD050800A50509009C050800940508FC
:101D3000008C050800840508007C0508007405086F
:101D4000006C050700650508005D050700560508DD
:101D5000004E050700470507004005080038050745
:101D600000310507002A050700230507001C0506AA
:101D700000160507000F0507000805060002050705
:101D800000FB040600F5040700EE040600E8040664
:101D900000E2040700DB040600D5040600CF0406B9
:101DA00000C9040600C3040600BD040600B704060B
:101DB00000B1040500AC040600A6040600A004055A
:101DC000009B04060095040500900406008A0405A3
:101DD0000085040500800406007A040500750405EA
:101DE00000700405006B040500660405006104052D
:101DF000005C04050057040500520405004D04056D
:101E00000048040500430405003E0404003A0405AC
:101E10000035040500300404002C040500270404E8
:101E200000230405001E0404001A0404001604051F
:101E300000110404000D0404000904050004040456
:101E40000000040400FC030400F8030400F403048D
:101E500000F0030400EC030400E8030400E40304BE
:101E600000E0030400DC030400D8030400D40304EE
:101E700000D0030400CC030400C8030300C503031F
:101E80000024F404D9201BC40C5C0E9804C4095F20
:101E90000265077101F405F900FB04B300480487EB
:101EA00000C10369005803550003034500BE023A10
:101EB000008402310053022A002902250004022076
:101EC00000E4011C00C8011900AF011700980114BB
:101ED0000084011300710110006101100051010E16
:101EE0000043010D0036010B002B010B0020010BFC
:101EF00000150109000C01090003010800FB00089E
:101F000000F3000800EB000700E4000600DE000616
:101F100000D8000600D2000600CC000500C700056E
:101F200000C2000500BD000400B9000400B50004B3
:101F300000B1000400AD000400A9000400A50003E6
:101F400000A20003009F0004009B00030098000310
:101F5000009500020093000300900003008D000232
:101F6000008B00030088000200860002008400034A
:101F700000810002007F0002007D0002007B000261
:101F80000079000200770001007600020074000270
:101F90000072000100710002006F0002006D00017C
:101FA000006C0002006A0001006900020067000185
:101FB000006600010065000100640002006200018B
:101FC0000061000100600001005F0002005D00018F
:101FD000005C0001005B0001005A00010059000193
:101FE0000058000100570001005600010055000193
:101FF0000054000100530000005300010052000192
:102000000051000100500001004F0001004E00008F
:10201000004E0001004D0001004C0001004B00008B
:10202000004B0001004A0001004900010048000087
:102030000048000100470001004600000046000182
:10204000004500000045000100440001004300007D
:102050000043000100420000004200010041000076
:102060000041000100400001003F0000003F00016E
:10207000003E0000003E0001003D0000003D000168
:10208000003C0000003C0000003C0001003B000060
:10209000003B0001003A0000003A00010039000056
:1020A000003900010038000000380000003800014D
:1020B0000037000000370001003600000036000045
:1020C0000036000100350000003500000035000139
:1020D0000034000000340000003400010033000030
:1020E0000033000000330001003200000032000025
:1020F0000032000100310000003100000031000119
:10210000003000000030000000300001002F00000F
:10211000002F0000002F0000002F0001002E000003
:10212000002E0000002E0001002D0000002D0000F8
:10213000002D0000002D0001002C0000002C0000EC
:10214000002C0000002C0001002B0000002B0000E0
:10215000002B0000002B0001002A0000002A0000D4
:10216000002A0000002A00010029000000290000C8
:1021700000290000002900000029000100280000BB
:1021800000280000002800000028000000280001AE
:1021900000270000002700000027000000270000A3
:1021A0000027000100260000002600000026000095
:1021B0000026000000260001002500000025000088
:1021C000002500000025000000250000002500017A
:1021D000002400000024000000240000002400006F
:1021E0000024000100230000002300000023000061
:1021F0000023000000230000002300000023000152
:102200000022000000220000002200000022000046
:102210000022000000220001002100000021000037
:10222000002100000021000000210000002100002A
:10223000002100010020000000200000002000001C
:10224000002000000020000000200000002000000E
:1022500000200001001F0000001F0000001F000000
:10226000001F0000001F0000001F0000001F0001F1
:10227000001E0000001E0000001E0000001E0000E6
:10228000004D383420582059205A2045005A2575D1
:102290002C45256C752C50256C752C5425752C42BD
:1022A00025752C005072696E7465722072656164C8
:1022B000792E005072696E7465722072656164795E
:1022C0002E004572723A4E6F2046696C616D656EE4
:1022D000740000002100240027002A002D00300097
:1022E000330001010000040107010A01000022007F
:1022F000250028002B002E003100340002010000D0
:10230000050108010B010000200023002600290020
:102310002C002F003200000100000301060109011A
:1023200005050505070508080808020202020A0A51
:10233000080804040404010101010101010103036F
:10234000030303030303040707070C0C0C0C0C0C1A
:102350000C0C0202020206060606060606060B0B17
:102360000B0B0B0B0B0B0102102020080810204058
:102370001020408002010201080402010102040849
:1023800010204080804020100804020180040201D7
:102390008040201008040201080402010102040820
:1023A00010204080010204081020408000000A0B29
:1023B00002090C0D0E0807030401000000000000D4
:1023C000000000000000000000000000000000000D
:1023D00000000000000000001211100000000000CA
:1023E00000000000000000000000000000000000ED
:1023F00000004573746570732F6D6D0045737465CF
:1024000070732F6D6D005A73746570732F6D6D004E
:102410005A73746570732F6D6D00597374657073A2
:102420002F6D6D005973746570732F6D6D00587347
:10243000746570732F6D6D005873746570732F6DB4
:102440006D004D6F74696F6E0053746570732F6DFE
:102450006D004A65726B00416363656C65726174FF
:10246000696F6E0056656C6F63697479005A204F0E
:102470006666736574005A204F6666736574004320
:102480006F6E74726F6C004F6E200052756E6F75B8
:10249000742073656E736F7273004F6666004669D1
:1024A0006C2E204469612E0046696C2E20446961BF
:1024B0002E004F6666004F6E20004520696E206D2D
:1024C0006D3300436F6E74726F6C0043616E6E6F9C
:1024D0007420656E746572207375626469723A2047
:1024E00000052E2E004D61696E004D617820546507
:1024F0006D703A20313235004D696E2054656D7033
:102500003A203500544265643A4550434F532031D8
:1025100030304B004D61782054656D703A20323672
:1025200035004D696E2054656D703A203500543089
:102530003A204550434F53203130304B00526573A1
:10254000656E643A20006F6B0020746F6F206C6FB3
:102550006E6720657874727573696F6E207072652E
:1025600076656E7465640A0020636F6C642065781C
:1025700074727573696F6E2070726576656E7465BE
:10258000640A00627573793A20706175736564201E
:10259000666F7220696E7075740A00627573793A9D
:1025A0002070617573656420666F72207573657243
:1025B0000A00627573793A2070726F63657373698C
:1025C0006E670A004B494C4C45442E20004B494C49
:1025D0004C2063617573656420627920746F6F208D
:1025E0006D75636820696E616374697665207469CE
:1025F0006D65202D2063757272656E7420636F6D3A
:102600006D616E643A200070012C0190012701B0C9
:10261000012201C0011D01F0011801100213013057
:10262000020E016002090190020401C002FF0000D5
:1026300003FA004003F5008003F000D003EB002014
:1026400004E6007004E100E004DC004005D700C0AF
:1026500005D2004006CD00D006C8008007C3003078
:1026600008BE00F008B900C009B400B00AAF00B05D
:102670000BAA00D00CA500000EA000500F9B00C0BC
:102680001096005012910000148C00C0158700B005
:10269000178200B0197D00D01B7800001E73004027
:1026A000206E0090226900F024640040275F0090B3
:1026B000295A00E02B5500102E500020304B0010FE
:1026C000324600E033410090353C0010373700704F
:1026D000383200A0392D00B03A2800A03B2300601A
:1026E0003C1E00103D1900903D1400103E0F00707C
:1026F0003E0A00C03E0500003F0000403FFBFF8057
:102700003FF6FFC03FF1FF4572723A204D494E54EB
:10271000454D5020424544004572723A204D494E85
:1027200054454D50004D494E54454D5020747269EA
:10273000676765726564004572723A204D4158546E
:10274000454D5020424544004572723A204D415853
:1027500054454D50004D415854454D5020747269B8
:1027600067676572656400202F002042403A0020B0
:10277000403A00001C1F11111F0000000619180329
:10278000130C00040E1F041C000000001010101099
:10279000101000001414141414140000151515154D
:1027A000151500000E1315110E00001C101817054A
:1027B000060500040A0A0A0A11110E0C12120C0076
:1027C000000000001F1511151F000000000000018F
:1027D0000204040000001C1C0C040404020100009C
:1027E000000000040810000000000043616E6E6FDE
:1027F00074206F70656E2073756264697220006565
:102800006E7175657565696E672022006563686F16
:102810003A00544845524D414C2052554E41574183
:102820005900546865726D616C2052756E617761F4
:102830007900436172642072656D6F766564004350
:1028400061726420696E736572746564007C3C3EDD
:102850005E2B3D3F2F5B5D3B2C2A225C0061757433
:102860006F25692E67004D3234004D3233202573B9
:102870000057726974696E6720746F2066696C65B1
:102880003A20006F70656E206661696C65642C206B
:1028900046696C653A20006F70656E206661696CF0
:1028A00065642C2046696C653A200046696C652099
:1028B00073656C65637465640A002053697A653AD0
:1028C000200046696C65206F70656E65643A200073
:1028D0006F70656E206661696C65642C2046696C5A
:1028E000653A20002066696C653A2000646F696E65
:1028F00067006672657368004E6F772000454E442E
:1029000020535542524F5554494E450A00222070DB
:102910006F73002220706172656E743A2200535505
:1029200042524F5554494E452043414C4C2074610E
:10293000726765743A22004B494C4C45442E200086
:10294000747279696E6720746F2063616C6C207398
:1029500075622D67636F64652066696C65732077A7
:1029600069746820746F6F206D616E79206C657674
:10297000656C732E204D4158206C6576656C20691E
:10298000733A004572726F723A0020746F6F206C58
:102990006F6E6720657874727573696F6E207072E0
:1029A0006576656E7465640A0020636F6C642065EB
:1029B0007874727573696F6E2070726576656E7467
:1029C00065640A004C696E65204E756D6265722003
:1029D0006973206E6F74204C617374204C696E654E
:1029E000204E756D6265722B312C204C6173742002
:1029F0004C696E653A20004B494C4C45442E2000F2
:102A000053544F505045442E20005072696E7465E7
:102A1000722073746F707065642064756520746FC4
:102A2000206572726F72732E204669782074686513
:102A3000206572726F7220616E6420757365204D1F
:102A400039393920746F20726573746172742E2065
:102A50002854656D706572617475726520697320A4
:102A600072657365742E20536574206974206166E5
:102A70007465722072657374617274696E67290A75
:102A8000004E6F20436865636B73756D20776974C2
:102A900068206C696E65206E756D6265722C204CC5
:102AA000617374204C696E653A2000636865636BDE
:102AB00073756D206D69736D617463682C204C6152
:102AC0007374204C696E653A20004D313130004DF1
:102AD00033310047312046313030302058302059D2
:102AE0003231300047323820585900534420726543
:102AF0006164206572726F720A00446F6E652070A7
:102B000072696E74696E672066696C650A00565456
:102B1000726176206D696E005654726176206D691F
:102B20006E005654726176206D696E00566D696E46
:102B300000566D696E00566D696E00566D617820A5
:102B40004500566D6178204500566D61782045003E
:102B5000566D6178205A00566D6178205A00566D86
:102B60006178205A00566D6178205900566D617861
:102B7000205900566D6178205900566D61782058B3
:102B800000566D6178205800566D61782058004DD0
:102B90006F74696F6E00416D6178204500416D6111
:102BA00078204500416D6178205A00416D617820A0
:102BB0005A00416D6178205900416D6178205900BB
:102BC000416D6178205800416D6178205800412D99
:102BD00074726176656C00412D74726176656C006B
:102BE000412D7265747261637400412D7265747257
:102BF00061637400416363656C00416363656C00ED
:102C00004D6F74696F6E0056652D6A65726B005664
:102C1000652D6A65726B0056652D6A65726B00568C
:102C20007A2D6A65726B00567A2D6A65726B005652
:102C3000792D6A65726B0056792D6A65726B005644
:102C4000792D6A65726B0056782D6A65726B005635
:102C5000782D6A65726B0056782D6A65726B004D2F
:102C60006F74696F6E0020496E76616C69642065CF
:102C700078747275646572200053544F5050454407
:102C80002E20005072696E7465722073746F7070BC
:102C900065642064756520746F206572726F72734D
:102CA0002E2046697820746865206572726F7220E4
:102CB000616E6420757365204D39393920746F2039
:102CC000726573746172742E202854656D7065721C
:102CD00061747572652069732072657365742E2046
:102CE000536574206974206166746572207265731F
:102CF00074617274696E67290A0053544F502063DF
:102D0000616C6C65642062656361757365206F66D4
:102D100020424C546F756368206572726F72202D6B
:102D200020726573746172742077697468204D39FC
:102D300039390A0042696C696E656172204C6576AA
:102D4000656C696E6720477269643A0A00536C6566
:102D500065702E2E2E004D313034205325750047DE
:102D600039322045257500473932205A25752E25E0
:102D700075004D3530300043616E63656C207072B4
:102D8000696E7400526573756D65207072696E743A
:102D900000506F776572206F7574616765002575E7
:102DA0003A2530327500253032753A2530327500BB
:102DB0002D2D2D005344005A005900580053746FB4
:102DC0007720424C546F756368004D323830205084
:102DD0003020533930004465706C6F7920424C5478
:102DE0006F756368004D32383020503020533130D9
:102DF00000424C546F7563682053656C662D5465B2
:102E00007374004D3238302050302053313230004E
:102E1000526573657420424C546F756368004D327F
:102E200038302050302053313630004D61696E000B
:102E30005072696E7420706175736564004D313233
:102E40003500002573004D3234005072696E7420D5
:102E500061626F72746564004732382058590047C8
:102E60003930004731204631303030205A3230007E
:102E7000473931004E6F2053442063617264005023
:102E800072696E742066726F6D2053440053746FC4
:102E900070207072696E740041626F757420507298
:102EA000696E74657200526573756D652070726924
:102EB0006E74005061757365207072696E740043A2
:102EC0006F6E74726F6C0050726570617265005441
:102ED000756E6500496E666F2073637265656E007E
:102EE0004261627973746570205A004D363030202B
:102EF00042300020213D2000637263206572726FB2
:102F0000723A20000A726561642066696C65206E01
:102F1000616D653A2000290A726561642066696CFA
:102F200065206469723A20002062797465733B20E1
:102F30006372632000706F7765726F6666207374CA
:102F40006F7265642073657474696E67732072654F
:102F500074726965766564202800202863616C635B
:102F6000756C6174656429210A0020213D200045AB
:102F70004550524F4D20435243206D69736D61742B
:102F80006368202D202873746F72656429200029DE
:102F90000A002062797465733B206372632000200D
:102FA00073746F7265642073657474696E677320DF
:102FB000726574726965766564202800204D6172BF
:102FC0006C696E3D563131290A0028454550524FF3
:102FD0004D3D00454550524F4D2076657273696FE7
:102FE0006E206D69736D617463682000506C65615B
:102FF0007365207265736574005052494E54455292
:103000002048414C544544005072696E74657220EA
:1030100068616C7465642E206B696C6C2829206370
:10302000616C6C6564210A000000E0C0000000C112
:103030000000000000007042000070420000C0402C
:10304000000000005761726E696E673A20486F6D2C
:10305000696E672042756D702044697669736F727E
:10306000203C20310A000202040000A0400000A021
:103070004000000040000063430000644300008201
:1030800043FFFFFF4D36303020486F74656E64207B
:10309000746F6F20636F6C6420746F206368616E5F
:1030A00067652066696C616D656E740A004D6F76A8
:1030B000652058004D6F76652059004D6F7665206C
:1030C0005A004578747275646572004D6F7665209C
:1030D000302E316D6D004D6F766520316D6D004D78
:1030E0006F76652031306D6D004D6F7665206178AB
:1030F000697300486F74656E6420746F6F20636F2E
:103100006C64004578747275646572004D6F766505
:10311000205A004D6F76652059004D6F7665205816
:10312000004578747275646572004D6F7665205A3B
:10313000004D6F76652059004D6F76652058005020
:10314000726570617265006265640A002C20737993
:103150007374656D2073746F7070656421204865A9
:10316000617465725F49443A200048656174696E14
:1031700067206661696C65640048656174696E67A3
:10318000206661696C65640048656174696E6720DA
:103190006661696C65640048656174696E67206684
:1031A00061696C656400D000DC0011241FBECFEFA4
:1031B000D1E2DEBFCDBF00E00CBF13E0A0E0B2E083
:1031C000E0ECF7E502E00BBF02C007900D92AA3DCC
:1031D000B107D9F727E1AAEDB3E001C01D92A634EB
:1031E000B207E1F718E1C4EDD8E100E006C021978D
:1031F0000109802FFE010F943E2BC33DD10780E0D3
:103200000807A9F70F94B10F0D94CF2B0C94000071
:103210002F923F924F925F926F927F928F929F92E6
:10322000AF92BF92CF92DF92EF92FF920F931F93D4
:10323000CF93DF93CDB7DEB7C35AD1090FB6F89459
:10324000DEBF0FBECDBF81E090E090938A168093E1
:1032500089168091630E8D3409F4C8C6843511F443
:103260000C94B632873411F00C94F2328091610ED6
:103270009091620E8B31910509F407C6B4F4843045
:1032800091053CF482309105C4F597FF2FC00C9452
:1032900009338430910509F4F4C54A9711F00C9470
:1032A00009330E94CD390C9409338A32910509F40F
:1032B00099C65CF48D31910509F418C60CF411C659
:1032C0004E9709F417C60C9409338B35910509F410
:1032D00080C68C35910509F481C68A35910511F0B7
:1032E0000C9409331092DE030C94093380918B0205
:1032F00081110C9410330C94093320918B022223FA
:1033000011F40C94093311E0029709F010E00E94C7
:10331000F6E482E50E947038882309F45CC10E94BB
:103320000A386B017C014090E9085090EA086090EF
:10333000EB087090EC082091ED083091EE08409178
:10334000EF085091F0082B962CAF3DAF4EAF5FAF1A
:103350002B9780910D0990910E09A0910F09B091C2
:1033600010092F968CAF9DAFAEAFBFAF2F972091B6
:1033700011093091120940911309509114096B966B
:103380002CAF3DAF4EAF5FAF6B9720E030E0A901AF
:10339000C701B6010F940A24882309F458C5A30174
:1033A00092012F966CAD7DAD8EAD9FAD2F970F9492
:1033B0000A24811111C02B962CAD3DAD4EAD5FADF1
:1033C0002B976B966CAD7DAD8EAD9FAD6B970F94CB
:1033D0000A24882309F43BC520E030E0A901C70195
:1033E000B6010F940A24881F8827881F18130BC062
:1033F00080E090E0A0E8BFE3A3968CAF9DAFAEAFB6
:10340000BFAFA3970AC020E030E040E85FEBA3968F
:103410002CAF3DAF4EAF5FAFA397A30192012F96A4
:103420006CAD7DAD8EAD9FAD2F970F944228679602
:103430006CAF7DAF8EAF9FAF67972B962CAD3DAD38
:103440004EAD5FAD2B976B966CAD7DAD8EAD9FADE8
:103450006B970F9442286F966CAF7DAF8EAF9FAF86
:103460006F9767962CAD3DAD4EAD5FAD6797CA01C6
:10347000B9010F946F244B015C016F962CAD3DADEB
:103480004EAD5FAD6F97CA01B9010F946F249B01D8
:10349000AC01C501B4010F9443280F94AE2A639682
:1034A0006CAF7DAF8EAF9FAF639720E030E040E020
:1034B0005FE30F946F244B015C01A7019601C701E4
:1034C000B6010F946F246B017C01A5019401C50125
:1034D000B4010F946F249B01AC01C701B6010F9496
:1034E00042280F94AE2A9B01AC01A3966CAD7DAD32
:1034F0008EAD9FADA3970F946F244B015C012F9667
:103500002CAD3DAD4EAD5FAD2F97C301B2010F9411
:10351000432820E030E040E05FE30F946F246B012C
:103520007C016F966CAD7DAD8EAD9FAD6F97905861
:1035300063962CAD3DAD4EAD5FAD63970F941F29E3
:103540009B01AC01C501B4010F946F249B01AC0138
:10355000C701B6010F944328A30192010F9442289A
:103560006B017C016B962CAD3DAD4EAD5FAD6B97A5
:103570002B966CAD7DAD8EAD9FAD2B970F944328F0
:1035800020E030E040E05FE30F946F242B013C012A
:1035900063962CAD3DAD4EAD5FAD639767966CAD58
:1035A0007DAD8EAD9FAD67970F941F299B01AC0138
:1035B000C501B4010F946F249B01AC01C301B2019A
:1035C0000F9443282B962CAD3DAD4EAD5FAD2B97A0
:1035D0000F94422814C089E40E947038882329F08F
:1035E0000E940A386B017C0103C0C12CD12C7601EA
:1035F0008AE40E9470388823F9F00E940A386B969A
:103600006CAF7DAF8EAF9FAF6B9720E030E0A9012C
:10361000C701B6010F940A2481111EC020E030E0DA
:10362000A9016B966CAD7DAD8EAD9FAD6B970F9480
:103630000A24811111C00BC420E030E0A901C701A8
:10364000B6010F940A24882309F401C46B961CAEBA
:103650001DAE1EAE1FAE6B97D701C601B0582B969C
:103660008CAF9DAFAEAFBFAF2B976B962CAD3DAD82
:103670004EAD5FAD6B9750582F962CAF3DAF4EAF10
:103680005FAF2F979C01AD01BC01CD010F946F245A
:103690004B015C012F962CAD3DAD4EAD5FAD2F972C
:1036A000CA01B9010F946F249B01AC01C501B4019B
:1036B0000F9443280F94AE2AE3966CAF7DAF8EAF84
:1036C0009FAFE3978091E9089091EA08A091EB08F9
:1036D000B091EC0863968CAF9DAFAEAFBFAF639770
:1036E000A7019601BC01CD010F944328A3966CAFAE
:1036F0007DAF8EAF9FAFA3972091ED083091EE087C
:103700004091EF085091F0086F962CAF3DAF4EAF4F
:103710005FAF6F976B962CAD3DAD4EAD5FAD6B97C8
:103720006F966CAD7DAD8EAD9FAD6F970F944328B6
:10373000A7966CAF7DAF8EAF9FAFA79780910D0915
:1037400090910E09A0910F09B0911009AB968CAF22
:103750009DAFAEAFBFAFAB97A3962CAD3DAD4EAD19
:103760005FADA397BC01CD010F9442286B017C0192
:1037700020911109309112094091130950911409B7
:10378000AF962CAF3DAF4EAF5FAFAF97A7962CADC6
:103790003DAD4EAD5FADA797AF966CAD7DAD8EAD37
:1037A0009FADAF970F9442284B015C018091F108C7
:1037B0009091F208A091F308B091F408EB968CAFC9
:1037C0009DAFAEAFBFAFEB979C01AD016091150906
:1037D0007091160980911709909118090F94422849
:1037E00067966CAF7DAF8EAF9FAF67972091190939
:1037F00030911A0940911B0950911C09E7962CAF92
:103800003DAF4EAF5FAFE7978091F5089091F60816
:10381000A091F708B091F808EF968CAF9DAFAEAFCE
:10382000BFAFEF97A70196012B966CAD7DAD8EAD26
:103830009FAD2B970F946F242B013C01A5019401A0
:103840002F966CAD7DAD8EAD9FAD2F970F946F24ED
:103850009B01AC01C301B2010F9443282B013C0131
:10386000A50194012B966CAD7DAD8EAD9FAD2B97D0
:103870000F946F244B015C01A70196012F966CAD4C
:103880007DAD8EAD9FAD2F970F946F249B01AC0142
:10389000C501B4010F944228A30192010F94B628E8
:1038A0006B017C0120E030E0A9010F940A2487FF1E
:1038B0000AC02BED3FE049EC50E4C701B6010F947C
:1038C00043286B017C01112351F02BED3FE049ECC3
:1038D00050E4C701B6010F9442286B017C0120E03F
:1038E00030E0A901C701B6010F940A24811128C054
:1038F000AB962CAD3DAD4EAD5FADAB9763966CAD69
:103900007DAD8EAD9FAD63970F940A24811118C0D1
:10391000AF962CAD3DAD4EAD5FADAF976F966CAD34
:103920007DAD8EAD9FAD6F970F940A24811108C0B5
:10393000ABEDCA2EAFE0DA2EA9ECEA2EA0E4FA2E07
:10394000E3962CAD3DAD4EAD5FADE397C701B6013B
:103950000F946F249B01AC010F946F244B015C0109
:1039600067962CAD3DAD4EAD5FAD6797CA01B9010D
:103970000F946F249B01AC01C501B4010F9443283F
:103980000F94AE2A4B015C012FE632E143E85AE383
:103990000F940A2487FD57C2C501B4010F94B829BA
:1039A0000F948C291B01672B19F422242394312CAA
:1039B000B10180E090E00F940E244B015C019B016B
:1039C000AC01C701B6010F941F2963966CAF7DAFA0
:1039D0008EAF9FAF6397A501940167966CAD7DADE7
:1039E0008EAD9FAD67970F941F29E3966CAF7DAFA7
:1039F0008EAF9FAFE397EF962CAD3DAD4EAD5FAD73
:103A0000EF97E7966CAD7DAD8EAD9FADE7970F94C8
:103A10004228A50194010F941F29E7966CAF7DAF52
:103A20008EAF9FAFE79763962CAD3DAD4EAD5FADCA
:103A30006397CA01B9010F946F2420E030E040E0A1
:103A40005FE30F946F249B01AC0160E070E080E8BD
:103A50009FE30F944228AB966CAF7DAF8EAF9FAFC4
:103A6000AB97EB962CAD3DAD4EAD5FADEB97298797
:103A70003A874B875C87EF968CAD9DADAEADBFAD01
:103A8000EF978D879E87AF87B88B609114027091F6
:103A90001502072E000C880B990B0F94102420910F
:103AA0002C0230912D0240912E0250912F020F9442
:103AB0006F242AE037ED43E25CE30F946F246BAF91
:103AC0007CAF8DAF9EAF0E94B7959B01AC01285390
:103AD0003F4F4F4F5F4FAF962CAF3DAF4EAF5FAFF5
:103AE000AF9728964FAC289729965FAC29972A96CE
:103AF0006FAC2A972B967FAC2B9741E050E06D96E8
:103B00005FAF4EAF6D9759E164965FAF64976D9666
:103B1000AEADBFAD6D97A215B30509F459C10F94B1
:103B200079060E94B795DC01CB01AF962CAD3DAD77
:103B30004EAD5FADAF97821B930BA40BB50BB7FDDA
:103B400011C00E94B7959B01AC0128533F4F4F4FC6
:103B50005F4FAF962CAF3DAF4EAF5FAFAF9780E0FA
:103B60000E944AA264963FAD6497315064963FAF7D
:103B70006497332309F44BC0AB962CAD3DAD4EADED
:103B80005FADAB972F966CAD7DAD8EAD9FAD2F9792
:103B90000F946F246B017C0163962CAD3DAD4EAD4F
:103BA0005FAD6397B201C3010F946F24A701960123
:103BB0000F9443286B017C01AB962CAD3DAD4EAD0F
:103BC0005FADAB97B201C3010F946F244B015C0151
:103BD00063962CAD3DAD4EAD5FAD63972F966CAD4A
:103BE0007DAD8EAD9FAD2F970F946F249B01AC01DF
:103BF000C501B4010F9442282B013C01C601D70135
:103C00002F968CAF9DAFAEAFBFAF2F9761C06D96B3
:103C10004EAD5FAD6D97BA0180E090E00F940E2439
:103C200063962CAD3DAD4EAD5FAD63970F946F24A1
:103C30004B015C010F941C296B017C01C501B4018F
:103C40000F94A42A4B015C01A70196012B966CAD41
:103C50007DAD8EAD9FAD2B970F946F242B013C0152
:103C6000A50194016B966CAD7DAD8EAD9FAD6B974C
:103C70000F946F249B01AC01C301B2010F94432840
:103C80002B013C01A50194012B966CAD7DAD8EAD51
:103C90009FAD2B970F946F244B015C01A7019601F8
:103CA0006B966CAD7DAD8EAD9FAD6B970F946F2411
:103CB0009B01AC01C501B4010F9442282F966CAF53
:103CC0007DAF8EAF9FAF2F9759E164965FAF64973A
:103CD0009201A301A3966CAD7DAD8EAD9FADA39770
:103CE0000F94432869837A838B839C832F962CAD12
:103CF0003DAD4EAD5FAD2F97A7966CAD7DAD8EAD52
:103D00009FADA7970F9443286D837E838F839887F9
:103D1000E3962CAD3DAD4EAD5FADE39769857A85F9
:103D20008B859C850F94432869877A878B879C872E
:103D3000E7962CAD3DAD4EAD5FADE7976D857E85C9
:103D40008F8598890F9443286D877E878F87988BFE
:103D500080918A02882321F0CE0101960E942CFBDB
:103D6000E0907F0889819A81AB81BC8188A399A367
:103D7000AAA3BBA38D819E81AF81B8858CA39DA38F
:103D8000AEA3BFA389859A85AB85BC8588A799A773
:103D9000AAA7BBA7CE0180960E9465DD8E01055CB7
:103DA0001F4F9E01235F3F4FAE01485D5F4FBE0135
:103DB0006C5D7F4FCE0180960F94340B6D968EAD67
:103DC0009FAD6D9701966D969FAF8EAF6D979FCE0D
:103DD000E0907F0880910D0990910E09A0910F0944
:103DE000B091100988A399A3AAA3BBA3809111093C
:103DF00090911209A0911309B09114098CA39DA36D
:103E0000AEA3BFA38091150990911609A09117093F
:103E1000B091180988A799A7AAA7BBA7CE01809639
:103E20000E9465DD8E01055C1F4F29E139E0AE017E
:103E3000485D5F4FBE016C5D7F4FCE0180960F9451
:103E4000340B0E94C3390E946CDD0C940933E3E803
:103E5000F9E284918F010F5F1F4F882321F00E94A8
:103E60009237F801F6CFE9E0F2E084918F010F5F1D
:103E70001F4F882311F40C9409330E949237F801E4
:103E8000F4CF0E94AAE40C9409330E942386811186
:103E90000C94093380E090E0A0E4B0E489839A8335
:103EA000AB83BC838D839E83AF83B88780E090E033
:103EB000A0E2B1E489879A87AB87BC8780E50E943E
:103EC0007038882319F00E94DA3701C060E068A3D7
:103ED000BE016F5F7F4FCE0180960E9459720C9495
:103EE000093380E00E9428540C9409330E94D64F75
:103EF0000C940933C090E908D090EA08E090EB08F0
:103F0000F090EC0888E50E947038811109C020E02B
:103F100030E044E152E4C701B6010F94422802C0E8
:103F20000E940A3868A379A38AA39BA3C090ED08D6
:103F3000D090EE08E090EF08F090F00889E50E943C
:103F40007038811108C020E030E0A901C701B60136
:103F50000F94432802C00E940A386B017C016983D8
:103F60007A838B839C8388A099A0AAA0BBA02FE60C
:103F700032E143E85AEBC501B4010F94692A87FF87
:103F800002C00C94093322E430E047E353E4C50156
:103F9000B4010F940A24181614F40C9409332FE674
:103FA00032E143E85AEBC701B6010F94692A87FF53
:103FB00002C00C94093322E430E04CE553E4C7011D
:103FC000B6010F940A24181614F40C9409330C94B7
:103FD0003D3381E08093DE030C9409330E94964EBA
:103FE0000C9409330E94FF4E0C9409338091610EAA
:103FF0009091620E8737910509F499C50CF0D3C0F2
:104000008D34910509F4AEC40CF05DC08931910581
:1040100009F494C234F58431910509F46BC27CF43F
:104020008131910509F45BC22CF4029708F4C3C1F5
:104030000C940933429709F40BC50C94093386316B
:10404000910509F45FC20CF459C28731910509F456
:104050005FC2489711F00C9409330E940C4D0C94E8
:1040600009338F31910509F4CFC37CF48B3191056D
:1040700009F46CC20CF466C28C31910509F46AC271
:104080004E9709F471C20C9409338133910509F4F8
:1040900061C464F48032910509F46CC38A9711F00D
:1040A0000C9409330E94924C0C9409338B34910583
:1040B00009F454C48C34910511F00C9409330E9416
:1040C00090870C9409338B36910509F4B0C4ACF594
:1040D0008535910509F4C0C4C4F48235910509F40D
:1040E000AEC44CF48135910511F00C9409330E9453
:1040F000BE590C9409338335910509F4A4C4843561
:10410000910509F4A5C40C9409338836910509F486
:104110002DC44CF48C35910511F00C9409330E9498
:10412000CF580C9409338936910509F433C48A3683
:10413000910509F457C40C9409338037910509F4AB
:1041400021C49CF48D36910509F42CC40CF416C4DA
:104150008E36910509F40EC48F36910511F00C943A
:1041600009330E941A5A0C9409338337910509F4D4
:104170008EC47CF48137910509F408C48237910517
:1041800011F00C9409330F94FF070E9401580C940E
:1041900009338537910509F47EC48637910509F402
:1041A00083C40C9409338E32B1E09B0711F40C9454
:1041B000E22A0CF071C08B3C910509F403C6CCF5E2
:1041C0008139910509F424C59CF48937910509F4D6
:1041D00019C50CF410C58D37910509F42CC48C3821
:1041E000910511F00C9409330E94D7590C940933AE
:1041F0008E3B910509F4DAC34CF48B39910511F02B
:104200000C9409330E94785C0C940933883C910526
:1042100009F477C5893C910511F00C9409339BEEA4
:10422000E92E95E1F92E03E912E024E0D22ED00E1A
:10423000B0C58D3D910509F449C784F48D3C9105C5
:1042400009F44AC60CF4DCC5833D910509F4B1C6F6
:104250008C3D910509F42BC70C9409338232F1E0AF
:104260009F0711F40C948D2954F4823E910509F4B2
:1042700077C78831914009F4A2C70C9409338C3276
:1042800041E0940711F40C949B298D32914011F474
:104290000C94C5290C940933843AA1E09A0711F4CF
:1042A0000C94C12F0CF03FC08139E1E09E0711F45E
:1042B0000C94B62FC4F4803321E0920711F40C94CF
:1042C000642A14F40C94382B833641E0940711F4DB
:1042D0000C947A328039914011F00C9409330F9488
:1042E000FF070C9409338839A1E09A0711F40C9464
:1042F000BA2F54F48239914011F00C94093380E0C4
:104300000E94BCE80C9409338939F1E09F0711F44D
:104310000C94BE2F8A39914011F00C9409330E94FD
:10432000FB560C940933873F31E0930711F40C944A
:104330001131ECF4843F51E0950711F40C940B31EA
:104340003CF4853A914011F40C9483300C94093379
:10435000853FE1E09E0711F40C940E31863F9140B9
:1043600011F00C9409330E9494770C940933803A2D
:1043700023E0920709F43BC27CF4883542E09407BD
:1043800011F40C946D318335934011F00C94093382
:10439000ECE0F8E20C941B31873EA3E09A0711F49D
:1043A0000C94B332893D974011F00C9409330E946C
:1043B00055560C940933A0905F0EB090600E80E5C6
:1043C0000E947038882359F00E9446DD6B017C0101
:1043D00011E0672B682B692B31F410E004C010E06A
:1043E000C12CD12C760183E50E9470388823F1F02E
:1043F0000E940A3820E030E04AE754E40F946F242A
:104400000F948C296B017C01111112C0672B682B52
:10441000692B71F4A114B10459F0F501808188234E
:1044200039F061E0C5010E94149B0FC0112391F384
:1044300060E08FE492E00E94F29A1092190E1092BE
:104440001A0E10921B0E10921C0E83E090E09093B7
:104450008A168093891681E0809319130F94FF07C1
:104460000E946CDDC114D104E104F104F1F08091EB
:10447000F50E9091F60EA091F70EB091F80EC80EC1
:10448000D91EEA1EFB1E0E94B795DC01CB018C19D8
:104490009D09AE09BF09B7FF1EC08091191388237B
:1044A000D1F080E00E944AA2EECF809119138823B8
:1044B00021F080E00E944AA2F8CF80913D109091B7
:1044C0003E1060E0029719F480E492E002C081E3BC
:1044D00092E00E94F29A109219130C94093360E052
:1044E00082E692E00E94F29A4298179815982E98C8
:1044F0000C9409330E94374D0C9409330E945F825B
:104500000C94093310924D1010924E100C940933F4
:10451000E0915F0EF091600E8081882329F0803257
:1045200009F410823196F8CF40E061E080915F0E8F
:104530009091600E0E9402C80C9409330E94004DB5
:104540000C9409330E94E64C0C9409330E94AA870C
:104550000C94093340E060E080915F0E9091600E12
:104560000E9402C80C94093380914E10882311F4E4
:104570000C9409338AE492E10E943E6D8AE492E150
:104580000E9464BF10924C1010924B10E0905F0E8E
:10459000F090600E80914E10882311F40C94093332
:1045A0000E94F7C79E012F5F3F4F6901C9010E941A
:1045B000E36A82E890E19093A2108093A110D70162
:1045C0008C918F3209F060C06FE270E0C7010F94E8
:1045D0008C2B8C010F5F1F4F09F45CC06FE270E001
:1045E000C8010F948C2B5C01009709F454C0081784
:1045F000190708F050C04C01801A910AA401B801B3
:10460000CE0180960F94B52BE0E2F0E0EC0FFD1F99
:10461000E80DF91D10828E01005E1F4FF801819197
:104620008F01882319F00E949237F8CF8AE00E9408
:1046300092376091A1107091A2106115710511F06F
:104640006C5F7F4F21E0AE01405E5F4FCE0105966B
:104650000E940DC5811112C0BE01605E7F4F81E9CD
:1046600092E00F9445098EE20E9492378AE00E9400
:104670009237C6010E94A4FD0C940933D092A21077
:10468000C092A1108501A6CF83EA90E19093A21079
:104690008093A11087016091A1107091A210611503
:1046A000710511F06C5F7F4F18A21BA222E0A801D8
:1046B000CE0180960E940DC5811102C0F12C14C05C
:1046C000CE0180960E94D6B38823C1F361E0CE016B
:1046D00080960E946DBF009789F325EEDC012C9334
:1046E0001BA20E94ED6AF82ECE0180960E9456DD34
:1046F000FF2019F1EBE6F2E084917F01BFEFEB1AA6
:10470000FB0A882321F00E949237F701F5CFF801C8
:1047100081918F01882319F00E949237F8CF8AE0A7
:104720000E94923710927E1010927F10109280108B
:10473000109281100E94ABC618C0E9E7F2E08491A4
:104740007F012FEFE21AF20A882321F00E949237AC
:10475000F701F5CFD8018D918D01882319F00E94C2
:104760009237F8CF8EE20E949237C6010E94A4FDD4
:104770000C94093380914D1081110F94FF078091A3
:104780004E10882311F40C94093380E50E94703890
:10479000882319F00E94FB3703C080E50E9441384E
:1047A000182F482F61E080915F0E9091600E0E945B
:1047B00002C883E50E947038882381F00E94DA37AE
:1047C000AB01BC0140937E1050937F10609380102A
:1047D000709381108AE492E10E94706D0E94E5C797
:1047E00011110C9409330E94CC860C9409338091EA
:1047F0005F0E9091600E21E020934C1040E060E04D
:104800000E9402C80C9409330E9477B3ECE3CE2EC9
:10481000D12CE12CF12CA70196010F94E527762EDF
:10482000672ECA01B901A70196010F94E5276B0114
:104830007C01CA01B90128E130E040E050E00F946A
:10484000E5274B015C01C9016DE671E00F94172B60
:104850008E010F5F1F4F6115710599F06F927F9266
:10486000DF92CF929F928F929F938F937F936F93BC
:104870008DEC92E09F938F931F930F930F94A3233C
:1048800012C00097B1F06F927F92DF92CF929F9209
:104890008F929F938F938DEB92E09F938F931F93B3
:1048A0000F930F94A3230FB6F894DEBF0FBECDBFB6
:1048B00036C081149104A104B10479F06F927F9203
:1048C000DF92CF929F928F9281EB92E09F938F9392
:1048D0001F930F930F94A323E6CFC114D104E104D7
:1048E000F10469F06F927F92DF92CF9289EA92E0B1
:1048F0009F938F931F930F930F94A323D4CF6F9203
:104900007F9285EA92E09F938F931F930F930F946A
:10491000A3230F900F900F900F900F900F9060E0D7
:10492000C8010E94149BECE0F8E284917F019FEFA4
:10493000E91AF90A882321F00E949237F701F5CF8E
:10494000B80181EE92E00F9445098AE00E94923707
:104950000C9409330E94195D0C9409330E94CC8693
:104960000C9409330E944AB10C9409330E94C35C31
:104970000C9409330E94915A0C94093310928902C5
:104980000C9409338EEE92E00E94ACFD0E94F05927
:104990000C9409330E94A65C10928A161092891614
:1049A0000C9402370E94A15A0C9409338091551639
:1049B00083FF02C00C94093360E085E093E00E941D
:1049C000F29A83E50E94703868968FAF68978111DC
:1049D0000C94903382E50E94703881110C949033CE
:1049E0000C94093380E50E947038811108C083E57A
:1049F0000E947038811109C03FEF20E00AC00E9478
:104A0000EA3781110C940933F2CF0E94DA37362F3E
:104A1000272F832F922F8F3F910519F010F08FEFE2
:104A200090E090932A17809329170C9409330E94E1
:104A3000695C0C9409330E9431570C94093310922D
:104A4000DD030C94093381E08093DD030C9409337A
:104A50000E946D590C94093383E50E9441388823E4
:104A600011F40C9409330E940A3820E030E04AE740
:104A700054E40F946F240F948C296093F90E709373
:104A8000FA0E8093FB0E9093FC0E0C9409330E9457
:104A9000BA570C94093360E080915F0E9091600EDC
:104AA0000E94149B0C94093385E40E94703888237B
:104AB00019F00E94FB3703C085E40E944138882327
:104AC00061F0ECE0F8E284918F010F5F1F4F8823C3
:104AD00021F00E949237F801F6CF81E40E947038ED
:104AE000882319F00E94FB3703C081E40E944138FB
:104AF000882361F0E2E1F3E084918F010F5F1F4FA3
:104B0000882321F00E949237F801F6CF00915F0EC2
:104B10001091600ED8018D918D01882319F00E94AB
:104B20009237F8CF8AE00E9492370C940933EEE274
:104B3000F3E084918F010F5F1F4F882321F00E94C3
:104B40009237F801F6CFE6E2F3E084918F010F5F30
:104B50001F4F882321F00E949237F801F6CF029B65
:104B600003C001E113E002C006E113E0F801819106
:104B70008F01882319F00E949237F8CF8AE00E94B3
:104B80009237EEE1F3E084918F010F5F1F4F88238E
:104B900021F00E949237F801F6CF069B03C001E195
:104BA00013E002C006E113E0D8018D918D01882346
:104BB00019F00E949237F8CF8AE00E949237E6E11E
:104BC000F3E084918F010F5F1F4F882321F00E9433
:104BD0009237F801F6CF379903C001E113E002C024
:104BE00006E113E0F80181918F01882309F49ACF3F
:104BF0000E949237F7CF81E08093AE0F8093AD0F84
:104C00000C9409331092AE0F1092AD0F0C9409332F
:104C100083E50E947038882319F00E94DA3702C0B9
:104C200060E070E08B01112702301105D4F0E3E859
:104C3000F9E284918F010F5F1F4F882321F00E94BA
:104C40009237F801F6CFE8E4F3E084918F010F5F2B
:104C50001F4F882311F40C9409330E949237F801F6
:104C6000F4CF88E40E9470388823A1F00E94DA37DC
:104C70006A3A710534F06B3F71052CF06AEF70E011
:104C800002C06AEA70E0F801EE0FFF1FE356F74F2B
:104C90007183608386E40E9470388823A9F00E94A3
:104CA000DA37F801EE0FFF1FEF55F74F718360837E
:104CB0006F3F710519F014F06FEF70E077FF02C0DD
:104CC00060E070E07183608382E40E947038882322
:104CD00011F40C9409330E94DA376530710534F011
:104CE0006F3671052CF06EE670E002C065E070E092
:104CF000000F111FF801E756F74F718360830C9482
:104D0000093388EC90E00E949AE981110C940933F0
:104D100084E40E9441388823C1F10E940A3811E0DE
:104D200020E030E0A9010F940A24811101C010E0B5
:104D300010933B0E112349F10E940A38E091550F60
:104D400024E0E29FF0011124E95CF14F608371835C
:104D50008283938320E030E0A9016091370E709147
:104D6000380E8091390E90913A0E0F940A248111D9
:104D70000CC080E090E0A0EEBFE38093370E9093EC
:104D8000380EA093390EB0933A0E0E949CCC0C942E
:104D90000933D8018D918D010E944138882349F053
:104DA0000E940A380F948C29F701608371838283F3
:104DB0009383F4E0EF0EF11CD012EBCF0F949D091A
:104DC0000C940933BBEDEB2EB5E1FB2E03E912E0A9
:104DD00084E0D82ED00ED8018D918D010E944138EB
:104DE000882339F00E940A38F70160837183828337
:104DF0009383F4E0EF0EF11CD012EDCF0C94093345
:104E000083E50E9441388823D9F00E940A38AB011B
:104E1000BC014093031650930416609305167093DB
:104E200006164093FB155093FC156093FD15709387
:104E3000FE1584EC93E00F940F098AE00E949237EC
:104E400080E50E944138882399F00E940A38AB011E
:104E5000BC0140930316509304166093051670939B
:104E6000061687EA93E00F940F098AE00E949237B2
:104E700082E50E944138882399F00E940A38AB01EC
:104E8000BC014093FF155093001660930116709378
:104E9000021688E893E00F940F098AE00E94923787
:104EA00084E50E944138882311F40C9409330E9450
:104EB0000A38AB01BC014093FB155093FC1560937D
:104EC000FD157093FE158AE693E00F940F098AE0B2
:104ED0000E9492370C94093383E50E94413888235D
:104EE00051F00E940A386093D7157093D8158093BB
:104EF000D9159093DA1584E50E944138882351F042
:104F00000E940A386093D3157093D4158093D515F9
:104F10009093D61582E40E944138882351F00E9474
:104F200046DD6093611570936215809363159093CD
:104F3000641588E50E944138882351F00E940A38A0
:104F400060930716709308168093091690930A16BB
:104F500089E50E944138882351F00E940A38609305
:104F60000B1670930C1680930D1690930E168AE50F
:104F70000E944138882351F00E940A3860930F162E
:104F800070931016809311169093121685E40E9468
:104F90004138882311F40C9409330E940A38609335
:104FA00013167093141680931516909316160C947E
:104FB0000933ECE0F8E284918F010F5F1F4F8823E3
:104FC00021F00E949237F801F6CF83E50E94413824
:104FD000882321F00E94FB3780938A02E4E1F4E009
:104FE00084918F010F5F1F4F882321F00E94923719
:104FF000F801F6CF80918A02811103C0E0E1F4E06C
:1050000002C0ECE0F4E084918F010F5F1F4F882312
:1050100021F00E949237F801F6CFE4E0F4E08491A9
:105020008F010F5F1F4F882321F00E949237F801F4
:10503000F6CF40E050E0BA0182E094E00F940F090F
:1050400040E050E0BA018FEF93E00F940F0940E089
:1050500050E0BA018CEF93E00F940F09E4EFF3E016
:1050600084918F010F5F1F4F882321F00E94923798
:10507000F801F6CF40E050E06CE573E482EF93E096
:105080000F940F0940E050E06CE573E48FEE93E07D
:105090000F940F0940E050E062E873E48CEE93E077
:1050A0000F940F098AE00E9492370C94093383E52C
:1050B0000E947038882311F40C9409330E94DA3767
:1050C00070931502609314020C9409338DED90E0F7
:1050D0000E949AE981110C94093383E50E9470388B
:1050E000882311F40C9409330091550F10E00E94AD
:1050F000DA37000F111FF801EE5EFD4F71836083F8
:105100008091550F90E08C01000F111F000F111FAF
:105110009801225F3D4F7901880F991FFC01EE5ED7
:10512000FD4F60817181072E000C880B990B0F9445
:1051300010242AE037ED43E25CE30F946F24F8017A
:10514000E558F74F20813181428153810F946F24BC
:10515000D7016D937D938D939C9313970C94093392
:1051600080E50E944138882311F40C9409330E9491
:10517000DA376B017C0183E50E947038882321F0C7
:105180000E94DA378B0102C00FEF1FEFC8010196B2
:10519000039710F00C940933D7FE02C00C94093326
:1051A0009C2DE4E2F4E088E28E0F2491921711F432
:1051B0000C94093331968E13F8CF0C94D93680E5D0
:1051C0000E944138882311F40C9409330E94DA3785
:1051D0006B017C018B01672B09F080C083E50E9485
:1051E0004138882341F00E94DA378CE190E10E9437
:1051F00031920C940933ECE0F8E284917F01BFEF27
:10520000EB1AFB0A882321F00E949237F701F5CFB1
:1052100060E070E085E694E00F942C0980911E1008
:1052200028E532E06901C81AD10887FDD394CC0C77
:10523000DD1CCC0CDD1C0D2C000CEE08FF08809151
:105240001D1028E830E04901881A910887FD9394E1
:10525000880C991C880C991C092C000CAA08BB0806
:1052600080911C108F3FB9F090E0FC01EE0FFF1F02
:105270008E0F9F1FFC01E155F04F0181128133E039
:10528000000F111F3A95E1F744E0169507954A95EE
:10529000E1F70E5F1F4F98012F5F3F4FC901330F9A
:1052A000AA0BBB0B9C01AD01281939094A095B09FE
:1052B000A4EBB0E00F942328A7019601281939091F
:1052C0004A095B090F940728B90182E694E00F941C
:1052D0002C098AE00E9492370C940933E3E8F9E242
:1052E00084918F010F5F1F4F882321F00E94923716
:1052F000F801F6CFB6018BE594E00F942C09ECE4AD
:10530000F4E084918F010F5F1F4F882311F40C94F8
:1053100009330E949237F801F4CF8AE50E94703871
:1053200081110C94F53483E50E94703881110C943E
:10533000F5340C94093383E50E947038882319F002
:105340000E94DA3702C064E071E079A368A380E5C7
:105350000E947038882339F00E94DA376938E3E117
:105360007E0730F402C068EE73E07A83698304C07C
:1053700088E893E19A838983BE01605E7F4FCE0106
:1053800001960E9443B30C94093385E40E9470385F
:10539000811110C080E50E944138882391F00E945D
:1053A0000A3860938C0870938D0880938E089093D0
:1053B0008F0807C00E94EA37882361F3E3E8F9E227
:1053C00072C089E40E944138882381F00E940A3823
:1053D0002CEA35EC47E25EE30F946F246093940867
:1053E00070939508809396089093970884E40E94A0
:1053F0004138882381F00E940A382CEA35EC47E2D4
:105400005EE30F941F296093900870939108809336
:10541000920890939308ECE0F8E284918F010F5F7B
:105420001F4F882321F00E949237F801F6CF409158
:105430008C0850918D0860918E0870918F0885E7D7
:1054400094E00F940F092CEA35EC47E25EE360919B
:1054500094087091950880919608909197080F9400
:105460001F29AB01BC0181E794E00F94F2082CEAFC
:1054700035EC47E25EE3609190087091910880916D
:105480009208909193080F946F24AB01BC018DE6B4
:1054900094E00F94F2088AE00E9492370C9409334A
:1054A0000E949237F80184918F010F5F1F4F811185
:1054B000F7CF00E313E0D8018D918D01882309F423
:1054C00031CB0E949237F7CF80E50E944138882384
:1054D00051F00E940A386093B5167093B616809307
:1054E000B7169093B81689E40E944138882381F05A
:1054F0000E940A382CEA35EC47E25EE30F946F24F1
:105500006093B1167093B2168093B3169093B4164D
:1055100084E40E944138882381F00E940A382CEAF2
:1055200035EC47E25EE30F941F296093AD1670934C
:10553000AE168093AF169093B016ECE0F8E284912B
:105540008F010F5F1F4F882321F00E949237F801CF
:10555000F6CF4091B5165091B6166091B71670917E
:10556000B81681E894E00F940F092CEA35EC47E275
:105570005EE36091B1167091B2168091B31690916E
:10558000B4160F941F29AB01BC018DE794E00F9472
:10559000F2082CEA35EC47E25EE36091AD167091BB
:1055A000AE168091AF169091B0160F946F24AB0198
:1055B000BC0189E794E00F94F2088AE00E949237D8
:1055C0000C94093383E50E944138182F882371F029
:1055D0000E940A380F94872970933602609335022F
:1055E00021E0672B09F020E020932B0E80E50E943C
:1055F0004138882361F02091350230913602232B07
:1056000011F00E94FB3780932B0E0C94093311117B
:105610000C940933ECE0F8E284918F010F5F1F4F87
:10562000882321F00E949237F801F6CF80912B0E4B
:10563000811103C060E273E002C063E173E08AE9B4
:1056400094E00F944509609135027091360289E823
:1056500094E00F942C09E5E8F4E084918F010F5F4A
:105660001F4F882309F4D5C70E949237F801F5CF60
:1056700085E40E947038882321F00E94DA377B018C
:1056800002C0E12CF12C83E40E947038882341F0A1
:105690000E94DA37CB57DF4F6883C558D04006C029
:1056A00045E0CB57DF4F4883C558D04085E50E9481
:1056B0007038882319F00E94FB3703C085E50E94EB
:1056C0004138CF56DF4F8883C159D040F7FC07C01F
:1056D000812C912C86E1A82E83E4B82E06C0812C63
:1056E000912C0CE8A02E02E4B02E83E50E947038C5
:1056F000882321F00E940A384B015C01E114F10477
:1057000011F41092550F2896EFAE28970E94B79586
:105710002B013C0128965FAD289757FD02C00CE392
:1057200001C004EB61E06E0D623028F411E4E12E5B
:1057300013E0F12E0BC004E513E0D8018D918D012B
:10574000882309F4EFC90E949237F7CFF7018191BE
:105750007F01882319F00E949237F8CF8AE00E94D7
:1057600092370E942BB12896FFAD2897F7FF04C00F
:105770008FE78093540F0AC028962FAD2897E22F09
:10578000220FFF0BED5AF04F8FE78083C501B40164
:105790000F948729072E000C880B990B0F94102467
:1057A00060966FAF609764967FAF64976C968FAF8B
:1057B0006C97A0969FAFA097A02F000FBB0B28EE71
:1057C00033E00F94462BCE56DF4F688379838A836C
:1057D0009B83C259D040DC01CB01840D951DA61DD1
:1057E000B71DC256DF4F88839983AA83BB83CE59E6
:1057F000D04081E080938902C757DF4F48825982A9
:105800006A827B82C958D040CA56DF4F488259828B
:105810006A827B82C659D040C857DF4F1882C85869
:10582000D040C656DF4F188219821A821B82CA598D
:10583000D040E8961FAEE89790E4EC969FAFEC97C7
:10584000ACE1E096AFAFE097B6E4E496BFAFE49783
:10585000C158DF4F1882CF57D040C058DF4F188251
:10586000C058D040CF57DF4F1882C158D040CE57D4
:10587000DF4F1882C258D040AF961CAE1DAE1EAE90
:105880001FAEAF97AB961CAE1DAE1EAE1FAEAB9754
:10589000C12CD12C7601AFE78A2E912CA12CB12CF2
:1058A0002FE730E040E050E06B962CAF3DAF4EAFBD
:1058B0005FAF6B97C357DF4F188219821A821B8222
:1058C000CD58D04031E0C957DF4F3883C758D0405A
:1058D000A5961FAE1EAEA59710E0212C312C00E03E
:1058E00028964FAD2897842F440F990BDC01AD5AB1
:1058F000B04FCE55DF4FB983A883C25AD040880F2E
:10590000991F880F991FFC01E95DF14FCD57DF4FBB
:10591000F983E883C358D040CB57DF4F2881C5585F
:10592000D040022E000C330BCB57DF4F3983288336
:10593000C558D04080918902882309F447C10E944C
:10594000B7952F966CAF7DAF8EAF9FAF2F9780919D
:10595000510F882309F416C10F94E90528963FAD2D
:10596000289737FF09C01091491620904A163090A9
:105970004B1600914C160FC0CD57DF4FA881B9814F
:10598000C358D0401C9111962C90119712963C90C0
:10599000129713960C91212F322D432D502FC15861
:1059A000DF4F6881CF57D040C058DF4F7881C05853
:1059B000D040CF57DF4F8881C158D040CE57DF4FFE
:1059C0009881C258D0400F940A2487FF14C0C15850
:1059D000DF4F1883CF57D040C058DF4F2882C058C0
:1059E000D040CF57DF4F3882C158D040CE57DF4F1D
:1059F0000883C258D040212F322D432D502FE896D6
:105A00006FADE897EC967FADEC97E0968FADE097A1
:105A1000E4969FADE4970F94692A181664F4E8960B
:105A20001FAFE897EC962FAEEC97E0963FAEE0976D
:105A3000E4960FAFE497C957DF4FB881C758D040FD
:105A400060962FAD609764963FAD64976C964FADAE
:105A50006C97A0965FADA097612F722D832D902F2C
:105A6000BB2309F470C00F94692A18160CF08AC081
:105A70002F964CAD5DAD6EAD7FAD2F974419550996
:105A800066097709DB01CA0188589341A109B10968
:105A9000B7FD78C06B968CAD9DADAEADBFAD6B97CD
:105AA00088199909AA09BB092896EFAD2897B595D9
:105AB000A79597958795E7FF03C08093540F07C07C
:105AC000CE55DF4FE881F981C25AD0408083C35759
:105AD000DF4F488359836A837B83CD58D0406096DB
