:100000000C941F150C9450150C9450150C9450150D
:100010000C9450150C9450150C9450150C945015CC
:100020000C9450150C9450150C9450150C945015BC
:100030000C9450150C9450150C9450150C945015AC
:100040000C9450150C94C06A0C9450150C945015D7
:100050000C9450150C9450150C94C08F0C94F2A96C
:100060000C9450150C94863C0C9450150C9450151F
:100070000C9450150C9450150C9450150C9450156C
:100080000C9450150C9450150C9450150C9450155C
:100090000C9450150C9450150C9450150C9450154C
:1000A0000C9450150C9450150C9450150C9450153C
:1000B0000C9450150C9450150C9450150C9450152C
:1000C0000C9450150C9450150C9450150C9450151C
:1000D0000C9450150C9450150C9450150C9450150C
:1000E0000C94501532473B4745474E475747724798
:1000F0007F47884760476947D1A7D4A7C3A7C7A749
:10010000CDA70BA8D8A7DCA7E2A7E6A7EAA7F0A788
:10011000F4A7F8A70BA8FEA702A806A80EA913A982
:1001200018A922A92CA9A5A936A93EA946A950A972
:100130005AA964A973A97DA9A5A987A991A99BA971
:10014000084AD73B3BCE016E84BCBFFDC12F3D6C3E
:1001500074319ABD56833DDA3D00C77F11BED9E4A4
:10016000BB4C3E916BAAAABE000000803F05A84C84
:10017000CDB2D44EB93836A9020C50B99186880850
:100180003CA6AAAA2ABE000000803F004E414E496C
:100190004E495459494E46CDCCCC3D0AD7233C1745
:1001A000B7D13877CC2B329595E6241FB14F0A0092
:1001B0000020410000C84200401C4620BCBE4CCA82
:1001C0001B0E5AAEC59D7420746F6F206C6F6E67E6
:1001D00020657874727573696F6E207072657665CC
:1001E0006E7465640A0020636F6C642065787472B5
:1001F0007573696F6E2070726576656E7465640ADA
:100200000054454D5020544F4F204C4F572100472C
:10021000322F47332062616420706172616D6574B2
:100220006572730A00536C6565702E2E2E00526540
:1002300073756D696E67207072696E7400507269B3
:100240006E7465722072656164792E00436C696317
:100250006B20746F20726573756D652E2E2E004EA7
:100260006F206D6F76652E00456E642066696C6543
:10027000206C6973740A00426567696E2066696C58
:1002800065206C6973740A002569730025696D2007
:10029000256973002569682025696D20256973002B
:1002A000256964202569682025696D20256973000A
:1002B00025697920256964202569682025696D20D4
:1002C000256973005072696E742074696D653A20F7
:1002D0000050726F7465637465642050696E0A0023
:1002E0004B494C4C45442E20004D313133205300B6
:1002F0006F6B0048656174696E6720646F6E652E70
:100300000020573A00452569202573005072696E18
:100310007465722072656164792E004265642064A0
:100320006F6E652E0020573A004265642048656173
:1003300074696E672E005072696E746572204F6624
:10034000662E002F2F20007A5F6D696E3A200079AB
:100350005F6D696E3A2000785F6D696E3A200052D9
:1003600065706F7274696E6720656E6473746F7008
:10037000207374617475730A0053657474696E67D1
:100380002054726176656C20416363656C657261AF
:1003900074696F6E3A200053657474696E672052F9
:1003A00065747261637420416363656C6572617426
:1003B000696F6E3A200053657474696E67205072DD
:1003C000696E7420416363656C65726174696F6EF8
:1003D0003A200053657474696E67205072696E74B8
:1003E00020616E642054726176656C2041636365A0
:1003F0006C65726174696F6E3A2000205A00205952
:1004000000580020204D61783A2000205A002059E1
:1004100000580020204D696E3A20004F6E20004F9A
:10042000666600536F667420656E6473746F7073D4
:100430003A2000000125272318FF1F211D1CFF194A
:10044000171B1EFFFF0C0409FFFFFF2E2C0CFFFFE4
:1004500004400AFF41FFFFFFFFFFFF20643A002036
:10046000693A0020703A0020643A0020693A00207E
:10047000703A0043290A0061626C656420286D6946
:100480006E2074656D702000436F6C642065787415
:1004900072756465732061726520004B64200023CF
:1004A000646566696E65202044454641554C545F3D
:1004B000004B69200023646566696E652020444511
:1004C0004641554C545F004B7020002364656669BB
:1004D0006E65202044454641554C545F00504944C8
:1004E000204175746F74756E652066696E697368F6
:1004F0006564212050757420746865206C61737484
:10050000204B702C204B6920616E64204B6420636B
:100510006F6E7374616E74732066726F6D206265A6
:100520006C6F7720696E746F20436F6E66696775B4
:10053000726174696F6E2E680A00504944204175DB
:10054000746F74756E65206661696C6564212074D2
:10055000696D656F75740A00544845524D414C20D1
:1005600052554E4157415900546865726D616C2077
:1005700052756E617761790048656174696E6720B4
:100580006661696C65640048656174696E672066C0
:1005900061696C656400504944204175746F7475DD
:1005A0006E65206661696C6564212054656D7065B7
:1005B00072617475726520746F6F20686967680A6C
:1005C00000204B643A2000204B693A2000204B70F9
:1005D0003A20000A20436C617373696320504944D8
:1005E000200A002054753A2000204B753A20002044
:1005F0006D61783A2000206D696E3A200020643ADF
:10060000200020626961733A200043617365206CA9
:10061000696768743A2000290A0046697865642091
:10062000706172616D657465722062797465733B87
:10063000206372632000466978656420706172618E
:100640006D6574657220280048565F7365745F6F2E
:100650006B0A00416374697665204578747275642D
:1006600065723A2000556E6B6E6F776E20636F6D0A
:100670006D616E643A2022004C696E65204E756D86
:10068000626572206973206E6F74204C61737420F0
:100690004C696E65204E756D6265722B312C204C55
:1006A000617374204C696E653A20004B494C4C458F
:1006B000442E200053544F505045442E2000507279
:1006C000696E7465722073746F70706564206475F0
:1006D0006520746F206572726F72732E2046697880
:1006E00020746865206572726F7220616E64207577
:1006F0007365204D39393920746F207265737461C8
:1007000072742E202854656D7065726174757265FF
:100710002069732072657365742E20536574206997
:100720007420616674657220726573746172746995
:100730006E67290A004E6F20436865636B73756DA1
:100740002077697468206C696E65206E756D6265CE
:10075000722C204C617374204C696E653A200063E2
:100760006865636B73756D206D69736D6174636823
:100770002C204C617374204C696E653A20004D3119
:100780003130004D33310047312046313030302098
:1007900058302059323130004732382058590053F0
:1007A000442072656164206572726F720A00446F42
:1007B0006E65207072696E74696E672066696C651B
:1007C0000A0020496E76616C6964206578747275E0
:1007D0006465722000200D4669786564207061723E
:1007E000616D65746572206E62797465733B206318
:1007F0007263206572726F722000200D0A4669785C
:10080000656420706172616D6574657220627974CF
:1008100065733B20637263206572726F72200029DA
:100820000A002062797465733B206372632000467E
:100830006978656420706172616D657465722028E5
:1008400000206861726477617265207665727369F1
:100850006F6E3A004B494C4C45442E2000202D2011
:10086000496E76616C69642065787472756465722E
:10087000206E756D62657220210A002D2D2D2D2DA3
:100880002D007C4D61726C696E7C002D2D2D2D2DFF
:100890002D00687474703A2F2F6D61726C696E66EA
:1008A000772E6F726700687474703A2F2F6D6172C3
:1008B0006C696E66772E6F72670020312E312E388C
:1008C000002020506C616E6E6572427566666572BE
:1008D00042797465733A20002046726565204D6543
:1008E0006D6F72793A2000436F6D70696C65643A80
:1008F000204A616E20313520323032300A00207CAF
:1009000020417574686F723A20286E6F6E652C20D6
:1009100064656661756C7420636F6E666967290A29
:1009200000323031372D31322D32352031323A30EC
:100930003000204C61737420557064617465643AB2
:100940002000312E312E380A004D61726C696E0024
:1009500020536F6674776172652052657365740AFF
:1009600000205761746368646F6720526573657413
:100970000A002042726F776E206F75742052657383
:1009800065740A002045787465726E616C2052654A
:100990007365740A00506F77657255700A0073743E
:1009A0006172740A006572726F722077726974697D
:1009B0006E6720746F2066696C650A00456E64730B
:1009C000746F7073202563202563202563202563C1
:1009D00000205A3A0020593A0020583A00656E64C7
:1009E00073746F7073206869743A2000473238203E
:1009F000580066696C616D656E74206F75740A00CD
:100A00004D33322053256C7520212573004D333230
:100A10002053256C7520212F25732F257300473017
:100A2000204631303030205A25752E25750047324A
:100A3000382059004732382058004D3130362020B8
:100A400053323535004D313039205430205325751F
:100A5000004D3139302053257500446F6E65207389
:100A60006176696E672066696C652E0A004D3239C1
:100A70000020204E6F7A7A6C653A200066696C61BE
:100A80006D656E74206C6F616400576169742066D7
:100A90006F72005052494E54205041555345440006
:100AA00020204E6F7A7A6C653A200066696C616D21
:100AB000656E742065787472756465005761697439
:100AC00020666F72005052494E5420504155534594
:100AD0004400746F20726573756D650057616974A9
:100AE00020666F72207072696E74005052494E54C5
:100AF0002050415553454400436172642072656D36
:100B00006F766564004361726420696E7365727408
:100B10006564007C3C3E5E2B3D3F2F5B5D3B2C2A99
:100B2000225C004572726F722077726974696E6719
:100B300020746F20454550524F4D210A00544845BE
:100B4000524D414C2052554E415741590054686511
:100B5000726D616C2052756E617761790043616ED0
:100B60006E6F74206F70656E207375626469722099
:100B700000656E7175657565696E67202200656335
:100B8000686F3A00290A002062797465733B20631C
:100B90007263200053657474696E67732053746FB9
:100BA000726564202800446F776E0A00290A577224
:100BB0006974652066696C65206E616D6520416DA4
:100BC00069743A20002062797465733B2063726314
:100BD0002000506F7765726F66662053746F726580
:100BE00064202800446F776E0020213D200063724E
:100BF00063206572726F723A20000A726561642028
:100C000066696C65206E616D653A2000290A72651F
:100C100061642066696C65206469723A2000206214
:100C2000797465733B206372632000706F7765721F
:100C30006F66662073746F7265642073657474697F
:100C40006E6773207265747269657665642028002A
:100C5000202863616C63756C6174656429210A00E6
:100C600020213D2000454550524F4D204352432006
:100C70006D69736D61746368202D202873746F72C1
:100C80006564292000290A002062797465733B207D
:100C900063726320002073746F72656420736574DF
:100CA00074696E6773207265747269657665642015
:100CB0002800204D61726C696E3D563131290A0061
:100CC00028454550524F4D3D00454550524F4D200F
:100CD00076657273696F6E206D69736D6174636898
:100CE00020004D363030204230004368616E676529
:100CF0002066696C616D656E74004261627973741F
:100D00006570205A00466C6F7700466C6F7700461E
:100D1000616E2073706565640046616E2073706556
:100D200065640042656400426564004E6F7A7A6CC7
:100D300065004E6F7A7A6C65005370656564005388
:100D400070656564004D61696E005072656865612B
:100D50007420504C4120456E640050726568656196
:100D60007420504C41204265640050726568656192
:100D70007420504C41005072657061726500507271
:100D800065686561742041425320456E640050726D
:100D90006568656174204142532042656400507269
:100DA00065686561742041425300507265706172DC
:100DB00065004261636B004E65787420636F726EEC
:100DC0006572005072656865617420504C41004343
:100DD0006F6F6C646F776E00507265686561742028
:100DE000414253004368616E67652066696C616DBE
:100DF000656E740044697361626C6520737465701C
:100E000070657273004D3834004C6576656C2063F4
:100E10006F726E657273004175746F20686F6D65D7
:100E200000473238004D6F76652061786973004D58
:100E300061696E0024F4D43050C38E20C2A24017E2
:100E4000828B7011127A910D816CD90AA861E10828
:100E5000C7586607615143061E4B5D05C145A7048F
:100E60001A411104093D9803713931034036DB0200
:100E700065339102D4305402802E1D02632CEE01A2
:100E8000752AC501B028A001102781018F256401B2
:100E90002B244B01E0223401AC211F018D200D01D8
:100EA000801FFC00841EED00971DDF00B81CD200DF
:100EB000E61BC600201BBC00641AB200B219A800D1
:100EC0000A19A0006A189900D117910040178B00E9
:100ED000B516840031167E00B31579003A157300FB
:100EE000C7146F0058146A00EE136600881363007D
:100EF00025135E00C7125B006C12570015125400D8
:100F0000C111510070114F0021114B00D610490042
:100F10008D1047004610440002104200C00F4000F0
:100F2000800F3E00420F3C00060F3B00CB0E380006
:100F3000930E37005C0E3500270E3400F30D32009F
:100F4000C10D3100900D3000600D2E00320D2D00CE
:100F5000050D2C00D90C2B00AE0C2900850C2900A6
:100F60005C0C2700350C27000E0C2600E80B240033
:100F7000C40B2400A00B23007D0B23005A0B21007F
:100F8000390B2100180B2000F80A1F00D90A1E0097
:100F9000BB0A1E009D0A1D00800A1D00630A1C007A
:100FA000470A1B002C0A1B00110A1A00F7091A0035
:100FB000DD091900C4091900AB09190092091700CD
:100FC0007B091800630917004C0916003609160042
:100FD000200916000A091500F5081500E00814009C
:100FE000CC081400B8081400A408140090081300DA
:100FF0007D0812006B081300580812004608120002
:101000003408110023081100120811000108110012
:10101000F0071000E0071000D0071000C007100014
:10102000B0070F00A107100091070E0083070F0003
:1010300074070F0065070E0057070E0049070E00E2
:101040003B070D002E070E0020070D0013070D00B3
:1010500006070D00F9060C00ED060D00E0060C0079
:10106000D4060C00C8060C00BC060C00B0060C0030
:10107000A4060B0099060C008D060B0082060B00DF
:1010800077060B006C060B0061060A0057060B0082
:101090004C060A0042060A0038060A002E060A001C
:1010A00024060A001A060A001006090007060A00AC
:1010B000FD050900F4050900EB050900E20509003A
:1010C000D9050900D0050900C7050900BE050900BA
:1010D000B5050800AD050800A50509009C05080038
:1010E000940508008C050800840508007C050800AC
:1010F000740508006C050700650508005D0507001C
:10110000560508004E050700470507004005080082
:1011100038050700310507002A05070023050700E9
:101120001C050600160507000F0507000805060048
:1011300002050700FB040600F5040700EE040600A4
:10114000E8040600E2040700DB040600D5040600FC
:10115000CF040600C9040600C3040600BD0406004F
:10116000B7040600B1040500AC040600A60406009E
:10117000A00405009B0406009504050090040600E9
:101180008A04050085040500800406007A04050031
:1011900075040500700405006B0405006604050075
:1011A000610405005C0405005704050052040500B5
:1011B0004D04050048040500430405003E040400F6
:1011C0003A04050035040500300404002C04050031
:1011D00027040400230405001E0404001A0404006C
:1011E00016040500110404000D04040009040500A0
:1011F0000404040000040400FC030400F8030400D9
:10120000F4030400F0030400EC030400E80304000A
:10121000E4030400E0030400DC030400D80304003A
:10122000D4030400D0030400CC030400C80303006B
:10123000C503030024F404D9201BC40C5C0E9804DD
:10124000C4095F0265077101F405F900FB04B300EE
:1012500048048700C1036900580355000303450093
:10126000BE023A008402310053022A0029022500FE
:1012700004022000E4011C00C8011900AF0117009E
:101280009801140084011300710110006101100025
:1012900051010E0043010D0036010B002B010B0024
:1012A00020010B00150109000C01090003010800D1
:1012B000FB000800F3000800EB000700E400060054
:1012C000DE000600D8000600D2000600CC000500B3
:1012D000C7000500C2000500BD000400B9000400FD
:1012E000B5000400B1000400AD000400A900040032
:1012F000A5000300A20003009F0004009B00030060
:101300009800030095000200930003009000030082
:101310008D0002008B00030088000200860002009E
:1013200084000300810002007F0002007D000200B3
:101330007B000200790002007700010076000200C5
:101340007400020072000100710002006F000200D0
:101350006D0001006C0002006A00010069000200DB
:1013600067000100660001006500010064000200E2
:101370006200010061000100600001005F000200E6
:101380005D0001005C0001005B0001005A000100EB
:1013900059000100580001005700010056000100EB
:1013A00055000100540001005300000053000100EB
:1013B0005200010051000100500001004F000100E7
:1013C0004E0000004E0001004D0001004C000100E5
:1013D0004B0000004B0001004A00010049000100E1
:1013E00048000000480001004700010046000000DE
:1013F00046000100450000004500010044000100D6
:1014000043000000430001004200000042000100D0
:101410004100000041000100400001003F000000C9
:101420003F0001003E0000003E0001003D000000C2
:101430003D0001003C0000003C0000003C000100B9
:101440003B0000003B0001003A0000003A000100B0
:1014500039000000390001003800000038000000A9
:10146000380001003700000037000100360000009E
:101470003600000036000100350000003500000095
:101480003500010034000000340000003400010089
:101490003300000033000000330001003200000080
:1014A0003200000032000100310000003100000075
:1014B0003100010030000000300000003000010069
:1014C0002F0000002F0000002F0000002F0001005F
:1014D0002E0000002E0000002E0001002D00000054
:1014E0002D0000002D0000002D0001002C00000048
:1014F0002C0000002C0000002C0001002B0000003C
:101500002B0000002B0000002B0001002A0000002F
:101510002A0000002A0000002A0001002900000023
:101520002900000029000000290000002900010016
:10153000280000002800000028000000280000000B
:1015400028000100270000002700000027000000FD
:1015500027000000270001002600000026000000F0
:1015600026000000260000002600010025000000E3
:1015700025000000250000002500000025000000D7
:1015800025000100240000002400000024000000C9
:1015900024000000240001002300000023000000BC
:1015A00023000000230000002300000023000000AF
:1015B00023000100220000002200000022000000A1
:1015C0002200000022000000220001002100000093
:1015D0002100000021000000210000002100000087
:1015E0002100000021000100200000002000000078
:1015F000200000002000000020000000200000006B
:1016000020000000200001001F0000001F0000005B
:101610001F0000001F0000001F0000001F0000004E
:101620001F0001001E0000001E0000001E00000040
:101630001E0000004D383420582059205A20450003
:101640005A25752C45256C752C50256C752C542508
:10165000752C4225752C005072696E74657220726B
:10166000656164792E005072696E746572207265CE
:101670006164792E004572723A4E6F2046696C6142
:101680006D656E7400496E697469616C697A652074
:10169000454550524F4D00436F6E74726F6C00524F
:1016A0006573746F7265206661696C73616665004D
:1016B0004C6F61642073657474696E677300496E62
:1016C000697469616C697A6520454550524F4D00D7
:1016D00053746F72652073657474696E6773004626
:1016E000696C616D656E74004D6F74696F6E005446
:1016F000656D7065726174757265004D61696E002B
:101700004D3330332055312045256920532569005C
:10171000507265686561742041425320636F6E6644
:10172000005072656865617420504C4120636F6E93
:101730006600504944204175746F74756E650050A1
:101740004944204175746F74756E65005049442D8D
:1017500044005049442D44005049442D490050490B
:10176000442D49005049442D50005049442D50000B
:1017700020022046616374002002204661637400E9
:101780002002204D6178002002204D617800200267
:10179000204D6178002002204D696E002002204D0E
:1017A000696E002002204D696E004F6666004F6E24
:1017B00020004175746F74656D700046616E207312
:1017C000706565640046616E2073706565640042F3
:1017D000656400426564004E6F7A7A6C65004E6FF6
:1017E0007A7A6C6500436F6E74726F6C0053746F1D
:1017F00072652073657474696E6773004265640076
:10180000426564004E6F7A7A6C65004E6F7A7A6C2E
:10181000650046616E2073706565640046616E20E8
:1018200073706565640054656D706572617475727E
:101830006500001C1F11111F00000006191803137A
:101840000C00040E1F041C000000001010101010EB
:101850001000001414141414140000151515151597
:101860001500000E1315110E00001C1018170506A8
:101870000500040A0A0A0A11110E0C12120C0000CB
:101880000000001F1511151F0000000000000102DC
:1018900004040000001C1C0C0404040201000000ED
:1018A000000004081000000000004D3130342053C7
:1018B0002575004739322045257500473932205AB1
:1018C00025752E2575004D3530300043616E6365FA
:1018D0006C207072696E7400526573756D6520704E
:1018E00072696E7400506F776572206F75746167EE
:1018F000650025753A2530327500253032753A2558
:10190000303275002D2D2D005344005A00590058D7
:101910000056652D6A65726B0056652D6A65726B9F
:101920000056652D6A65726B00567A2D6A65726B7A
:1019300000567A2D6A65726B0056792D6A65726B56
:101940000056792D6A65726B0056792D6A65726B47
:101950000056782D6A65726B0056782D6A65726B39
:101960000056782D6A65726B004D6F74696F6E005A
:101970004573746570732F6D6D0045737465707376
:101980002F6D6D005A73746570732F6D6D005A73EF
:10199000746570732F6D6D005973746570732F6D5E
:1019A0006D005973746570732F6D6D005873746595
:1019B00070732F6D6D005873746570732F6D6D00AB
:1019C0004D6F74696F6E0053746570732F6D6D0089
:1019D0004A65726B00416363656C65726174696F1F
:1019E0006E0056656C6F6369747900436F6E747234
:1019F0006F6C004F6E200052756E6F7574207365AA
:101A00006E736F72730046696C2E204469612E00FC
:101A100046696C2E204469612E004F6666004F6E49
:101A200020004520696E206D6D33004F66660043CF
:101A30006F6E74726F6C0043616E6E6F7420656EB2
:101A4000746572207375626469723A2000052E2EE7
:101A5000004D61696E006265640A002C2073797321
:101A600074656D2073746F707065642120486561C2
:101A70007465725F49443A200048656174696E6715
:101A8000206661696C65640048656174696E6720F1
:101A90006661696C65640048656174696E6720669B
:101AA00061696C65640048656174696E6720666190
:101AB000696C65640070012C0190012701B001225E
:101AC00001C0011D01F00118011002130130020EC6
:101AD000016002090190020401C002FF000003FA44
:101AE000004003F5008003F000D003EB002004E683
:101AF000007004E100E004DC004005D700C005D21E
:101B0000004006CD00D006C8008007C3003008BEE4
:101B100000F008B900C009B400B00AAF00B00BAAC9
:101B200000D00CA500000EA000500F9B00C0109626
:101B3000005012910000148C00C0158700B017826D
:101B400000B0197D00D01B7800001E730040206E8D
:101B50000090226900F024640040275F0090295A19
:101B600000E02B5500102E500020304B0010324664
:101B700000E033410090353C0010373700703832B8
:101B800000A0392D00B03A2800A03B2300603C1E85
:101B900000103D1900903D1400103E0F00703E0AE9
:101BA00000C03E0500003F0000403FFBFF803FF6C5
:101BB000FFC03FF1FF4572723A204D494E54454DEA
:101BC0005020424544004572723A204D494E5445DA
:101BD0004D50004D494E54454D5020747269676711
:101BE00065726564004572723A204D415854454D06
:101BF0005020424544004572723A204D41585445A8
:101C00004D50004D415854454D50207472696767DE
:101C10006572656400202F002042403A0020403A5F
:101C20000053442063617264206F6B0A006F70651B
:101C30006E526F6F74206661696C65640A00766F1E
:101C40006C756D652E696E6974206661696C65647A
:101C50000A00534420696E6974206661696C0A0049
:101C60006175746F25692E67004D3234004D323333
:101C70002025730057726974696E6720746F20663F
:101C8000696C653A20006F70656E206661696C65ED
:101C9000642C2046696C653A20006F70656E206682
:101CA00061696C65642C2046696C653A2000466960
:101CB0006C652073656C65637465640A0020536904
:101CC0007A653A200046696C65206F70656E6564C0
:101CD0003A20006F70656E206661696C65642C2027
:101CE00046696C653A20002066696C653A2000649C
:101CF0006F696E67006672657368004E6F772000CB
:101D0000454E4420535542524F5554494E450A00C2
:101D10002220706F73002220706172656E743A2207
:101D200000535542524F5554494E452043414C4C67
:101D3000207461726765743A22004B494C4C4544EB
:101D40002E2000747279696E6720746F2063616C55
:101D50006C207375622D67636F64652066696C65BE
:101D600073207769746820746F6F206D616E7920BD
:101D70006C6576656C732E204D4158206C657665D8
:101D80006C2069733A004572726F723A0048617252
:101D900064636F6465642044656661756C74205388
:101DA000657474696E6773204C6F616465640A00C2
:101DB000B80B0000B80B000032000000B80B0000A8
:101DC00000009643000096430000A0410000C84177
:101DD0009A99A0429A99A0420000C8430000BA42D2
:101DE00020440020490020204D3330342050002072
:101DF000440020490020204D33303120500050490C
:101E0000442073657474696E67733A0A0020460053
:101E100020420020480020204D3134352053004D11
:101E20006174657269616C20686561747570207099
:101E30006172616D65746572733A0A002045002015
:101E40005A00205900205800204200205400202031
:101E50004D323035205300416476616E6365643ADB
:101E600020533C6D696E5F66656564726174653EA2
:101E700020543C6D696E5F74726176656C5F666557
:101E80006564726174653E20423C6D696E5F736586
:101E9000676D656E745F74696D655F75733E20581C
:101EA0003C6D61785F78795F6A65726B3E205A3C61
:101EB0006D61785F7A5F6A65726B3E20453C6D614B
:101EC000785F655F6A65726B3E0A0020540020529D
:101ED0000020204D323034205000416363656C6532
:101EE000726174696F6E2028756E6974732F733216
:101EF000293A20503C7072696E745F616363656C4F
:101F00003E20523C726574726163745F6163636505
:101F10006C3E20543C74726176656C5F61636365EE
:101F20006C3E0A00204500205A0020590020204D18
:101F30003230312058004D6178696D756D204163F4
:101F400063656C65726174696F6E2028756E697463
:101F5000732F7332293A0A00204500205A00205975
:101F60000020204D3230332058004D6178696D7566
:101F70006D206665656472617465732028756E698D
:101F800074732F73293A0A00204500205A00205903
:101F90000020204D39322058005374657073207032
:101FA000657220756E69743A0A0020204D32303017
:101FB0002044300A0020204D32303020440020449C
:101FC000697361626C65640A0046696C616D656E77
:101FD000742073657474696E67733A0020204D3104
:101FE00034392043203B20556E69747320696E207C
:101FF00043656C736975730A0020204732312020D5
:1020000020203B20556E69747320696E206D6D0A27
:1020100000434F4D4D554E49434154494F4E0044A6
:10202000525952554E004552524F525300494E4656
:102030004F004543484F004D3132350046696C65CD
:102040002064656C657465643A0044656C65746908
:102050006F6E206661696C65642C2046696C653A18
:1020600020006F70656E206661696C65642C204687
:10207000696C653A20004525692025730050726916
:102080006E7465722072656164792E0032202D2095
:1020900026201F2011206F66660044454255473AAE
:1020A000004D31343520533C696E6465783E206FB5
:1020B0007574206F662072616E67652028302D313F
:1020C000290A00205A3A0020593A0020436F756EC1
:1020D0007420583A0020453A00205A3A0020593AD4
:1020E00000583A003A004361703A00454D45524766
:1020F000454E43595F504152534552004341534569
:102100005F4C494748545F4252494748544E4553F3
:102110005300544F47474C455F4C49474854530080
:10212000534F4654574152455F504F574552004216
:1021300055494C445F50455243454E54004C45561A
:10214000454C494E475F44415441005A5F50524FFD
:102150004245004155544F4C4556454C005052495C
:102160004E545F4A4F420050524F4752455353001E
:102170004155544F5245504F52545F54454D5000B5
:10218000564F4C554D455452494300454550524FCA
:102190004D0053455249414C5F584F4E5F584F4692
:1021A00046004649524D574152455F4E414D453AD2
:1021B0004D61726C696E20312E312E3820284769AE
:1021C000746875622920534F555243455F434F440D
:1021D000455F55524C3A68747470733A2F2F676993
:1021E000746875622E636F6D2F4D61726C696E46F7
:1021F00069726D776172652F4D61726C696E2050E6
:10220000524F544F434F4C5F56455253494F4E3AED
:10221000312E30204D414348494E455F5459504579
:102220003A5072696E74657220455854525544454F
:10223000525F434F554E543A3120555549443A6305
:10224000656465326132662D343161322D34373444
:10225000382D396231322D63353563363266333687
:102260003766660A0000002100240027002A002D9E
:10227000003000330001010000040107010A0100E1
:10228000002200250028002B002E0031003400021F
:10229000010000050108010B0100002000230026B9
:1022A0000029002C002F003200000100000301066D
:1022B00001090105050505070508080808020202CD
:1022C000020A0A08080404040401010101010101D1
:1022D000010303030303030303040707070C0C0CA8
:1022E0000C0C0C0C0C020202020606060606060680
:1022F000060B0B0B0B0B0B0B0B010210202008081D
:102300001020401020408002010201080402010157
:102310000204081020408080402010080402018040
:102320000402018040201008040201080402010197
:1023300002040810204080010204081020408000A0
:10234000000A0B02090C0D0E08070304010000002F
:10235000000000000000000000000000000000007D
:10236000000000000000000000000012111000003A
:10237000000000000000000000000000000000005D
:1023800000000000004D61782054656D703A2031E6
:102390003235004D696E2054656D703A2035005419
:1023A0004265643A4550434F53203130304B004D25
:1023B00061782054656D703A20323635004D696E73
:1023C0002054656D703A20350054303A2045504312
:1023D0004F53203130304B005053553A2047656EF3
:1023E000657269630050726F746F636F6C3A20316D
:1023F0002E3000202020204857205665723A205663
:10240000004657205665723A2056322E31004261FE
:1024100075643A203235303030300047543235362A
:10242000302056332E780045787472756465727367
:102430003A203100687474703A2F2F6D61726C69A4
:102440006E66772E6F7267005072696E74657200E7
:10245000323031372D31322D32352031323A303071
:1024600000312E312E38004D61726C696E00546857
:1024700065726D6973746F727300426F617264206C
:10248000496E666F005072696E74657220496E669F
:102490006F004D61696E0020204E6F7A7A6C653A4C
:1024A00020004261636B004D696E696D756D20544B
:1024B000656D70206973203137302E004865617476
:1024C000696E67206661696C656400457874727531
:1024D0006465206D6F726500526573756D6520705F
:1024E00072696E7400524553554D45204F50544902
:1024F0004F4E533A0020204E6F7A7A6C653A200096
:102500006368616E6765006F662074686520666940
:102510006C616D656E74005761697420666F72201E
:102520007374617274005052494E54205041555397
:1025300045440020204E6F7A7A6C653A2000666927
:102540006C616D656E7420756E6C6F6164005761AF
:10255000697420666F72005052494E5420504155A4
:102560005345440020204E6F7A7A6C653A20005023
:102570006C6561736520776169742E2E2E00486545
:102580006174696E67206E6F7A7A6C65005052498B
:102590004E54205041555345440020204E6F7A7AC6
:1025A0006C653A200068656174206E6F7A7A6C659C
:1025B0002E00507265737320627574746F6E207490
:1025C0006F005052494E542050415553454400200D
:1025D000204E6F7A7A6C653A2000746F20636F6EBC
:1025E00074696E75652E2E2E00616E6420707265A2
:1025F000737320627574746F6E00496E73657274C4
:102600002066696C616D656E74005052494E5420AD
:102610005041555345440020746F6F206C6F6E67B6
:1026200020657874727573696F6E20707265766557
:102630006E7465640A0020636F6C64206578747240
:102640007573696F6E2070726576656E7465640A65
:10265000000000E0C0000000C1000000000000C851
:10266000420000C8420000A0410000000057617213
:102670006E696E673A20486F6D696E672042756DAE
:10268000702044697669736F72203C20310A000221
:1026900002040000A0400000A04000000040000034
:1026A00063430000644300008243FFFFFF4D363068
:1026B0003020486F74656E6420746F6F20636F6C98
:1026C0006420746F206368616E67652066696C6161
:1026D0006D656E740A00526573656E643A20006F12
:1026E0006B00627573793A2070617573656420665A
:1026F0006F7220696E7075740A00627573793A2082
:1027000070617573656420666F7220757365720AF7
:1027100000627573793A2070726F63657373696EC6
:10272000670A004B494C4C45442E20004B494C4C09
:102730002063617573656420627920746F6F206D0A
:1027400075636820696E6163746976652074696D6C
:1027500065202D2063757272656E7420636F6D6DD8
:10276000616E643A2000506C656173652072657318
:102770006574005052494E5445522048414C5445CE
:1027800044005072696E7465722068616C7465648F
:102790002E206B696C6C28292063616C6C65642148
:1027A0000A005654726176206D696E00565472614B
:1027B00076206D696E005654726176206D696E00E8
:1027C000566D696E00566D696E00566D696E0056E5
:1027D0006D6178204500566D6178204500566D6129
:1027E00078204500566D6178205A00566D6178203A
:1027F0005A00566D6178205A00566D617820590054
:10280000566D6178205900566D6178205900566DDB
:102810006178205800566D6178205800566D6178B7
:102820002058004D6F74696F6E00416D61782045CE
:1028300000416D6178204500416D6178205A00416A
:102840006D6178205A00416D6178205900416D61B9
:1028500078205900416D6178205800416D617820E1
:102860005800412D74726176656C00412D7472615F
:1028700076656C00412D7265747261637400412D40
:102880007265747261637400416363656C004163D7
:1028900063656C004D6F74696F6E005344207072F5
:1028A000696E74696E67206279746520004E6F747A
:1028B000205344207072696E74696E670A00486F15
:1028C0006D65202573257325732066697273740006
:1028D0002066697273740A005A0059005800486FE4
:1028E0006D6520004D6F76652058004D6F76652030
:1028F00059004D6F7665205A00457874727564658D
:1029000072004D6F766520302E316D6D004D6F7603
:102910006520316D6D004D6F76652031306D6D0035
:102920004D6F7665206178697300486F74656E64D9
:1029300020746F6F20636F6C6400457874727564E7
:102940006572004D6F7665205A004D6F766520598F
:10295000004D6F7665205800457874727564657215
:10296000004D6F7665205A004D6F76652059004DF9
:102970006F76652058005072657061726500507204
:10298000696E7420706175736564004D3132350075
:10299000002573004D3234005072696E74206162FC
:1029A0006F727465640047323820585900473930D7
:1029B000004731204631303030205A32300047391C
:1029C00031004E6F2053442063617264005072697D
:1029D0006E742066726F6D2053440053746F7020C4
:1029E0007072696E7400526573756D6520707269DE
:1029F0006E740041626F7574205072696E746572F6
:102A0000005061757365207072696E7400436F6E5B
:102A100074726F6C00507265706172650054756EEF
:102A20006500496E666F2073637265656E00426172
:102A3000627973746570205A0000D3E5C1E81124EF
:102A40001FBECFEFD1E2DEBFCDBF00E00CBF13E071
:102A5000A0E0B2E0ECE5FEEE01E00BBF02C00790A3
:102A60000D92A83AB107D9F725E1A8EAB3E001C071
:102A70001D92AE39B207E1F715E1CEE1D5E100E0F4
:102A800006C021970109802FFE010E9486F6CD31F4
:102A9000D10780E00807A9F70E942EDE0C941DF7ED
:102AA0000C9400002F923F924F925F926F927F9210
:102AB0008F929F92AF92BF92CF92DF92EF92FF924E
:102AC0000F931F93CF93DF93CDB7DEB7CC58D109C7
:102AD0000FB6F894DEBF0FBECDBF81E090E09093BB
:102AE0002F1480932E14809164148D3409F422C61F
:102AF000843511F40C94FA2B873411F00C943C2C8F
:102B000080916214909163148430910509F451C549
:102B100054F497FF02C00C94562C20916802823026
:102B200091057CF529C08A35910509F4B5C56CF489
:102B30008B31910509F484C54C9711F00C94562CF7
:102B400080E00E94F5360C94562C8B35910509F4E3
:102B5000A7C58C35910511F00C94562C0E94776A0C
:102B6000B9E72B2EB2E03B2E15E6E12E15E1F12E52
:102B700000E0D12C10E0BEC521110C945D2C0C940A
:102B8000562C222311F40C94562C11E0029709F0D4
:102B900010E00E94583682E50E944C36882309F4E2
:102BA0003EC10E94EA356B017C0140906515509052
:102BB0006615609067157090681580916915909101
:102BC0006A15A0916B15B0916C1588AB99ABAAAB47
:102BD000BBAB20911E1430911F14409120145091D2
:102BE00021142CAB3DAB4EAB5FAB80912214909186
:102BF0002314A0912414B091251424968CAF9DAF7A
:102C0000AEAFBFAF249720E030E0A901C701B60105
:102C10000E9468EF882309F4B2C4A30192016CA951
:102C20007DA98EA99FA90E9468EF81110FC028A9D4
:102C300039A94AA95BA924966CAD7DAD8EAD9FAD37
:102C400024970E9468EF882309F499C420E030E0BB
:102C5000A901C701B6010E9468EF881F8827881F55
:102C600018130BC020E030E040E85FE32C962CAF57
:102C70003DAF4EAF5FAF2C970AC080E090E0A0E878
:102C8000BFEB2C968CAF9DAFAEAFBFAF2C97A3011F
:102C900092016CA97DA98EA99FA90E947EF36CAFB9
:102CA0007DAF8EAF9FAF28A939A94AA95BA9249609
:102CB0006CAD7DAD8EAD9FAD24970E947EF32896BE
:102CC0006CAF7DAF8EAF9FAF28972CAD3DAD4EADB5
:102CD0005FADCA01B9010E94CDEF4B015C0128969E
:102CE0002CAD3DAD4EAD5FAD2897CA01B9010E9434
:102CF000CDEF9B01AC01C501B4010E947FF30E949E
:102D0000EAF568AF79AF8AAF9BAF20E030E040E0F2
:102D10005FE30E94CDEF4B015C01A7019601C70163
:102D2000B6010E94CDEF6B017C01A5019401C501A4
:102D3000B4010E94CDEF9B01AC01C701B6010E9416
:102D40007EF30E94EAF59B01AC012C966CAD7DAD43
:102D50008EAD9FAD2C970E94CDEF4B015C012CA94D
:102D60003DA94EA95FA9C301B2010E947FF320E0F3
:102D700030E040E05FE30E94CDEF6B017C012896DC
:102D80006CAD7DAD8EAD9FAD2897905828AD39AD17
:102D90004AAD5BAD0E945BF49B01AC01C501B4017F
:102DA0000E94CDEF9B01AC01C701B6010E947FF3E9
:102DB000A30192010E947EF36B017C0124962CAD4D
:102DC0003DAD4EAD5FAD249768A979A98AA99BA9AD
:102DD0000E947FF320E030E040E05FE30E94CDEF0F
:102DE0002B013C0128AD39AD4AAD5BAD6CAD7DAD7D
:102DF0008EAD9FAD0E945BF49B01AC01C501B40197
:102E00000E94CDEF9B01AC01C301B2010E947FF390
:102E100028A939A94AA95BA90E947EF314C089E4B4
:102E20000E944C36882329F00E94EA356B017C0110
:102E300003C0C12CD12C76018AE40E944C36882331
:102E4000F9F00E94EA3524966CAF7DAF8EAF9FAF4C
:102E5000249720E030E0A901C701B6010E9468EF85
:102E600081111EC020E030E0A90124966CAD7DAD3B
:102E70008EAD9FAD24970E9468EF811111C07FC372
:102E800020E030E0A901C701B6010E9468EF882365
:102E900009F475C324961CAE1DAE1EAE1FAE24975A
:102EA000A7019601505828AB39AB4AAB5BAB2496CF
:102EB0008CAD9DADAEADBFAD2497B0588CAB9DAB86
:102EC000AEABBFABCA01B9010E94CDEF4B015C01B3
:102ED0002CA93DA94EA95FA9CA01B9010E94CDEF55
:102EE0009B01AC01C501B4010E947FF30E94EAF589
:102EF0006C966CAF7DAF8EAF9FAF6C9720916515D0
:102F000030916615409167155091681528AF39AF1B
:102F10004AAF5BAFA701960168AD79AD8AAD9BADB5
:102F20000E947FF32C966CAF7DAF8EAF9FAF2C9736
:102F30008091691590916A15A0916B15B0916C15EF
:102F400028968CAF9DAFAEAFBFAF289724962CAD1F
:102F50003DAD4EAD5FAD2497BC01CD010E947FF326
:102F600060966CAF7DAF8EAF9FAF609720911E14BF
:102F700030911F14409120145091211464962CAF6D
:102F80003DAF4EAF5FAF64972C962CAD3DAD4EADCF
:102F90005FAD2C9764966CAD7DAD8EAD9FAD6497A3
:102FA0000E947EF36B017C01809122149091231486
:102FB000A0912414B091251468968CAF9DAFAEAF4C
:102FC000BFAF689760962CAD3DAD4EAD5FAD6097DD
:102FD000BC01CD010E947EF34B015C0120916D1577
:102FE00030916E1540916F1550917015A4962CAFCD
:102FF0003DAF4EAF5FAFA497609126147091271438
:1030000080912814909129140E947EF36CAF7DAFBB
:103010008EAF9FAF80912A1490912B14A0912C1405
:10302000B0912D14A0968CAF9DAFAEAFBFAFA0975F
:10303000209171153091721540917315509174154E
:10304000A8962CAF3DAF4EAF5FAFA897A7019601F2
:1030500068A979A98AA99BA90E94CDEF2B013C01FF
:10306000A50194016CA97DA98EA99FA90E94CDEF0D
:103070009B01AC01C301B2010E947FF32B013C0113
:10308000A501940168A979A98AA99BA90E94CDEFFD
:103090004B015C01A70196016CA97DA98EA99FA98E
:1030A0000E94CDEF9B01AC01C501B4010E947EF3EB
:1030B000A30192010E94F2F36B017C0120E030E059
:1030C000A9010E9468EF87FF0AC02BED3FE049ECA1
:1030D00050E4C701B6010E947FF36B017C0111230C
:1030E00051F02BED3FE049EC50E4C701B6010E94DE
:1030F0007EF36B017C0120E030E0A901C701B6013D
:103100000E9468EF811126C064962CAD3DAD4EAD96
:103110005FAD649768AD79AD8AAD9BAD0E9468EFF5
:10312000811118C068962CAD3DAD4EAD5FAD68976E
:1031300028966CAD7DAD8EAD9FAD28970E9468EF4F
:10314000811108C08BEDC82E8FE0D82E89ECE82EB7
:1031500080E4F82E6C962CAD3DAD4EAD5FAD6C9716
:10316000C701B6010E94CDEF9B01AC010E94CDEFDB
:103170004B015C012CAD3DAD4EAD5FADCA01B90157
:103180000E94CDEF9B01AC01C501B4010E947FF309
:103190000E94EAF54B015C012FE632E143E85AE375
:1031A0000E9468EF87FDE7C1C501B4010E94F4F4F5
:1031B0000E94C8F41B01672B19F422242394312C9C
:1031C000B10180E090E00E946CEF4B015C019B013B
:1031D000AC01C701B6010E945BF468AF79AF8AAF5A
:1031E0009BAFA50194016CAD7DAD8EAD9FAD0E94EE
:1031F0005BF46C966CAF7DAF8EAF9FAF6C97A8966B
:103200002CAD3DAD4EAD5FADA897A0966CAD7DAD3C
:103210008EAD9FADA0970E947EF3A50194010E9400
:103220005BF4A0966CAF7DAF8EAF9FAFA09728AD3B
:1032300039AD4AAD5BADCA01B9010E94CDEF20E0C6
:1032400030E040E05FE30E94CDEF9B01AC0160E025
:1032500070E080E89FE30E947EF364966CAF7DAFE0
:103260008EAF9FAF6497A4968CAD9DADAEADBFAD54
:10327000A49789879A87AB87BC87A8962CAD3DAD6C
:103280004EAD5FADA8972D873E874F87588B6091D5
:10329000530270915402072E000C880B990B0E9468
:1032A0006EEF209100023091010240910202509194
:1032B00003020E94CDEF2AE037ED43E25CE30E9477
:1032C000CDEF68A379A38AA39BA30E94E6A99B01E3
:1032D000AC0128533F4F4F4F5F4F68962CAF3DAF27
:1032E0004EAF5FAF689748A859A86AA87BA841E08D
:1032F00050E026965FAF4EAF269759E15CAF269619
:10330000AEADBFAD2697A215B30509F423C10E9447
:1033100067910E94E6A9DC01CB0168962CAD3DAD1A
:103320004EAD5FAD6897821B930BA40BB50BB7FD39
:1033300011C00E94E6A99B01AC0128533F4F4F4F9B
:103340005F4F68962CAF3DAF4EAF5FAF689780E0A0
:103350000E94A6CB3CAD31503CAF332309F441C0B1
:1033600064962CAD3DAD4EAD5FAD64976CA97DA963
:103370008EA99FA90E94CDEF6B017C0128AD39ADCC
:103380004AAD5BADB201C3010E94CDEFA70196012A
:103390000E947FF36B017C0164962CAD3DAD4EAD78
:1033A0005FAD6497B201C3010E94CDEF4B015C0198
:1033B00028AD39AD4AAD5BAD6CA97DA98EA99FA999
:1033C0000E94CDEF9B01AC01C501B4010E947EF3C8
:1033D0002B013C01C601D7018CAB9DABAEABBFABA3
:1033E00057C026964EAD5FAD2697BA0180E090E0BB
:1033F0000E946CEF28AD39AD4AAD5BAD0E94CDEFB8
:103400004B015C010E9458F46B017C01C501B401C1
:103410000E94E0F54B015C01A701960168A979A91A
:103420008AA99BA90E94CDEF2B013C01A501940123
:1034300024966CAD7DAD8EAD9FAD24970E94CDEFEF
:103440009B01AC01C301B2010E947FF32B013C013F
:10345000A501940168A979A98AA99BA90E94CDEF29
:103460004B015C01A701960124966CAD7DAD8EAD3C
:103470009FAD24970E94CDEF9B01AC01C501B40123
:103480000E947EF36CAB7DAB8EAB9FAB59E15CAF22
:103490009201A3012C966CAD7DAD8EAD9FAD2C97A6
:1034A0000E947FF369837A838B839C832CA93DA937
:1034B0004EA95FA960966CAD7DAD8EAD9FAD609756
:1034C0000E947FF36D837E838F8398876C962CADEB
:1034D0003DAD4EAD5FAD6C9769857A858B859C85DA
:1034E0000E947FF369877A878B879C87A0962CAD93
:1034F0003DAD4EAD5FADA0976D857E858F8598897A
:103500000E947FF36D877E878F87988B80917702EB
:10351000882321F0CE0101960E9401C8E090AF0BF4
:103520008E01005E1F4F9E01235F3F4FAE01475F3C
:103530005F4FBE016B5F7F4FCE0101960E9472C448
:1035400026968EAD9FAD2697019626969FAF8EAF9D
:103550002697D5CEE090AF0B8E01005E1F4F2AE27A
:1035600034E146E254E162E274E18EE194E10E94CA
:1035700072C40E94E0360E94EA360C94562CE6E8AB
:10358000FDE184918F010F5F1F4F882321F00E947E
:10359000A938F801F6CFEFE0F2E084918F010F5FD8
:1035A0001F4F882311F40C94562C0E94A938F8015F
:1035B000F4CF80E50E944C36882329F00E94AA357A
:1035C0006B017C0103C0C12CD12C760183E50E94E4
:1035D0004C36882361F00E94EA3520E030E04AE76B
:1035E00054E40E94CDEF0E94C8F46B017C010E945C
:1035F000776A80911002811105C060E085E292E057
:103600000E94CEAE0E94EA368091EE149091EF14A3
:10361000A091F014B091F114C80ED91EEA1EFB1E41
:103620000E94E6A9DC01CB018C199D09AE09BF09F6
:10363000B7FD02C00C94562C80E00E94A6CBF0CFC0
:103640000E9412D481110C94562C80E090E0A0E4EA
:10365000B0E489839A83AB83BC838D839E83AF83DD
:10366000B88780E090E0A0E2B1E489879A87AB87D1
:10367000BC8780E50E944C36882319F00E94BA3539
:1036800001C060E068A3BE016F5F7F4FCE018096EE
:103690000E94F49B0C94562C1092AC030C94562C64
:1036A00081E08093AC030C94562C0E94EA352B01E8
:1036B0003C01D7012D913D914D915C910E947EF38B
:1036C0004B015C012DEB37E346E855EB0E94A5F575
:1036D00087FD18C02DEB37E346E855E3C501B4017B
:1036E0000E9468EF181674F01F5FF4E0EF0EF11CF3
:1036F0001430A1F0F10181911F010E944C36882302
:1037000099F3D3CF133019F0DD24D39401C001E035
:10371000F7014082518262827382E6CFDD2019F088
:103720000E942D3503C001110E94B0D40E94E2A274
:103730000C94562C809162149091631483379105F8
:1037400009F4C5C50CF0C6C08C34910509F4D2C388
:103750000CF06AC08831910509F4ABC2ACF5823136
:10376000910509F475C5BCF497FF02C00C94562C62
:10377000823091050CF4ABC1419711F00C94562C9A
:1037800060E08FE592E00E94CEAE429817981598BF
:103790002E980C94562C8531910509F46FC23CF497
:1037A000449711F00C94562CE7E7F2E024C28631DE
:1037B000910509F467C2479711F00C94562CE091DB
:1037C0006014F091611468C28E31910509F497C2BA
:1037D000C4F48A31910509F48AC20CF484C28B3195
:1037E000910509F488C24C9711F00C94562C40E0D6
:1037F00060E080916014909161140E944C940C944C
:10380000562C8032910509F47EC20CF48DC28A32A6
:10381000910509F42FC38B34910511F00C94562CAB
:103820000E946A990C94562C8936910509F4C0C3FC
:103830003CF58335910509F406C57CF48135910585
:1038400009F4E2C40CF0FBC48D34910511F00C9422
:10385000562C0E949D560C94562C8535910509F4E2
:103860002EC50CF4F5C48C35910509F42CC58836A9
:10387000910511F00C94562C0E9463A50C94562CC3
:103880008E36910509F43AC384F48B36910509F418
:1038900032C40CF40BC48C36910509F437C38D3651
:1038A000910509F4C9C30C94562C8037910509F48D
:1038B00031C30CF427C38137910509F42FC3823734
:1038C000910511F00C94562C0E94776A0E94E2A296
:1038D0000C94562C823E910509F4DBC70CF073C0A2
:1038E0008B39910509F481C3B4F58837910509F442
:1038F00099C5A4F48637910509F4EDC40CF02EC5E2
:103900008537910511F00C94562C60E0809160147D
:10391000909161140E94F1AE0C94562C8D37910554
:1039200009F4FBC35CF48937910511F00C94562C13
:103930001092B7081092B6080C94562C8C3891054A
:1039400009F418C38139910511F00C94562C0E948A
:1039500066A40C94562C8C3C910509F4EAC5F4F449
:10396000883C910509F465C534F48E3B910509F452
:1039700081C30C94562C893C910509F4A2C58B3C5B
:10398000910511F00C94562C46E0E42E45E1F42EFE
:1039900009E712E054E0D52ED00EBCC5833D910559
:1039A00009F4A0C634F48D3C910509F42EC60C949C
:1039B000562C8C3D910509F413C78D3D910509F4F2
:1039C0001EC70C94562C893921E0920711F40C94EF
:1039D0000E2AECF58F3241E0940711F40C941A266C
:1039E000C4F48C32A1E09A0709F48CC734F4823213
:1039F000914009F47AC70C94562C8D32F1E09F0760
:103A000009F4A9C78E32914011F40C94C6250C9488
:103A1000562C833631E0930711F40C943B2B3CF485
:103A20008033914011F40C9449250C94562C803924
:103A3000A1E09A0711F40C940B2A8839914011F0F7
:103A40000C94562C81E080930F110C94562C873FD8
:103A5000E1E09E0711F40C94172AFCF4843F21E066
:103A6000920711F40C94112A4CF48A39914011F008
:103A70000C94562C0E943CA20C94562C853F51E08D
:103A8000950711F40C94142A863F914011F00C9480
:103A9000562C0E94BBA00C94562C803AB3E09B0796
:103AA00009F435C13CF48835924011F40C94232A72
:103AB0000C94562C873E23E0920711F40C947B2B38
:103AC000893D974011F40C94902B0C94562CA090A7
:103AD0006014B090611480E50E944C36882359F040
:103AE0000E94AA356B017C0111E0672B682B692BC2
:103AF00031F410E004C010E0C12CD12C760183E534
:103B00000E944C368823F1F00E94EA3520E030E034
:103B10004AE754E40E94CDEF0E94C8F46B017C0197
:103B2000111112C0672B682B692B71F4A114B10419
:103B300059F0D5018C91882339F061E0C5010E94CC
:103B4000F1AE0FC0112391F360E08CE492E00E948B
:103B5000CEAE10925A0810925B0810925C08109238
:103B60005D0883E090E090932F1480932E1481E001
:103B7000809359080E94776A0E94EA36C114D104E2
:103B8000E104F104F1F08091EE149091EF14A09112
:103B9000F014B091F114C80ED91EEA1EFB1E0E944B
:103BA000E6A9DC01CB018C199D09AE09BF09B7FF5D
:103BB0001EC0809159088823D1F080E00E94A6CBD6
:103BC000EECF80915908882321F080E00E94A6CB97
:103BD000F8CF8091D6089091D70860E0029719F449
:103BE0008DE392E002C08EE292E00E94CEAE10928F
:103BF00059080C94562C84918F010F5F1F4F882316
:103C000021F00E94A938F801F6CF1092960B10927D
:103C1000950B40E050E0BA018FE199E00E94934A91
:103C20008BE1EFE1F9E0DE01159601900D928A95A6
:103C3000E1F780911D0990911E099C838B8383EA93
:103C400092E09A83898340E050E0BE016F5F7F4F2E
:103C500082E993E00E94C152CE0101960E9442CBBC
:103C6000E8E6F2E084918F010F5F1F4F882311F483
:103C70000C94562C0E94A938F801F4CF0E94969714
:103C80000C94562C1092E6081092E7080C94562CCF
:103C9000803209F41082319680818111F9CF40E0A1
:103CA00061E080916014909161140E944C940C9496
:103CB000562C19821A821B821C8218A219A21AA2DF
:103CC0001BA280913014882341F040E0BE016F5F59
:103CD0007F4FCE0180960E9438CA0E94CC580E9425
:103CE0006A990C94562C0E9448A70C94562C0E945A
:103CF0002EA70C94562C0E9408D50C94562C0E948A
:103D0000F5A50C94562C0E94B9A50C94562C8091C4
:103D100060149091611421E02093E50840E060E098
:103D20000E944C940C94562C0E949658ACE3CA2ED8
:103D3000D12CE12CF12CA70196010E9443F3762EA1
:103D4000672ECA01B901A70196010E9443F36B01D6
:103D50007C01CA01B90128E130E040E050E00E9456
:103D600043F34B015C01C9016DE671E00E9443F62B
:103D70008E010F5F1F4F6115710599F06F927F9251
:103D8000DF92CF929F928F929F938F937F936F93A7
:103D900080EB92E09F938F931F930F930E9401EF0C
:103DA00012C00097B1F06F927F92DF92CF929F92F4
:103DB0008F929F938F9380EA92E09F938F931F93AC
:103DC0000F930E9401EF0FB6F894DEBF0FBECDBF78
:103DD00036C081149104A104B10479F06F927F92EE
:103DE000DF92CF929F928F9284E992E09F938F937C
:103DF0001F930F930E9401EFE6CFC114D104E10499
:103E0000F10469F06F927F92DF92CF928CE892E09A
:103E10009F938F931F930F930E9401EFD4CF6F92C4
:103E20007F9288E892E09F938F931F930F930E9455
:103E300001EF0F900F900F900F900F900F9060E098
:103E4000C8010E94F1AEEEE7FBE084917F019FEF95
:103E5000E91AF90A882321F00E94A938F701F5CF61
:103E6000B80184EC92E00E943C738AE00E94A93879
:103E70000C94562C83E50E944C36882311F40C9444
:103E8000562C0E94CA35E82E80E50E944C368823C5
:103E900041F00E94BA358B0177FF02C00C94562C7A
:103EA00002C006E010E0902FE3E3F4E088E28E0F1A
:103EB0002491921729F031968E13FACF0C94392D54
:103EC000E6E8FDE184918F010F5F1F4F882321F009
:103ED0000E94A938F801F6CFE1EDF2E084918F015C
:103EE0000F5F1F4F882311F40C94562C0E94A938A1
:103EF000F801F4CF0E94EED40C94562C0E9453A5E6
:103F00000C94562C0E94DCA40C94562C109278022F
:103F10000C94562C80EE92E00E9455CB83E50E94D3
:103F20004C36882369F00E94CA358D3320F4809383
:103F30006F020C94562C8CE380936F020C94562CD9
:103F4000EEE7FBE084918F010F5F1F4F882321F084
:103F50000E94A938F801F6CF40916F0250E060E06E
:103F600070E089EE92E00E94CC728AE00E94A9384B
:103F70000C94562C8091AA0B83FF02C00C94562CF3
:103F800083E50E944C36882311F40C94562C0E9431
:103F9000EA350E94C3F46E37710514F06DE770E0E6
:103FA00070934815609347150E94DD8D0C94562C34
:103FB00089E690E00E94BF3B811111C0E0EFF2E082
:103FC00084918F010F5F1F4F882321F00E94A93831
:103FD000F801F6CF0E94518D8AE00E94A938109214
:103FE0002F1410922E140C942D3283E50E944C361F
:103FF000882311F40C94562C0E94CA35182F8D3347
:1040000008F01CE31093EB140E94E6A96B017C01FD
:10401000212F30E0A8EEB3E00E946FF3C60ED71E4A
:10402000E81EF91EC092E714D092E814E092E91459
:10403000F092EA140C94562C8DE690E00E94BF3B5F
:1040400081110C94562C8091AA0B83FF02C00C9412
:10405000562C83E50E944C3621968FAF2197811113
:104060000C944F2D82E50E944C3681110C944F2DFB
:104070000C94562C8091AA0B83FF02C00C94562CF2
:1040800060E089E293E00E94CEAE83E50E944C3668
:1040900021968FAF219781110C94CE2E82E50E943C
:1040A0004C3681110C94CE2E0C94562C80E50E9437
:1040B0004C36811108C083E50E944C36811109C03D
:1040C0003FEF20E00AC00E94CA3581110C94562CA3
:1040D000F2CF0E94BA35362F272F832F922F8F3F92
:1040E000910519F010F08FEF90E090934C158093AC
:1040F0004B150C94562C80E50E944C36811106C05D
:1041000010924C1510924B150C94562C0E94BA35F7
:10411000672B11F00C94562CF3CF8CE40E941D36C3
:10412000882319F00E94EA3504C060E070E080E066
:1041300090EC6CA37DA38EA39FA380E090E0A0E40D
:10414000B0E489839A83AB83BC838D839E83AF83E2
:10415000B88780E090E0A0E2B1E489879A87AB87D6
:10416000BC8788E50E944C36882379F088E50E9458
:104170004C36882319F00E94EA3503C060E070E0F5
:10418000CB0169837A838B839C8389E50E944C36BB
:10419000882379F089E50E944C36882319F00E9423
:1041A000EA3503C060E070E0CB016D837E838F83CE
:1041B00098878AE50E944C36882379F08AE50E9428
:1041C0004C36882319F00E94EA3503C060E070E0A5
:1041D000CB0169877A878B879C8718A219A21AA2BC
:1041E0001BA28091301481110C94562C00E020E029
:1041F000AE01405E5F4FBE016F5F7F4FCE01849680
:104200000E945EC90C94562C0E94738E0E94776A9D
:104210000E944CCB10924C1510924B1568EE73E037
:1042200080E090E00E9429AE0E94776A0E94B53437
:1042300060E086E393E00E94CEAE0C94562C109280
:10424000AB030C94562C81E08093AB030C94562C5A
:1042500083E50E944C368823A1F00E94EA3520E0D5
:1042600030E04AE754E40E94CDEF0E94C8F4609326
:1042700070027093710280937202909373020C9497
:10428000562C88E50E941D3681110C941F3089E55B
:104290000E941D3681110C941F308AE50E941D3644
:1042A00081110C941F3085E40E941D3681110C94FD
:1042B0001F300E94776A0E944CCB0C94562C0E94AF
:1042C0004EA40C94562C0E94B0A30C94562C0E9421
:1042D0009BA20C94562C85E40E944C36882319F03E
:1042E0000E94DB3503C085E40E941D36882361F0FF
:1042F000EEE7FBE084918F010F5F1F4F882321F0D1
:104300000E94A938F801F6CF81E40E944C36882338
:1043100019F00E94DB3503C081E40E941D3688231A
:1043200061F0E3E4F3E084918F010F5F1F4F882376
:1043300021F00E94A938F801F6CF00916014109185
:104340006114D8018D918D01882319F00E94A9383C
:10435000F8CF8AE00E94A9380C94562CEFE5F3E0E0
:1043600084918F010F5F1F4F882321F00E94A9388D
:10437000F801F6CFE7E5F3E084918F010F5F1F4F5F
:10438000882321F00E94A938F801F6CF029B03C0D0
:104390000BEE12E002C000EF12E0F80181918F01F4
:1043A000882319F00E94A938F8CF8AE00E94A93822
:1043B000EFE4F3E084918F010F5F1F4F882321F01A
:1043C0000E94A938F801F6CF069B03C00BEE12E05D
:1043D00002C000EF12E0D8018D918D01882319F001
:1043E0000E94A938F8CF8AE00E94A938E7E4F3E0F8
:1043F00084918F010F5F1F4F882321F00E94A938FD
:10440000F801F6CF379B03C00BEE12E002C000EFBD
:1044100012E0F80181918F01882309F49ACF0E945C
:10442000A938F7CF81E08093B7088093B6080C9441
:10443000562C88EC90E00E94BF3B81110C94562CC6
:1044400084E40E941D368823C1F10E94EA3511E000
:1044500020E030E0A9010E9468EF811101C010E066
:1044600010931411112349F10E94EA35E09136119D
:1044700024E0E29FF0011124E05FFE4E608371832F
:104480008283938320E030E0A90160911011709144
:10449000111180911211909113110E9468EF8111F6
:1044A0000CC080E090E0A0EEBFE3809310119093E9
:1044B0001111A0931211B09313110E94D9B60C944C
:1044C000562C66E1E62E65E1F62E09E712E074E06F
:1044D000D72ED00ED8018D918D010E941D368823D4
:1044E00049F00E94EA350E94C8F4F70160837183A5
:1044F00082839383F4E0EF0EF11CD012EBCF0E9485
:104500001BC30C94562CF4E0EF0EF11CD01611F4E2
:104510000C94562CD8018D918D010E941D36882354
:1045200091F30E94EA35F70160837183828393835C
:10453000EACF83E50E941D368823D9F00E94EA3530
:10454000AB01BC0140932E1550932F15609330158D
:1045500070933115409326155093271560932815B5
:104560007093291583ED93E00E9406738AE00E9400
:10457000A93880E50E941D36882399F00E94EA350B
:10458000AB01BC0140932E1550932F15609330154D
:104590007093311586EB93E00E9406738AE00E94C7
:1045A000A93882E50E941D36882399F00E94EA35D9
:1045B000AB01BC0140932A1550932B1560932C1529
:1045C00070932D1587E993E00E9406738AE00E949C
:1045D000A93884E50E941D36882311F40C94562CCA
:1045E0000E94EA35AB01BC01409326155093271574
:1045F000609328157093291589E793E00E9406734C
:104600008AE00E94A9380C94562C83E50E941D363E
:10461000882351F00E94EA356093021570930315C8
:10462000809304159093051584E50E941D36882318
:1046300051F00E94EA356093FE147093FF1480934A
:1046400000159093011582E40E941D36882351F0D5
:104650000E94AA356093011470930214809303148E
:104660009093041488E50E941D36882351F00E941F
:10467000EA356093FF1070930011809301119093BD
:10468000021189E50E941D36882351F00E94EA3507
:104690006093031170930411809305119093061198
:1046A0008AE50E941D36882351F00E94EA35609306
:1046B0000711709308118093091190930A1185E4F2
:1046C0000E941D36882311F40C94562C0E94EA3562
:1046D00060930B1170930C1180930D1190930E1138
:1046E0000C94562CEEE7FBE084918F010F5F1F4F77
:1046F000882321F00E94A938F801F6CF83E50E94B3
:104700001D36882321F00E94DB3580937702E3E297
:10471000F4E084918F010F5F1F4F882321F00E94E6
:10472000A938F801F6CF80917702811103C0EFE13B
:10473000F4E002C0EBE1F4E084918F010F5F1F4FC2
:10474000882321F00E94A938F801F6CFE3E1F4E0D4
:1047500084918F010F5F1F4F882321F00E94A93899
:10476000F801F6CF40E050E0BA0181E194E00E9408
:10477000067340E050E0BA018EE094E00E940673B8
:1047800040E050E0BA018BE094E00E940673E3E061
:10479000F4E084918F010F5F1F4F882321F00E9466
:1047A000A938F801F6CF40E050E06CE573E481E011
:1047B00094E00E94067340E050E06CE573E48EEFF5
:1047C00093E00E94067340E050E062E873E48BEFF0
:1047D00093E00E9406738AE00E94A9380C94562C3C
:1047E00083E50E944C36882311F40C94562C0E94C9
:1047F000BA3570935402609353020C94562C8DED8D
:1048000090E00E94BF3B81110C94562C83E50E94DE
:104810004C36882311F40C94562C0091361110E07C
:104820000E94BA35000F111FF801EF5AFD4F718336
:1048300060838091361190E08C01000F111F000FF2
:10484000111F9801235B3D4F7901880F991FFC01CF
:10485000EF5AFD4F60817181072E000C880B990B78
:104860000E946EEF2AE037ED43E25CE30E94CDEF59
:10487000F801E555F44F20813181428153810E9436
:10488000CDEFD7016D937D938D939C9313970C94EB
:10489000562C80E50E941D36882311F40C94562C6A
:1048A0000E94BA356B017C0183E50E944C36882357
:1048B00021F00E94BA358B0102C00FEF1FEFC80133
:1048C0000196039708F0F2C7D7FE01C0EFC79C2DF1
:1048D000E3E3F4E088E28E0F2491921709F4E6C72F
:1048E00031968E13F9CF0C9404328AE50E944C362F
:1048F00081110C943E3083E50E944C3681110C945A
:104900003E30D4C783E50E944C36882319F00E94BC
:10491000BA3502C064E071E079A368A380E50E9423
:104920004C36882339F00E94BA356938B3E17B07E9
:1049300030F402C068EE73E07A83698304C088E8CB
:1049400093E19A838983BE01605E7F4FCE01019619
:104950000E941E99ABC785E40E944C36811110C09D
:1049600080E50E941D36882391F00E94EA3560930D
:10497000AB107093AC108093AD109093AE1007C045
:104980000E94CA35882361F3E6E8FDE171C089E43D
:104990000E941D36882381F00E94EA352CEA35EC0E
:1049A00047E25EE30E94CDEF6093B3107093B410C2
:1049B0008093B5109093B61084E40E941D3688232E
:1049C00081F00E94EA352CEA35EC47E25EE30E9472
:1049D0005BF46093AF107093B0108093B11090931C
:1049E000B210EEE7FBE084918F010F5F1F4F882329
:1049F00021F00E94A938F801F6CF4091AB105091F8
:104A0000AC106091AD107091AE1083E694E00E94FE
:104A100006732CEA35EC47E25EE36091B3107091C7
:104A2000B4108091B5109091B6100E945BF4AB0168
:104A3000BC018FE594E00E94E9722CEA35EC47E274
:104A40005EE36091AF107091B0108091B1109091C1
:104A5000B2100E94CDEFAB01BC018BE594E00E9447
:104A6000E9728AE00E94A93821C70E94A938F8019A
:104A700084918F010F5F1F4F8111F7CF0DE013E07D
:104A8000F80181918F01882309F463CC0E94A93831
:104A9000F7CF80E50E941D36882351F00E94EA3549
:104AA00060932A1170932B1180932C1190932D11E8
:104AB00089E40E941D36882381F00E94EA352CEAA1
:104AC00035EC47E25EE30E94CDEF609326117093D0
:104AD0002711809328119093291184E40E941D3698
:104AE000882381F00E94EA352CEA35EC47E25EE348
:104AF0000E945BF460932211709323118093241120
:104B000090932511EEE7FBE084918F010F5F1F4F1B
:104B1000882321F00E94A938F801F6CF40912A118C
:104B200050912B1160912C1170912D118FE694E012
:104B30000E9406732CEA35EC47E25EE36091261191
:104B40007091271180912811909129110E945BF496
:104B5000AB01BC018BE694E00E94E9722CEA35ECD3
:104B600047E25EE36091221170912311809124113C
:104B7000909125110E94CDEFAB01BC0187E694E036
:104B80000E94E9728AE00E94A93890C683E50E94DB
:104B90001D36182F882371F00E94EA350E94C3F455
:104BA00070936E0260936D0221E0672B09F020E0A4
:104BB0002093EA1380E50E941D36882359F0209146
:104BC0006D0230916E02232B11F00E94DB35809331
:104BD000EA136CC611116AC6EEE7FBE084918F01FF
:104BE0000F5F1F4F882321F00E94A938F801F6CFEC
:104BF0008091EA13811103C06AEF72E002C06DEE8A
:104C000072E088E894E00E943C7360916D027091BC
:104C10006E0287E794E00E942373E3E7F4E0849157
:104C20008F010F5F1F4F882309F440C60E94A938E7
:104C3000F801F5CF85E40E944C36882321F00E94CC
:104C4000BA357B0102C0E12CF12C83E40E944C3682
:104C5000882331F00E94BA35AF966FAFAF9704C08A
:104C600045E0AF964FAFAF9785E50E944C3688235D
:104C700019F00E94DB3503C085E50E941D36EB96D6
:104C80008FAFEB97F7FC07C0812C912C86E1A82E03
:104C900083E4B82E06C0812C912C0CE8A02E02E4EF
:104CA000B02E83E50E944C36882321F00E94EA351D
:104CB0004B015C01E114F10411F410923611E8AAE1
:104CC0000E94E6A92B013C0158A957FD02C00CE344
:104CD00001C004EB61E06E0D623028F41EE1E12EAC
:104CE00013E0F12E0BC001E313E0D8018D918D018B
:104CF000882309F42ECB0E94A938F7CFF7018191C0
:104D00007F01882319F00E94A938F8CF8AE00E9419
:104D1000A9380E94738EF8A9F7FF04C08FE780932B
:104D2000351108C028A9E22F220FFF0BEC5CFE4EC4
:104D30008FE78083C501B4010E94C3F4072E000CE5
:104D4000880B990B0E946EEF68AF7CAF25968FAFF2
:104D5000259729969FAF2997A02F000FBB0B28EE10
:104D600033E00E948EF6EF966CAF7DAF8EAF9FAFB3
:104D7000EF97DC01CB01840D951DA61DB71DC9570A
:104D8000DF4F88839983AA83BB83C758D04081E0D3
:104D900080937802E6964CAE5DAE6EAE7FAEE6973F
:104DA000C158DF4F488259826A827B82CF57D040F8
:104DB000E2961FAEE297CD57DF4F188219821A8212
:104DC0001B82C358D040A1961FAEA19790E4A59630
:104DD0009FAFA597ACE16996AFAF6997B6E46D96C2
:104DE000BFAF6D97A9961FAEA997AA961FAEAA97B7
:104DF000AB961FAEAB97AC961FAEAC9768961CAE49
:104E00001DAE1EAE1FAE689764961CAE1DAE1EAEE4
:104E10001FAE6497C12CD12C7601AFE78A2E912C5E
:104E2000A12CB12C2FE730E040E050E024962CAFCD
:104E30003DAF4EAF5FAF2497EA961CAE1DAE1EAEDF
:104E40001FAEEA9731E0E1963FAFE1972E961FAE95
:104E50001EAE2E9710E0212C312C00E048A9842FA3
:104E6000440F990BDC01AC5CBE4EC557DF4FB983D4
:104E7000A883CB58D040880F991F880F991FFC0139
:104E8000EA51FC4EAE96FFAFEEAFAE97AF962FADA8
:104E9000AF97022E000C330BE0963FAF2EAFE0979A
:104EA00080917802882309F40CC10E94E6A96CABBA
:104EB0007DAB8EAB9FAB80913211882309F4E1C0AA
:104EC0000E94328F38A937FF09C01091D01020906E
:104ED000D1103090D2100091D3100DC0AE96AEAD6F
:104EE000BFADAE971C9111962C90119712963C90E5
:104EF000129713960C91212F322D432D502FA996E6
:104F00006FADA997AA967FADAA97AB968FADAB97D9
:104F1000AC969FADAC970E9468EF87FF0CC0A99636
:104F20001FAFA997AA962FAEAA97AB963FAEAB97A5
:104F3000AC960FAFAC97212F322D432D502FA19659
:104F40006FADA197A5967FADA59769968FAD69972F
:104F50006D969FAD6D970E94A5F5181664F4A19605
:104F60001FAFA197A5962FAEA59769963FAE6997FB
:104F70006D960FAF6D97E196BFADE19728AD3CAD53
:104F800025964FAD259729965FAD2997612F722DF4
:104F9000832D902FBB2309F458C00E94A5F5181645
:104FA0000CF06FC04CA95DA96EA97FA944195509E1
:104FB00066097709DB01CA0188589341A109B10943
:104FC000B7FD5FC024968CAD9DADAEADBFAD24974F
:104FD00088199909AA09BB09E8A9B595A7959795D4
:104FE0008795E7FF03C08093351107C0C557DF4F92
:104FF000E881F981CB58D0408083EA964CAF5DAF11
:105000006EAF7FAFEA97F8ADA996FFAFA9972CAD29
:10501000AA962FAFAA9725963FAD2597AB963FAF9F
:10502000AB9729964FAD2997AC964FAFAC978CA90B
:105030009DA9AEA9BFA9E6968CAF9DAFAEAFBFAF9D
:10504000E697E1961FAEE1971CC00E9468EF87FFCC
:1050500018C08CA99DA9AEA9BFA9E6962CAD3DADFF
:105060004EAD5FADE697821B930BA40BB50BAC0165
:10507000BD01485853416109710977FD02C00C9484
:10508000773020E030E040EA51E468AD7CAD259611
:105090008FAD259729969FAD29970E947FF39B019D
:1050A000AC01612F722D832D902F0E94A5F518164B
:1050B0007CF4E6E9F5E084918F010F5F1F4F8111C9
:1050C00003C00E94738EF2C30E94A938F801F3CF87
:1050D0008CA99DA9AEA9BFA9C158DF4F28813981EC
:1050E0004A815B81CF57D040821B930BA40BB50B39
:1050F000B7FDA9C00E94518D8AE00E94A9388CA9F1
:105100009DA9AEA9BFA98053984FAF4FBF4FC158BB
:10511000DF4F88839983AA83BB83CF57D040E29621
:105120009FADE297911170C0CD57DF4F2881398133
:105130004A815B81C358D040612F722D832D902FFF
:105140000E94A5F518160CF048C020E030E040ECB5
:1051500050E468AD7CAD25968FAD259729969FAD1F
:1051600029970E947EF39B01AC01A1E0E296AFAFCC
:10517000E297612F722D832D902F0E94A5F51816AE
:105180001CF0E2961FAEE29720E030E040E050E4F1
:10519000612F722D832D902F0E947FF3CD57DF4F0B
:1051A000688379838A839B83C358D0402CA93DA907
:1051B0004EA95FA9EF968CAD9DADAEADBFADEF979B
:1051C000280F391F4A1F5B1FC957DF4F28833983B8
:1051D0004A835B83C758D04036C08CA99DA9AEA92D
:1051E000BFA9C957DF4F288139814A815B81C758E0
:1051F000D040821B930BA40BB50BB7FD24C048E72E
:1052000055E067E875E01CC020E030E040EA51E47A
:1052100068AD7CAD25968FAD259729969FAD2997D2
:105220000E947EF39B01AC01612F722D832D902F84
:105230000E9468EF87FF07C048E555E068E675E023
:1052400088A90E94548F8CA99DA9AEA9BFA9880FD7
:10525000991FAA1FBB1FE6962CAD3DAD4EAD5FADAD
:10526000E697821B930BA40BB50B84199509A6092D
:10527000B70981389F44A241B10568F0EAE3F5E03F
:1052800084918F010F5F1F4F882309F41ACF0E946A
:10529000A938F801F5CF2E964EAD5FAD2E97E0966A
:1052A0008EAD9FADE097841795070CF0B1C0EDED82
:1052B000F4E084918F010F5F1F4F882321F00E943B
:1052C000A938F801F6CF98A997FD03C002E913E0C9
:1052D00002C00EEF12E0B8018BEC94E00E943C7328
:1052E000B701A60187EC94E00E9406738AE00E9451
:1052F000A938B80185EB94E00E943C7364964CADEC
:105300005DAD6EAD7FAD649781EB94E00E94067356
:105310008AE00E94A938B8018FE994E00E943C73AA
:1053200068964CAD5DAD6EAD7FAD68978BE994E04E
:105330000E9406738AE00E94A938EB96AFADEB9706
:10534000AA2309F4B3C2B8A9B7FF31C0C0922A1189
:10535000D0922B11E0922C11F0922D112CEA35EC09
:1053600047E25EE364966CAD7DAD8EAD9FAD649714
:105370000E94CDEF6093261170932711809328111E
:10538000909329112CEA35EC47E25EE368966CAD08
:105390007DAD8EAD9FAD68970E945BF46093221146
:1053A0007093231180932411909325117FC2C09292
:1053B000AB10D092AC10E092AD10F092AE102CEA8F
:1053C00035EC47E25EE364966CAD7DAD8EAD9FAD8E
:1053D00064970E94CDEF6093B3107093B4108093E4
:1053E000B5109093B6102CEA35EC47E25EE3689670
:1053F0006CAD7DAD8EAD9FAD68970E945BF4609300
:10540000AF107093B0108093B1109093B2104EC251
:105410000E942D4445CD0E94776A48C210920F1118
:1054200045C20E945B5942C20E945E5E3FC283E554
:105430000E941D36882321F00E94DB3591E08927E8
:105440000E942F9D33C280E090E0A0E4B0E4898305
:105450009A83AB83BC838D839E83AF83B88780E0C0
:1054600090E0A0E2B1E489879A87AB87BC870E946D
:1054700012D4882319F081E00E94F53685E40E9459
:105480001D36882319F00E94EA3504C060E070E000
:1054900080E090EC6CA77DA78EA79FA78AE50E946D
:1054A0004C36882379F08AE50E944C36882319F01F
:1054B0000E94EA3503C060E070E0CB0169877A871B
:1054C0008B879C8788E50E944C36882379F088E595
:1054D0000E944C36882319F00E94EA3503C060E030
:1054E00070E0CB0169837A838B839C8389E50E947A
:1054F0004C36882379F089E50E944C36882319F0D0
:105500000E94EA3503C060E070E0CB016D837E83CA
:105510008F83988785E50E941D36882319F00E94A5
:10552000EA3504C060E070E088EC93EC68A779A7E6
:105530008AA79BA78CE40E941D36882319F00E943D
:10554000EA3504C060E070E088EC93E46CA37DA3CE
:105550008EA39FA382E40E944C36882321F00E94F0
:10556000BA35162F01C015E0E090D608F090D708A4
:1055700080913014811178C001E0212FAE01485D87
:105580005F4FBE016F5F7F4FCE018C960E945EC958
:10559000882309F469C083E090E090932F148093EE
:1055A0002E1481E08093590880915908882309F4CA
:1055B00041C060E0812F0E942E33809177088823BC
:1055C000A9F188E090E00E9427478091590888233C
:1055D00021F081E00E94A6CBF8CF10922E111092FC
:1055E0002F111092301110923111109277080E94F1
:1055F000288EDCD782E090E00E9427470E94E6A92F
:10560000DC01CB0188539045AF4FBF4F80932E11E3
:1056100090932F11A0933011B0933111109277080D
:105620000093590861E0812F0E942E3381E00E948F
:10563000A6CBBACF81E090E090932F1480932E14E4
:1056400080E090E0A8E4B2E488A399A3AAA3BBA356
:1056500080913014882341F0412FBE01605E7F4F5E
:10566000CE0184960E9438CAEA94EF2809F01EC140
:105670000E946A991BC180E50E944C36882331F054
:105680000E94CA358093270411E001C010E083E531
:105690000E944C36882329F00E94DB358093280431
:1056A00001C011110E942DA2EEE7FBE084918F0151
:1056B0000F5F1F4F882321F00E94A938F801F6CF11
:1056C0008091280481110CC00AE513E0D8018D9166
:1056D0008D01882311F40C94A9210E94A938F6CFDA
:1056E0006091270470E08AE096E00E9423738AE0CC
:1056F0000E94A938DBC081E0809368021092951166
:1057000083E50E944C36882319F00E94DB3503C0E4
:1057100083E50E941D368111C9C00E9436CEC6C0E5
:1057200086E50E941D36882351F00E94EA35609379
:1057300004027093050280930602909307021DA253
:105740001CA282E793E099A388A39E012C5D3F4FA2
:1057500044E050E064E072E0CE0180960E948F4702
:105760008CA19DA19A838983E8A0F9A080E793E0AA
:1057700099A388A39E012C5D3F4F42E050E0BE01FB
:105780006F5F7F4FCE0180960E948F47EEE7FBE070
:1057900084918F010F5F1F4F882321F00E94A93849
:1057A000F801F6CFB7016057734086E396E00E9498
:1057B000237349815A8160E070E08AE196E00E949B
:1057C000CC72E7E1F6E084918F010F5F1F4F8823D1
:1057D00021F00E94A938F801F6CFE8E4F6E08491C0
:1057E0008F010F5F1F4F882309F460C00E94A93802
:1057F000F801F5CFF0906214FF2029F1EEE7FBE00D
:1058000084918F010F5F1F4F882321F00E94A938D8
:10581000F801F6CF84E50E94A9386F2D70E080E092
:1058200090E04AE00E94593B80E20E94A9380DE0D6
:1058300013E0F80181918F01882311F40C94A921C0
:105840000E94A938F6CF1092AF0BEEE7FBE08491EF
:105850008F010F5F1F4F882321F00E94A938F801A4
:10586000F6CF6091AF0B70E083E596E00E94237362
:105870008AE00E94A9381AC0EEE7FBE084918F010C
:105880000F5F1F4F882321F00E94A938F801F6CF3F
:105890006091EC147091ED1485E696E00E943C73E3
:1058A00082E20E94A9388AE00E94A93810922F143F
:1058B00010922E140E9417CED0C50E945836209107
:1058C0007115309172154091731550917415609156
:1058D0002A1470912B1480912C1490912D140E94F5
:1058E0007EF32AE037ED43E25CE30E94A5F518164B
:1058F00074F48091491590914A15803A91053CF4D1
:105900000E9448A760E081E092E00E94CEAE8091C4
:105910007702882321F08EE194E10E9401C80E9461
:10592000EA368091AA0B83FD86C0C0902A14D090DD
:105930002B14E0902C14F0902D14209171153091BF
:1059400072154091731550917415C701B6010E94EC
:1059500068EF882309F46FC00E943EC9882301F1D3
:10596000C0927115D0927215E0927315F092741571
:10597000EEE7FBE084918F010F5F1F4F882321F03A
:105980000E94A938F801F6CFE6EEF1E084918F018C
:105990000F5F1F4F882321F00E94A938F801F6CF2E
:1059A000C0902A14D0902B14E0902C14F0902D1459
:1059B00020917115309172154091731550917415A5
:1059C000C701B6010E947EF39F77E091AF0B24E000
:1059D000E29FF0011124E35BFD4F20813181428180
:1059E00053810E94CDEF20E030E048EC53E40E9468
:1059F000A5F5181604F5C0927115D0927215E092B3
:105A00007315F0927415EEE7FBE084918F010F5F40
:105A10001F4F882321F00E94A938F801F6CFE7EC48
:105A2000F1E084918F010F5F1F4F882321F00E94C6
:105A3000A938F801F6CF6091530270915402072EF5
:105A4000000C880B990B0E946EEF209100023091A0
:105A5000010240910202509103020E94CDEF2AE020
:105A600037ED43E25CE30E94CDEF59D70E94E03668
:105A70001DCF61E0802F0E94ABA86E2D802F0E9469
:105A80005BA8F12CB701802F0E94E7A8093011050F
:105A900009F00CCFF0924C15E0924B1507CF0E9405
:105AA000EA350E94C3F470934A156093491580E06B
:105AB0000E94288E0E94EA3520E030E04AEA52E453
:105AC0000E9468EF181644F00E949D5660E08CE03A
:105AD00093E00E94CEAE02C00E946A99609149157F
