:100000000C94A0190C94D1190C94D1190C94D119F9
:100010000C94D1190C94D1190C94D1190C94D119B8
:100020000C94D1190C94D1190C94D1190C94D119A8
:100030000C94D1190C94D1190C94D1190C94D11998
:100040000C94D1190C941B930C94D1190C94D119C4
:100050000C94D1190C94D1190C94F0A20C9439B7CA
:100060000C94D1190C94BD3B0C94D1190C94D1195A
:100070000C94D1190C94D1190C94D1190C94D11958
:100080000D9418110C94D1190C94D1190C94D11908
:100090000C94D1190C94D1190C94D1190C94D11938
:1000A0000C94D1190C94D1190D94EB100C94D11916
:1000B0000C94D1190C94D1190C94D1190C94C99C9D
:1000C0000C94D1190C94D1190C94D1190C94D11908
:1000D0000C94D1190C94D1190C94D1190C94D119F8
:1000E0000C94D119699272927C9285928E92A99207
:1000F000B692BF929792A09240B543B532B536B54D
:100100003CB57AB547B54BB551B555B559B55FB5A1
:1001100063B567B57AB56DB571B575B555B65AB6EF
:100120005FB669B673B6ECB67DB685B68DB697B6D2
:10013000A1B6ABB6BAB6C4B6ECB6CEB6D8B6E2B6D1
:10014000084AD73B3BCE016E84BCBFFDC12F3D6C3E
:1001500074319ABD56833DDA3D00C77F11BED9E4A4
:10016000BB4C3E916BAAAABE000000803F05A84C84
:10017000CDB2D44EB93836A9020C50B99186880850
:100180003CA6AAAA2ABE000000803F000D94280CBD
:100190000D947E0A0D94790A0D94EA000D94B90A23
:1001A0000D94740A0D941E0C0D9483070D949E29D2
:1001B0000D94230C0D94BF260D94560A0D94430004
:1001C0000D94510A0D945B0A0D940A020D944C0A89
:1001D0004E414E494E495459494E46CDCCCC3D0A2C
:1001E000D7233C17B7D13877CC2B329595E6241F0F
:1001F000B14F0A000020410000C84200401C4620C8
:10020000BCBE4CCA1B0E5AAEC59D74434F4D4D55D6
:100210004E49434154494F4E0044525952554E00A5
:100220004552524F525300494E464F004543484FA6
:100230000054454D5020544F4F204C4F57210047FC
:10024000322F47332062616420706172616D657482
:100250006572730A00536C6565702E2E2E0020287F
:1002600044525952554E2900473239204175746F16
:1002700020426564204C6576656C696E6700284293
:100280002961636B00284629726F6E740028522919
:100290006967687400284C29656674003F285629F0
:1002A0006572626F7365206C6576656C206973207A
:1002B000696D706C61757369626C652028302D34CE
:1002C000292E0A00426164205A2076616C75650A05
:1002D000004E6F2062696C696E6561722067726999
:1002E000640A00205A3A200020593A2000426564EE
:1002F00020583A20004E6F206D6F76652E00456EB7
:10030000642066696C65206C6973740A00426567D5
:10031000696E2066696C65206C6973740A004525F6
:1003200069202573005072696E7465722072656170
:1003300064792E002C022702200219020B026F663C
:10034000660044454255473A004B494C4C45442EC3
:1003500020004D3131332053006F6B0048656174CC
:10036000696E6720646F6E652E0020573A00452540
:1003700069202573005072696E7465722072656120
:1003800064792E0042656420646F6E652E002057EC
:100390003A004265642048656174696E672E0050BA
:1003A00072696E746572204F66662E004D31343569
:1003B00020533C696E6465783E206F7574206F66CB
:1003C0002072616E67652028302D31290A0053653F
:1003D0007474696E672054726176656C2041636342
:1003E000656C65726174696F6E3A20005365747450
:1003F000696E67205265747261637420416363653E
:100400006C65726174696F6E3A200053657474692B
:100410006E67205072696E7420416363656C65720B
:100420006174696F6E3A200053657474696E672059
:100430005072696E7420616E642054726176656CCE
:1004400020416363656C65726174696F6E3A200068
:10045000205A00205900580020204D61783A200091
:10046000205A00205900580020204D696E3A200083
:100470004F6E20004F666600536F667420656E6491
:1004800073746F70733A2000000125272318FF1F33
:10049000211D1CFF19171B1EFFFF0C0409FFFFFF86
:1004A0002E2C0CFFFF312F3004400AFF41FFFFFFCD
:1004B000FFFFFF206F7574206F662072616E6765A5
:1004C0000A00536572766F20003A2000205365724F
:1004D000766F200020643A0020693A0020703A00CC
:1004E00020643A0020693A0020703A004F66660A9C
:1004F000004661646520486569676874200042654C
:1005000064204C6576656C696E6720004661696C95
:10051000656420746F20656E61626C65204265645D
:10052000204C6576656C696E670A004D65736820BE
:10053000706F696E742063616E6E6F7420626520E7
:100540007265736F6C7665640A004D3432312069D0
:100550006E636F727265637420706172616D657431
:1005600065722075736167650A003A2000207A5F22
:100570006D696E3A20202D3230207A5F6D61783AB5
:10058000202032300A0050726F6265205A204F6678
:10059000667365740043617365206C696768743ABB
:1005A0002000556E6B6E6F776E20636F6D6D616EA0
:1005B000643A2022004D6573682056616C6964615D
:1005C00074696F6E2053746F707065642E00696E6D
:1005D000206D6F76655F746F282920666565645F9E
:1005E00076616C756520666F722058593A004C65CB
:1005F0006176696E6720473236004732362048659B
:100600006174696E67204E6F7A7A6C652E0047328E
:10061000362048656174696E67204265642E004427
:100620006F6E65205072696D696E6700446F6E650C
:10063000205072696D696E67004669786564204C68
:10064000656E677468205072696D652E005573651C
:10065000722D436F6E74726F6C6C6564205072699A
:100660006D65002C2065793D0029202D3E202865F0
:10067000783D002C2073793D0020436F6E6E6563DA
:1006800074696E672077697468207665727469632F
:10069000616C206C696E65202873783D002C2065A4
:1006A000793D0029202D3E202865783D002C2073BF
:1006B000793D0020436F6E6E656374696E672077C5
:1006C00069746820686F72697A6F6E74616C206CEF
:1006D000696E65202873783D004C656176696E67A8
:1006E00020473236002C2079693D00202020446FBD
:1006F000696E6720636972636C652061743A2028B3
:1007000078693D003F537065636966696564205888
:100710002C5920636F6F7264696E617465206F7508
:1007200074206F6620626F756E64732E0A003F2816
:10073000522965706561742076616C7565206E6FF5
:100740007420706C61757369626C653B206D7573A4
:1007500074206265206174206C6561737420312E91
:100760000A003F537065636966696564206E6F7A3D
:100770007A6C652074656D70657261747572652040
:100780006E6F7420706C61757369626C652E0A00FF
:100790003F5370656369666965642066696C616D65
:1007A000656E742073697A65206E6F7420706C6159
:1007B000757369626C652E0A003F537065636966E4
:1007C000696564207072696D65206C656E67746818
:1007D000206E6F7420706C61757369626C652E0A8F
:1007E000003F537065636966696564206E6F7A7A4D
:1007F0006C652073697A65206E6F7420706C61750A
:100800007369626C652E0A003F537065636966699F
:1008100065642052657472616374696F6E204D75F2
:100820006C7469706C696572206E6F7420706C6195
:10083000757369626C652E0A003F5265747261635C
:1008400074696F6E204D756C7469706C6965722087
:100850006D75737420626520737065636966696580
:10086000642E0A003F537065636966696564206C95
:100870006179657220686569676874206E6F74209D
:10088000706C61757369626C652E0A003F53706508
:10089000636966696564206265642074656D70656E
:1008A000726174757265206E6F7420706C617573FF
:1008B00069626C652E0A0047323620636F6D6D6188
:1008C0006E6420737461727465642E20576169745C
:1008D000696E6720666F722068656174657228733F
:1008E000292E0A004C696E65204E756D6265722076
:1008F0006973206E6F74204C617374204C696E654F
:10090000204E756D6265722B312C204C6173742002
:100910004C696E653A20004B494C4C45442E2000F2
:1009200053544F505045442E20005072696E7465E8
:10093000722073746F707065642064756520746FC5
:10094000206572726F72732E204669782074686514
:10095000206572726F7220616E6420757365204D20
:1009600039393920746F20726573746172742E2066
:100970002854656D706572617475726520697320A5
:1009800072657365742E20536574206974206166E6
:100990007465722072657374617274696E67290A76
:1009A000004E6F20436865636B73756D20776974C3
:1009B00068206C696E65206E756D6265722C204CC6
:1009C000617374204C696E653A2000636865636BDF
:1009D00073756D206D69736D617463682C204C6153
:1009E0007374204C696E653A20004D313130004DF2
:1009F00033310047312046313030302058302059D3
:100A00003231300047323820585900534420726543
:100A10006164206572726F720A00446F6E652070A7
:100A200072696E74696E672066696C650A00204998
:100A30006E76616C69642065787472756465722085
:100A40000053544F505045442E20005072696E742C
:100A500065722073746F70706564206475652074AE
:100A60006F206572726F72732E20466978207468E9
:100A700065206572726F7220616E642075736520E7
:100A80004D39393920746F20726573746172742E18
:100A9000202854656D706572617475726520697384
:100AA0002072657365742E2053657420697420610B
:100AB000667465722072657374617274696E6729F9
:100AC0000A0053544F502063616C6C65642062656A
:100AD0006361757365206F6620424C546F7563685F
:100AE000206572726F72202D20726573746172744A
:100AF0002077697468204D3939390A0042696C6978
:100B00006E656172204C6576656C696E6720477210
:100B100069643A0A00473238205A20466F72626987
:100B20006464656E0A00473238205A20466F72624C
:100B3000696464656E0020706F736974696F6E20FC
:100B40006F7574206F662072616E67652E0A003FB4
:100B500050726F626520004D65736820706F696E1A
:100B6000742063616E6E6F74206265207265736FAE
:100B70006C7665640A00526573756D696E672070E6
:100B800072696E74005072696E746572207265616C
:100B900064792E00436C69636B20746F20726573F7
:100BA000756D652E2E2E004D3132350046696C650F
:100BB0002064656C657465643A0044656C657469AD
:100BC0006F6E206661696C65642C2046696C653ABD
:100BD00020006F70656E206661696C65642C20462C
:100BE000696C653A2000200D466978656420706163
:100BF00072616D65746572206E62797465733B20F5
:100C0000637263206572726F722000200D0A46695C
:100C100078656420706172616D65746572206279B7
:100C20007465733B20637263206572726F7220007B
:100C3000290A002062797465733B20637263200087
:100C4000466978656420706172616D6574657220B3
:100C5000280020686172647761726520766572731E
:100C6000696F6E3A004B494C4C45442E2000202DB4
:100C700020496E76616C696420657874727564656C
:100C800072206E756D62657220210A002D2D2D2D4A
:100C90002D2D007C4D61726C696E7C002D2D2D2DEB
:100CA0002D2D00687474703A2F2F6D61726C696E0F
:100CB00066772E6F726700687474703A2F2F6D61BB
:100CC000726C696E66772E6F72670020312E312E3E
:100CD00038002020506C616E6E65724275666665E4
:100CE0007242797465733A20002046726565204D22
:100CF000656D6F72793A2000436F6D70696C656441
:100D00003A204A616E20313620323032300A0020DB
:100D10007C20417574686F723A20286E6F6E652C66
:100D20002064656661756C7420636F6E66696729FF
:100D30000A00323031372D31322D32352031323AFE
:100D4000303000204C6173742055706461746564A8
:100D50003A2000312E312E380A004D61726C696ED6
:100D60000020536F667477617265205265736574F5
:100D70000A00205761746368646F67205265736569
:100D8000740A002042726F776E206F75742052656E
:100D90007365740A002045787465726E616C205228
:100DA000657365740A00506F77657255700A007339
:100DB000746172740A006572726F7220777269745E
:100DC000696E6720746F2066696C650A00456E6401
:100DD00073746F707320256320256320256320259D
:100DE0006300205A3A0020593A0020583A00656EB4
:100DF0006473746F7073206869743A2000473238E6
:100E000020580066696C616D656E74206F75740A98
:100E1000004D33322053256C7520212573004D334E
:100E2000322053256C7520212F25732F2573004701
:100E300030204631303030205A25752E2575004738
:100E400032382059004732382058004D3130362092
:100E50002053323535004D31303920543020532560
:100E600075004D3139302053257500446F6E652073
:100E7000736176696E672066696C652E0A004D3273
:100E800039004572726F722077726974696E6720DB
:100E9000746F20454550524F4D210A00290A002009
:100EA00062797465733B20637263200053657474C8
:100EB000696E67732053746F726564202800290A75
:100EC00057726974652066696C65206E616D653A5C
:100ED00020002062797465733B20637263200050A8
:100EE0006F7765726F66662053746F726564202831
:100EF0000020213D2000637263206572726F723A98
:100F000020000A726561642066696C65206E616DFF
:100F1000653A2000290A726561642066696C652063
:100F20006469723A20002062797465733B206372B1
:100F3000632000706F7765726F66662073746F72DE
:100F400065642073657474696E677320726574726A
:100F50006965766564202800202863616C63756C80
:100F60006174656429210A0020213D200045455017
:100F7000524F4D20435243206D69736D6174636815
:100F8000202D202873746F726564292000290A00BF
:100F90002062797465733B20637263200020737450
:100FA0006F7265642073657474696E67732072650F
:100FB00074726965766564202800204D61726C69E1
:100FC0006E3D56313231290A0028454550524F4D69
:100FD0003D00454550524F4D2076657273696F6EE6
:100FE000206D69736D617463682000256973002545
:100FF000696D20256973002569682025696D2025A4
:10100000697300256964202569682025696D20259C
:101010006973002569792025696420256968202580
:10102000696D20256973005072696E742074696D52
:10103000653A200050726F7465637465642050696E
:101040006E0A006F6E2E0A006F66662E0A00473227
:10105000362044656275672000205A3A0020593ACC
:101060000020436F756E7420583A0020453A0020E6
:101070005A3A0020593A00583A003A004361703A0F
:1010800000454D455247454E43595F5041525345E7
:101090005200434153455F4C494748545F425249CF
:1010A0004748544E45535300544F47474C455F4CB7
:1010B000494748545300534F4654574152455F5097
:1010C0004F574552004255494C445F5045524345A5
:1010D0004E54004C4556454C494E475F444154419F
:1010E000005A5F50524F4245004155544F4C4556AF
:1010F000454C005052494E545F4A4F420050524FA7
:101100004752455353004155544F5245504F525446
:101110005F54454D5000564F4C554D455452494330
:1011200000454550524F4D0053455249414C5F5880
:101130004F4E5F584F4646004649524D5741524523
:101140005F4E414D453A4D61726C696E20312E31D2
:101150002E3820284769746875622920534F5552EC
:1011600043455F434F44455F55524C3A6874747031
:10117000733A2F2F6769746875622E636F6D2F4DF8
:1011800061726C696E4669726D776172652F4D612F
:10119000726C696E2050524F544F434F4C5F56450E
:1011A0005253494F4E3A312E30204D414348494E1B
:1011B000455F545950453A5072696E7465722045C6
:1011C000585452554445525F434F554E543A31207E
:1011D000555549443A63656465326132662D343150
:1011E00061322D343734382D396231322D63353543
:1011F0006336326633363766660A002F2F20004387
:10120000290A0061626C656420286D696E2074652E
:101210006D702000436F6C6420657874727564652E
:10122000732061726520004B642000236465666949
:101230006E65202044454641554C545F004B692063
:101240000023646566696E65202044454641554C1F
:10125000545F004B70200023646566696E65202032
:1012600044454641554C545F0050494420417574F3
:101270006F74756E652066696E6973686564212098
:1012800050757420746865206C617374204B702CE9
:10129000204B6920616E64204B6420636F6E737411
:1012A000616E74732066726F6D2062656C6F77205B
:1012B000696E746F20436F6E6669677572617469D9
:1012C0006F6E2E680A00504944204175746F747522
:1012D0006E65206661696C6564212074696D656F57
:1012E00075740A00544845524D414C2052554E41A8
:1012F00057415900546865726D616C2052756E617A
:101300007761790048656174696E67206661696C10
:1013100065640048656174696E67206661696C6523
:101320006400504944204175746F74756E65206681
:1013300061696C6564212054656D706572617475B6
:10134000726520746F6F20686967680A00204B64BB
:101350003A2000204B693A2000204B703A20000AC6
:1013600020436C617373696320504944200A002054
:1013700054753A2000204B753A2000206D61783A70
:101380002000206D696E3A200020643A200020621F
:101390006961733A20007C3C3E5E2B3D3F2F5B5DD4
:1013A0003B2C2A225C004368616E67652066696C8D
:1013B000616D656E74004261627973746570205A64
:1013C00000466C6F7700466C6F770046616E207345
:1013D000706565640046616E2073706565640042E7
:1013E000656400426564004E6F7A7A6C65004E6FEA
:1013F0007A7A6C6500537065656400537065656446
:10140000004D61696E005072656865617420504CD2
:101410004120456E64005072656865617420504CCF
:101420004120426564005072656865617420504CCB
:101430004100507265706172650050726568656147
:10144000742041425320456E6400507265686561A6
:1014500074204142532042656400507265686561A2
:1014600074204142530050726570617265004261A0
:10147000636B004E65787420636F726E6572004D09
:10148000323830205030205331363000424C546FC7
:101490007563682053656C662D54657374004D3216
:1014A000383020503020533132300050726568653A
:1014B0006174204142530050726568656174205028
:1014C0004C4100436F6F6C646F776E0052657365BB
:1014D0007420424C546F756368004368616E6765A1
:1014E0002066696C616D656E740044697361626C3D
:1014F00065207374657070657273004D3834004CEC
:101500006576656C20636F726E6572730042656408
:10151000204C6576656C696E67004732380A473241
:1015200039004175746F20686F6D6500473238006F
:101530004D6F76652061786973004D61696E004377
:10154000616E6E6F74206F70656E20737562646972
:10155000722000656E7175657565696E6720220081
:101560006563686F3A00544845524D414C205255CE
:101570004E4157415900546865726D616C20527537
:101580006E6177617900496E697469616C697A6529
:1015900020454550524F4D00436F6E74726F6C0082
:1015A000526573746F7265206661696C73616665FC
:1015B000004C6F61642073657474696E67730049D1
:1015C0006E697469616C697A6520454550524F4D6A
:1015D0000053746F72652073657474696E6773006D
:1015E000424C546F7563680046696C616D656E743A
:1015F000004D6F74696F6E0054656D706572617433
:10160000757265004D61696E004D33303320553180
:10161000204525692053256900507265686561740D
:101620002041425320636F6E6600507265686561A9
:101630007420504C4120636F6E6600504944204135
:1016400075746F74756E6500504944204175746FF0
:1016500074756E65005049442D44005049442D4432
:10166000005049442D49005049442D4900504944F7
:101670002D50005049442D500020022046616374D3
:101680000020022046616374002002204D61780032
:101690002002204D6178002002204D617800200258
:1016A000204D696E002002204D696E002002204D01
:1016B000696E004F6666004F6E20004175746F744E
:1016C000656D700046616E207370656564004661EB
:1016D0006E20737065656400426564004265640055
:1016E0004E6F7A7A6C65004E6F7A7A6C6500436F44
:1016F0006E74726F6C0053746F72652073657474CE
:10170000696E67730042656400426564004E6F7ADB
:101710007A6C65004E6F7A7A6C650046616E207354
:10172000706565640046616E207370656564005481
:10173000656D706572617475726500546865726D6F
:101740006973746F727300426F61726420496E66D0
:101750006F005072696E74657220496E666F004D3D
:1017600061696E0020204E6F7A7A6C653A200042E3
:1017700061636B004D696E696D756D2054656D70A8
:10178000206973203137302E0048656174696E67B7
:10179000206661696C6564004578747275646520C3
:1017A0006D6F726500526573756D65207072696E3C
:1017B0007400524553554D45204F5054494F4E5398
:1017C0003A0020204E6F7A7A6C653A200063686197
:1017D0006E6765006F66207468652066696C616D70
:1017E000656E74005761697420666F72207374614E
:1017F0007274005052494E54205041555345440094
:1018000020204E6F7A7A6C653A200066696C616DB3
:10181000656E7420756E6C6F616400576169742029
:10182000666F72005052494E542050415553454402
:101830000020204E6F7A7A6C653A2000506C65610A
:10184000736520776169742E2E2E00486561746976
:101850006E67206E6F7A7A6C65005052494E542044
:101860005041555345440020204E6F7A7A6C653ABA
:10187000200068656174206E6F7A7A6C652E005066
:101880007265737320627574746F6E20746F00508C
:1018900052494E54205041555345440020204E6F2C
:1018A0007A7A6C653A2000746F20636F6E74696E8B
:1018B00075652E2E2E00616E642070726573732024
:1018C000627574746F6E00496E7365727420666918
:1018D0006C616D656E74005052494E5420504155F4
:1018E0005345440020204E6F7A7A6C653A2000669A
:1018F000696C616D656E74206C6F6164005761691D
:101900007420666F72005052494E54205041555316
:1019100045440020204E6F7A7A6C653A2000666953
:101920006C616D656E7420657874727564650057BE
:1019300061697420666F72005052494E54205041C4
:101940005553454400746F20726573756D6500577B
:1019500061697420666F72207072696E74005052F3
:10196000494E54205041555345440024F4D430503E
:10197000C38E20C2A24017828B7011127A910D8102
:101980006CD90AA861E108C7586607615143061E71
:101990004B5D05C145A7041A411104093D98037127
:1019A0003931034036DB0265339102D43054028072
:1019B0002E1D02632CEE01752AC501B028A001106E
:1019C0002781018F2564012B244B01E0223401ACD7
:1019D000211F018D200D01801FFC00841EED00974A
:1019E0001DDF00B81CD200E61BC600201BBC006433
:1019F0001AB200B219A8000A19A0006A189900D1F9
:101A000017910040178B00B516840031167E00B385
:101A10001579003A157300C7146F0058146A00EE68
:101A20001366008813630025135E00C7125B006C09
:101A300012570015125400C111510070114F0021AE
:101A4000114B00D61049008D10470046104400028B
:101A5000104200C00F4000800F3E00420F3C0006C5
:101A60000F3B00CB0E3800930E37005C0E3500277D
:101A70000E3400F30D3200C10D3100900D300060C6
:101A80000D2E00320D2D00050D2C00D90C2B00AEB3
:101A90000C2900850C29005C0C2700350C27000E52
:101AA0000C2600E80B2400C40B2400A00B23007DAF
:101AB0000B23005A0B2100390B2100180B2000F8D2
:101AC0000A1F00D90A1E00BB0A1E009D0A1D0080C5
:101AD0000A1D00630A1C00470A1B002C0A1B001188
:101AE0000A1A00F7091A00DD091900C4091900AB28
:101AF000091900920917007B091800630917004CA7
:101B000009160036091600200916000A091500F505
:101B1000081500E0081400CC081400B8081400A44C
:101B2000081400900813007D0812006B0813005879
:101B30000812004608120034081100230811001290
:101B400008110001081100F0071000E0071000D094
:101B5000071000C0071000B0070F00A10710009188
:101B6000070E0083070F0074070F0065070E00576C
:101B7000070E0049070E003B070D002E070E002040
:101B8000070D0013070D0006070D00F9060C00ED08
:101B9000060D00E0060C00D4060C00C8060C00BCC4
:101BA000060C00B0060C00A4060B0099060C008D74
:101BB000060B0082060B0077060B006C060B00611B
:101BC000060A0057060B004C060A0042060A0038B7
:101BD000060A002E060A0024060A001A060A001049
:101BE00006090007060A00FD050900F4050900EBD7
:101BF000050900E2050900D9050900D0050900C75B
:101C0000050900BE050900B5050800AD050800A5D9
:101C10000509009C050800940508008C050800844F
:101C20000508007C050800740508006C05070065C0
:101C30000508005D050700560508004E050700472A
:101C40000507004005080038050700310507002A90
:101C5000050700230507001C050600160507000FF1
:101C60000507000805060002050700FB040600F54D
:101C7000040700EE040600E8040600E2040700DBA7
:101C8000040600D5040600CF040600C9040600C3FC
:101C9000040600BD040600B7040600B1040500AC4C
:101CA000040600A6040600A00405009B0406009597
:101CB000040500900406008A0405008504050080E0
:101CC0000406007A04050075040500700405006B25
:101CD00004050066040500610405005C0405005766
:101CE000040500520405004D0405004804050043A6
:101CF0000405003E0404003A0405003504050030E4
:101D00000404002C04050027040400230405001E1D
:101D10000404001A04040016040500110404000D54
:101D2000040400090405000404040000040400FC89
:101D3000030400F8030400F4030400F0030400ECBF
:101D4000030400E8030400E4030400E0030400DCEF
:101D5000030400D8030400D4030400D0030400CC1F
:101D6000030400C8030300C503030024F404D920BE
:101D70001BC40C5C0E9804C4095F0265077101F472
:101D800005F900FB04B30048048700C1036900584B
:101D900003550003034500BE023A0084023100539C
:101DA000022A002902250004022000E4011C00C8C8
:101DB000011900AF0117009801140084011300718C
:101DC0000110006101100051010E0043010D0036A9
:101DD000010B002B010B0020010B00150109000C69
:101DE00001090003010800FB000800F3000800EBF4
:101DF000000700E4000600DE000600D8000600D25E
:101E0000000600CC000500C7000500C2000500BDAB
:101E1000000400B9000400B5000400B1000400ADE6
:101E2000000400A9000400A5000300A20003009F15
:101E30000004009B0003009800030095000200933B
:101E4000000300900003008D0002008B0003008857
:101E50000002008600020084000300810002007F6F
:101E60000002007D0002007B000200790002007782
:101E7000000100760002007400020072000100718F
:101E80000002006F0002006D0001006C0002006A99
:101E900000010069000200670001006600010065A2
:101EA00000010064000200620001006100010060A6
:101EB0000001005F0002005D0001005C0001005BAA
:101EC0000001005A000100590001005800010057AC
:101ED00000010056000100550001005400010053AC
:101EE00000000053000100520001005100010050A9
:101EF0000001004F0001004E0000004E0001004DA7
:101F00000001004C0001004B0000004B0001004AA2
:101F1000000100490001004800000048000100479E
:101F20000001004600000046000100450000004599
:101F30000001004400010043000000430001004292
:101F4000000000420001004100000041000100408B
:101F50000001003F0000003F0001003E0000003E85
:101F60000001003D0000003D0001003C0000003C7D
:101F70000000003C0001003B0000003B0001003A73
:101F80000000003A0001003900000039000100386B
:101F90000000003800000038000100370000003762
:101FA0000001003600000036000000360001003558
:101FB000000000350000003500010034000000344E
:101FC0000000003400010033000000330000003343
:101FD0000001003200000032000000320001003138
:101FE000000000310000003100010030000000302E
:101FF000000000300001002F0000002F0000002F23
:102000000000002F0001002E0000002E0000002E16
:102010000001002D0000002D0000002D0000002D0B
:102020000001002C0000002C0000002C0000002CFF
:102030000001002B0000002B0000002B0000002BF3
:102040000001002A0000002A0000002A0000002AE7
:1020500000010029000000290000002900000029DB
:1020600000000029000100280000002800000028CE
:1020700000000028000000280001002700000027C1
:1020800000000027000000270000002700010026B4
:1020900000000026000000260000002600000026A8
:1020A000000100250000002500000025000000259B
:1020B000000000250000002500010024000000248D
:1020C0000000002400000024000000240001002380
:1020D0000000002300000023000000230000002374
:1020E0000000002300000023000100220000002265
:1020F0000000002200000022000000220000002258
:10210000000100210000002100000021000000214A
:10211000000000210000002100000021000100203B
:10212000000000200000002000000020000000202F
:102130000000002000000020000000200001001F1F
:102140000000001F0000001F0000001F0000001F13
:102150000000001F0000001F0001001E0000001E04
:102160000000001E0000001E0000004D3834205802
:102170002059205A2045005A25752C45256C752C70
:1021800050256C752C5425752C4225752C005072E9
:10219000696E7465722072656164792E005072698F
:1021A0006E7465722072656164792E004572723AB0
:1021B0004E6F2046696C616D656E74006265640ADD
:1021C000002C2073797374656D2073746F70706563
:1021D0006421204865617465725F49443A20004873
:1021E000656174696E67206661696C656400486545
:1021F0006174696E67206661696C65640048656139
:1022000074696E67206661696C6564004865617415
:10221000696E67206661696C65640070012C0190CD
:10222000012701B0012201C0011D01F001180110B8
:1022300002130130020E016002090190020401C084
:1022400002FF000003FA004003F5008003F000D015
:1022500003EB002004E6007004E100E004DC004031
:1022600005D700C005D2004006CD00D006C80080CA
:1022700007C3003008BE00F008B900C009B400B0C0
:102280000AAF00B00BAA00D00CA500000EA00050B1
:102290000F9B00C01096005012910000148C00C0DB
:1022A000158700B0178200B0197D00D01B780000A0
:1022B0001E730040206E0090226900F024640040EC
:1022C000275F0090295A00E02B5500102E50002067
:1022D000304B0010324600E033410090353C001096
:1022E00037370070383200A0392D00B03A2800A0EE
:1022F0003B2300603C1E00103D1900903D1400106F
:102300003E0F00703E0A00C03E0500003F00004046
:102310003FFBFF803FF6FFC03FF1FF4572723A205E
:102320004D494E54454D5020424544004572723A45
:10233000204D494E54454D50004D494E54454D5049
:1023400020747269676765726564004572723A202D
:102350004D415854454D5020424544004572723A13
:10236000204D415854454D50004D415854454D5015
:102370002074726967676572656400202F002042CF
:10238000403A0020403A0053746570732F6D6D0021
:102390004A65726B00416363656C65726174696F55
:1023A0006E0056656C6F63697479005A204F6666DB
:1023B000736574005A204F666673657400436F6ED0
:1023C00074726F6C004F6E200052756E6F757420C2
:1023D00073656E736F7273004F66660046696C2E8C
:1023E000204469612E0046696C2E204469612E00EC
:1023F0004F6666004F6E20004520696E206D6D337C
:1024000000436F6E74726F6C0043616E6E6F742068
:10241000656E746572207375626469723A20000596
:102420002E2E004D61696E004D61782054656D70EF
:102430003A20313235004D696E2054656D703A2076
:102440003500544265643A4550434F532031303093
:102450004B004D61782054656D703A20323635005E
:102460004D696E2054656D703A20350054303A2025
:102470004550434F53203130304B005053553A2094
:1024800047656E657269630050726F746F636F6C3D
:102490003A20312E300020202020485720566572E7
:1024A0003A2056004657205665723A2056322E3151
:1024B00000426175643A2032353030303000475484
:1024C000323536302056332E780042696C696E659D
:1024D0006172204C6576656C696E67004578747230
:1024E00075646572733A203100687474703A2F2FE6
:1024F0006D61726C696E66772E6F726700507269DB
:102500006E74657200323031372D31322D32352004
:1025100031323A303000312E312E38004D61726C3C
:10252000696E00001C1F11111F000000061918031E
:10253000130C00040E1F041C0000000010101010EB
:10254000101000001414141414140000151515159F
:10255000151500000E1315110E00001C101817059C
:10256000060500040A0A0A0A11110E0C12120C00C8
:10257000000000001F1511151F00000000000001E1
:102580000204040000001C1C0C04040402010000EE
:1025900000000004081000000000004D313034201D
:1025A00053257500473932204525750047393220BB
:1025B0005A25752E2575004D3530300043616E6308
:1025C000656C207072696E7400526573756D65205C
:1025D0007072696E7400506F776572206F757461E8
:1025E00067650025753A2530327500253032753A19
:1025F00025303275002D2D2D005344005A004D78A2
:102600002025643B2564252520004D785E25643B0C
:1026100025642525200000002100240027002A0031
:102620002D003000330001010000040107010A0100
:1026300000002200250028002B002E00310034006D
:1026400002010000050108010B0100002000230029
:10265000260029002C002F00320000010000030199
:102660000601090105050505070508080808020215
:1026700002020A0A0808040404040101010101011C
:1026800001010303030303030303040707070C0CFF
:102690000C0C0C0C0C0C02020202060606060606C6
:1026A00006060B0B0B0B0B0B0B0B0102102020086B
:1026B000081020401020408002010201080402019D
:1026C000010204081020408080402010080402010C
:1026D0008004020180402010080402010804020165
:1026E00001020408102040800102040810204080EC
:1026F00000000A0B02090C0D0E080703040100007C
:1027000000000000000000000000000000000000C9
:102710000000000000000000000000001211100086
:1027200000000000000000000000000000000000A9
:102730000000000000005654726176206D696E0042
:102740005654726176206D696E005654726176201F
:102750006D696E00566D696E00566D696E00566D3E
:10276000696E00566D6178204500566D6178204590
:1027700000566D6178204500566D6178205A0056EC
:102780006D6178205A00566D6178205A00566D614F
:1027900078205900566D6178205900566D61782077
:1027A0005900566D6178205800566D6178205800A8
:1027B000566D61782058004D6F74696F6E00416DE1
:1027C0006178204500416D6178204500416D617858
:1027D000205A00416D6178205A00416D617820597E
:1027E00000416D6178205900416D617820580041A9
:1027F0006D6178205800412D74726176656C0041DE
:102800002D74726176656C00412D7265747261631E
:102810007400412D72657472616374004163636575
:102820006C00416363656C004D6F74696F6E005698
:10283000652D6A65726B0056652D6A65726B005670
:10284000652D6A65726B00567A2D6A65726B00564B
:102850007A2D6A65726B0056792D6A65726B005627
:10286000792D6A65726B0056792D6A65726B005618
:10287000782D6A65726B0056782D6A65726B00560A
:10288000782D6A65726B004D6F74696F6E004573C9
:10289000746570732F6D6D004573746570732F6D63
:1028A0006D005A73746570732F6D6D005A73746583
:1028B00070732F6D6D005973746570732F6D6D009B
:1028C0005973746570732F6D6D00587374657073F0
:1028D0002F6D6D005873746570732F6D6D004D6FA3
:1028E00074696F6E0020746F6F206C6F6E67206567
:1028F0007874727573696F6E2070726576656E7428
:1029000065640A0020636F6C642065787472757367
:10291000696F6E2070726576656E7465640A004832
:10292000617264636F6465642044656661756C748C
:102930002053657474696E6773204C6F61646564BD
:102940000A00B80B0000B80B00006400000010275C
:10295000000000009643000096430000A0410000E4
:10296000C8419A99A0429A99A0420000C8430080A9
:10297000C54320204D383531205A005A2D50726FF2
:102980006265204F666673657420286D6D293A0A6A
:102990000020440020490020204D333034205000D6
:1029A00020440020490020204D3330312050005079
:1029B00049442073657474696E67733A0A0020464F
:1029C0000020420020480020204D313435205300A3
:1029D0004D6174657269616C206865617475702001
:1029E000706172616D65746572733A0A00205A00F5
:1029F00020204D3432302053004175746F204265E1
:102A000064204C6576656C696E673A0A0020450063
:102A1000205A002059002058002042002054002055
:102A2000204D323035205300416476616E63656419
:102A30003A20533C6D696E5F6665656472617465CA
:102A40003E20543C6D696E5F74726176656C5F66A2
:102A5000656564726174653E20423C6D696E5F73AA
:102A600065676D656E745F74696D655F75733E2033
:102A7000583C6D61785F78795F6A65726B3E205A69
:102A80003C6D61785F7A5F6A65726B3E20453C6D94
:102A900061785F655F6A65726B3E0A0020540020B2
:102AA000520020204D323034205000416363656C69
:102AB00065726174696F6E2028756E6974732F7307
:102AC00032293A20503C7072696E745F61636365AD
:102AD0006C3E20523C726574726163745F61636323
:102AE000656C3E20543C74726176656C5F61636313
:102AF000656C3E0A00204500205A00205900202025
:102B00004D3230312058004D6178696D756D20412E
:102B10006363656C65726174696F6E2028756E6998
:102B200074732F7332293A0A00204500205A00207E
:102B3000590020204D3230332058004D6178696DA6
:102B4000756D206665656472617465732028756EA5
:102B50006974732F73293A0A00204500205A002017
:102B6000590020204D39322058005374657073206D
:102B700070657220756E69743A0A0020204D3230FB
:102B8000302044300A0020204D32303020440020D4
:102B900044697361626C65640A0046696C616D65C5
:102BA0006E742073657474696E67733A0020204DEB
:102BB0003134392043203B20556E69747320696E8F
:102BC0002043656C736975730A00202047323120F9
:102BD0002020203B20556E69747320696E206D6D36
:102BE0000A004772616469656E7400546F67676CB0
:102BF00065206D6978002533643B25336425250005
:102C00004D6978004D61696E0053746F7720424CB6
:102C1000546F756368004D3238302050302053397E
:102C200030004465706C6F7920424C546F75636856
:102C3000004D3238302050302053313000424C5457
:102C40006F7563682053656C662D54657374004D11
:102C500032383020503020533132300052657365A5
:102C60007420424C546F756368004D3238302050E8
:102C7000302053313630004D61696E005072696EFC
:102C80007420706175736564004D31323500002524
:102C900073004D3234005072696E742061626F723D
:102CA000746564004732382058590047393000476E
:102CB00031204631303030205A323000473931002F
:102CC0004E6F2053442063617264005072696E74C9
:102CD0002066726F6D2053440053746F70207072C1
:102CE000696E740041626F7574205072696E74650C
:102CF0007200526573756D65207072696E74005054
:102D000061757365207072696E74004D69786572C3
:102D100000436F6E74726F6C005072657061726503
:102D20000054756E6500496E666F20736372656549
:102D30006E004261627973746570205A004D3630BE
:102D40003020423000506C65617365207265736598
:102D500074005052494E5445522048414C54454409
:102D6000005072696E7465722068616C7465642EBF
:102D7000206B696C6C28292063616C6C6564210A86
:102D800000000000C1000000C10000000000007051
:102D900042000070420000C0400000000057617215
:102DA0006E696E673A20486F6D696E672042756D77
:102DB000702044697669736F72203C20310A0002EA
:102DC00002040000A0400000A040000000400000FD
:102DD00064430000644300008243FFFFFF4D363030
:102DE0003020486F74656E6420746F6F20636F6C61
:102DF0006420746F206368616E67652066696C612A
:102E00006D656E740A00526573656E643A20006FDA
:102E10006B0020746F6F206C6F6E67206578747222
:102E20007573696F6E2070726576656E7465640A7D
:102E30000020636F6C6420657874727573696F6EBF
:102E40002070726576656E7465640A0062757379C8
:102E50003A2070617573656420666F7220696E70C8
:102E600075740A00627573793A20706175736564D0
:102E700020666F7220757365720A00627573793A05
:102E80002070726F63657373696E670A004B494CFB
:102E90004C45442E20004B494C4C206361757365B2
:102EA0006420627920746F6F206D75636820696E8D
:102EB0006163746976652074696D65202D20637582
:102EC0007272656E7420636F6D6D616E643A20007E
:102ED000486F6D65202573257325732066697273AD
:102EE00074002066697273740A005A005900580011
:102EF000486F6D65200053442063617264206F6BDE
:102F00000A006F70656E526F6F74206661696C6540
:102F1000640A00766F6C756D652E696E6974206643
:102F200061696C65640A00534420696E69742066A7
:102F300061696C0A00436172642072656D6F766529
:102F400064004361726420696E7365727465640025
:102F500050726F62696E67206661696C65640A0011
:102F600050726F62696E67206661696C65640020EB
:102F70005A3A200020593A200042656420583A20ED
:102F8000005344207072696E74696E6720627974B0
:102F90006520004E6F74205344207072696E74690E
:102FA0006E670A005374617274205A3A20253464A3
:102FB0002E2564206D6D002020456E64205A3A2035
:102FC0002534642E2564206D6D00285A203C3D2058
:102FD00025642E256429005374617274206D69780C
:102FE0003A20253364252520253364252500285AD9
:102FF000203E3D2025642E256429002020456E6456
:10300000206D69783A2025336425252025336425F1
:10301000250046756C6C206772616469656E74008A
:103020002533643B2533642525002020456E64202C
:103030006D69783A002533643B25336425250053B8
:1030400074617274206D69783A00477261646965D1
:103050006E74002534642E2564206D6D002020459B
:103060006E64205A3A002534642E2564206D6D006C
:103070005374617274205A3A004772616469656ED4
:1030800074206D6978004D69786572004D69783AF1
:103090002020202025336425252025336425250084
:1030A0006175746F25692E67004D3234004D3233DF
:1030B0002025730057726974696E6720746F2066EB
:1030C000696C653A20006F70656E206661696C6599
:1030D000642C2046696C653A20006F70656E20662E
:1030E00061696C65642C2046696C653A200046690C
:1030F0006C652073656C65637465640A00205369B0
:103100007A653A200046696C65206F70656E65646B
:103110003A20006F70656E206661696C65642C20D2
:1031200046696C653A20002066696C653A20006447
:103130006F696E67006672657368004E6F77200076
:10314000454E4420535542524F5554494E450A006E
:103150002220706F73002220706172656E743A22B3
:1031600000535542524F5554494E452043414C4C13
:10317000207461726765743A22004B494C4C454497
:103180002E2000747279696E6720746F2063616C01
:103190006C207375622D67636F64652066696C656A
:1031A00073207769746820746F6F206D616E792069
:1031B0006C6576656C732E204D4158206C65766584
:1031C0006C2069733A004572726F723A004D6F76E7
:1031D000652058004D6F76652059004D6F7665204B
:1031E0005A004578747275646572004D6F7665207B
:1031F000302E316D6D004D6F766520316D6D004D57
:103200006F76652031306D6D004D6F766520617889
:10321000697300486F74656E6420746F6F20636F0C
:103220006C64004578747275646572004D6F7665E4
:10323000205A004D6F76652059004D6F76652058F5
:10324000004578747275646572004D6F7665205A1A
:10325000004D6F76652059004D6F766520580050FF
:10326000726570617265005761726E696E673A20AF
:103270004D697820666163746F7273206D75737425
:103280002061646420757020746F20312E302E20F0
:103290005363616C696E672E0A00252900257C0046
:1032A000202800252920746F205A00257C00202822
:1032B000004F4E2066726F6D205A004F4646004701
:1032C00072616469656E74204D69782000290A0076
:1032D000466978656420706172616D6574657220FD
:1032E00062797465733B2063726320004669786578
:1032F0006420706172616D657465722028004856A3
:103300005F7365745F6F6B0A007A5F6D696E3A2058
:1033100000795F6D696E3A2000785F6D696E3A20C2
:10332000005265706F7274696E6720656E647374A5
:103330006F70207374617475730A0000DA00D60030
:1033400011241FBECFEFD1E2DEBFCDBF00E00CBF26
:1033500013E0A0E0B2E0E0E9F3E702E00BBF02C057
:1033600007900D92A03FB107D9F728E1A0EFB3E095
:1033700001C01D92AA37B207E1F719E1CFE9D9E1FF
:1033800000E006C021970109802FFE010F94263925
:10339000CE39D10780E00807A9F70F948F1E0D944E
:1033A000B7390C9400002F923F924F925F926F9228
:1033B0007F928F929F92AF92BF92CF92DF92EF92C5
:1033C000FF920F931F93CF93DF93CDB7DEB7C8560D
:1033D000D1090FB6F894DEBF0FBECDBF81E090E0FB
:1033E0009093491480934814809173188D3411F48C
:1033F0000C94C624843511F40C949631873411F062
:103400000C94E03180917118909172188B31910574
:1034100009F4ECC5B4F4843091053CF48230910594
:10342000E4F597FF33C00C94F7318430910509F42B
:1034300096C54A9711F00C94F7310E94D53D0C9433
:10344000F7318A32910511F40C94C22464F48D3161
:10345000910509F4FCC50CF4F5C54E9711F40C94D4
:10346000FD230C94F7318B35910511F40C946C24E9
:103470008C35910511F40C9471248A35910511F065
:103480000C94F7311092F4030C94F73180917B0285
:1034900081110C94FE310C94F73120917B02222390
:1034A00011F40C94F73111E0029709F010E00E943A
:1034B000644D82E50E94783C882309F43CC10E9457
:1034C000163C6B017C01409055155090561560904C
:1034D0005715709058152091591530915A154091F3
:1034E0005B1550915C1528AB39AB4AAB5BAB809157
:1034F000791590917A15A0917B15B0917C158CABC4
:103500009DABAEABBFAB20917D1530917E15409148
:103510007F155091801528AF39AF4AAF5BAF20E0DF
:1035200030E0A901C701B6010F94F231882309F4F4
:10353000FCC4A30192016CA97DA98EA99FA90F9437
:10354000F23181110DC028A939A94AA95BA968AD3A
:1035500079AD8AAD9BAD0F94F231882309F4E5C4AF
:1035600020E030E0A901C701B6010F94F231881FB5
:103570008827881F18130BC080E090E0A0E8BFE305
:103580002C968CAF9DAFAEAFBFAF2C970AC020E09A
:1035900030E040E85FEB2C962CAF3DAF4EAF5FAF15
:1035A0002C97A30192016CA97DA98EA99FA90F94C4
:1035B0002A3624966CAF7DAF8EAF9FAF249728A993
:1035C00039A94AA95BA968AD79AD8AAD9BAD0F94C5
:1035D0002A3628966CAF7DAF8EAF9FAF2897249682
:1035E0002CAD3DAD4EAD5FAD2497CA01B9010F942E
:1035F00057324B015C0128962CAD3DAD4EAD5FAD11
:103600002897CA01B9010F9457329B01AC01C5013B
:10361000B4010F942B360F9496386CAF7DAF8EAFFC
:103620009FAF20E030E040E05FE30F9457324B0162
:103630005C01A7019601C701B6010F9457326B01D7
:103640007C01A5019401C501B4010F9457329B017F
:10365000AC01C701B6010F942A360F9496389B012E
:10366000AC012C966CAD7DAD8EAD9FAD2C970F94BB
:1036700057324B015C012CA93DA94EA95FA9C3019A
:10368000B2010F942B3620E030E040E05FE30F946E
:1036900057326B017C0128966CAD7DAD8EAD9FAD30
:1036A000289790582CAD3DAD4EAD5FAD0F940737C8
:1036B0009B01AC01C501B4010F9457329B01AC01D1
:1036C000C701B6010F942B36A30192010F942A363D
:1036D0006B017C0128AD39AD4AAD5BAD68A979A914
:1036E0008AA99BA90F942B3620E030E040E05FE3ED
:1036F0000F9457322B013C012CAD3DAD4EAD5FAD6B
:1037000024966CAD7DAD8EAD9FAD24970F94073799
:103710009B01AC01C501B4010F9457329B01AC0170
:10372000C301B2010F942B3628A939A94AA95BA974
:103730000F942A3614C089E40E94783C882329F02B
:103740000E94163C6B017C0103C0C12CD12C760178
:103750008AE40E94783C8823D9F00E94163C68AF26
:1037600079AF8AAF9BAF20E030E0A901C701B60175
:103770000F94F23181111AC020E030E0A90168AD48
:1037800079AD8AAD9BAD0F94F23181110FC0CDC3DD
:1037900020E030E0A901C701B6010F94F23188237F
:1037A00009F4C3C318AE19AE1AAE1BAED701C601D9
:1037B000B05888AB99ABAAABBBAB28AD39AD4AAD1D
:1037C0005BAD50582CAB3DAB4EAB5FAB9C01AD013C
:1037D000BC01CD010F9457324B015C012CA93DA9CE
:1037E0004EA95FA9CA01B9010F9457329B01AC01E0
:1037F000C501B4010F942B360F949638A4966CAF84
:103800007DAF8EAF9FAFA4978091551590915615BF
:10381000A0915715B09158158CAF9DAFAEAFBFAF0B
:10382000A7019601BC01CD010F942B362C966CAFED
:103830007DAF8EAF9FAF2C972091591530915A15BF
:1038400040915B1550915C1528962CAF3DAF4EAF63
:103850005FAF289728AD39AD4AAD5BAD28966CAD0A
:103860007DAD8EAD9FAD28970F942B3660966CAFD3
:103870007DAF8EAF9FAF60978091791590917A154B
:10388000A0917B15B0917C1564968CAF9DAFAEAFC7
:10389000BFAF64972C962CAD3DAD4EAD5FAD2C9770
:1038A000BC01CD010F942A366B017C0120917D155E
:1038B00030917E1540917F155091801568962CAF00
:1038C0003DAF4EAF5FAF689760962CAD3DAD4EAD4E
:1038D0005FAD609768966CAD7DAD8EAD9FAD68971E
:1038E0000F942A364B015C0180915D1590915E1515
:1038F000A0915F15B09160156C968CAF9DAFAEAF87
:10390000BFAF6C979C01AD016091811570918215DC
:1039100080918315909184150F942A3624966CAF6C
:103920007DAF8EAF9FAF249720918515309186157E
:103930004091871550918815A8962CAF3DAF4EAF9A
:103940005FAFA8978091611590916215A091631562
:10395000B0916415A0968CAF9DAFAEAFBFAFA097EE
:10396000A701960168A979A98AA99BA90F94573242
:103970002B013C01A50194016CA97DA98EA99FA9E9
:103980000F9457329B01AC01C301B2010F942B3647
:103990002B013C01A501940168A979A98AA99BA9D9
:1039A0000F9457324B015C01A70196016CA97DA9C8
:1039B0008EA99FA90F9457329B01AC01C501B40198
:1039C0000F942A36A30192010F949E366B017C015D
:1039D00020E030E0A9010F94F23187FF0AC02BEDFF
:1039E0003FE049EC50E4C701B6010F942B366B0160
:1039F0007C01112351F02BED3FE049EC50E4C7016D
:103A0000B6010F942A366B017C0120E030E0A90159
:103A1000C701B6010F94F231811126C064962CAD16
:103A20003DAD4EAD5FAD64976CAD7DAD8EAD9FADE0
:103A30000F94F231811118C068962CAD3DAD4EAD9A
:103A40005FAD689728966CAD7DAD8EAD9FAD289724
:103A50000F94F231811108C09BEDC92E9FE0D92E41
:103A600099ECE92E90E4F92EA4962CAD3DAD4EAD27
:103A70005FADA497C701B6010F9457329B01AC010B
:103A80000F9457324B015C0124962CAD3DAD4EADE9
:103A90005FAD2497CA01B9010F9457329B01AC0165
:103AA000C501B4010F942B360F9496384B015C017D
:103AB0002FE632E143E85AE30F94F23187FD31C239
:103AC000C501B4010F94A0370F9474371B01672B05
:103AD00019F422242394312CB10180E090E00F945A
:103AE000F6314B015C019B01AC01C701B6010F949B
:103AF00007376CAF7DAF8EAF9FAFA50194012496C1
:103B00006CAD7DAD8EAD9FAD24970F940737A49615
:103B10006CAF7DAF8EAF9FAFA497A0962CAD3DAD9F
:103B20004EAD5FADA097A8966CAD7DAD8EAD9FAD4F
:103B3000A8970F942A36A50194010F940737A896E9
:103B40006CAF7DAF8EAF9FAFA8972CAD3DAD4EADA6
:103B50005FADCA01B9010F94573220E030E040E078
:103B60005FE30F9457329B01AC0160E070E080E8A6
:103B70009FE30F942A3664966CAF7DAF8EAF9FAFF4
:103B800064976C962CAD3DAD4EAD5FAD6C972987BB
:103B90003A874B875C87A0968CAD9DADAEADBFAD2F
:103BA000A0978D879E87AF87B88B6091290270910F
:103BB0002A02072E000C880B990B0F94F8312091E4
:103BC0009B0230919C0240919D0250919E020F9465
:103BD00057322AE037ED43E25CE30F9457326CA78B
:103BE0007DA78EA79FA70E942DB79B01AC012853EC
:103BF0003F4F4F4F5F4F68962CAF3DAF4EAF5FAF1B
:103C0000689748A859A86AA87BA841E050E0269682
:103C10005FAF4EAF269759E121965FAF2197269669
:103C2000AEADBFAD2697A215B30509F440C10E9401
:103C300097A40E942DB7DC01CB0168962CAD3DAD59
:103C40004EAD5FAD6897821B930BA40BB50BB7FD10
:103C500011C00E942DB79B01AC0128533F4F4F4F1D
:103C60005F4F68962CAF3DAF4EAF5FAF689780E077
:103C70000E9421E221963FAD2197315021963FAF1E
:103C80002197332309F441C064962CAD3DAD4EAD70
:103C90005FAD64976CA97DA98EA99FA90F94573237
:103CA0006B017C012CAD3DAD4EAD5FADB201C301EA
:103CB0000F945732A70196010F942B367B018C018C
:103CC00064962CAD3DAD4EAD5FAD6497B201C301BE
:103CD0000F9457324B015C012CAD3DAD4EAD5FAD45
:103CE0006CA97DA98EA99FA90F9457329B01AC01A5
:103CF000C501B4010F942A362B013C01C701D8013C
:103D00008CAB9DABAEABBFAB55C026964EAD5FAD99
:103D10002697BA0180E090E00F94F6312CAD3DADCE
:103D20004EAD5FAD0F9457324B015C010F940437D9
:103D30006B017C01C501B4010F948C384B015C010F
:103D4000A701960168A979A98AA99BA90F9457325E
:103D50002B013C01A501940168AD79AD8AAD9BAD05
:103D60000F9457329B01AC01C301B2010F942B3663
:103D70002B013C01A501940168A979A98AA99BA9F5
:103D80000F9457324B015C01A701960168AD79ADE4
:103D90008AAD9BAD0F9457329B01AC01C501B401B4
:103DA0000F942A366CAB7DAB8EAB9FAB59E121965D
:103DB0005FAF21979201A3012C966CAD7DAD8EADC6
:103DC0009FAD2C970F942B3669837A838B839C83CA
:103DD0002CA93DA94EA95FA960966CAD7DAD8EADB5
:103DE0009FAD60970F942B366D837E838F8398876A
:103DF000A4962CAD3DAD4EAD5FADA49769857A8597
:103E00008B859C850F942B3669877A878B879C8757
:103E1000A8962CAD3DAD4EAD5FADA8976D857E8566
:103E20008F8598890F942B366D877E878F87988B27
:103E300080919F02882321F0CE0101960E944BDFE2
:103E400089819A81AB81BC8188A399A3AAA3BBA3D2
:103E50008D819E81AF81B8858CA39DA3AEA3BFA3A6
:103E600089859A85AB85BC8588A799A7AAA7BBA792
:103E7000CE0180960E940A38E12C8E01045D1F4F0E
:103E80009E01235F3F4FAE01485D5F4FBE016C5DF9
:103E90007F4FCE0180960F94751326968EAD9FAD01
:103EA0002697019626969FAF8EAF2697B8CE809123
:103EB000791590917A15A0917B15B0917C1588A306
:103EC00099A3AAA3BBA380917D1590917E15A09183
:103ED0007F15B09180158CA39DA3AEA3BFA3809145
:103EE000811590918215A0918315B091841588A7B2
:103EF00099A7AAA7BBA7CE0180960E940A38E12CF9
:103F00008E01045D1F4F25E835E1AE01485D5F4F2E
:103F1000BE016C5D7F4FCE0180960F9475130E9499
:103F2000CB3D0E9412380C94F731E6ECF1E384911A
:103F30008F010F5F1F4F882321F00E941D38F80169
:103F4000F6CFEFE3F2E084918F010F5F1F4F8823DC
:103F500011F40C94F7310E941D38F801F4CF80E57C
:103F60000E94783C882329F00E94EB376B017C018A
:103F700003C0C12CD12C760183E50E94783C8823B4
:103F800061F00E94163C20E030E04AE754E40F94D0
:103F900057320F9474376B017C010E94C29280915A
:103FA0002B02811105C060E085E592E00E94BDBB57
:103FB0000E9412388091ED149091EE14A091EF14AC
:103FC000B091F014C80ED91EEA1EFB1E0E942DB738
:103FD000DC01CB018C199D09AE09BF09B7FD02C0F8
:103FE0000C94F73180E00E9421E2F0CF0E941CEE99
:103FF00081110C94F73180E090E0A0E4B0E4898373
:104000009A83AB83BC838D839E83AF83B88780E024
:1040100090E0A0E2B1E489879A87AB87BC8780E50E
:104020000E94783C882319F00E94E63B01C060E0C2
:1040300068A3BE016F5F7F4FCE0180960F945D171E
:104040000C94F73180E00E9427510C94F7310E94C4
:104050001CEE81110C94F7313090E21587E50E9437
:10406000493C882309F41EC18091B9099091BA098D
:10407000892BD1F4E6ECF1E384918F010F5F1F4FA0
:10408000882321F00E941D38F801F6CFE1EDF2E01F
:1040900084918F010F5F1F4F882311F40C94F73127
:1040A0000E941D38F801F4CF8AE50E94783C8823ED
:1040B00029F00E94163C6B017C0108C0C0905D1580
:1040C000D0905E15E0905F15F090601520E030E034
:1040D00040E251ECC701B6010F94513887FF03C08D
:1040E000E6ECF1E30BC020E030E040E251E4C70130
:1040F000B6010F94F23118169CF318C084918F0109
:104100000F5F1F4F882321F00E941D38F801F6CF62
:10411000E4ECF2E084918F010F5F1F4F882311F4CC
:104120000C94F7310E941D38F801F4CF88E50E9405
:10413000783C882329F00E94163C2B013C0106C0E4
:10414000412C512C00EC602E0FE7702E89E50E9467
:10415000783C882329F00E94163C4B015C0106C084
:10416000812C912C10ECA12E1FE7B12E89E40E9426
:10417000783C882319F00E94F63B01C08FEF182F7E
:104180008AE40E94783C882319F00E94F63B01C023
:104190008FEF082FA3019201C301B2010F94D7380A
:1041A000811154C0A5019401C501B4010F94D73801
:1041B00081114CC06091B5097091B609072E000CB1
:1041C000880B990B0F94F8319B01AC01C301B2012C
:1041D0000F942A3620E030E0A9010F942B3620E01E
:1041E00030E0A9010F9407370F946F37162F6091B5
:1041F000B7097091B809072E000C880B990B0F9422
:10420000F8319B01AC01C501B4010F942A3620E0BE
:1042100030E0A9010F942B3620E030E0A9010F9483
:1042200007370F946F3717FD06C013300CF012E0FC
:1042300067FF06C00AC067FF02C00C942B3210E073
:10424000062F63301CF002E001C000E0133010F0D4
:104250000C94F731043010F00C94F73180E00E9498
:10426000454E212F110F330BF901EE0FFF1FE20F07
:10427000F31FE00FF11D07FDFA95EE0FFF1FEE0F84
:10428000FF1FEF56F64FC082D182E282F382832D68
:104290000E94454E332011F40C94F7310E94816640
:1042A0000C94F7318AE40E94493C882321F00E9453
:1042B000834E0C94F73186E50E94783C882329F0E0
:1042C0000E94E63B7DAB6CAB02C01DAA1CAAECA908
:1042D000FDA9359770F0ECE9F2E084918F010F5F52
:1042E0001F4F882311F40C94F7310E941D38F801F8
:1042F000F4CF84E40E94783C882319F00E94073CA4
:1043000003C084E40E94493C88AF8AE50E94783C5F
:10431000882349F00E94163C64966CAF7DAF8EAF47
:104320009FAF649706C064961CAE1DAE1EAE1FAE56
:10433000649783E50E94783C882319F00E94163C1C
:1043400004C060E070E08AEF95E420E030E040E7F0
:1043500052E40F940737609397027093980280930A
:10436000990290939A028CE40E94783C882331F061
:104370000E94163C0F946F375B0103C0E9E1AE2E3B
:10438000B12C82E50E94783C882331F00E94163CD3
:104390000F946F376B0103C074EBC72ED12C86E4EA
:1043A0000E94783C882331F00E94163C0F946F37AE
:1043B0008B0102C004E110E082E40E94783C882373
:1043C00031F00E94163C0F946F377B0103C067EDFC
:1043D000E62EF12C31E0B7FC06C0C6010997A816FD
:1043E000B9060CF430E021E0F8EBCF16D10434F438
:1043F000C50109968C159D050CF420E08824839452
:1044000017FD06C0C7010997081719070CF4812C7E
:10441000992493944DEDE416F10434F4C8010996FF
:104420008E159F050CF4912C31110CC0222329F01C
:104430008DE892E00F948F1D11C081100FC0911074
:1044400013C01CC085E992E0A9962FAFA9970F94DD
:104450008F1DA9962FADA9972111EACF882021F0B1
:1044600085E892E00F948F1D992011F40C94F73198
:104470008EE792E00F948F1D0C94F731CA18DB0879
:10448000D7FE03C05FEFC51AD50AD594C794B6010D
:104490000D2C000C880B990B0F94F8312C966CAFF7
:1044A0007DAF8EAF9FAF2C97E01AF10AF7FE03C0E5
:1044B0008FEFE81AF80AF594E794B7010F2C000C77
:1044C000880B990B0F94F8312B013C01ACA9BDA9C5
:1044D000AB2B01F1E8E6F2E084914F01BFEF8B1ABC
:1044E0009B0A882321F00E941D38F401F5CFE8AD26
:1044F000EE2369F0EEE5F2E084914F012FEF821A8E
:10450000920A882321F00E941D38F401F5CF8AE039
:104510000E941D380E94C29280E00E94454E81E0B8
:104520000E940B53882329F0832D0E94454E0C9442
:10453000F7310E941B506091B9097091BA09072E9A
:10454000000C880B990B0F94F8319B01AC012C9651
:104550006CAD7DAD8EAD9FAD2C970F94F231811176
:1045600020C06091BB097091BC09072E000C880B1C
:10457000990B0F94F8319B01AC01C301B2010F9468
:10458000F23181110EC08091B5099091B609A8163B
:10459000B90639F48091B7099091B809081719073D
:1045A00099F00E94834ED092BA09C092B909F09254
:1045B000BC09E092BB09B092B609A092B50910936C
:1045C000B8090093B709312C85E40E94783C882310
:1045D00019F00E94073C03C085E40E94493C2D96D7
:1045E0008FAF2D9719AA18AAC12CD12C760131E0D2
:1045F0003CAF41E021964FAF219753E025965FAF46
:104600002597212CC501BB0CAA0BBB0B6C968CAF5C
:104610009DAFAEAFBFAF6C979801110F440B550B18
:10462000A0962CAF3DAF4EAF5FAFA0979CADA1E081
:104630009A279CAF28A939A9032E000C440B550BCF
:1046400068962CAF3DAF4EAF5FAF68972596EFAD44
:1046500025972E1609F4BEC06C966CAD7DAD8EAD5F
:104660009FAD6C970F94F8316B017C01622D022C89
:10467000000C770B880B990B0F94F8319B01AC0160
:104680002C966CAD7DAD8EAD9FAD2C970F945732AF
:104690009B01AC01C701B6010F942B364B015C01A5
:1046A000A0966CAD7DAD8EAD9FADA0970F94F83107
:1046B0006B017C0168966CAD7DAD8EAD9FAD68974A
:1046C0000F94F8319B01AC01C301B2010F94573232
:1046D0009B01AC01C701B6010F942B366B017C0125
:1046E00020E030E0A901C501B4010F94F23187FD4B
:1046F00005C020E030E040E05FE303C020E030E0B0
:10470000A901C501B4010F942B360F94A03768A3FB
:1047100079A38AA39BA320E030E0A901C701B601D9
:104720000F94F23187FD05C020E030E040E05FE308
:1047300003C020E030E0A901C701B6010F942B3679
:104740000F94A03769837A838B839C832CA92D9641
:104750004FAD2D97BE016F5F7F4FCE0180960E94B7
:104760005CF76B017C019B01AC010F94D738882367
:1047700029F0832D0E94454E0C944D32822D022C3F
:10478000000C990B8C01000F111F080F191F48A96D
:1047900059A9040F151F000F111F000F111F0F56ED
:1047A000164F64962CAD3DAD4EAD5FAD6497C7011D
:1047B000B6010F942B36D8016D937D938D939C9306
:1047C000139780E00E9421E22196BFAD21972B0E26
:1047D000312C3CCF28A939A92230310511F40C9491
:1047E0004D32A7019601C701B6010F94D73888232F
:1047F00011F40C942F320C944D32C0905515D0907A
:104800005615E0905715F090581588E50E94783CB1
:10481000811109C020E030E044E152E4C701B60153
:104820000F942A3602C00E94163C68A379A38AA37B
:104830009BA3C0905915D0905A15E0905B15F0904D
:104840005C1589E50E94783C811108C020E030E0C9
:10485000A901C701B6010F942B3602C00E94163C75
:104860006B017C0169837A838B839C8388A099A0E8
:10487000AAA0BBA02FE632E143E85AEBC501B40180
:104880000F94513887FF02C00C94F73122E430E0D6
:1048900047E353E4C501B4010F94F231181614F440
:1048A0000C94F7312FE632E143E85AEBC701B60129
:1048B0000F94513887FF02C00C94F73122E430E0A6
:1048C0004CE553E4C701B6010F94F231181614F405
:1048D0000C94F7310C94983281E08093F4030C949B
:1048E000F7310E94C29208EA202E02E0302E85E5C0
:1048F000E82E85E1F82E00E0D12C10E0D1018D9159
:104900001D010E94783C882359F10E94163C2B011E
:104910003C01F70120813181428153810F942A3675
:104920004B015C012DEB37E346E855EB0F94513812
:1049300087FD0AC02DEB37E346E855E3C501B40116
:104940000F94F231181664F4133019F0DD24D39467
:1049500001C001E0D7014D925D926D927C92139758
:104960001F5FB4E0EB0EF11C143041F6DD2019F0AE
:104970000E94A43703C001110E943FEC0E9481668F
:104980000C94F7310E948D4C0C94F7318091711882
:10499000909172188837910509F4E0C50CF0F0C0C9
:1049A0008D34910509F4C9C20CF060C089319105BC
:1049B00009F496C234F58431910509F412C294F4D5
:1049C0008131910509F4FAC144F4029710F00C9476
:1049D000F7310E94E64B0C94F731429709F40AC56F
:1049E0000C94F7318631910509F444C20CF43EC2AF
:1049F0008731910509F444C2489709F457C20C94D1
:104A0000F7318F31910509F48CC294F48B31910503
:104A100009F46EC20CF468C28C31910509F46CC2C1
:104A20004E9711F00C94F7310E94B1490C94F73174
:104A30008133910509F479C264F48032910509F457
:104A40005FC28A9711F00C94F7310E94C8670C94EA
:104A5000F7318B34910509F46CC28C34910511F057
:104A60000C94F7310E9489EF0C94F7318C36910544
:104A700009F442C30CF04DC08535910509F4BDC45D
:104A80007CF58235910509F4ADC404F581359105B5
:104A900011F00C94F7310E94A3A10E94C2920E94CF
:104AA00092E41092D1151092D01568EE73E080E078
:104AB00090E00E9409BB0E94C2920E942C3760E0E5
:104AC0008FE993E00E94BDBB0C94F73183359105CB
:104AD00009F48CC48435910509F48CC40C94F73125
:104AE0008936910509F456C354F48C35910509F4BF
:104AF0009DC48836910509F424C20C94F7318A3696
:104B0000910509F4C1C38B36910509F4E2C30C94F5
:104B1000F7318137910509F4F3C29CF48E36910583
:104B200009F466C20CF47AC38F36910509F473C296
:104B30008037910511F00C94F73189E493E00E94DD
:104B4000C6E18537910509F4FEC46CF482379105FE
:104B500009F4F4C48337910511F00C94F7310E94E5
:104B60003A660C94F7318637910509F4F4C4873717
:104B7000910511F00C94F7310F949B180C94F731B8
:104B80008D32E1E09E0711F40C94542E0CF083C09A
:104B9000893C910509F4C4C5F4F58B39910509F4F4
:104BA00016C3D4F48D37910509F4A5C35CF4893795
:104BB000910511F00C94F73110920A0A1092090A2B
:104BC0000C94F7318C38910509F4C6C281399105EE
:104BD00009F4CAC40C94F731863A910509F49DC5CD
:104BE0006CF4833A910509F435C5843A910511F0C6
:104BF0000C94F7310F94B60D0C94F7318E3B910560
:104C000009F428C3883C910511F00C94F7310E94F7
:104C1000B0650C94F7318C3D910509F4E9C604F5B3
:104C20008C3C910509F494C57CF48B3C910511F002
:104C30000C94F7311CEEE12E13E1F12E08EA12E09C
:104C400084E0D82ED00E75C58D3C910509F4EAC5D7
:104C5000833D910511F00C94F731E0E6F5E14DC686
:104C6000883121E0920709F441C754F48D3D910544
:104C700009F4CBC6823E910509F40EC70C94F731B6
:104C8000823241E0940709F4DBC78C32914009F489
:104C9000E2C70C94F731843AA1E09A0711F40C941E
:104CA000832F0CF043C08039E1E09E0711F40C948F
:104CB000752FB4F48F3221E0920711F40C94722F07
:104CC00014F40C946F2F803341E0940711F40C948A
:104CD000F22E8336914011F40C9444310C94F73148
:104CE0008839A1E09A0711F40C947C2F84F481395F
:104CF000E1E09E0711F40C94782F8239914011F075
:104D00000C94F73180E00E940B530C94F7318939F1
:104D100021E0920711F40C94802F8A39914011F010
:104D20000C94F7310F94EE0F0C94F731873F41E06C
:104D3000940711F40C94E130ECF4843FA1E09A075D
:104D400011F40C94DB303CF4853A914011F40C944E
:104D50004C300C94F731853FF1E09F0711F40C942F
:104D6000DE30863F914011F00C94F7310E94A9D5B6
:104D70000C94F731803A33E0930709F4C5C07CF412
:104D8000883552E0950711F40C94413183359340F6
:104D900011F00C94F731E0E6F5E10C94ED30873E2C
:104DA000B3E09B0711F40C948131893D974011F0D9
:104DB0000C94F7310F942D0C0C94F73160E085EFD3
:104DC00092E00E94BDBB4298179815982E989FB705
:104DD000F89480910B018D7F80930B019FBF0C9401
:104DE000F731EDE0F3E084918F010F5F1F4F8823CF
:104DF00021F00E941D38F801F6CF1092590D109243
:104E0000580D40E050E0BA0182EE9AE00E94726CC8
:104E10008BE1E2EEFAE0DE01159601900D928A95A3
:104E2000E1F78091E00A9091E10A9C838B8382E014
:104E300093E09A83898340E050E0BE016F5F7F4F2B
:104E40008BEC93E00E94067ECE0101960E94BEE1AB
:104E5000EEEFF2E084918F010F5F1F4F882311F472
:104E60000C94F7310E941D38F801F4CF0E945AEAE1
:104E70000C94F7311092A90A1092AA0A0C94F731F7
:104E8000E0916F18F09170188081882329F08032AA
:104E900009F410823196F8CF40E061E080916F18FC
:104EA000909170180F94D9020C94F73119821A82DC
:104EB0001B821C8218A219A21AA21BA280914A145A
:104EC000882341F040E0BE016F5F7F4FCE018096A6
:104ED0000E94B4E00E94D9810E94C5EE0C94F73183
:104EE0000E940C4B0C94F7310E94F24A0C94F7315B
:104EF0000E9415F70C94F7310E94EA4A0C94F7319E
:104F00000E941C680C94F73180916F189091701872
:104F100021E02093A80A40E060E00F94D9020C94AD
:104F2000F7310E9457680C94F7310E94A0670C94E7
:104F3000F7310E94C5EE0C94F7310E94E87A0C9488
:104F4000F73188E690E00E941A5481110C94F731F1
:104F50008091401483FF02C00C94F73183E50E94D6
:104F6000783C882309F440C00E94163C0F946F37A8
:104F70007093CF156093CE1580E00E9458A10E94D7
:104F8000163C20E030E04AEA52E40F94F231181661
:104F90003CF00E94E87A60E085E293E00E94BDBBAD
:104FA0000E94163C2091D5133091D6134091D7130F
:104FB0005091D8130F9451381816B4F48EE293E040
:104FC0009F938F938091351390E001969F938F93D9
:104FD0008EE193E09F938F931F920E9404EE0FB691
:104FE000F894DEBF0FBECDBF0F94F02C0C94F731B8
:104FF0008EE40E94783C882311F40C94F7310E94CF
:10500000E63B60938B1570938C1580938D15909370
:105010008E150C94F73183E50E94493C882359F0A2
:1050200083E50E94783C882319F00E94F63B01C07A
:1050300080E080934014E0E6F5E184918F010F5FFA
:105040001F4F882321F00E941D38F801F6CFE2E4BB
:10505000F3E084918F010F5F1F4F882321F00E949E
:105060001D38F801F6CF809140148823A1F114E394
:10507000C12E13E0D12EE12CF12C20E080914014C0
:1050800090E00E2C02C0959587950A94E2F780FF78
:1050900017C0BB24B394B20E222319F08CE20E94F5
:1050A0001D38F60125913491F901849189010F5F32
:1050B0001F4F882321F00E941D389801F5CF2B2D1A
:1050C000FFEFEF1AFF0A32E0C30ED11C45E0E416F1
:1050D000F104A1F60CC0EEE3F3E084918F010F5FC1
:1050E0001F4F882321F00E941D38F801F6CF8AE077
:1050F0000E941D380C94F731109282020C94F73103
:1051000083E50E94783C882369F00E94F63B8D334A
:1051100020F480938D020C94F7318CE380938D0200
:105120000C94F731E0E6F5E184918F010F5F1F4F9A
:10513000882321F00E941D38F801F6CF40918D029E
:1051400050E060E070E082E593E00F9445118AE062
:105150000E941D380C94F7318091401483FF02C0E7
:105160000C94F73183E50E94783C882311F40C9469
:10517000F7310E94163C0F946F376E37710514F0AB
:105180006DE770E07093CD156093CC150E940DA172
:105190000C94F73189E690E00E941A54811111C0F5
:1051A000E9E5F3E084918F010F5F1F4F882321F021
:1051B0000E941D38F801F6CF0E9481A08AE00E946B
:1051C0001D3810924914109248140C94223683E52D
:1051D0000E94783C882311F40C94F7310E94F63B2E
:1051E000182F8D3308F01CE31093EA140E942DB79A
:1051F0006B017C01212F30E0A8EEB3E00F941B3649
:10520000C60ED71EE81EF91EC092E614D092E7140F
:10521000E092E814F092E9140C94F7318DE690E0F6
:105220000E941A5481110C94F7318091401483FF2D
:1052300002C00C94F73183E50E94783C88AF81115D
:105240000C94EE3282E50E94783C81110C94EE328F
:105250000C94F7318091401483FF02C00C94F73115
:1052600060E082E993E00E94BDBB83E50E94783C48
:1052700088AF81110C94703482E50E94783C8111D2
:105280000C9470340C94F73180E50E94783C8111C5
:1052900008C083E50E94783C811109C03FEF20E0FF
:1052A0000AC00E94F63B81110C94F731F2CF0E94A4
:1052B000E63B362F272F832F922F8F3F910519F032
:1052C00010F08FEF90E09093D1158093D0150C944F
:1052D000F73180E50E94783C811106C01092D1150B
:1052E0001092D0150C94F7310E94E63B672B11F019
:1052F0000C94F731F3CF8CE40E94493C882319F0D9
:105300000E94163C04C060E070E080E090EC6CA766
:105310007DA78EA79FA780E090E0A0E4B0E48983FA
:105320009A83AB83BC838D839E83AF83B88780E0F1
:1053300090E0A0E2B1E489879A87AB87BC8788E5D3
:105340000E94783C882379F088E50E94783C882385
:1053500019F00E94163C03C060E070E0CB01698345
:105360007A838B839C8389E50E94783C882379F03B
:1053700089E50E94783C882319F00E94163C03C0FE
:1053800060E070E0CB016D837E838F8398878AE530
:105390000E94783C882379F08AE50E94783C882333
:1053A00019F00E94163C03C060E070E0CB016987F1
:1053B0007A878B879C8718A219A21AA21BA28091B8
:1053C0004A1481110C94F73100E020E0AE01405EF8
:1053D0005F4FBE016F5F7F4FCE018C960E94DADF78
:1053E0000C94F7311092F3030C94F73181E0809321
:1053F000F303FDC70E944F67FAC783E50E94493C4B
:10540000882309F4F4C70E94163C20E030E04AE704
:1054100054E40F9457320F9474376093F1147093DF
:10542000F2148093F3149093F414E1C768EAC62E43
:1054300062E0D62E75E6E72E75E1F72E10E0D60174
:105440008D916D010E94493C882309F46DC0133091
:1054500009F063C00E94163C4B015C0120E030E083
:1054600040EA51E40F94F23187FF4EC0A501940148
:1054700060917115709172158091731590917415EA
:105480000F9407372B013C019B01AC016091241460
:105490007091251480912614909127140F945732FF
:1054A00060932414709325148093261490932714EA
:1054B000A30192016091F8137091F9138091FA138E
:1054C0009091FB130F9457326093F8137093F91374
:1054D0008093FA139093FB136091481870914918C8
:1054E00080914A1890914B180F94F631A3019201C4
:1054F0000F9457320F94743760934818709349187B
:1055000080934A1890934B1880927115909272155F
:10551000A0927315B092741507C00E94163CF70153
:1055200060837183828393831F5FF4E0EF0EF11C2D
:10553000143009F084CF0F940A1359C70E94C29205
:105540000E94816654C760E080916F189091701836
:105550000E94E0BB4CC70E94F96549C781E0809377
:105560000A0A8093090A43C783E50E94783C88238E
:1055700019F00E94E63B02C060E070E08B01112749
:1055800002301105CCF0E6ECF1E384918F010F5F5E
:105590001F4F882321F00E941D38F801F6CFECEA56
:1055A000F3E084918F010F5F1F4F882309F41FC719
:1055B0000E941D38F801F5CF88E40E94783C8823CA
:1055C000A1F00E94E63B6A3A710534F06B3F710529
:1055D0002CF06AEF70E002C06AEA70E0F801EE0FAA
:1055E000FF1FE758F24F7183608386E40E94783C86
:1055F0008823A9F00E94E63BF801EE0FFF1FE35855
:10560000F24F718360836F3F710519F014F06FEFF3
:1056100070E077FF02C060E070E07183608382E435
:105620000E94783C882309F4E2C60E94E63B65307C
:10563000710534F06F3671052CF06EE670E002C033
:1056400065E070E0000F111FF801EB58F24F718315
:105650006083CDC683E50E94783C882341F00E9498
:10566000E63B8B01623071050CF0C1C602C000E060
:1056700010E080E50E94783C882341F10E94163CAE
:105680006B017C0120E030E0A9010F94F23187FD2D
:105690001DC02DEB37E346E855EBC701B6010F946B
:1056A000513887FD0AC02DEB37E346E855E3C701C3
:1056B000B6010F94F23118167CF4A701960160E050
:1056C00070E080E89FE30F94073709C0C12CD12C0C
:1056D0007601C701B60103C060E070E0CB01F801BC
:1056E000EE0FFF1FEE0FFF1FEB56FA4F6083718323
:1056F00082839383012B09F07AC620E030E048ECE6
:1057000052E4C701B6010F9457320F94743770E01A
:1057100070932518609324186AC60F94AB0C67C663
:105720000E948B6564C6F4E0EF0EF11CD01609F4FC
:105730005EC6D8018D918D010E94493C882399F362
:105740000E94163CF7016083718382839383EBCFC1
:1057500083E50E94493C8823D9F00E94163CAB01A6
:10576000BC01409314145093151460931614709355
:10577000171440930C1450930D1460930E147093EF
:105780000F1488E294E00F947F118AE00E941D3884
:1057900080E50E94493C882399F00E94163CAB01A9
:1057A000BC01409314145093151460931614709315
:1057B00017148BE094E00F947F118AE00E941D384B
:1057C00082E50E94493C882399F00E94163CAB0177
:1057D000BC014093101450931114609312147093F1
:1057E00013148CEE93E00F947F118AE00E941D3811
:1057F00084E50E94493C882309F4F9C50E94163CBF
:10580000AB01BC0140930C1450930D1460930E1423
:1058100070930F148EEC93E00F947F118AE00E9436
:105820001D38E5C583E50E94493C882351F00E945C
:10583000163C6093E8137093E9138093EA139093F6
:10584000EB1384E50E94493C882351F00E94163CEA
:105850006093E4137093E5138093E6139093E7133A
:1058600082E40E94493C882351F00E94EB37609308
:105870002C1470932D1480932E1490932F1488E57C
:105880000E94493C882351F00E94163C60931814F2
:105890007093191480931A1490931B1489E50E9435
:1058A000493C882351F00E94163C60931C1470936D
:1058B0001D1480931E1490931F148AE50E94493C86
:1058C000882351F00E94163C609320147093211499
:1058D000809322149093231485E40E94493C8823EA
:1058E00009F485C50E94163C609324147093251416
:1058F00080932614909327147AC584918F010F5FAB
:105900001F4F882321F00E941D38F801F6CF83E550
:105910000E94493C882321F00E94073C80939F020B
:10592000E8E7F4E084918F010F5F1F4F882321F097
:105930000E941D38F801F6CF80919F02811103C0AB
:10594000E4E7F4E002C0E0E7F4E084918F010F5F48
:105950001F4F882321F00E941D38F801F6CFE8E69A
:10596000F4E084918F010F5F1F4F882321F00E9484
:105970001D38F801F6CF40E050E0BA0186E694E029
:105980000F947F1140E050E0BA0183E694E00F9459
:105990007F1140E050E0BA0180E694E00F947F115F
:1059A000E8E5F4E084918F010F5F1F4F882321F019
:1059B0000E941D38F801F6CF40E050E06CE573E43A
:1059C00086E594E00F947F1140E050E06CE573E4CD
:1059D00083E594E00F947F1140E050E062E873E4C7
:1059E00080E594E00F947F118AE00E941D38FFC487
:1059F00083E50E94783C882309F4F9C40E94E63BC1
:105A000070932A0260932902F2C48DED90E00E9407
:105A10001A548111ECC483E50E94783C882309F470
:105A2000E6C40091351310E00E94E63B000F111F01
:105A3000F801E95DFD4F718360838091351390E03B
:105A40008C01000F111F000F111F98012D5D3D4F9C
:105A50007901880F991FFC01E95DFD4F608171811B
:105A6000072E000C880B990B0F94F8312AE037EDC4
:105A700043E25CE30F945732F801E154F64F208182
:105A80003181428153810F945732D7016D937D93B9
:105A90008D939C931397ABC480E50E94493C882367
:105AA00009F4A5C40E94E63B6B017C0183E50E94DA
:105AB000783C882321F00E94E63B8B0102C00FEF67
:105AC0001FEFC8010196039708F091C4D7FC8FC45B
:105AD0009C2DE8E8F4E08BE28E0F2491921709F4F4
