:100000000C94E1150C9412160C9412160C94121602
:100010000C9412160C9412160C9412160C941216C0
:100020000C9412160C9412160C9412160C941216B0
:100030000C9412160C9412160C9412160C941216A0
:100040000C9412160C94C46E0C9412160C94121686
:100050000C9412160C9412160C9470CE0C94D5B409
:100060000C9412160C9463410C9412160C941216F4
:100070000C9412160C9412160C9412160C94121660
:100080000C9412160C9412160C9412160C94121650
:100090000C9412160C9412160C9412160C94121640
:1000A0000C9412160C9412160C9412160C94121630
:1000B0000C9412160C9412160C9412160C94121620
:1000C0000C9412160C9412160C9412160C94121610
:1000D0000C9412160C9412160C9412160C94121600
:1000E0000C9412160F4C184C224C2B4C344C4F4C89
:1000F0005C4C654C3D4C464CC2B2C5B2B4B2B8B2D1
:10010000BEB2FCB2C9B2CDB2D3B2D7B2DBB2E1B2A9
:10011000E5B2E9B2FCB2EFB2F3B2F7B2F1B3F6B3C3
:10012000FBB305B40FB488B419B421B429B433B403
:100130003DB447B456B460B488B46AB474B47EB401
:10014000084AD73B3BCE016E84BCBFFDC12F3D6C3E
:1001500074319ABD56833DDA3D00C77F11BED9E4A4
:10016000BB4C3E916BAAAABE000000803F05A84C84
:10017000CDB2D44EB93836A9020C50B99186880850
:100180003CA6AAAA2ABE000000803F004E414E496C
:100190004E495459494E46CDCCCC3D0AD7233C1745
:1001A000B7D13877CC2B329595E6241FB14F0A0092
:1001B0000020410000C84200401C4620BCBE4CCA82
:1001C0001B0E5AAEC59D74434F4D4D554E4943418C
:1001D00054494F4E0044525952554E004552524FC9
:1001E000525300494E464F004543484F0020746F1C
:1001F0006F206C6F6E6720657874727573696F6EAF
:100200002070726576656E7465640A0020636F6C99
:100210006420657874727573696F6E20707265768C
:10022000656E7465640A0054454D5020544F4F204C
:100230004C4F57210047322F4733206261642070B2
:100240006172616D65746572730A00536C656570E7
:100250002E2E2E00526573756D696E67207072695F
:100260006E74005072696E74657220726561647993
:100270002E00436C69636B20746F20726573756D1B
:10028000652E2E2E00456E642066696C65206C69B3
:1002900073740A00426567696E2066696C65206C3C
:1002A0006973740A00452569202573005072696ED0
:1002B0007465722072656164792E00E801E301DCE7
:1002C00001D501C7016F66660044454255473A00B3
:1002D0004B494C4C45442E20004D313133205300C6
:1002E0006F6B0048656174696E6720646F6E652E80
:1002F0000020573A00452569202573005072696E29
:100300007465722072656164792E004265642064B0
:100310006F6E652E0020573A004265642048656183
:1003200074696E672E005072696E746572204F6634
:10033000662E00454D455247454E43595F50415248
:1003400053455200434153455F4C494748545F422F
:1003500052494748544E45535300544F47474C4524
:100360005F4C494748545300534F465457415245F8
:100370005F504F574552004255494C445F504552DB
:1003800043454E54004C4556454C494E475F444109
:100390005441005A5F50524F4245004155544F4C12
:1003A0004556454C005052494E545F4A4F4200500A
:1003B000524F4752455353004155544F5245504FA9
:1003C00052545F54454D5000564F4C554D45545274
:1003D000494300454550524F4D0053455249414C09
:1003E0005F584F4E5F584F4646004649524D574161
:1003F00052455F4E414D453A4D61726C696E2031F8
:100400002E312E3820284769746875622920534F91
:10041000555243455F434F44455F55524C3A6874CB
:100420007470733A2F2F6769746875622E636F6DED
:100430002F4D61726C696E4669726D776172652FBE
:100440004D61726C696E2050524F544F434F4C5F58
:1004500056455253494F4E3A312E30204D41434874
:10046000494E455F545950453A5072696E746572F1
:100470002045585452554445525F434F554E543AC7
:100480003120555549443A63656465326132662DC1
:10049000343161322D343734382D396231322D63A5
:1004A00035356336326633363766660A002F2F20BD
:1004B000007A5F6D696E3A2000795F6D696E3A204F
:1004C00000785F6D696E3A20005265706F727469D2
:1004D0006E6720656E6473746F70207374617475D9
:1004E000730A005761726E696E673A204D69782011
:1004F000666163746F7273206D75737420616464D8
:1005000020757020746F20312E302E205363616C63
:10051000696E672E0A0053657474696E67205472A1
:100520006176656C20416363656C65726174696FA7
:100530006E3A200053657474696E67205265747258
:1005400061637420416363656C65726174696F6E89
:100550003A200053657474696E67205072696E7436
:1005600020416363656C65726174696F6E3A200047
:1005700053657474696E67205072696E7420616E81
:10058000642054726176656C20416363656C6572AA
:100590006174696F6E3A2000205A0020590058009B
:1005A00020204D61783A2000205A00205900580040
:1005B00020204D696E3A20004F6E20004F66660085
:1005C000536F667420656E6473746F70733A2000A5
:1005D000000125272318FF1F211D1CFF19171B1EB3
:1005E000FFFF0C0409FFFFFF2E2C0CFFFF312F3003
:1005F00004400AFF41FFFFFFFFFFFF20643A002095
:10060000693A0020703A0020643A0020693A0020DC
:10061000703A0043290A0061626C656420286D69A4
:100620006E2074656D702000436F6C642065787473
:1006300072756465732061726520004B642000232D
:10064000646566696E65202044454641554C545F9B
:10065000004B69200023646566696E65202044456F
:100660004641554C545F004B702000236465666919
:100670006E65202044454641554C545F0050494426
:10068000204175746F74756E652066696E69736854
:100690006564212050757420746865206C617374E2
:1006A000204B702C204B6920616E64204B642063CA
:1006B0006F6E7374616E74732066726F6D20626505
:1006C0006C6F7720696E746F20436F6E6669677513
:1006D000726174696F6E2E680A005049442041753A
:1006E000746F74756E65206661696C656421207431
:1006F000696D656F75740A00544845524D414C2030
:1007000052554E4157415900546865726D616C20D5
:1007100052756E617761790048656174696E672012
:100720006661696C65640048656174696E6720661E
:1007300061696C656400504944204175746F74753B
:100740006E65206661696C6564212054656D706515
:1007500072617475726520746F6F20686967680ACA
:1007600000204B643A2000204B693A2000204B7057
:100770003A20000A20436C61737369632050494436
:10078000200A002054753A2000204B753A200020A2
:100790006D61783A2000206D696E3A200020643A3D
:1007A000200020626961733A200043617365206C08
:1007B000696768743A2000556E6B6E6F776E2063C0
:1007C0006F6D6D616E643A2022004C696E65204E3B
:1007D000756D626572206973206E6F74204C617351
:1007E00074204C696E65204E756D6265722B312CDC
:1007F000204C617374204C696E653A20004B494C63
:100800004C45442E200053544F505045442E200058
:100810005072696E7465722073746F7070656420B5
:1008200064756520746F206572726F72732E204636
:10083000697820746865206572726F7220616E64D9
:1008400020757365204D39393920746F20726573B6
:10085000746172742E202854656D706572617475B0
:1008600072652069732072657365742E20536574F8
:100870002069742061667465722072657374617298
:1008800074696E67290A004E6F20436865636B7355
:10089000756D2077697468206C696E65206E756D62
:1008A0006265722C204C617374204C696E653A202D
:1008B00000636865636B73756D206D69736D61743A
:1008C00063682C204C617374204C696E653A20007B
:1008D0004D313130004D3331004731204631303019
:1008E00030205830205932313000473238205859A2
:1008F0000053442072656164206572726F720A0051
:10090000446F6E65207072696E74696E67206669E7
:100910006C650A0020496E76616C696420657874A4
:10092000727564657220004E6F206D6F76652E00C3
:100930004D3132350046696C652064656C657465BF
:10094000643A0044656C6574696F6E206661696C19
:1009500065642C2046696C653A20006F70656E20D6
:100960006661696C65642C2046696C653A200025D7
:1009700069730025696D2025697300256968202544
:10098000696D202569730025696420256968202523
:10099000696D202569730025697920256964202502
:1009A00069682025696D20256973005072696E742D
:1009B0002074696D653A200050726F7465637465C8
:1009C000642050696E0A004D31343520533C696E05
:1009D0006465783E206F7574206F662072616E6763
:1009E000652028302D31290A00200D46697865647C
:1009F00020706172616D65746572206E62797465D4
:100A0000733B20637263206572726F722000200D49
:100A10000A466978656420706172616D65746572FB
:100A20002062797465733B20637263206572726F14
:100A3000722000290A002062797465733B2063727A
:100A4000632000466978656420706172616D657429
:100A50006572202800206861726477617265207673
:100A6000657273696F6E3A004B494C4C45442E20B9
:100A700000202D20496E76616C696420657874725F
:100A800075646572206E756D62657220210A002D95
:100A90002D2D2D2D2D007C4D61726C696E7C002DED
:100AA0002D2D2D2D2D00687474703A2F2F6D6172CD
:100AB0006C696E66772E6F726700687474703A2F77
:100AC0002F6D61726C696E66772E6F7267002031D0
:100AD0002E312E38002020506C616E6E657242758A
:100AE0006666657242797465733A200020467265C5
:100AF00065204D656D6F72793A2000436F6D7069A6
:100B00006C65643A204E6F762031332032303139B3
:100B10000A00207C20417574686F723A20286E6F3D
:100B20006E652C2064656661756C7420636F6E66FB
:100B30006967290A00323031372D31322D323520A4
:100B400031323A303000204C61737420557064614A
:100B50007465643A2000312E312E380A004D6172DE
:100B60006C696E0020536F66747761726520526500
:100B70007365740A00205761746368646F6720525C
:100B8000657365740A002042726F776E206F75740A
:100B90002052657365740A002045787465726E6131
:100BA0006C2052657365740A00506F7765725570DA
:100BB0000A0073746172740A006572726F72207732
:100BC000726974696E6720746F2066696C650A00CB
:100BD000456E6473746F7073202563202563202530
:100BE0006320256300205A3A0020593A0020583AE1
:100BF00000656E6473746F7073206869743A2000C6
:100C000047323820580066696C616D656E74206FDC
:100C100075740A004D33322053256C7520212573DD
:100C2000004D33322053256C7520212F25732F253D
:100C300073004730204631303030205A25752E253C
:100C400075004732382059004732382058004D315E
:100C50003036202053323535004D31303920543074
:100C600020532575004D3139302053257500446FD0
:100C70006E6520736176696E672066696C652E0A01
:100C8000004D32390020204E6F7A7A6C653A200090
:100C900066696C616D656E74206C6F61640057618C
:100CA000697420666F72005052494E54205041556D
:100CB0005345440020204E6F7A7A6C653A200066D6
:100CC000696C616D656E7420657874727564650019
:100CD0005761697420666F72005052494E5420501B
:100CE000415553454400746F20726573756D6500FE
:100CF0005761697420666F72207072696E7400505B
:100D000052494E542050415553454400436172644A
:100D10002072656D6F766564004361726420696E50
:100D200073657274656400544845524D414C2052BD
:100D3000554E4157415900546865726D616C20529F
:100D4000756E617761790043616E6E6F74206F70AC
:100D5000656E207375626469722000656E717565D9
:100D60007565696E672022006563686F3A007C3C98
:100D70003E5E2B3D3F2F5B5D3B2C2A225C00457283
:100D8000726F722077726974696E6720746F204584
:100D90004550524F4D210A004D3630302042300030
:100DA0004368616E67652066696C616D656E74008D
:100DB0004261627973746570205A00466C6F7700E7
:100DC000466C6F770046616E2073706565640046FF
:100DD000616E2073706565640042656400426564FD
:100DE000004E6F7A7A6C65004E6F7A7A6C650053AC
:100DF00070656564005370656564004D61696E00DF
:100E00005072656865617420504C4120456E6400E5
:100E10005072656865617420504C412042656400E1
:100E20005072656865617420504C41005072657065
:100E3000617265005072656865617420414253209B
:100E4000456E6400507265686561742041425320AC
:100E500042656400507265686561742041425300C8
:100E600050726570617265004261636B004E657817
:100E70007420636F726E657200507265686561748C
:100E800020504C4100436F6F6C646F776E0050725E
:100E9000656865617420414253004368616E67650F
:100EA0002066696C616D656E740044697361626C83
:100EB00065207374657070657273004D3834004C32
:100EC0006576656C20636F726E6572730041757430
:100ED0006F20686F6D6500473238004D6F76652072
:100EE00061786973004D61696E00285A203C3D208D
:100EF00025642E256429005374617274206D69780D
:100F00003A20253364252520253364252500285AD9
:100F1000203E3D2025642E256429002020456E6456
:100F2000206D69783A2025336425252025336425F2
:100F3000250046756C6C206772616469656E74008B
:100F40002533643B2533642525002020456E64202D
:100F50006D69783A002533643B25336425250053B9
:100F600074617274206D69783A00477261646965D2
:100F70006E74002534642E2564206D6D002020459C
:100F80006E64205A3A002534642E2564206D6D006D
:100F90005374617274205A3A004772616469656ED5
:100FA00074206D6978004D69786572004D69783AF2
:100FB0002020202025336425252025336425250085
:100FC0004772616469656E7400546F67676C652071
:100FD0006D6978002533643B2533642525004D6910
:100FE00078004D61696E005072696E742070617591
:100FF000736564004D31323500002573004D323485
:10100000005072696E742061626F7274656400478B
:1010100032382058590047393000473120463130A6
:101020003030205A323000473931004E6F2053445F
:101030002063617264005072696E742066726F6D15
:101040002053440053746F70207072696E740041B5
:10105000626F7574205072696E74657200526573A8
:10106000756D65207072696E7400506175736520CE
:101070007072696E74004D6978657200436F6E74AA
:10108000726F6C00507265706172650054756E65A8
:1010900000496E666F2073637265656E004261621F
:1010A0007973746570205A0024F4D43050C38E20B4
:1010B000C2A24017828B7011127A910D816CD90AED
:1010C000A861E108C7586607615143061E4B5D05DC
:1010D000C145A7041A411104093D98037139310330
:1010E0004036DB0265339102D4305402802E1D025B
:1010F000632CEE01752AC501B028A00110278101DB
:101100008F2564012B244B01E0223401AC211F0107
:101110008D200D01801FFC00841EED00971DDF0057
:10112000B81CD200E61BC600201BBC00641AB2002B
:10113000B219A8000A19A0006A189900D1179100E5
:1011400040178B00B516840031167E00B315790068
:101150003A157300C7146F0058146A00EE13660046
:101160008813630025135E00C7125B006C125700E2
:1011700015125400C111510070114F0021114B0084
:10118000D61049008D10470046104400021042005E
:10119000C00F4000800F3E00420F3C00060F3B0096
:1011A000CB0E3800930E37005C0E3500270E34004E
:1011B000F30D3200C10D3100900D3000600D2E0096
:1011C000320D2D00050D2C00D90C2B00AE0C290082
:1011D000850C29005C0C2700350C27000E0C26001E
:1011E000E80B2400C40B2400A00B23007D0B23007C
:1011F0005A0B2100390B2100180B2000F80A1F00A0
:10120000D90A1E00BB0A1E009D0A1D00800A1D008F
:10121000630A1C00470A1B002C0A1B00110A1A0053
:10122000F7091A00DD091900C4091900AB091900F2
:10123000920917007B091800630917004C09160072
:1012400036091600200916000A091500F5081500D0
:10125000E0081400CC081400B8081400A408140016
:10126000900813007D0812006B0813005808120044
:10127000460812003408110023081100120811005A
:1012800001081100F0071000E0071000D00710005F
:10129000C0071000B0070F00A107100091070E0053
:1012A00083070F0074070F0065070E0057070E0035
:1012B00049070E003B070D002E070E0020070D000A
:1012C00013070D0006070D00F9060C00ED060D00D2
:1012D000E0060C00D4060C00C8060C00BC060C008E
:1012E000B0060C00A4060B0099060C008D060B003E
:1012F00082060B0077060B006C060B0061060A00E5
:1013000057060B004C060A0042060A0038060A007F
:101310002E060A0024060A001A060A001006090012
:1013200007060A00FD050900F4050900EB050900A0
:10133000E2050900D9050900D0050900C705090023
:10134000BE050900B5050800AD050800A5050900A2
:101350009C050800940508008C0508008405080019
:101360007C050800740508006C0507006505080089
:101370005D050700560508004E05070047050700F4
:101380004005080038050700310507002A05070059
:10139000230507001C050600160507000F050700BA
:1013A0000805060002050700FB040600F504070017
:1013B000EE040600E8040600E2040700DB04060071
:1013C000D5040600CF040600C9040600C3040600C5
:1013D000BD040600B7040600B1040500AC04060015
:1013E000A6040600A00405009B0406009504050061
:1013F000900406008A0405008504050080040600A8
:101400007A04050075040500700405006B040500EE
:1014100066040500610405005C040500570405002E
:10142000520405004D04050048040500430405006E
:101430003E0404003A0405003504050030040400AD
:101440002C04050027040400230405001E040400E6
:101450001A04040016040500110404000D0404001D
:10146000090405000404040000040400FC03040053
:10147000F8030400F4030400F0030400EC03040088
:10148000E8030400E4030400E0030400DC030400B8
:10149000D8030400D4030400D0030400CC030400E8
:1014A000C8030300C503030024F404D9201BC40CA3
:1014B0005C0E9804C4095F0265077101F405F90028
:1014C000FB04B30048048700C103690058035500BA
:1014D00003034500BE023A008402310053022A0091
:1014E0002902250004022000E4011C00C8011900A3
:1014F000AF0117009801140084011300710110005E
:101500006101100051010E0043010D0036010B0076
:101510002B010B0020010B00150109000C01090033
:1015200003010800FB000800F3000800EB000700BF
:10153000E4000600DE000600D8000600D200060027
:10154000CC000500C7000500C2000500BD00040076
:10155000B9000400B5000400B1000400AD000400AF
:10156000A9000400A5000300A20003009F000400DE
:101570009B00030098000300950002009300030005
:10158000900003008D0002008B0003008800020021
:101590008600020084000300810002007F00020038
:1015A0007D0002007B00020079000200770001004C
:1015B0007600020074000200720001007100020057
:1015C0006F0002006D0001006C0002006A00010063
:1015D000690002006700010066000100650001006B
:1015E000640002006200010061000100600001006F
:1015F0005F0002005D0001005C0001005B00010073
:101600005A00010059000100580001005700010074
:101610005600010055000100540001005300000075
:101620005300010052000100510001005000010070
:101630004F0001004E0000004E0001004D0001006F
:101640004C0001004B0000004B0001004A0001006B
:101650004900010048000000480001004700010067
:101660004600000046000100450000004500010062
:10167000440001004300000043000100420000005C
:101680004200010041000000410001004000010053
:101690003F0000003F0001003E0000003E0001004E
:1016A0003D0000003D0001003C0000003C00000047
:1016B0003C0001003B0000003B0001003A0000003C
:1016C0003A00010039000000390001003800000034
:1016D000380000003800010037000000370001002A
:1016E0003600000036000000360001003500000022
:1016F0003500000035000100340000003400000017
:10170000340001003300000033000000330001000A
:101710003200000032000000320001003100000001
:1017200031000000310001003000000030000000F6
:10173000300001002F0000002F0000002F000000EB
:101740002F0001002E0000002E0000002E000100DE
:101750002D0000002D0000002D0000002D000100D4
:101760002C0000002C0000002C0000002C000100C8
:101770002B0000002B0000002B0000002B000100BC
:101780002A0000002A0000002A0000002A000100B0
:1017900029000000290000002900000029000000A5
:1017A0002900010028000000280000002800000097
:1017B000280000002800010027000000270000008A
:1017C000270000002700000027000100260000007D
:1017D0002600000026000000260000002600010070
:1017E0002500000025000000250000002500000065
:1017F0002500000025000100240000002400000056
:101800002400000024000000240001002300000048
:10181000230000002300000023000000230000003C
:10182000230000002300010022000000220000002D
:10183000220000002200000022000000220001001F
:101840002100000021000000210000002100000014
:101850002100000021000000210001002000000004
:1018600020000000200000002000000020000000F8
:101870002000000020000000200001001F000000E8
:101880001F0000001F0000001F0000001F000000DC
:101890001F0000001F0001001E0000001E000000CD
:1018A0001E0000001E0000004D3834205820592032
:1018B0005A2045005A25752C45256C752C50256CF1
:1018C000752C5425752C4225752C005072696E7448
:1018D00065722072656164792E005072696E74655C
:1018E000722072656164792E004572723A4E6F20E3
:1018F00046696C616D656E7400001C1F11111F003C
:10190000000006191803130C00040E1F041C00002D
:1019100000001010101010100000141414141414EF
:10192000000015151515151500000E1315110E00E4
:10193000001C10181705060500040A0A0A0A1111EE
:101940000E0C12120C00000000001F1511151F00D4
:101950000000000000010204040000001C1C0C0434
:101960000404020100000000000408100000000050
:10197000004D31303420532575004739322045253C
:101980007500473932205A25752E2575004D3530A2
:10199000300043616E63656C207072696E74005232
:1019A0006573756D65207072696E7400506F776530
:1019B00072206F75746167650025753A2530327540
:1019C00000253032753A25303275002D2D2D00530B
:1019D00044005A004D782025643B256425252000CD
:1019E0004D785E25643B2564252520005374617283
:1019F00074205A3A202534642E2564206D6D002011
:101A000020456E64205A3A202534642E2564206DCA
:101A10006D00496E697469616C697A65204545504D
:101A2000524F4D00436F6E74726F6C005265737449
:101A30006F7265206661696C73616665004C6F61E9
:101A4000642073657474696E677300496E697469A4
:101A5000616C697A6520454550524F4D0053746F53
:101A600072652073657474696E67730046696C6192
:101A70006D656E74004D6F74696F6E0054656D70A6
:101A800065726174757265004D61696E004D333029
:101A90003320553120452569205325690050726552
:101AA000686561742041425320636F6E6600507216
:101AB000656865617420504C4120636F6E6600500C
:101AC0004944204175746F74756E65005049442017
:101AD0004175746F74756E65005049442D44005013
:101AE00049442D44005049442D49005049442D4952
:101AF000005049442D50005049442D5000200220F0
:101B00004661637400200220466163740020022055
:101B10004D6178002002204D6178002002204D6147
:101B200078002002204D696E002002204D696E0071
:101B30002002204D696E004F6666004F6E20004106
:101B400075746F74656D700046616E2073706565A5
:101B5000640046616E2073706565640042656400D0
:101B6000426564004E6F7A7A6C65004E6F7A7A6CCB
:101B70006500436F6E74726F6C0053746F726520F2
:101B800073657474696E67730042656400426564CE
:101B9000004E6F7A7A6C65004E6F7A7A6C650046FB
:101BA000616E2073706565640046616E20737065B8
:101BB00065640054656D70657261747572650029A5
:101BC0000A002062797465733B20637263200053BE
:101BD000657474696E67732053746F72656420282E
:101BE00000290A57726974652066696C65206E6108
:101BF0006D653A20002062797465733B20637263DF
:101C00002000506F7765726F66662053746F72653F
:101C10006420280020213D200063726320657272D9
:101C20006F723A20000A726561642066696C6520F3
:101C30006E616D653A2000290A72656164206669EB
:101C40006C65206469723A20002062797465733B88
:101C5000206372632000706F7765726F6666207311
:101C6000746F7265642073657474696E6773207233
:101C70006574726965766564202800202863616C4C
:101C800063756C6174656429210A0020213D200080
:101C9000454550524F4D20435243206D69736D614D
:101CA000746368202D202873746F72656429200086
:101CB000290A002062797465733B206372632000F7
:101CC0002073746F7265642073657474696E6773D2
:101CD00020726574726965766564202800204D6104
:101CE000726C696E3D56313231290A0028454550E3
:101CF000524F4D3D00454550524F4D207665727311
:101D0000696F6E206D69736D61746368200056653C
:101D10002D6A65726B0056652D6A65726B0056659B
:101D20002D6A65726B00567A2D6A65726B00567A61
:101D30002D6A65726B0056792D6A65726B00567953
:101D40002D6A65726B0056792D6A65726B00567844
:101D50002D6A65726B0056782D6A65726B00567835
:101D60002D6A65726B004D6F74696F6E00457374F8
:101D70006570732F6D6D004573746570732F6D6D95
:101D8000005A73746570732F6D6D005A73746570AB
:101D9000732F6D6D005973746570732F6D6D0059DD
:101DA00073746570732F6D6D005873746570732F45
:101DB0006D6D005873746570732F6D6D004D6F7489
:101DC000696F6E0053746570732F6D6D004A657294
:101DD0006B00416363656C65726174696F6E005678
:101DE000656C6F6369747900436F6E74726F6C0019
:101DF0004F6E200052756E6F75742073656E736F31
:101E000072730046696C2E204469612E0046696C2D
:101E10002E204469612E004F6666004F6E200045FB
:101E200020696E206D6D33004F666600436F6E74DF
:101E3000726F6C0043616E6E6F7420656E746572B4
:101E4000207375626469723A2000052E2E004D6180
:101E5000696E0048617264636F64656420446566FE
:101E600061756C742053657474696E6773204C6F70
:101E7000616465640A00B80B0000B80B00006400E0
:101E80000000102700000000964300009643000069
:101E9000A0410000C8419A99A0429A99A04200002E
:101EA000C8430080C54320440020490020204D3312
:101EB000303420500020440020490020204D333091
:101EC000312050005049442073657474696E677303
:101ED0003A0A0020460020420020480020204D31D0
:101EE00034352053004D6174657269616C206865FA
:101EF0006174757020706172616D65746572733A9A
:101F00000A00204500205A00205900205800204295
:101F10000020540020204D3230352053004164769B
:101F2000616E6365643A20533C6D696E5F666565FA
:101F300064726174653E20543C6D696E5F747261B9
:101F400076656C5F66656564726174653E20423CCF
:101F50006D696E5F7365676D656E745F74696D65DD
:101F60005F75733E20583C6D61785F78795F6A6574
:101F7000726B3E205A3C6D61785F7A5F6A65726B66
:101F80003E20453C6D61785F655F6A65726B3E0A15
:101F90000020540020520020204D323034205000C8
:101FA000416363656C65726174696F6E2028756E3C
:101FB0006974732F7332293A20503C7072696E74C1
:101FC0005F616363656C3E20523C7265747261634D
:101FD000745F616363656C3E20543C747261766526
:101FE0006C5F616363656C3E0A00204500205A0007
:101FF00020590020204D3230312058004D61786941
:102000006D756D20416363656C65726174696F6E97
:102010002028756E6974732F7332293A0A0020459F
:1020200000205A0020590020204D32303320580023
:102030004D6178696D756D20666565647261746562
:10204000732028756E6974732F73293A0A0020452E
:1020500000205A0020590020204D393220580053CA
:10206000746570732070657220756E69743A0A0029
:1020700020204D3230302044300A0020204D3230B4
:10208000302044002044697361626C65640A004634
:10209000696C616D656E742073657474696E6773C5
:1020A0003A0020204D3134392043203B20556E69C1
:1020B000747320696E2043656C736975730A002020
:1020C00020473231202020203B20556E6974732038
:1020D000696E206D6D0A0053442063617264206F45
:1020E0006B0A006F70656E526F6F74206661696C69
:1020F00065640A00766F6C756D652E696E69742073
:102100006661696C65640A00534420696E697420D5
:102110006661696C0A006175746F25692E67004DF0
:102120003234004D32332025730057726974696E62
:102130006720746F2066696C653A20006F70656E69
:10214000206661696C65642C2046696C653A2000E4
:102150006F70656E206661696C65642C2046696CE1
:10216000653A200046696C652073656C656374652B
:10217000640A002053697A653A200046696C65203C
:102180006F70656E65643A20006F70656E206661E1
:10219000696C65642C2046696C653A20002066698C
:1021A0006C653A2000646F696E67006672657368DB
:1021B000004E6F772000454E4420535542524F55F4
:1021C00054494E450A002220706F7300222070612E
:1021D00072656E743A2200535542524F5554494E1F
:1021E000452043414C4C207461726765743A22006B
:1021F0004B494C4C45442E2000747279696E67201F
:10220000746F2063616C6C207375622D67636F64FB
:10221000652066696C6573207769746820746F6FD8
:10222000206D616E79206C6576656C732E204D4152
:1022300058206C6576656C2069733A004572726F40
:10224000723A004D61782054656D703A2031323514
:10225000004D696E2054656D703A2035005442651A
:10226000643A4550434F53203130304B004D617834
:102270002054656D703A20323635004D696E205419
:10228000656D703A20350054303A204550434F5325
:10229000203130304B005053553A2047656E6572FF
:1022A00069630050726F746F636F6C3A20312E3027
:1022B00000202020204857205665723A20560046BC
:1022C00057205665723A2056322E300042617564AE
:1022D0003A203235303030300047543235363020F5
:1022E00056332E30004578747275646572733A20E7
:1022F0003100687474703A2F2F6D61726C696E666C
:10230000772E6F7267005072696E7465720032309A
:1023100031372D31322D32352031323A30300031E3
:102320002E312E38004D61726C696E0054686572F2
:102330006D6973746F727300426F61726420496ECD
:10234000666F005072696E74657220496E666F0028
:102350004D61696E0020204E6F7A7A6C653A2000DC
:102360004261636B004D696E696D756D2054656DDA
:1023700070206973203137302E0048656174696EB2
:1023800067206661696C6564004578747275646580
:10239000206D6F726500526573756D65207072698E
:1023A0006E7400524553554D45204F5054494F4E81
:1023B000533A0020204E6F7A7A6C653A20006368A9
:1023C000616E6765006F66207468652066696C6180
:1023D0006D656E74005761697420666F7220737446
:1023E000617274005052494E542050415553454437
:1023F0000020204E6F7A7A6C653A200066696C6125
:102400006D656E7420756E6C6F61640057616974E0
:1024100020666F72005052494E542050415553452A
:10242000440020204E6F7A7A6C653A2000506C652B
:1024300061736520776169742E2E2E004865617482
:10244000696E67206E6F7A7A6C65005052494E54FF
:10245000205041555345440020204E6F7A7A6C65D8
:102460003A200068656174206E6F7A7A6C652E0080
:10247000507265737320627574746F6E20746F0090
:102480005052494E54205041555345440020204E4F
:102490006F7A7A6C653A2000746F20636F6E74698E
:1024A0006E75652E2E2E00616E64207072657373DA
:1024B00020627574746F6E00496E73657274206665
:1024C000696C616D656E74005052494E54205041E4
:1024D000555345440000002100240027002A002D08
:1024E000003000330001010000040107010A01006F
:1024F000002200250028002B002E003100340002AD
:10250000010000050108010B010000200023002646
:102510000029002C002F00320000010000030106FA
:10252000010901050505050705080808080202025A
:10253000020A0A080804040404010101010101015E
:10254000010303030303030303040707070C0C0C35
:102550000C0C0C0C0C02020202060606060606060D
:10256000060B0B0B0B0B0B0B0B01021020200808AA
:1025700010204010204080020102010804020101E5
:1025800002040810204080804020100804020180CE
:102590000402018040201008040201080402010125
:1025A000020408102040800102040810204080002E
:1025B000000A0B02090C0D0E0807030401000000BD
:1025C000000000000000000000000000000000000B
:1025D00000000000000000000000001211100000C8
:1025E00000000000000000000000000000000000EB
:1025F0000000000000000070C1000000C1000000E9
:10260000000000C8420000C8420000A041000000D5
:10261000005761726E696E673A20486F6D696E6728
:102620002042756D702044697669736F72203C207A
:10263000310A000202040000A0400000A040000097
:10264000004000006B430000644300008243FFFF32
:10265000FF4D36303020486F74656E6420746F6FA4
:1026600020636F6C6420746F206368616E676520FF
:1026700066696C616D656E740A0020746F6F206C02
:102680006F6E6720657874727573696F6E207072F3
:102690006576656E7465640A0020636F6C642065FE
:1026A0007874727573696F6E2070726576656E747A
:1026B00065640A0070012C0190012701B00122011C
:1026C000C0011D01F00118011002130130020E01BA
:1026D0006002090190020401C002FF000003FA0039
:1026E0004003F5008003F000D003EB002004E60077
:1026F0007004E100E004DC004005D700C005D20012
:102700004006CD00D006C8008007C3003008BE00D8
:10271000F008B900C009B400B00AAF00B00BAA00BD
:10272000D00CA500000EA000500F9B00C01096001A
:102730005012910000148C00C0158700B017820061
:10274000B0197D00D01B7800001E730040206E0081
:1027500090226900F024640040275F0090295A000D
:10276000E02B5500102E500020304B001032460058
:10277000E033410090353C001037370070383200AC
:10278000A0392D00B03A2800A03B2300603C1E0079
:10279000103D1900903D1400103E0F00703E0A00DD
:1027A000C03E0500003F0000403FFBFF803FF6FFBA
:1027B000C03FF1FF4572723A204D494E54454D508D
:1027C00020424544004572723A204D494E54454DD1
:1027D00050004D494E54454D5020747269676765ED
:1027E000726564004572723A204D415854454D500F
:1027F00020424544004572723A204D415854454D9F
:1028000050004D415854454D5020747269676765BA
:1028100072656400202F002042403A0020403A00B8
:10282000205A3A0020593A0020436F756E742058A0
:102830003A0020453A00205A3A0020593A00583AC6
:10284000003A004361703A00252900257C002028C9
:1028500000252920746F205A00257C002028004F75
:102860004E2066726F6D205A004F464600477261D7
:102870006469656E74204D69782000290A004669F4
:1028800078656420706172616D657465722062792B
:102890007465733B20637263200046697865642029
:1028A000706172616D6574657220280048565F73AF
:1028B00065745F6F6B0A005654726176206D696EA5
:1028C000005654726176206D696E005654726176BE
:1028D000206D696E00566D696E00566D696E00560A
:1028E0006D696E00566D6178204500566D617820E7
:1028F0004500566D6178204500566D6178205A007C
:10290000566D6178205A00566D6178205A00566DD8
:102910006178205900566D6178205900566D6178B4
:10292000205900566D6178205800566D6178205806
:1029300000566D61782058004D6F74696F6E0041CC
:102940006D6178204500416D6178204500416D61E1
:1029500078205A00416D6178205A00416D617820DD
:102960005900416D6178205900416D61782058000F
:10297000416D6178205800412D74726176656C005C
:10298000412D74726176656C00412D7265747261BF
:10299000637400412D7265747261637400416363F6
:1029A000656C00416363656C004D6F74696F6E0008
:1029B0005344207072696E74696E67206279746521
:1029C00020004E6F74205344207072696E74696EDB
:1029D000670A00486F6D652025732573257320668F
:1029E00069727374002066697273740A005A005920
:1029F000005800486F6D6520004D6F7665205800C7
:102A00004D6F76652059004D6F7665205A004578E8
:102A1000747275646572004D6F766520302E316D6D
:102A20006D004D6F766520316D6D004D6F766520C0
:102A300031306D6D004D6F766520617869730048A7
:102A40006F74656E6420746F6F20636F6C640045F3
:102A500078747275646572004D6F7665205A004D0A
:102A60006F76652059004D6F766520580045787463
:102A70007275646572004D6F7665205A004D6F76F1
:102A8000652059004D6F7665205800507265706161
:102A9000726500526573656E643A20006F6B006268
:102AA0007573793A2070617573656420666F722062
:102AB000696E7075740A00627573793A2070617579
:102AC00073656420666F7220757365720A006275A3
:102AD00073793A2070726F63657373696E670A0069
:102AE0004B494C4C45442E20004B494C4C206361D3
:102AF0007573656420627920746F6F206D756368EB
:102B000020696E6163746976652074696D65202D36
:102B10002063757272656E7420636F6D6D616E6493
:102B20003A2000506C6561736520726573657400AE
:102B30005052494E5445522048414C54454400504F
:102B400072696E7465722068616C7465642E206BA6
:102B5000696C6C28292063616C6C6564210A0062D1
:102B600065640A002C2073797374656D2073746F2B
:102B70007070656421204865617465725F49443AEC
:102B8000200048656174696E67206661696C6564E0
:102B90000048656174696E67206661696C656400F0
:102BA00048656174696E67206661696C6564004898
:102BB000656174696E67206661696C656400C3F560
:102BC000A4FA11241FBECFEFD1E2DEBFCDBF00E0DB
:102BD0000CBF13E0A0E0B2E0EAE5FEE002E00BBFCC
:102BE00002C007900D92AC3BB107D9F726E1ACEBE0
:102BF000B3E001C01D92A03DB207E1F715E1C0EEC0
:102C0000D5E100E006C021970109802FFE010F9455
:102C10008506CF3DD10780E00807A9F70E9421ED86
:102C20000D941C070C9400002F923F924F925F92DC
:102C30006F927F928F929F92AF92BF92CF92DF92CC
:102C4000EF92FF920F931F93CF93DF93CDB7DEB731
:102C5000C059D1090FB6F894DEBF0FBECDBF81E0D9
:102C600090E09093C5148093C4148091C9168D345C
:102C700009F424C6843511F40C94FC2D873411F02A
:102C80000C944A2E8091C7169091C81684309105F5
:102C900009F453C554F497FF02C00C94642E20919C
:102CA0008D02823091057CF529C08A35910509F4A1
:102CB000B7C56CF48B31910509F486C54C9711F0BA
:102CC0000C94642E80E00E941A390C94642E8B358B
:102CD000910509F4A9C58C35910511F00C94642E69
:102CE0000E94F8E88EE8282E82E0382E99E7E92E37
:102CF00095E1F92E00E0D12C10E0C0C521110C9413
:102D00006B2E0C94642E222311F40C94642E11E08B
:102D1000029709F010E00E944C3882E50E9440388A
:102D2000882309F43CC10E94DE376B017C0140908E
:102D3000791550907A1560907B1570907C152091D4
:102D40007D1530917E1540917F155091801528ABEF
:102D500039AB4AAB5BAB8091B4149091B514A091A0
:102D6000B614B091B7148CAB9DABAEABBFAB20919A
:102D7000B8143091B9144091BA145091BB1428AFD3
:102D800039AF4AAF5BAF20E030E0A901C701B6011F
:102D90000E9467FF882309F4B6C4A30192016CA9BD
:102DA0007DA98EA99FA90E9467FF81110DC028A946
:102DB00039A94AA95BA968AD79AD8AAD9BAD0E94DE
:102DC00067FF882309F49FC420E030E0A901C70110
:102DD000B6010E9467FF881F8827881F18130BC041
:102DE00080E090E0A0E8BFE32C968CAF9DAFAEAF43
:102DF000BFAF2C970AC020E030E040E85FEB2C9694
:102E00002CAF3DAF4EAF5FAF2C97A30192016CA9E1
:102E10007DA98EA99FA90F947D0324966CAF7DAFE9
:102E20008EAF9FAF249728A939A94AA95BA968AD9D
:102E300079AD8AAD9BAD0F947D0328966CAF7DAFC5
:102E40008EAF9FAF289724962CAD3DAD4EAD5FADB4
:102E50002497CA01B9010E94CCFF4B015C0128965E
:102E60002CAD3DAD4EAD5FAD2897CA01B9010E94B2
:102E7000CCFF9B01AC01C501B4010F947E030F94FC
:102E8000E9056CAF7DAF8EAF9FAF20E030E040E052
:102E90005FE30E94CCFF4B015C01A7019601C701D3
:102EA000B6010E94CCFF6B017C01A5019401C50114
:102EB000B4010E94CCFF9B01AC01C701B6010F9485
:102EC0007D030F94E9059B01AC012C966CAD7DADA3
:102ED0008EAD9FAD2C970E94CCFF4B015C012CA9BD
:102EE0003DA94EA95FA9C301B2010F947E0320E062
:102EF00030E040E05FE30E94CCFF6B017C0128964C
:102F00006CAD7DAD8EAD9FAD289790582CAD3DAD8D
:102F10004EAD5FAD0F945A049B01AC01C501B401E5
:102F20000E94CCFF9B01AC01C701B6010F947E0348
:102F3000A30192010F947D036B017C0128AD39AD93
:102F40004AAD5BAD68A979A98AA99BA90F947E03B4
:102F500020E030E040E05FE30E94CCFF2B013C0129
:102F60002CAD3DAD4EAD5FAD24966CAD7DAD8EAD5F
:102F70009FAD24970F945A049B01AC01C501B40185
:102F80000E94CCFF9B01AC01C301B2010F947E03F0
:102F900028A939A94AA95BA90F947D0314C089E423
:102FA0000E944038882329F00E94DE376B017C01A3
:102FB00003C0C12CD12C76018AE40E9440388823BA
:102FC000D9F00E94DE3768AF79AF8AAF9BAF20E0BF
:102FD00030E0A901C701B6010E9467FF81111AC044
:102FE00020E030E0A90168AD79AD8AAD9BAD0E94CB
:102FF00067FF81110FC087C320E030E0A901C7013E
:10300000B6010E9467FF882309F47DC318AE19AE8C
:103010001AAE1BAED701C601B05888AB99ABAAABAC
:10302000BBAB28AD39AD4AAD5BAD50582CAB3DAB19
:103030004EAB5FAB9C01AD01BC01CD010E94CCFF4A
:103040004B015C012CA93DA94EA95FA9CA01B90198
:103050000E94CCFF9B01AC01C501B4010F947E031B
:103060000F94E9056C966CAF7DAF8EAF9FAF6C97F8
:103070008091791590917A15A0917B15B0917C156E
:103080008CAF9DAFAEAFBFAFA7019601BC01CD0124
:103090000F947E032C966CAF7DAF8EAF9FAF2C97B5
:1030A00020917D1530917E1540917F1550918015AE
:1030B00028962CAF3DAF4EAF5FAF289728AD39AD06
:1030C0004AAD5BAD28966CAD7DAD8EAD9FAD2897BA
:1030D0000F947E0360966CAF7DAF8EAF9FAF60970D
:1030E0008091B4149091B514A091B614B091B71416
:1030F00064968CAF9DAFAEAFBFAF64972C962CADEE
:103100003DAD4EAD5FAD2C97BC01CD010F947D035D
:103110006B017C012091B8143091B9144091BA141C
:103120005091BB1468962CAF3DAF4EAF5FAF689720
:1031300060962CAD3DAD4EAD5FAD609768966CADC1
:103140007DAD8EAD9FAD68970F947D034B015C0103
:103150008091811590918215A0918315B09184156D
:10316000A4968CAF9DAFAEAFBFAFA4979C01AD014D
:103170006091BC147091BD148091BE149091BF14E5
:103180000F947D0324966CAF7DAF8EAF9FAF2497D5
:103190002091C0143091C1144091C2145091C314B5
:1031A000A0962CAF3DAF4EAF5FAFA0978091851535
:1031B00090918615A0918715B0918815A8968CAF2F
:1031C0009DAFAEAFBFAFA897A701960168A979A937
:1031D0008AA99BA90E94CCFF2B013C01A501940167
:1031E0006CA97DA98EA99FA90E94CCFF9B01AC016F
:1031F000C301B2010F947E032B013C01A501940190
:1032000068A979A98AA99BA90E94CCFF4B015C01FE
:10321000A70196016CA97DA98EA99FA90E94CCFF48
:103220009B01AC01C501B4010F947D03A301920180
:103230000F94F1036B017C0120E030E0A9010E94B2
:1032400067FF87FF0AC02BED3FE049EC50E4C70160
:10325000B6010F947E036B017C01112351F02BED1D
:103260003FE049EC50E4C701B6010F947D036B01C8
:103270007C0120E030E0A901C701B6010E9467FF90
:10328000811126C064962CAD3DAD4EAD5FAD649707
:103290006CAD7DAD8EAD9FAD0E9467FF811118C0F2
:1032A00068962CAD3DAD4EAD5FAD689728966CAD80
:1032B0007DAD8EAD9FAD28970E9467FF811108C03C
:1032C0003BEDC32E3FE0D32E39ECE32E30E4F32E5A
:1032D0006C962CAD3DAD4EAD5FAD6C97C701B601A0
:1032E0000E94CCFF9B01AC010E94CCFF4B015C0112
:1032F00024962CAD3DAD4EAD5FAD2497CA01B9010A
:103300000E94CCFF9B01AC01C501B4010F947E0368
:103310000F94E9054B015C012FE632E143E85AE3E3
:103320000E9467FF87FDEBC1C501B4010F94F30450
:103330000F94C7041B01672B19F422242394312C0A
:10334000B10180E090E00E946BFF4B015C019B01AA
:10335000AC01C701B6010F945A046CAF7DAF8EAFBC
:103360009FAFA501940124966CAD7DAD8EAD9FAD50
:1033700024970F945A046C966CAF7DAF8EAF9FAFBD
:103380006C97A8962CAD3DAD4EAD5FADA897A096BD
:103390006CAD7DAD8EAD9FADA0970F947D03A50163
:1033A00094010F945A04A0966CAF7DAF8EAF9FAF7F
:1033B000A0972CAD3DAD4EAD5FADCA01B9010E94E5
:1033C000CCFF20E030E040E05FE30E94CCFF9B01B7
:1033D000AC0160E070E080E89FE30F947D036496A9
:1033E0006CAF7DAF8EAF9FAF6497A4962CAD3DAD13
:1033F0004EAD5FADA49729873A874B875C87A89627
:103400008CAD9DADAEADBFADA8978D879E87AF87C4
:10341000B88B6091680270916902072E000C880BCE
:10342000990B0E946DFF20910002309101024091A2
:103430000202509103020E94CCFF2AE037ED43E2E2
:103440005CE30E94CCFF68A379A38AA39BA30E949C
:10345000C9B49B01AC0128533F4F4F4F5F4F689653
:103460002CAF3DAF4EAF5FAF689748A859A86AA888
:103470007BA841E050E026965FAF4EAF269759E11A
:1034800021965FAF21972696AEADBFAD2697A215C8
:10349000B30509F424C10E9471E70E94C9B4DC019C
:1034A000CB0168962CAD3DAD4EAD5FAD6897821BEC
:1034B000930BA40BB50BB7FD11C00E94C9B49B01BF
:1034C000AC0128533F4F4F4F5F4F68962CAF3DAF35
:1034D0004EAF5FAF689780E00E94ABE121963FADB1
:1034E0002197315021963FAF2197332309F441C0F2
:1034F00064962CAD3DAD4EAD5FAD64976CA97DA9D2
:103500008EA99FA90E94CCFF6B017C012CAD3DAD23
:103510004EAD5FADB201C3010E94CCFFA701960181
:103520000F947E036B017C0164962CAD3DAD4EADD6
:103530005FAD6497B201C3010E94CCFF4B015C01F7
:103540002CAD3DAD4EAD5FAD6CA97DA98EA99FA9F7
:103550000E94CCFF9B01AC01C501B4010F947D0317
:103560002B013C01C601D7018CAB9DABAEABBFAB11
:1035700055C026964EAD5FAD2697BA0180E090E02B
:103580000E946BFF2CAD3DAD4EAD5FAD0E94CCFFF8
:103590004B015C010F9457046B017C01C501B40120
:1035A0000F94DF054B015C01A701960168A979A979
:1035B0008AA99BA90E94CCFF2B013C01A501940183
:1035C00068AD79AD8AAD9BAD0E94CCFF9B01AC018B
:1035D000C301B2010F947E032B013C01A5019401AC
:1035E00068A979A98AA99BA90E94CCFF4B015C011B
:1035F000A701960168AD79AD8AAD9BAD0E94CCFF65
:103600009B01AC01C501B4010F947D036CAB7DAB94
:103610008EAB9FAB59E121965FAF21979201A30139
:103620002C966CAD7DAD8EAD9FAD2C970F947E0327
:1036300069837A838B839C832CA93DA94EA95FA9BA
:1036400060966CAD7DAD8EAD9FAD60970F947E039F
:103650006D837E838F8398876C962CAD3DAD4EAD88
:103660005FAD6C9769857A858B859C850F947E0309
:1036700069877A878B879C87A0962CAD3DAD4EAD30
:103680005FADA0976D857E858F8598890F947E03A9
:103690006D877E878F87988B80918702882321F0A2
:1036A000CE0101960E942FBCE12C8E01005E1F4FBF
:1036B0009E01235F3F4FAE01475F5F4FBE016B5FCF
:1036C0007F4FCE0101960E9484EA26968EAD9FAD73
:1036D0002697019626969FAF8EAF2697D4CEE12CE3
:1036E0008E01005E1F4F20EC34E14CEB54E168EB9F
:1036F00074E184EB94E10E9484EA0E9405390E94FF
:103700000F390C94642EECE3F2E284918F010F5F89
:103710001F4F882321F00E94CE3AF801F6CFE5E34F
:10372000F2E084918F010F5F1F4F882311F40C94F6
:10373000642E0E94CE3AF801F4CF80E50E94403812
:10374000882329F00E949E376B017C0103C0C12CA5
:10375000D12C760183E50E944038882361F00E94D5
:10376000DE3720E030E04AE754E40E94CCFF0F94BB
:10377000C7046B017C010E94F8E880912502811149
:1037800005C060E08BE492E00E944AB90E940F39C4
:1037900080912D1690912E16A0912F16B091301673
:1037A000C80ED91EEA1EFB1E0E94C9B4DC01CB0163
:1037B0008C199D09AE09BF09B7FD02C00C94642E97
:1037C00080E00E94ABE1F0CF0E940DDA81110C94F1
:1037D000642E80E090E0A0E4B0E489839A83AB8318
:1037E000BC838D839E83AF83B88780E090E0A0E2A6
:1037F000B1E489879A87AB87BC8780E50E9440380F
:10380000882319F00E94AE3701C060E068A3BE01B2
:103810006F5F7F4FCE0180960E94F79D0C94642EBF
:103820001092C0030C94642E81E08093C0030C942A
:10383000642E0E94DE372B013C01D7012D913D9172
:103840004D915C910F947D034B015C012DEB37E3AF
:1038500046E855EB0F94A40587FD18C02DEB37E320
:1038600046E855E3C501B4010E9467FF181674F0DD
:103870001F5FF4E0EF0EF11C1430A1F0F101819113
:103880001F010E944038882399F3D3CF133019F0D9
:10389000DD24D39401C001E0F701408251826282AD
:1038A0007382E6CFDD2019F00E942A3703C0011190
:1038B0000E94ABDA0E9411D40C94642E8091C7163A
:1038C0009091C8168637910509F443C60CF0DBC009
:1038D0008D34910509F462C30CF056C0893191050D
:1038E00009F4E6C21CF58431910509F462C27CF446
:1038F0008131910509F459C22CF4029708F4C1C131
:103900000C94642E429709F4ABC50C94642E863156
:10391000910509F497C20CF491C28731910509F41D
:1039200097C2489709F4AAC20C94642E8F3191056E
:1039300009F428C394F48B31910509F4CBC20CF43B
:10394000BBC28C31910509F4C9C24E9711F00C9499
:10395000642E0E945C3C0C94642E8A32910509F41A
:1039600015C32CF4809709F4C3C20C94642E8B34D5
:10397000910509F40FC38C34910511F00C94642E59
:103980000E94E9DA0C94642E8B36910509F4D6C4B2
:103990000CF04CC08535910509F466C57CF582357F
:1039A000910509F454C504F58135910511F00C9485
:1039B000642E0E94B1D00E94F8E80E9451E110925A
:1039C000601510925F1568EE73E080E090E00E9451
:1039D000A5B80E94F8E80E94A73660E086E293E06E
:1039E0000E944AB90C94642E8335910509F433C5BD
:1039F0008435910509F434C50C94642E88369105FC
:103A000009F4D0C24CF48C35910511F00C94642E5D
:103A10000E94DFD40C94642E8936910509F4EFC31B
:103A20008A36910509F465C40C94642E803791059B
:103A300009F497C384F48D36910509F424C40CF479
:103A40008CC38E36910509F404C38F36910509F4B1
:103A500013C30C94642E8237910509F420C50CF42D
:103A600084C38337910509F420C58537910511F08A
:103A70000C94642E60E08091C5169091C6160E9449
:103A80006DB90C94642E823E910511F40C94B2260B
:103A90000CF06DC0863A910509F452C76CF58C386C
:103AA000910509F48EC384F48837910509F4F4C5AF
:103AB0000CF48EC58937910509F4F5C58D3791054C
:103AC00009F44EC40C94642E8B39910509F4B4C3E7
:103AD0004CF48139910511F00C94642E0E94D53A72
:103AE0000C94642E833A910509F4E3C5843A910558
:103AF00009F445C60C94642E8C3C910509F486C7E4
:103B0000F4F4883C910509F41FC734F48E3B910509
:103B100009F4D5C30C94642E893C910509F45CC763
:103B20008B3C910511F00C94642E4AE1E42E45E1A2
:103B3000F42E0EE812E054E0D52ED00E58C7833D87
:103B4000910511F40C94DF2534F48D3C910509F4B2
:103B5000C9C70C94642E8C3D910511F40C945D261C
:103B60008D3D910511F40C946B260C94642E8939CB
:103B700021E0920711F40C948E2C0CF040C08F328F
:103B800041E0940711F40C948128DCF48C32A1E01C
:103B90009A0711F40C94E9263CF48232914011F416
:103BA0000C94DC260C94642E8D32F1E09F0711F406
:103BB0000C9412278E32914011F40C942D280C9401
:103BC000642E833631E0930711F40C94B92D3CF444
:103BD0008033914011F40C94B0270C94642E8039FA
:103BE000A1E09A0711F40C948B2C8839914011F0C4
:103BF0000C94642E81E080933D120C94642E873FD8
:103C0000E1E09E0711F40C94972CFCF4843F21E032
:103C1000920711F40C94912C4CF48A39914011F0D4
:103C20000C94642E0E9449D30C94642E853F51E07D
:103C3000950711F40C94942C863F914011F00C944C
:103C4000642E0E94BEA20C94642E803AB3E09B07BF
:103C500009F48BC13CF48835924011F40C94A32CE8
:103C60000C94642E873E23E0920711F40C94F92DF6
:103C7000893D974011F00C94642E0E9492D10C94CF
:103C8000642EA090C516B090C61680E50E944038FC
:103C9000882359F00E949E376B017C0111E0672B4D
:103CA000682B692B31F410E004C010E0C12CD12C3A
:103CB000760183E50E9440388823F1F00E94DE37C8
:103CC00020E030E04AE754E40E94CCFF0F94C704A0
:103CD0006B017C01111112C0672B682B692B71F4E9
:103CE000A114B10459F0D5018C91882339F061E019
:103CF000C5010E946DB90FC0112391F360E082E706
:103D000092E00E944AB91092F6081092F7081092B9
:103D1000F8081092F90883E090E09093C51480931E
:103D2000C41481E08093F5080E94F8E80E940F39DE
:103D3000C114D104E104F104F1F080912D169091A9
:103D40002E16A0912F16B0913016C80ED91EEA1E5D
:103D5000FB1E0E94C9B4DC01CB018C199D09AE0980
:103D6000BF09B7FF1EC08091F5088823D1F080E01D
:103D70000E94ABE1EECF8091F508882321F080E02E
:103D80000E94ABE1F8CF809172099091730960E0D5
:103D9000029719F483E692E002C084E592E00E9463
:103DA0004AB91092F5080C94642E0E9485350C9443
:103DB000642EE4E9F2E084918F010F5F1F4F8823A6
:103DC00021F00E94CE3AF801F6CF1092320C1092F8
:103DD000310C40E050E0BA018BEB99E00E94BB56F9
:103DE0008BE1EBEBF9E0DE01159601900D928A95DF
:103DF000E1F78091B9099091BA099C838B8388EB94
:103E000092E09A83898340E050E0BE016F5F7F4F6C
:103E100085EB93E00E942F4DCE0101960E943FE179
:103E2000E5E8F2E084918F010F5F1F4F882311F4C2
:103E30000C94642E0E94CE3AF801F4CF0E9492A80E
:103E40000C94642E10928209109283090C94642EB3
:103E5000E091C516F091C6168081882329F0803242
:103E600009F410823196F8CF40E061E08091C516E8
:103E70009091C6160E9448A50C94642E19821A824D
:103E80001B821C8218A219A21AA21BA28091C6141E
:103E9000882341F040E0BE016F5F7F4FCE018096E6
:103EA0000E9468BE0E9437530E9467AA0C94642E39
:103EB0000E941F370C94642E80918309882311F48B
:103EC0000C94642E83E50E94403881110C94432F9A
:103ED0000C94642E0E9403DB0C94642E40E060E09E
:103EE0008091C5169091C6160E9448A50C94642E28
:103EF0008091820981110E94F8E8809183098823CA
:103F000011F40C94642E80E50E944038882319F047
:103F10000E94CF3703C080E50E941138182F482F28
:103F200061E08091C5169091C6160E9448A583E570
:103F30000E944038882381F00E94AE37AB01BC015B
:103F40004093B3095093B4096093B5097093B609CF
:103F50008FE79BE00E94BB560E94375311110C94CF
:103F6000642E0E9467AA0C94642E8091C5169091CD
:103F7000C61621E02093810940E060E00E9448A538
:103F80000C94642E0E948F3B0C94642E0E94413B43
:103F90000C94642E0E9467AA0C94642E0E9408510F
:103FA0000C94642E88E690E00E949C4081110C9451
:103FB000642E8091450C83FF02C00C94642E83E52F
:103FC0000E944038882309F440C00E94DE370F94D5
:103FD000C20470935E1560935D1580E00E9466D008
:103FE0000E94DE3720E030E04AEA52E40E9467FF98
:103FF00018163CF00E94085160E08CEA92E00E94A2
:104000004AB90E94DE372091A5143091A614409140
:10401000A7145091A8140F94A4051816B4F487E1BE
:1040200093E09F938F938091F11490E001969F937A
:104030008F9385EA92E09F938F931F920E944EAADE
:104040000FB6F894DEBF0FBECDBF0E94C5FA0C9428
:10405000642E8EE40E944038882311F40C94642E60
:104060000E94AE3760934D1270934E1280934F12A0
:10407000909350120C94642E83E50E94113888238B
:1040800059F083E50E944038882319F00E94BE371A
:1040900001C080E08093450CE8E6FDE084918F014B
:1040A0000F5F1F4F882321F00E94CE3AF801F6CF10
:1040B000E9ECF2E084918F010F5F1F4F882321F01C
:1040C0000E94CE3AF801F6CF8091450C8823A1F1E9
:1040D0000BEBC02E02E0D02EE12CF12C20E08091E1
:1040E000450C90E00E2C02C0959587950A94E2F756
:1040F00080FF17C0BB24B394B20E222319F08CE2C8
:104100000E94CE3AF60125913491F90184918901FA
:104110000F5F1F4F882321F00E94CE3A9801F5CF00
:104120002B2DFFEFEF1AFF0A32E0C30ED11C45E042
:10413000E416F104A1F60CC0E5ECF2E084918F01E5
:104140000F5F1F4F882321F00E94CE3AF801F6CF6F
:104150008AE00E94CE3A0C94642E10926A020C946B
:10416000642E80ED92E00E945AE183E50E9440387F
:10417000882369F00E94BE378D3320F48093880233
:104180000C94642E8CE3809388020C94642EE8E6F1
:10419000FDE084918F010F5F1F4F882321F00E9463
:1041A000CE3AF801F6CF4091880250E060E070E02E
:1041B00089ED92E00E94B6778AE00E94CE3A0C9494
:1041C000642E8091450C83FF02C00C94642E83E51D
:1041D0000E944038882311F40C94642E0E94DE372C
:1041E0000F94C2046E37710514F06DE770E07093A0
:1041F0005C1560935B150E941BD00C94642E89E6BD
:1042000090E00E949C40811111C0E0EEF2E08491A8
:104210008F010F5F1F4F882321F00E94CE3AF801D3
:10422000F6CF0E94E4CD8AE00E94CE3A1092C514E7
:104230001092C4140C940F3483E50E9440388823F4
:1042400011F40C94642E0E94BE37182F8D3308F0A1
:104250001CE310932A160E94C9B46B017C01212F24
:1042600030E0A8EEB3E00F946E03C60ED71EE81E32
:10427000F91EC0922616D0922716E0922816F092C8
:1042800029160C94642E8DE690E00E949C408111CA
:104290000C94642E8091450C83FF02C00C94642E14
:1042A00083E50E94403888AF81110C94542F82E539
:1042B0000E94403881110C94542F0C94642E8091EC
:1042C000450C83FF02C00C94642E60E089E193E00A
:1042D0000E944AB983E50E94403888AF81110C944E
:1042E000D83082E50E94403881110C94D8300C946B
:1042F000642E80E50E944038811108C083E50E9449
:104300004038811109C03FEF20E00AC00E94BE374B
:1043100081110C94642EF2CF0E94AE37362F272FD6
:10432000832F922F8F3F910519F010F08FEF90E0BF
:104330009093601580935F150C94642E80E50E9425
:104340004038811106C01092601510925F150C94D0
:10435000642E0E94AE37672B11F00C94642EF3CFBD
:104360008CE40E941138882319F00E94DE3704C0C3
:1043700060E070E080E090EC6CA37DA38EA39FA32F
:1043800080E090E0A0E4B0E489839A83AB83BC83AF
:104390008D839E83AF83B88780E090E0A0E2B1E494
:1043A00089879A87AB87BC8788E50E944038882335
:1043B00079F088E50E944038882319F00E94DE37A2
:1043C00003C060E070E0CB0169837A838B839C83B8
:1043D00089E50E944038882379F089E50E944038B9
:1043E000882319F00E94DE3703C060E070E0CB0143
:1043F0006D837E838F8398878AE50E944038882367
:1044000079F08AE50E944038882319F00E94DE374F
:1044100003C060E070E0CB0169877A878B879C8757
:1044200018A219A21AA21BA28091C61481110C9481
:10443000642E00E020E0AE01405E5F4FBE016F5F82
:104440007F4FCE0184960E948CBD0C94642E1092F6
:10445000BF030C94642E81E08093BF030C94642E00
:104460000E947DD50C94642E83E50E941138882328
:1044700011F40C94642E0E94DE3720E030E04AE70D
:1044800054E40E94CCFF0F94C704609331167093DC
:10449000321680933316909334160C94642E0E9437
:1044A000F8E80E9411D40C94642EEAEEF3E08491B3
:1044B0008F010F5F1F4F882321F00E94CE3AF80131
:1044C000F6CF60E08AED93E00E94CDD361E083ED0A
:1044D00093E00E94CDD361E088EC93E00E94CDD3BD
:1044E00061E088EB93E00E94CDD360E08FEA93E037
:1044F0000E94CDD361E085EA93E00E94CDD360E0D5
:104500008BE993E00E94CDD360E083E993E00E94C1
:10451000CDD360E085E893E00E94CDD360E087E7EB
:1045200093E00E94CDD360E088E693E00E94CDD373
:1045300061E08AE593E00E94CDD361E084E493E0FA
:104540000E94CDD360E083E393E00E94CDD30C942E
:10455000642E85E40E944038882319F00E94CF37EA
:1045600003C085E40E941138882361F0E8E6FDE08D
:1045700084918F010F5F1F4F882321F00E94CE3A54
:10458000F801F6CF81E40E944038882319F00E9498
:10459000CF3703C081E40E941138882361F0EDEA2F
:1045A000F4E084918F010F5F1F4F882321F00E9458
:1045B000CE3AF801F6CF0091C5161091C616D80173
:1045C0008D918D01882309F4C3CD0E94CE3AF7CF97
:1045D000E9ECF4E084918F010F5F1F4F882321F0F5
:1045E0000E94CE3AF801F6CFE1ECF4E084918F011D
:1045F0000F5F1F4F882321F00E94CE3AF801F6CFBB
:10460000029B03C000E013E002C005E013E0F801E4
:1046100081918F01882319F00E94CE3AF8CF8AE069
:104620000E94CE3AE9EBF4E084918F010F5F1F4FB7
:10463000882321F00E94CE3AF801F6CF069B03C0F2
:1046400000E013E002C005E013E0D8018D918D0178
:10465000882319F00E94CE3AF8CF8AE00E94CE3A21
:10466000E1EBF4E084918F010F5F1F4F882321F06D
:104670000E94CE3AF801F6CF379B03C000E013E06A
:1046800002C005E013E0F80181918F01882309F44D
:104690005FCD0E94CE3AF7CF81E08093530980939B
:1046A00052090C94642E10925309109252090C94E2
:1046B000642E83E50E944038882349F00E94AE377B
:1046C0008B016230710514F00C94642E02C000E07E
:1046D00010E080E50E944038882341F10E94DE37D7
:1046E0006B017C0120E030E0A9010E9467FF87FD9B
:1046F0001DC02DEB37E346E855EBC701B6010F941B
:10470000A40587FD0AC02DEB37E346E855E3C70152
:10471000B6010E9467FF18167CF4A701960160E0BD
:1047200070E080E89FE30F945A0409C0C12CD12C9B
:104730007601C701B60103C060E070E0CB01F8016B
:10474000EE0FFF1FEE0FFF1FE951FB4F60837183D8
:1047500082839383012B11F00C94642E20E030E0CF
:1047600048EC52E4C701B6010E94CCFF0F94C70485
:1047700070E070938814609387140C94642E83E522
:104780000E944038882349F00E94AE378B01603187
:10479000710514F00C94642E02C000E010E0C0908B
:1047A000E704D090E804E090E904F090EA042DEBEF
:1047B00037E346E855EBC701B6010F94A40587FF20
:1047C00009C0A701960160E070E080E89FE30F94C4
:1047D0005A040DC02DEB37E346E855E3C701B60197
:1047E0000E9467FF18166CF360E070E0CB0120E0D8
:1047F00030E0A9010F947E034B015C01C090EB04F3
:10480000D090EC04E090ED04F090EE042DEB37E353
:1048100046E855EBC701B6010F94A40587FF0BC00E
:10482000A701960160E070E080E89FE30F945A04CE
:104830009B01AC010DC02DEB37E346E855E3C70102
:10484000B6010E9467FF18165CF320E030E0A90172
:10485000C501B4010F947E034B015C0120E030E000
:1048600040E85FE30F947D036B017C012DEB37E3A0
:1048700046E855EB0F94A40587FF03C0E3EEF4E090
:104880000EC02DEB37E346E855E3C701B6010E94A1
:1048900067FF18169CF332C00E94CE3AF70184914C
:1048A0007F012FEFE21AF20A8111F6CFA5019401E0
:1048B0006091E7047091E8048091E9049091EA0422
:1048C0000E94CCFF6093E7047093E8048093E904AE
:1048D0009093EA04A50194016091EB047091EC04BB
:1048E0008091ED049091EE040E94CCFF6093EB0464
:1048F0007093EC048093ED049093EE0463E0000F5A
:10490000111F6A95E1F7F801E55CFB4F8091E70420
:104910009091E804A091E904B091EA048083918326
:10492000A283B3838091EB049091EC04A091ED04F9
:10493000B091EE0484839583A683B7830C94642E90
:104940000E9427D20C94642E88EC90E00E949C4038
:1049500081110C94642E84E40E9411388823C1F1E3
:104960000E94DE3711E020E030E0A9010E9467FFDD
:10497000811101C010E010934212112349F10E94ED
:10498000DE37E091F11434E0E39FF0011124E25CA2
:10499000FD4E608371838283938320E030E0A90120
:1049A00060913E1270913F1280914012909141129D
:1049B0000E9467FF81110CC080E090E0A0EEBFE391
:1049C00080933E1290933F12A0934012B0934112F5
:1049D0000E944D9B0C94642E0E94A8D30C94642ECC
:1049E000F4E0EF0EF11CD01611F40C94642ED801F3
:1049F0008D918D010E941138882391F30E94DE373A
:104A0000F7016083718382839383EACF83E50E94F9
:104A100011388823D9F00E94DE37AB01BC014093E6
:104A20004215509343156093441570934515409378
:104A30003A1550933B1560933C1570933D1580E7F4
:104A400095E00E94F0778AE00E94CE3A80E50E94CD
:104A50001138882399F00E94DE37AB01BC014093E6
:104A6000421550934315609344157093451583E5A3
:104A700095E00E94F0778AE00E94CE3A82E50E949B
:104A80001138882399F00E94DE37AB01BC014093B6
:104A90003E1550933F15609340157093411584E384
:104AA00095E00E94F0778AE00E94CE3A84E50E9469
:104AB0001138882311F40C94642E0E94DE37AB0168
:104AC000BC0140933A1550933B1560933C1570938D
:104AD0003D1586E195E00E94F0778AE00E94CE3A8B
:104AE0000C94642E83E50E941138882351F00E94B3
:104AF000DE376093161570931715809318159093F1
:104B0000191584E50E941138882351F00E94DE3780
:104B100060931215709313158093141590931515C7
:104B200082E40E941138882351F00E949E376093DE
:104B3000D8147093D9148093DA149093DB1488E519
:104B40000E941138882351F00E94DE3760932D12A5
:104B500070932E1280932F129093301289E50E9449
:104B60001138882351F00E94DE3760933112709320
:104B7000321280933312909334128AE50E941138D6
:104B8000882351F00E94DE376093351270933612FD
:104B9000809337129093381285E40E94113888234D
:104BA00011F40C94642E0E94DE37609339127093D6
:104BB0003A1280933B1290933C120C94642EE8E6D8
:104BC000FDE084918F010F5F1F4F882321F00E9429
:104BD000CE3AF801F6CF83E50E941138882321F000
:104BE0000E94CF3780938702E0ECF5E084918F013B
:104BF0000F5F1F4F882321F00E94CE3AF801F6CFB5
:104C000080918702811103C0ECEBF5E002C0E8EB74
:104C1000F5E084918F010F5F1F4F882321F00E94E0
:104C2000CE3AF801F6CFE0EBF5E084918F010F5F0B
:104C30001F4F882321F00E94CE3AF801F6CF40E0C2
:104C400050E0BA018EEA95E00E94F07740E050E033
:104C5000BA018BEA95E00E94F07740E050E0BA019B
:104C600088EA95E00E94F077E0EAF5E084918F0110
:104C70000F5F1F4F882321F00E94CE3AF801F6CF34
:104C800040E050E06CE573E48EE995E00E94F07737
:104C900040E050E06CE573E48BE995E00E94F0772A
:104CA00040E050E062E873E488E995E00E94F07724
:104CB0008AE00E94CE3A0C94642E83E50E9440382C
:104CC000882311F40C94642E0E94AE37709369020D
:104CD00060936802F9C78DED90E00E949C408111BD
:104CE000F3C783E50E944038882309F4EDC700919B
:104CF000F11410E00E94AE37000F111FF801EA59BD
:104D0000FD4F718360838091F11490E08C01000F5E
:104D1000111F000F111F98012E593D4F7901880F67
:104D2000991FFC01EA59FD4F60817181072E000C2B
:104D3000880B990B0E946DFF2AE037ED43E25CE39C
:104D40000E94CCFFF801EA5BF34F20813181428160
:104D500053810E94CCFFD7016D937D938D939C93DB
:104D60001397B2C780E50E941138882309F4ACC7B5
:104D70000E94AE376B017C0183E50E944038882396
:104D800021F00E94AE378B0102C00FEF1FEFC80168
:104D90000196039708F098C7D7FC96C79C2DE0EDC5
:104DA000F5E08BE28E0F2491921709F48DC73196AE
:104DB0008E13F9CF0C94E6338AE50E9440388111B6
:104DC0000C942C3283E50E94403881110C942C32D3
:104DD0007BC783E50E944038882319F00E94AE37D4
:104DE00002C064E071E079A368A380E50E944038C6
:104DF000882339F00E94AE376938B3E17B0730F47D
:104E000002C068EE73E07A83698304C088E893E1A6
:104E10009A838983BE01605E7F4FCE0101960E9416
:104E20001AAA52C785E40E944038811110C080E55B
:104E30000E941138882391F00E94DE376093071298
:104E4000709308128093091290930A1207C00E946F
:104E5000BE37882361F3ECE3F2E271C089E40E947B
:104E60001138882381F00E94DE372CEA35EC47E2C6
:104E70005EE30E94CCFF60930F1270931012809338
:104E800011129093121284E40E941138882381F049
:104E90000E94DE372CEA35EC47E25EE30F945A04B9
:104EA00060930B1270930C1280930D1290930E125C
:104EB000E8E6FDE084918F010F5F1F4F882321F00A
:104EC0000E94CE3AF801F6CF409107125091081295
:104ED0006091091270910A1283E096E00E94F077C7
:104EE0002CEA35EC47E25EE360910F1270911012EC
:104EF00080911112909112120F945A04AB01BC01CF
:104F00008FEF95E00E94D3772CEA35EC47E25EE321
:104F100060910B1270910C1280910D1290910E12F3
:104F20000E94CCFFAB01BC018BEF95E00E94D377D0
:104F30008AE00E94CE3AC8C60E94CE3AF801849117
:104F40008F010F5F1F4F8111F7CF02E213E0F801CD
:104F500081918F01882309F4FBC80E94CE3AF7CFD4
:104F600080E50E941138882351F00E94DE3760935B
:104F70004D1670934E1680934F169093501689E4F9
:104F80000E941138882381F00E94DE372CEA35EC2C
:104F900047E25EE30E94CCFF6093491670934A1685
:104FA00080934B1690934C1684E40E94113888230A
:104FB00081F00E94DE372CEA35EC47E25EE30F9485
:104FC0005A04609345167093461680934716909343
:104FD0004816E8E6FDE084918F010F5F1F4F88239C
:104FE00021F00E94CE3AF801F6CF40914D16509133
:104FF0004E1660914F16709150168FE096E00E9409
:10500000F0772CEA35EC47E25EE360914916709147
:105010004A1680914B1690914C160F945A04AB018E
:10502000BC018BE096E00E94D3772CEA35EC47E296
:105030005EE36091451670914616809147169091F7
:1050400048160E94CCFFAB01BC0187E096E00E94AD
:10505000D3778AE00E94CE3A37C683E50E941138A2
:10506000182F882371F00E94DE370F94C2047093CA
:105070007F0260937E0221E0672B09F020E02093FD
:10508000A91480E50E941138882359F020917E02EE
:1050900030917F02232B11F00E94CF378093A91407
:1050A00013C6111111C6E8E6FDE084918F010F5F70
:1050B0001F4F882321F00E94CE3AF801F6CF80914D
:1050C000A914811103C06FE073E002C062E073E0D5
:1050D00088E296E00E9406E960917E0270917F026C
:1050E00087E196E00E940D78E3E1F6E084918F017C
:1050F0000F5F1F4F882309F4E7C50E94CE3AF801DD
:10510000F5CF85E40E944038882321F00E94AE3715
:105110007B0102C0E12CF12C83E40E9440388823FB
:1051200031F00E94AE37AF966FAFAF9704C045E045
:10513000AF964FAFAF9785E50E944038882319F0AE
:105140000E94CF3703C085E50E941138EB968FAFE0
:10515000EB97F7FC07C0812C912CB6E1AB2EB3E4A2
:10516000BB2E06C0812C912CACE8AA2EA2E4BA2E4C
:1051700083E50E944038882321F00E94DE374B01EE
:105180005C01E114F10411F41092F114E8AA0E94F8
:10519000C9B42B013C0158A957FD02C00CE301C062
:1051A00004EB61E06E0D623028F4F3E3EF2EF3E0E0
:1051B000FF2E0CC006E413E0D8018D918D018823E9
:1051C00011F40C94A8200E94CE3AF6CFF7018191F9
:1051D0007F01882319F00E94CE3AF8CF8AE00E941E
:1051E000CE3A0E94B1D0F8A9F7FF04C08FE78093B0
:1051F000F01408C028A9E22F220FFF0BE151FB4E4B
:105200008FE78083C501B4010F94C204072E000C00
:10521000880B990B0E946DFF6CAF21967FAF219791
:1052200025968FAF259729969FAF2997A02F000F1E
:10523000BB0B28EE33E00F948D06EF966CAF7DAF7D
:105240008EAF9FAFEF97DC01CB01840D951DA61D9E
:10525000B71DC957DF4F88839983AA83BB83C7587B
:10526000D04081E080936A02E6964CAE5DAE6EAEB1
:105270007FAEE697C158DF4F488259826A827B82AF
:10528000CF57D040E2961FAEE297CD57DF4F18823E
:1052900019821A821B82C358D040A1961FAEA197D3
:1052A00090E4A5969FAFA597ACE16996AFAF6997DB
:1052B000B6E46D96BFAF6D97A9961FAEA997AA9653
:1052C0001FAEAA97AB961FAEAB97AC961FAEAC972E
:1052D00068961CAE1DAE1EAE1FAE689764961CAEDF
:1052E0001DAE1EAE1FAE6497C12CD12C76012FE7E8
:1052F00030E040E050E028AF39AF4AAF5BAF7FE726
:10530000872E912CA12CB12CEA961CAE1DAE1EAEA0
:105310001FAEEA9731E0E1963FAFE1972E961FAEC0
:105320001EAE2E9710E0212C312C00E048A9842FCE
:10533000440F990BDC01A151BB4EC557DF4FB98318
:10534000A883CB58D040880F991F880F991FFC0164
:10535000EB55FB4EAE96FFAFEEAFAE97AF962FADCF
:10536000AF97022E000C330BE0963FAF2EAFE097C5
:1053700080916A02882309F420C10E94C9B46CABF1
:105380007DAB8EAB9FAB8091ED14882309F4F3C005
:105390000E9470D138A937FF09C01091D811209010
:1053A000D9113090DA110091DB110DC0AE96AEAD7F
:1053B000BFADAE971C9111962C90119712963C9010
:1053C000129713960C91212F322D432D502FA99611
:1053D0006FADA997AA967FADAA97AB968FADAB9705
:1053E000AC969FADAC970E9467FF87FF0CC0A99653
:1053F0001FAFA997AA962FAEAA97AB963FAEAB97D1
:10540000AC960FAFAC97212F322D432D502FA19684
:105410006FADA197A5967FADA59769968FAD69975A
:105420006D969FAD6D970F94A405181664F4A19620
:105430001FAFA197A5962FAEA59769963FAE699726
:105440006D960FAF6D97E196BFADE1972CAD2196AC
:105450003FAD219725964FAD259729965FAD2997AA
:10546000612F722D832D902FBB2309F46AC00F94F6
:10547000A40518160CF07FC02CA93DA94EA95FA960
:105480002419350946095709C357DF4F2883398343
:105490004A835B83CD58D040DA01C90188589341D3
:1054A000A109B109B7FD67C0D501C40128AD39AD67
:1054B0004AAD5BAD821B930BA40BB50B38A9B59518
:1054C000A7959795879537FF03C08093F01407C081
:1054D000C557DF4FE881F981CB58D0408083C3574F
:1054E000DF4F288139814A815B81CD58D040EA96CF
:1054F0002CAF3DAF4EAF5FAFEA973CADA9963FAF43
:10550000A99721964FAD2197AA964FAFAA972596B6
:105510005FAD2597AB965FAFAB9729968FAD299777
:10552000AC968FAFAC972CA93DA94EA95FA9E69682
:105530002CAF3DAF4EAF5FAFE697E1961FAEE19760
:105540001AC00E9467FF87FF16C08CA99DA9AEA94B
:10555000BFA9E6962CAD3DAD4EAD5FADE697821B83
:10556000930BA40BB50BAC01BD0148585341610925
:10557000710977FFAAC720E030E040EA51E46CAD42
:1055800021967FAD219725968FAD259729969FADC2
:1055900029970F947E039B01AC01612F722D832DFF
:1055A000902F0F94A40518167CF4E6E3F7E084919D
:1055B0008F010F5F1F4F811103C00E94B1D084C3C0
:1055C0000E94CE3AF801F3CF8CA99DA9AEA9BFA93C
:1055D000C158DF4F288139814A815B81CF57D04044
:1055E000821B930BA40BB50BB7FDADC00E94E4CD9D
:1055F0008AE00E94CE3A8CA99DA9AEA9BFA980538A
:10560000984FAF4FBF4FC158DF4F88839983AA830C
:10561000BB83CF57D040E2969FADE297911172C005
:10562000CD57DF4F288139814A815B81C358D040F3
:10563000612F722D832D902F0F94A40518160CF056
:105640004AC020E030E040EC50E46CAD21967FADE4
:10565000219725968FAD259729969FAD29970F9471
:105660007D039B01AC01A1E0E296AFAFE297612F11
:10567000722D832D902F0F94A40518161CF0E2961E
:105680001FAEE29720E030E040E050E4612F722D41
:10569000832D902F0F947E03CD57DF4F688379833E
:1056A0008A839B83C358D0402CA93DA94EA95FA9EA
:1056B000EF968CAD9DADAEADBFADEF97280F391F06
:1056C0004A1F5B1FC957DF4F288339834A835B8397
:1056D000C758D04038C08CA99DA9AEA9BFA9C95749
:1056E000DF4F288139814A815B81C758D040821BB6
:1056F000930BA40BB50BB7FD26C048E157E067E25A
:1057000077E01EC020E030E040EA51E46CAD219625
:105710007FAD219725968FAD259729969FAD299727
:105720000F947D039B01AC01612F722D832D902F6F
:105730000E9467FF87FF07C048EF56E068E077E008
:1057400088A90E9405E78CA99DA9AEA9BFA9880FC9
:10575000991FAA1FBB1FE6962CAD3DAD4EAD5FADA8
:10576000E697821B930BA40BB50B84199509A60928
:10577000B70981389F44A241B10568F0EAEDF6E02F
:1057800084918F010F5F1F4F882309F416CF0E9469
:10579000CE3AF801F5CF2E964EAD5FAD2E97E0963E
:1057A0008EAD9FADE097841795070CF0B1C0EDE783
:1057B000F6E084918F010F5F1F4F882321F00E9434
:1057C000CE3AF801F6CF98A997FD03C005EB13E098
:1057D00002C003E113E0B8018BE696E00E9406E9FF
:1057E000B701A60187E696E00E94F0778AE00E9462
:1057F000CE3AB80185E596E00E9406E964964CAD84
:105800005DAD6EAD7FAD649781E596E00E94F07767
:105810008AE00E94CE3AB8018FE396E00E9406E942
:1058200068964CAD5DAD6EAD7FAD68978BE396E04D
:105830000E94F0778AE00E94CE3AEB96AFADEB97EC
:10584000AA2309F441C2B8A9B7FF31C0C0924D16CE
:10585000D0924E16E0924F16F09250162CEA35EC8C
:1058600047E25EE364966CAD7DAD8EAD9FAD64970F
:105870000E94CCFF6093491670934A1680934B1692
:1058800090934C162CEA35EC47E25EE368966CADDB
:105890007DAD8EAD9FAD68970F945A046093451609
:1058A0007093461680934716909348160DC2C09287
:1058B0000712D0920812E0920912F0920A122CEA12
:1058C00035EC47E25EE364966CAD7DAD8EAD9FAD89
:1058D00064970E94CCFF60930F1270931012809314
:1058E0001112909312122CEA35EC47E25EE36896AF
:1058F0006CAD7DAD8EAD9FAD68970F945A046093EB
:105900000B1270930C1280930D1290930E12DCC147
:105910000E940A492DCD0E94F8E8D6C110923D128E
:10592000D3C10E945089D0C10E94198ECDC183E598
:105930000E941138882321F00E94CF3791E08927F7
:105940000E94329FC1C180E090E0A0E4B0E489836E
:105950009A83AB83BC838D839E83AF83B88780E0BB
:1059600090E0A0E2B1E489879A87AB87BC870E9468
:105970000DDA882319F081E00E941A3985E40E942B
:105980001138882319F00E94DE3704C060E070E00F
:1059900080E090EC6CA77DA78EA79FA78AE50E9468
:1059A0004038882379F08AE50E944038882319F02E
:1059B0000E94DE3703C060E070E0CB0169877A8720
:1059C0008B879C8788E50E944038882379F088E59A
:1059D0000E944038882319F00E94DE3703C060E03F
:1059E00070E0CB0169837A838B839C8389E50E9475
:1059F0004038882379F089E50E944038882319F0DF
:105A00000E94DE3703C060E070E0CB016D837E83CF
:105A10008F83988785E50E941138882319F00E94AA
:105A2000DE3704C060E070E088EC93EC68A779A7EB
:105A30008AA79BA78CE40E941138882319F00E9442
:105A4000DE3704C060E070E088EC93E46CA37DA3D3
:105A50008EA39FA382E40E944038882321F00E94F5
:105A6000AE37162F01C015E0E0907209F09073096F
:105A70008091C614811176C001E0212FAE01485DEE
:105A80005F4FBE016F5F7F4FCE018C960E948CBD31
:105A9000882309F467C083E090E09093C514809355
:105AA000C41481E08093F5088091F508882309F4F7
:105AB0003FC060E0812FB3D7809113098823A1F103
:105AC00088E090E00E94044C8091F508882321F042
:105AD00081E00E94ABE1F8CF10925116109252165D
