:100000000C94E1150C9412160C9412160C94121602
:100010000C9412160C9412160C9412160C941216C0
:100020000C9412160C9412160C9412160C941216B0
:100030000C9412160C9412160C9412160C941216A0
:100040000C9412160C94A67E0C9412160C94121694
:100050000C9412160C9412160C94F2BF0C948BCCC8
:100060000C9412160C94C5400C9412160C94121693
:100070000C9412160C9412160C9412160C94121660
:100080000C9412160C9412160C9412160C94121650
:100090000C9412160C9412160C9412160C94121640
:1000A0000C9412160C9412160C9412160C94121630
:1000B0000C9412160C9412160C9412160C94121620
:1000C0000C9412160C9412160C9412160C94121610
:1000D0000C9412160C9412160C9412160C94121600
:1000E0000C941216CF6BD86BE26BEB6BF46B0F6C4E
:1000F0001C6C256CFD6B066C6ACA6DCA5CCA60CA52
:1001000066CAA4CA71CA75CA7BCA7FCA83CA89CAA9
:100110008DCA91CAA4CA97CA9BCA9FCAA7CBACCBA7
:10012000B1CBBBCBC5CB3ECCCFCBD7CBDFCBE9CB99
:10013000F3CBFDCB0CCC16CC3ECC20CC2ACC34CC93
:10014000084AD73B3BCE016E84BCBFFDC12F3D6C3E
:1001500074319ABD56833DDA3D00C77F11BED9E4A4
:10016000BB4C3E916BAAAABE000000803F05A84C84
:10017000CDB2D44EB93836A9020C50B99186880850
:100180003CA6AAAA2ABE000000803F004E414E496C
:100190004E495459494E46CDCCCC3D0AD7233C1745
:1001A000B7D13877CC2B329595E6241FB14F0A0092
:1001B0000020410000C84200401C4620BCBE4CCA82
:1001C0001B0E5AAEC59D74434F4D4D554E4943418C
:1001D00054494F4E0044525952554E004552524FC9
:1001E000525300494E464F004543484F0020746F1C
:1001F0006F206C6F6E6720657874727573696F6EAF
:100200002070726576656E7465640A0020636F6C99
:100210006420657874727573696F6E20707265768C
:10022000656E7465640A0054454D5020544F4F204C
:100230004C4F57210047322F4733206261642070B2
:100240006172616D65746572730A00536C656570E7
:100250002E2E2E0046696C652064656C657465649D
:100260003A0044656C6574696F6E206661696C65FF
:10027000642C2046696C653A20006F70656E2066BC
:1002800061696C65642C2046696C653A20004525DF
:1002900069202573005072696E7465722072656101
:1002A00064792E00E801E301DC01D501C7016F6626
:1002B000660044454255473A004B494C4C45442E54
:1002C00020004D3131332053006F6B00486561745D
:1002D000696E6720646F6E652E0020573A004525D1
:1002E00069202573005072696E74657220726561B1
:1002F00064792E0042656420646F6E652E0020577D
:100300003A004265642048656174696E672E00504A
:1003100072696E746572204F66662E007A5F6D6931
:100320006E3A2000795F6D696E3A2000785F6D69E2
:100330006E3A20005265706F7274696E6720656E48
:100340006473746F70207374617475730A004D3137
:10035000343520533C696E6465783E206F75742097
:100360006F662072616E67652028302D31290A0082
:1003700053657474696E672054726176656C2041B0
:100380006363656C65726174696F6E3A20005365D2
:100390007474696E6720526574726163742041637E
:1003A00063656C65726174696F6E3A2000536574A1
:1003B00074696E67205072696E7420416363656C66
:1003C00065726174696F6E3A200053657474696E6A
:1003D00067205072696E7420616E64205472617679
:1003E000656C20416363656C65726174696F6E3A18
:1003F0002000205A00205900580020204D61783AF2
:100400002000205A00205900580020204D696E3AE3
:1004100020004F6E20004F666600536F66742065A3
:100420006E6473746F70733A2000000125272318DF
:10043000FF1F211D1CFF19171B1EFFFF0C0409FFC6
:10044000FFFF2E2C0CFFFF312F3004400AFF41FF2D
:10045000FFFFFFFFFF20643A0020693A0020703A56
:100460000020643A0020693A0020703A0043290ACB
:100470000061626C656420286D696E2074656D7022
:100480002000436F6C642065787472756465732016
:1004900061726520004B64200023646566696E65A7
:1004A000202044454641554C545F004B69200023B1
:1004B000646566696E65202044454641554C545F2D
:1004C000004B70200023646566696E6520204445FA
:1004D0004641554C545F00504944204175746F7437
:1004E000756E652066696E69736865642120507554
:1004F0007420746865206C617374204B702C204BE1
:100500006920616E64204B6420636F6E7374616E4A
:1005100074732066726F6D2062656C6F7720696EF0
:10052000746F20436F6E66696775726174696F6E70
:100530002E680A00504944204175746F74756E65C9
:10054000206661696C6564212074696D656F7574DE
:100550000A00544845524D414C2052554E41574196
:100560005900546865726D616C2052756E617761D7
:10057000790048656174696E67206661696C6564BD
:100580000048656174696E67206661696C65640026
:10059000504944204175746F74756E6520666169B9
:1005A0006C6564212054656D706572617475726547
:1005B00020746F6F20686967680A00204B643A20D6
:1005C00000204B693A2000204B703A20000A20435B
:1005D0006C617373696320504944200A002054758C
:1005E0003A2000204B753A2000206D61783A2000B7
:1005F000206D696E3A200020643A20002062696113
:10060000733A2000556E6B6E6F776E20636F6D6D61
:10061000616E643A2022004C696E65204E756D62F1
:100620006572206973206E6F74204C617374204C66
:10063000696E65204E756D6265722B312C204C61A0
:100640007374204C696E653A20004B494C4C45440C
:100650002E200053544F505045442E2000507269B4
:100660006E7465722073746F707065642064756554
:1006700020746F206572726F72732E204669782025
:10068000746865206572726F7220616E6420757384
:1006900065204D39393920746F2072657374617229
:1006A000742E202854656D706572617475726520B2
:1006B00069732072657365742E20536574206974A4
:1006C0002061667465722072657374617274696EFC
:1006D00067290A004E6F20436865636B73756D2050
:1006E00077697468206C696E65206E756D626572DD
:1006F0002C204C617374204C696E653A200063684D
:1007000065636B73756D206D69736D617463682CBF
:10071000204C617374204C696E653A20004D313174
:1007200030004D33310047312046313030302058D1
:100730003020593231300047323820585900534464
:100740002072656164206572726F720A00446F6E78
:1007500065207072696E74696E672066696C650ADF
:100760000020496E76616C696420657874727564E6
:1007700065722000526573756D696E6720707269CD
:100780006E74005072696E7465722072656164796E
:100790002E00436C69636B20746F20726573756DF6
:1007A000652E2E2E004E6F206D6F76652E00456EE5
:1007B000642066696C65206C6973740A0042656721
:1007C000696E2066696C65206C6973740A004D312E
:1007D000323500200D466978656420706172616D64
:1007E00065746572206E62797465733B2063726311
:1007F000206572726F722000200D0A466978656468
:1008000020706172616D65746572206279746573C0
:100810003B20637263206572726F722000290A00A8
:100820002062797465733B206372632000466978A7
:10083000656420706172616D6574657220280020A6
:1008400068617264776172652076657273696F6E34
:100850003A004B494C4C45442E2000202D20496E37
:1008600076616C6964206578747275646572206E57
:10087000756D62657220210A002D2D2D2D2D2D0004
:100880007C4D61726C696E7C002D2D2D2D2D2D00FF
:10089000687474703A2F2F6D61726C696E66772E72
:1008A0006F726700687474703A2F2F6D61726C6993
:1008B0006E66772E6F72670020312E312E38002041
:1008C00020506C616E6E6572427566666572427923
:1008D0007465733A20002046726565204D656D6F22
:1008E00072793A2000436F6D70696C65643A204AF2
:1008F000616E20313520323032300A00207C2041B8
:100900007574686F723A20286E6F6E652C2064656E
:100910006661756C7420636F6E666967290A0032C0
:100920003031372D31322D32352031323A303000EE
:10093000204C61737420557064617465643A2000C2
:10094000312E312E380A004D61726C696E002053D1
:100950006F6674776172652052657365740A002052
:100960005761746368646F672052657365740A0029
:100970002042726F776E206F7574205265736574B4
:100980000A002045787465726E616C20526573654B
:10099000740A00506F77657255700A007374617243
:1009A000740A006572726F722077726974696E677B
:1009B00020746F2066696C650A00456E6473746FFD
:1009C0007073202563202563202563202563002084
:1009D0005A3A0020593A0020583A00656E64737400
:1009E0006F7073206869743A2000473238205800CD
:1009F00066696C616D656E74206F75740A004D33A5
:100A0000322053256C7520212573004D333220533D
:100A1000256C7520212F25732F2573004730204624
:100A200031303030205A25752E2575004732382058
:100A300059004732382058004D313036202053328B
:100A40003535004D31303920543020532575004D57
:100A50003139302053257500446F6E6520736176FF
:100A6000696E672066696C652E0A004D3239005444
:100A70004845524D414C2052554E41574159005422
:100A80006865726D616C2052756E617761790043A3
:100A9000616E6E6F74206F70656E2073756264692D
:100AA000722000656E7175657565696E672022003C
:100AB0006563686F3A007C3C3E5E2B3D3F2F5B5D7B
:100AC0003B2C2A225C004572726F72207772697427
:100AD000696E6720746F20454550524F4D210A00C2
:100AE0004D363030204230004368616E67652066C5
:100AF000696C616D656E74004261627973746570D2
:100B0000205A00466C6F7700466C6F770046616E26
:100B10002073706565640046616E2073706565645E
:100B20000042656400426564004E6F7A7A6C65002D
:100B30004E6F7A7A6C65005370656564005370651A
:100B40006564004D61696E0050726568656174206E
:100B5000504C4120456E6400507265686561742098
:100B6000504C412042656400507265686561742094
:100B7000504C41005072657061726500507265683A
:100B80006561742041425320456E6400507265686F
:100B9000656174204142532042656400507265686B
:100BA0006561742041425300507265706172650046
:100BB0004261636B004E65787420636F726E65727C
:100BC000005072656865617420504C4100436F6F3E
:100BD0006C646F776E005072656865617420414285
:100BE00053004368616E67652066696C616D656E70
:100BF000740044697361626C65207374657070651C
:100C00007273004D3834004C6576656C20636F72EA
:100C10006E657273004175746F20686F6D65004773
:100C20003238004D6F76652061786973004D6169D7
:100C30006E00285A203C3D2025642E25642900534F
:100C400074617274206D69783A20253364252520FB
:100C5000253364252500285A203E3D2025642E2575
:100C60006429002020456E64206D69783A20253380
:100C70006425252025336425250046756C6C206786
:100C800072616469656E74002533643B25336425A5
:100C900025002020456E64206D69783A0025336474
:100CA0003B2533642525005374617274206D697887
:100CB0003A004772616469656E74002534642E25BC
:100CC00064206D6D002020456E64205A3A00253462
:100CD000642E2564206D6D005374617274205A3A3D
:100CE000004772616469656E74206D6978004D69B2
:100CF000786572004D69783A2020202025336425DC
:100D000025202533642525004772616469656E746A
:100D100000546F67676C65206D6978002533643B0C
:100D20002533642525004D6978004D61696E0050BA
:100D300072696E7420706175736564004D3132356F
:100D400000002573004D3234005072696E742061CA
:100D5000626F727465640047323820585900473911
:100D600030004731204631303030205A3230004791
:100D70003931004E6F205344206361726400507219
:100D8000696E742066726F6D2053440053746F70E7
:100D9000207072696E740041626F757420507269C0
:100DA0006E74657200526573756D65207072696E40
:100DB00074005061757365207072696E74004D69BE
:100DC00078657200436F6E74726F6C00507265705C
:100DD0006172650054756E6500496E666F207363BD
:100DE0007265656E004261627973746570205A00A5
:100DF0004578747275646572733A20310068747452
:100E0000703A2F2F6D61726C696E66772E6F726704
:100E1000005072696E74657200323031372D313294
:100E20002D32352031323A303000312E312E38001B
:100E30004D61726C696E00546865726D6973746F90
:100E4000727300426F61726420496E666F00507267
:100E5000696E74657220496E666F004D61696E003F
:100E600020204E6F7A7A6C653A20004261636B00F5
:100E70004D696E696D756D2054656D7020697320C4
:100E80003137302E0048656174696E67206661698C
:100E90006C65640045787472756465206D6F726569
:100EA00000526573756D65207072696E74005245ED
:100EB00053554D45204F5054494F4E533A00202032
:100EC0004E6F7A7A6C653A20006368616E676500E0
:100ED0006F66207468652066696C616D656E74006C
:100EE0005761697420666F72207374617274005068
:100EF00052494E54205041555345440020204E6FD6
:100F00007A7A6C653A200066696C616D656E742052
:100F1000756E6C6F6164005761697420666F720052
:100F20005052494E54205041555345440020204EC4
:100F30006F7A7A6C653A2000506C65617365207732
:100F40006169742E2E2E0048656174696E67206E8B
:100F50006F7A7A6C65005052494E54205041555377
:100F600045440020204E6F7A7A6C653A200068650F
:100F70006174206E6F7A7A6C652E0050726573739F
:100F800020627574746F6E20746F005052494E5415
:100F9000205041555345440020204E6F7A7A6C65AD
:100FA0003A2000746F20636F6E74696E75652E2E23
:100FB0002E00616E642070726573732062757474A4
:100FC0006F6E00496E736572742066696C616D6541
:100FD0006E74005052494E542050415553454400C0
:100FE00020204E6F7A7A6C653A200066696C616DDC
:100FF000656E74206C6F6164005761697420666F60
:1010000072005052494E54205041555345440020DF
:10101000204E6F7A7A6C653A200066696C616D6566
:101020006E74206578747275646500576169742008
:10103000666F72005052494E5420504155534544FA
:1010400000746F20726573756D6500576169742057
:10105000666F72207072696E74005052494E54204F
:1010600050415553454400496E697469616C697A11
:101070006520454550524F4D00436F6E74726F6C42
:1010800000526573746F7265206661696C73616686
:1010900065004C6F61642073657474696E677300DA
:1010A000496E697469616C697A6520454550524F93
:1010B0004D0053746F72652073657474696E677345
:1010C0000046696C616D656E74004D6F74696F6E7A
:1010D0000054656D7065726174757265004D61696B
:1010E0006E004D333033205531204525692053257E
:1010F0006900507265686561742041425320636FD6
:101100006E66005072656865617420504C412063C2
:101110006F6E6600504944204175746F74756E653A
:1011200000504944204175746F74756E65005049D4
:10113000442D44005049442D44005049442D490059
:101140005049442D49005049442D50005049442DE8
:101150005000200220466163740020022046616333
:1011600074002002204D6178002002204D6178003B
:101170002002204D6178002002204D696E0020027F
:10118000204D696E002002204D696E004F6666009A
:101190004F6E20004175746F74656D700046616E0E
:1011A0002073706565640046616E207370656564C8
:1011B0000042656400426564004E6F7A7A6C650097
:1011C0004E6F7A7A6C6500436F6E74726F6C005369
:1011D000746F72652073657474696E67730042651D
:1011E0006400426564004E6F7A7A6C65004E6F7AD7
:1011F0007A6C650046616E207370656564004661B7
:101200006E2073706565640054656D7065726174FD
:1012100075726500290A002062797465733B20634A
:101220007263200053657474696E67732053746F22
:10123000726564202800290A5772697465206669FE
:101240006C65206E616D653A20002062797465736B
:101250003B206372632000506F7765726F66662073
:1012600053746F72656420280020213D2000637252
:1012700063206572726F723A20000A7265616420A1
:1012800066696C65206E616D653A2000290A726599
:1012900061642066696C65206469723A200020628E
:1012A000797465733B206372632000706F77657299
:1012B0006F66662073746F726564207365747469F9
:1012C0006E677320726574726965766564202800A4
:1012D000202863616C63756C6174656429210A0060
:1012E00020213D2000454550524F4D204352432080
:1012F0006D69736D61746368202D202873746F723B
:101300006564292000290A002062797465733B20F6
:1013100063726320002073746F7265642073657458
:1013200074696E677320726574726965766564208E
:101330002800204D61726C696E3D56313231290AA8
:101340000028454550524F4D3D00454550524F4DA8
:101350002076657273696F6E206D69736D61746359
:1013600068200024F4D43050C38E20C2A2401782DB
:101370008B7011127A910D816CD90AA861E108C7AE
:10138000586607615143061E4B5D05C145A7041A07
:10139000411104093D9803713931034036DB026580
:1013A000339102D4305402802E1D02632CEE01755D
:1013B0002AC501B028A001102781018F2564012BC7
:1013C000244B01E0223401AC211F018D200D01804E
:1013D0001FFC00841EED00971DDF00B81CD200E644
:1013E0001BC600201BBC00641AB200B219A8000A78
:1013F00019A0006A189900D117910040178B00B509
:1014000016840031167E00B31579003A157300C7B3
:10141000146F0058146A00EE1366008813630025E9
:10142000135E00C7125B006C12570015125400C106
:1014300011510070114F0021114B00D61049008D41
:101440001047004610440002104200C00F400080C8
:101450000F3E00420F3C00060F3B00CB0E380093BE
:101460000E37005C0E3500270E3400F30D3200C13C
:101470000D3100900D3000600D2E00320D2D000555
:101480000D2C00D90C2B00AE0C2900850C29005C1A
:101490000C2700350C27000E0C2600E80B2400C496
:1014A0000B2400A00B23007D0B23005A0B210039D5
:1014B0000B2100180B2000F80A1F00D90A1E00BBE0
:1014C0000A1E009D0A1D00800A1D00630A1C0047B9
:1014D0000A1B002C0A1B00110A1A00F7091A00DD6A
:1014E000091900C4091900AB091900920917007BFA
:1014F000091800630917004C091600360916002068
:101500000916000A091500F5081500E0081400CCBA
:10151000081400B8081400A4081400900813007DF3
:101520000812006B08130058081200460812003415
:10153000081100230811001208110001081100F021
:10154000071000E0071000D0071000C0071000B01F
:10155000070F00A107100091070E0083070F00740A
:10156000070F0065070E0057070E0049070E003BE6
:10157000070D002E070E0020070D0013070D0006B3
:10158000070D00F9060C00ED060D00E0060C00D476
:10159000060C00C8060C00BC060C00B0060C00A42B
:1015A000060B0099060C008D060B0082060B0077D7
:1015B000060B006C060B0061060A0057060B004C78
:1015C000060A0042060A0038060A002E060A00240F
:1015D000060A001A060A001006090007060A00FD9E
:1015E000050900F4050900EB050900E2050900D929
:1015F000050900D0050900C7050900BE050900B5A9
:10160000050800AD050800A50509009C0508009423
:101610000508008C050800840508007C0508007496
:101620000508006C050700650508005D0507005604
:101630000508004E0507004705070040050800386B
:10164000050700310507002A050700230507001CD0
:10165000050600160507000F05070008050600022D
:10166000050700FB040600F5040700EE040600E889
:10167000040600E2040700DB040600D5040600CFE0
:10168000040600C9040600C3040600BD040600B732
:10169000040600B1040500AC040600A6040600A080
:1016A0000405009B04060095040500900406008ACA
:1016B00004050085040500800406007A0405007511
:1016C000040500700405006B040500660405006154
:1016D0000405005C04050057040500520405004D94
:1016E00004050048040500430405003E0404003AD4
:1016F00004050035040500300404002C040500270F
:10170000040400230405001E0404001A0404001647
:10171000040500110404000D04040009040500047C
:1017200004040000040400FC030400F8030400F4B3
:10173000030400F0030400EC030400E8030400E4E5
:10174000030400E0030400DC030400D8030400D415
:10175000030400D0030400CC030400C8030300C545
:1017600003030024F404D9201BC40C5C0E9804C4A9
:10177000095F0265077101F405F900FB04B3004835
:10178000048700C10369005803550003034500BEE8
:10179000023A008402310053022A00290225000483
:1017A000022000E4011C00C8011900AF01170098D5
:1017B0000114008401130071011000610110005137
:1017C000010E0043010D0036010B002B010B002020
:1017D000010B00150109000C01090003010800FBC1
:1017E000000800F3000800EB000700E4000600DE3C
:1017F000000600D8000600D2000600CC000500C795
:10180000000500C2000500BD000400B9000400B5D9
:10181000000400B1000400AD000400A9000400A50C
:10182000000300A20003009F0004009B0003009837
:101830000003009500020093000300900003008D58
:101840000002008B00030088000200860002008472
:10185000000300810002007F0002007D0002007B87
:101860000002007900020077000100760002007497
:1018700000020072000100710002006F0002006DA2
:101880000001006C0002006A0001006900020067AC
:1018900000010066000100650001006400020062B2
:1018A00000010061000100600001005F0002005DB6
:1018B0000001005C0001005B0001005A00010059BA
:1018C00000010058000100570001005600010055BA
:1018D00000010054000100530000005300010052B9
:1018E00000010051000100500001004F0001004EB6
:1018F0000000004E0001004D0001004C0001004BB3
:101900000000004B0001004A0001004900010048AE
:1019100000000048000100470001004600000046AA
:1019200000010045000000450001004400010043A3
:10193000000000430001004200000042000100419D
:1019400000000041000100400001003F0000003F96
:101950000001003E0000003E0001003D0000003D8F
:101960000001003C0000003C0000003C0001003B86
:101970000000003B0001003A0000003A000100397D
:101980000000003900010038000000380000003875
:10199000000100370000003700010036000000366B
:1019A0000000003600010035000000350000003561
:1019B0000001003400000034000000340001003356
:1019C000000000330000003300010032000000324C
:1019D0000000003200010031000000310000003141
:1019E0000001003000000030000000300001002F36
:1019F0000000002F0000002F0000002F0001002E2B
:101A00000000002E0000002E0001002D0000002D1F
:101A10000000002D0000002D0001002C0000002C13
:101A20000000002C0000002C0001002B0000002B07
:101A30000000002B0000002B0001002A0000002AFB
:101A40000000002A0000002A0001002900000029EF
:101A500000000029000000290000002900010028E2
:101A600000000028000000280000002800000028D6
:101A700000010027000000270000002700000027C9
:101A800000000027000100260000002600000026BC
:101A900000000026000000260001002500000025AF
:101AA00000000025000000250000002500000025A2
:101AB0000001002400000024000000240000002495
:101AC0000000002400010023000000230000002388
:101AD000000000230000002300000023000000237A
:101AE000000100220000002200000022000000226D
:101AF000000000220000002200010021000000215F
:101B00000000002100000021000000210000002151
:101B10000000002100010020000000200000002043
:101B20000000002000000020000000200000002035
:101B3000000000200001001F0000001F0000001F27
:101B40000000001F0000001F0000001F0000001F19
:101B50000001001E0000001E0000001E0000001E0C
:101B60000000004D383420582059205A2045005A92
:101B700025752C45256C752C50256C752C542575B8
:101B80002C4225752C005072696E74657220726546
:101B90006164792E005072696E746572207265619D
:101BA00064792E004572723A4E6F2046696C616D01
:101BB000656E74004573746570732F6D6D004573A9
:101BC000746570732F6D6D005A73746570732F6D2B
:101BD0006D005A73746570732F6D6D005973746561
:101BE00070732F6D6D005973746570732F6D6D0078
:101BF0005873746570732F6D6D00587374657073CE
:101C00002F6D6D004D6F74696F6E00537465707346
:101C10002F6D6D004A65726B00416363656C657280
:101C20006174696F6E0056656C6F63697479004307
:101C30006F6E74726F6C004F6E200052756E6F7510
:101C4000742073656E736F72730046696C2E204446
:101C500069612E0046696C2E204469612E004F6632
:101C600066004F6E20004520696E206D6D33004F79
:101C7000666600436F6E74726F6C0043616E6E6FC8
:101C80007420656E746572207375626469723A209F
:101C900000052E2E004D61696E004D61782054655F
:101CA0006D703A20313235004D696E2054656D708B
:101CB0003A203500544265643A4550434F53203131
:101CC00030304B004D61782054656D703A203236CB
:101CD00035004D696E2054656D703A2035005430E2
:101CE0003A204550434F53203130304B005053552C
:101CF0003A2047656E657269630050726F746F6356
:101D00006F6C3A20312E300020202020485720567A
:101D100065723A2056004657205665723A20563270
:101D20002E3100426175643A203235303030300057
:101D30004754323536302056332E300020746F6FC2
:101D4000206C6F6E6720657874727573696F6E2092
:101D500070726576656E7465640A0020636F6C64EA
:101D600020657874727573696F6E20707265766520
:101D70006E7465640A0053442063617264206F6B63
:101D80000A006F70656E526F6F74206661696C65D2
:101D9000640A00766F6C756D652E696E69742066D5
:101DA00061696C65640A00534420696E6974206639
:101DB00061696C0A006175746F25692E67004D3288
:101DC00034004D32332025730057726974696E6791
:101DD00020746F2066696C653A20006F70656E2014
:101DE0006661696C65642C2046696C653A20006FF9
:101DF00070656E206661696C65642C2046696C654F
:101E00003A200046696C652073656C65637465648F
:101E10000A002053697A653A200046696C65206F94
:101E200070656E65643A20006F70656E206661694A
:101E30006C65642C2046696C653A20002066696CEC
:101E4000653A2000646F696E6700667265736800AA
:101E50004E6F772000454E4420535542524F555403
:101E6000494E450A002220706F7300222070617273
:101E7000656E743A2200535542524F5554494E45AF
:101E80002043414C4C207461726765743A22004BC8
:101E9000494C4C45442E2000747279696E67207459
:101EA0006F2063616C6C207375622D67636F64656E
:101EB0002066696C6573207769746820746F6F2081
:101EC0006D616E79206C6576656C732E204D41587E
:101ED000206C6576656C2069733A004572726F728A
:101EE0003A002569730025696D202569730025690D
:101EF000682025696D20256973002569642025699E
:101F0000682025696D202569730025697920256978
:101F100064202569682025696D2025697300507249
:101F2000696E742074696D653A200050726F746533
:101F3000637465642050696E0A00205A3A00205983
:101F40003A0020436F756E7420583A0020453A00DD
:101F5000205A3A0020593A00583A003A004361703A
:101F60003A00454D455247454E43595F5041525303
:101F7000455200434153455F4C494748545F4252E4
:101F8000494748544E45535300544F47474C455FCB
:101F90004C494748545300534F4654574152455FAC
:101FA000504F574552004255494C445F50455243AB
:101FB000454E54004C4556454C494E475F444154AC
:101FC00041005A5F50524F4245004155544F4C45D5
:101FD00056454C005052494E545F4A4F42005052B1
:101FE0004F4752455353004155544F5245504F525D
:101FF000545F54454D5000564F4C554D4554524931
:102000004300454550524F4D0053455249414C5FA6
:10201000584F4E5F584F4646004649524D57415221
:10202000455F4E414D453A4D61726C696E20312ECF
:10203000312E3820284769746875622920534F551E
:102040005243455F434F44455F55524C3A68747460
:1020500070733A2F2F6769746875622E636F6D2FE6
:102060004D61726C696E4669726D776172652F4D54
:1020700061726C696E2050524F544F434F4C5F5603
:10208000455253494F4E3A312E30204D4143484935
:102090004E455F545950453A5072696E74657220CE
:1020A00045585452554445525F434F554E543A316A
:1020B00020555549443A63656465326132662D3472
:1020C0003161322D343734382D396231322D633558
:1020D000356336326633363766660A002F2F2000A6
:1020E00043617365206C696768743A2000576172B8
:1020F0006E696E673A204D697820666163746F720D
:1021000073206D7573742061646420757020746F22
:1021100020312E302E205363616C696E672E0A00C9
:10212000252900257C00202800252920746F205AAD
:1021300000257C002028004F4E2066726F6D205ACB
:10214000004F4646004772616469656E74204D69B0
:10215000782000290A004669786564207061726100
:102160006D657465722062797465733B2063726378
:102170002000466978656420706172616D657465E0
:102180007220280048565F7365745F6F6B0A0048C1
:10219000617264636F6465642044656661756C7424
:1021A0002053657474696E6773204C6F6164656455
:1021B0000A00B80B0000B80B0000640000001027F4
:1021C000000000009643000096430000A04100007C
:1021D000C8419A99A0429A99A0420000C843008041
:1021E000C54320440020490020204D333034205086
:1021F0000020440020490020204D33303120500081
:102200005049442073657474696E67733A0A0020FC
:10221000460020420020480020204D313435205314
:10222000004D6174657269616C20686561747570D8
:1022300020706172616D65746572733A0A002045A1
:1022400000205A002059002058002042002054004D
:1022500020204D323035205300416476616E636535
:10226000643A20533C6D696E5F66656564726174A3
:10227000653E20543C6D696E5F74726176656C5F7B
:1022800066656564726174653E20423C6D696E5F8F
:102290007365676D656E745F74696D655F75733EB8
:1022A00020583C6D61785F78795F6A65726B3E207B
:1022B0005A3C6D61785F7A5F6A65726B3E20453C7F
:1022C0006D61785F655F6A65726B3E0A002054003D
:1022D00020520020204D323034205000416363658D
:1022E0006C65726174696F6E2028756E6974732FE6
:1022F0007332293A20503C7072696E745F61636377
:10230000656C3E20523C726574726163745F6163F8
:1023100063656C3E20543C74726176656C5F6163EA
:1023200063656C3E0A00204500205A0020590020B9
:10233000204D3230312058004D6178696D756D2027
:10234000416363656C65726174696F6E2028756E98
:102350006974732F7332293A0A00204500205A000D
:1023600020590020204D3230332058004D617869CB
:102370006D756D206665656472617465732028757E
:102380006E6974732F73293A0A00204500205A00A1
:1023900020590020204D3932205800537465707345
:1023A0002070657220756E69743A0A0020204D32E3
:1023B00030302044300A0020204D3230302044009C
:1023C0002044697361626C65640A0046696C616DE2
:1023D000656E742073657474696E67733A002020AB
:1023E0004D3134392043203B20556E697473206988
:1023F0006E2043656C736975730A00202047323183
:10240000202020203B20556E69747320696E206D5A
:102410006D0A00436172642072656D6F76656400B9
:102420004361726420696E73657274656400700143
:102430002C0190012701B0012201C0011D01F00112
:1024400018011002130130020E016002090190020E
:102450000401C002FF000003FA004003F5008003FE
:10246000F000D003EB002004E6007004E100E0047B
:10247000DC004005D700C005D2004006CD00D006E4
:10248000C8008007C3003008BE00F008B900C009CA
:10249000B400B00AAF00B00BAA00D00CA500000E2B
:1024A000A000500F9B00C010960050129100001425
:1024B0008C00C0158700B0178200B0197D00D01BBA
:1024C0007800001E730040206E0090226900F02406
:1024D000640040275F0090295A00E02B5500102E21
:1024E000500020304B0010324600E0334100903560
:1024F0003C001037370070383200A0392D00B03A58
:102500002800A03B2300603C1E00103D1900903DB8
:102510001400103E0F00703E0A00C03E0500003F50
:102520000000403FFBFF803FF6FFC03FF1FF4572D8
:10253000723A204D494E54454D5020424544004585
:1025400072723A204D494E54454D50004D494E54FB
:10255000454D502074726967676572656400457205
:10256000723A204D415854454D5020424544004553
:1025700072723A204D415854454D50004D415854C7
:10258000454D502074726967676572656400202F3D
:10259000002042403A0020403A00001C1F11111F49
:1025A00000000006191803130C00040E1F041C0081
:1025B0000000001010101010100000141414141457
:1025C00014000015151515151500000E1315110E24
:1025D00000001C10181705060500040A0A0A0A1153
:1025E000110E0C12120C00000000001F1511151F17
:1025F000000000000000010204040000001C1C0C8C
:10260000040404020100000000000408100000009F
:1026100000004D31303420532575004739322045B4
:10262000257500473932205A25752E2575004D3500
:1026300030300043616E63656C207072696E7400A7
:10264000526573756D65207072696E7400506F7796
:102650006572206F75746167650025753A253032A3
:102660007500253032753A25303275002D2D2D003C
:102670005344005A004D782025643B2564252520CD
:10268000004D785E25643B25642525200053746148
:102690007274205A3A202534642E2564206D6D0012
:1026A0002020456E64205A3A202534642E2564206B
:1026B0006D6D0000002100240027002A002D00304D
:1026C00000330001010000040107010A010000229B
:1026D00000250028002B002E0031003400020100EC
:1026E00000050108010B010000200023002600293D
:1026F000002C002F00320000010000030106010938
:102700000105050505070508080808020202020A76
:102710000A08080404040401010101010101010384
:1027200003030303030303040707070C0C0C0C0C3F
:102730000C0C0C0202020206060606060606060B32
:102740000B0B0B0B0B0B0B010210202008081020A9
:10275000401020408002010201080402010102042D
:1027600008102040808040201008040201800402EC
:102770000180402010080402010804020101020443
:102780000810204080010204081020408000000A48
:102790000B02090C0D0E08070304010000000000E5
:1027A0000000000000000000000000000000000029
:1027B00000000000000000000012111000000000E6
:1027C0000000000000000000000000000000000009
:1027D0000000005654726176206D696E0056547286
:1027E0006176206D696E005654726176206D696E57
:1027F00000566D696E00566D696E00566D696E000B
:10280000566D6178204500566D6178204500566D03
:102810006178204500566D6178205A00566D6178C8
:10282000205A00566D6178205A00566D6178205903
:1028300000566D6178205900566D61782059005618
:102840006D6178205800566D6178205800566D6192
:10285000782058004D6F74696F6E00416D6178206B
:102860004500416D6178204500416D6178205A0036
:10287000416D6178205A00416D6178205900416DA9
:102880006178205900416D6178205800416D617870
:10289000205800412D74726176656C00412D747270
:1028A0006176656C00412D726574726163740041DC
:1028B0002D7265747261637400416363656C0041DD
:1028C0006363656C004D6F74696F6E0056652D6AA9
:1028D00065726B0056652D6A65726B0056652D6AD0
:1028E00065726B00567A2D6A65726B00567A2D6A96
:1028F00065726B0056792D6A65726B0056792D6A88
:1029000065726B0056792D6A65726B0056782D6A78
:1029100065726B0056782D6A65726B0056782D6A69
:1029200065726B004D6F74696F6E004D36303020EC
:10293000486F74656E6420746F6F20636F6C6420E1
:10294000746F206368616E67652066696C616D6590
:102950006E740A00526573656E643A20006F6B00F6
:10296000627573793A2070617573656420666F7261
:1029700020696E7075740A00627573793A2070610F
:102980007573656420666F7220757365720A0062E4
:102990007573793A2070726F63657373696E670A35
:1029A000004B494C4C45442E20004B494C4C206375
:1029B000617573656420627920746F6F206D756333
:1029C0006820696E6163746976652074696D65203D
:1029D0002D2063757272656E7420636F6D6D616E0C
:1029E000643A2000506C656173652072657365748C
:1029F000005052494E5445522048414C54454400E1
:102A00005072696E7465722068616C7465642E2002
:102A10006B696C6C28292063616C6C6564210A0009
:102A2000000000C1000000C1000000000000C8421A
:102A30000000C8420000A041000000005761726E13
:102A4000696E673A20486F6D696E672042756D70D8
:102A50002044697669736F72203C20310A000202BB
:102A6000040000A0400000A04000000040000064FE
:102A7000430000644300008243FFFFFF5344207083
:102A800072696E74696E67206279746520004E6F9A
:102A900074205344207072696E74696E670A00482E
:102AA0006F6D6520257325732573206669727374B5
:102AB000002066697273740A005A00590058004871
:102AC0006F6D6520004D6F76652058004D6F7665FF
:102AD0002059004D6F7665205A00457874727564F0
:102AE0006572004D6F766520302E316D6D004D6F33
:102AF000766520316D6D004D6F76652031306D6DDE
:102B0000004D6F7665206178697300486F74656E5B
:102B10006420746F6F20636F6C6400457874727505
:102B2000646572004D6F7665205A004D6F766520A2
:102B300059004D6F7665205800457874727564654C
:102B400072004D6F7665205A004D6F7665205900F2
:102B50004D6F766520580050726570617265006235
:102B600065640A002C2073797374656D2073746F2B
:102B70007070656421204865617465725F49443AEC
:102B8000200048656174696E67206661696C6564E0
:102B90000048656174696E67206661696C656400F0
:102BA00048656174696E67206661696C6564004898
:102BB000656174696E67206661696C6564009DF586
:102BC00014FA11241FBECFEFD1E2DEBFCDBF00E06B
:102BD0000CBF13E0A0E0B2E0EEEAF0E102E00BBFD0
:102BE00002C007900D92AC3BB107D9F726E1ACEBE0
:102BF000B3E001C01D92A03DB207E1F715E1C0EEC0
:102C0000D5E100E006C021970109802FFE010F9455
:102C1000AF07CF3DD10780E00807A9F70E944DEE2E
:102C20000D9446080C9400002F923F924F925F92B1
:102C30006F927F928F929F92AF92BF92CF92DF92CC
:102C4000EF92FF920F931F93CF93DF93CDB7DEB731
:102C5000C35AD1090FB6F894DEBF0FBECDBF81E0D5
:102C600090E090933D1580933C158091C9168D346A
:102C700009F484C6843511F40C949A2E873411F02B
:102C80000C94E82E8091C7169091C8168430910557
:102C900009F4B3C554F497FF02C00C94022F20919D
:102CA0008D02823091057CF529C08A35910509F4A1
:102CB00017C66CF48B31910509F4E6C54C9711F0F9
:102CC0000C94022F80E00E94E03A0C94022F8B3586
:102CD000910509F409C68C35910511F00C94022F69
:102CE0000E94CBEC7EE8272E72E0372EEAE1EE2E32
:102CF000E6E1FE2E00E0D12C10E020C621110C945C
:102D0000092F0C94022F222311F40C94022F11E0AE
:102D1000029709F010E00E94703982E50E94643940
:102D2000882309F45CC10E9402396B017C01409048
:102D30001A1650901B1660901C1670901D1620914C
:102D40001E1630911F1640912016509121162B9679
:102D50002CAF3DAF4EAF5FAF2B9780912C1590916C
:102D60002D15A0912E15B0912F152F968CAF9DAFDC
:102D7000AEAFBFAF2F9720913015309131154091F4
:102D80003215509133156B962CAF3DAF4EAF5FAF00
:102D90006B9720E030E0A901C701B6010F949100C4
:102DA000882309F410C5A30192012F966CAD7DAD67
:102DB0008EAD9FAD2F970F949100811111C02B966E
:102DC0002CAD3DAD4EAD5FAD2B976B966CAD7DAD33
:102DD0008EAD9FAD6B970F949100882309F4F3C4D7
:102DE00020E030E0A901C701B6010F949100881FCF
:102DF0008827881F18130BC080E090E0A0E8BFE38D
:102E0000A3968CAF9DAFAEAFBFAFA3970AC020E033
:102E100030E040E85FEBA3962CAF3DAF4EAF5FAF25
:102E2000A397A30192012F966CAD7DAD8EAD9FADA2
:102E30002F970F94A70467966CAF7DAF8EAF9FAFAF
:102E400067972B962CAD3DAD4EAD5FAD2B976B9636
:102E50006CAD7DAD8EAD9FAD6B970F94A7046F9653
:102E60006CAF7DAF8EAF9FAF6F9767962CAD3DADCA
:102E70004EAD5FAD6797CA01B9010F94F6004B01E3
:102E80005C016F962CAD3DAD4EAD5FAD6F97CA0145
:102E9000B9010F94F6009B01AC01C501B4010F9478
:102EA000A8040F94130763966CAF7DAF8EAF9FAFEE
:102EB000639720E030E040E05FE30F94F6004B01C1
:102EC0005C01A7019601C701B6010F94F6006B01E2
:102ED0007C01A5019401C501B4010F94F6009B018A
:102EE000AC01C701B6010F94A7040F9413079B010F
:102EF000AC01A3966CAD7DAD8EAD9FADA3970F9445
:102F0000F6004B015C012F962CAD3DAD4EAD5FAD93
:102F10002F97C301B2010F94A80420E030E040E0F5
:102F20005FE30F94F6006B017C016F966CAD7DAD95
:102F30008EAD9FAD6F97905863962CAD3DAD4EAD65
:102F40005FAD63970F9484059B01AC01C501B4018B
:102F50000F94F6009B01AC01C701B6010F94A804C1
:102F6000A30192010F94A7046B017C016B962CAD19
:102F70003DAD4EAD5FAD6B972B966CAD7DAD8EAD1F
:102F80009FAD2B970F94A80420E030E040E05FE372
:102F90000F94F6002B013C0163962CAD3DAD4EAD78
:102FA0005FAD639767966CAD7DAD8EAD9FAD679756
:102FB0000F9484059B01AC01C501B4010F94F60088
:102FC0009B01AC01C301B2010F94A8042B962CAD58
:102FD0003DAD4EAD5FAD2B970F94A70414C089E4AF
:102FE0000E946439882329F00E9402396B017C0118
:102FF00003C0C12CD12C76018AE40E946439882355
:10300000F9F00E9402396B966CAF7DAF8EAF9FAF27
:103010006B9720E030E0A901C701B6010F94910041
:1030200081111EC020E030E0A9016B966CAD7DAD32
:103030008EAD9FAD6B970F949100811111C0C3C3EA
:1030400020E030E0A901C701B6010F949100882368
:1030500009F4B9C36B961CAE1DAE1EAE1FAE6B97C6
:10306000D701C601B0582B968CAF9DAFAEAFBFAFA6
:103070002B976B962CAD3DAD4EAD5FAD6B97505819
:103080002F962CAF3DAF4EAF5FAF2F979C01AD0198
:10309000BC01CD010F94F6004B015C012F962CADC5
:1030A0003DAD4EAD5FAD2F97CA01B9010F94F6004B
:1030B0009B01AC01C501B4010F94A8040F94130740
:1030C000E3966CAF7DAF8EAF9FAFE39780911A16FA
:1030D00090911B16A0911C16B0911D1663968CAF93
:1030E0009DAFAEAFBFAF6397A7019601BC01CD0105
:1030F0000F94A804A3966CAF7DAF8EAF9FAFA3973C
:1031000020911E1630911F164091201650912116C5
:103110006F962CAF3DAF4EAF5FAF6F976B962CADF8
:103120003DAD4EAD5FAD6B976F966CAD7DAD8EAD29
:103130009FAD6F970F94A804A7966CAF7DAF8EAF2D
:103140009FAFA79780912C1590912D15A0912E15CA
:10315000B0912F15AB968CAF9DAFAEAFBFAFAB9715
:10316000A3962CAD3DAD4EAD5FADA397BC01CD0197
:103170000F94A7046B017C0120913015309131151B
:103180004091321550913315AF962CAF3DAF4EAFF5
:103190005FAFAF97A7962CAD3DAD4EAD5FADA79796
:1031A000AF966CAD7DAD8EAD9FADAF970F94A7047C
:1031B0004B015C018091221690912316A091241658
:1031C000B0912516EB968CAF9DAFAEAFBFAFEB972E
:1031D0009C01AD01609134157091351580913615C3
:1031E000909137150F94A70467966CAF7DAF8EAFA3
:1031F0009FAF6797209138153091391540913A1556
:1032000050913B15E7962CAF3DAF4EAF5FAFE797C0
:103210008091261690912716A0912816B091291614
:10322000EF968CAF9DAFAEAFBFAFEF97A701960102
:103230002B966CAD7DAD8EAD9FAD2B970F94F600A8
:103240002B013C01A50194012F966CAD7DAD8EAD97
:103250009FAD2F970F94F6009B01AC01C301B20103
:103260000F94A8042B013C01A50194012B966CAD91
:103270007DAD8EAD9FAD2B970F94F6004B015C0199
:10328000A70196012F966CAD7DAD8EAD9FAD2F97AA
:103290000F94F6009B01AC01C501B4010F94A70483
:1032A000A30192010F941B056B017C0120E030E02B
:1032B000A9010F94910087FF0AC02BED3FE049EC74
:1032C00050E4C701B6010F94A8046B017C011123DF
:1032D00051F02BED3FE049EC50E4C701B6010F94EB
:1032E000A7046B017C0120E030E0A901C701B60111
:1032F0000F949100811128C0AB962CAD3DAD4EAD21
:103300005FADAB9763966CAD7DAD8EAD9FAD6397B2
:103310000F949100811118C0AF962CAD3DAD4EAD0C
:103320005FADAF976F966CAD7DAD8EAD9FAD6F9776
:103330000F949100811108C0ABEDCA2EAFE0DA2ED8
:10334000A9ECEA2EA0E4FA2EE3962CAD3DAD4EADED
:103350005FADE397C701B6010F94F6009B01AC0186
:103360000F94F6004B015C0167962CAD3DAD4EAD60
:103370005FAD6797CA01B9010F94F6009B01AC01DC
:10338000C501B4010F94A8040F9413074B015C010D
:103390002FE632E143E85AE30F94910087FD0FC214
:1033A000C501B4010F941D060F94F1051B01672B95
:1033B00019F422242394312CB10180E090E00F9481
:1033C00095004B015C019B01AC01C701B6010F9454
:1033D000840563966CAF7DAF8EAF9FAF6397A501F9
:1033E000940167966CAD7DAD8EAD9FAD67970F94E0
:1033F0008405E3966CAF7DAF8EAF9FAFE397EF96FA
:103400002CAD3DAD4EAD5FADEF97E7966CAD7DADAC
:103410008EAD9FADE7970F94A704A50194010F947B
:103420008405E7966CAF7DAF8EAF9FAFE79763964D
:103430002CAD3DAD4EAD5FAD6397CA01B9010F94A0
:10344000F60020E030E040E05FE30F94F6009B01DF
:10345000AC0160E070E080E89FE30F94A704AB96B6
:103460006CAF7DAF8EAF9FAFAB97EB962CAD3DAD04
:103470004EAD5FADEB9729873A874B875C87EF9618
:103480008CAD9DADAEADBFADEF978D879E87AF87FD
:10349000B88B6091660270916702072E000C880B52
:1034A000990B0F94970020910002309101024091F6
:1034B0000202509103020F94F6002AE037ED43E236
:1034C0005CE30F94F60068A379A38AA39BA30E94F0
:1034D0007FCC9B01AC0128533F4F4F4F5F4FAF96BE
:1034E0002CAF3DAF4EAF5FAFAF9728964FAC28974C
:1034F00029965FAC29972A966FAC2A972B967FACBA
:103500002B9741E050E06D965FAF4EAF6D9759E15C
:1035100064965FAF64976D96AEADBFAD6D97A21523
:10352000B30509F43CC10E9447EB0E947FCCDC014B
:10353000CB01AF962CAD3DAD4EAD5FADAF97821BCD
:10354000930BA40BB50BB7FD11C00E947FCC9B0160
:10355000AC0128533F4F4F4F5F4FAF962CAF3DAF5D
:103560004EAF5FAFAF9780E00E94F5DC64963FAD51
:103570006497315064963FAF6497332309F44BC08E
:10358000AB962CAD3DAD4EAD5FADAB972F966CAD10
:103590007DAD8EAD9FAD2F970F94F6006B017C0132
:1035A00063962CAD3DAD4EAD5FAD6397B201C301E7
:1035B0000F94F600A70196010F94A8046B017C01FB
:1035C000AB962CAD3DAD4EAD5FADAB97B201C30137
:1035D0000F94F6004B015C0163962CAD3DAD4EADF2
:1035E0005FAD63972F966CAD7DAD8EAD9FAD2F9780
:1035F0000F94F6009B01AC01C501B4010F94A70420
:103600002B013C01C601D7012F968CAF9DAFAEAF09
:10361000BFAF2F9761C06D964EAD5FAD6D97BA018C
:1036200080E090E00F94950063962CAD3DAD4EADDB
:103630005FAD63970F94F6004B015C010F94810519
:103640006B017C01C501B4010F9409074B015C01BA
:10365000A70196012B966CAD7DAD8EAD9FAD2B97DE
:103660000F94F6002B013C01A50194016B966CAD03
:103670007DAD8EAD9FAD6B970F94F6009B01AC01B5
:10368000C301B2010F94A8042B013C01A5019401D0
:103690002B966CAD7DAD8EAD9FAD2B970F94F60044
:1036A0004B015C01A70196016B966CAD7DAD8EADB3
:1036B0009FAD6B970F94F6009B01AC01C501B4015F
:1036C0000F94A7042F966CAF7DAF8EAF9FAF2F974F
:1036D00059E164965FAF64979201A301A3966CAD24
:1036E0007DAD8EAD9FADA3970F94A80469837A83B7
:1036F0008B839C832F962CAD3DAD4EAD5FAD2F9748
:10370000A7966CAD7DAD8EAD9FADA7970F94A80425
:103710006D837E838F839887E3962CAD3DAD4EAD50
:103720005FADE39769857A858B859C850F94A804A6
:1037300069877A878B879C87E7962CAD3DAD4EAD28
:103740005FADE7976D857E858F8598890F94A80476
:103750006D877E878F87988B80918C02882321F0DC
:10376000CE0101960E942CDBE12C8E01005E1F4FE2
:103770009E01235F3F4FAE01475F5F4FBE016B5F0E
:103780007F4FCE0101960E94229F6D968EAD9FAD18
:103790006D9701966D969FAF8EAF6D97BCCEE12C65
:1037A0008E01005E1F4F28E335E144E355E160E3FD
:1037B00075E18CE295E10E94229F0E94293A0E94C5
:1037C000333A0C94022FEBEDFEE184918F010F5FF1
:1037D0001F4F882321F00E94943CF801F6CFE5E3C7
:1037E000F2E084918F010F5F1F4F882311F40C9436
:1037F000022F0E94943CF801F4CF80E50E946439C6
:10380000882329F00E94C2386B017C0103C0C12CBF
:10381000D12C760183E50E946439882361F00E94EF
:10382000023920E030E04AE754E40F94F6000F94A8
:10383000F1056B017C010E94CBEC80912302811188
:1038400005C060E08BE492E00E9474BA0E94333AB3
:103850008091D9159091DA15A091DB15B091DC1506
:10386000C80ED91EEA1EFB1E0E947FCCDC01CB01D4
:103870008C199D09AE09BF09B7FD02C00C94022F37
:1038800080E00E94F5DCF0CF0E94AFDF81110C9444
:10389000022F80E090E0A0E4B0E489839A83AB83B8
:1038A000BC838D839E83AF83B88780E090E0A0E2E5
:1038B000B1E489879A87AB87BC8780E50E94643929
:1038C000882319F00E94D23801C060E068A3BE01CD
:1038D0006F5F7F4FCE0180960E9474AF0C94022FD1
:1038E0001092C0030C94022F81E08093C0030C94CB
:1038F000022F0E9402392B013C01D7012D913D91ED
:103900004D915C910F94A7044B015C012DEB37E3C3
:1039100046E855EB0F94CE0687FD18C02DEB37E334
:1039200046E855E3C501B4010F949100181674F0F0
:103930001F5FF4E0EF0EF11C1430A1F0F101819152
:103940001F010E946439882399F3D3CF133019F0F3
:10395000DD24D39401C001E0F701408251826282EC
:103960007382E6CFDD2019F00E944E3803C00111AA
:103970000E944DE00E943EAB0C94022F8091C7162E
:103980009091C8168637910509F4E2C60CF0E1C0A3
:103990008D34910509F49AC30CF056C08931910514
:1039A00009F405C234F58431910509F4D4C194F4C5
:1039B0008131910509F4CBC144F4029710F00C94C5
:1039C000022F0E943E3A0C94022F429709F4E4C55C
:1039D0000C94022F8631910509F4C5C10CF4BFC1C6
:1039E0008731910509F4C5C1489709F4C6C10C9403
:1039F000022F8F31910509F45DC37CF48B31910561
:103A000009F4E7C10CF4D7C18C31910509F4E5C183
:103A10004E9709F4ECC10C94022F8A32910509F4F7
:103A20004DC32CF4809709F4FBC20C94022F8B3405
:103A3000910509F447C38C34910511F00C94022FC1
:103A40000E948BE00C94022F8B36910509F412C56D
:103A50000CF052C08535910509F4D5C57CF5823549
:103A6000910509F490C504F58135910511F00C9488
:103A7000022F0E949CC10E94CBEC0E949BDC109202
:103A800001161092001668EE73E080E090E00E944C
:103A90005BD00E94CBEC0E94CB3760E08FE093E0DC
:103AA0000E9474BA0C94022F8335910509F46FC5F6
:103AB0008435910509F470C50C94022F8836910560
:103AC00009F408C37CF48C35910511F00C94022F95
:103AD0002EE8C22E22E0D22E3AE2E32E36E1F32E79
:103AE00010E0ACC58936910509F421C48A369105E8
:103AF00009F49BC40C94022F8037910509F4C9C3C3
:103B000084F48D36910509F456C40CF4BEC38E3688
:103B1000910509F436C38F36910509F445C30C9419
:103B2000022F8237910509F409C60CF4B6C3833716
:103B3000910509F409C68537910511F00C94022FFF
:103B400060E08091C5169091C6160E9496BA0C94BA
:103B5000022F823E910511F40C9412270CF06DC0D7
:103B6000863A910509F448C76CF58C38910509F43B
:103B7000C0C384F48837910509F452C60CF4ECC52F
:103B80008937910509F453C68D37910509F484C42A
:103B90000C94022F8B39910509F4E6C334F4813972
:103BA000910509F44AC60C94022F833A910509F451
:103BB000BDC6843A910511F00C94022F0E94EFA823
:103BC0000C94022F8C3C910509F47DC7F4F4883CD9
:103BD000910509F415C734F48E3B910509F409C425
:103BE0000C94022F893C910509F452C78B3C910536
:103BF00011F00C94022F4DEEE42E44E1F42E0EE869
:103C000012E054E0D52ED00E4EC7833D910511F43D
:103C10000C943C2634F48D3C910509F4C0C70C94F7
:103C2000022F8C3D910511F40C94BA268D3D91051F
:103C300011F40C94C9260C94022F893921E09207C3
:103C400011F40C94642D0CF040C08F3241E09407C5
:103C500011F40C94E228DCF48C32A1E09A0711F400
:103C60000C944A273CF48232914011F40C943D2785
:103C70000C94022F8D32F1E09F0711F40C947327FE
:103C80008E32914011F40C948E280C94022F8336BE
:103C900031E0930711F40C94942E3CF4803391405E
:103CA00011F40C9411280C94022F8039A1E09A078A
:103CB00011F40C94612D8839914011F00C94022F6D
:103CC00081E08093DF110C94022F873FE1E09E0793
:103CD00011F40C946D2DFCF4843F21E0920711F453
:103CE0000C94672D4CF48A39914011F00C94022FFA
:103CF0000E9432AA0C94022F853F51E0950711F4DF
:103D00000C946A2D863F914011F00C94022F0E9472
:103D10003BB40C94022F803AB3E09B0709F4BDC179
:103D20003CF48835924011F40C94792D0C94022FB8
:103D3000873E23E0920711F40C94972E893D97401B
:103D400011F00C94022F0E9449A70C94022F0E949C
:103D5000A9360C94022F0E949B3C0C94022F0E94C7
:103D6000F0A40C94022F10925309109254090C9451
:103D7000022F0E94C7350C94022F19821A821B82CF
:103D80001C8218A219A21AA21BA280913E15882398
:103D900041F040E0BE016F5F7F4FCE0180960E94F0
:103DA00023DA0E94AE470E94C5A60C94022F0E94FF
:103DB00043380C94022F80915409882311F40C94F9
:103DC000022F83E50E94643981110C94E12F0C9439
:103DD000022F0E94A5E00C94022F40E060E0809149
:103DE000C5169091C6160E94ACA10C94022F80912A
:103DF0005409882311F40C94022F80E59BE00E9463
:103E0000F14A80E59BE00E94E5D61092520910929B
:103E10005109E090C516F090C61680915409882388
:103E200011F40C94022F0E9474451D8218861C8286
:103E30001B8288EA92E09A83898388E899E09093CC
:103E4000A8098093A709D7018C918F3209F067C028
:103E50006FE270E0C7010F9403088C010F5F1F4FE2
:103E6000FE0131964F010115110509F45EC06FE2A4
:103E700070E0C8010F9403086C01009709F456C064
:103E80000817190708F052C05C01A01AB10AA50171
:103E9000B801CE0180960F942C08E0E2F0E0EC0F20
:103EA000FD1FEA0DFB1D10828E01005E1F4FD80121
:103EB0008D918D01882319F00E94943CF8CF8AE0FF
:103EC0000E94943C6091A7097091A8096115710541
:103ED00011F06C5F7F4F21E0AE01405E5F4FCE017D
:103EE00005960E942D51811112C0BE01605E7F4F68
:103EF0008AE792E00E94A39D8EE20E94943C8AE0B1
:103F00000E94943CC4010E9489DC0C94022F909280
:103F1000A8098092A70986010F5F1F4FA4CF89EAE5
:103F200099E09093A8098093A70987016091A70958
:103F30007091A8096115710511F06C5F7F4F18A28F
:103F40001BA222E0A801CE0180960E942D51811172
:103F500002C0F12C1EC0CE0180960E941D41882314
:103F6000C1F36CA57DA58EA59FA541E00E944249A5
:103F7000882379F3E8A9B0E2EB9FF0011124E15F17
:103F8000FD4E309731F385EE80831BA20E940249DB
:103F9000F82ECE0180960E94DF39FF2019F1E4E56A
:103FA000F2E084917F012FEFE21AF20A882321F0D8
:103FB0000E94943CF701F5CFD8018D918D018823A3
:103FC00019F00E94943CF8CF8AE00E94943C109231
:103FD00084091092850910928609109287090E941F
:103FE0003A4418C0E2E6F2E084917F01BFEFEB1A99
:103FF000FB0A882321F00E94943CF701F5CFF801D9
:1040000081918F01882319F00E94943CF8CF8EE2B1
:104010000E94943CCE0101960E9489DC0C94022FF0
:104020008091530981110E94CBEC8091540988231F
:1040300011F40C94022F80E50E946439882319F052
:104040000E94F33803C080E50E943539182F482FAD
:1040500061E08091C5169091C6160E94ACA183E5DF
:104060000E946439882381F00E94D238AB01BC01E0
:10407000409384095093850960938609709387095A
:1040800080E59BE00E94324B0E94AE4711110C94D8
:10409000022F0E94C5A60C94022F8091C516909104
:1040A000C61621E02093520940E060E00E94ACA1D6
:1040B0000C94022F0E9460AC0C94022F0E940CAC56
:1040C0000C94022F0E94C5A60C94022F0E947F45DB
:1040D0000C94022F88E690E00E94004081110C941D
:1040E000022F8091160C83FF02C00C94022F83E5EF
:1040F0000E946439882309F440C00E9402390F9459
:10410000EC057093FF156093FE1580E00E94CDE9E9
:104110000E94023920E030E04AEA52E40F94910014
:1041200018163CF00E947F4560E085E992E00E940D
:1041300074BA0E9402392091D7143091D81440915A
:10414000D9145091DA140F94CE061816B4F487E1FE
:1041500093E09F938F938091971490E001969F93A3
:104160008F938EE892E09F938F931F920E94ACA64C
:104170000FB6F894DEBF0FBECDBF0E944DF70C9472
:10418000022F8EE40E946439882311F40C94022FCC
:104190000E94D23860930B1270930C1280930D1210
:1041A00090930E120C94022F83E50E9435398823D8
:1041B00059F083E50E946439882319F00E94E2389F
:1041C00001C080E08093160CE0EBFAE084918F014F
:1041D0000F5F1F4F882321F00E94943CF801F6CF17
:1041E000E2EBF2E084918F010F5F1F4F882321F0F3
:1041F0000E94943CF801F6CF8091160C8823A1F11F
:1042000064EAC62E62E0D62EE12CF12C20E08091EB
:10421000160C90E00E2C02C0959587950A94E2F753
:1042200080FF17C0BB24B394B20E222319F08CE296
:104230000E94943CF60125913491F9018491890101
:104240000F5F1F4F882321F00E94943C9801F5CF07
:104250002B2DFFEFEF1AFF0A32E0C30ED11C45E011
:10426000E416F104A1F60CC0EEEAF2E084918F01AD
:104270000F5F1F4F882321F00E94943CF801F6CF76
:104280008AE00E94943C0C94022F109268020C94D5
:10429000022F89EB92E00E94A4DC83E50E9464393E
:1042A000882369F00E94E2388D3320F480938402E1
:1042B0000C94022F8CE3809384020C94022FE0EB89
:1042C000FAE084918F010F5F1F4F882321F00E9435
:1042D000943CF801F6CF4091840250E060E070E039
:1042E00082EC92E00E9498878AE00E94943C0C94B1
:1042F000022F8091160C83FF02C00C94022F83E5DD
:104300000E946439882311F40C94022F0E94023910
:104310000F94EC056E37710514F06DE770E0709343
:10432000FD156093FC150E9482E90C94022F89E62A
:1043300090E00E940040811111C0E9ECF2E084910C
:104340008F010F5F1F4F882321F00E94943CF801DA
:10435000F6CF0E9466BF8AE00E94943C10923D1501
:1043600010923C150C941F3583E50E946439882314
:1043700011F40C94022F0E94E238182F8D3308F0AC
:104380001CE31093D6150E947FCC6B017C01212F7A
:1043900030E0A8EEB3E00F949804C60ED71EE81ED6
:1043A000F91EC092D215D092D315E092D415F09296
:1043B000D5150C94022F8DE690E00E9400408111EB
:1043C0000C94022F8091160C83FF02C00C94022FD4
:1043D00083E50E94643968968FAF689781110C94C9
:1043E000F22F82E50E94643981110C94F22F0C9413
:1043F000022F8091160C83FF02C00C94022F60E004
:1044000082E093E00E9474BA83E50E946439689662
:104410008FAF689781110C948A3182E50E946439CC
:1044200081110C948A310C94022F80E50E9464392A
:10443000811108C083E50E946439811109C03FEFF2
:1044400020E00AC00E94E23881110C94022FF2CFC2
:104450000E94D238362F272F832F922F8F3F91051E
:1044600019F010F08FEF90E09093011680930016F2
:104470000C94022F80E50E946439811106C01092CD
:104480000116109200160C94022F0E94D238672B4E
:1044900011F00C94022FF3CF8CE40E94353988235D
:1044A00019F00E94023904C060E070E080E090ECF6
:1044B0006BAF7CAF8DAF9EAF80E090E0A0E4B0E446
:1044C00089839A83AB83BC838D839E83AF83B887B4
:1044D00080E090E0A0E2B1E489879A87AB87BC874F
:1044E00088E50E946439882379F088E50E94643960
:1044F000882319F00E94023903C060E070E0CB010C
:1045000069837A838B839C8389E50E94643988233D
:1045100079F089E50E946439882319F00E940239F4
:1045200003C060E070E0CB016D837E838F8398874A
:104530008AE50E946439882379F08AE50E9464390B
:10454000882319F00E94023903C060E070E0CB01BB
:1045500069877A878B879C8718A219A21AA21BA247
:1045600080913E1581110C94022F00E020E0AE01F5
:10457000405E5F4FBE016F5F7F4FCE01CB960E94C2
:104580004AD90C94022F1092BF030C94022F81E0A1
:104590008093BF030C94022F83E50E946439882323
:1045A000A1F00E94023920E030E04AE754E40F9481
:1045B000F6000F94F1056093850270938602809354
:1045C0008702909388020C94022F88E50E94353967
:1045D00081110C94F23289E50E94353981110C94D5
:1045E000F2328AE50E94353981110C94F23285E469
:1045F0000E94353981110C94F2320E94CBEC0E945A
:104600009BDC0C94022F83E50E943539882311F43A
:104610000C94022F0E94023920E030E04AE754E473
:104620000F94F6000F94F1056093DD157093DE157D
:104630008093DF159093E0150C94022FD6018D9195
:104640006D010E943539882309F46DC0133009F0DB
:1046500063C00E9402394B015C0120E030E040EA77
:1046600051E40F94910087FF4EC0A5019401609121
:1046700036167091371680913816909139160F942E
:1046800084052B013C019B01AC01609125157091C3
:10469000261580912715909128150F94F6006093A8
:1046A0002515709326158093271590932815A3013F
:1046B00092016091F9147091FA148091FB14909119
:1046C000FC140F94F6006093F9147093FA1480931D
:1046D000FB149093FC146091FB117091FC1180917C
:1046E000FD119091FE110F949500A30192010F947A
:1046F000F6000F94F1056093FB117093FC11809309
:10470000FD119093FE118092361690923716A0926A
:104710003816B092391607C00E940239F70160833B
:104720007183828393831F5FF4E0EF0EF11C1430DA
:1047300009F084CF0E94F89E0C94022F0E94CBECCB
:104740000E943EAB0C94022F0E94F7AA0C94022FF9
:104750000E94B6AA0C94022FE4E3F3E084918F0147
:104760000F5F1F4F882321F00E94943CF801F6CF81
:10477000ECE2F3E084918F010F5F1F4F882321F05B
:104780000E94943CF801F6CF029B03C000E013E0C6
:1047900002C005E013E0D8018D918D01882319F046
:1047A0000E94943CF8CF8AE00E94943CE4E2F3E05B
:1047B00084918F010F5F1F4F882321F00E94943C4A
:1047C000F801F6CF069B03C000E013E002C005E04D
:1047D00013E0F80181918F01882319F00E94943C25
:1047E000F8CF8AE00E94943CECE1F3E084918F01E1
:1047F0000F5F1F4F882321F00E94943CF801F6CFF1
:10480000379B03C000E013E002C005E013E0D801CD
:104810008D918D01882309F433CD0E94943CF7CF0C
:1048200081E080932409809323090C94022F109235
:104830002409109223090C94022F83E50E94643905
:10484000882319F00E94D23802C060E070E08B012A
:10485000112702301105D4F0EBEDFEE184918F01B8
:104860000F5F1F4F882321F00E94943CF801F6CF80
:10487000EEE4F3E084918F010F5F1F4F882311F462
:104880000C94022F0E94943CF801F4CF88E40E941B
:1048900064398823A1F00E94D2386A3A710534F055
:1048A0006B3F71052CF06AEF70E002C06AEA70E0BD
:1048B000F801EE0FFF1FE35BF34F7183608386E423
:1048C0000E9464398823A9F00E94D238F801EE0FC3
:1048D000FF1FEF5AF34F718360836F3F710519F02B
:1048E00014F06FEF70E077FF02C060E070E071835A
:1048F000608382E40E946439882311F40C94022FAF
:104900000E94D2386530710534F06F3671052CF095
:104910006EE670E002C065E070E0000F111FF80164
:10492000E75BF34F718360830C94022F83E50E9451
:104930006439882349F00E94D2388B0162307105B6
:1049400014F00C94022F02C000E010E080E50E94F9
:104950006439882341F10E9402396B017C0120E017
:1049600030E0A9010F94910087FD1DC02DEB37E3C6
:1049700046E855EBC701B6010F94CE0687FD0AC085
:104980002DEB37E346E855E3C701B6010F949100DC
:1049900018167CF4A701960160E070E080E89FE3C0
:1049A0000F94840509C0C12CD12C7601C701B60132
:1049B00003C060E070E0CB01F801EE0FFF1FEE0FC7
:1049C000FF1FE951FB4F6083718382839383012B27
:1049D00011F00C94022F20E030E048EC52E4C701C3
:1049E000B6010F94F6000F94F10570E07093461431
:1049F000609345140C94022F0E94DEA70C94022FA2
:104A000088EC90E00E94004081110C94022F84E415
:104A10000E9435398823C1F10E94023911E020E05B
:104A200030E0A9010F949100811101C010E01093B2
:104A3000E411112349F10E940239E0919714B4E086
:104A4000EB9FF0011124E052FE4E6083718382835C
:104A5000938320E030E0A9016091E0117091E111B1
:104A60008091E2119091E3110F94910081110CC09B
:104A700080E090E0A0EEBFE38093E0119093E1111D
:104A8000A093E211B093E3110E949D8F0C94022F2A
:104A90000E9491AA0C94022FB4E0EB0EF11CD016E8
:104AA00011F40C94022FF80181918F010E94353985
:104AB000882391F30E940239D7016D937D938D93E2
:104AC0009C931397E9CF83E50E9435398823D9F069
:104AD0000E940239AB01BC01409315155093161585
:104AE000609317157093181540930D1550930E157C
:104AF00060930F15709310158AEC93E00E94D28793
:104B00008AE00E94943C80E50E943539882399F020
:104B10000E940239AB01BC01409315155093161544
:104B200060931715709318158DEA93E00E94D28751
:104B30008AE00E94943C82E50E943539882399F0EE
:104B40000E940239AB01BC0140931115509312151C
:104B500060931315709314158EE893E00E94D2872A
:104B60008AE00E94943C84E50E943539882311F440
:104B70000C94022F0E940239AB01BC0140930D1529
:104B800050930E1560930F157093101580E793E006
:104B90000E94D2878AE00E94943C0C94022F83E505
:104BA0000E943539882351F00E9402396093E9143C
:104BB0007093EA148093EB149093EC1484E50E94B4
:104BC0003539882351F00E9402396093E5147093BF
:104BD000E6148093E7149093E81482E40E94353938
:104BE000882351F00E94C2386093EB117093EC114E
:104BF0008093ED119093EE1188E50E94353988235A
:104C000051F00E9402396093191570931A15809320
:104C10001B1590931C1589E50E943539882351F0A6
:104C20000E94023960931D1570931E1580931F1505
:104C3000909320158AE50E943539882351F00E940F
:104C40000239609321157093221580932315909358
:104C5000241585E40E943539882311F40C94022F21
:104C60000E940239609325157093261580932715AD
:104C7000909328150C94022FE0EBFAE084918F01B9
:104C80000F5F1F4F882321F00E94943CF801F6CF5C
:104C900083E50E943539882321F00E94F338809300
:104CA0008C02EAE1F4E084918F010F5F1F4F8823AB
:104CB00021F00E94943CF801F6CF80918C02811182
:104CC00003C0E6E1F4E002C0E2E1F4E084918F0188
:104CD0000F5F1F4F882321F00E94943CF801F6CF0C
:104CE000EAE0F4E084918F010F5F1F4F882321F0E9
:104CF0000E94943CF801F6CF40E050E0BA0188E011
:104D000094E00E94D28740E050E0BA0185E094E050
:104D10000E94D28740E050E0BA0182E094E00E9415
:104D2000D287EAEFF3E084918F010F5F1F4F882352
:104D300021F00E94943CF801F6CF40E050E06CE591
:104D400073E488EF93E00E94D28740E050E06CE586
:104D500073E485EF93E00E94D28740E050E062E880
:104D600073E482EF93E00E94D2878AE00E94943C31
:104D70000C94022F83E50E946439882311F40C946B
:104D8000022F0E94D23870936702609366020C94DF
:104D9000022F8DED90E00E94004081110C94022FB3
:104DA00083E50E946439882311F40C94022F00914A
:104DB000971410E00E94D238000F111FF801EC592F
:104DC000FD4F718360838091971490E08C01000FF8
:104DD000111F000F111FF801E05AFD4F7F01880FCE
:104DE000991FFC01EC59FD4F60817181072E000C69
:104DF000880B990B0F9497002AE037ED43E25CE3B0
:104E00000F94F600F801E95EF34F20813181428171
:104E100053810F94F600D7016D937D938D939C93EE
:104E20001397F0C780E50E943539882309F4EAC753
:104E30000E94D2386B017C0183E50E94643988238B
:104E400021F00E94D2388B0102C00FEF1FEFC80182
:104E50000196039708F0D6C7D7FE01C0D3C79C2D93
:104E6000EAE2F4E08BE28E0F2491921709F4CAC7AC
:104E700031968E13F9CF0C94F6348AE50E9464398A
:104E800081110C94113383E50E94643981110C94D3
:104E90001133B8C783E50E946439882319F00E9452
:104EA000D23802C064E071E079A368A380E50E9473
:104EB0006439882339F00E94D2386938B3E17B071E
:104EC00030F402C068EE73E07A83698304C088E836
:104ED00093E19A838983BE01605E7F4FCE01019684
:104EE0000E9478A68FC785E40E946439811110C0A2
:104EF00080E50E943539882391F00E940239609341
:104F00003C0C70933D0C80933E0C90933F0C07C07B
:104F10000E94E238882361F3EBEDFEE171C089E481
:104F20000E943539882381F00E9402392CEA35EC41
:104F300047E25EE30F94F6006093440C7093450CD7
:104F40008093460C9093470C84E40E943539882363
:104F500081F00E9402392CEA35EC47E25EE30F94BF
:104F600084056093400C7093410C8093420C9093A5
:104F7000430CE0EBFAE084918F010F5F1F4F882311
:104F800021F00E94943CF801F6CF40913C0C5091E6
:104F90003D0C60913E0C70913F0C8DE594E00E94B9
:104FA000D2872CEA35EC47E25EE36091440C7091C5
:104FB000450C8091460C9091470C0F948405AB01F1
:104FC000BC0189E594E00E94B5872CEA35EC47E204
:104FD0005EE36091400C7091410C8091420C909185
:104FE000430C0F94F600AB01BC0185E594E00E94F0
:104FF000B5878AE00E94943C05C70E94943CF80162
:1050000084918F010F5F1F4F8111F7CF02E213E0F0
:10501000F80181918F01882309F432C90E94943CE0
:10502000F7CF80E50E943539882351F00E9402397C
:105030006093551670935616809357169093581692
:1050400089E40E943539882381F00E9402392CEAD4
:1050500035EC47E25EE30F94F600609351167093CF
:105060005216809353169093541684E40E94353957
:10507000882381F00E9402392CEA35EC47E25EE396
:105080000F94840560934D1670934E1680934F16BF
:1050900090935016E0EBFAE084918F010F5F1F4F61
:1050A000882321F00E94943CF801F6CF40915516D8
:1050B00050915616609157167091581689E694E0F3
:1050C0000E94D2872CEA35EC47E25EE360915116EC
:1050D0007091521680915316909154160F94840536
:1050E000AB01BC0185E694E00E94B5872CEA35EC63
:1050F00047E25EE360914D1670914E1680914F1617
:10510000909150160F94F600AB01BC0181E694E03B
:105110000E94B5878AE00E94943C74C683E50E9491
:105120003539182F882371F00E9402390F94EC054D
:10513000709383026093820221E0672B09F020E0E4
:105140002093DB1480E50E943539882359F02091A3
:10515000820230918302232B11F00E94F338809356
:10516000DB1450C611114EC6E0EBFAE084918F01BA
:105170000F5F1F4F882321F00E94943CF801F6CF67
:105180008091DB14811103C06FE073E002C062E024
:1051900073E082E894E00E94A39D60918202709186
:1051A000830281E794E00E948A9DEDE6F4E0849119
:1051B0008F010F5F1F4F882309F424C60E94943C7F
:1051C000F801F5CF85E40E946439882321F00E941C
:1051D000D2387B0102C0E12CF12C83E40E946439B7
:1051E000882341F00E94D238CB57DF4F6883C558DF
:1051F000D04006C045E0CB57DF4F4883C558D0406C
:1052000085E50E946439882319F00E94F33803C0B1
:1052100085E50E943539CF56DF4F8883C159D0408C
:10522000F7FC07C0812C912C86E1A82E83E4B82ED0
:1052300006C0812C912C0CE8A02E02E4B02E83E550
:105240000E946439882321F00E9402394B015C01DD
:10525000E114F10411F4109297142896EFAE2897F8
:105260000E947FCC2B013C0128965FAD289757FD0B
:1052700002C00CE301C004EB61E06E0D623028F463
:1052800013E3E12E13E0F12E0CC006E413E0D80185
:105290008D918D01882311F40C9440210E94943C3F
:1052A000F6CFF70181917F01882319F00E94943C89
:1052B000F8CF8AE00E94943C0E949CC12896FFADE2
:1052C0002897F7FF04C08FE7809396140AC02896AA
:1052D0002FAD2897E22F220FFF0BEB56FB4E8FE7E7
:1052E0008083C501B4010F94EC05072E000C880BD8
:1052F000990B0F94970060966FAF609764967FAF9D
:1053000064976C968FAF6C97A0969FAFA097A02FD5
:10531000000FBB0B28EE33E00F94B707CE56DF4FDC
:10532000688379838A839B83C259D040DC01CB0197
:10533000840D951DA61DB71DC256DF4F8883998326
:10534000AA83BB83CE59D04081E080936802C757BF
:10535000DF4F488259826A827B82C958D040CA5640
:10536000DF4F488259826A827B82C659D040C85733
:10537000DF4F1882C858D040C656DF4F18821982B6
:105380001A821B82CA59D040E8961FAEE89790E473
:10539000EC969FAFEC97ACE1E096AFAFE097B6E448
:1053A000E496BFAFE497C158DF4F1882CF57D04083
:1053B000C058DF4F1882C058D040CF57DF4F1882F7
:1053C000C158D040CE57DF4F1882C258D040AF9658
:1053D0001CAE1DAE1EAE1FAEAF97AB961CAE1DAE83
:1053E0001EAE1FAEAB97C12CD12C7601AFE78A2E33
:1053F000912CA12CB12C2FE730E040E050E06B96CF
:105400002CAF3DAF4EAF5FAF6B97C357DF4F1882E6
:1054100019821A821B82CD58D04031E0C957DF4F24
:105420003883C758D040A5961FAE1EAEA59710E092
:10543000212C312C00E028964FAD2897842F440F63
:10544000990BDC01AB56BB4ECE55DF4FB983A88319
:10545000C25AD040880F991F880F991FFC01E9524A
:10546000FB4ECD57DF4FF983E883C358D040CB576D
:10547000DF4F2881C558D040022E000C330BCB578C
:10548000DF4F39832883C558D04080916802882334
:1054900009F447C10E947FCC2F966CAF7DAF8EAFD1
:1054A0009FAF2F9780919314882309F416C10E940F
:1054B000B7EA28963FAD289737FF09C01091A91485
:1054C0002090AA143090AB140091AC140FC0CD57AB
:1054D000DF4FA881B981C358D0401C9111962C9000
:1054E000119712963C90129713960C91212F322D02
:1054F000432D502FC158DF4F6881CF57D040C0583F
:10550000DF4F7881C058D040CF57DF4F8881C158D6
:10551000D040CE57DF4F9881C258D0400F949100B1
:1055200087FF14C0C158DF4F1883CF57D040C058F1
:10553000DF4F2882C058D040CF57DF4F3882C15844
:10554000D040CE57DF4F0883C258D040212F322D94
:10555000432D502FE8966FADE897EC967FADEC9712
:10556000E0968FADE097E4969FADE4970F94CE065A
:10557000181664F4E8961FAFE897EC962FAEEC97F8
:10558000E0963FAEE097E4960FAFE497C957DF4F40
:10559000B881C758D04060962FAD609764963FADF4
:1055A00064976C964FAD6C97A0965FADA097612FF6
:1055B000722D832D902FBB2309F470C00F94CE065B
:1055C00018160CF08AC02F964CAD5DAD6EAD7FAD58
:1055D0002F974419550966097709DB01CA018858D4
:1055E0009341A109B109B7FD78C06B968CAD9DAD13
:1055F000AEADBFAD6B9788199909AA09BB0928966A
:10560000EFAD2897B595A79597958795E7FF03C0C8
:105610008093961407C0CE55DF4FE881F981C25AB6
:10562000D0408083C357DF4F488359836A837B838D
:10563000CD58D0406096FFAD6097C158DF4FF883DA
:10564000CF57D04064962FAD6497C058DF4F288362
:10565000C058D0406C963FAD6C97CF57DF4F388322
:10566000C158D040A0964FADA097CE57DF4F48838A
:10567000C258D0402F968CAD9DADAEADBFAD2F972B
:10568000C757DF4F88839983AA83BB83C958D0400B
:10569000C957DF4F1882C758D0401FC00F949100E0
:1056A00087FF1BC02F968CAD9DADAEADBFAD2F97C4
:1056B000C757DF4F288139814A815B81C958D04063
:1056C000821B930BA40BB50BAC01BD014858534191
:1056D0006109710977FD01C0DDC720E030E040EAD3
:1056E00051E460966FAD609764967FAD64976C9659
:1056F0008FAD6C97A0969FADA0970F94A8049B01C7
:10570000AC01612F722D832D902F0F94CE061816A9
:105710007CF4E0E9F5E084918F010F5F1F4F811168
:1057200003C00E949CC16EC30E94943CF801F3CF59
:105730002F968CAD9DADAEADBFAD2F97CA56DF4F46
:10574000288139814A815B81C659D040821B930BE5
:10575000A40BB50BB7FDC1C00E9466BF8AE00E94D2
:10576000943C2F968CAD9DADAEADBFAD2F978053C1
:10577000984FAF4FBF4FCA56DF4F88839983AA8394
:10578000BB83C659D040C857DF4F9881C858D04016
:1057900091117EC0C656DF4F288139814A815B81D5
:1057A000CA59D040612F722D832D902F0F94CE06B1
:1057B00018160CF054C020E030E040EC50E4609645
:1057C0006FAD609764967FAD64976C968FAD6C9764
:1057D000A0969FADA0970F94A7049B01AC01A1E0F8
:1057E000C857DF4FA883C858D040612F722D832D32
:1057F000902F0F94CE0618162CF0C857DF4F188242
:10580000C858D04020E030E040E050E4612F722DD5
:10581000832D902F0F94A804C656DF4F6883798399
:105820008A839B83CA59D0402F962CAD3DAD4EAD97
:105830005FAD2F97CE56DF4F88819981AA81BB81BA
:10584000C259D040280F391F4A1F5B1FC256DF4F75
:10585000288339834A835B83CE59D0403EC02F963C
:105860008CAD9DADAEADBFAD2F97C256DF4F288139
:1058700039814A815B81CE59D040821B930BA40BA6
:10588000B50BB7FD2AC042E755E061E875E020C0DE
:1058900020E030E040EA51E460966FAD6097649696
:1058A0007FAD64976C968FAD6C97A0969FADA097D7
:1058B0000F94A7049B01AC01612F722D832D902FB3
:1058C0000F94910087FF09C042E555E062E675E05C
:1058D00028968FAD28970E94DAEA2F968CAD9DAD61
:1058E000AEADBFAD2F97880F991FAA1FBB1FC7571B
:1058F000DF4F288139814A815B81C958D040821BA2
:10590000930BA40BB50B84199509A609B709813827
:105910009F44A241B10568F0E4E3F5E084918F0172
:105920000F5F1F4F882309F4FCCE0E94943CF801BE
:10593000F5CFA5964EAD5FADA597CB57DF4F8881CC
:105940009981C558D040841795070CF0B7C0E7ED92
:10595000F4E084918F010F5F1F4F882321F00E9494
:10596000943CF801F6CF28969FAD289797FD03C089
:1059700005EB13E002C003E113E0B80185EC94E00D
:105980000E94A39DB701A60181EC94E00E94D287FA
:105990008AE00E94943CB8018FEA94E00E94A39DA3
:1059A000AB964CAD5DAD6EAD7FADAB978BEA94E041
:1059B0000E94D2878AE00E94943CB80189E994E071
:1059C0000E94A39DAF964CAD5DAD6EAD7FADAF9720
:1059D00085E994E00E94D2878AE00E94943CCF56E9
:1059E000DF4FA881C159D040AA2309F40BC22896E1
:1059F000BFAD2897B7FF31C0C0925516D09256164A
:105A0000E0925716F09258162CEA35EC47E25EE326
:105A1000AB966CAD7DAD8EAD9FADAB970F94F600A0
:105A200060935116709352168093531690935416A8
:105A30002CEA35EC47E25EE3AF966CAD7DAD8EAD02
:105A40009FADAF970F94840560934D1670934E16DB
:105A500080934F1690935016D5C1C0923C0CD092B3
:105A60003D0CE0923E0CF0923F0C2CEA35EC47E204
:105A70005EE3AB966CAD7DAD8EAD9FADAB970F94F5
:105A8000F6006093440C7093450C8093460C909301
:105A9000470C2CEA35EC47E25EE3AF966CAD7DAD8A
:105AA0008EAD9FADAF970F9484056093400C7093BB
:105AB000410C8093420C9093430CA4C10E94A8BA5D
:105AC000E4CC0E94CBEC9EC11092DF119BC10E94DE
:105AD000FC7398C10E94C57895C183E50E94353951
