:100000000C94E8150C9419160C9419160C941916E6
:100010000C9419160C9419160C9419160C941916A4
:100020000C9419160C9419160C9419160C94191694
:100030000C9419160C9419160C9419160C94191684
:100040000C9419160C944B3D0C9419160C9419161B
:100050000C9419160C9419160C949CD60C94D2B7C7
:100060000C9419160C94C83C0C9419160C9419167F
:100070000C9419160C9419160C9419160C94191644
:100080000C9419160C9419160C9419160C94191634
:100090000C9419160C9419160C9419160C94191624
:1000A0000C9419160C9419160C9419160C94191614
:1000B0000C9419160C9419160C9419160C94191604
:1000C0000C9419160C9419160C9419160C941916F4
:1000D0000C9419160C9419160C9419160C941916E4
:1000E0000C941916867B8F7B997BA27BAB7BC67B9E
:1000F000D37BDC7BB47BBD7BBFB5C2B5B1B5B5B539
:10010000BBB5F9B5C6B5CAB5D0B5D4B5D8B5DEB5A9
:10011000E2B5E6B5F9B5ECB5F0B5F4B5EEB6F3B6C3
:10012000F8B602B70CB785B716B71EB726B730B703
:100130003AB744B753B75DB785B767B771B77BB701
:10014000084AD73B3BCE016E84BCBFFDC12F3D6C3E
:1001500074319ABD56833DDA3D00C77F11BED9E4A4
:10016000BB4C3E916BAAAABE000000803F05A84C84
:10017000CDB2D44EB93836A9020C50B99186880850
:100180003CA6AAAA2ABE000000803F004E414E496C
:100190004E495459494E46CDCCCC3D0AD7233C1745
:1001A000B7D13877CC2B329595E6241FB14F0A0092
:1001B0000020410000C84200401C4620BCBE4CCA82
:1001C0001B0E5AAEC59D74434F4D4D554E4943418C
:1001D00054494F4E0044525952554E004552524FC9
:1001E000525300494E464F004543484F0020746F1C
:1001F0006F206C6F6E6720657874727573696F6EAF
:100200002070726576656E7465640A0020636F6C99
:100210006420657874727573696F6E20707265768C
:10022000656E7465640A0054454D5020544F4F204C
:100230004C4F57210047322F4733206261642070B2
:100240006172616D65746572730A00536C656570E7
:100250002E2E2E00526573756D696E67207072695F
:100260006E74005072696E74657220726561647993
:100270002E00436C69636B20746F20726573756D1B
:10028000652E2E2E004E6F206D6F76652E00456E0A
:10029000642066696C65206C6973740A0042656746
:1002A000696E2066696C65206C6973740A00466922
:1002B0006C652064656C657465643A0044656C65C2
:1002C00074696F6E206661696C65642C2046696C88
:1002D000653A20006F70656E206661696C65642CFC
:1002E0002046696C653A20002569730025696D20F8
:1002F000256973002569682025696D2025697300CB
:10030000256964202569682025696D2025697300A9
:1003100025697920256964202569682025696D2073
:10032000256973005072696E742074696D653A2096
:100330000050726F7465637465642050696E0A00C2
:10034000452569202573005072696E7465722072AC
:10035000656164792E00E801E301DC01D501C70184
:100360006F66660044454255473A004B494C4C4540
:10037000442E20004D3131332053006F6B0048650F
:100380006174696E6720646F6E652E0020573A00B5
:10039000452569202573005072696E74657220725C
:1003A000656164792E0042656420646F6E652E007D
:1003B00020573A004265642048656174696E672E73
:1003C000005072696E746572204F66662E00454D4E
:1003D000455247454E43595F5041525345520043A1
:1003E0004153455F4C494748545F4252494748543E
:1003F0004E45535300544F47474C455F4C4947487F
:10040000545300534F4654574152455F504F574540
:1004100052004255494C445F50455243454E5400AA
:100420004C4556454C494E475F44415441005A5F44
:1004300050524F4245004155544F4C4556454C0093
:100440005052494E545F4A4F420050524F47524516
:100450005353004155544F5245504F52545F5445E9
:100460004D5000564F4C554D45545249430045455B
:1004700050524F4D0053455249414C5F584F4E5FCB
:10048000584F4646004649524D574152455F4E41EE
:100490004D453A4D61726C696E20312E312E3820F7
:1004A000284769746875622920534F555243455F48
:1004B000434F44455F55524C3A68747470733A2FF9
:1004C0002F6769746875622E636F6D2F4D61726C52
:1004D000696E4669726D776172652F4D61726C69E4
:1004E0006E2050524F544F434F4C5F564552534924
:1004F0004F4E3A312E30204D414348494E455F54CE
:100500005950453A5072696E74657220455854527C
:10051000554445525F434F554E543A312055554945
:10052000443A63656465326132662D343161322D3F
:10053000343734382D396231322D633535633632F4
:100540006633363766660A002F2F20007A5F6D69A2
:100550006E3A2000795F6D696E3A2000785F6D69B0
:100560006E3A20005265706F7274696E6720656E16
:100570006473746F70207374617475730A004D3105
:10058000343520533C696E6465783E206F75742065
:100590006F662072616E67652028302D31290A0050
:1005A0005761726E696E673A204D697820666163A3
:1005B000746F7273206D757374206164642075703C
:1005C00020746F20312E302E205363616C696E676A
:1005D0002E0A00252900257C0020280025292074CA
:1005E0006F205A00257C002028004F4E2066726F35
:1005F0006D205A004F4646004772616469656E740B
:10060000204D6978200053657474696E67205472B8
:100610006176656C20416363656C65726174696FB6
:100620006E3A200053657474696E67205265747267
:1006300061637420416363656C65726174696F6E98
:100640003A200053657474696E67205072696E7445
:1006500020416363656C65726174696F6E3A200056
:1006600053657474696E67205072696E7420616E90
:10067000642054726176656C20416363656C6572B9
:100680006174696F6E3A2000205A002059005800AA
:1006900020204D61783A2000205A0020590058004F
:1006A00020204D696E3A20004F6E20004F66660094
:1006B000536F667420656E6473746F70733A2000B4
:1006C000000125272318FF1F211D1CFF19171B1EC2
:1006D000FFFF0C0409FFFFFF2E2C0CFFFF312F3012
:1006E0002B2D2904400AFF41FFFFFFFFFFFF43615D
:1006F0007365206C696768743A2000290A004669AE
:1007000078656420706172616D65746572206279CC
:100710007465733B206372632000466978656420CA
:10072000706172616D6574657220280048565F7350
:1007300065745F6F6B0A00556E6B6E6F776E20632A
:100740006F6D6D616E643A2022004C696E65204EBB
:10075000756D626572206973206E6F74204C6173D1
:1007600074204C696E65204E756D6265722B312C5C
:10077000204C617374204C696E653A20004B494CE3
:100780004C45442E200053544F505045442E2000D9
:100790005072696E7465722073746F707065642036
:1007A00064756520746F206572726F72732E2046B7
:1007B000697820746865206572726F7220616E645A
:1007C00020757365204D39393920746F2072657337
:1007D000746172742E202854656D70657261747531
:1007E00072652069732072657365742E2053657479
:1007F0002069742061667465722072657374617219
:1008000074696E67290A004E6F20436865636B73D5
:10081000756D2077697468206C696E65206E756DE2
:100820006265722C204C617374204C696E653A20AD
:1008300000636865636B73756D206D69736D6174BA
:1008400063682C204C617374204C696E653A2000FB
:100850004D313130004D3331004731204631303099
:100860003020583020593231300047323820585922
:100870000053442072656164206572726F720A00D1
:10088000446F6E65207072696E74696E6720666968
:100890006C650A0020496E76616C69642065787425
:1008A000727564657220004D31323500205A3A006D
:1008B00020593A0020436F756E7420583A00204545
:1008C0003A00205A3A0020593A00583A003A004378
:1008D00061703A00200D466978656420706172612C
:1008E0006D65746572206E62797465733B20637206
:1008F00063206572726F722000200D0A4669786568
:100900006420706172616D657465722062797465CE
:10091000733B20637263206572726F722000290A34
:10092000002062797465733B20637263200046691E
:1009300078656420706172616D657465722028004D
:100940002068617264776172652076657273696F81
:100950006E3A004B494C4C45442E2000202D204936
:100960006E76616C69642065787472756465722056
:100970006E756D62657220210A002D2D2D2D2D2D95
:10098000007C4D61726C696E7C002D2D2D2D2D2DFE
:1009900000687474703A2F2F6D61726C696E66779F
:1009A0002E6F726700687474703A2F2F6D61726CCD
:1009B000696E66772E6F72670020312E312E3800F7
:1009C0002020506C616E6E6572427566666572427B
:1009D000797465733A20002046726565204D656D17
:1009E0006F72793A2000436F6D70696C65643A20CC
:1009F00044656320203220323031390A00207C20C7
:100A0000417574686F723A20286E6F6E652C206491
:100A1000656661756C7420636F6E666967290A008C
:100A2000323031372D31322D32352031323A3030BB
:100A300000204C61737420557064617465643A20C1
:100A400000312E312E380A004D61726C696E002023
:100A5000536F6674776172652052657365740A001E
:100A6000205761746368646F672052657365740A08
:100A7000002042726F776E206F7574205265736527
:100A8000740A002045787465726E616C205265733B
:100A900065740A00506F77657255700A007374614F
:100AA00072740A006572726F722077726974696E6F
:100AB0006720746F2066696C650A00456E64737404
:100AC0006F70732025632025632025632025630034
:100AD000205A3A0020593A0020583A00656E647353
:100AE000746F7073206869743A2000473238205858
:100AF0000066696C616D656E74206F75740A004DD7
:100B000033322053256C7520212573004D3332205C
:100B100053256C7520212F25732F25730047302016
:100B20004631303030205A25752E25750047323831
:100B30002059004732382058004D3130362020539C
:100B4000323535004D313039205430205325750071
:100B50004D3139302053257500446F6E6520736127
:100B600076696E672066696C652E0A004D32390021
:100B700024F4D43050C38E20C2A24017828B70114F
:100B8000127A910D816CD90AA861E108C7586607ED
:100B9000615143061E4B5D05C145A7041A4111046E
:100BA000093D9803713931034036DB026533910208
:100BB000D4305402802E1D02632CEE01752AC5012B
:100BC000B028A001102781018F2564012B244B013F
:100BD000E0223401AC211F018D200D01801FFC009B
:100BE000841EED00971DDF00B81CD200E61BC60076
:100BF000201BBC00641AB200B219A8000A19A00098
:100C00006A189900D117910040178B00B51684001F
:100C100031167E00B31579003A157300C7146F00C2
:100C200058146A00EE1366008813630025135E00F3
:100C3000C7125B006C12570015125400C11151000D
:100C400070114F0021114B00D61049008D10470044
:100C50004610440002104200C00F4000800F3E00CA
:100C6000420F3C00060F3B00CB0E3800930E3700BE
:100C70005C0E3500270E3400F30D3200C10D31003B
:100C8000900D3000600D2E00320D2D00050D2C0052
:100C9000D90C2B00AE0C2900850C29005C0C270018
:100CA000350C27000E0C2600E80B2400C40B240092
:100CB000A00B23007D0B23005A0B2100390B2100D0
:100CC000180B2000F80A1F00D90A1E00BB0A1E00DC
:100CD0009D0A1D00800A1D00630A1C00470A1B00B4
:100CE0002C0A1B00110A1A00F7091A00DD09190065
:100CF000C4091900AB091900920917007B091800F3
:100D0000630917004C091600360916002009160061
:100D10000A091500F5081500E0081400CC081400B5
:100D2000B8081400A4081400900813007D081200ED
:100D30006B0813005808120046081200340811000E
:100D4000230811001208110001081100F00710001B
:100D5000E0071000D0071000C0071000B0070F0018
:100D6000A107100091070E0083070F0074070F0002
:100D700065070E0057070E0049070E003B070D00E0
:100D80002E070E0020070D0013070D0006070D00AB
:100D9000F9060C00ED060D00E0060C00D4060C0070
:100DA000C8060C00BC060C00B0060C00A4060B0024
:100DB00099060C008D060B0082060B0077060B00CF
:100DC0006C060B0061060A0057060B004C060A0071
:100DD00042060A0038060A002E060A0024060A0007
:100DE0001A060A001006090007060A00FD05090098
:100DF000F4050900EB050900E2050900D905090021
:100E0000D0050900C7050900BE050900B5050800A1
:100E1000AD050800A50509009C050800940508001B
:100E20008C050800840508007C050800740508008E
:100E30006C050700650508005D05070056050800FC
:100E40004E05070047050700400508003805070064
:100E5000310507002A050700230507001C050600C9
:100E6000160507000F050700080506000205070024
:100E7000FB040600F5040700EE040600E804060083
:100E8000E2040700DB040600D5040600CF040600D8
:100E9000C9040600C3040600BD040600B70406002A
:100EA000B1040500AC040600A6040600A004050079
:100EB0009B04060095040500900406008A040500C2
:100EC00085040500800406007A0405007504050009
:100ED000700405006B04050066040500610405004C
:100EE0005C04050057040500520405004D0405008C
:100EF00048040500430405003E0404003A040500CC
:100F000035040500300404002C0405002704040007
:100F1000230405001E0404001A040400160405003E
:100F2000110404000D040400090405000404040075
:100F300000040400FC030400F8030400F4030400AC
:100F4000F0030400EC030400E8030400E4030400DD
:100F5000E0030400DC030400D8030400D40304000D
:100F6000D0030400CC030400C8030300C50303003E
:100F700024F404D9201BC40C5C0E9804C4095F023D
:100F800065077101F405F900FB04B300480487000C
:100F9000C10369005803550003034500BE023A002F
:100FA0008402310053022A00290225000402200095
:100FB000E4011C00C8011900AF01170098011400DA
:100FC00084011300710110006101100051010E0035
:100FD00043010D0036010B002B010B0020010B001B
:100FE000150109000C01090003010800FB000800BD
:100FF000F3000800EB000700E4000600DE00060036
:10100000D8000600D2000600CC000500C70005008D
:10101000C2000500BD000400B9000400B5000400D2
:10102000B1000400AD000400A9000400A500030005
:10103000A20003009F0004009B000300980003002F
:101040009500020093000300900003008D00020051
:101050008B00030088000200860002008400030069
:10106000810002007F0002007D0002007B00020080
:10107000790002007700010076000200740002008F
:1010800072000100710002006F0002006D0001009B
:101090006C0002006A0001006900020067000100A4
:1010A00066000100650001006400020062000100AA
:1010B00061000100600001005F0002005D000100AE
:1010C0005C0001005B0001005A00010059000100B2
:1010D00058000100570001005600010055000100B2
:1010E00054000100530000005300010052000100B1
:1010F00051000100500001004F0001004E000000AF
:101100004E0001004D0001004C0001004B000000AA
:101110004B0001004A0001004900010048000000A6
:1011200048000100470001004600000046000100A1
:10113000450000004500010044000100430000009C
:101140004300010042000000420001004100000095
:1011500041000100400001003F0000003F0001008D
:101160003E0000003E0001003D0000003D00010087
:101170003C0000003C0000003C0001003B0000007F
:101180003B0001003A0000003A0001003900000075
:10119000390001003800000038000000380001006C
:1011A0003700000037000100360000003600000064
:1011B0003600010035000000350000003500010058
:1011C000340000003400000034000100330000004F
:1011D0003300000033000100320000003200000044
:1011E0003200010031000000310000003100010038
:1011F0003000000030000000300001002F0000002F
:101200002F0000002F0000002F0001002E00000022
:101210002E0000002E0001002D0000002D00000017
:101220002D0000002D0001002C0000002C0000000B
:101230002C0000002C0001002B0000002B000000FF
:101240002B0000002B0001002A0000002A000000F3
:101250002A0000002A0001002900000029000000E7
:1012600029000000290000002900010028000000DA
:1012700028000000280000002800000028000100CD
:1012800027000000270000002700000027000000C2
:1012900027000100260000002600000026000000B4
:1012A00026000000260001002500000025000000A7
:1012B0002500000025000000250000002500010099
:1012C000240000002400000024000000240000008E
:1012D0002400010023000000230000002300000080
:1012E0002300000023000000230000002300010071
:1012F0002200000022000000220000002200000066
:101300002200000022000100210000002100000056
:101310002100000021000000210000002100000049
:10132000210001002000000020000000200000003B
:10133000200000002000000020000000200000002D
:10134000200001001F0000001F0000001F0000001F
:101350001F0000001F0000001F0000001F00010010
:101360001E0000001E0000001E0000001E00000005
:101370004D383420582059205A2045005A25752CC4
:1013800045256C752C50256C752C5425752C4225E3
:10139000752C005072696E74657220726561647993
:1013A0002E005072696E7465722072656164792EC8
:1013B000004572723A4E6F2046696C616D656E74BD
:1013C00000285A203C3D2025642E256429005374B2
:1013D000617274206D69783A2025336425252025B3
:1013E0003364252500285A203E3D2025642E25649F
:1013F00029002020456E64206D69783A20253364E9
:1014000025252025336425250046756C6C206772E0
:10141000616469656E74002533643B25336425255A
:10142000002020456E64206D69783A002533643BC6
:101430002533642525005374617274206D69783AF0
:10144000004772616469656E74002534642E2564FA
:10145000206D6D002020456E64205A3A00253464CA
:101460002E2564206D6D005374617274205A3A0009
:101470004772616469656E74206D6978004D6978A2
:101480006572004D69783A25336425253B25336420
:1014900025253B2533642525004772616469656E07
:1014A0007400546F67676C65206D6978003A253366
:1014B000643B2533643B2533642525004D69780062
:1014C0004D61696E005072696E742070617573654C
:1014D00064004D31323500002573004D3234005028
:1014E00072696E742061626F72746564004732388D
:1014F00020585900473930004731204631303030CC
:10150000205A323000473931004E6F205344206357
:10151000617264005072696E742066726F6D205340
:10152000440053746F70207072696E74005265735A
:10153000756D65207072696E7400506175736520F9
:101540007072696E740041626F7574205072696EBA
:10155000746572004D6978657200436F6E74726FC6
:101560006C00507265706172650054756E6500495B
:101570006E666F2073637265656E00426162797397
:10158000746570205A004D36303020423000436878
:10159000616E67652066696C616D656E740042619D
:1015A000627973746570205A00466C6F7700466CE0
:1015B0006F770046616E2073706565640046616EEA
:1015C0002073706565640042656400426564004E86
:1015D0006F7A7A6C65004E6F7A7A6C65005370652D
:1015E0006564005370656564004D61696E005072FA
:1015F000656865617420504C4120456E64005072EE
:10160000656865617420504C4120426564005072E9
:10161000656865617420504C41005072657061725C
:101620006500507265686561742041425320456EC3
:1016300064005072656865617420414253204265C0
:1016400064005072656865617420414253005072B5
:101650006570617265004261636B004E657874204D
:10166000636F726E657200507265686561742050B8
:101670004C4100436F6F6C646F776E005072656809
:1016800065617420414253004368616E676520665E
:10169000696C616D656E740044697361626C65208C
:1016A0007374657070657273004D3834004C6576E4
:1016B000656C20636F726E657273004175746F2084
:1016C000686F6D6500473238004D6F766520617830
:1016D0006973004D61696E007C3C3E5E2B3D3F2F7F
:1016E0005B5D3B2C2A225C004572726F7220777220
:1016F0006974696E6720746F20454550524F4D21C3
:101700000A00001C1F11111F000000061918031306
:101710000C00040E1F041C0000000010101010101C
:1017200010000014141414141400001515151515C8
:101730001500000E1315110E00001C1018170506D9
:101740000500040A0A0A0A11110E0C12120C0000FC
:101750000000001F1511151F00000000000001020D
:1017600004040000001C1C0C04040402010000001E
:10177000000004081000000000004D3130342053F8
:101780002575004739322045257500473932205AE2
:1017900025752E2575004D3530300043616E63652B
:1017A0006C207072696E7400526573756D6520707F
:1017B00072696E7400506F776572206F757461671F
:1017C000650025753A2530327500253032753A2589
:1017D000303275002D2D2D005344005A004D7825D0
:1017E000643B25643B2564252520004D7825643B1A
:1017F00025643B2564252520005374617274205AAA
:101800003A202534642E2564206D6D002020456E1D
:1018100064205A3A202534642E2564206D6D0054CE
:101820004845524D414C2052554E41574159005464
:101830006865726D616C2052756E617761790043E5
:10184000616E6E6F74206F70656E2073756264696F
:10185000722000656E7175657565696E672022007E
:101860006563686F3A004578747275646572733A9F
:10187000203100687474703A2F2F6D61726C696E3C
:1018800066772E6F7267005072696E7465720032EF
:101890003031372D31322D32352031323A3030006F
:1018A000312E312E38004D61726C696E00546865BE
:1018B000726D6973746F727300426F617264204954
:1018C0006E666F005072696E74657220496E666F45
:1018D000004D61696E0020204E6F7A7A6C653A2067
:1018E000004261636B004D696E696D756D205465D2
:1018F0006D70206973203137302E0048656174693E
:101900006E67206661696C65640045787472756401
:1019100065206D6F726500526573756D652070721C
:10192000696E7400524553554D45204F5054494FF0
:101930004E533A0020204E6F7A7A6C653A2000634D
:1019400068616E6765006F66207468652066696C03
:10195000616D656E74005761697420666F722073E3
:1019600074617274005052494E5420504155534591
:10197000440020204E6F7A7A6C653A200066696CCC
:10198000616D656E7420756E6C6F6164005761697E
:101990007420666F72005052494E54205041555386
:1019A00045440020204E6F7A7A6C653A2000506CD6
:1019B0006561736520776169742E2E2E004865611C
:1019C00074696E67206E6F7A7A6C65005052494E6A
:1019D00054205041555345440020204E6F7A7A6C74
:1019E000653A200068656174206E6F7A7A6C652EA6
:1019F00000507265737320627574746F6E20746F1B
:101A0000005052494E542050415553454400202027
:101A10004E6F7A7A6C653A2000746F20636F6E7433
:101A2000696E75652E2E2E00616E6420707265736E
:101A30007320627574746F6E00496E7365727420E2
:101A400066696C616D656E74005052494E54205049
:101A500041555345440020204E6F7A7A6C653A20F8
:101A60000066696C616D656E74206C6F616400570F
:101A700061697420666F72005052494E5420504183
:101A8000555345440020204E6F7A7A6C653A200009
:101A900066696C616D656E742065787472756465D5
:101AA000005761697420666F72005052494E54208D
:101AB00050415553454400746F20726573756D65D0
:101AC000005761697420666F72207072696E7400CD
:101AD0005052494E542050415553454400496E6977
:101AE0007469616C697A6520454550524F4D0043D9
:101AF0006F6E74726F6C00526573746F72652066DE
:101B000061696C73616665004C6F61642073657414
:101B100074696E677300496E697469616C697A658E
:101B200020454550524F4D0053746F7265207365C8
:101B30007474696E67730046696C616D656E7400DC
:101B40004D6F74696F6E0054656D70657261747568
:101B50007265004D61696E004D3330332055312080
:101B600045256920532569005072656865617420B8
:101B700041425320636F6E66005072656865617400
:101B800020504C4120636F6E6600504944204175DF
:101B9000746F74756E6500504944204175746F749C
:101BA000756E65005049442D44005049442D440051
:101BB0005049442D49005049442D49005049442D75
:101BC00050005049442D50002002204661637400AB
:101BD00020022046616374002002204D61780020BD
:101BE00002204D6178002002204D61780020022003
:101BF0004D696E002002204D696E002002204D6963
:101C00006E004F6666004F6E20004175746F7465FC
:101C10006D700046616E2073706565640046616E8C
:101C20002073706565640042656400426564004E1F
:101C30006F7A7A6C65004E6F7A7A6C6500436F6ECE
:101C400074726F6C0053746F72652073657474697D
:101C50006E67730042656400426564004E6F7A7A75
:101C60006C65004E6F7A7A6C650046616E20737009
:101C70006565640046616E20737065656400546537
:101C80006D706572617475726500290A0020627951
:101C90007465733B20637263200053657474696ECE
:101CA00067732053746F726564202800290A577285
:101CB0006974652066696C65206E616D653A200007
:101CC0002062797465733B206372632000506F77E4
:101CD00065726F66662053746F72656420280020F9
:101CE000213D2000637263206572726F723A20009A
:101CF0000A726561642066696C65206E616D653A83
:101D00002000290A726561642066696C6520646937
:101D1000723A20002062797465733B2063726320FD
:101D200000706F7765726F66662073746F7265649A
:101D30002073657474696E67732072657472696567
:101D4000766564202800202863616C63756C61747B
:101D5000656429210A0020213D2000454550524F4D
:101D60004D20435243206D69736D61746368202D6B
:101D7000202873746F726564292000290A0020628C
:101D8000797465733B2063726320002073746F72F3
:101D900065642073657474696E677320726574720C
:101DA0006965766564202800204D61726C696E3D1E
:101DB00056313231290A0028454550524F4D3D00D9
:101DC000454550524F4D2076657273696F6E206D98
:101DD00069736D6174636820004573746570732F57
:101DE0006D6D004573746570732F6D6D005A73745B
:101DF0006570732F6D6D005A73746570732F6D6D00
:101E0000005973746570732F6D6D0059737465702C
:101E1000732F6D6D005873746570732F6D6D00585E
:101E200073746570732F6D6D004D6F74696F6E0004
:101E300053746570732F6D6D004A65726B0041635A
:101E400063656C65726174696F6E0056656C6F6373
:101E500069747900436F6E74726F6C004F6E20006E
:101E600052756E6F75742073656E736F7273004672
:101E7000696C2E204469612E0046696C2E204469ED
:101E8000612E004F6666004F6E20004520696E206F
:101E90006D6D33004F666600436F6E74726F6C0039
:101EA00043616E6E6F7420656E7465722073756227
:101EB0006469723A2000052E2E004D61696E004D56
:101EC00061782054656D703A20313235004D696E6D
:101ED0002054656D703A203500544265643A45508F
:101EE000434F53203130304B004D61782054656DA5
:101EF000703A20323635004D696E2054656D703A67
:101F000020350054303A204550434F532031303073
:101F10004B005053553A2047656E65726963005017
:101F2000726F746F636F6C3A20312E300020202066
:101F3000204857205665723A20560046572056656D
:101F4000723A2056322E3000426175643A203235A2
:101F500030303030004754323536302056342E3051
:101F60000053442063617264206F6B0A006F7065D8
:101F70006E526F6F74206661696C65640A00766FDB
:101F80006C756D652E696E6974206661696C656437
:101F90000A00534420696E6974206661696C0A0006
:101FA0006175746F25692E67004D3234004D3233F0
:101FB0002025730057726974696E6720746F2066FC
:101FC000696C653A20006F70656E206661696C65AA
:101FD000642C2046696C653A20006F70656E20663F
:101FE00061696C65642C2046696C653A200046691D
:101FF0006C652073656C65637465640A00205369C1
:102000007A653A200046696C65206F70656E65647C
:102010003A20006F70656E206661696C65642C20E3
:1020200046696C653A20002066696C653A20006458
:102030006F696E67006672657368004E6F77200087
:10204000454E4420535542524F5554494E450A007F
:102050002220706F73002220706172656E743A22C4
:1020600000535542524F5554494E452043414C4C24
:10207000207461726765743A22004B494C4C4544A8
:102080002E2000747279696E6720746F2063616C12
:102090006C207375622D67636F64652066696C657B
:1020A00073207769746820746F6F206D616E79207A
:1020B0006C6576656C732E204D4158206C65766595
:1020C0006C2069733A004572726F723A0020746F27
:1020D0006F206C6F6E6720657874727573696F6EB0
:1020E0002070726576656E7465640A0020636F6C9B
:1020F0006420657874727573696F6E20707265768E
:10210000656E7465640A0020643A0020693A002014
:10211000703A0020643A0020693A0020703A004387
:10212000290A0061626C656420286D696E207465FF
:102130006D702000436F6C642065787472756465FF
:10214000732061726520004B64200023646566691A
:102150006E65202044454641554C545F004B692034
:102160000023646566696E65202044454641554CF0
:10217000545F004B70200023646566696E65202003
:1021800044454641554C545F0050494420417574C4
:102190006F74756E652066696E6973686564212069
:1021A00050757420746865206C617374204B702CBA
:1021B000204B6920616E64204B6420636F6E7374E2
:1021C000616E74732066726F6D2062656C6F77202C
:1021D000696E746F20436F6E6669677572617469AA
:1021E0006F6E2E680A00504944204175746F7475F3
:1021F0006E65206661696C6564212074696D656F28
:1022000075740A00544845524D414C2052554E4178
:1022100057415900546865726D616C2052756E614A
:102220007761790048656174696E67206661696CE1
:1022300065640048656174696E67206661696C65F4
:102240006400504944204175746F74756E65206652
:1022500061696C6564212054656D70657261747587
:10226000726520746F6F20686967680A00204B648C
:102270003A2000204B693A2000204B703A20000A97
:1022800020436C617373696320504944200A002025
:1022900054753A2000204B753A2000206D61783A41
:1022A0002000206D696E3A200020643A20002062F0
:1022B0006961733A200000002100240027002A00F1
:1022C0002D003000330001010000040107010A0164
:1022D00000002200250028002B002E0031003400D1
:1022E00002010000050108010B010000200023008D
:1022F000260029002C002F003200000100000301FD
:102300000601090105050505070508080808020278
:1023100002020A0A0808040404040101010101017F
:1023200001010303030303030303040707070C0C62
:102330000C0C0C0C0C0C0202020206060606060629
:1023400006060B0B0B0B0B0B0B0B010210202008CE
:102350000810204010204080020102010804020100
:10236000010204081020408080402010080402016F
:1023700080040201804020100804020108040201C8
:10238000010204081020408001020408102040804F
:1023900000000A0B02090C0D0E08070304010000DF
:1023A000000000000000000000000000000000002D
:1023B00000000000000000000000000012111000EA
:1023C000000000000000000000000000000000000D
:1023D000000000000000506C656173652072657339
:1023E0006574005052494E5445522048414C544562
:1023F00044005072696E7465722068616C74656423
:102400002E206B696C6C28292063616C6C656421DB
:102410000A00000070C1000000C1000000000000C0
:10242000C8420000C8420000A041000000005761FF
:10243000726E696E673A20486F6D696E67204275EB
:102440006D702044697669736F72203C20310A00F8
:102450000202040000A0400000A040000000400074
:10246000006B430000644300008243FFFFFF4D36D2
:10247000303020486F74656E6420746F6F20636F16
:102480006C6420746F206368616E67652066696C98
:10249000616D656E740A00436172642072656D6FD0
:1024A000766564004361726420696E736572746559
:1024B00064005654726176206D696E0056547261E4
:1024C00076206D696E005654726176206D696E00DB
:1024D000566D696E00566D696E00566D696E0056D8
:1024E0006D6178204500566D6178204500566D611C
:1024F00078204500566D6178205A00566D6178202D
:102500005A00566D6178205A00566D617820590046
:10251000566D6178205900566D6178205900566DCE
:102520006178205800566D6178205800566D6178AA
:102530002058004D6F74696F6E00416D61782045C1
:1025400000416D6178204500416D6178205A00415D
:102550006D6178205A00416D6178205900416D61AC
:1025600078205900416D6178205800416D617820D4
:102570005800412D74726176656C00412D74726152
:1025800076656C00412D7265747261637400412D33
:102590007265747261637400416363656C004163CA
:1025A00063656C004D6F74696F6E0056652D6A65CA
:1025B000726B0056652D6A65726B0056652D6A65F3
:1025C000726B00567A2D6A65726B00567A2D6A65B9
:1025D000726B0056792D6A65726B0056792D6A65AB
:1025E000726B0056792D6A65726B0056782D6A659C
:1025F000726B0056782D6A65726B0056782D6A658D
:10260000726B004D6F74696F6E0048617264636F26
:102610006465642044656661756C742053657474E8
:10262000696E6773204C6F616465640A00B80B00C3
:1026300000B80B00006400000010270000000096A6
:1026400043000096430000A0410000C8419A99A0B1
:10265000429A99A0420000C8430080C5432044002C
:1026600020490020204D33303420500020440020E9
:10267000490020204D333031205000504944207310
:10268000657474696E67733A0A0020460020420040
:1026900020480020204D3134352053004D617465B1
:1026A0007269616C20686561747570207061726117
:1026B0006D65746572733A0A00204500205A002047
:1026C000590020580020420020540020204D323074
:1026D00035205300416476616E6365643A20533C53
:1026E0006D696E5F66656564726174653E20543C19
:1026F0006D696E5F74726176656C5F666565647244
:102700006174653E20423C6D696E5F7365676D65FF
:102710006E745F74696D655F75733E20583C6D61C2
:10272000785F78795F6A65726B3E205A3C6D61789C
:102730005F7A5F6A65726B3E20453C6D61785F65CC
:102740005F6A65726B3E0A00205400205200202010
:102750004D323034205000416363656C65726174A2
:10276000696F6E2028756E6974732F7332293A2051
:10277000503C7072696E745F616363656C3E205299
:102780003C726574726163745F616363656C3E2063
:10279000543C74726176656C5F616363656C3E0A7C
:1027A00000204500205A0020590020204D323031B1
:1027B0002058004D6178696D756D20416363656CCB
:1027C00065726174696F6E2028756E6974732F73FA
:1027D00032293A0A00204500205A002059002020C2
:1027E0004D3230332058004D6178696D756D20662B
:1027F00065656472617465732028756E6974732FE2
:1028000073293A0A00204500205A00205900202050
:102810004D393220580053746570732070657220F2
:10282000756E69743A0A0020204D323030204430F1
:102830000A0020204D32303020440020446973616A
:10284000626C65640A0046696C616D656E74207324
:10285000657474696E67733A0020204D31343920F5
:1028600043203B20556E69747320696E2043656C6C
:10287000736975730A002020473231202020203BE5
:1028800020556E69747320696E206D6D0A007001A9
:102890002C0190012701B0012201C0011D01F001AE
:1028A00018011002130130020E01600209019002AA
:1028B0000401C002FF000003FA004003F50080039A
:1028C000F000D003EB002004E6007004E100E00417
:1028D000DC004005D700C005D2004006CD00D00680
:1028E000C8008007C3003008BE00F008B900C00966
:1028F000B400B00AAF00B00BAA00D00CA500000EC7
:10290000A000500F9B00C0109600501291000014C0
:102910008C00C0158700B0178200B0197D00D01B55
:102920007800001E730040206E0090226900F024A1
:10293000640040275F0090295A00E02B5500102EBC
:10294000500020304B0010324600E03341009035FB
:102950003C001037370070383200A0392D00B03AF3
:102960002800A03B2300603C1E00103D1900903D54
:102970001400103E0F00703E0A00C03E0500003FEC
:102980000000403FFBFF803FF6FFC03FF1FF457274
:10299000723A204D494E54454D5020424544004521
:1029A00072723A204D494E54454D50004D494E5497
:1029B000454D5020747269676765726564004572A1
:1029C000723A204D415854454D50204245440045EF
:1029D00072723A204D415854454D50004D41585463
:1029E000454D502074726967676572656400202FD9
:1029F000002042403A0020403A00526573656E6400
:102A00003A20006F6B00627573793A2070617573BC
:102A1000656420666F7220696E7075740A00627555
:102A200073793A2070617573656420666F722075E2
:102A30007365720A00627573793A2070726F63650C
:102A40007373696E670A004B494C4C45442E200055
:102A50004B494C4C20636175736564206279207426
:102A60006F6F206D75636820696E61637469766548
:102A70002074696D65202D2063757272656E7420F7
:102A8000636F6D6D616E643A20005344207072690B
:102A90006E74696E67206279746520004E6F7420D1
:102AA0005344207072696E74696E670A00486F6DD6
:102AB0006520257325732573206669727374002061
:102AC00066697273740A005A0059005800486F6DA5
:102AD0006520004D6F76652058004D6F7665205952
:102AE000004D6F7665205A00457874727564657282
:102AF000004D6F766520302E316D6D004D6F76651F
:102B000020316D6D004D6F76652031306D6D004D5B
:102B10006F7665206178697300486F74656E642014
:102B2000746F6F20636F6C640045787472756465B0
:102B300072004D6F7665205A004D6F766520590002
:102B40004D6F766520580045787472756465720023
:102B50004D6F7665205A004D6F76652059004D6F98
:102B60007665205800507265706172650062656418
:102B70000A002C2073797374656D2073746F707004
:102B8000656421204865617465725F49443A20009C
:102B900048656174696E67206661696C65640048A8
:102BA000656174696E67206661696C65640048657B
:102BB0006174696E67206661696C6564004865616F
:102BC00074696E67206661696C65640091F60BF844
:102BD00011241FBECFEFD1E2DEBFCDBF00E00CBF9E
:102BE00013E0A0E0B2E0E2E3FFE002E00BBF02C0CE
:102BF00007900D92A03CB107D9F727E1A0ECB3E014
:102C000001C01D92AE35B207E1F715E1C7EED5E17F
:102C100000E006C021970109802FFE010F94F10604
:102C2000C63ED10780E00807A9F70E9453ED0D9436
:102C300088070C9400002F923F924F925F926F9200
:102C40007F928F929F92AF92BF92CF92DF92EF923C
:102C5000FF920F931F93CF93DF93CDB7DEB7C65785
:102C6000D1090FB6F894DEBF0FBECDBF81E090E072
:102C70009093401580933F1580910A168D3409F486
:102C800082C6843511F40C949A2C873411F00C947C
:102C9000F02C80910816909109168430910509F462
:102CA000B1C554F497FF02C00C940A2D20919102F3
:102CB000823091057CF529C08A35910509F415C645
:102CC0006CF48B31910509F4E4C54C9711F00C9428
:102CD0000A2D80E00E94123B0C940A2D8B35910541
:102CE00009F407C68C35910511F00C940A2D0E9449
:102CF000C5E9F2E92F2EF2E03F2EA5EDEA2EA6E17E
:102D0000FA2E00E0D12C10E01EC621110C94112DDA
:102D10000C940A2D222311F40C940A2D11E0029731
:102D200009F010E00E946C3582E50E94603588232E
:102D300009F45CC10E94FE346B017C014090D51601
:102D40005090D6166090D7167090D8162091D9164C
:102D50003091DA164091DB165091DC1623962CAF99
:102D60003DAF4EAF5FAF239780912F1590913015F7
:102D7000A0913115B091321527968CAF9DAFAEAFB3
:102D8000BFAF2797209133153091341540913515F9
:102D90005091361563962CAF3DAF4EAF5FAF639742
:102DA00020E030E0A901C701B6010E94D3FF8823CB
:102DB00009F40EC5A301920127966CAD7DAD8EADD1
:102DC0009FAD27970E94D3FF811111C023962CAD90
:102DD0003DAD4EAD5FAD239763966CAD7DAD8EADD1
:102DE0009FAD63970E94D3FF882309F4F1C420E0CC
:102DF00030E0A901C701B6010E94D3FF881F8827D0
:102E0000881F18130BC080E090E0A0E8BFE36B962A
:102E10008CAF9DAFAEAFBFAF6B970AC020E030E084
:102E200040E85FEB6B962CAF3DAF4EAF5FAF6B975B
:102E3000A301920127966CAD7DAD8EAD9FAD279716
:102E40000F94E9032F966CAF7DAF8EAF9FAF2F9796
:102E500023962CAD3DAD4EAD5FAD239763966CAD23
:102E60007DAD8EAD9FAD63970F94E90367966CAF10
:102E70007DAF8EAF9FAF67972F962CAD3DAD4EAD1A
:102E80005FAD2F97CA01B9010F9438004B015C0167
:102E900067962CAD3DAD4EAD5FAD6797CA01B901E8
:102EA0000F9438009B01AC01C501B4010F94EA03F3
:102EB0000F9455062B966CAF7DAF8EAF9FAF2B97BF
:102EC00020E030E040E05FE30F9438004B015C010C
:102ED000A7019601C701B6010F9438006B017C0170
:102EE000A5019401C501B4010F9438009B01AC0108
:102EF000C701B6010F94E9030F9455069B01AC017D
:102F00006B966CAD7DAD8EAD9FAD6B970F94380019
:102F10004B015C0127962CAD3DAD4EAD5FAD2797C3
:102F2000C301B2010F94EA0320E030E040E05FE328
:102F30000F9438006B017C0167966CAD7DAD8EAD52
:102F40009FAD679790582B962CAD3DAD4EAD5FADC4
:102F50002B970F94C6049B01AC01C501B4010F94DB
:102F600038009B01AC01C701B6010F94EA03A3012D
:102F700092010F94E9036B017C0163962CAD3DAD8A
:102F80004EAD5FAD639723966CAD7DAD8EAD9FADBD
:102F900023970F94EA0320E030E040E05FE30F94D2
:102FA00038002B013C012B962CAD3DAD4EAD5FADF5
:102FB0002B972F966CAD7DAD8EAD9FAD2F970F9457
:102FC000C6049B01AC01C501B4010F9438009B01FC
:102FD000AC01C301B2010F94EA0323962CAD3DADC1
:102FE0004EAD5FAD23970F94E90314C089E40E94AE
:102FF0006035882329F00E94FE346B017C0103C0F8
:10300000C12CD12C76018AE40E9460358823F9F026
:103010000E94FE3463966CAF7DAF8EAF9FAF639717
:1030200020E030E0A901C701B6010E94D3FF811161
:103030001EC020E030E0A90163966CAD7DAD8EAD81
:103040009FAD63970E94D3FF811111C0C1C320E0DF
:1030500030E0A901C701B6010E94D3FF882309F41B
:10306000B7C363961CAE1DAE1EAE1FAE6397D701ED
:10307000C601B05823968CAF9DAFAEAFBFAF2397BC
:1030800063962CAD3DAD4EAD5FAD6397505827961E
:103090002CAF3DAF4EAF5FAF27979C01AD01BC0198
:1030A000CD010F9438004B015C0127962CAD3DAD4E
:1030B0004EAD5FAD2797CA01B9010F9438009B014F
:1030C000AC01C501B4010F94EA030F945506AB9609
:1030D0006CAF7DAF8EAF9FAFAB978091D5169091BF
:1030E000D616A091D716B091D8162B968CAF9DAF5F
:1030F000AEAFBFAF2B97A7019601BC01CD010F94D6
:10310000EA036B966CAF7DAF8EAF9FAF6B9720914C
:10311000D9163091DA164091DB165091DC1667967D
:103120002CAF3DAF4EAF5FAF679763962CAD3DAD13
:103130004EAD5FAD639767966CAD7DAD8EAD9FADC7
:1031400067970F94EA036F966CAF7DAF8EAF9FAF1A
:103150006F9780912F1590913015A0913115B091F6
:103160003215A3968CAF9DAFAEAFBFAFA3976B9652
:103170002CAD3DAD4EAD5FAD6B97BC01CD010F9455
:10318000E9036B017C012091331530913415409196
:10319000351550913615A7962CAF3DAF4EAF5FAFAA
:1031A000A7976F962CAD3DAD4EAD5FAD6F97A796CF
:1031B0006CAD7DAD8EAD9FADA7970F94E9034B012C
:1031C0005C018091DD169091DE16A091DF16B09122
:1031D000E016E3968CAF9DAFAEAFBFAFE3979C0117
:1031E000AD01609137157091381580913915909126
:1031F0003A150F94E9032F966CAF7DAF8EAF9FAF5A
:103200002F9720913B1530913C1540913D155091E1
:103210003E15AF962CAF3DAF4EAF5FAFAF978091ED
:10322000E1169091E216A091E316B091E416E796AC
:103230008CAF9DAFAEAFBFAFE797A70196012396C6
:103240006CAD7DAD8EAD9FAD23970F9438002B01F3
:103250003C01A501940127966CAD7DAD8EAD9FAD6F
:1032600027970F9438009B01AC01C301B2010F9462
:10327000EA032B013C01A501940123966CAD7DADC1
:103280008EAD9FAD23970F9438004B015C01A701D1
:10329000960127966CAD7DAD8EAD9FAD27970F94AF
:1032A00038009B01AC01C501B4010F94E903A301EF
:1032B00092010F945D046B017C0120E030E0A901D4
:1032C0000E94D3FF87FF0AC02BED3FE049EC50E49A
:1032D000C701B6010F94EA036B017C01112351F081
:1032E0002BED3FE049EC50E4C701B6010F94E90330
:1032F0006B017C0120E030E0A901C701B6010E940A
:10330000D3FF811128C0A3962CAD3DAD4EAD5FAD6E
:10331000A3972B966CAD7DAD8EAD9FAD2B970E9484
:10332000D3FF811118C0A7962CAD3DAD4EAD5FAD5A
:10333000A79767966CAD7DAD8EAD9FAD67970E94E8
:10334000D3FF811108C01BEDC12E1FE0D12E19EC57
:10335000E12E10E4F12EAB962CAD3DAD4EAD5FAD40
:10336000AB97C701B6010F9438009B01AC010F94D5
:1033700038004B015C012F962CAD3DAD4EAD5FADDD
:103380002F97CA01B9010F9438009B01AC01C50108
:10339000B4010F94EA030F9455064B015C012FE62C
:1033A00032E143E85AE30E94D3FF87FD0DC2C50115
:1033B000B4010F945F050F9433051B01672B19F4BB
:1033C00022242394312CB10180E090E00E94D7FFA9
:1033D0004B015C019B01AC01C701B6010F94C6040F
:1033E0002B966CAF7DAF8EAF9FAF2B97A50194014D
:1033F0002F966CAD7DAD8EAD9FAD2F970F94C6040B
:10340000AB966CAF7DAF8EAF9FAFAB97E7962CAD11
:103410003DAD4EAD5FADE797AF966CAD7DAD8EAD7A
:103420009FADAF970F94E903A50194010F94C604D3
:10343000AF966CAF7DAF8EAF9FAFAF972B962CAD95
:103440003DAD4EAD5FAD2B97CA01B9010F94380069
:1034500020E030E040E05FE30F9438009B01AC01D6
:1034600060E070E080E89FE30F94E903A3966CAFFF
:103470007DAF8EAF9FAFA397E3962CAD3DAD4EAD24
:103480005FADE39729873A874B875C87E7968CADDA
:103490009DADAEADBFADE7978D879E87AF87B88BEB
:1034A0006091330270913402072E000C880B990B47
:1034B0000E94D9FF20910002309101024091020246
:1034C000509103020F9438002AE037ED43E25CE3A9
:1034D0000F94380068A379A38AA39BA30E94C6B760
:1034E0009B01AC0128533F4F4F4F5F4FA7962CAF26
:1034F0003DAF4EAF5FAFA7974FAC21965FAC219722
:1035000022966FAC229723967FAC239741E050E040
:1035100065965FAF4EAF659759E12C965FAF2C97DC
:103520006596AEADBFAD6597A215B30509F43CC174
:103530000E943EE80E94C6B7DC01CB01A7962CADE5
:103540003DAD4EAD5FADA797821B930BA40BB50BA2
:10355000B7FD11C00E94C6B79B01AC0128533F4F75
:103560004F4F5F4FA7962CAF3DAF4EAF5FAFA797C2
:1035700080E00E942BD92C963FAD2C9731502C9691
:103580003FAF2C97332309F44BC0A3962CAD3DAD30
:103590004EAD5FADA39727966CAD7DAD8EAD9FAD63
:1035A00027970F9438006B017C012B962CAD3DAD15
:1035B0004EAD5FAD2B97B201C3010F943800A70148
:1035C00096010F94EA036B017C01A3962CAD3DADEF
:1035D0004EAD5FADA397B201C3010F9438004B010C
:1035E0005C012B962CAD3DAD4EAD5FAD2B97279674
:1035F0006CAD7DAD8EAD9FAD27970F9438009B01CC
:10360000AC01C501B4010F94E9032B013C01C601D3
:10361000D70127968CAF9DAFAEAFBFAF279761C0E4
:1036200065964EAD5FAD6597BA0180E090E00E946F
:10363000D7FF2B962CAD3DAD4EAD5FAD2B970F94C4
:1036400038004B015C010F94C3046B017C01C50180
:10365000B4010F944B064B015C01A7019601239620
:103660006CAD7DAD8EAD9FAD23970F9438002B01CF
:103670003C01A501940163966CAD7DAD8EAD9FAD0F
:1036800063970F9438009B01AC01C301B2010F9402
:10369000EA032B013C01A501940123966CAD7DAD9D
:1036A0008EAD9FAD23970F9438004B015C01A701AD
:1036B000960163966CAD7DAD8EAD9FAD63970F9413
:1036C00038009B01AC01C501B4010F94E9032796B2
:1036D0006CAF7DAF8EAF9FAF279759E12C965FAF50
:1036E0002C979201A3016B966CAD7DAD8EAD9FAD15
:1036F0006B970F94EA0369837A838B839C83279665
:103700002CAD3DAD4EAD5FAD27976F966CAD7DADE9
:103710008EAD9FAD6F970F94EA036D837E838F8389
:103720009887AB962CAD3DAD4EAD5FADAB9769853F
:103730007A858B859C850F94EA0369877A878B87C6
:103740009C87AF962CAD3DAD4EAD5FADAF976D850F
:103750007E858F8598890F94EA036D877E878F8792
:10376000988B80919002882321F0CE0101960E94CF
:103770002BBFE12C8E01005E1F4F9E01235F3F4F48
:10378000AE01475F5F4FBE016B5F7F4FCE01019679
:103790000E94C9AB65968EAD9FAD65970196659603
:1037A0009FAF8EAF6597BCCEE12C8E01005E1F4FA0
:1037B0002BE335E147E355E163E375E18FE295E102
:1037C0000E94C9AB0E9425360E942F360C940A2D08
:1037D000E6ECF0E284918F010F5F1F4F882321F008
:1037E0000E943A36F801F6CFE5E3F2E084918F01CA
:1037F0000F5F1F4F882311F40C940A2D0E943A3654
:10380000F801F4CF80E50E946035882329F00E94FA
:10381000BE346B017C0103C0C12CD12C760183E541
:103820000E946035882361F00E94FE3420E030E081
:103830004AE754E40F9438000F9433056B017C0180
:103840000E94C5E980913502811105C060E08BE4DA
:1038500092E00E9447BC0E942F368091941690916E
:103860009516A0919616B0919716C80ED91EEA1E0D
:10387000FB1E0E94C6B7DC01CB018C199D09AE0965
:10388000BF09B7FD02C00C940A2D80E00E942BD91D
:10389000F0CF0E9460DD81110C940A2D80E090E051
:1038A000A0E4B0E489839A83AB83BC838D839E8339
:1038B000AF83B88780E090E0A0E2B1E489879A877F
:1038C000AB87BC8780E50E946035882319F00E9491
:1038D000CE3401C060E068A3BE016F5F7F4FCE01B0
:1038E00080960E941BEC0C940A2D1092C4030C9439
:1038F0000A2D81E08093C4030C940A2D0E94FE34AB
:103900002B013C01D7012D913D914D915C910F947C
:10391000E9034B015C012DEB37E346E855EB0F94CF
:10392000100687FD18C02DEB37E346E855E3C501C7
:10393000B4010E94D3FF181674F01F5FF4E0EF0E7D
:10394000F11C1430A1F0F10181911F010E9460353A
:10395000882399F3D3CF133019F0DD24D39401C019
:1039600001E0F7014082518262827382E6CFDD205E
:1039700019F00E944A3403C001110E94FEDD0E942A
:10398000533A0C940A2D80910816909109168637A7
:10399000910511F40C94C8250CF0DEC08D3491050E
:1039A00009F467C50CF053C08931910509F408C3C7
:1039B0001CF58431910509F484C27CF481319105B0
:1039C00009F46BC22CF4029708F4D3C10C940A2DAD
:1039D000429709F4B4C70C940A2D8631910509F475
:1039E000B9C20CF4B3C28731910509F4B9C2489742
:1039F00009F4CCC20C940A2D8F31910509F44FC4FF
:103A00007CF48B31910509F4EDC20CF4DDC28C31EC
:103A1000910509F4EBC24E9709F4F2C20C940A2DF9
:103A20008A32910509F4E1C42CF4809709F4EDC3BE
:103A30000C940A2D8B34910509F417C58C3491052B
:103A400011F00C940A2D0E943CDE0C940A2D8B364A
:103A5000910509F4E2C60CF052C08535910509F4D0
:103A6000A5C77CF58235910509F460C704F5813559
:103A7000910511F00C940A2D0E94DDD80E94C5E931
:103A80000E949BDB1092BC161092BB1668EE73E08E
:103A900080E090E00E94A2BB0E94C5E90E94C7336B
:103AA00060E081EC93E00E9447BC0C940A2D8335C2
:103AB000910509F43FC78435910509F440C70C947A
:103AC0000A2D8836910509F4D8C47CF48C3591050B
:103AD00011F00C940A2D22E9C22E22E0D22E35EEEE
:103AE000E32E36E1F32E10E07CC78936910509F408
:103AF000F1C58A36910509F46BC60C940A2D8037FE
:103B0000910509F499C584F48D36910509F426C60A
:103B10000CF48EC58E36910509F406C58F369105D5
:103B200009F415C50C940A2D8237910509F4D8C7FC
:103B30000CF486C58337910509F4D7C785379105FD
:103B400011F00C940A2D60E08091061690910716F2
:103B50000E946ABC0C940A2D823E910511F40C94CB
:103B60006B2B0CF076C0863A910511F40C943E282C
:103B700084F58C38910509F48FC59CF4883791053C
:103B800011F40C946B2614F40C94072689379105D4
:103B900011F40C9471268D37910509F450C60C94DC
:103BA0000A2D8B39910509F4B2C53CF48139910590
:103BB00011F40C9476260C940A2D833A910511F495
:103BC0000C94EC26843A910511F40C9463270C9420
:103BD0000A2D8C3C910511F40C94C5290CF5883CF8
:103BE000910511F40C94492934F48E3B910509F4A4
:103BF000D3C50C940A2D893C910511F40C948F299E
:103C00008B3C910511F00C940A2D44E8E42E45E11B
:103C1000F42E02E912E054E0D52ED00E0C94B62911
:103C2000833D910511F40C949A2A3CF48D3C910546
:103C300011F40C942F2A0C940A2D8C3D910511F44B
:103C40000C94172B8D3D910511F40C94242B0C949E
:103C50000A2D893921E0920711F40C94C62B0CF03F
:103C600046C08F3241E0940711F40C94C02BFCF451
:103C70008C32A1E09A0711F40C94942B4CF482320C
:103C8000914011F00C940A2D0E9430B50C940A2D2D
:103C90008D32F1E09F0711F40C94BD2B8E329140D0
:103CA00011F00C940A2D0E94BEB30C940A2D833699
:103CB00031E0930711F40C94DB2B4CF480339140EA
:103CC00011F00C940A2D0E9414B40C940A2D803922
:103CD000A1E09A0711F40C94C32B8839914011F09C
:103CE0000C940A2D81E080939A120C940A2D873F40
:103CF000E1E09E0711F40C94CF2BFCF4843F21E00B
:103D0000920711F40C94C92B4CF48A39914011F0AC
:103D10000C940A2D0E9436AE0C940A2D853F51E07A
:103D2000950711F40C94CC2B863F914011F00C9424
:103D30000A2D0E94FED30C940A2D803AB3E09B0713
:103D400009F4A0C24CF48835924011F00C940A2D6D
:103D50000E9404AD0C940A2D873E23E0920711F4D3
:103D60000C941B2C893D974011F40C94302C0C942E
:103D70000A2DA0900616B090071680E50E946035C7
:103D8000882359F00E94BE346B017C0111E0672B3F
:103D9000682B692B31F410E004C010E0C12CD12C49
:103DA000760183E50E9460358823F1F00E94FE349D
:103DB00020E030E04AE754E40F9438000F943305D4
:103DC0006B017C01111112C0672B682B692B71F4F8
:103DD000A114B10459F0D5018C91882339F061E028
:103DE000C5010E946ABC0FC0112391F360E082E715
:103DF00092E00E9447BC10926315109264151092D5
:103E000065151092661583E090E0909340158093BD
:103E10003F1581E0809362150E94C5E90E942F360C
:103E2000C114D104E104F104F1F080919416909151
:103E30009516A0919616B0919716C80ED91EEA1E37
:103E4000FB1E0E94C6B7DC01CB018C199D09AE098F
:103E5000BF09B7FF1EC0809162158823D1F080E0B2
:103E60000E942BD9EECF80916215882321F080E04B
:103E70000E942BD9F8CF8091950F9091960F60E01A
:103E8000029719F483E692E002C084E592E00E9472
:103E900047BC109262150C940A2D60E085E892E010
:103EA0000E9447BC4298179815982E989FB7F8948F
:103EB00080910B018D7F80930B019FBFA0980C9484
:103EC0000A2DEDE9F2E084918F010F5F1F4F8823E7
:103ED00021F00E943A36F801F6CF10925512109256
:103EE000541240E050E0BA018EED9FE00E94875BE3
:103EF0008BE1EEEDFFE0DE01159601900D928A95C3
:103F0000E1F78091DC0F9091DD0F9C838B838AE930
:103F100092E09A83898340E050E0BE016F5F7F4F5B
:103F200083E793E00E949C6CCE0101960E9470C2D0
:103F3000EEE8F2E084918F010F5F1F4F882311F4A8
:103F40000C940A2D0E943A36F801F4CF0E945C9A34
:103F50000C940A2D1092A50F1092A60F0C940A2D06
:103F6000E0910616F09107168081882329F08032AF
:103F700009F410823196F8CF40E061E08091061696
:103F8000909107160E941D970C940A2D19821A828F
:103F90001B821C8218A219A21AA21BA28091411591
:103FA000882341F040E0BE016F5F7F4FCE018096D5
:103FB0000E9464C10E9496720E94319C0C940A2D4A
:103FC0000E943F340C940A2D8091A60F882311F48F
:103FD0000C940A2D83E50E94603581110C94E82D24
:103FE0000C940A2D0E9456DE0C940A2D40E060E0ED
:103FF00080910616909107160E941D970C940A2D29
:104000008091A60F882311F40C940A2D82EA91E185
:104010000E94555B82EA91E10E947DBC1092A40F40
:104020001092A30FE0900616F09007168091A60F4D
:10403000882311F40C940A2D0E945C70FE013196C5
:104040006F01CF010E945C598AED9FE09093FA0FB7
:104050008093F90FD7018C918F3209F060C06FE225
:1040600070E0C7010F9445078C010F5F1F4F09F4E3
:104070005CC06FE270E0C8010F9445075C010097D7
:1040800009F454C00817190708F050C04C01801AF1
:10409000910AA401B801CE0180960F946E07E0E268
:1040A000F0E0EC0FFD1FE80DF91D10828E01005E9F
:1040B0001F4FF80181918F01882319F00E943A3631
:1040C000F8CF8AE00E943A366091F90F7091FA0FAA
:1040D0006115710511F06C5F7F4F21E0AE01405E0C
:1040E0005F4FCE0105960E946A61811112C0BE0128
:1040F000605E7F4F84ED92E00E948B468EE20E94CC
:104100003A368AE00E943A36C6010E9470C20C9488
:104110000A2DD092FA0FC092F90F8501A6CF8BEF2E
:104120009FE09093FA0F8093F90F87016091F90F48
:104130007091FA0F6115710511F06C5F7F4F18A235
:104140001BA222E0A801CE0180960E946A61811123
:1041500002C0F12C14C0CE0180960E940A6C882304
:10416000C1F361E0CE0180960E9486BC009789F37E
:1041700025EEDC012C931BA20E946659F82ECE017D
:1041800080960E94DB35FF2019F1EEEAF2E084917F
:104190007F01BFEFEB1AFB0A882321F00E943A3619
:1041A000F701F5CFF80181918F01882319F00E9462
:1041B0003A36F8CF8AE00E943A361092D60F109223
:1041C000D70F1092D80F1092D90F0E94226F18C0EB
:1041D000ECEBF2E084917F012FEFE21AF20A8823E0
:1041E00021F00E943A36F701F5CFD8018D918D016B
:1041F000882319F00E943A36F8CF8EE20E943A36B0
:10420000C6010E9470C20C940A2D8091A50F8111E5
:104210000E94C5E98091A60F882311F40C940A2D01
:1042200080E50E946035882319F00E94EF3403C0B6
:1042300080E50E943135182F482F61E080910616E5
:10424000909107160E941D9783E50E946035882390
:1042500081F00E94CE34AB01BC014093D60F509345
:10426000D70F6093D80F7093D90F82EA91E10E9423
:10427000875B0E94967211110C940A2D0E94319C4A
:104280000C940A2D809106169091071621E0209338
:10429000A40F40E060E00E941D970C940A2D0E943C
:1042A0006072ECE3CE2ED12CE12CF12CA70196010B
:1042B0000F94AE03762E672ECA01B901A7019601AD
:1042C0000F94AE036B017C01CA01B90128E130E013
:1042D00040E050E00F94AE034B015C01C9016DE674
:1042E00071E00F94AE068E010F5F1F4F61157105CF
:1042F00099F06F927F92DF92CF929F928F929F93CD
:104300008F937F936F9380E193E09F938F931F939D
:104310000F930E946CFF12C00097B1F06F927F92D2
:10432000DF92CF929F928F929F938F9380E093E042
:104330009F938F931F930F930E946CFF0FB6F89477
:10434000DEBF0FBECDBF36C081149104A104B104FD
:1043500079F06F927F92DF92CF929F928F9284EF4B
:1043600092E09F938F931F930F930E946CFFE6CF71
:10437000C114D104E104F10469F06F927F92DF92DD
:10438000CF928CEE92E09F938F931F930F930E9496
:104390006CFFD4CF6F927F9288EE92E09F938F93C1
:1043A0001F930F930E946CFF0F900F900F900F9030
:1043B0000F900F9060E0C8010E946ABCE0E6F8E14F
:1043C00084917F019FEFE91AF90A882321F00E9466
:1043D0003A36F701F5CFB80184E293E00E948B46AC
:1043E0008AE00E943A360C940A2D83E50E946035DB
:1043F000882311F40C940A2D0E94DE34E82E80E507
:104400000E946035882341F00E94CE348B0177FFF3
:1044100002C00C940A2D02C006E010E0902FE0ECE0
:10442000F6E08EE28E0F2491921729F031968E13CA
:10443000FACF0C94F82DE6ECF0E284918F010F5F37
:104440001F4F882321F00E943A36F801F6CFE1E3AE
:10445000F3E084918F010F5F1F4F882311F40C94B8
:104460000A2D0E943A36F801F4CF0E94319C0C9438
:104470000A2D0E9467700C940A2D88E690E00E9435
:104480004F3981110C940A2D8091FB0E83FF02C0DD
:104490000C940A2D83E50E946035882309F440C0FE
:1044A0000E94FE340F942E057093BA166093B916CD
:1044B00080E00E9492D80E94FE3420E030E04AEA78
:1044C00052E40E94D3FF18163CF00E94677060E02F
:1044D00087E493E00E9447BC0E94FE34209120159F
:1044E0003091211540912215509123150F941006FB
:1044F0001816B4F483E193E09F938F938091D315C2
:1045000090E001969F938F9380E493E09F938F9325
:104510001F920E94189C0FB6F894DEBF0FBECDBF4D
:104520000E9474F70C940A2D8EE40E946035882353
:1045300011F40C940A2D0E94CE346093A91270934A
:10454000AA128093AB129093AC120C940A2D83E5BF
:104550000E943135882359F083E50E946035882315
:1045600019F00E94DE3401C080E08093FB0EE0E68B
:10457000F8E184918F010F5F1F4F882321F00E9483
:104580003A36F801F6CFE4E6F3E084918F010F5F4D
:104590001F4F882321F00E943A36F801F6CF809110
:1045A000FB0E8823A1F166E5C62E63E0D62EE12C32
:1045B000F12C20E08091FB0E90E00E2C02C095952E
:1045C00087950A94E2F780FF17C0BB24B394B20E1C
:1045D000222319F08CE20E943A36F601259134919B
:1045E000F901849189010F5F1F4F882321F00E94F8
:1045F0003A369801F5CF2B2DFFEFEF1AFF0A32E084
:10460000C30ED11C45E0E416F104A1F60CC0E0E6AF
:10461000F3E084918F010F5F1F4F882321F00E94E8
:104620003A36F801F6CF8AE00E943A360C940A2D09
:1046300010922C020C940A2D8BE693E00E9478C213
:1046400083E50E946035882369F00E94DE348D3353
:1046500020F4809388020C940A2D8CE380938802C6
:104660000C940A2DE0E6F8E184918F010F5F1F4F53
:10467000882321F00E943A36F801F6CF4091880253
:1046800050E060E070E084E793E00E941B468AE01F
:104690000E943A360C940A2D8091FB0E83FF02C0D3
:1046A0000C940A2D83E50E946035882311F40C9444
:1046B0000A2D0E94FE340F942E056E37710514F0FA
:1046C0006DE770E07093B8166093B7160E9447D8F4
:1046D0000C940A2D89E690E00E944F39811111C097
:1046E000EBE7F3E084918F010F5F1F4F882321F0E8
:1046F0000E943A36F801F6CF0E9410D68AE00E9456
:104700003A361092401510923F150C94413183E5D2
:104710000E946035882311F40C940A2D0E94DE3427
:10472000182F8D3308F01CE3109391160E94C6B722
:104730006B017C01212F30E0A8EEB3E00F94DA0387
:10474000C60ED71EE81EF91EC0928D16D0928E1688
:10475000E0928F16F09290160C940A2D8DE690E060
:104760000E944F3981110C940A2D8091FB0E83FF1A
:1047700002C00C940A2D83E50E94603560968FAFCD
:10478000609781110C940E2E82E50E946035811194
:104790000C940E2E0C940A2D8091FB0E83FF02C008
:1047A0000C940A2D60E084EB93E00E9447BC83E503
:1047B0000E94603560968FAF609781110C949A2F9C
:1047C00082E50E94603581110C949A2F0C940A2D79
:1047D00080E50E946035811108C083E50E94603544
:1047E000811109C03FEF20E00AC00E94DE34811130
:1047F0000C940A2DF2CF0E94CE34362F272F832F10
:10480000922F8F3F910519F010F08FEF90E0909369
:10481000BC168093BB160C940A2D80E50E9460356F
:10482000811106C01092BC161092BB160C940A2D72
:104830000E94CE34672B11F00C940A2DF3CF8CE438
:104840000E943135882319F00E94FE3404C060E0D4
:1048500070E080E090EC6BAF7CAF8DAF9EAF80E0FE
:1048600090E0A0E4B0E489839A83AB83BC838D831A
:104870009E83AF83B88780E090E0A0E2B1E48987AF
:104880009A87AB87BC8788E50E946035882379F0DA
:1048900088E50E946035882319F00E94FE3403C029
:1048A00060E070E0CB0169837A838B839C8389E528
:1048B0000E946035882379F089E50E94603588235D
:1048C00019F00E94FE3403C060E070E0CB016D83FC
:1048D0007E838F8398878AE50E946035882379F0EC
:1048E0008AE50E946035882319F00E94FE3403C0D7
:1048F00060E070E0CB0169877A878B879C8718A27C
:1049000019A21AA21BA28091411581110C940A2DA3
:1049100000E020E0AE01405E5F4FBE016F5F7F4F61
:10492000CE01CB960E9488C00C940A2D1092C3032E
:104930000C940A2D81E08093C3030C940A2D83E527
:104940000E9460358823A1F00E94FE3420E030E010
:104950004AE754E40F9438000F94330560938902BA
:1049600070938A0280938B0290938C020C940A2D90
:1049700088E50E94313581110C94F93089E50E9457
:10498000313581110C94F9308AE50E94313581115D
:104990000C94F93085E40E94313581110C94F93082
:1049A0000E94C5E90E949BDB0C940A2D83E50E94BE
:1049B0003135882311F40C940A2D0E94FE3420E036
:1049C00030E04AE754E40F9438000F9433056093C5
:1049D00098167093991680939A1690939B160C9440
:1049E0000A2DD6018D916D010E943135882309F47D
:1049F0006DC0133009F063C00E94FE344B015C01AE
:104A000020E030E040EA51E40E94D3FF87FF4EC02F
:104A1000A50194016091F1167091F2168091F31640
:104A20009091F4160F94C6042B013C019B01AC013C
:104A30006091BC157091BD158091BE159091BF1508
:104A40000F9438006093BC157093BD158093BE150C
:104A50009093BF15A30192016091901570919115EB
:104A600080919215909193150F9438006093901552
:104A70007093911580939215909393156091011501
:104A80007091021580910315909104150E94D7FF33
:104A9000A30192010F9438000F9433056093011520
:104AA0007093021580930315909304158092F1166C
:104AB0009092F216A092F316B092F41607C00E94DC
:104AC000FE34F70160837183828393831F5FF4E078
:104AD000EF0EF11C143009F084CF0E949FAB9AC7EF
:104AE0000E94C5E90E94533A95C7E5E8F4E0849135
:104AF0008F010F5F1F4F882321F00E943A36F80183
:104B0000F6CF60E085E794E00E94A33961E08EE68D
:104B100094E00E94A33961E083E694E00E94A33907
:104B200061E083E594E00E94A33960E08AE494E0C8
:104B30000E94A33961E080E494E00E94A33960E020
:104B400086E394E00E94A33960E08EE294E00E9444
:104B5000A33960E080E294E00E94A33960E082E142
:104B600094E00E94A33960E083E094E00E94A339BE
:104B700061E085EF93E00E94A33961E08FED93E05F
:104B80000E94A33960E08EEC93E00E94A33942C7F3
:104B900085E40E946035882319F00E94EF3403C039
:104BA00085E40E943135882361F0E0E6F8E18491E4
:104BB0008F010F5F1F4F882321F00E943A36F801C2
:104BC000F6CF81E40E946035882319F00E94EF340B
:104BD00003C081E40E943135882361F0E8E4F5E008
:104BE00084918F010F5F1F4F882321F00E943A3676
:104BF000F801F6CF0091061610910716D8018D9195
:104C00008D01882309F40FCD0E943A36F7CFE4E6F0
:104C1000F5E084918F010F5F1F4F882321F00E94E0
:104C20003A36F801F6CFECE5F5E084918F010F5F9D
:104C30001F4F882321F00E943A36F801F6CF029BDD
:104C400003C004E013E002C009E013E0F801819121
:104C50008F01882319F00E943A36F8CF8AE00E942B
:104C60003A36E4E5F5E084918F010F5F1F4F88230A
:104C700021F00E943A36F801F6CF069B03C004E00B
:104C800013E002C009E013E0D8018D918D01882363
:104C900019F00E943A36F8CF8AE00E943A36ECE4E6
:104CA000F5E084918F010F5F1F4F882321F00E9450
:104CB0003A36F801F6CF379B03C004E013E002C098
:104CC00009E013E0F80181918F01882309F4ABCC4E
:104CD0000E943A36F7CF81E08093760F8093750F6C
:104CE00099C61092760F1092750F94C683E50E94B4
:104CF0006035882319F00E94CE3402C060E070E075
:104D00008B01112702301105CCF0E6ECF0E2849122
:104D10008F010F5F1F4F882321F00E943A36F80160
:104D2000F6CFEEE7F5E084918F010F5F1F4F8823E8
:104D300009F470C60E943A36F801F5CF88E40E9463
:104D400060358823A1F00E94CE346A3A710534F0B0
:104D50006B3F71052CF06AEF70E002C06AEA70E008
:104D6000F801EE0FFF1FEB57FD4E7183608386E461
:104D70000E9460358823A9F00E94CE34F801EE0F1E
:104D8000FF1FE757FD4E718360836F3F710519F078
:104D900014F06FEF70E077FF02C060E070E07183A5
:104DA000608382E40E946035882309F433C60E9440
:104DB000CE346530710534F06F3671052CF06EE637
:104DC00070E002C065E070E0000F111FF801EF57BE
:104DD000FD4E718360831EC683E50E946035882383
:104DE00041F00E94CE348B01633071050CF012C685
:104DF00002C000E010E080E50E946035882341F1A8
:104E00000E94FE346B017C0120E030E0A9010E9489
:104E1000D3FF87FD1DC02DEB37E346E855EBC701F7
:104E2000B6010F94100687FD0AC02DEB37E346E864
:104E300055E3C701B6010E94D3FF18167CF4A70101
:104E4000960160E070E080E89FE30F94C60409C01B
:104E5000C12CD12C7601C701B60103C060E070E01F
:104E6000CB01F801EE0FFF1FEE0FFF1FE55DFA4FBC
:104E700060837183828393830115110581F420E09F
:104E800030E048EC52E4C701B6010F9438000F94AB
:104E9000330570E07093E4146093E314BBC50130F4
:104EA000110509F0B7C520E030E048EC52E4C70135
:104EB000B6010F9438000F94330570E07093E61438
:104EC0006093E514A7C583E50E946035882341F00F
:104ED0000E94CE348B01603171050CF09BC502C07D
:104EE00000E010E0EBE2AE2EE5E0BE2EC12CD12CAE
:104EF0007601D5014D905D906D907D905D012DEB1B
:104F000037E346E855EBC301B2010F94100687FD65
:104F10000AC02DEB37E346E855E3C301B2010E9416
:104F2000D3FF18165CF4A301920160E070E080E802
:104F30009FE30F94C6049B01AC0103C020E030E066
:104F4000A901C701B6010F94EA036B017C01B7E325
:104F5000AB16B5E0BB0669F620E030E040E85FE361
:104F60000F94E9034B015C012DEB37E346E855EB69
:104F70000F94100687FF03C0E0EAF5E037C02DEB81
:104F800037E346E855E3C501B4010E94D3FF181684
:104F90009CF38CE0809FF001819FF00D1124E15C77
:104FA000FB4F80912B0590912C05A0912D05B09180
:104FB0002E0580839183A283B38380912F059091E6
:104FC0003005A0913105B091320584839583A68385
:104FD000B7838091330590913405A0913505B09148
:104FE000360580879187A287B38714C584915F01B6
:104FF0002FEFA21AB20A882321F00E943A36F50157
:10500000F5CFA701960160912B0570912C05809139
:105010002D0590912E050F94380060932B05709309
:105020002C0580932D0590932E05A7019601609184
:105030002F057091300580913105909132050F94C4
:10504000380060932F05709330058093310590935D
:105050003205A70196016091330570913405809166
:105060003505909136050F943800609333057093A1
:10507000340580933505909336058BCF83E50E94E8
:105080003135882321F00E94EF34182F02C010918F
:10509000260281E40E946035882351F00E94FE348C
:1050A00060931C0270931D0280931E0290931F0256
:1050B0008AE50E946035882351F00E94FE34609397
:1050C000200270932102809322029093230280E5B4
:1050D0000E946035882389F00E94CE3477FD08C095
:1050E0000E94CE34653671052CF40E94CE3403C084
:1050F00060E001C064E66093240281E50E946035AF
:10510000882389F00E94CE3477FD08C00E94CE34F7
:10511000653671052CF40E94CE3403C060E001C0F6
:1051200064E660932502F090240200912502F016B7
:10513000A1F0209120023091210240912202509151
:10514000230260911C0270911D0280911E029091B9
:105150001F020E94D3FF811101C010E081E0809303
:1051600026028EE690E09093E4148093E314F0928C
:10517000E7140093E81480911C0290911D02A09105
:105180001E02B0911F028093E9149093EA14A09339
:10519000EB14B093EC148091200290912102A09125
:1051A0002202B09123028093ED149093EE14A09309
:1051B000EF14B093F014E8EFF5E084917F013FEF36
:1051C000E31AF30A882321F00E943A36F701F5CF5B
:1051D00010932602112309F44FC040911C025091F4
:1051E0001D0260911E0270911F028AEE95E00E94DE
:1051F000554660912402062E000C770B87EE95E051
:105200000E9472468091240204E610E0B801681BF7
:10521000710987FD739584EE95E00E947246409176
:1052200020025091210260912202709123028CEDA4
:1052300095E00E94554660912502062E000C770BE2
:1052400089ED95E00E94724680912502B801681BA5
:10525000710987FD739586ED95E00E947246E3ED36
:10526000F5E084918F010F5F1F4F882309F4DBC99C
:105270000E943A36F801F5CFE4EFF5E084918F0112
:105280000F5F1F4F882309F4CEC90E943A36F801F8
:10529000F5CF88EC90E00E944F398111BBC384E4C4
:1052A0000E9431358823C1F10E94FE3411E020E0D4
:1052B00030E0A9010E94D3FF811101C010E01093DA
:1052C0009F12112349F10E94FE34E091D31544E06E
:1052D000E49FF0011124E556FD4E608371838283C3
:1052E000938320E030E0A90160919B1270919C12A1
:1052F00080919D1290919E120E94D3FF81110CC04B
:1053000080E090E0A0EEBFE380939B1290939C120C
:10531000A0939D12B0939E120E94719C7BC364E97E
:10532000E62E65E1F62E02E912E074E0D72ED00EEB
:10533000D8018D918D010E943135882349F00E945A
:10534000FE340F943305F701608371838283938366
:10535000F4E0EF0EF11CD012EBCF0E9472AA5AC3F8
:10536000F4E0EF0EF11CD01609F454C3D8018D916E
:105370008D010E943135882399F30E94FE34F70194
:105380006083718382839383EBCF83E50E94313501
:105390008823D9F00E94FE34AB01BC014093AC15C8
:1053A0005093AD156093AE157093AF154093A4154F
:1053B0005093A5156093A6157093A71580E696E007
:1053C0000E9455468AE00E943A3680E50E943135B7
:1053D000882399F00E94FE34AB01BC014093AC15C8
:1053E0005093AD156093AE157093AF1583E496E0BE
:1053F0000E9455468AE00E943A3682E50E94313585
:10540000882399F00E94FE34AB01BC014093A8159B
:105410005093A9156093AA157093AB1584E296E09A
:105420000E9455468AE00E943A3684E50E94313552
:10543000882309F4EFC20E94FE34AB01BC01409303
:10544000A4155093A5156093A6157093A71586E033
:1054500096E00E9455468AE00E943A36DBC283E518
:105460000E943135882351F00E94FE3460938015EC
:1054700070938115809382159093831584E50E9423
:105480003135882351F00E94FE3460937C1570936F
:105490007D1580937E1590937F1582E40E943135AF
:1054A000882351F00E94BE346093F1147093F2147B
:1054B0008093F3149093F41488E50E943135882387
:1054C00051F00E94FE346093B0157093B115809333
:1054D000B2159093B31589E50E943135882351F0B8
:1054E0000E94FE346093B4157093B5158093B61581
:1054F0009093B7158AE50E943135882351F00E94B8
:10550000FE346093B8157093B9158093BA159093D3
:10551000BB1585E40E943135882309F47BC20E94C3
:10552000FE346093BC157093BD158093BE159093A7
:10553000BF1570C2E0E6F8E184918F010F5F1F4F45
:10554000882321F00E943A36F801F6CF83E50E94C5
:105550003135882321F00E94EF3480939002E0EBF4
:10556000F6E084918F010F5F1F4F882321F00E9486
:105570003A36F801F6CF80919002811103C0ECEA2F
:10558000F6E002C0E8EAF6E084918F010F5F1F4F5A
:10559000882321F00E943A36F801F6CFE0EAF6E0DF
:1055A00084918F010F5F1F4F882321F00E943A36AC
:1055B000F801F6CF40E050E0BA018EE996E00E9493
:1055C000554640E050E0BA018BE996E00E9455460E
:1055D00040E050E0BA0188E996E00E945546E0E9D3
:1055E000F6E084918F010F5F1F4F882321F00E9406
:1055F0003A36F801F6CF40E050E06CE573E48EE80F
:1056000096E00E94554640E050E06CE573E48BE87C
:1056100096E00E94554640E050E062E873E488E876
:1056200096E00E9455468AE00E943A36F3C183E52F
:105630000E946035882309F4EDC10E94CE34709336
:10564000340260933302E6C18DED90E00E944F3941
:105650008111E0C183E50E946035882309F4DAC135
:105660000091D31510E00E94CE34000F111FF801F5
:10567000EF5CFD4F718360838091D31590E08C01C6
:10568000000F111F000F111F9801235D3D4F79017D
:10569000880F991FFC01EF5CFD4F60817181072E1F
:1056A000000C880B990B0E94D9FF2AE037ED43E2EA
:1056B0005CE30F943800F801E450F14F2081318110
:1056C000428153810F943800D7016D937D938D9360
:1056D0009C9313979FC180E50E943135882309F47C
:1056E00099C10E94CE346B017C0183E50E94603534
:1056F000882321F00E94CE348B0102C00FEF1FEFF0
:10570000C8010196039708F085C1D7FC83C19C2D81
:10571000E0ECF6E08EE28E0F2491921709F47AC144
:1057200031968E13F9CF84C583E50E9460358823B6
:1057300019F00E94CE3402C064E071E079A368A33E
:1057400080E50E946035882339F00E94CE346938A4
:10575000B3E17B0730F402C068EE73E07A836983BB
:1057600004C088E893E19A838983BE01605E7F4F1D
:10577000CE0101960E94E49B4DC10E9493B44AC1A0
:105780000E9495AE47C10E94C5E944C110929A1289
:1057900041C10E94B3833EC10E947C883BC183E526
:1057A0000E943135882321F00E94EF3491E089274F
:1057B0000E9472D02FC180E50E946035882331F0AD
:1057C0000E94DE348093FF0411E001C010E083E505
:1057D0000E946035882329F00E94EF3480930005F1
:1057E00001C011110E94F3ACE0E6F8E184918F0151
:1057F0000F5F1F4F882321F00E943A36F801F6CF41
:105800008091000581110CC00EE113E0F801819137
:105810008F01882311F40C9413230E943A36F6CF9B
:105820006091FF0470E08EEE96E00E9472468AE07E
:105830000E943A36EFC081E0809391021092A61246
:1058400083E50E946035882319F00E94EF3403C07D
:1058500083E50E9431358111DDC00E94C3DBDAC0CF
:1058600086E50E943135882351F00E94FE34609312
:1058700004027093050280930602909307021CAE07
:105880001BAE82E793E099A388A39E01255C3F4F5E
:1058900044E050E064E072E0CE0180960E945858E7
:1058A0008BAD9CAD9A838983E8A0F9A080E793E053
:1058B00099A388A39E01255C3F4F42E050E0BE01C2
:1058C0006F5F7F4FCE0180960E945858E0E6F8E166
:1058D00084918F010F5F1F4F882321F00E943A3679
:1058E000F801F6CFB701605773408AE197E00E9454
:1058F000724649815A8160E070E08EEF96E00E9426
:105900001B46EBEFF6E084918F010F5F1F4F88235A
:1059100021F00E943A36F801F6CFECE2F7E08491EC
:105920008F010F5F1F4F882309F474C00E943A361D
:10593000F801F5CFE0910816FE2EFFE0FE1758F1B2
:105940002CE0E29FF0011124E15CFB4F808191810A
:10595000A281B38180932B0590932C05A0932D05F4
:10596000B0932E0584819581A681B78180932F0500
:1059700090933005A0933105B093320580859185D1
:10598000A285B3858093330590933405A0933505A4
:10599000B09336053FC0E0E6F8E184918F010F5FD8
:1059A0001F4F882321F00E943A36F801F6CF84E594
:1059B0000E943A366F2D70E080E090E04AE00E944D
:1059C000E93880E20E943A360EE213E0D8018D9168
:1059D0008D01882311F40C9413230E943A36F6CFDC
:1059E000E0E6F8E184918F010F5F1F4F882321F0DB
:1059F0000E943A36F801F6CF609192167091931694
:105A000087E397E00E948B4682E20E943A368AE062
:105A10000E943A361092401510923F150E94A4DB66
:105A200030C40E946C352091E1163091E21640910D
:105A3000E3165091E41660913B1570913C158091EE
:105A40003D1590913E150F94E9032AE037ED43E2AE
:105A50005CE30F94100618166CF48091B9169091BF
:105A6000BA16803A910534F40AD760E087E292E0F2
:105A70000E9447BC80919002882321F08FE295E13B
:105A80000E942BBF0E942F368091FB0E83FD82C0A7
:105A9000C0903B15D0903C15E0903D15F0903E1520
:105AA0002091E1163091E2164091E3165091E416F0
:105AB000C701B6010E94D3FF882309F46BC00E947E
:105AC00068C0882301F1C092E116D092E216E092FC
:105AD000E316F092E416E0E6F8E184918F010F5F9F
