:100000000C941F150C9450150C9450150C9450150D
:100010000C9450150C9450150C9450150C945015CC
:100020000C9450150C9450150C9450150C945015BC
:100030000C9450150C9450150C9450150C945015AC
:100040000C9450150C94CB9C0C9450150C9450159A
:100050000C9450150C9450150C9452850C948F915F
:100060000C9450150C94B93C0C9450150C945015EC
:100070000C9450150C9450150C9450150C9450156C
:100080000C9450150C9450150C9450150C9450155C
:100090000C9450150C9450150C9450150C9450154C
:1000A0000C9450150C9450150C9450150C9450153C
:1000B0000C9450150C9450150C9450150C9450152C
:1000C0000C9450150C9450150C9450150C9450151C
:1000D0000C9450150C9450150C9450150C9450150C
:1000E0000C94501521572A5734573D57465761579E
:1000F0006E5777574F5758577C8F7F8F6E8F728F01
:10010000788FB68F838F878F8D8F918F958F9B8FF1
:100110009F8FA38FB68FA98FAD8FB18FAB90B0900B
:10012000B590BF90C9904291D390DB90E390ED9051
:10013000F790019110911A91429124912E9138914A
:10014000084AD73B3BCE016E84BCBFFDC12F3D6C3E
:1001500074319ABD56833DDA3D00C77F11BED9E4A4
:10016000BB4C3E916BAAAABE000000803F05A84C84
:10017000CDB2D44EB93836A9020C50B99186880850
:100180003CA6AAAA2ABE000000803F004E414E496C
:100190004E495459494E46CDCCCC3D0AD7233C1745
:1001A000B7D13877CC2B329595E6241FB14F0A0092
:1001B0000020410000C84200401C4620BCBE4CCA82
:1001C0001B0E5AAEC59D74434F4D4D554E4943418C
:1001D00054494F4E0044525952554E004552524FC9
:1001E000525300494E464F004543484F0020746F1C
:1001F0006F206C6F6E6720657874727573696F6EAF
:100200002070726576656E7465640A0020636F6C99
:100210006420657874727573696F6E20707265768C
:10022000656E7465640A0054454D5020544F4F204C
:100230004C4F57210047322F4733206261642070B2
:100240006172616D65746572730A00536C656570E7
:100250002E2E2E00526573756D696E67207072695F
:100260006E74005072696E74657220726561647993
:100270002E00436C69636B20746F20726573756D1B
:10028000652E2E2E004E6F206D6F76652E00456E0A
:10029000642066696C65206C6973740A0042656746
:1002A000696E2066696C65206C6973740A00256943
:1002B000730025696D20256973002569682025690B
:1002C0006D202569730025696420256968202569EA
:1002D0006D202569730025697920256964202569C9
:1002E000682025696D20256973005072696E74203D
:1002F00074696D653A200050726F7465637465644B
:100300002050696E0A0045256920257300507269E6
:100310006E7465722072656164792E00E801E301F4
:10032000DC01D501C7016F66660044454255473A76
:10033000004B494C4C45442E20004D313133205365
:10034000006F6B0042656420646F6E652E0020575D
:100350003A004265642048656174696E672E002F1B
:100360002F20007A5F6D696E3A2000795F6D696EAB
:100370003A2000785F6D696E3A20005265706F72A6
:1003800074696E6720656E6473746F702073746136
:100390007475730A0053657474696E6720547261D2
:1003A00076656C20416363656C65726174696F6E1C
:1003B0003A200053657474696E67205265747261E7
:1003C000637420416363656C65726174696F6E3A32
:1003D000200053657474696E67205072696E7420D2
:1003E000416363656C65726174696F6E3A20005396
:1003F000657474696E67205072696E7420616E64F2
:100400002054726176656C20416363656C6572612E
:1004100074696F6E3A2000205A002059005800205D
:10042000204D61783A2000205A00205900580020C1
:10043000204D696E3A20004F6E20004F66660053D3
:100440006F667420656E6473746F70733A20000079
:100450000125272318FF1F211D1CFF19171B1EFF35
:10046000FF0C0409FFFFFF2E2C0CFFFF04400AFFC6
:1004700041FFFFFFFFFFFF20643A0020693A0020A0
:10048000703A0020643A0020693A0020703A004334
:10049000290A0061626C656420286D696E207465AC
:1004A0006D702000436F6C642065787472756465AC
:1004B000732061726520004B6420002364656669C7
:1004C0006E65202044454641554C545F004B6920E1
:1004D0000023646566696E65202044454641554C9D
:1004E000545F004B70200023646566696E652020B0
:1004F00044454641554C545F005049442041757471
:100500006F74756E652066696E6973686564212015
:1005100050757420746865206C617374204B702C66
:10052000204B6920616E64204B6420636F6E73748E
:10053000616E74732066726F6D2062656C6F7720D8
:10054000696E746F20436F6E666967757261746956
:100550006F6E2E680A00504944204175746F74759F
:100560006E65206661696C6564212074696D656FD4
:1005700075740A00544845524D414C2052554E4125
:1005800057415900546865726D616C2052756E61F7
:100590007761790048656174696E67206661696C8E
:1005A00065640048656174696E67206661696C65A1
:1005B0006400504944204175746F74756E652066FF
:1005C00061696C6564212054656D70657261747534
:1005D000726520746F6F20686967680A00204B6439
:1005E0003A2000204B693A2000204B703A20000A44
:1005F00020436C617373696320504944200A0020D2
:1006000054753A2000204B753A2000206D61783AED
:100610002000206D696E3A200020643A200020629C
:100620006961733A200043617365206C696768747F
:100630003A2000290A004669786564207061726179
:100640006D657465722062797465733B20637263B3
:100650002000466978656420706172616D6574651B
:100660007220280048565F7365745F6F6B0A004103
:1006700063746976652045787472756465723A2092
:1006800000556E6B6E6F776E20636F6D6D616E647B
:100690003A2022004C696E65204E756D62657220AD
:1006A0006973206E6F74204C617374204C696E65A1
:1006B000204E756D6265722B312C204C6173742055
:1006C0004C696E653A20004B494C4C45442E200045
:1006D00053544F505045442E20005072696E74653B
:1006E000722073746F707065642064756520746F18
:1006F000206572726F72732E204669782074686567
:10070000206572726F7220616E6420757365204D72
:1007100039393920746F20726573746172742E20B8
:100720002854656D706572617475726520697320F7
:1007300072657365742E2053657420697420616638
:100740007465722072657374617274696E67290AC8
:10075000004E6F20436865636B73756D2077697415
:1007600068206C696E65206E756D6265722C204C18
:10077000617374204C696E653A2000636865636B31
:1007800073756D206D69736D617463682C204C61A5
:100790007374204C696E653A20004D313130004D44
:1007A0003331004731204631303030205830205925
:1007B0003231300047323820585900534420726596
:1007C0006164206572726F720A00446F6E652070FA
:1007D00072696E74696E672066696C650A002049EB
:1007E0006E76616C696420657874727564657220D8
:1007F000004D31323500200D466978656420706106
:1008000072616D65746572206E62797465733B20E8
:10081000637263206572726F722000200D0A466950
:1008200078656420706172616D65746572206279AB
:100830007465733B20637263206572726F7220006F
:10084000290A002062797465733B2063726320007B
:10085000466978656420706172616D6574657220A7
:100860002800206861726477617265207665727312
:10087000696F6E3A004B494C4C45442E2000202DA8
:1008800020496E76616C6964206578747275646560
:1008900072206E756D62657220210A002D2D2D2D3E
:1008A0002D2D007C4D61726C696E7C002D2D2D2DDF
:1008B0002D2D00687474703A2F2F6D61726C696E03
:1008C00066772E6F726700687474703A2F2F6D61AF
:1008D000726C696E66772E6F72670020312E312E32
:1008E00038002020506C616E6E65724275666665D8
:1008F0007242797465733A20002046726565204D16
:10090000656D6F72793A2000436F6D70696C656434
:100910003A204E6F7620323520323031390A0020AD
:100920007C20417574686F723A20286E6F6E652C5A
:100930002064656661756C7420636F6E66696729F3
:100940000A00323031372D31322D32352031323AF2
:10095000303000204C61737420557064617465649C
:100960003A2000312E312E380A004D61726C696ECA
:100970000020536F667477617265205265736574E9
:100980000A00205761746368646F6720526573655D
:10099000740A002042726F776E206F757420526562
:1009A0007365740A002045787465726E616C20521C
:1009B000657365740A00506F77657255700A00732D
:1009C000746172740A006572726F72207772697452
:1009D000696E6720746F2066696C650A00456E64F5
:1009E00073746F7073202563202563202563202591
:1009F0006300205A3A0020593A0020583A00656EA8
:100A00006473746F7073206869743A2000473238D9
:100A100020580066696C616D656E74206F75740A8C
:100A2000004D33322053256C7520212573004D3342
:100A3000322053256C7520212F25732F25730047F5
:100A400030204631303030205A25752E257500472C
:100A500032382059004732382058004D3130362086
:100A60002053323535004D31303920543020532554
:100A700075004D3139302053257500446F6E652067
:100A8000736176696E672066696C652E0A004D3267
:100A900039007C3C3E5E2B3D3F2F5B5D3B2C2A2288
:100AA0005C004572726F722077726974696E67209C
:100AB000746F20454550524F4D210A00544845520D
:100AC0004D414C2052554E41574159005468657272
:100AD0006D616C2052756E617761790043616E6E55
:100AE0006F74206F70656E20737562646972200088
:100AF000656E7175657565696E672022006563684E
:100B00006F3A004578747275646572733A203100EB
:100B1000687474703A2F2F6D61726C696E66772EEF
:100B20006F7267005072696E7465720032303137CF
:100B30002D31322D32352031323A303000312E31E4
:100B40002E38004D61726C696E00546865726D6973
:100B500073746F727300426F61726420496E666FC6
:100B6000005072696E74657220496E666F004D6147
:100B7000696E0020204E6F7A7A6C653A20004261DF
:100B8000636B004D696E696D756D2054656D7020E5
:100B90006973203137302E0048656174696E6720B3
:100BA0006661696C65640045787472756465206D72
:100BB0006F726500526573756D65207072696E7431
:100BC00000524553554D45204F5054494F4E533ACE
:100BD0000020204E6F7A7A6C653A20006368616E5F
:100BE0006765006F66207468652066696C616D6575
:100BF0006E74005761697420666F7220737461723D
:100C000074005052494E54205041555345440020E1
:100C1000204E6F7A7A6C653A200066696C616D656A
:100C20006E7420756E6C6F61640057616974206624
:100C30006F72005052494E54205041555345440064
:100C400020204E6F7A7A6C653A2000506C65617393
:100C50006520776169742E2E2E0048656174696E77
:100C600067206E6F7A7A6C65005052494E5420505E
:100C700041555345440020204E6F7A7A6C653A20E6
:100C80000068656174206E6F7A7A6C652E00507210
:100C900065737320627574746F6E20746F005052A8
:100CA000494E54205041555345440020204E6F7A00
:100CB0007A6C653A2000746F20636F6E74696E758C
:100CC000652E2E2E00616E64207072657373206233
:100CD0007574746F6E00496E736572742066696C0A
:100CE000616D656E74005052494E54205041555309
:100CF00045440020204E6F7A7A6C653A2000666980
:100D00006C616D656E74206C6F616400576169740D
:100D100020666F72005052494E5420504155534541
:100D2000440020204E6F7A7A6C653A200066696C28
:100D3000616D656E742065787472756465005761C5
:100D4000697420666F72005052494E5420504155CC
:100D500053454400746F20726573756D650057616B
:100D6000697420666F72207072696E740050524907
:100D70004E542050415553454400290A00206279C1
:100D80007465733B20637263200053657474696EED
:100D900067732053746F726564202800446F776E08
:100DA0000A00290A57726974652066696C65206EAD
:100DB000616D6520416D69743A2000206279746527
:100DC000733B206372632000506F7765726F6666B5
:100DD0002053746F726564202800446F776E002082
:100DE000213D2000637263206572726F723A2000A9
:100DF0000A726561642066696C65206E616D653A92
:100E00002000290A726561642066696C6520646946
:100E1000723A20002062797465733B20637263200C
:100E200000706F7765726F66662073746F726564A9
:100E30002073657474696E67732072657472696576
:100E4000766564202800202863616C63756C61748A
:100E5000656429210A0020213D2000454550524F5C
:100E60004D20435243206D69736D61746368202D7A
:100E7000202873746F726564292000290A0020629B
:100E8000797465733B2063726320002073746F7202
:100E900065642073657474696E677320726574721B
:100EA0006965766564202800204D61726C696E3D2D
:100EB000563131290A0028454550524F4D3D0045D5
:100EC0004550524F4D2076657273696F6E206D6983
:100ED000736D6174636820004D36303020423000FD
:100EE0004368616E67652066696C616D656E74004C
:100EF0004261627973746570205A00466C6F7700A6
:100F0000466C6F770046616E2073706565640046BD
:100F1000616E2073706565640042656400426564BB
:100F2000004E6F7A7A6C65004E6F7A7A6C6500536A
:100F300070656564005370656564004D61696E009D
:100F40005072656865617420504C4120456E6400A4
:100F50005072656865617420504C412042656400A0
:100F60005072656865617420504C41005072657024
:100F7000617265005072656865617420414253205A
:100F8000456E64005072656865617420414253206B
:100F90004265640050726568656174204142530087
:100FA00050726570617265004261636B004E6578D6
:100FB0007420636F726E657200507265686561744B
:100FC00020504C4100436F6F6C646F776E0050721D
:100FD000656865617420414253004368616E6765CE
:100FE0002066696C616D656E740044697361626C42
:100FF00065207374657070657273004D3834004CF1
:101000006576656C20636F726E65727300417574EE
:101010006F20686F6D6500473238004D6F76652030
:1010200061786973004D61696E00496E6974696128
:101030006C697A6520454550524F4D00436F6E7480
:10104000726F6C00526573746F7265206661696CB3
:1010500073616665004C6F61642073657474696EBA
:10106000677300496E697469616C697A65204545EA
:1010700050524F4D0053746F7265207365747469DC
:101080006E67730046696C616D656E74004D6F74B8
:10109000696F6E0054656D7065726174757265007C
:1010A0004D61696E004D333033205531204525693F
:1010B0002053256900507265686561742041425370
:1010C00020636F6E66005072656865617420504CD5
:1010D0004120636F6E6600504944204175746F74FF
:1010E000756E6500504944204175746F74756E6566
:1010F000005049442D44005049442D440050494477
:101100002D49005049442D49005049442D5000506C
:1011100049442D50002002204661637400200220C3
:1011200046616374002002204D6178002002204D4A
:101130006178002002204D6178002002204D696E08
:10114000002002204D696E002002204D696E004F84
:101150006666004F6E20004175746F74656D700097
:1011600046616E2073706565640046616E20737021
:101170006565640042656400426564004E6F7A7A7A
:101180006C65004E6F7A7A6C6500436F6E74726F97
:101190006C0053746F72652073657474696E677345
:1011A0000042656400426564004E6F7A7A6C6500A7
:1011B0004E6F7A7A6C650046616E20737065656467
:1011C0000046616E2073706565640054656D7065DE
:1011D000726174757265004573746570732F6D6DFF
:1011E000004573746570732F6D6D005A737465706C
:1011F000732F6D6D005A73746570732F6D6D005988
:1012000073746570732F6D6D005973746570732FEF
:101210006D6D005873746570732F6D6D0058737425
:101220006570732F6D6D004D6F74696F6E00537430
:101230006570732F6D6D004A65726B004163636565
:101240006C65726174696F6E0056656C6F6369746A
:101250007900436F6E74726F6C004F6E2000527590
:101260006E6F75742073656E736F72730046696C70
:101270002E204469612E0046696C2E204469612E3F
:10128000004F6666004F6E20004520696E206D6D30
:1012900033004F666600436F6E74726F6C0043617B
:1012A0006E6E6F7420656E7465722073756264690A
:1012B000723A2000052E2E004D61696E004D617856
:1012C0002054656D703A20313235004D696E2054DE
:1012D000656D703A203500544265643A4550434F7D
:1012E00053203130304B004D61782054656D703A99
:1012F00020323635004D696E2054656D703A2035C8
:101300000054303A204550434F53203130304B0089
:101310005053553A2047656E657269630050726F8D
:10132000746F636F6C3A20312E30002020202048EB
:1013300057205665723A2056004657205665723A35
:101340002056322E3000426175643A2032353030FA
:101350003030004754323536302056342E300000BD
:101360001C1F11111F00000006191803130C0004A4
:101370000E1F041C000000001010101010100000C0
:101380001414141414140000151515151515000067
:101390000E1315110E00001C101817050605000489
:1013A0000A0A0A0A11110E0C12120C0000000000A9
:1013B0001F1511151F0000000000000102040400A9
:1013C00000001C1C0C0404040201000000000004C6
:1013D000081000000000004D313034205325750006
:1013E0004739322045257500473932205A25752E58
:1013F0002575004D3530300043616E63656C20709B
:1014000072696E7400526573756D65207072696ED5
:101410007400506F776572206F7574616765002581
:10142000753A2530327500253032753A25303275DF
:10143000002D2D2D005344005A00590058006265BC
:10144000640A002C2073797374656D2073746F7057
:1014500070656421204865617465725F49443A2073
:101460000048656174696E67206661696C65640037
:1014700048656174696E67206661696C65640048DF
:10148000656174696E67206661696C6564004865B2
:101490006174696E67206661696C65640070012C17
:1014A0000190012701B0012201C0011D01F00118C6
:1014B000011002130130020E0160020901900204C2
:1014C00001C002FF000003FA004003F5008003F0B2
:1014D00000D003EB002004E6007004E100E004DC2F
:1014E000004005D700C005D2004006CD00D006C898
:1014F000008007C3003008BE00F008B900C009B47E
:1015000000B00AAF00B00BAA00D00CA500000EA0DE
:1015100000500F9B00C01096005012910000148CD8
:1015200000C0158700B0178200B0197D00D01B786D
:1015300000001E730040206E0090226900F02464B9
:101540000040275F0090295A00E02B5500102E50D4
:101550000020304B0010324600E033410090353C13
:10156000001037370070383200A0392D00B03A280B
:1015700000A03B2300603C1E00103D1900903D146C
:1015800000103E0F00703E0A00C03E0500003F0004
:1015900000403FFBFF803FF6FFC03FF1FF45727206
:1015A0003A204D494E54454D502042454400457225
:1015B000723A204D494E54454D50004D494E5445C8
:1015C0004D50207472696767657265640045727278
:1015D0003A204D415854454D5020424544004572F3
:1015E000723A204D415854454D50004D4158544594
:1015F0004D502074726967676572656400202F0022
:101600002042403A0020403A005344206361726413
:10161000206F6B0A006F70656E526F6F7420666189
:10162000696C65640A00766F6C756D652E696E690C
:1016300074206661696C65640A00534420696E69B0
:1016400074206661696C0A006175746F25692E6784
:10165000004D3234004D32332025730057726974C7
:10166000696E6720746F2066696C653A20006F7040
:10167000656E206661696C65642C2046696C653A0C
:1016800020006F70656E206661696C65642C204671
:10169000696C653A200046696C652073656C65630A
:1016A0007465640A002053697A653A200046696CC3
:1016B00065206F70656E65643A20006F70656E20FE
:1016C0006661696C65642C2046696C653A2000206F
:1016D00066696C653A2000646F696E6700667265C2
:1016E0007368004E6F772000454E44205355425298
:1016F0004F5554494E450A002220706F7300222036
:10170000706172656E743A2200535542524F5554BF
:10171000494E452043414C4C207461726765743AD0
:1017200022004B494C4C45442E2000747279696E5E
:101730006720746F2063616C6C207375622D676322
:101740006F64652066696C657320776974682074BE
:101750006F6F206D616E79206C6576656C732E20DD
:101760004D4158206C6576656C2069733A0045726E
:10177000726F723A0000002100240027002A002D19
:10178000003000330001010000040107010A0100DC
:10179000002200250028002B002E0031003400021A
:1017A000010000050108010B0100002000230026B4
:1017B0000029002C002F0032000001000003010668
:1017C00001090105050505070508080808020202C8
:1017D000020A0A08080404040401010101010101CC
:1017E000010303030303030303040707070C0C0CA3
:1017F0000C0C0C0C0C02020202060606060606067B
:10180000060B0B0B0B0B0B0B0B0102102020080817
:101810001020401020408002010201080402010152
:10182000020408102040808040201008040201803B
:101830000402018040201008040201080402010192
:10184000020408102040800102040810204080009B
:10185000000A0B02090C0D0E08070304010000002A
:101860000000000000000000000000000000000078
:101870000000000000000000000000121110000035
:101880000000000000000000000000000000000058
:10189000000000000046696C652064656C65746535
:1018A000643A0044656C6574696F6E206661696CAA
:1018B00065642C2046696C653A20006F70656E2067
:1018C0006661696C65642C2046696C653A20004845
:1018D000656174696E6720646F6E652E0020573AEB
:1018E00000452569202573005072696E7465722069
:1018F00072656164792E004D31343520533C696E38
:101900006465783E206F7574206F662072616E6723
:10191000652028302D31290A005072696E74657275
:10192000204F66662E00205A3A0020593A00204384
:101930006F756E7420583A0020453A00205A3A00DC
:1019400020593A00583A003A004361703A00454D38
:10195000455247454E43595F50415253455200430B
:101960004153455F4C494748545F425249474854A8
:101970004E45535300544F47474C455F4C494748E9
:10198000545300534F4654574152455F504F5745AB
:1019900052004255494C445F50455243454E540015
:1019A0004C4556454C494E475F44415441005A5FAF
:1019B00050524F4245004155544F4C4556454C00FE
:1019C0005052494E545F4A4F420050524F47524581
:1019D0005353004155544F5245504F52545F544554
:1019E0004D5000564F4C554D4554524943004545C6
:1019F00050524F4D0053455249414C5F584F4E5F36
:101A0000584F4646004649524D574152455F4E4158
:101A10004D453A4D61726C696E20312E312E382061
:101A2000284769746875622920534F555243455FB2
:101A3000434F44455F55524C3A68747470733A2F63
:101A40002F6769746875622E636F6D2F4D61726CBC
:101A5000696E4669726D776172652F4D61726C694E
:101A60006E2050524F544F434F4C5F56455253498E
:101A70004F4E3A312E30204D414348494E455F5438
:101A80005950453A5072696E7465722045585452E7
:101A9000554445525F434F554E543A3120555549B0
:101AA000443A63656465326132662D343161322DAA
:101AB000343734382D396231322D6335356336325F
:101AC0006633363766660A0024F4D43050C38E205D
:101AD000C2A24017828B7011127A910D816CD90AC3
:101AE000A861E108C7586607615143061E4B5D05B2
:101AF000C145A7041A411104093D98037139310306
:101B00004036DB0265339102D4305402802E1D0230
:101B1000632CEE01752AC501B028A00110278101B0
:101B20008F2564012B244B01E0223401AC211F01DD
:101B30008D200D01801FFC00841EED00971DDF002D
:101B4000B81CD200E61BC600201BBC00641AB20001
:101B5000B219A8000A19A0006A189900D1179100BB
:101B600040178B00B516840031167E00B31579003E
:101B70003A157300C7146F0058146A00EE1366001C
:101B80008813630025135E00C7125B006C125700B8
:101B900015125400C111510070114F0021114B005A
:101BA000D61049008D104700461044000210420034
:101BB000C00F4000800F3E00420F3C00060F3B006C
:101BC000CB0E3800930E37005C0E3500270E340024
:101BD000F30D3200C10D3100900D3000600D2E006C
:101BE000320D2D00050D2C00D90C2B00AE0C290058
:101BF000850C29005C0C2700350C27000E0C2600F4
:101C0000E80B2400C40B2400A00B23007D0B230051
:101C10005A0B2100390B2100180B2000F80A1F0075
:101C2000D90A1E00BB0A1E009D0A1D00800A1D0065
:101C3000630A1C00470A1B002C0A1B00110A1A0029
:101C4000F7091A00DD091900C4091900AB091900C8
:101C5000920917007B091800630917004C09160048
:101C600036091600200916000A091500F5081500A6
:101C7000E0081400CC081400B8081400A4081400EC
:101C8000900813007D0812006B081300580812001A
:101C90004608120034081100230811001208110030
:101CA00001081100F0071000E0071000D007100035
:101CB000C0071000B0070F00A107100091070E0029
:101CC00083070F0074070F0065070E0057070E000B
:101CD00049070E003B070D002E070E0020070D00E0
:101CE00013070D0006070D00F9060C00ED060D00A8
:101CF000E0060C00D4060C00C8060C00BC060C0064
:101D0000B0060C00A4060B0099060C008D060B0013
:101D100082060B0077060B006C060B0061060A00BA
:101D200057060B004C060A0042060A0038060A0055
:101D30002E060A0024060A001A060A0010060900E8
:101D400007060A00FD050900F4050900EB05090076
:101D5000E2050900D9050900D0050900C7050900F9
:101D6000BE050900B5050800AD050800A505090078
:101D70009C050800940508008C05080084050800EF
:101D80007C050800740508006C050700650508005F
:101D90005D050700560508004E05070047050700CA
:101DA0004005080038050700310507002A0507002F
:101DB000230507001C050600160507000F05070090
:101DC0000805060002050700FB040600F5040700ED
:101DD000EE040600E8040600E2040700DB04060047
:101DE000D5040600CF040600C9040600C30406009B
:101DF000BD040600B7040600B1040500AC040600EB
:101E0000A6040600A00405009B0406009504050036
:101E1000900406008A04050085040500800406007D
:101E20007A04050075040500700405006B040500C4
:101E300066040500610405005C0405005704050004
:101E4000520405004D040500480405004304050044
:101E50003E0404003A040500350405003004040083
:101E60002C04050027040400230405001E040400BC
:101E70001A04040016040500110404000D040400F3
:101E8000090405000404040000040400FC03040029
:101E9000F8030400F4030400F0030400EC0304005E
:101EA000E8030400E4030400E0030400DC0304008E
:101EB000D8030400D4030400D0030400CC030400BE
:101EC000C8030300C503030024F404D9201BC40C79
:101ED0005C0E9804C4095F0265077101F405F900FE
:101EE000FB04B30048048700C10369005803550090
:101EF00003034500BE023A008402310053022A0067
:101F00002902250004022000E4011C00C801190078
:101F1000AF01170098011400840113007101100033
:101F20006101100051010E0043010D0036010B004C
:101F30002B010B0020010B00150109000C01090009
:101F400003010800FB000800F3000800EB00070095
:101F5000E4000600DE000600D8000600D2000600FD
:101F6000CC000500C7000500C2000500BD0004004C
:101F7000B9000400B5000400B1000400AD00040085
:101F8000A9000400A5000300A20003009F000400B4
:101F90009B000300980003009500020093000300DB
:101FA000900003008D0002008B00030088000200F7
:101FB0008600020084000300810002007F0002000E
:101FC0007D0002007B000200790002007700010022
:101FD000760002007400020072000100710002002D
:101FE0006F0002006D0001006C0002006A00010039
:101FF0006900020067000100660001006500010041
:102000006400020062000100610001006000010044
:102010005F0002005D0001005C0001005B00010048
:102020005A0001005900010058000100570001004A
:10203000560001005500010054000100530000004B
:102040005300010052000100510001005000010046
:102050004F0001004E0000004E0001004D00010045
:102060004C0001004B0000004B0001004A00010041
:10207000490001004800000048000100470001003D
:102080004600000046000100450000004500010038
:102090004400010043000000430001004200000032
:1020A0004200010041000000410001004000010029
:1020B0003F0000003F0001003E0000003E00010024
:1020C0003D0000003D0001003C0000003C0000001D
:1020D0003C0001003B0000003B0001003A00000012
:1020E0003A0001003900000039000100380000000A
:1020F0003800000038000100370000003700010000
:1021000036000000360000003600010035000000F7
:1021100035000000350001003400000034000000EC
:1021200034000100330000003300000033000100E0
:1021300032000000320000003200010031000000D7
:1021400031000000310001003000000030000000CC
:10215000300001002F0000002F0000002F000000C1
:102160002F0001002E0000002E0000002E000100B4
:102170002D0000002D0000002D0000002D000100AA
:102180002C0000002C0000002C0000002C0001009E
:102190002B0000002B0000002B0000002B00010092
:1021A0002A0000002A0000002A0000002A00010086
:1021B000290000002900000029000000290000007B
:1021C000290001002800000028000000280000006D
:1021D0002800000028000100270000002700000060
:1021E0002700000027000000270001002600000053
:1021F0002600000026000000260000002600010046
:10220000250000002500000025000000250000003A
:10221000250000002500010024000000240000002B
:10222000240000002400000024000100230000001E
:102230002300000023000000230000002300000012
:102240002300000023000100220000002200000003
:1022500022000000220000002200000022000100F5
:1022600021000000210000002100000021000000EA
:1022700021000000210000002100010020000000DA
:1022800020000000200000002000000020000000CE
:102290002000000020000000200001001F000000BE
:1022A0001F0000001F0000001F0000001F000000B2
:1022B0001F0000001F0001001E0000001E000000A3
:1022C0001E0000001E0000004D3834205820592008
:1022D0005A2045005A25752C45256C752C50256CC7
:1022E000752C5425752C4225752C005072696E741E
:1022F00065722072656164792E005072696E746532
:10230000722072656164792E004572723A4E6F20B8
:1023100046696C616D656E740020746F6F206C6F20
:102320006E6720657874727573696F6E2070726560
:1023300076656E7465640A0020636F6C642065784E
:1023400074727573696F6E2070726576656E7465F0
:10235000640A0020440020490020204D33303420FE
:10236000500020440020490020204D3330312050BF
:10237000005049442073657474696E67733A0A00AB
:1023800020460020420020480020204D31343520D6
:1023900053004D6174657269616C20686561747584
:1023A0007020706172616D65746572733A0A002005
:1023B0004500205A00205900205800204200205497
:1023C0000020204D323035205300416476616E6329
:1023D00065643A20533C6D696E5F66656564726141
:1023E00074653E20543C6D696E5F74726176656CF5
:1023F0005F66656564726174653E20423C6D696E1E
:102400005F7365676D656E745F74696D655F757325
:102410003E20583C6D61785F78795F6A65726B3EEB
:10242000205A3C6D61785F7A5F6A65726B3E204529
:102430003C6D61785F655F6A65726B3E0A0020548F
:102440000020520020204D32303420500041636380
:10245000656C65726174696F6E2028756E6974733E
:102460002F7332293A20503C7072696E745F616339
:1024700063656C3E20523C726574726163745F6187
:102480006363656C3E20543C74726176656C5F6179
:102490006363656C3E0A00204500205A0020590005
:1024A00020204D3230312058004D6178696D756DB6
:1024B00020416363656C65726174696F6E20287575
:1024C0006E6974732F7332293A0A00204500205A2E
:1024D0000020590020204D3230332058004D6178C3
:1024E000696D756D20666565647261746573202819
:1024F000756E6974732F73293A0A00204500205ABB
:102500000020590020204D39322058005374657046
:10251000732070657220756E69743A0A0020204D30
:102520003230302044300A0020204D3230302044F8
:10253000002044697361626C65640A0046696C61DD
:102540006D656E742073657474696E67733A0020EC
:10255000204D3134392043203B20556E697473205F
:10256000696E2043656C736975730A0020204732D9
:1025700031202020203B20556E69747320696E2025
:102580006D6D0A00000070C1000000C10000000075
:102590000000C8420000C8420000A0410000000046
:1025A0005761726E696E673A20486F6D696E672079
:1025B00042756D702044697669736F72203C2031DA
:1025C0000A000202040000A0400000A04000000039
:1025D0004000006B430000644300008243FFFFFFA4
:1025E0004D36303020486F74656E6420746F6F20F4
:1025F000636F6C6420746F206368616E676520662A
:10260000696C616D656E740A004361726420726565
:102610006D6F766564004361726420696E736572E4
:10262000746564005654726176206D696E0056546C
:10263000726176206D696E005654726176206D6904
:102640006E00566D696E00566D696E00566D696E4E
:1026500000566D6178204500566D61782045005622
:102660006D6178204500566D6178205A00566D6185
:1026700078205A00566D6178205A00566D61782096
:102680005900566D6178205900566D6178205900C7
:10269000566D6178205800566D6178205800566D4F
:1026A00061782058004D6F74696F6E00416D6178DC
:1026B000204500416D6178204500416D6178205AC8
:1026C00000416D6178205A00416D617820590041C8
:1026D0006D6178205900416D6178205800416D612D
:1026E00078205800412D74726176656C00412D741C
:1026F000726176656C00412D72657472616374005D
:10270000412D7265747261637400416363656C008E
:10271000416363656C004D6F74696F6E0056652D83
:102720006A65726B0056652D6A65726B0056652D81
:102730006A65726B00567A2D6A65726B00567A2D47
:102740006A65726B0056792D6A65726B0056792D39
:102750006A65726B0056792D6A65726B0056782D2A
:102760006A65726B0056782D6A65726B0056782D1B
:102770006A65726B004D6F74696F6E0052657365A8
:102780006E643A20006F6B00627573793A20706155
:102790007573656420666F7220696E7075740A00C7
:1027A000627573793A2070617573656420666F7223
:1027B00020757365720A00627573793A2070726FC2
:1027C00063657373696E670A004B494C4C45442E30
:1027D00020004B494C4C206361757365642062791D
:1027E00020746F6F206D75636820696E6163746912
:1027F00076652074696D65202D2063757272656E33
:102800007420636F6D6D616E643A2000506C656179
:102810007365207265736574005052494E54455279
:102820002048414C544544005072696E74657220D2
:1028300068616C7465642E206B696C6C2829206358
:10284000616C6C6564210A005344207072696E7477
:10285000696E67206279746520004E6F742053445E
:10286000207072696E74696E670A00486F6D65202A
:102870002573257325732066697273740020666959
:102880007273740A005A0059005800486F6D652031
:10289000004D6F76652058004D6F76652059004DCC
:1028A0006F7665205A004578747275646572004DC4
:1028B0006F766520302E316D6D004D6F766520315D
:1028C0006D6D004D6F76652031306D6D004D6F760A
:1028D00065206178697300486F74656E6420746F59
:1028E0006F20636F6C640045787472756465720064
:1028F0004D6F7665205A004D6F76652059004D6FFB
:1029000076652058004578747275646572004D6F65
:102910007665205A004D6F76652059004D6F7665BB
:1029200020580050726570617265005072696E7453
:1029300020706175736564004D3132350000257378
:10294000004D3234005072696E742061626F72748F
:102950006564004732382058590047393000473104
:10296000204631303030205A323000473931004E65
:102970006F2053442063617264005072696E74204A
:1029800066726F6D2053440053746F7020707269CB
:102990006E7400526573756D65207072696E740097
:1029A00041626F7574205072696E74657200506177
:1029B000757365207072696E7400436F6E74726F08
:1029C0006C00507265706172650054756E650049E7
:1029D0006E666F2073637265656E00426162797323
:1029E000746570205A0048617264636F6465642086
:1029F00044656661756C742053657474696E6773A1
:102A0000204C6F616465640A00B80B0000B80B00CD
:102A10000032000000B80B00000000964300009652
:102A2000430000A0410000C8419A99A0429A99A091
:102A3000420000C8430000BA420094E4B3E7112406
:102A40001FBECFEFD1E2DEBFCDBF00E00CBF13E071
:102A5000A0E0B2E0EAE2FEEE01E00BBF02C00790A8
:102A60000D92A83AB107D9F725E1A8EAB3E001C071
:102A70001D92AE39B207E1F715E1CEE1D5E100E0F4
:102A800006C021970109802FFE010E946DF6CD310D
:102A9000D10780E00807A9F70E9446DE0C9404F7EE
:102AA0000C9400002F923F924F925F926F927F9210
:102AB0008F929F92AF92BF92CF92DF92EF92FF924E
:102AC0000F931F93CF93DF93CDB7DEB7CE58D109C5
:102AD0000FB6F894DEBF0FBECDBF81E090E09093BB
:102AE000E9138093E813809186148D3409F422C68B
:102AF000843511F40C94432D873411F00C94852DFA
:102B000080918414909185148430910509F451C505
:102B100054F497FF02C00C949F2D209161028230E3
:102B200091057CF529C08A35910509F4B5C56CF489
:102B30008B31910509F484C54C9711F00C949F2DAD
:102B400080E00E9428370C949F2D8B35910509F465
:102B5000A7C58C35910511F00C949F2D0E94829C85
:102B600019E7212E12E0312E01E5E02E05E1F02ECD
:102B700000E0D12C10E0BEC521110C94A62D0C94C0
:102B80009F2D222311F40C949F2D11E0029709F040
:102B900010E00E94563682E50E944A36882309F4E6
:102BA0003EC10E94E8356B017C0140905115509068
:102BB0005215609053157090541580915515909151
:102BC0005615A0915715B091581588AB99ABAAAB83
:102BD000BBAB2091D8133091D9134091DA135091A7
:102BE000DB132CAB3DAB4EAB5FAB8091DC13909114
:102BF000DD13A091DE13B091DF1324968CAF9DAF4F
:102C0000AEAFBFAF249720E030E0A901C701B60105
:102C10000E944FEF882309F4B2C4A30192016CA96A
:102C20007DA98EA99FA90E944FEF81110FC028A9ED
:102C300039A94AA95BA924966CAD7DAD8EAD9FAD37
:102C400024970E944FEF882309F499C420E030E0D4
:102C5000A901C701B6010E944FEF881F8827881F6E
:102C600018130BC020E030E040E85FE32C962CAF57
:102C70003DAF4EAF5FAF2C970AC080E090E0A0E878
:102C8000BFEB2C968CAF9DAFAEAFBFAF2C97A3011F
:102C900092016CA97DA98EA99FA90E9465F36CAFD2
:102CA0007DAF8EAF9FAF28A939A94AA95BA9249609
:102CB0006CAD7DAD8EAD9FAD24970E9465F32896D7
:102CC0006CAF7DAF8EAF9FAF28972CAD3DAD4EADB5
:102CD0005FADCA01B9010E94B4EF4B015C012896B7
:102CE0002CAD3DAD4EAD5FAD2897CA01B9010E9434
:102CF000B4EF9B01AC01C501B4010E9466F30E94D0
:102D0000D1F568AF79AF8AAF9BAF20E030E040E00B
:102D10005FE30E94B4EF4B015C01A7019601C7017C
:102D2000B6010E94B4EF6B017C01A5019401C501BD
:102D3000B4010E94B4EF9B01AC01C701B6010E942F
:102D400065F30E94D1F59B01AC012C966CAD7DAD75
:102D50008EAD9FAD2C970E94B4EF4B015C012CA966
:102D60003DA94EA95FA9C301B2010E9466F320E00C
:102D700030E040E05FE30E94B4EF6B017C012896F5
:102D80006CAD7DAD8EAD9FAD2897905828AD39AD17
:102D90004AAD5BAD0E9442F49B01AC01C501B40198
:102DA0000E94B4EF9B01AC01C701B6010E9466F31B
:102DB000A30192010E9465F36B017C0124962CAD66
:102DC0003DAD4EAD5FAD249768A979A98AA99BA9AD
:102DD0000E9466F320E030E040E05FE30E94B4EF41
:102DE0002B013C0128AD39AD4AAD5BAD6CAD7DAD7D
:102DF0008EAD9FAD0E9442F49B01AC01C501B401B0
:102E00000E94B4EF9B01AC01C301B2010E9466F3C2
:102E100028A939A94AA95BA90E9465F314C089E4CD
:102E20000E944A36882329F00E94E8356B017C0114
:102E300003C0C12CD12C76018AE40E944A36882333
:102E4000F9F00E94E83524966CAF7DAF8EAF9FAF4E
:102E5000249720E030E0A901C701B6010E944FEF9E
:102E600081111EC020E030E0A90124966CAD7DAD3B
:102E70008EAD9FAD24970E944FEF811111C07FC38B
:102E800020E030E0A901C701B6010E944FEF88237E
:102E900009F475C324961CAE1DAE1EAE1FAE24975A
:102EA000A7019601505828AB39AB4AAB5BAB2496CF
:102EB0008CAD9DADAEADBFAD2497B0588CAB9DAB86
:102EC000AEABBFABCA01B9010E94B4EF4B015C01CC
:102ED0002CA93DA94EA95FA9CA01B9010E94B4EF6E
:102EE0009B01AC01C501B4010E9466F30E94D1F5BB
:102EF0006C966CAF7DAF8EAF9FAF6C9720915115E4
:102F000030915215409153155091541528AF39AF57
:102F10004AAF5BAFA701960168AD79AD8AAD9BADB5
:102F20000E9466F32C966CAF7DAF8EAF9FAF2C974F
:102F30008091551590915615A0915715B09158153F
:102F400028968CAF9DAFAEAFBFAF289724962CAD1F
:102F50003DAD4EAD5FAD2497BC01CD010E9466F33F
:102F600060966CAF7DAF8EAF9FAF60972091D81306
:102F70003091D9134091DA135091DB1364962CAF42
:102F80003DAF4EAF5FAF64972C962CAD3DAD4EADCF
:102F90005FAD2C9764966CAD7DAD8EAD9FAD6497A3
:102FA0000E9465F36B017C018091DC139091DD132D
:102FB000A091DE13B091DF1368968CAF9DAFAEAFDA
:102FC000BFAF689760962CAD3DAD4EAD5FAD6097DD
:102FD000BC01CD010E9465F34B015C0120915915A4
:102FE00030915A1540915B1550915C15A4962CAF09
:102FF0003DAF4EAF5FAFA4976091E0137091E113C6
:103000008091E2139091E3130E9465F36CAF7DAF62
:103010008EAF9FAF8091E4139091E513A091E613DA
:10302000B091E713A0968CAF9DAFAEAFBFAFA097A6
:1030300020915D1530915E1540915F15509160159E
:10304000A8962CAF3DAF4EAF5FAFA897A7019601F2
:1030500068A979A98AA99BA90E94B4EF2B013C0118
:10306000A50194016CA97DA98EA99FA90E94B4EF26
:103070009B01AC01C301B2010E9466F32B013C012C
:10308000A501940168A979A98AA99BA90E94B4EF16
:103090004B015C01A70196016CA97DA98EA99FA98E
:1030A0000E94B4EF9B01AC01C501B4010E9465F31D
:1030B000A30192010E94D9F36B017C0120E030E072
:1030C000A9010E944FEF87FF0AC02BED3FE049ECBA
:1030D00050E4C701B6010E9466F36B017C01112325
:1030E00051F02BED3FE049EC50E4C701B6010E94DE
:1030F00065F36B017C0120E030E0A901C701B60156
:103100000E944FEF811126C064962CAD3DAD4EADAF
:103110005FAD649768AD79AD8AAD9BAD0E944FEF0E
:10312000811118C068962CAD3DAD4EAD5FAD68976E
:1031300028966CAD7DAD8EAD9FAD28970E944FEF68
:10314000811108C09BEDC92E9FE0D92E99ECE92E84
:1031500090E4F92E6C962CAD3DAD4EAD5FAD6C9705
:10316000C701B6010E94B4EF9B01AC010E94B4EF0D
:103170004B015C012CAD3DAD4EAD5FADCA01B90157
:103180000E94B4EF9B01AC01C501B4010E9466F33B
:103190000E94D1F54B015C012FE632E143E85AE38E
:1031A0000E944FEF87FDE7C1C501B4010E94DBF427
:1031B0000E94AFF41B01672B19F422242394312CB5
:1031C000B10180E090E00E9453EF4B015C019B0154
:1031D000AC01C701B6010E9442F468AF79AF8AAF73
:1031E0009BAFA50194016CAD7DAD8EAD9FAD0E94EE
:1031F00042F46C966CAF7DAF8EAF9FAF6C97A89684
:103200002CAD3DAD4EAD5FADA897A0966CAD7DAD3C
:103210008EAD9FADA0970E9465F3A50194010E9419
:1032200042F4A0966CAF7DAF8EAF9FAFA09728AD54
:1032300039AD4AAD5BADCA01B9010E94B4EF20E0DF
:1032400030E040E05FE30E94B4EF9B01AC0160E03E
:1032500070E080E89FE30E9465F364966CAF7DAFF9
:103260008EAF9FAF6497A4968CAD9DADAEADBFAD54
:10327000A49789879A87AB87BC87A8962CAD3DAD6C
:103280004EAD5FADA8972D873E874F87588B6091D5
:10329000510270915202072E000C880B990B0E946C
:1032A00055EF2091000230910102409102025091AD
:1032B00003020E94B4EF2AE037ED43E25CE30E9490
:1032C000B4EF68A379A38AA39BA30E9483919B0177
:1032D000AC0128533F4F4F4F5F4F68962CAF3DAF27
:1032E0004EAF5FAF689748A859A86AA87BA841E08D
:1032F00050E026965FAF4EAF269759E15CAF269619
:10330000AEADBFAD2697A215B30509F423C10E9447
:10331000F9860E948391DC01CB0168962CAD3DAD0E
:103320004EAD5FAD6897821B930BA40BB50BB7FD39
:1033300011C00E9483919B01AC0128533F4F4F4F16
:103340005F4F68962CAF3DAF4EAF5FAF689780E0A0
:103350000E9486CB3CAD31503CAF332309F441C0D1
:1033600064962CAD3DAD4EAD5FAD64976CA97DA963
:103370008EA99FA90E94B4EF6B017C0128AD39ADE5
:103380004AAD5BADB201C3010E94B4EFA701960143
:103390000E9466F36B017C0164962CAD3DAD4EAD91
:1033A0005FAD6497B201C3010E94B4EF4B015C01B1
:1033B00028AD39AD4AAD5BAD6CA97DA98EA99FA999
:1033C0000E94B4EF9B01AC01C501B4010E9465F3FA
:1033D0002B013C01C601D7018CAB9DABAEABBFABA3
:1033E00057C026964EAD5FAD2697BA0180E090E0BB
:1033F0000E9453EF28AD39AD4AAD5BAD0E94B4EFEA
:103400004B015C010E943FF46B017C01C501B401DA
:103410000E94C7F54B015C01A701960168A979A933
:103420008AA99BA90E94B4EF2B013C01A50194013C
:1034300024966CAD7DAD8EAD9FAD24970E94B4EF08
:103440009B01AC01C301B2010E9466F32B013C0158
:10345000A501940168A979A98AA99BA90E94B4EF42
:103460004B015C01A701960124966CAD7DAD8EAD3C
:103470009FAD24970E94B4EF9B01AC01C501B4013C
:103480000E9465F36CAB7DAB8EAB9FAB59E15CAF3B
:103490009201A3012C966CAD7DAD8EAD9FAD2C97A6
:1034A0000E9466F369837A838B839C832CA93DA950
:1034B0004EA95FA960966CAD7DAD8EAD9FAD609756
:1034C0000E9466F36D837E838F8398876C962CAD04
:1034D0003DAD4EAD5FAD6C9769857A858B859C85DA
:1034E0000E9466F369877A878B879C87A0962CADAC
:1034F0003DAD4EAD5FADA0976D857E858F8598897A
:103500000E9466F36D877E878F87988B8091770204
:10351000882321F0CE0101960E9484BAE090900B9E
:103520008E01005E1F4F9E01235F3F4FAE01475F3C
:103530005F4FBE016B5F7F4FCE0101960E94EEDBB5
:1035400026968EAD9FAD2697019626969FAF8EAF9D
:103550002697D5CEE090900B8E01005E1F4F24EE93
:1035600033E140EE53E16CED73E188ED93E10E94AD
:10357000EEDB0E9413370E941D370C949F2DEEE660
:10358000F7E184918F010F5F1F4F882321F00E9484
:10359000DC38F801F6CFE5E3F2E084918F010F5FAC
:1035A0001F4F882311F40C949F2D0E94DC38F801E2
:1035B000F4CF80E50E944A36882329F00E94A8357E
:1035C0006B017C0103C0C12CD12C760183E50E94E4
:1035D0004A36882361F00E94E83520E030E04AE76F
:1035E00054E40E94B4EF0E94AFF46B017C010E948E
:1035F000829C80910E02811105C060E08BE492E014
:103600000E94AF960E941D37809110159091111560
:10361000A0911215B0911315C80ED91EEA1EFB1EFB
:103620000E948391DC01CB018C199D09AE09BF0971
:10363000B7FD02C00C949F2D80E00E9486CBF0CF96
:103640000E94B3CF81110C949F2D80E090E0A0E404
:10365000B0E489839A83AB83BC838D839E83AF83DD
:10366000B88780E090E0A0E2B1E489879A87AB87D1
:10367000BC8780E50E944A36882319F00E94B8353D
:1036800001C060E068A3BE016F5F7F4FCE018096EE
:103690000E9461B30C949F2D1092AC030C949F2D4B
:1036A00081E08093AC030C949F2D0E94E8352B01A0
:1036B0003C01D7012D913D914D915C910E9465F3A4
:1036C0004B015C012DEB37E346E855EB0E948CF58E
:1036D00087FD18C02DEB37E346E855E3C501B4017B
:1036E0000E944FEF181674F01F5FF4E0EF0EF11C0C
:1036F0001430A1F0F10181911F010E944A36882304
:1037000099F3D3CF133019F0DD24D39401C001E035
:10371000F7014082518262827382E6CFDD2019F088
:103720000E942B3503C001110E9451D00E94DB97EB
:103730000C949F2D8091841490918514833791056A
:1037400009F416C70CF0C6C08C34910509F41CC4EA
:103750000CF06AC08831910509F4B2C2ACF582312F
:10376000910509F45DC6BCF497FF02C00C949F2D2F
:10377000823091050CF4B2C1419711F00C949F2D49
:1037800060E085E892E00E94AF96429817981598FD
:103790002E980C949F2D8531910509F476C23CF446
:1037A000449711F00C949F2DEDE9F2E02BC2863185
:1037B000910509F46EC2479711F00C949F2DE0918A
:1037C0008214F09183146FC28E31910509F4A8C25E
:1037D000C4F48A31910509F491C20CF48BC28B3187
:1037E000910509F499C24C9711F00C949F2D40E07B
:1037F00060E080918214909183140E94DE890C9481
:103800009F2D8032910509F48FC20CF4D7C28A3201
:10381000910509F479C38B34910511F00C949F2D17
:103820000E94F78E0C949F2D8936910509F4DDC412
:1038300024F58335910509F4EEC57CF481359105B5
:1038400009F4E1C50CF0E3C58D34910511F00C9439
:103850009F2D0E94F84B0C949F2D8535910509F4FE
:10386000E3C50CF4DDC58C35910509F4F8C588363F
:10387000910509F48DC30C949F2D8E36910509F4A2
:10388000DEC39CF48B36910509F434C50CF40DC5E8
:103890008C36910509F457C48D36910511F00C94BE
:1038A0009F2D0E9483990C949F2D8037910509F4D8
:1038B0004EC40CF4D7C38137910509F44CC4823748
:1038C000910511F00C949F2D0E94829C0E94DB9721
:1038D0000C949F2D823E910511F40C9496250CF0CA
:1038E00075C08B39910509F49DC4B4F588379105ED
:1038F00009F4E5C6A4F48637910509F43DC60CF039
:103900007AC68537910511F00C949F2D60E0809167
:103910008214909183140E94D1960C949F2D8D3720
:10392000910509F4F9C45CF48937910511F00C9400
:103930009F2D10928808109287080C949F2D8C3828
:10394000910509F434C48139910511F00C949F2D2F
:103950000E940D990C949F2D8C3C910509F436C75B
:10396000F4F4883C910509F4B1C634F48E3B91051A
:1039700009F47FC40C949F2D893C910509F4EEC68F
:103980008B3C910511F00C949F2D45E2E42E44E10F
:10399000F42E09E712E054E0D52ED00E08C7833D7F
:1039A000910509F4ECC734F48D3C910509F47AC70C
:1039B0000C949F2D8C3D910511F40C943D258D3D6B
:1039C000910511F40C944C250C949F2D893921E01C
:1039D000920711F40C94592B0CF040C08F3241E047
:1039E000940711F40C946727DCF48C32A1E09A0759
:1039F00011F40C94CF253CF48232914011F40C94D4
:103A0000C2250C949F2D8D32F1E09F0711F40C9488
:103A1000F8258E32914011F40C9413270C949F2DAD
:103A2000833631E0930711F40C94842C3CF48033FA
:103A3000914011F40C9496260C949F2D8039A1E0AE
:103A40009A0711F40C94562B8839914011F00C947C
:103A50009F2D81E08093BC0B0C949F2D873FE1E06C
:103A60009E0711F40C94622BFCF4843F21E0920732
:103A700011F40C945C2B4CF48A39914011F00C94A5
:103A80009F2D0E9436970C949F2D853F51E09507FE
:103A900011F40C945F2B863F914011F00C949F2DF4
:103AA0000E9418DD0C949F2D803AB3E09B0709F427
:103AB00078C13CF48835924011F40C946E2B0C9430
:103AC0009F2D873E23E0920711F40C94C42C893D6E
:103AD000974011F40C94D92C0C949F2DA090821433
:103AE000B090831480E50E944A36882359F00E94E2
:103AF000A8356B017C0111E0672B682B692B31F431
:103B000010E004C010E0C12CD12C760183E50E94A6
:103B10004A368823F1F00E94E83520E030E04AE799
:103B200054E40E94B4EF0E94AFF46B017C011111C8
:103B300012C0672B682B692B71F4A114B10459F0E2
:103B4000D5018C91882339F061E0C5010E94D1969E
:103B50000FC0112391F360E082E792E00E94AF96DC
:103B60001092AF0E1092B00E1092B10E1092B20ED3
:103B700083E090E09093E9138093E81381E08093D1
:103B80000B140E94829C0E941D37C114D104E104D1
:103B9000F104F1F08091101590911115A09112157A
:103BA000B0911315C80ED91EEA1EFB1E0E94839108
:103BB000DC01CB018C199D09AE09BF09B7FF1EC0FE
:103BC00080910B148823D1F080E00E9486CBEECF49
:103BD00080910B14882321F080E00E9486CBF8CFDF
:103BE0008091A7089091A80860E0029719F483E6F5
:103BF00092E002C084E592E00E94AF9610920B140E
:103C00000C949F2D84918F010F5F1F4F882321F00B
:103C10000E94DC38F801F6CF1092670B1092660B09
:103C200040E050E0BA0180EF98E00E94E83F8BE16D
:103C3000E0EFF8E0DE01159601900D928A95E1F72C
:103C40008091EE089091EF089C838B8383E992E04A
:103C50009A83898340E050E0BE016F5F7F4F8EE71B
:103C600093E00E941D48CE0101960E9423CBEEE80E
:103C7000F2E084918F010F5F1F4F882311F40C94A1
:103C80009F2D0E94DC38F801F4CF0E94288D0C94FF
:103C90009F2D1092B7081092B8080C949F2D803277
:103CA00009F41082319680818111F9CF40E061E002
:103CB00080918214909183140E94DE890C949F2D30
:103CC00019821A821B821C8218A219A21AA21BA294
:103CD0008091EA13882341F040E0BE016F5F7F4F7F
:103CE000CE0180960E94BEBC0E94274E0E94F78E95
:103CF0000C949F2D0E9420350C949F2D8091B80824
:103D0000882311F40C949F2D83E50E944A3681117B
:103D10000C94812E0C949F2D0E94A9D00C949F2D61
:103D20000E94499B0C949F2D8091B70881110E949D
:103D3000829C8091B808882311F40C949F2D80E513
:103D40000E944A36882319F00E94D93503C080E5C5
:103D50000E941B36182F482F61E0809182149091A9
:103D600083140E94DE8983E50E944A36882381F00D
:103D70000E94B835AB01BC014093E8085093E908B4
:103D80006093EA087093EB0884EB9AE00E94E83FA6
:103D90000E94274E11110C949F2D0E94F78E0C94B7
:103DA0009F2D809182149091831421E02093B60876
:103DB00040E060E00E94DE890C949F2D0E94F14D4E
:103DC000BCE3CB2ED12CE12CF12CA70196010E9453
:103DD0002AF3762E672ECA01B901A70196010E9427
:103DE0002AF36B017C01CA01B90128E130E040E00F
:103DF00050E00E942AF34B015C01C9016DE671E0BD
:103E00000E942AF68E010F5F1F4F6115710599F010
:103E10006F927F92DF92CF929F928F929F938F9318
:103E20007F936F9386ED92E09F938F931F930F93F1
:103E30000E94E8EE12C00097B1F06F927F92DF927D
:103E4000CF929F928F929F938F9386EC92E09F9355
:103E50008F931F930F930E94E8EE0FB6F894DEBF86
:103E60000FBECDBF36C081149104A104B10479F016
:103E70006F927F92DF92CF929F928F928AEB92E025
:103E80009F938F931F930F930E94E8EEE6CFC11488
:103E9000D104E104F10469F06F927F92DF92CF9236
:103EA00082EB92E09F938F931F930F930E94E8EE13
:103EB000D4CF6F927F928EEA92E09F938F931F935D
:103EC0000F930E94E8EE0F900F900F900F900F90BD
:103ED0000F9060E0C8010E94D196EDEFFAE0849166
:103EE0007F019FEFE91AF90A882321F00E94DC384C
:103EF000F701F5CFB8018AEE92E00E943FDA8AE03E
:103F00000E94DC380C949F2D83E50E944A3688235A
:103F100011F40C949F2D0E94C835E82E80E50E9474
:103F20004A36882341F00E94B8358B0177FF02C0E2
:103F30000C949F2D02C006E010E0902FEFE4F4E017
:103F400088E28E0F2491921729F031968E13FACFC2
:103F50000C94912EEEE6F7E184918F010F5F1F4FD5
:103F6000882321F00E94DC38F801F6CFE7EFF2E079
:103F700084918F010F5F1F4F882311F40C949F2DA4
:103F80000E94DC38F801F4CF0E948FD00C949F2D52
:103F900088E690E00E94F23B81110C949F2D809165
:103FA0008B0B83FF02C00C949F2D83E50E944A3641
:103FB000882309F440C00E94E8350E94AAF4709357
:103FC00036156093351580E00E94BA830E94E8356B
:103FD00020E030E04AEA52E40E944FEF18163CF02D
:103FE0000E94F84B60E08DE093E00E94AF960E9443
:103FF000E8352091BD0E3091BE0E4091BF0E50911C
:10400000C00E0E948CF51816B4F482E093E09F93E2
:104010008F938091130C90E001969F938F9386E08D
:1040200093E09F938F931F920E94DF8E0FB6F894B8
:10403000DEBF0FBECDBF0E9467DA0C949F2D8EE4C9
:104040000E944A36882311F40C949F2D0E94B835A3
:104050006093750C7093760C8093770C9093780C2A
:104060000C949F2D83E50E941B36882359F083E52D
:104070000E944A36882319F00E94C83501C080E0AA
:1040800080938B0BEDEFFAE084918F010F5F1F4F50
:10409000882321F00E94DC38F801F6CFEAE2F3E051
:1040A00084918F010F5F1F4F882321F00E94DC381D
:1040B000F801F6CF80918B0B8823A1F1ACE1CA2ED9
:1040C000A3E0DA2EE12CF12C20E080918B0B90E024
:1040D0000E2C02C0959587950A94E2F780FF17C0D1
:1040E000BB24B394B20E222319F08CE20E94DC3878
:1040F000F60125913491F901849189010F5F1F4FD9
:10410000882321F00E94DC389801F5CF2B2DFFEF9A
:10411000EF1AFF0A32E0C30ED11C45E0E416F104A9
:10412000A1F60CC0E6E2F3E084918F010F5F1F4F10
:10413000882321F00E94DC38F801F6CF8AE00E9443
:10414000DC380C949F2D109278020C949F2D81E303
:1041500093E00E9436CB83E50E944A36882369F0BB
:104160000E94C8358D3320F480936F020C949F2DEC
:104170008CE380936F020C949F2DEDEFFAE0849115
:104180008F010F5F1F4F882321F00E94DC38F80158
:10419000F6CF40916F0250E060E070E08AE393E078
:1041A0000E94CFD98AE00E94DC380C949F2D809128
:1041B0008B0B83FF02C00C949F2D83E50E944A362F
:1041C000882311F40C949F2D0E94E8350E94AAF4D4
:1041D0006E37710514F06DE770E0709334156093DD
:1041E00033150E946F830C949F2D89E690E00E9406
:1041F000F23B811111C0E1E4F3E084918F010F5F84
:104200001F4F882321F00E94DC38F801F6CF0E946E
:10421000E3828AE00E94DC381092E9131092E813DE
:104220000C94203283E50E944A36882311F40C94C2
:104230009F2D0E94C835182F8D3308F01CE3109372
:104240000D150E9483916B017C01212F30E0A8EEB7
:10425000B3E00E9456F3C60ED71EE81EF91EC092A8
:104260000915D0920A15E0920B15F0920C150C94DA
:104270009F2D80918B0B83FF02C00C949F2D60E0DB
:1042800082E593E00E94AF9683E50E944A3621962C
:104290008FAF219781110C94A72E82E50E944A3698
:1042A00081110C94A72E0C949F2D80E50E944A3614
:1042B000811108C083E50E944A36811109C03FEF91
:1042C00020E00AC00E94C83581110C949F2DF2CFC6
:1042D0000E94B835362F272F832F922F8F3F9105BD
:1042E00019F010F08FEF90E0909338158093371508
:1042F0000C949F2D80E50E944A36811106C01092D1
:104300003815109237150C949F2D0E94B835672BE5
:1043100011F00C949F2DF3CF8CE40E941B36882360
:1043200019F00E94E83504C060E070E080E090EC95
:104330006CA37DA38EA39FA380E090E0A0E4B0E4F3
:1043400089839A83AB83BC838D839E83AF83B88735
:1043500080E090E0A0E2B1E489879A87AB87BC87D0
:1043600088E50E944A36882379F088E50E944A361B
:10437000882319F00E94E83503C060E070E0CB01AB
:1043800069837A838B839C8389E50E944A368823DC
:1043900079F089E50E944A36882319F00E94E835B1
:1043A00003C060E070E0CB016D837E838F839887CC
:1043B0008AE50E944A36882379F08AE50E944A36C7
:1043C000882319F00E94E83503C060E070E0CB015B
:1043D00069877A878B879C8718A219A21AA21BA2C9
:1043E0008091EA1381110C949F2D00E020E0AE0132
:1043F000405E5F4FBE016F5F7F4FCE0184960E948B
:10440000E1BB0C949F2D0E94F8980C949F2D109264
:10441000AB030C949F2D81E08093AB030C949F2DF4
:104420000E94A9980C949F2D83E50E941B36882337
:1044300011F40C949F2D0E94E83520E030E04AE70B
:1044400054E40E94B4EF0E94AFF46093141570938B
:10445000151580931615909317150C949F2DE9E769
:10446000CE2EE2E0DE2EF1E6EF2EF5E1FF2E10E09B
:10447000D6018D916D010E941B36882309F46DC011
:10448000133009F063C00E94E8354B015C0120E065
:1044900030E040EA51E40E944FEF87FF4EC0A50193
:1044A000940160916D1570916E1580916F159091CA
:1044B00070150E9442F42B013C019B01AC016091FC
:1044C0005D1470915E1480915F14909160140E944D
:1044D000B4EF60935D1470935E1480935F149093B7
:1044E0006014A30192016091311470913214809193
:1044F0003314909134140E94B4EF6093311470938C
:104500003214809333149093341460919415709105
:10451000951580919615909197150E9453EFA301E0
:1045200092010E94B4EF0E94AFF4609394157093CF
:104530009515809396159093971580926D1590928E
:104540006E15A0926F15B092701507C00E94E835E5
:10455000F70160837183828393831F5FF4E0EF0E22
:10456000F11C143009F084CF0E94C4DB0C949F2D01
:104570000E9494970C949F2D85E40E944A368823CC
:1045800019F00E94D93503C085E40E941B368823A8
:1045900061F0EDEFFAE084918F010F5F1F4F8823E8
:1045A00021F00E94DC38F801F6CF81E40E944A36FF
:1045B000882319F00E94D93503C081E40E941B367C
:1045C000882361F0EFE5F3E084918F010F5F1F4FC7
:1045D000882321F00E94DC38F801F6CF0091821484
:1045E00010918314D8018D918D01882309F4A6CDF3
:1045F0000E94DC38F7CFEBE7F3E084918F010F5F87
:104600001F4F882321F00E94DC38F801F6CFE3E742
:10461000F3E084918F010F5F1F4F882321F00E94E8
:10462000DC38F801F6CF029B03C00BEE12E002C0AB
:1046300000EF12E0F80181918F01882319F00E94A8
:10464000DC38F8CF8AE00E94DC38EBE6F3E08491B6
:104650008F010F5F1F4F882321F00E94DC38F80183
:10466000F6CF069B03C00BEE12E002C000EF12E093
:10467000D8018D918D01882319F00E94DC38F8CF84
:104680008AE00E94DC38E3E6F3E084918F010F5F5B
:104690001F4F882321F00E94DC38F801F6CF379BAA
:1046A00003C00BEE12E002C000EF12E0F8018191AE
:1046B0008F01882309F442CD0E94DC38F7CF81E0D6
:1046C00080938808809387080C949F2D88EC90E055
:1046D0000E94F23B81110C949F2D84E40E941B36B2
:1046E0008823C1F10E94E83511E020E030E0A90103
:1046F0000E944FEF811101C010E01093C10B1123F4
:1047000049F10E94E835E091130C24E0E29FF001AA
:104710001124E354F44F608371838283938320E0F8
:1047200030E0A9016091BD0B7091BE0B8091BF0B71
:104730009091C00B0E944FEF81110CC080E090E07F
:10474000A0EEBFE38093BD0B9093BE0BA093BF0B75
:10475000B093C00B0E94D5A40C949F2D65E3E62E68
:1047600064E1F62E09E712E074E0D72ED00ED801EE
:104770008D918D010E941B36882349F00E94E835F7
:104780000E94AFF4F7016083718382839383F4E026
:10479000EF0EF11CD012EBCF0E9497DA0C949F2DF4
:1047A000F4E0EF0EF11CD01611F40C949F2DD801FB
:1047B0008D918D010E941B36882391F30E94E8356C
:1047C000F7016083718382839383EACF83E50E943C
:1047D0001B368823D9F00E94E835AB01BC01409319
:1047E0004D1450934E1460934F1470935014409393
:1047F00045145093461460934714709348148FEEF9
:1048000093E00E9409DA8AE00E94DC3880E50E9489
:104810001B36882399F00E94E835AB01BC01409318
:104820004D1450934E1460934F147093501482EDB6
:1048300093E00E9409DA8AE00E94DC3882E50E9457
:104840001B36882399F00E94E835AB01BC014093E8
:10485000491450934A1460934B1470934C1483EB97
:1048600093E00E9409DA8AE00E94DC3884E50E9425
:104870001B36882311F40C949F2D0E94E835AB0160
:10488000BC014093451450934614609347147093B1
:10489000481485E993E00E9409DA8AE00E94DC3836
:1048A0000C949F2D83E50E941B36882351F00E94B3
:1048B000E83560932114709322148093231490930D
:1048C000241484E50E941B36882351F00E94E835A9
:1048D00060931D1470931E1480931F1490932014E2
:1048E00082E40E941B36882351F00E94A835609311
:1048F000CD137093CE138093CF139093D01388E58C
:104900000E941B36882351F00E94E83560935114B1
:1049100070935214809353149093541489E50E9419
:104920001B36882351F00E94E8356093551470932C
:10493000561480935714909358148AE50E941B369E
:10494000882351F00E94E8356093591470935A14EB
:1049500080935B1490935C1485E40E941B3688233B
:1049600011F40C949F2D0E94E83560935D147093B0
:104970005E1480935F14909360140C949F2DEDEF60
:10498000FAE084918F010F5F1F4F882321F00E946E
:10499000DC38F801F6CF83E50E941B36882321F02E
:1049A0000E94D93580937702EFE3F4E084918F0180
:1049B0000F5F1F4F882321F00E94DC38F801F6CFEB
:1049C00080917702811103C0EBE3F4E002C0E7E3DA
:1049D000F4E084918F010F5F1F4F882321F00E9424
:1049E000DC38F801F6CFEFE2F4E084918F010F5F3D
:1049F0001F4F882321F00E94DC38F801F6CF40E0F9
:104A000050E0BA018DE294E00E9409DA40E050E003
:104A1000BA018AE294E00E9409DA40E050E0BA016B
:104A200087E294E00E9409DAEFE1F4E084918F01DB
:104A30000F5F1F4F882321F00E94DC38F801F6CF6A
:104A400040E050E06CE573E48DE194E00E9409DA07
:104A500040E050E06CE573E48AE194E00E9409DAFA
:104A600040E050E062E873E487E194E00E9409DAF4
:104A70008AE00E94DC380C949F2D83E50E944A3620
:104A8000882311F40C949F2D0E94B8357093520224
:104A9000609351020C949F2D8DED90E00E94F23BAB
:104AA00081110C949F2D83E50E944A36882311F4CE
:104AB0000C949F2D0091130C10E00E94B835000F4C
:104AC000111FF801E15BFD4F718360838091130C2E
:104AD00090E08C01000F111F000F111F9801255B42
:104AE0003D4F7901880F991FFC01E15BFD4F60810B
:104AF0007181072E000C880B990B0E9455EF2AE05C
:104B000037ED43E25CE30E94B4EFF801E457F44F61
:104B100020813181428153810E94B4EFD7016D938E
:104B20007D938D939C9313970C949F2D80E50E9409
:104B30001B36882311F40C949F2D0E94B8356B010D
:104B40007C0183E50E944A36882321F00E94B83513
:104B50008B0102C00FEF1FEFC8010196039708F009
:104B6000EEC7D7FE01C0EBC79C2DEFE4F4E088E26E
:104B70008E0F2491921709F4E2C731968E13F9CF64
:104B80000C94F7318AE50E944A3681110C94F52F76
:104B900083E50E944A3681110C94F52FD0C783E536
:104BA0000E944A36882319F00E94B83502C064E09A
:104BB00071E079A368A380E50E944A36882339F022
:104BC0000E94B8356938B3E17B0730F402C068EE63
:104BD00073E07A83698304C088E893E19A838983C8
:104BE000BE01605E7F4FCE0101960E94AC8EA7C7CA
:104BF00085E40E944A36811110C080E50E941B3670
:104C0000882391F00E94E8356093970B7093980B7E
:104C10008093990B90939A0B07C00E94C835882304
:104C200061F3EEE6F7E171C089E40E941B36882348
:104C300081F00E94E8352CEA35EC47E25EE30E9401
:104C4000B4EF60939F0B7093A00B8093A10B909394
:104C5000A20B84E40E941B36882381F00E94E83571
:104C60002CEA35EC47E25EE30E9442F460939B0B32
:104C700070939C0B80939D0B90939E0BEDEFFAE04D
:104C800084918F010F5F1F4F882321F00E94DC3831
:104C9000F801F6CF4091970B5091980B6091990BCA
:104CA00070919A0B8FE794E00E9409DA2CEA35ECB8
:104CB00047E25EE360919F0B7091A00B8091A10B86
:104CC0009091A20B0E9442F4AB01BC018BE794E0EF
:104CD0000E94ECD92CEA35EC47E25EE360919B0B35
:104CE00070919C0B80919D0B90919E0B0E94B4EF54
:104CF000AB01BC0187E794E00E94ECD98AE00E94F6
:104D0000DC381DC70E94DC38F80184918F010F5FE9
:104D10001F4F8111F7CF0DE013E0F80181918F0152
:104D2000882309F40BCA0E94DC38F7CF80E50E9483
:104D30001B36882351F00E94E8356093070C70936E
:104D4000080C8093090C90930A0C89E40E941B368E
:104D5000882381F00E94E8352CEA35EC47E25EE3D7
:104D60000E94B4EF6093030C7093040C8093050CC5
:104D70009093060C84E40E941B36882381F00E94E5
:104D8000E8352CEA35EC47E25EE30E9442F460939A
:104D9000FF0B7093000C8093010C9093020CEDEFCD
:104DA000FAE084918F010F5F1F4F882321F00E944A
:104DB000DC38F801F6CF4091070C5091080C609157
:104DC000090C70910A0C8BE894E00E9409DA2CEA35
:104DD00035EC47E25EE36091030C7091040C809126
:104DE000050C9091060C0E9442F4AB01BC0187E8CF
:104DF00094E00E94ECD92CEA35EC47E25EE3609146
:104E0000FF0B7091000C8091010C9091020C0E949C
:104E1000B4EFAB01BC0183E894E00E94ECD98AE0D6
:104E20000E94DC388CC683E50E941B36182F88232D
:104E300071F00E94E8350E94AAF4709367026093B3
:104E4000660221E0672B09F020E02093C10E80E587
:104E50000E941B36882359F0209166023091670228
:104E6000232B11F00E94D9358093C10E68C6111111
:104E700066C6EDEFFAE084918F010F5F1F4F882324
:104E800021F00E94DC38F801F6CF8091C10E81112B
:104E900003C06AEF72E002C06DEE72E084EA94E053
:104EA0000E943FDA609166027091670283E994E0A4
:104EB0000E9426DAEFE8F4E084918F010F5F1F4F24
:104EC000882309F43CC60E94DC38F801F5CF85E45C
:104ED0000E944A36882321F00E94B8357B0102C027
:104EE000E12CF12C83E40E944A36882331F00E94A1
:104EF000B835AF966FAFAF9704C045E0AF964FAFF0
:104F0000AF9785E50E944A36882319F00E94D9356B
:104F100003C085E50E941B36EB968FAFEB97F7FC3D
:104F200007C0812C912C86E1A82E83E4B82E06C000
:104F3000812C912C0CE8A02E02E4B02E83E50E9477
:104F40004A36882321F00E94E8354B015C01E114C8
:104F5000F10411F41092130CE8AA0E9483912B0122
:104F60003C0158A957FD02C00CE301C004EB61E00D
:104F70006E0D623028F41EE1E12E13E0F12E0BC01D
:104F800001E313E0D8018D918D01882309F4D6C87F
:104F90000E94DC38F7CFF70181917F01882319F057
:104FA0000E94DC38F8CF8AE00E94DC380E94058439
:104FB000F8A9F7FF04C08FE78093120C08C028A956
:104FC000E22F220FFF0BEF5EF34F8FE78083C501C7
:104FD000B4010E94AAF4072E000C880B990B0E94C2
:104FE00055EF68AF7CAF25968FAF259729969FAF79
:104FF0002997A02F000FBB0B28EE33E00E9475F617
:10500000EF966CAF7DAF8EAF9FAFEF97DC01CB011A
:10501000840D951DA61DB71DC957DF4F8883998341
:10502000AA83BB83C758D04081E080937802E6967C
:105030004CAE5DAE6EAE7FAEE697C158DF4F488294
:1050400059826A827B82CF57D040E2961FAEE297A8
:10505000CD57DF4F188219821A821B82C358D04065
:10506000A1961FAEA19790E4A5969FAFA597ACE13E
:105070006996AFAF6997B6E46D96BFAF6D97A99685
:105080001FAEA997AA961FAEAA97AB961FAEAB9775
:10509000AC961FAEAC9768961CAE1DAE1EAE1FAE92
:1050A000689764961CAE1DAE1EAE1FAE6497C12CF1
:1050B000D12C7601AFE78A2E912CA12CB12C2FE7B1
:1050C00030E040E050E024962CAF3DAF4EAF5FAFF4
:1050D0002497EA961CAE1DAE1EAE1FAEEA9731E0D5
:1050E000E1963FAFE1972E961FAE1EAE2E9710E0D1
:1050F000212C312C00E048A9842F440F990BDC01AE
:10510000AF5EB34FC557DF4FB983A883CB58D040AC
:10511000880F991F880F991FFC01E354F14FAE9639
:10512000FFAFEEAFAE97AF962FADAF97022E000C4C
:10513000330BE0963FAF2EAFE09780917802882343
:1051400009F40AC10E9483916CAB7DAB8EAB9FAB1F
:1051500080910F0C882309F4DFC00E94C48438A911
:1051600037FF09C01091C80B2090C90B3090CA0BB3
:105170000091CB0B0DC0AE96AEADBFADAE971C91FE
:1051800011962C90119712963C90129713960C91B1
:10519000212F322D432D502FA9966FADA997AA9696
:1051A0007FADAA97AB968FADAB97AC969FADAC9702
:1051B0000E944FEF87FF0CC0A9961FAFA997AA9630
:1051C0002FAEAA97AB963FAEAB97AC960FAFAC970E
:1051D000212F322D432D502FA1966FADA197A5966B
:1051E0007FADA59769968FAD69976D969FAD6D97C9
:1051F0000E948CF5181664F4A1961FAFA197A5968E
:105200002FAEA59769963FAE69976D960FAF6D97D4
:10521000E196BFADE19728AD3CAD25964FAD259702
:1052200029965FAD2997612F722D832D902FBB2377
:1052300009F458C00E948CF518160CF06DC04CA9EA
:105240005DA96EA97FA94419550966097709DB0193
:10525000CA0188589341A109B109B7FD5DC02496E0
:105260008CAD9DADAEADBFAD249788199909AA0943
:10527000BB09E8A9B595A79597958795E7FF03C062
:105280008093120C07C0C557DF4FE881F981CB58D6
:10529000D0408083EA964CAF5DAF6EAF7FAFEA97A8
:1052A000F8ADA996FFAFA9972CADAA962FAFAA97F4
:1052B00025963FAD2597AB963FAFAB9729964FAD5F
:1052C0002997AC964FAFAC978CA99DA9AEA9BFA961
:1052D000E6968CAF9DAFAEAFBFAFE697E1961FAE3F
:1052E000E1971AC00E944FEF87FF16C08CA99DA9B5
:1052F000AEA9BFA9E6962CAD3DAD4EAD5FADE6972C
:10530000821B930BA40BB50BAC01BD014858534154
:105310006109710977FFA2C620E030E040EA51E45C
:1053200068AD7CAD25968FAD259729969FAD2997C1
:105330000E9466F39B01AC01612F722D832D902F8B
:105340000E948CF518167CF4E2EBF5E084918F0155
:105350000F5F1F4F811103C00E940584F0C30E949C
:10536000DC38F801F3CF8CA99DA9AEA9BFA9C1581B
:10537000DF4F288139814A815B81CF57D040821B22
:10538000930BA40BB50BB7FDA9C00E94E3828AE082
:105390000E94DC388CA99DA9AEA9BFA98053984F63
:1053A000AF4FBF4FC158DF4F88839983AA83BB8318
:1053B000CF57D040E2969FADE297911170C0CD5784
:1053C000DF4F288139814A815B81C358D040612FEA
:1053D000722D832D902F0E948CF518160CF048C06A
:1053E00020E030E040EC50E468AD7CAD25968FAD18
:1053F000259729969FAD29970E9465F39B01AC01E3
:10540000A1E0E296AFAFE297612F722D832D902F2E
:105410000E948CF518161CF0E2961FAEE29720E071
:1054200030E040E050E4612F722D832D902F0E94D8
:1054300066F3CD57DF4F688379838A839B83C35894
:10544000D0402CA93DA94EA95FA9EF968CAD9DAD8A
:10545000AEADBFADEF97280F391F4A1F5B1FC9576D
:10546000DF4F288339834A835B83C758D04036C0D7
:105470008CA99DA9AEA9BFA9C957DF4F2881398141
:105480004A815B81C758D040821B930BA40BB50B9C
:10549000B7FD24C044E955E063EA75E01CC020E094
:1054A00030E040EA51E468AD7CAD25968FAD25979C
:1054B00029969FAD29970E9465F39B01AC01612F4E
:1054C000722D832D902F0E944FEF87FF07C044E776
:1054D00055E064E875E088A90E94E6848CA99DA93E
:1054E000AEA9BFA9880F991FAA1FBB1FE6962CADB6
:1054F0003DAD4EAD5FADE697821B930BA40BB50B94
:1055000084199509A609B70981389F44A241B105BC
:1055100068F0E6E5F5E084918F010F5F1F4F882367
:1055200009F41ACF0E94DC38F801F5CF2E964EAD63
:105530005FAD2E97E0968EAD9FADE09784179507EF
:105540000CF0B1C0E9EFF4E084918F010F5F1F4FC1
:10555000882321F00E94DC38F801F6CF98A997FD46
:1055600003C00EE713E002C00EEF12E0B80187EEB1
:1055700094E00E943FDAB701A60183EE94E00E9416
:1055800009DA8AE00E94DC38B80181ED94E00E94DB
:105590003FDA64964CAD5DAD6EAD7FAD64978DEC3A
:1055A00094E00E9409DA8AE00E94DC38B8018BEBB3
:1055B00094E00E943FDA68964CAD5DAD6EAD7FAD74
:1055C000689787EB94E00E9409DA8AE00E94DC3851
:1055D000EB96AFADEB97AA2309F4B1C2B8A9B7FF18
:1055E00031C0C092070CD092080CE092090CF092E6
:1055F0000A0C2CEA35EC47E25EE364966CAD7DADB7
:105600008EAD9FAD64970E94B4EF6093030C7093CE
:10561000040C8093050C9093060C2CEA35EC47E2C1
:105620005EE368966CAD7DAD8EAD9FAD68970E94D0
:1056300042F46093FF0B7093000C8093010C9093E5
:10564000020C7DC2C092970BD092980BE092990BFE
:10565000F0929A0B2CEA35EC47E25EE364966CAD6F
:105660007DAD8EAD9FAD64970E94B4EF60939F0BAC
:105670007093A00B8093A10B9093A20B2CEA35ECB6
:1056800047E25EE368966CAD7DAD8EAD9FAD6897E9
:105690000E9442F460939B0B70939C0B80939D0B34
:1056A00090939E0B4CC20E9439C247CD0E94829CAF
:1056B00046C21092BC0B43C20E94F75740C20E94E0
:1056C000FA5C3DC283E50E941B36882321F00E94CC
:1056D000D93591E089270E949CB431C280E090E0E6
:1056E000A0E4B0E489839A83AB83BC838D839E83DB
:1056F000AF83B88780E090E0A0E2B1E489879A8721
:10570000AB87BC870E94B3CF882319F081E00E9449
:10571000283785E40E941B36882319F00E94E8355B
:1057200004C060E070E080E090EC6CA77DA78EA7DD
:105730009FA78AE50E944A36882379F08AE50E946D
:105740004A36882319F00E94E83503C060E070E013
:10575000CB0169877A878B879C8788E50E944A36C8
:10576000882379F088E50E944A36882319F00E9440
:10577000E83503C060E070E0CB0169837A838B83F6
:105780009C8389E50E944A36882379F089E50E9446
:105790004A36882319F00E94E83503C060E070E0C3
:1057A000CB016D837E838F83988785E50E941B36AE
:1057B000882319F00E94E83504C060E070E088ECAE
:1057C00093EC68A779A78AA79BA78CE40E941B3655
:1057D000882319F00E94E83504C060E070E088EC8E
:1057E00093E46CA37DA38EA39FA382E40E944A3618
:1057F000882321F00E94B835162F01C015E0E090F3
:10580000A708F090A8088091EA13811176C001E002
:10581000212FAE01485D5F4FBE016F5F7F4FCE010C
:105820008C960E94E1BB882309F467C083E090E076
:105830009093E9138093E81381E080930B14809197
:105840000B14882309F43FC060E0812FFAD68091C1
:1058500048088823A1F188E090E00E9416578091C3
:105860000B14882321F081E00E9486CBF8CF1092A0
:105870000B0C10920C0C10920D0C10920E0C10923E
:1058800048080E94BA8385D682E090E00E941657AD
:105890000E948391DC01CB0188539045AF4FBF4FED
:1058A00080930B0C90930C0CA0930D0CB0930E0CEA
:1058B0001092480800930B1461E0812FC2D681E05A
:1058C0000E9486CBBCCF81E090E09093E913809357
:1058D000E81380E090E0A8E4B2E488A399A3AAA327
:1058E000BBA38091EA13882341F0412FBE01605E83
:1058F0007F4FCE0184960E94BEBCEA94EF2809F047
:105900001EC10E94F78E1BC180E50E944A36882383
:1059100031F00E94C8358093270411E001C010E0E7
:1059200083E50E944A36882329F00E94D935809366
:10593000280401C011110E942797EDEFFAE084912D
:105940008F010F5F1F4F882321F00E94DC38F80180
:10595000F6CF8091280481110CC00AE513E0D8012C
:105960008D918D01882311F40C949E200E94DC38C7
:10597000F6CF6091270470E086E296E00E9426DA76
:105980008AE00E94DC38DBC081E0809361021092E3
:10599000720C83E50E944A36882319F00E94D9359B
:1059A00003C083E50E941B368111C9C00E9416CE38
:1059B000C6C086E50E941B36882351F00E94E83558
:1059C000609304027093050280930602909307028D
:1059D0001DA21CA282E793E099A388A39E012C5DDF
:1059E0003F4F44E050E064E072E0CE0180960E94B8
:1059F000E63C8CA19DA19A838983E8A0F9A080E769
:105A000093E099A388A39E012C5D3F4F42E050E0B4
:105A1000BE016F5F7F4FCE0180960E94E63CEDEFA6
:105A2000FAE084918F010F5F1F4F882321F00E94BD
:105A3000DC38F801F6CFB7016057734082E596E095
:105A40000E9426DA49815A8160E070E086E396E0A0
:105A50000E94CFD9E3E3F6E084918F010F5F1F4FDF
:105A6000882321F00E94DC38F801F6CFE4E6F6E066
:105A700084918F010F5F1F4F882309F460C00E943B
:105A8000DC38F801F5CFF0908414FF2029F1EDEF18
:105A9000FAE084918F010F5F1F4F882321F00E944D
:105AA000DC38F801F6CF84E50E94DC386F2D70E019
:105AB00080E090E04AE00E948C3B80E20E94DC386B
:105AC0000DE013E0F80181918F01882311F40C940B
:105AD0009E200E94DC38F6CF1092900BEDEFFAE09A
