:100000000C94AB190C94DC190C94DC190C94DC19CD
:100010000C94DC190C94DC190C94DC190C94DC198C
:100020000C94DC190C94DC190C94DC190C94DC197C
:100030000C94DC190C94DC190C94DC190C94DC196C
:100040000C94DC190C9465690C94DC190C94DC1983
:100050000C94DC190C94DC190C949F890C942CB82A
:100060000C94DC190C94FA390C94DC190C94DC19FE
:100070000C94DC190C94DC190C94DC190C94DC192C
:100080000D94C2150C94DC190C94DC190C94DC1939
:100090000C94DC190C94DC190C94DC190C94DC190C
:1000A0000C94DC190C94DC190D9495150C94DC1946
:1000B0000C94DC190C94DC190C94DC190D94681563
:1000C0000C94DC190C94DC190C94DC190C94DC19DC
:1000D0000C94DC190C94DC190C94DC190C94DC19CC
:1000E0000C94DC194D8356836083698372838D83FE
:1000F0009A83A3837B83848333B636B625B629B629
:100100002FB66DB63AB63EB644B648B64CB652B601
:1001100056B65AB66DB660B664B668B648B74DB74F
:1001200052B75CB766B7DFB770B778B780B78AB732
:1001300094B79EB7ADB7B7B7DFB7C1B7CBB7D5B731
:10014000084AD73B3BCE016E84BCBFFDC12F3D6C3E
:1001500074319ABD56833DDA3D00C77F11BED9E4A4
:10016000BB4C3E916BAAAABE000000803F05A84C84
:10017000CDB2D44EB93836A9020C50B99186880850
:100180003CA6AAAA2ABE000000803F000D942D13B1
:100190000D94E8120D94C3040D94DA2D0D949E0273
:1001A0000D94CA120D941C040D94F2120D94DC00EF
:1001B0000D94ED120D949C140D94CF120D94971480
:1001C0000D941B060D94022A0D94C5120D94F70F81
:1001D0000D9492140D94C0124E414E494E495459FB
:1001E000494E46CDCCCC3D0AD7233C17B7D1387702
:1001F000CC2B329595E6241FB14F0A000020410018
:1002000000C84200401C4620BCBE4CCA1B0E5AAE61
:10021000C59D7447322F473320626164207061723C
:10022000616D65746572730A00205A3A2000205986
:100230003A200042656420583A2000526573756D7B
:10024000696E67207072696E74005072696E7465B1
:10025000722072656164792E00436C69636B20744F
:100260006F20726573756D652E2E2E004E6F206D9A
:100270006F76652E00456E642066696C65206C693A
:1002800073740A00426567696E2066696C65206C4C
:100290006973740A0046696C652064656C657465F1
:1002A000643A0044656C6574696F6E206661696CC0
:1002B00065642C2046696C653A20006F70656E207D
:1002C0006661696C65642C2046696C653A2000257E
:1002D00069730025696D20256973002569682025EB
:1002E000696D2025697300256964202569682025CA
:1002F000696D2025697300256979202569642025A9
:1003000069682025696D20256973005072696E74D3
:100310002074696D653A20006F6E2E0A006F666664
:100320002E0A0047323620446562756720004B492B
:100330004C4C45442E20004D313133205300507237
:10034000696E746572204F66662E00454D455247B2
:10035000454E43595F504152534552004341534526
:100360005F4C494748545F4252494748544E4553B1
:100370005300544F47474C455F4C4947485453003E
:10038000534F4654574152455F504F5745520042D4
:1003900055494C445F50455243454E54004C4556D8
:1003A000454C494E475F44415441005A5F50524FBB
:1003B0004245004155544F4C4556454C005052491A
:1003C0004E545F4A4F420050524F475245535300DC
:1003D0004155544F5245504F52545F54454D500073
:1003E000564F4C554D455452494300454550524F88
:1003F0004D0053455249414C5F584F4E5F584F4650
:1004000046004649524D574152455F4E414D453A8F
:100410004D61726C696E20312E312E38202847696B
:10042000746875622920534F555243455F434F44CA
:10043000455F55524C3A68747470733A2F2F676950
:10044000746875622E636F6D2F4D61726C696E46B4
:1004500069726D776172652F4D61726C696E2050A3
:10046000524F544F434F4C5F56455253494F4E3AAB
:10047000312E30204D414348494E455F5459504537
:100480003A5072696E74657220455854525544450D
:10049000525F434F554E543A3120555549443A63C3
:1004A000656465326132662D343161322D34373402
:1004B000382D396231322D63353563363266333645
:1004C0003766660A002F2F20007A5F6D696E3A202A
:1004D00000795F6D696E3A2000785F6D696E3A2031
:1004E000005265706F7274696E6720656E64737414
:1004F0006F70207374617475730A004D3134352048
:10050000533C696E6465783E206F7574206F662079
:1005100072616E67652028302D31290A005761729B
:100520006E696E673A204D697820666163746F72F8
:1005300073206D7573742061646420757020746F0E
:1005400020312E302E205363616C696E672E0A00B5
:10055000252900257C00202800252920746F205A99
:1005600000257C002028004F4E2066726F6D205AB7
:10057000004F4646004772616469656E74204D699C
:1005800078200053657474696E67205472617665D3
:100590006C20416363656C65726174696F6E3A20AB
:1005A0000053657474696E67205265747261637478
:1005B00020416363656C65726174696F6E3A2000F7
:1005C00053657474696E67205072696E742041635C
:1005D00063656C65726174696F6E3A20005365746F
:1005E00074696E67205072696E7420616E64205465
:1005F000726176656C20416363656C6572617469D4
:100600006F6E3A2000205A00205900580020204DDB
:1006100061783A2000205A00205900580020204DCF
:10062000696E3A20004F6E20004F666600536F6679
:100630007420656E6473746F70733A200000012536
:10064000272318FF1F211D1CFF19171B1EFFFF0C5E
:100650000409FFFFFF2E2C0CFFFF312F302B2D291B
:1006600004400AFF41FFFFFFFFFFFF206F7574206A
:100670006F662072616E67650A00536572766F203F
:10068000003A200020536572766F200020643A0003
:1006900020693A0020703A0020643A0020693A004C
:1006A00020703A0043290A0061626C656420286D5D
:1006B000696E2074656D702000436F6C64206578EE
:1006C0007472756465732061726520004B6420004C
:1006D00023646566696E65202044454641554C5447
:1006E0005F004B69200023646566696E65202044C5
:1006F000454641554C545F004B70200023646566AD
:10070000696E65202044454641554C545F00504970
:1007100044204175746F74756E652066696E6973E7
:10072000686564212050757420746865206C61735D
:1007300074204B702C204B6920616E64204B642028
:10074000636F6E7374616E74732066726F6D206276
:10075000656C6F7720696E746F20436F6E66696792
:1007600075726174696F6E2E680A005049442041A9
:1007700075746F74756E65206661696C656421209F
:1007800074696D656F75740A00544845524D414C4B
:100790002052554E4157415900546865726D616C45
:1007A0002052756E617761790048656174696E6782
:1007B000206661696C65640048656174696E6720D4
:1007C0006661696C656400504944204175746F74BA
:1007D000756E65206661696C6564212054656D7075
:1007E0006572617475726520746F6F2068696768DF
:1007F0000A00204B643A2000204B693A2000204B2D
:10080000703A20000A20436C617373696320504979
:1008100044200A002054753A2000204B753A2000ED
:10082000206D61783A2000206D696E3A20002064C6
:100830003A200020626961733A20004F66660A0020
:100840004661646520486569676874200042656494
:10085000204C6576656C696E6720004661696C6541
:100860006420746F20656E61626C6520426564204F
:100870004C6576656C696E670A00556E6B6E6F77B6
:100880006E20636F6D6D616E643A2022004D65735A
:10089000682056616C69646174696F6E2053746F6F
:1008A000707065642E00696E206D6F76655F746F81
:1008B000282920666565645F76616C756520666FC2
:1008C000722058593A004C656176696E672047324C
:1008D00036004732362048656174696E67204E6F76
:1008E0007A7A6C652E004732362048656174696EED
:1008F00067204265642E00446F6E65205072696DFA
:10090000696E6700446F6E65205072696D696E672D
:10091000004669786564204C656E67746820507283
:10092000696D652E00557365722D436F6E74726F1D
:100930006C6C6564205072696D65002C2065793D92
:100940000029202D3E202865783D002C2073793D1C
:100950000020436F6E6E656374696E6720776974FB
:100960006820766572746963616C206C696E6520BD
:100970002873783D002C2065793D0029202D3E20EC
:100980002865783D002C2073793D0020436F6E6E02
:10099000656374696E67207769746820686F72692F
:1009A0007A6F6E74616C206C696E65202873783D77
:1009B000004C656176696E6720473236002C2079DD
:1009C000693D00202020446F696E6720636972636F
:1009D0006C652061743A202878693D003F5370654A
:1009E00063696669656420582C5920636F6F72646F
:1009F000696E617465206F7574206F6620626F7513
:100A00006E64732E0A003F28522965706561742058
:100A100076616C7565206E6F7420706C617573699A
:100A2000626C653B206D7573742062652061742073
:100A30006C6561737420312E0A003F5370656369E1
:100A400066696564206E6F7A7A6C652074656D7076
:100A500065726174757265206E6F7420706C61755B
:100A60007369626C652E0A003F537065636966693D
:100A700065642066696C616D656E742073697A6562
:100A8000206E6F7420706C61757369626C652E0ADC
:100A9000003F537065636966696564207072696DB3
:100AA00065206C656E677468206E6F7420706C6171
:100AB000757369626C652E0A003F537065636966E1
:100AC000696564206E6F7A7A6C652073697A652037
:100AD0006E6F7420706C61757369626C652E0A00AC
:100AE0003F5370656369666965642052657472611D
:100AF0006374696F6E204D756C7469706C69657292
:100B0000206E6F7420706C61757369626C652E0A5B
:100B1000003F52657472616374696F6E204D756C2D
:100B20007469706C696572206D75737420626520DC
:100B30007370656369666965642E0A003F5370656A
:100B4000636966696564206C6179657220686569AE
:100B5000676874206E6F7420706C61757369626C65
:100B6000652E0A003F53706563696669656420629B
:100B700065642074656D7065726174757265206E50
:100B80006F7420706C61757369626C652E0A004722
:100B9000323620636F6D6D616E64207374617274A0
:100BA00065642E2057616974696E6720666F7220D4
:100BB0006865617465722873292E0A00200D4669E4
:100BC00078656420706172616D65746572206E6213
:100BD000797465733B20637263206572726F722053
:100BE00000200D0A466978656420706172616D6548
:100BF0007465722062797465733B2063726320654B
:100C000072726F722000290A002062797465733B4A
:100C100020637263200046697865642070617261A8
:100C20006D65746572202800206861726477617256
:100C3000652076657273696F6E3A004B494C4C457E
:100C4000442E2000202D20496E76616C6964206559
:100C500078747275646572206E756D62657220219C
:100C60000A002D2D2D2D2D2D007C4D61726C696E8D
:100C70007C002D2D2D2D2D2D00687474703A2F2F92
:100C80006D61726C696E66772E6F7267006874743E
:100C9000703A2F2F6D61726C696E66772E6F726776
:100CA0000020312E312E38002020506C616E6E6590
:100CB0007242756666657242797465733A200020E7
:100CC00046726565204D656D6F72793A2000436FFD
:100CD0006D70696C65643A20466562203236203258
:100CE0003032300A00207C20417574686F723A20DF
:100CF000286E6F6E652C2064656661756C74206368
:100D00006F6E666967290A00323031372D31322D16
:100D100032352031323A303000204C617374205526
:100D20007064617465643A2000312E312E380A00F7
:100D30004D61726C696E0020536F667477617265E5
:100D40002052657365740A00205761746368646F8C
:100D5000672052657365740A002042726F776E20B7
:100D60006F75742052657365740A00204578746548
:100D7000726E616C2052657365740A00506F7765FE
:100D80007255700A0073746172740A006572726F32
:100D9000722077726974696E6720746F2066696C5F
:100DA000650A00456E6473746F7073202563202597
:100DB0006320256320256300205A3A0020593A0019
:100DC00020583A00656E6473746F7073206869749C
:100DD0003A200047323820580066696C616D656EB4
:100DE00074206F75740A004D33322053256C7520C2
:100DF000212573004D33322053256C7520212F257A
:100E0000732F2573004730204631303030205A256B
:100E1000752E257500473238205900473238205842
:100E2000004D313036202053323535004D313039C8
:100E300020543020532575004D313930205325750D
:100E400000446F6E6520736176696E672066696C19
:100E5000652E0A004D3239004C696E65204E756D65
:100E6000626572206973206E6F74204C6173742008
:100E70004C696E65204E756D6265722B312C204C6D
:100E8000617374204C696E653A20004B494C4C45A7
:100E9000442E200053544F505045442E2000507291
:100EA000696E7465722073746F7070656420647508
:100EB0006520746F206572726F72732E2046697898
:100EC00020746865206572726F7220616E6420758F
:100ED0007365204D39393920746F207265737461E0
:100EE00072742E202854656D706572617475726518
:100EF0002069732072657365742E205365742069B0
:100F000074206166746572207265737461727469AD
:100F10006E67290A004E6F20436865636B73756DB9
:100F20002077697468206C696E65206E756D6265E6
:100F3000722C204C617374204C696E653A200063FA
:100F40006865636B73756D206D69736D617463683B
:100F50002C204C617374204C696E653A20004D3131
:100F60003130004D333100473120463130303020B0
:100F70005830205932313000473238205859005308
:100F8000442072656164206572726F720A00446F5A
:100F90006E65207072696E74696E672066696C6533
:100FA0000A0020496E76616C6964206578747275F8
:100FB000646572200053544F505045442E20005019
:100FC00072696E7465722073746F707065642064EA
:100FD000756520746F206572726F72732E2046697A
:100FE0007820746865206572726F7220616E64206B
:100FF000757365204D39393920746F2072657374AB
:101000006172742E202854656D70657261747572FA
:10101000652069732072657365742E205365742092
:10102000697420616674657220726573746172748C
:10103000696E67290A0053544F502063616C6C65D8
:10104000642062656361757365206F6620424C544D
:101050006F756368206572726F72202D20726573E0
:10106000746172742077697468204D3939390A00C7
:1010700042696C696E656172204C6576656C696E5B
:101080006720477269643A0A0054454D5020544F16
:101090004F204C4F572100536C6565702E2E2E004B
:1010A0004D36303020486F74656E6420746F6F2049
:1010B000636F6C6420746F206368616E676520667F
:1010C000696C616D656E740A007C3C3E5E2B3D3F31
:1010D0002F5B5D3B2C2A225C004368616E676520B4
:1010E00066696C616D656E740042616279737465E6
:1010F00070205A00466C6F7700466C6F770046612F
:101100006E2073706565640046616E20737065655E
:10111000640042656400426564004E6F7A7A6C65D3
:10112000004E6F7A7A6C6500537065656400537089
:10113000656564004D61696E005072656865617433
:1011400020504C4120456E640050726568656174A2
:1011500020504C412042656400507265686561749E
:1011600020504C410050726570617265005072658C
:10117000686561742041425320456E640050726579
:101180006865617420414253204265640050726575
:1011900068656174204142530050726570617265E8
:1011A000004261636B004E65787420636F726E65F8
:1011B00072004D32383020503020533136300042EA
:1011C0004C546F7563682053656C662D5465737459
:1011D000004D3238302050302053313230005072C0
:1011E00065686561742041425300507265686561AD
:1011F0007420504C4100436F6F6C646F776E0052E7
:101200006573657420424C546F7563680043686170
:101210006E67652066696C616D656E740044697304
:1012200061626C65207374657070657273004D380F
:1012300034004C6576656C20636F726E6572730066
:10124000426564204C6576656C696E67004732388C
:101250000A473239004175746F20686F6D65004729
:101260003238004D6F76652061786973004D616991
:101270006E0043616E6E6F74206F70656E207375C3
:10128000626469722000656E7175657565696E6767
:101290002022006563686F3A00544845524D414C26
:1012A0002052554E4157415900546865726D616C2A
:1012B0002052756E617761790024F4D43050C38E6A
:1012C00020C2A24017828B7011127A910D816CD9C5
:1012D0000AA861E108C7586607615143061E4B5DC5
:1012E00005C145A7041A411104093D98037139311C
:1012F000034036DB0265339102D4305402802E1D48
:1013000002632CEE01752AC501B028A001102781C7
:10131000018F2564012B244B01E0223401AC211FF5
:10132000018D200D01801FFC00841EED00971DDF44
:1013300000B81CD200E61BC600201BBC00641AB219
:1013400000B219A8000A19A0006A189900D11791D3
:101350000040178B00B516840031167E00B3157956
:10136000003A157300C7146F0058146A00EE136634
:10137000008813630025135E00C7125B006C1257D0
:101380000015125400C111510070114F0021114B72
:1013900000D61049008D104700461044000210424C
:1013A00000C00F4000800F3E00420F3C00060F3B84
:1013B00000CB0E3800930E37005C0E3500270E343C
:1013C00000F30D3200C10D3100900D3000600D2E84
:1013D00000320D2D00050D2C00D90C2B00AE0C2970
:1013E00000850C29005C0C2700350C27000E0C260C
:1013F00000E80B2400C40B2400A00B23007D0B236A
:10140000005A0B2100390B2100180B2000F80A1F8D
:1014100000D90A1E00BB0A1E009D0A1D00800A1D7D
:1014200000630A1C00470A1B002C0A1B00110A1A41
:1014300000F7091A00DD091900C4091900AB0919E0
:1014400000920917007B091800630917004C091660
:101450000036091600200916000A091500F50815BE
:1014600000E0081400CC081400B8081400A4081404
:1014700000900813007D0812006B08130058081232
:101480000046081200340811002308110012081148
:101490000001081100F0071000E0071000D007104D
:1014A00000C0071000B0070F00A107100091070E41
:1014B0000083070F0074070F0065070E0057070E23
:1014C0000049070E003B070D002E070E0020070DF8
:1014D0000013070D0006070D00F9060C00ED060DC0
:1014E00000E0060C00D4060C00C8060C00BC060C7C
:1014F00000B0060C00A4060B0099060C008D060B2C
:101500000082060B0077060B006C060B0061060AD2
:101510000057060B004C060A0042060A0038060A6D
:10152000002E060A0024060A001A060A0010060900
:101530000007060A00FD050900F4050900EB05098E
:1015400000E2050900D9050900D0050900C7050911
:1015500000BE050900B5050800AD050800A5050990
:10156000009C050800940508008C05080084050807
:10157000007C050800740508006C05070065050877
:10158000005D050700560508004E050700470507E2
:10159000004005080038050700310507002A050747
:1015A00000230507001C050600160507000F0507A8
:1015B000000805060002050700FB040600F5040705
:1015C00000EE040600E8040600E2040700DB04065F
:1015D00000D5040600CF040600C9040600C30406B3
:1015E00000BD040600B7040600B1040500AC040603
:1015F00000A6040600A00405009B0406009504054F
:1016000000900406008A0405008504050080040695
:10161000007A04050075040500700405006B0405DC
:101620000066040500610405005C0405005704051C
:1016300000520405004D040500480405004304055C
:10164000003E0404003A040500350405003004049B
:10165000002C04050027040400230405001E0404D4
:10166000001A04040016040500110404000D04040B
:1016700000090405000404040000040400FC030441
:1016800000F8030400F4030400F0030400EC030476
:1016900000E8030400E4030400E0030400DC0304A6
:1016A00000D8030400D4030400D0030400CC0304D6
:1016B00000C8030300C503030024F404D9201BC49D
:1016C0000C5C0E9804C4095F0265077101F405F90A
:1016D00000FB04B30048048700C1036900580355A8
:1016E0000003034500BE023A008402310053022A7F
:1016F000002902250004022000E4011C00C8011991
:1017000000AF01170098011400840113007101104B
:10171000006101100051010E0043010D0036010B64
:10172000002B010B0020010B00150109000C010921
:101730000003010800FB000800F3000800EB0007AD
:1017400000E4000600DE000600D8000600D2000615
:1017500000CC000500C7000500C2000500BD000464
:1017600000B9000400B5000400B1000400AD00049D
:1017700000A9000400A5000300A20003009F0004CC
:10178000009B0003009800030095000200930003F3
:1017900000900003008D0002008B0003008800020F
:1017A000008600020084000300810002007F000226
:1017B000007D0002007B000200790002007700013A
:1017C0000076000200740002007200010071000245
:1017D000006F0002006D0001006C0002006A000151
:1017E0000069000200670001006600010065000159
:1017F000006400020062000100610001006000015D
:10180000005F0002005D0001005C0001005B000160
:10181000005A000100590001005800010057000162
:101820000056000100550001005400010053000063
:10183000005300010052000100510001005000015E
:10184000004F0001004E0000004E0001004D00015D
:10185000004C0001004B0000004B0001004A000159
:101860000049000100480000004800010047000155
:101870000046000000460001004500000045000150
:10188000004400010043000000430001004200004A
:101890000042000100410000004100010040000141
:1018A000003F0000003F0001003E0000003E00013C
:1018B000003D0000003D0001003C0000003C000035
:1018C000003C0001003B0000003B0001003A00002A
:1018D000003A000100390000003900010038000022
:1018E0000038000000380001003700000037000118
:1018F0000036000000360000003600010035000010
:101900000035000000350001003400000034000004
:1019100000340001003300000033000000330001F8
:1019200000320000003200000032000100310000EF
:1019300000310000003100010030000000300000E4
:1019400000300001002F0000002F0000002F0000D9
:10195000002F0001002E0000002E0000002E0001CC
:10196000002D0000002D0000002D0000002D0001C2
:10197000002C0000002C0000002C0000002C0001B6
:10198000002B0000002B0000002B0000002B0001AA
:10199000002A0000002A0000002A0000002A00019E
:1019A0000029000000290000002900000029000093
:1019B0000029000100280000002800000028000085
:1019C0000028000000280001002700000027000078
:1019D000002700000027000000270001002600006B
:1019E000002600000026000000260000002600015E
:1019F0000025000000250000002500000025000053
:101A00000025000000250001002400000024000043
:101A10000024000000240000002400010023000036
:101A2000002300000023000000230000002300002A
:101A3000002300000023000100220000002200001B
:101A4000002200000022000000220000002200010D
:101A50000021000000210000002100000021000002
:101A600000210000002100000021000100200000F2
:101A700000200000002000000020000000200000E6
:101A8000002000000020000000200001001F0000D6
:101A9000001F0000001F0000001F0000001F0000CA
:101AA000001F0000001F0001001E0000001E0000BB
:101AB000001E0000001E0000004D38342058205940
:101AC000205A2045005A25752C45256C752C50252B
:101AD0006C752C5425752C4225752C005072696E3E
:101AE0007465722072656164792E005072696E743B
:101AF00065722072656164792E004572723A4E6F8C
:101B00002046696C616D656E7400496E6974696127
:101B10006C697A6520454550524F4D00436F6E7495
:101B2000726F6C00526573746F7265206661696CC8
:101B300073616665004C6F61642073657474696ECF
:101B4000677300496E697469616C697A65204545FF
:101B500050524F4D0053746F7265207365747469F1
:101B60006E677300424C546F7563680046696C6120
:101B70006D656E74004D6F74696F6E0054656D70A5
:101B800065726174757265004D61696E004D333028
:101B90003320553120452569205325690050726551
:101BA000686561742041425320636F6E6600507215
:101BB000656865617420504C4120636F6E6600500B
:101BC0004944204175746F74756E65005049442016
:101BD0004175746F74756E65005049442D44005012
:101BE00049442D44005049442D49005049442D4951
:101BF000005049442D50005049442D5000200220EF
:101C00004661637400200220466163740020022054
:101C10004D6178002002204D6178002002204D6146
:101C200078002002204D696E002002204D696E0070
:101C30002002204D696E004F6666004F6E20004105
:101C400075746F74656D700046616E2073706565A4
:101C5000640046616E2073706565640042656400CF
:101C6000426564004E6F7A7A6C65004E6F7A7A6CCA
:101C70006500436F6E74726F6C0053746F726520F1
:101C800073657474696E67730042656400426564CD
:101C9000004E6F7A7A6C65004E6F7A7A6C650046FA
:101CA000616E2073706565640046616E20737065B7
:101CB00065640054656D706572617475726500507D
:101CC00053553A2047656E657269630050726F74B0
:101CD0006F636F6C3A20312E30002020202048574F
:101CE000205665723A2056004657205665723A20B3
:101CF00056322E3100426175643A20323530303030
:101D000030004754323536302056342E3000426988
:101D10006C696E656172204C6576656C696E6700F2
:101D20004578747275646572733A20310068747412
:101D3000703A2F2F6D61726C696E66772E6F7267C5
:101D4000005072696E74657200323031372D313255
:101D50002D32352031323A303000312E312E3800DC
:101D60004D61726C696E00546865726D6973746F51
:101D7000727300426F61726420496E666F00507228
:101D8000696E74657220496E666F004D61696E0000
:101D900020204E6F7A7A6C653A20004261636B00B6
:101DA0004D696E696D756D2054656D702069732085
:101DB0003137302E0048656174696E67206661694D
:101DC0006C65640045787472756465206D6F72652A
:101DD00000526573756D65207072696E74005245AE
:101DE00053554D45204F5054494F4E533A002020F3
:101DF0004E6F7A7A6C653A20006368616E676500A1
:101E00006F66207468652066696C616D656E74002C
:101E10005761697420666F72207374617274005028
:101E200052494E54205041555345440020204E6F96
:101E30007A7A6C653A200066696C616D656E742013
:101E4000756E6C6F6164005761697420666F720013
:101E50005052494E54205041555345440020204E85
:101E60006F7A7A6C653A2000506C656173652077F3
:101E70006169742E2E2E0048656174696E67206E4C
:101E80006F7A7A6C65005052494E54205041555338
:101E900045440020204E6F7A7A6C653A20006865D0
:101EA0006174206E6F7A7A6C652E00507265737360
:101EB00020627574746F6E20746F005052494E54D6
:101EC000205041555345440020204E6F7A7A6C656E
:101ED0003A2000746F20636F6E74696E75652E2EE4
:101EE0002E00616E64207072657373206275747465
:101EF0006F6E00496E736572742066696C616D6502
:101F00006E74005052494E54205041555345440080
:101F100020204E6F7A7A6C653A200066696C616D9C
:101F2000656E74206C6F6164005761697420666F20
:101F300072005052494E54205041555345440020A0
:101F4000204E6F7A7A6C653A200066696C616D6527
:101F50006E742065787472756465005761697420C9
:101F6000666F72005052494E5420504155534544BB
:101F700000746F20726573756D6500576169742018
:101F8000666F72207072696E74005052494E542010
:101F9000504155534544006265640A002C20737912
:101FA0007374656D2073746F70706564212048656B
:101FB000617465725F49443A200048656174696ED6
:101FC00067206661696C65640048656174696E6765
:101FD000206661696C65640048656174696E67209C
:101FE0006661696C65640048656174696E67206646
:101FF00061696C65640070012C0190012701B001DA
:102000002201C0011D01F00118011002130130026C
:102010000E016002090190020401C002FF000003EA
:10202000FA004003F5008003F000D003EB00200429
:10203000E6007004E100E004DC004005D700C005C4
:10204000D2004006CD00D006C8008007C30030088B
:10205000BE00F008B900C009B400B00AAF00B00B70
:10206000AA00D00CA500000EA000500F9B00C010CD
:1020700096005012910000148C00C0158700B01714
:102080008200B0197D00D01B7800001E7300402034
:102090006E0090226900F024640040275F009029C0
:1020A0005A00E02B5500102E500020304B0010320B
:1020B0004600E033410090353C001037370070385F
:1020C0003200A0392D00B03A2800A03B2300603C2C
:1020D0001E00103D1900903D1400103E0F00703E90
:1020E0000A00C03E0500003F0000403FFBFF803F6C
:1020F000F6FFC03FF1FF4572723A204D494E5445FC
:102100004D5020424544004572723A204D494E548C
:10211000454D50004D494E54454D502074726967ED
:102120006765726564004572723A204D41585445A6
:102130004D5020424544004572723A204D4158545A
:10214000454D50004D415854454D502074726967BB
:10215000676572656400202F002042403A002040ED
:102160003A0020204D383531205A005A2D50726FD8
:102170006265204F666673657420286D6D293A0A82
:102180000020440020490020204D333034205000EE
:1021900020440020490020204D3330312050005091
:1021A00049442073657474696E67733A0A00204667
:1021B0000020420020480020204D313435205300BB
:1021C0004D6174657269616C206865617475702019
:1021D000706172616D65746572733A0A00205A000D
:1021E00020204D3432302053004175746F204265F9
:1021F00064204C6576656C696E673A0A002045007C
:10220000205A00205900205800204200205400206D
:10221000204D323035205300416476616E63656431
:102220003A20533C6D696E5F6665656472617465E2
:102230003E20543C6D696E5F74726176656C5F66BA
:10224000656564726174653E20423C6D696E5F73C2
:1022500065676D656E745F74696D655F75733E204B
:10226000583C6D61785F78795F6A65726B3E205A81
:102270003C6D61785F7A5F6A65726B3E20453C6DAC
:1022800061785F655F6A65726B3E0A0020540020CA
:10229000520020204D323034205000416363656C81
:1022A00065726174696F6E2028756E6974732F731F
:1022B00032293A20503C7072696E745F61636365C5
:1022C0006C3E20523C726574726163745F6163633B
:1022D000656C3E20543C74726176656C5F6163632B
:1022E000656C3E0A00204500205A0020590020203D
:1022F0004D3230312058004D6178696D756D204147
:102300006363656C65726174696F6E2028756E69B0
:1023100074732F7332293A0A00204500205A002096
:10232000590020204D3230332058004D6178696DBE
:10233000756D206665656472617465732028756EBD
:102340006974732F73293A0A00204500205A00202F
:10235000590020204D393220580053746570732085
:1023600070657220756E69743A0A0020204D323013
:10237000302044300A0020204D32303020440020EC
:1023800044697361626C65640A0046696C616D65DD
:102390006E742073657474696E67733A0020204D03
:1023A0003134392043203B20556E69747320696EA7
:1023B0002043656C736975730A0020204732312011
:1023C0002020203B20556E69747320696E206D6D4E
:1023D0000A004573746570732F6D6D0045737465E5
:1023E00070732F6D6D005A73746570732F6D6D006F
:1023F0005A73746570732F6D6D00597374657073C3
:102400002F6D6D005973746570732F6D6D00587367
:10241000746570732F6D6D005873746570732F6DD4
:102420006D004D6F74696F6E0053746570732F6D1E
:102430006D004A65726B00416363656C657261741F
:10244000696F6E0056656C6F63697479005A204F2E
:102450006666736574005A204F6666736574004340
:102460006F6E74726F6C004F6E200052756E6F75D8
:10247000742073656E736F7273004F6666004669F1
:102480006C2E204469612E0046696C2E20446961DF
:102490002E004F6666004F6E20004520696E206D4D
:1024A0006D3300436F6E74726F6C0043616E6E6FBC
:1024B0007420656E746572207375626469723A2067
:1024C00000052E2E004D61696E004D617820546527
:1024D0006D703A20313235004D696E2054656D7053
:1024E0003A203500544265643A4550434F532031F9
:1024F00030304B004D61782054656D703A20323693
:1025000035004D696E2054656D703A2035005430A9
:102510003A204550434F53203130304B004732383A
:10252000205A20466F7262696464656E0A00473201
:1025300038205A20466F7262696464656E002070AC
:102540006F736974696F6E206F7574206F66207287
:10255000616E67652E0A003F50726F626520002031
:102560002844525952554E2900473239204175743A
:102570006F20426564204C6576656C696E67002843
:10258000422961636B00284629726F6E74002852DD
:10259000296967687400284C29656674003F2856CD
:1025A000296572626F7365206C6576656C2069734E
:1025B00020696D706C61757369626C652028302DBF
:1025C00034292E0A00426164205A2076616C7565B8
:1025D0000A004E6F2062696C696E656172206772D5
:1025E00069640A004D65736820706F696E742063BA
:1025F000616E6E6F74206265207265736F6C7665B4
:10260000640A004D31323500001C1F11111F0000FB
:102610000006191803130C00040E1F041C00000010
:1026200000101010101010000014141414141400D2
:102630000015151515151500000E1315110E0000C7
:102640001C10181705060500040A0A0A0A11110EC3
:102650000C12120C00000000001F1511151F0000C5
:1026600000000000010204040000001C1C0C040413
:102670000402010000000000040810000000000037
:102680004D313034205325750047393220452575AA
:1026900000473932205A25752E2575004D353030CA
:1026A0000043616E63656C207072696E74005265E0
:1026B00073756D65207072696E7400506F77657206
:1026C000206F75746167650025753A253032750095
:1026D000253032753A25303275002D2D2D005344AA
:1026E000005A004D7825643B25643B256425252050
:1026F000004D7825643B25643B2564252520004555
:1027000072726F722077726974696E6720746F20BD
:10271000454550524F4D210A00290A002062797424
:1027200065733B20637263200053657474696E6740
:10273000732053746F726564202800000021002408
:102740000027002A002D00300033000101000004A2
:102750000107010A0100002200250028002B002E9D
:10276000003100340002010000050108010B0100E6
:102770000020002300260029002C002F003200003A
:10278000010000030106010901050505050705080B
:10279000080808020202020A0A08080404040401E4
:1027A0000101010101010103030303030303030406
:1027B0000707070C0C0C0C0C0C0C0C020202020696
:1027C000060606060606060B0B0B0B0B0B0B0B0186
:1027D0000210202008081020401020408002010232
:1027E00001080402010102040810204080804020FA
:1027F0001008040201800402018040201008040235
:1028000001080402010102040810204080010204B2
:10281000081020408000000A0B02090C0D0E08076A
:1028200003040100000000000000000000000000A0
:102830000000000000000000000000000000000098
:102840000012111000000000000000000000000055
:1028500000000000000000000000004361726420DE
:1028600072656D6F766564004361726420696E7392
:1028700065727465640020746F6F206C6F6E6720E2
:10288000657874727573696F6E2070726576656EA7
:102890007465640A0020636F6C64206578747275D7
:1028A00073696F6E2070726576656E7465640A0078
:1028B000627573793A2070617573656420666F7212
:1028C00020696E7075740A00627573793A207061C0
:1028D0007573656420666F7220757365720A006295
:1028E0007573793A2070726F63657373696E670AE6
:1028F000004B494C4C45442E20004B494C4C206326
:10290000617573656420627920746F6F206D7563E3
:102910006820696E6163746976652074696D6520ED
:102920002D2063757272656E7420636F6D6D616EBC
:10293000643A2000506C656173652072657365743C
:10294000005052494E5445522048414C5445440091
:102950005072696E7465722068616C7465642E20B3
:102960006B696C6C28292063616C6C6564210A00BA
:10297000000070C1000000C10000000000007042B3
:10298000000070420000C040000000005761726EFD
:10299000696E673A20486F6D696E672042756D7089
:1029A0002044697669736F72203C20310A0002026C
:1029B000040000A0400000A0400000004000006BA8
:1029C000430000644300008243FFFFFF20746F6FE9
:1029D000206C6F6E6720657874727573696F6E20F6
:1029E00070726576656E7465640A0020636F6C644E
:1029F00020657874727573696F6E20707265766584
:102A00006E7465640A004772616469656E7400548F
:102A10006F67676C65206D6978003A2533643B25E4
:102A200033643B2533642525004D6978004D616989
:102A30006E0053746F7720424C546F756368004D7D
:102A400032383020503020533930004465706C6F7C
:102A50007920424C546F756368004D3238302050F5
:102A6000302053313000424C546F756368205365F9
:102A70006C662D54657374004D3238302050302010
:102A80005331323000526573657420424C546F7577
:102A90006368004D323830205030205331363000DA
:102AA0004D61696E005072696E7420706175736556
:102AB00064004D31323500002573004D3234005032
:102AC00072696E742061626F727465640047323897
:102AD00020585900473930004731204631303030D6
:102AE000205A323000473931004E6F205344206362
:102AF000617264005072696E742066726F6D20534B
:102B0000440053746F70207072696E740052657364
:102B1000756D65207072696E740050617573652003
:102B20007072696E740041626F7574205072696EC4
:102B3000746572004D6978657200436F6E74726FD0
:102B40006C00507265706172650054756E65004965
:102B50006E666F2073637265656E004261627973A1
:102B6000746570205A004D36303020423000434F9B
:102B70004D4D554E49434154494F4E0044525952D0
:102B8000554E004552524F525300494E464F004554
:102B900043484F0050726F746563746564205069D8
:102BA0006E0A00452569202573005072696E7465B0
:102BB000722072656164792E006F6B0048656174E4
:102BC000696E6720646F6E652E0020573A004525B8
:102BD00069202573005072696E7465722072656198
:102BE00064792E0042656420646F6E652E00205764
:102BF0003A004265642048656174696E672E008FF3
:102C00002B8A2B832B7C2B6E2B6F666600444542F0
:102C100055473A00205A3A0020593A0020436F7530
:102C20006E7420583A0020453A00205A3A00205944
:102C30003A00583A00290A57726974652066696C2F
:102C400065206E616D653A20002062797465733B82
:102C5000206372632000506F7765726F6666205341
:102C6000746F72656420280020213D200063726328
:102C7000206572726F723A20000A72656164206684
:102C8000696C65206E616D653A2000290A72656184
:102C9000642066696C65206469723A20002062795C
:102CA0007465733B206372632000706F7765726F89
:102CB00066662073746F7265642073657474696EE0
:102CC00067732072657472696576656420280020D8
:102CD0002863616C63756C6174656429210A002046
:102CE000213D2000454550524F4D20435243206D19
:102CF00069736D61746368202D202873746F726529
:102D000064292000290A002062797465733B2063DE
:102D1000726320002073746F72656420736574742D
:102D2000696E6773207265747269657665642028C0
:102D300000204D61726C696E3D56313231290A00B6
:102D400028454550524F4D3D00454550524F4D206E
:102D500076657273696F6E206D69736D61746368F7
:102D6000200048617264636F646564204465666135
:102D7000756C742053657474696E6773204C6F6151
:102D80006465640A00B80B0000B80B000064000022
:102D9000001027000000009643000096430000A0AA
:102DA000410000C8419A99A0429A99A0420000C8E7
:102DB000430080C543486F6D6520257325732573D7
:102DC000206669727374002066697273740A005A0F
:102DD0000059005800486F6D65200053442063611E
:102DE0007264206F6B0A006F70656E526F6F742093
:102DF0006661696C65640A00766F6C756D652E6935
:102E00006E6974206661696C65640A0053442069C8
:102E10006E6974206661696C0A005654726176208E
:102E20006D696E005654726176206D696E0056545D
:102E3000726176206D696E00566D696E00566D691F
:102E40006E00566D696E00566D6178204500566DB6
:102E50006178204500566D6178204500566D617897
:102E6000205A00566D6178205A00566D6178205ABC
:102E700000566D6178205900566D617820590056D2
:102E80006D6178205900566D6178205800566D614B
:102E900078205800566D61782058004D6F74696F26
:102EA0006E00416D6178204500416D6178204500DC
:102EB000416D6178205A00416D6178205A00416D62
:102EC0006178205900416D6178205900416D617829
:102ED000205800416D6178205800412D7472617650
:102EE000656C00412D74726176656C00412D7265D0
:102EF000747261637400412D726574726163740051
:102F0000416363656C00416363656C004D6F746978
:102F10006F6E0056652D6A65726B0056652D6A6589
:102F2000726B0056652D6A65726B00567A2D6A6564
:102F3000726B00567A2D6A65726B0056792D6A6540
:102F4000726B0056792D6A65726B0056792D6A6531
:102F5000726B0056782D6A65726B0056782D6A6523
:102F6000726B0056782D6A65726B004D6F74696FD5
:102F70006E003A004361703A004D65736820706FCF
:102F8000696E742063616E6E6F7420626520726575
:102F9000736F6C7665640A004D34323120696E635C
:102FA0006F727265637420706172616D65746572B1
:102FB0002075736167650A003A2000207A5F6D69A9
:102FC0006E3A20202D3230207A5F6D61783A2020D1
:102FD00032300A0050726F6265205A204F66667365
:102FE00065740043617365206C696768743A2000FA
:102FF000290A00466978656420706172616D6574A4
:1030000065722062797465733B20637263200046A9
:103010006978656420706172616D657465722028DD
:103020000048565F7365745F6F6B0A00537461727A
:1030300074205A3A202534642E2564206D6D0020BA
:1030400020456E64205A3A202534642E2564206D74
:103050006D00285A203C3D2025642E25642900530C
:1030600074617274206D69783A20253364252520B7
:10307000253364252500285A203E3D2025642E2531
:103080006429002020456E64206D69783A2025333C
:103090006425252025336425250046756C6C206742
:1030A00072616469656E74002533643B2533642561
:1030B00025002020456E64206D69783A0025336430
:1030C0003B2533642525005374617274206D697843
:1030D0003A004772616469656E74002534642E2578
:1030E00064206D6D002020456E64205A3A0025341E
:1030F000642E2564206D6D005374617274205A3AF9
:10310000004772616469656E74206D6978004D696D
:10311000786572004D69783A25336425253B25335F
:103120006425253B25336425250050726F62696E46
:1031300067206661696C65640A0050726F62696E2F
:1031400067206661696C656400205A3A2000205946
:103150003A200042656420583A200053442070729F
:10316000696E74696E67206279746520004E6F74B1
:10317000205344207072696E74696E670A0061752D
:10318000746F25692E67004D3234004D323320258F
:10319000730057726974696E6720746F2066696C7A
:1031A000653A20006F70656E206661696C65642CFD
:1031B0002046696C653A20006F70656E2066616913
:1031C0006C65642C2046696C653A200046696C6524
:1031D0002073656C65637465640A002053697A65C1
:1031E0003A200046696C65206F70656E65643A2010
:1031F000006F70656E206661696C65642C2046699D
:103200006C653A20002066696C653A2000646F693D
:103210006E67006672657368004E6F772000454EDA
:103220004420535542524F5554494E450A002220DE
:10323000706F73002220706172656E743A220053C1
:103240005542524F5554494E452043414C4C2074F1
:1032500061726765743A22004B494C4C45442E20FC
:1032600000747279696E6720746F2063616C6C20E2
:103270007375622D67636F64652066696C65732082
:103280007769746820746F6F206D616E79206C654A
:1032900076656C732E204D4158206C6576656C20E8
:1032A00069733A004572726F723A004D6F7665200D
:1032B00058004D6F76652059004D6F7665205A0095
:1032C0004578747275646572004D6F766520302E96
:1032D000316D6D004D6F766520316D6D004D6F76EF
:1032E000652031306D6D004D6F76652061786973B2
:1032F00000486F74656E6420746F6F20636F6C6438
:10330000004578747275646572004D6F7665205A59
:10331000004D6F76652059004D6F76652058004549
:1033200078747275646572004D6F7665205A004D31
:103330006F76652059004D6F766520580050726594
:103340007061726500526573656E643A20006F6B40
:103350000000E200CC0011241FBECFEFD1E2DEBF9F
:10336000CDBF00E00CBF13E0A0E0B2E0E6E0FAE77A
:1033700002E00BBF02C007900D92A43FB107D9F73E
:1033800029E1A4EFB3E001C01D92A830B207E1F734
:1033900019E1CAEAD9E100E006C021970109802FAE
:1033A000FE010F94613CC93AD10780E00807A9F7F4
:1033B0000F941F1F0D94F23C0C9400002F923F922B
:1033C0004F925F926F927F928F929F92AF92BF9235
:1033D000CF92DF92EF92FF920F931F93CF93DF93E1
:1033E000CDB7DEB7C35AD1090FB6F894DEBF0FBE12
:1033F000CDBF81E090E09093D6098093D50980916C
:1034000047188D3409F4C1C6843511F40C94643521
:10341000873411F00C94B535809145189091461879
:103420008B31910509F400C6D4F4843091055CF425
:1034300082309105ACF597FF02C00C94CC350E9408
:10344000C1480C94CC358430910509F4E9C54A97FC
:1034500011F00C94CC350E94163C0C94CC358A3279
:10346000910509F48EC65CF48D31910509F40DC601
:103470000CF406C64E9709F40CC60C94CC358B356B
:10348000910509F475C68C35910509F476C68A351F
:10349000910511F00C94CC351092F9030C94CC35B5
:1034A00020917F02222311F40C94CC3511E0029775
:1034B00009F010E00E944D4882E50E94B93A882345
:1034C00009F45CC10E94533A6B017C0140900B15DA
:1034D00050900C1560900D1570900E1520910F15E1
:1034E00030911015409111155091121523962CAF63
:1034F0003DAF4EAF5FAF239780912F159091301560
:10350000A0913115B091321527968CAF9DAFAEAF1B
:10351000BFAF279720913315309134154091351561
:103520005091361563962CAF3DAF4EAF5FAF6397AA
:1035300020E030E0A901C701B6010F942D358823A2
:1035400009F454C5A301920127966CAD7DAD8EADF3
:103550009FAD27970F942D35811111C023962CAD67
:103560003DAD4EAD5FAD239763966CAD7DAD8EAD39
:103570009FAD63970F942D35882309F437C520E05C
:1035800030E0A901C701B6010F942D35881F8827A7
:10359000881F18130BC080E090E0A0E8BFE36B9693
:1035A0008CAF9DAFAEAFBFAF6B970AC020E030E0ED
:1035B00040E85FEB6B962CAF3DAF4EAF5FAF6B97C4
:1035C000A301920127966CAD7DAD8EAD9FAD27977F
:1035D0000F9465392F966CAF7DAF8EAF9FAF2F974D
:1035E00023962CAD3DAD4EAD5FAD239763966CAD8C
:1035F0007DAD8EAD9FAD63970F94653967966CAFC7
:103600007DAF8EAF9FAF67972F962CAD3DAD4EAD82
:103610005FAD2F97CA01B9010F9492354B015C0140
:1036200067962CAD3DAD4EAD5FAD6797CA01B90150
:103630000F9492359B01AC01C501B4010F9466391A
:103640000F94D13B2B966CAF7DAF8EAF9FAF2B9776
:1036500020E030E040E05FE30F9492354B015C01E5
:10366000A7019601C701B6010F9492356B017C0149
:10367000A5019401C501B4010F9492359B01AC01E1
:10368000C701B6010F9465390F94D13B9B01AC0182
:103690006B966CAD7DAD8EAD9FAD6B970F949235F3
:1036A0004B015C0127962CAD3DAD4EAD5FAD27972C
:1036B000C301B2010F94663920E030E040E05FE3DF
:1036C0000F9492356B017C0167966CAD7DAD8EAD2C
:1036D0009FAD679790582B962CAD3DAD4EAD5FAD2D
:1036E0002B970F94423A9B01AC01C501B4010F9492
:1036F00092359B01AC01C701B6010F946639A30155
:1037000092010F9465396B017C0163962CAD3DAD40
:103710004EAD5FAD639723966CAD7DAD8EAD9FAD25
:1037200023970F94663920E030E040E05FE30F9488
:1037300092352B013C012B962CAD3DAD4EAD5FADCE
:103740002B972F966CAD7DAD8EAD9FAD2F970F94BF
:10375000423A9B01AC01C501B4010F9492359B0123
:10376000AC01C301B2010F94663923962CAD3DAD77
:103770004EAD5FAD23970F94653914C089E40E9464
:10378000B93A882329F00E94533A6B017C0103C0A7
:10379000C12CD12C76018AE40E94B93A8823F9F031
:1037A0000E94533A63966CAF7DAF8EAF9FAF639725
:1037B00020E030E0A901C701B6010F942D35811139
:1037C0001EC020E030E0A90163966CAD7DAD8EADEA
:1037D0009FAD63970F942D35811111C007C420E070
:1037E00030E0A901C701B6010F942D35882309F4F3
:1037F000FDC363961CAE1DAE1EAE1FAE6397D70110
:10380000C601B05823968CAF9DAFAEAFBFAF239724
:1038100063962CAD3DAD4EAD5FAD63975058279686
:103820002CAF3DAF4EAF5FAF27979C01AD01BC0100
:10383000CD010F9492354B015C0127962CAD3DAD27
:103840004EAD5FAD2797CA01B9010F9492359B0128
:10385000AC01C501B4010F9466390F94D13BA79612
:103860006CAF7DAF8EAF9FAFA79780910B159091F6
:103870000C15A0910D15B0910E152B968CAF9DAF28
:10388000AEAFBFAF2B97A7019601BC01CD010F943E
:1038900066396B966CAF7DAF8EAF9FAF6B97209103
:1038A0000F15309110154091111550911215679612
:1038B0002CAF3DAF4EAF5FAF679763962CAD3DAD7C
:1038C0004EAD5FAD639767966CAD7DAD8EAD9FAD30
:1038D00067970F946639AF966CAF7DAF8EAF9FAF91
:1038E000AF9780912F1590913015A0913115B0911F
:1038F00032156F968CAF9DAFAEAFBFAF6F976B9623
:103900002CAD3DAD4EAD5FAD6B97BC01CD010F94BD
:1039100065396B017C01209133153091341540914C
:10392000351550913615A3962CAF3DAF4EAF5FAF16
:10393000A397AF962CAD3DAD4EAD5FADAF97A396BF
:103940006CAD7DAD8EAD9FADA3970F9465394B01E6
:103950005C018091131590911415A0911515B091EB
:103960001615E3968CAF9DAFAEAFBFAFE3979C014A
:10397000AD0160913715709138158091391590918E
:103980003A150F9465392F966CAF7DAF8EAF9FAF10
:103990002F9720913B1530913C1540913D1550914A
:1039A0003E15AB962CAF3DAF4EAF5FAFAB9780915E
:1039B000171590911815A0911915B0911A15E79641
:1039C0008CAF9DAFAEAFBFAFE797A701960123962F
:1039D0006CAD7DAD8EAD9FAD23970F9492352B01CD
:1039E0003C01A501940127966CAD7DAD8EAD9FADD8
:1039F00027970F9492359B01AC01C301B2010F943C
:103A000066392B013C01A501940123966CAD7DAD77
:103A10008EAD9FAD23970F9492354B015C01A701AA
:103A2000960127966CAD7DAD8EAD9FAD27970F9417
:103A300092359B01AC01C501B4010F946539A30116
:103A400092010F94D9396B017C0120E030E0A9018B
:103A50000F942D3587FF0AC02BED3FE049EC50E471
:103A6000C701B6010F9466396B017C01112351F037
:103A70002BED3FE049EC50E4C701B6010F946539E6
:103A80006B017C0120E030E0A901C701B6010F9471
:103A90002D35811128C06F962CAD3DAD4EAD5FAD7B
:103AA0006F972B966CAD7DAD8EAD9FAD2B970F9420
:103AB0002D35811118C0A3962CAD3DAD4EAD5FAD37
:103AC000A39767966CAD7DAD8EAD9FAD67970F9454
:103AD0002D35811108C04BEDC42E4FE0D42E49EC9A
:103AE000E42E40E4F42EA7962CAD3DAD4EAD5FAD77
:103AF000A797C701B6010F9492359B01AC010F94B3
:103B000092354B015C012F962CAD3DAD4EAD5FADB6
:103B10002F97CA01B9010F9492359B01AC01C501E1
:103B2000B4010F9466390F94D13B4B015C012FE631
:103B300032E143E85AE30F942D3587FD53C2C501A6
:103B4000B4010F94DB3A0F94AF3A1B01672B19F4C1
:103B500022242394312CB10180E090E00F94313580
:103B60004B015C019B01AC01C701B6010F94423AC5
:103B70002B966CAF7DAF8EAF9FAF2B97A5019401B5
:103B80002F966CAD7DAD8EAD9FAD2F970F94423AC1
:103B9000A7966CAF7DAF8EAF9FAFA797E7962CAD82
:103BA0003DAD4EAD5FADE797AB966CAD7DAD8EADE7
:103BB0009FADAB970F946539A50194010F94423ADC
:103BC000AB966CAF7DAF8EAF9FAFAB972B962CAD06
:103BD0003DAD4EAD5FAD2B97CA01B9010F94923543
:103BE00020E030E040E05FE30F9492359B01AC01B0
:103BF00060E070E080E89FE30F9465396F966CAFEA
:103C00007DAF8EAF9FAF6F97E3962CAD3DAD4EADC0
:103C10005FADE39729873A874B875C87E7968CAD42
:103C20009DADAEADBFADE7978D879E87AF87B88B53
:103C300060912D0270912E02072E000C880B990BBB
:103C40000F9433352091990230919A0240919B0252
:103C500050919C020F9492352AE037ED43E25CE3E9
:103C60000F9492356BAF7CAF8DAF9EAF0E9420B8A2
:103C70009B01AC0128533F4F4F4F5F4FA3962CAF92
:103C80003DAF4EAF5FAFA3974FAC21965FAC21978E
:103C900022966FAC229723967FAC239741E050E0A9
:103CA00065965FAF4EAF659759E12C965FAF2C9745
:103CB0006596AEADBFAD6597A215B30509F458C1C1
:103CC0000E94468B0E9420B8DC01CB01A3962CAD4C
:103CD0003DAD4EAD5FADA397821B930BA40BB50B0F
:103CE000B7FD11C00E9420B89B01AC0128533F4F83
:103CF0004F4F5F4FA3962CAF3DAF4EAF5FAFA39733
:103D000080E00E94F2C72C963FAD2C9731502C9644
:103D10003FAF2C97332309F44BC06F962CAD3DADCC
:103D20004EAD5FAD6F9727966CAD7DAD8EAD9FADFF
:103D300027970F9492356B017C012B962CAD3DADEE
:103D40004EAD5FAD2B97B201C3010F949235A70121
:103D500096010F9466396B017C016F962CAD3DADD9
:103D60004EAD5FAD6F97B201C3010F9492354B0119
:103D70005C012B962CAD3DAD4EAD5FAD2B972796DC
:103D80006CAD7DAD8EAD9FAD27970F9492359B01A5
:103D9000AC01C501B4010F9465392B013C01C6018A
:103DA000D70127968CAF9DAFAEAFBFAF279761C04D
:103DB00065964EAD5FAD6597BA0180E090E00F94D7
:103DC00031352B962CAD3DAD4EAD5FAD2B970F949D
:103DD00092354B015C010F943F3A6B017C01C501A8
:103DE000B4010F94C73B4B015C01A70196012396D8
:103DF0006CAD7DAD8EAD9FAD23970F9492352B01A9
:103E00003C01A501940163966CAD7DAD8EAD9FAD77
:103E100063970F9492359B01AC01C301B2010F94DB
:103E200066392B013C01A501940123966CAD7DAD53
:103E30008EAD9FAD23970F9492354B015C01A70186
:103E4000960163966CAD7DAD8EAD9FAD63970F947B
:103E500092359B01AC01C501B4010F9465392796D9
:103E60006CAF7DAF8EAF9FAF279759E12C965FAFB8
:103E70002C979201A3016B966CAD7DAD8EAD9FAD7D
:103E80006B970F94663969837A838B839C8327961B
:103E90002CAD3DAD4EAD5FAD2797AF966CAD7DAD12
:103EA0008EAD9FADAF970F9466396D837E838F8300
:103EB0009887A7962CAD3DAD4EAD5FADA7976985B0
:103EC0007A858B859C850F94663969877A878B877D
:103ED0009C87AB962CAD3DAD4EAD5FADAB976D8580
:103EE0007E858F8598890F9466396D877E878F8749
:103EF000988B80919D02882321F0CE0101960E942B
:103F0000F7C689819A81AB81BC8188A399A3AAA3B2
:103F1000BBA38D819E81AF81B8858CA39DA3AEA3E9
:103F2000BFA389859A85AB85BC8588A799A7AAA7D1
:103F3000BBA7CE0180960E943051E12C8E01055C1A
:103F40001F4F9E01235F3F4FAE01485D5F4FBE0193
:103F50006C5D7F4FCE0180960F944F1865968EADA5
:103F60009FAD6597019665969FAF8EAF6597A0CE82
:103F700080912F1590913015A0913115B091321587
:103F800088A399A3AAA3BBA380913315909134155C
:103F9000A0913515B09136158CA39DA3AEA3BFA3F8
:103FA0008091371590913815A0913915B0913A1537
:103FB00088A799A7AAA7BBA7CE0180960E943051D7
:103FC000E12C8E01055C1F4F2BE335E1AE01485D0E
:103FD0005F4FBE016C5D7F4FCE0180960F944F18EE
:103FE0000E940C3C0E94DF380C94CC35E4EAF2E3EA
:103FF00084918F010F5F1F4F882321F00E94EA38C0
:10400000F801F6CFE3E1F2E084918F010F5F1F4FDB
:10401000882311F40C94CC350E94EA38F801F4CFCF
:104020000E94D5500C94CC350E9453F381110C940E
:10403000CC3580E090E0A0E4B0E489839A83AB8340
:10404000BC838D839E83AF83B88780E090E0A0E23D
:10405000B1E489879A87AB87BC8780E50E94B93A2B
:10406000882319F00E94233A01C060E068A3BE01D2
:104070006F5F7F4FCE0180960E948B8F0C94CC3562
:1040800080E00E94FFA20C94CC350E94AB9E0C9461
:10409000CC35C0900B15D0900C15E0900D15F0901C
:1040A0000E1588E50E94B93A811109C020E030E080
:1040B00044E152E4C701B6010F94653902C00E9481
:1040C000533A68A379A38AA39BA3C0900F15D090FD
:1040D0001015E0901115F090121589E50E94B93A7B
:1040E000811108C020E030E0A901C701B6010F949A
:1040F000663902C00E94533A6B017C0169837A835E
:104100008B839C8388A099A0AAA0BBA02FE632E154
:1041100043E85AEBC501B4010F948C3B87FF02C002
:104120000C94CC3522E430E047E353E4C501B401FC
:104130000F942D35181614F40C94CC352FE632E17B
:1041400043E85AEBC701B6010F948C3B87FF02C0CE
:104150000C94CC3522E430E04CE553E4C701B601C1
:104160000F942D35181614F40C94CC350C94D335CB
:1041700081E08093F9030C94CC350E946B9D0C94E4
:10418000CC350E94D49D0C94CC35809145189091EB
:1041900046188837910509F4B0C70CF0EEC08D348D
:1041A000910509F449C50CF05AC08931910509F40B
:1041B00034C31CF58431910509F4B0C27CF481311B
:1041C000910509F497C22CF4029708F4FFC10C94EE
:1041D000CC35429709F4AFC50C94CC3586319105A6
:1041E00009F4E5C20CF4DFC28731910509F4E5C298
:1041F000489709F4F8C20C94CC358F31910509F435
:104200004CC47CF48B31910509F419C30CF409C337
:104210008C31910509F417C34E9709F41EC30C9411
:10422000CC358133910509F4DEC464F48032910504
:1042300009F422C48A9711F00C94CC350E94C7E788
:104240000C94CC358B34910509F4F2C48C3491056F
:1042500011F00C94CC350E94C0F40C94CC358C3603
:10426000910509F4F5C40CF053C08535910509F4A6
:1042700099C57CF58235910509F454C504F581355D
:10428000910511F00C94CC350E9452880E94FC6874
:104290000E9499C71092A7151092A61568EE73E0B8
:1042A00080E090E00E94FCBB0E94FC680E94224CCF
:1042B00060E08EE393E00E94B0BC0C94CC35833573
:1042C000910509F433C58435910509F434C50C947E
:1042D000CC358936910509F409C56CF48C35910506
:1042E00009F47BC58836910511F00C94CC350E94F9
:1042F00071E70C94CC358A36910509F40BC58B36E1
:10430000910511F00C94CC350E94F4E60C94CC3558
:104310008137910509F4A0C49CF48E36910509F407
:104320008FC40CF4EFC48F36910509F48DC4803727
:10433000910511F00C94CC358EE293E00E94A2C757
:104340008537910509F42BC664F48237910509F489
:10435000CEC58337910511F00C94CC35E2E0F4E042
:10436000CCC58637910509F423C68737910511F02E
:104370000C94CC35E1EEF4E05EC68D32B1E09B07E3
:1043800011F40C949C2E0CF08AC0893C910511F418
:104390000C94A82BD4F58B39910509F4AFC4D4F44F
:1043A0008D37910509F4BAC45CF48937910511F091
:1043B0000C94CC351092340A1092330A0C94CC35FC
:1043C0008C38910509F474C48139910509F49CC6AF
:1043D0000C94CC35863A910511F40C94552A54F47A
:1043E000833A910509F409C7843A910509F480C715
:1043F0000C94CC358E3B910509F488C4883C91051A
:1044000011F40C94602B0C94CC358C3D910511F477
:104410000C94352D24F58C3C910511F40C94E02B73
:1044200084F48B3C910511F00C94CC35BEE4EB2E5A
:10443000B5E1FB2E0CEA12E084E0D82ED00E0C94ED
:10444000D12B8D3C910511F40C944C2C833D91059E
:1044500011F00C94CC35E3E9F2E10C94B92C8831DD
:10446000F1E09F0711F40C94BD2D64F48D3D91058E
:1044700011F40C94442D823E910511F40C948E2D70
:104480000C94CC35823231E0930711F40C94682EF1
:104490008C32914011F40C94732E0C94CC35843AE8
:1044A00051E0950711F40C9489340CF045C0803923
:1044B000B1E09B0711F40C947B34C4F48F32F1E02B
:1044C0009F0711F40C940B3014F40C94B72F803325
:1044D00031E0930711F40C943A2F8336914011F098
:1044E0000C94CC350E945BFB0C94CC35883951E0A0
:1044F000950711F40C94823484F48139B1E09B0760
:1045000011F40C947E348239914011F00C94CC3526
:1045100080E00E94054B0C94CC358939F1E09F076F
:1045200011F40C9486348A39914011F00C94CC35F6
:104530000E94D4FD0C94CC35873F31E0930711F4F1
:104540000C944C35FCF4843F51E0950711F40C9425
:1045500046354CF4853A914011F00C94CC350E94CC
:104560003DFD0C94CC35853FE1E09E0711F40C94A1
:104570004935863F914011F00C94CC350E941BE8E0
:104580000C94CC35803A23E0920709F479C27CF48C
:10459000883542E0940711F40C944F3583359340ED
:1045A00011F00C94CC350E94CAFC0C94CC35873E9B
:1045B000A3E09A0711F40C945235893D974011F00D
:1045C0000C94CC350E94CAFA0C94CC35A0904318B8
:1045D000B090441880E50E94B93A882359F00E94AF
:1045E000C5506B017C0111E0672B682B692B31F4FE
:1045F00010E004C010E0C12CD12C760183E50E94AC
:10460000B93A8823F1F00E94533A20E030E04AE7BB
:1046100054E40F9492350F94AF3A6B017C01111161
:1046200012C0672B682B692B71F4A114B10459F0E7
:10463000F5018081882339F061E0C5010E94D2BC78
:104640000FC0112391F360E089E592E00E94B0BCB5
:1046500010926A1410926B1410926C1410926D14D4
:1046600083E090E09093D6098093D50981E0809310
:1046700069140E94FC680E94DF38C114D104E1046F
:10468000F104F1F080918A1490918B14A0918C1414
:10469000B0918D14C80ED91EEA1EFB1E0E9420B8D0
:1046A000DC01CB018C199D09AE09BF09B7FF1EC003
:1046B000809169148823D1F080E00E94F2C7EECF88
:1046C00080916914882321F080E00E94F2C7F8CF1E
:1046D0008091C30A9091C40A60E0029719F48AE4B9
:1046E00092E002C08BE392E00E94B0BC1092691489
:1046F0000C94CC3560E08CE692E00E94B0BC42980D
:10470000179815982E989FB7F89480910B018D7F7C
:1047100080930B019FBFA0980C94CC35E4E8F2E0A5
:1047200084918F010F5F1F4F882321F00E94EA3888
:10473000F801F6CF1092830D1092820D40E050E008
:10474000BA018CE09BE00E9438518BE1ECE0FBE089
:10475000DE01159601900D928A95E1F780910A0B82
:1047600090910B0B9C838B8382ED92E09A838983DB
:1047700040E050E0BE016F5F7F4F83EC93E00E940A
:104780000C65CE0101960E9486C7E5E7F2E08491B0
:104790008F010F5F1F4F882311F40C94CC350E94BA
:1047A000EA38F801F4CF0E948FEF0C94CC351092C8
:1047B000D30A1092D40A0C94CC35E0914318F091AE
:1047C00044188081882329F0803209F410823196C0
:1047D000F8CF40E061E080914318909144180F9425
:1047E0004D0B0C94CC3519821A821B821C8218A2A4
:1047F00019A21AA21BA28091D709882341F040E098
:10480000BE016F5F7F4FCE0180960E94DB590E94F0
:10481000DF680E94FCF30C94CC350E945E9C0C94E3
:10482000CC358091D40A882311F40C94CC3583E5DF
:104830000E94B93A81110C9426360C94CC350F9411
:104840005C070C94CC3540E060E080914318909177
:1048500044180F944D0B0C94CC358091D40A8823C6
:1048600011F40C94CC3580ED9CE00E943D5280ED1B
:104870009CE00E946F521092D20A1092D10AE090EE
:104880004318F09044188091D40A882311F40C94B2
:10489000CC350E94F1681D8218861C821B8282ED35
:1048A00092E09A83898388E09BE09093280B809321
:1048B000270BD7018C918F3209F067C06FE270E04F
:1048C000C7010F94AF3C8C010F5F1F4FFE01319663
:1048D0004F010115110509F45EC06FE270E0C801D7
:1048E0000F94AF3C6C01009709F456C008171907E4
:1048F00008F052C05C01A01AB10AA501B801CE01AE
:1049000080960F94D83CE0E2F0E0EC0FFD1FEA0D3A
:10491000FB1D10828E01005E1F4FD8018D918D010D
:10492000882319F00E94EA38F8CF8AE00E94EA381A
:104930006091270B7091280B6115710511F06C5F68
:104940007F4F21E0AE01405E5F4FCE0105960E9491
:104950001158811112C0BE01605E7F4F8BEB92E057
:104960000F945F168EE20E94EA388AE00E94EA38CD
:10497000C4010E9486C70C94CC359092280B80927B
:10498000270B86010F5F1F4FA4CF89E29BE0909316
:10499000280B8093270B87016091270B7091280BC0
:1049A0006115710511F06C5F7F4F18A21BA222E008
:1049B000A801CE0180960E941158811102C0F12CED
:1049C00014C0CE0180960E947A648823C1F361E00E
:1049D000CE0180960E942152009789F325EEFC01BA
:1049E00020831BA20E9409B2F82ECE0180960E945D
:1049F0002251FF2019F1E5E9F2E084917F012FEFC8
:104A0000E21AF20A882321F00E94EA38F701F5CF72
:104A1000D8018D918D01882319F00E94EA38F8CFD2
:104A20008AE00E94EA381092040B1092050B109253
:104A3000060B1092070B0E94A56718C0E3EAF2E08C
:104A400084917F01BFEFEB1AFB0A882321F00E94BB
:104A5000EA38F701F5CFF80181918F01882319F029
:104A60000E94EA38F8CF8EE20E94EA38CE01019621
:104A70000E9486C70C94CC350E94229C0C94CC35A5
:104A8000809143189091441821E02093D20A40E08D
:104A900060E00F944D0B0C94CC350E941B642CE30A
:104AA000C22ED12CE12CF12CA70196010F940839CC
:104AB000762E672ECA01B901A70196010F94083915
:104AC0006B017C01CA01B90128E130E040E050E00F
:104AD0000F9408394B015C01C9016DE671E00F9438
:104AE0003A3C8E010F5F1F4F6115710599F06F926F
:104AF0007F92DF92CF929F928F929F938F937F931B
:104B00006F9387EF92E09F938F931F930F930F9470
:104B1000C63412C00097B1F06F927F92DF92CF92AD
:104B20009F928F929F938F9387EE92E09F938F93A4
:104B30001F930F930F94C6340FB6F894DEBF0FBEC9
:104B4000CDBF36C081149104A104B10479F06F92F5
:104B50007F92DF92CF929F928F928BED92E09F9304
:104B60008F931F930F930F94C634E6CFC114D104D3
:104B7000E104F10469F06F927F92DF92CF9283EDAE
:104B800092E09F938F931F930F930F94C634D4CFCB
:104B90006F927F928FEC92E09F938F931F930F936E
:104BA0000F94C6340F900F900F900F900F900F90AE
:104BB00060E0C8010E94D2BCE3E9F2E184917F0188
:104BC000BFEFEB1AFB0A882321F00E94EA38F701B5
:104BD000F5CFB8018BE093E00F945F168AE00E9456
:104BE000EA380C94CC35F090F40381E0F826F0928A
:104BF000F403E3E2F3E084918F010F5F1F4F8823FA
:104C000021F00E94EA38F801F6CFF11003C0EDE17F
:104C1000F3E002C0E8E1F3E084918F010F5F1F4FE2
:104C2000882311F40C94CC350E94EA38F801F4CFB3
:104C30000E94FCF30C94CC350E94EE610C94CC35B0
:104C40000E9485E30C94CC350E940EE30C94CC3585
:104C5000109291020C94CC3583E50E94B93A8823D6
:104C600069F00E94333A8D3320F480938C020C94C7
:104C7000CC358CE380938C020C94CC35E3E9F2E1E3
:104C800084918F010F5F1F4F882321F00E94EA3823
:104C9000F801F6CF40918C0250E060E070E087E3CD
:104CA00093E00F94EF158AE00E94EA380C94CC351B
:104CB0008091B61483FF02C00C94CC3583E50E942A
:104CC000B93A882311F40C94CC350E94533A0F94CE
:104CD000AA3A6E37710514F06DE770E07093A31572
:104CE0006093A2150E94BC870C94CC350E9454E7B7
:104CF0001092D6091092D5090C944F380E9426E7DD
:104D00000C94CC350E942CE50C94CC350E9495E394
:104D10000C94CC350E9403E70C94CC350E940AFE1B
:104D20000C94CC351092F8030C94CC3581E0809330
:104D3000F8030C94CC3583E50E94B93A8823A1F09E
:104D40000E94533A20E030E04AE754E40F94923551
:104D50000F94AF3A60938D0270938E0280938F020E
:104D6000909390020C94CC3588E50E948A3A811188
:104D70000C94363689E50E948A3A81110C943636B5
:104D80008AE50E948A3A81110C94363685E40E94A5
:104D90008A3A81110C9436360E94FC680E9499C7A9
:104DA0000C94CC3583E50E948A3A882311F40C9444
:104DB000CC350E94533A20E030E04AE754E40F94A7
:104DC00092350F94AF3A60938E1470938F14809342
:104DD0009014909391140C94CC351CEAC12E12E0DF
:104DE000D12E0BE1E02E05E1F02E10E0F6018191CD
:104DF0006F010E948A3A882309F46EC0133009F0CB
:104E000063C00E94533A4B015C0120E030E040EA6D
:104E100051E40F942D3587FF4EC0A5019401609198
:104E20002715709128158091291590912A150F94B6
:104E3000423A2B013C019B01AC01609186157091B7
:104E4000871580918815909189150F9492356093FC
:104E50008615709387158093881590938915A30103
:104E6000920160915A1570915B1580915C1590913B
:104E70005D150F94923560935A1570935B1580936E
:104E80005C1590935D1560911E1870911F188091AC
:104E90002018909121180F943135A30192010F949D
:104EA00092350F94AF3A60931E1870931F18809339
:104EB0002018909321188092271590922815A0927F
:104EC0002915B0922A1508C00E94533AD7016D9354
:104ED0007D938D939C9313971F5FB4E0EB0EF11CB1
:104EE000143009F083CF0F94E4170C94CC350E9452
:104EF000FC680E9440E20C94CC3584918F010F5FD6
:104F00001F4F882321F00E94EA38F801F6CF60E0B5
:104F100082EF93E00E9493FE61E08BEE93E00E94AB
:104F200093FE61E080EE93E00E9493FE61E080EDED
:104F300093E00E9493FE60E087EC93E00E9493FE72
:104F400061E08DEB93E00E9493FE61E083EB93E0E0
:104F50000E9493FE61E08BEA93E00E9493FE61E081
:104F60008DE993E00E9493FE60E08FE893E00E9459
:104F700093FE60E080E893E00E9493FE61E082E7A8
:104F800093E00E9493FE61E08CE593E00E9493FE23
:104F900060E08BE493E00E9493FE0C94CC3560E0DB
:104FA00080914318909144180E94D2BC0C94CC3547
:104FB00085E40E94B93A882319F00E94443A03C05C
:104FC00085E40E948A3A882361F0E3E9F2E1849162
:104FD0008F010F5F1F4F882321F00E94EA38F801EC
:104FE000F6CF81E40E94B93A882319F00E94443A2E
:104FF00003C081E40E948A3A882361F0E5ECF4E082
:1050000084918F010F5F1F4F882321F00E94EA389F
:10501000F801F6CF0091431810914418F8018191DE
:105020008F01882319F00E94EA38F8CF8AE00E94A5
:10503000EA380C94CC3584918F010F5F1F4F882381
:1050400021F00E94EA38F801F6CFE9EDF4E084910E
:105050008F010F5F1F4F882321F00E94EA38F8016B
:10506000F6CF029B03C00AE213E002C00FE213E096
:10507000D8018D918D01882319F00E94EA38F8CF6C
:105080008AE00E94EA38E1EDF4E084918F010F5F3D
:105090001F4F882321F00E94EA38F801F6CF069BC3
:1050A00003C00AE213E002C00FE213E0F8018191AD
:1050B0008F01882319F00E94EA38F8CF8AE00E9415
:1050C000EA38E9ECF4E084918F010F5F1F4F8823E9
:1050D00021F00E94EA38F801F6CF379903C00AE2BE
:1050E00013E002C00FE213E0D8018D918D018823F7
:1050F00009F49CCF0E94EA38F7CF81E08093340A0C
:105100008093330A0C94CC3583E50E94B93A882306
:1051100019F00E94233A02C060E070E08B01112771
:1051200002301105D4F0E4EAF2E384918F010F5FBD
:105130001F4F882321F00E94EA38F801F6CFEBEFE9
:10514000F4E084918F010F5F1F4F882311F40C94BA
:10515000CC350E94EA38F801F4CF88E40E94B93ACD
:105160008823A1F00E94233A6A3A710534F06B3F1C
:1051700071052CF06AEF70E002C06AEA70E0F80195
:10518000EE0FFF1FEC59FC4E7183608386E40E9492
:10519000B93A8823A9F00E94233AF801EE0FFF1FC5
:1051A000E859FC4E718360836F3F710519F014F06C
:1051B0006FEF70E077FF02C060E070E071836083A2
:1051C00082E40E94B93A882311F40C94CC350E94F1
:1051D000233A6530710534F06F3671052CF06EE6B8
:1051E00070E002C065E070E0000F111FF801E05AA6
:1051F000FC4E718360830C94CC3583E50E94B93AF0
:10520000882349F00E94233A8B016330710514F022
:105210000C94CC3502C000E010E080E50E94B93A61
:10522000882341F10E94533A6B017C0120E030E079
:10523000A9010F942D3587FD1DC02DEB37E346E8FE
:1052400055EBC701B6010F948C3B87FD0AC02DEBCF
:1052500037E346E855E3C701B6010F942D3518161C
:105260007CF4A701960160E070E080E89FE30F9472
:10527000423A09C0C12CD12C7601C701B60103C046
:1052800060E070E0CB01F801EE0FFF1FEE0FFF1F93
:10529000EE59FA4F60837183828393830115110560
:1052A00089F420E030E048EC52E4C701B6010F94E5
:1052B00092350F94AF3A70E07093F9176093F81736
:1052C0000C94CC350130110511F00C94CC3520E054
:1052D00030E048EC52E4C701B6010F9492350F94C8
:1052E000AF3A70E07093FB176093FA170C94CC35CB
:1052F00083E50E94B93A882349F00E94233A8B0142
:105300006031710514F00C94CC3502C000E010E05F
:1053100032E6A32E35E0B32EC12CD12C7601F50157
:1053200041905190619071905F012DEB37E346E819
:1053300055EBC301B2010F948C3B87FD0AC02DEBE6
:1053400037E346E855E3C301B2010F942D35181633
:105350005CF4A301920160E070E080E89FE30F94A9
:10536000423A9B01AC0103C020E030E0A901C70133
:10537000B6010F9466396B017C01FEE6AF16F5E0CD
:10538000BF0669F620E030E040E85FE30F9465393E
:105390004B015C012DEB37E346E855EB0F948C3B5A
:1053A00087FF03C0EDE1F5E038C02DEB37E346E8B9
:1053B00055E3C501B4010F942D3518169CF38CE00C
:1053C000809FF001819FF00D1124EA58FB4F8091DE
:1053D000620590916305A0916405B0916505808395
:1053E0009183A283B3838091660590916705A09114
:1053F0006805B091690584839583A683B7838091FE
:105400006A0590916B05A0916C05B0916D05808740
:105410009187A287B3870C94CC3584915F012FEFDD
:10542000A21AB20A882321F00E94EA38F501F5CFCA
:10543000A7019601609162057091630580916405F2
:10544000909165050F9492356093620570936305A2
:105450008093640590936505A701960160916605A8
:105460007091670580916805909169050F94923558
:10547000609366057093670580936805909369054E
:10548000A701960160916A0570916B0580916C058A
:1054900090916D050F94923560936A0570936B053A
:1054A00080936C0590936D058ACF83E50E948A3ABC
:1054B000882321F00E94443A182F02C0109126023E
:1054C00081E40E94B93A882351F00E94533A6093D4
:1054D0001C0270931D0280931E0290931F028AE5A6
:1054E0000E94B93A882351F00E94533A60932002F7
:1054F00070932102809322029093230280E50E9400
:10550000B93A882389F00E94233A77FD08C00E94A7
:10551000233A653671052CF40E94233A03C060E0FB
:1055200001C064E66093240281E50E94B93A8823B1
:1055300089F00E94233A77FD08C00E94233A65361D
:1055400071052CF40E94233A03C060E001C064E6B8
:1055500060932502F090240200912502F016A1F03C
:105560002091200230912102409122025091230289
:1055700060911C0270911D0280911E0290911F0289
:105580000F942D35811101C010E081E08093260237
:105590008EE690E09093F9178093F817F092FC173D
:1055A0000093FD1780911C0290911D02A0911E0294
:1055B000B0911F028093FE179093FF17A0930018DD
:1055C000B09301188091200290912102A0912202B3
:1055D000B09123028093021890930318A0930418AB
:1055E000B0930518E5E7F5E084917F013FEFE31AFA
:1055F000F30A882321F00E94EA38F701F5CF1093CF
:105600002602112309F44FC040911C0250911D0243
:1056100060911E0270911F0287E695E00F94291693
:1056200060912402062E000C770B84E695E00F941F
:1056300046168091240204E610E0B801681B710947
:1056400087FD739581E695E00F9446164091200200
:1056500050912102609122027091230289E595E028
:105660000F94291660912502062E000C770B86E513
:1056700095E00F94461680912502B801681B7109C8
:1056800087FD739583E595E00F944616E0E5F5E018
:1056900084918F010F5F1F4F882309F4C7CC0E94AC
:1056A000EA38F801F5CFE1E7F5E084918F010F5F6B
:1056B0001F4F882309F4BACC0E94EA38F801F5CFCD
:1056C00088EC90E00E94E24B81110C94CC3584E48C
:1056D0000E948A3A8823C1F10E94533A11E020E0E7
:1056E00030E0A9010F942D35811101C010E0109315
:1056F0000B14112349F10E94533AE091A51344E0A1
:10570000E49FF0011124E95FFB4E60837183828383
:10571000938320E030E0A901609107147091081490
:105720008091091490910A140F942D3581110CC0A9
:1057300080E090E0A0EEBFE38093071490930814FC
:10574000A0930914B0930A140E9478CD0C94CC3520
:105750009EE5E92E95E1F92E0CEA12E024E0D22E26
:10576000D00ED8018D918D010E948A3A882349F08C
:105770000E94533A0F94AF3AF7016083718382839A
:105780009383F4E0EF0EF11CD012EBCF0F94B71619
:105790000C94CC35F4E0EF0EF11CD01611F40C94FF
:1057A000CC35D8018D918D010E948A3A882391F3DE
:1057B0000E94533AF7016083718382839383EACF17
:1057C00083E50E948A3A8823D9F00E94533AAB01BC
:1057D000BC014093761550937715609378157093BC
:1057E000791540936E1550936F15609370157093F3
:1057F00071158DED95E00F9429168AE00E94EA3824
:1058000080E50E948A3A882399F00E94533AAB01BE
:10581000BC0140937615509377156093781570937B
:10582000791580EC95E00F9429168AE00E94EA38F9
:1058300082E50E948A3A882399F00E94533AAB018C
:10584000BC01409372155093731560937415709357
:10585000751581EA95E00F9429168AE00E94EA38CE
:1058600084E50E948A3A882311F40C94CC350E9476
:10587000533AAB01BC0140936E1550936F15609382
:1058800070157093711583E895E00F9429168AE0DE
:105890000E94EA380C94CC3583E50E948A3A88232A
:1058A00051F00E94533A60934A1570934B158093C0
:1058B0004C1590934D1584E50E948A3A882351F047
:1058C0000E94533A6093461570934715809348158C
:1058D0009093491582E40E948A3A882351F00E94ED
:1058E000C5506093A6147093A7148093A814909346
:1058F000A91488E50E948A3A882351F00E94533AFD
:1059000060937A1570937B1580937C1590937D1529
:1059100089E50E948A3A882351F00E94533A6093A5
:105920007E1570937F1580938015909381158AE57D
:105930000E948A3A882351F00E94533A609382155C
:1059400070938315809384159093851585E40E9448
:105950008A3A882311F40C94CC350E94533A609310
:1059600086157093871580938815909389150C94EC
:10597000CC3584918F010F5F1F4F882321F00E9447
:10598000EA38F801F6CF83E50E948A3A882321F0AD
:105990000E94443A80939D02EDE2F6E084918F01EB
:1059A0000F5F1F4F882321F00E94EA38F801F6CFDD
:1059B00080919D02811103C0E9E2F6E002C0E5E2B8
:1059C000F6E084918F010F5F1F4F882321F00E9422
:1059D000EA38F801F6CFEDE1F6E084918F010F5F30
:1059E0001F4F882321F00E94EA38F801F6CF40E0EB
:1059F00050E0BA018BE196E00F94291640E050E0A8
:105A0000BA0188E196E00F94291640E050E0BA010F
:105A100085E196E00F942916EDE0F6E084918F0180
:105A20000F5F1F4F882321F00E94EA38F801F6CF5C
:105A300040E050E06CE573E48BE096E00F942916AB
:105A400040E050E06CE573E488E096E00F9429169E
:105A500040E050E062E873E485E096E00F94291698
:105A60008AE00E94EA380C94CC3583E50E94B93A6A
:105A7000882311F40C94CC350E94233A70932E02A3
:105A800060932D020C94CC358DED90E00E94E24B9A
:105A900081110C94CC3583E50E94B93A882311F426
:105AA0000C94CC350091A51310E00E94233A000F0E
:105AB000111FF801E55DFD4F718360838091A5138F
:105AC00090E08C01000F111F000F111F9801295D3C
:105AD0003D4F7901880F991FFC01E55DFD4F608105
