:100000000C945C1D0C948D1D0C948D1D0C948D1DF9
:100010000C948D1D0C948D1D0C948D1D0C948D1DB8
:100020000C948D1D0C948D1D0C948D1D0C948D1DA8
:100030000C948D1D0C948D1D0C948D1D0C948D1D98
:100040000C948D1D0C940D8D0C948D1D0C948D1D98
:100050000C948D1D0C948D1D0C94EFF70C94A6FD43
:100060000C948D1D0C94BB450C948D1D0C948D1D12
:100070000C948D1D0C948D1D0C948D1D0C948D1D58
:100080000C94F6960C948D1D0C948D1D0C948D1D66
:100090000C948D1D0C948D1D0C948D1D0C948D1D38
:1000A0000C948D1D0C948D1D0C94C8960C948D1D74
:1000B0000C948D1D0C948D1D0C948D1D0C949A9692
:1000C0000C948D1D0C948D1D0C948D1D0C948D1D08
:1000D0000C948D1D0C948D1D0C948D1D0C948D1DF8
:1000E0000C948D1D5A7263726D7276727F729A7261
:1000F000A772B072887291726EFB71FB60FB64FB39
:100100006AFBA8FB75FB79FB7FFB83FB87FB8DFB01
:1001100091FB95FBA8FB9BFB9FFBA3FBC2FCC7FCD1
:10012000CCFCD6FCE0FC59FDEAFCF2FCFAFC04FD38
:100130000EFD18FD27FD31FD59FD3BFD45FD4FFD31
:10014000084AD73B3BCE016E84BCBFFDC12F3D6C3E
:1001500074319ABD56833DDA3D00C77F11BED9E4A4
:10016000BB4C3E916BAAAABE000000803F05A84C84
:10017000CDB2D44EB93836A9020C50B99186880850
:100180003CA6AAAA2ABE000000803F000D94601E73
:100190000D948D0C0D94201A0D94631E0D94F31084
:1001A0000D945C1E0D945D1E0D94C80F0D94C23904
:1001B0000D94181C0D949C120D940D0F0D940E0EA1
:1001C0000D94221A0D9433210D940D360D9429218E
:1001D0000D9478180D945B210D9451210D94F82203
:1001E0000D942E0D0D94A0110D94F3220D945D1419
:1001F0000D94EE220D9438210D9496210D94C6177E
:100200000D9456210D94DD150D94C6160D942E21D6
:100210004E414E494E495459494E46CDCCCC3D0AEB
:10022000D7233C17B7D13877CC2B329595E6241FCE
:10023000B14F0A000020410000C84200401C462087
:10024000BCBE4CCA1B0E5AAEC59D7454454D5020C1
:10025000544F4F204C4F57210047322F47332062D5
:10026000616420706172616D65746572730A005318
:100270006C6565702E2E2E00202844525952554E22
:100280002900473239204175746F20426564204C43
:100290006576656C696E670028422961636B00288A
:1002A0004629726F6E7400285229696768740028A5
:1002B0004C29656674003F2856296572626F736524
:1002C000206C6576656C20697320696D706C617552
:1002D0007369626C652028302D34292E0A00426132
:1002E00064205A2076616C75650A004E6F20626941
:1002F0006C696E65617220677269640A00205A3AFF
:10030000200020593A200042656420583A20004DD0
:1003100065736820706F696E742063616E6E6F74B0
:10032000206265207265736F6C7665640A005265A1
:1003300073756D696E67207072696E7400507269B2
:100340006E7465722072656164792E00436C696316
:100350006B20746F20726573756D652E2E2E004EA6
:100360006F206D6F76652E00456E642066696C6542
:10037000206C6973740A00426567696E2066696C57
:1003800065206C6973740A002569730025696D2006
:10039000256973002569682025696D20256973002A
:1003A000256964202569682025696D202569730009
:1003B00025697920256964202569682025696D20D3
:1003C000256973005072696E742074696D653A20F6
:1003D0000050726F7465637465642050696E0A0022
:1003E0004B494C4C45442E200042656420646F6E9E
:1003F000652E0020573A00426564204865617469A3
:100400006E672E00000125272318FF1F211D1CFFEA
:1004100019171B1EFFFF0C0409FFFFFF2E2C0CFFFA
:10042000FF312F302B2D2904400AFF41FFFFFFFF32
:10043000FFFF206F7574206F662072616E67650A1A
:1004400000536572766F20003A2000205365727663
:100450006F200020643A0020693A0020703A00437F
:10046000290A0061626C656420286D696E207465DC
:100470006D702000436F6C642065787472756465DC
:10048000732061726520004B6420002364656669F7
:100490006E65202044454641554C545F004B692011
:1004A0000023646566696E65202044454641554CCD
:1004B000545F004B70200023646566696E652020E0
:1004C00044454641554C545F0050494420417574A1
:1004D0006F74756E652066696E6973686564212046
:1004E00050757420746865206C617374204B702C97
:1004F000204B6920616E64204B6420636F6E7374BF
:10050000616E74732066726F6D2062656C6F772008
:10051000696E746F20436F6E666967757261746986
:100520006F6E2E680A00504944204175746F7475CF
:100530006E65206661696C6564212074696D656F04
:1005400075740A00544845524D414C2052554E4155
:1005500057415900546865726D616C2052756E6127
:100560007761790048656174696E67206661696CBE
:1005700065640048656174696E67206661696C65D1
:100580006400504944204175746F74756E6520662F
:1005900061696C6564212054656D70657261747564
:1005A000726520746F6F20686967680A00204B6469
:1005B0003A2000204B693A2000204B703A20000A74
:1005C00020436C617373696320504944200A002002
:1005D00054753A2000204B753A2000206D61783A1E
:1005E0002000206D696E3A200020643A20002062CD
:1005F0006961733A20004F66660A004661646520AF
:100600004865696768742000426564204C657665BA
:100610006C696E6720004661696C656420746F20A8
:10062000656E61626C6520426564204C6576656C20
:10063000696E670A004D65736820706F696E74207B
:1006400063616E6E6F74206265207265736F6C7685
:1006500065640A004D34323120696E636F727265D1
:10066000637420706172616D657465722075736169
:1006700067650A003A2000207A5F6D696E3A202093
:100680002D3230207A5F6D61783A202032300A00B6
:1006900050726F6265205A204F666673657400431E
:1006A000617365206C696768743A2000556E6B6EE3
:1006B0006F776E20636F6D6D616E643A2022004D1E
:1006C0006573682056616C69646174696F6E20534C
:1006D000746F707065642E00696E206D6F76655F53
:1006E000746F282920666565645F76616C75652086
:1006F000666F722058593A004C656176696E6720C2
:10070000473236004732362048656174696E67208B
:100710004E6F7A7A6C652E004732362048656174D8
:10072000696E67204265642E00446F6E65205072CA
:10073000696D696E6700446F6E65205072696D69FE
:100740006E67004669786564204C656E6774682042
:100750005072696D652E00557365722D436F6E740E
:10076000726F6C6C6564205072696D65002C206539
:10077000793D0029202D3E202865783D002C2073EE
:10078000793D0020436F6E6E656374696E672077F4
:1007900069746820766572746963616C206C696E37
:1007A00065202873783D002C2065793D0029202D97
:1007B0003E202865783D002C2073793D0020436F52
:1007C0006E6E656374696E67207769746820686F00
:1007D00072697A6F6E74616C206C696E6520287323
:1007E000783D004C656176696E6720473236002C93
:1007F0002079693D00202020446F696E672063697D
:1008000072636C652061743A202878693D003F531B
:10081000706563696669656420582C5920636F6F41
:100820007264696E617465206F7574206F662062F2
:100830006F756E64732E0A003F28522965706561DA
:10084000742076616C7565206E6F7420706C6175B4
:100850007369626C653B206D7573742062652061FD
:1008600074206C6561737420312E0A003F537065EB
:10087000636966696564206E6F7A7A6C6520746559
:100880006D7065726174757265206E6F7420706C26
:1008900061757369626C652E0A003F537065636908
:1008A000666965642066696C616D656E7420736944
:1008B0007A65206E6F7420706C61757369626C6507
:1008C0002E0A003F53706563696669656420707223
:1008D000696D65206C656E677468206E6F7420703A
:1008E0006C61757369626C652E0A003F53706563B5
:1008F0006966696564206E6F7A7A6C652073697ABF
:1009000065206E6F7420706C61757369626C652E02
:100910000A003F53706563696669656420526574B7
:1009200072616374696F6E204D756C7469706C6967
:100930006572206E6F7420706C61757369626C658E
:100940002E0A003F52657472616374696F6E204DA8
:10095000756C7469706C696572206D757374206252
:1009600065207370656369666965642E0A003F538C
:100970007065636966696564206C61796572206879
:100980006569676874206E6F7420706C6175736937
:10099000626C652E0A003F53706563696669656421
:1009A000206265642074656D70657261747572652E
:1009B000206E6F7420706C61757369626C652E0AAD
:1009C0000047323620636F6D6D616E642073746111
:1009D000727465642E2057616974696E6720666F52
:1009E00072206865617465722873292E0A004C694B
:1009F0006E65204E756D626572206973206E6F742E
:100A0000204C617374204C696E65204E756D626573
:100A1000722B312C204C617374204C696E653A2026
:100A2000004B494C4C45442E200053544F505045E8
:100A3000442E20005072696E7465722073746F705A
:100A40007065642064756520746F206572726F72C2
:100A5000732E2046697820746865206572726F7203
:100A600020616E6420757365204D39393920746FAB
:100A700020726573746172742E202854656D7065E0
:100A80007261747572652069732072657365742E66
:100A900020536574206974206166746572207265E4
:100AA0007374617274696E67290A004E6F2043681F
:100AB00065636B73756D2077697468206C696E650A
:100AC000206E756D6265722C204C617374204C69C8
:100AD0006E653A2000636865636B73756D206D69A0
:100AE000736D617463682C204C617374204C696E63
:100AF000653A20004D313130004D3331004731200F
:100B000046313030302059323130004732382058A9
:100B1000590053442072656164206572726F720AD5
:100B200000446F6E65207072696E74696E6720662E
:100B3000696C650A0020496E76616C69642065788D
:100B4000747275646572200053544F505045442EA2
:100B500020005072696E7465722073746F707065D6
:100B6000642064756520746F206572726F72732ED5
:100B70002046697820746865206572726F72206102
:100B80006E6420757365204D39393920746F207279
:100B90006573746172742E202854656D706572617E
:100BA000747572652069732072657365742E2053A5
:100BB000657420697420616674657220726573744F
:100BC000617274696E67290A0053544F5020636143
:100BD0006C6C65642062656361757365206F662067
:100BE000424C546F756368206572726F72202D20BD
:100BF000726573746172742077697468204D393935
:100C0000390A0042696C696E656172204C657665CF
:100C10006C696E6720477269643A0A00200D466964
:100C200078656420706172616D65746572206E62B2
:100C3000797465733B20637263206572726F7220F2
:100C400000200D0A466978656420706172616D65E7
:100C50007465722062797465733B206372632065EA
:100C600072726F722000290A002062797465733BEA
:100C70002063726320004669786564207061726148
:100C80006D657465722028002068617264776172F6
:100C9000652076657273696F6E3A004B494C4C451E
:100CA000442E2000202D20496E76616C69642065F9
:100CB00078747275646572206E756D62657220213C
:100CC0000A001FFFFFFFFFFFFF600000000001FFA1
:100CD000400000000000FF8000000000007F83CF84
:100CE00000000C303F87FF80000C301F86798000A9
:100CF0000C000F8C30C7838C30E78C30CFC7CC31E1
:100D0000F38C30DCECEC33B98C30D86C6C33198C50
:100D100030D06C0C33198C30D86C0C33198C30DC1F
:100D20006C0E3B198C30CF7C079F198C30C77C032D
:100D30008F19400000000000026000000000000663
:100D40001FFFFFFFFFFFF82020506C616E6E657281
:100D500042756666657242797465733A2000204672
:100D6000726565204D656D6F72793A2000436F6D35
:100D700070696C65643A204D6172203132203230E6
:100D800032300A00207C20417574686F723A202846
:100D90006E6F6E652C2064656661756C7420636F80
:100DA0006E666967290A00323031372D31322D32B3
:100DB000352031323A303000204C61737420557048
:100DC00064617465643A2000312E312E380A004D7A
:100DD00061726C696E0020536F6674776172652072
:100DE00052657365740A00205761746368646F67A5
:100DF0002052657365740A002042726F776E206F0F
:100E000075742052657365740A00204578746572A4
:100E10006E616C2052657365740A00506F7765725D
:100E200055700A0073746172740A006572726F7291
:100E30002077726974696E6720746F2066696C65CB
:100E40000A00456E6473746F7073202563202563F8
:100E500020256320256300205A3A0020593A0020BB
:100E6000583A00656E6473746F7073206869743AE1
:100E7000200047323820580066696C616D656E74D9
:100E8000206F75740A004D33322053256C75202174
:100E90002573004D33322053256C7520212F257387
:100EA0002F2573004730204631303030205A2575C9
:100EB0002E25750047323820590047323820580017
:100EC0004D313036202053323535004D3130392008
:100ED000543020532575004D31393020532575008D
:100EE000446F6E6520736176696E672066696C6514
:100EF0002E0A004D3239004572726F722077726986
:100F000074696E6720746F20454550524F4D210A19
:100F100000290A002062797465733B2063726320A4
:100F20000053657474696E67732053746F726564DF
:100F3000202800290A57726974652066696C65204B
:100F40006E616D653A20002062797465733B2063A1
:100F500072632000506F7765726F66662053746FFE
:100F600072656420280053442063617264206F6BB3
:100F70000A006F70656E526F6F74206661696C65F0
:100F8000640A00766F6C756D652E696E69742066F3
:100F900061696C65640A00534420696E6974206657
:100FA00061696C0A006175746F25692E67004D32A6
:100FB00034004D32332025730057726974696E67AF
:100FC00020746F2066696C653A20006F70656E2032
:100FD0006661696C65642C2046696C653A20006F17
:100FE00070656E206661696C65642C2046696C656D
:100FF0003A200046696C652073656C6563746564AE
:101000000A002053697A653A200046696C65206FB2
:1010100070656E65643A20006F70656E2066616968
:101020006C65642C2046696C653A20002066696C0A
:10103000653A2000646F696E6700667265736800C8
:101040004E6F772000454E4420535542524F555421
:10105000494E450A002220706F7300222070617291
:10106000656E743A2200535542524F5554494E45CD
:101070002043414C4C207461726765743A22004BE6
:10108000494C4C45442E2000747279696E67207477
:101090006F2063616C6C207375622D67636F64658C
:1010A0002066696C6573207769746820746F6F209F
:1010B0006D616E79206C6576656C732E204D41589C
:1010C000206C6576656C2069733A004572726F72A8
:1010D0003A0020204E6F7A7A6C653A200020006634
:1010E000696C616D656E7420756E6C6F616400571C
:1010F00061697420666F72005052494E542050410D
:10110000555345440020204E6F7A7A6C653A200092
:101110002000506C6561736520776169742E2E2EF6
:101120000048656174696E67206E6F7A7A6C65003D
:101130005052494E54205041555345440020204EB2
:101140006F7A7A6C653A2000200068656174206EC1
:101150006F7A7A6C652E00507265737320627574B5
:10116000746F6E20746F005052494E542050415598
:101170005345440020204E6F7A7A6C653A20007403
:101180006F20636F6E74696E75652E2E2E00616E12
:101190006420707265737320627574746F6E004999
:1011A0006E736572742066696C616D656E74005053
:1011B00052494E54205041555345440020204E6F13
:1011C0007A7A6C653A2000200066696C616D656E04
:1011D00074206C6F6164005761697420666F7200DF
:1011E0005052494E54205041555345440020204E02
:1011F0006F7A7A6C653A2000200066696C616D65D3
:101200006E74206578747275646500576169742026
:10121000666F72005052494E542050415553454418
:1012200000746F20726573756D6500576169742075
:10123000666F72207072696E74005052494E54206D
:1012400050415553454400526573656E643A200021
:101250006F6B0020746F6F206C6F6E672065787401
:10126000727573696F6E2070726576656E746564F1
:101270000A0020636F6C6420657874727573696FFF
:101280006E2070726576656E7465640A00627573AF
:10129000793A2070617573656420666F7220696E9B
:1012A0007075740A00627573793A207061757365A0
:1012B0006420666F7220757365720A0062757379B7
:1012C0003A2070726F63657373696E670A004B49E9
:1012D0004C4C45442E20004B494C4C2063617573A7
:1012E000656420627920746F6F206D756368206972
:1012F0006E6163746976652074696D65202D206365
:10130000757272656E7420636F6D6D616E643A20E4
:1013100000506C656173652072657365740050528E
:10132000494E5445522048414C544544005072693E
:101330006E7465722068616C7465642E206B696CD4
:101340006C28292063616C6C6564210A0020643A72
:101350000020693A0020703A00000000000000A060
:10136000C00000000000007042000070420000C099
:1013700040000000005761726E696E673A20486F46
:101380006D696E672042756D702044697669736F70
:1013900072203C20310A000202040000A04000003C
:1013A000A0400000004000007A4300007F4300009E
:1013B0007A43FFFFFF4368616E67652066696C6171
:1013C0006D656E74004261627973746570205A00B5
:1013D000466C6F7700466C6F770046616E207370C5
:1013E0006565640046616E207370656564004265E2
:1013F0006400426564004E6F7A7A6C65004E6F7AC5
:101400007A6C6500537065656400537065656400AF
:101410004D61696E005072656865617420504C4181
:1014200020456E64005072656865617420504C41BF
:1014300020426564005072656865617420504C41BB
:101440000050726570617265005072656865617404
:101450002041425320456E64005072656865617496
:101460002041425320426564005072656865617492
:1014700020414253005072657061726500426163A1
:101480006B004E65787420636F726E6572004D322A
:101490003830205030205331363000424C546F7574
:1014A00063682053656C662D54657374004D323843
:1014B0003020503020533132300050726568656101
:1014C0007420414253005072656865617420504C2D
:1014D0004100436F6F6C646F776E004368616E67A5
:1014E000652066696C616D656E7400526573657424
:1014F00020424C546F7563680044697361626C6587
:10150000207374657070657273004D3834004C65DB
:1015100076656C20636F726E65727300426564203D
:101520004C6576656C696E67004732380A47323918
:10153000004175746F20686F6D6500473238004D4B
:101540006F76652061786973004D61696E00507235
:101550006F62696E67206661696C65640A0050722B
:101560006F62696E67206661696C656400205A3A33
:10157000200020593A200042656420583A20005348
:1015800044207072696E74696E6720627974652098
:10159000004E6F74205344207072696E74696E67D8
:1015A0000A00486F6D6520257325732573206669D1
:1015B000727374002066697273740A005A005900CD
:1015C0005800486F6D65200024F4D43050C38E203D
:1015D000C2A24017828B7011127A910D816CD90AC8
:1015E000A861E108C7586607615143061E4B5D05B7
:1015F000C145A7041A411104093D9803713931030B
:101600004036DB0265339102D4305402802E1D0235
:10161000632CEE01752AC501B028A00110278101B5
:101620008F2564012B244B01E0223401AC211F01E2
:101630008D200D01801FFC00841EED00971DDF0032
:10164000B81CD200E61BC600201BBC00641AB20006
:10165000B219A8000A19A0006A189900D1179100C0
:1016600040178B00B516840031167E00B315790043
:101670003A157300C7146F0058146A00EE13660021
:101680008813630025135E00C7125B006C125700BD
:1016900015125400C111510070114F0021114B005F
:1016A000D61049008D104700461044000210420039
:1016B000C00F4000800F3E00420F3C00060F3B0071
:1016C000CB0E3800930E37005C0E3500270E340029
:1016D000F30D3200C10D3100900D3000600D2E0071
:1016E000320D2D00050D2C00D90C2B00AE0C29005D
:1016F000850C29005C0C2700350C27000E0C2600F9
:10170000E80B2400C40B2400A00B23007D0B230056
:101710005A0B2100390B2100180B2000F80A1F007A
:10172000D90A1E00BB0A1E009D0A1D00800A1D006A
:10173000630A1C00470A1B002C0A1B00110A1A002E
:10174000F7091A00DD091900C4091900AB091900CD
:10175000920917007B091800630917004C0916004D
:1017600036091600200916000A091500F5081500AB
:10177000E0081400CC081400B8081400A4081400F1
:10178000900813007D0812006B081300580812001F
:101790004608120034081100230811001208110035
:1017A00001081100F0071000E0071000D00710003A
:1017B000C0071000B0070F00A107100091070E002E
:1017C00083070F0074070F0065070E0057070E0010
:1017D00049070E003B070D002E070E0020070D00E5
:1017E00013070D0006070D00F9060C00ED060D00AD
:1017F000E0060C00D4060C00C8060C00BC060C0069
:10180000B0060C00A4060B0099060C008D060B0018
:1018100082060B0077060B006C060B0061060A00BF
:1018200057060B004C060A0042060A0038060A005A
:101830002E060A0024060A001A060A0010060900ED
:1018400007060A00FD050900F4050900EB0509007B
:10185000E2050900D9050900D0050900C7050900FE
:10186000BE050900B5050800AD050800A50509007D
:101870009C050800940508008C05080084050800F4
:101880007C050800740508006C0507006505080064
:101890005D050700560508004E05070047050700CF
:1018A0004005080038050700310507002A05070034
:1018B000230507001C050600160507000F05070095
:1018C0000805060002050700FB040600F5040700F2
:1018D000EE040600E8040600E2040700DB0406004C
:1018E000D5040600CF040600C9040600C3040600A0
:1018F000BD040600B7040600B1040500AC040600F0
:10190000A6040600A00405009B040600950405003B
:10191000900406008A040500850405008004060082
:101920007A04050075040500700405006B040500C9
:1019300066040500610405005C0405005704050009
:10194000520405004D040500480405004304050049
:101950003E0404003A040500350405003004040088
:101960002C04050027040400230405001E040400C1
:101970001A04040016040500110404000D040400F8
:10198000090405000404040000040400FC0304002E
:10199000F8030400F4030400F0030400EC03040063
:1019A000E8030400E4030400E0030400DC03040093
:1019B000D8030400D4030400D0030400CC030400C3
:1019C000C8030300C503030024F404D9201BC40C7E
:1019D0005C0E9804C4095F0265077101F405F90003
:1019E000FB04B30048048700C10369005803550095
:1019F00003034500BE023A008402310053022A006C
:101A00002902250004022000E4011C00C80119007D
:101A1000AF01170098011400840113007101100038
:101A20006101100051010E0043010D0036010B0051
:101A30002B010B0020010B00150109000C0109000E
:101A400003010800FB000800F3000800EB0007009A
:101A5000E4000600DE000600D8000600D200060002
:101A6000CC000500C7000500C2000500BD00040051
:101A7000B9000400B5000400B1000400AD0004008A
:101A8000A9000400A5000300A20003009F000400B9
:101A90009B000300980003009500020093000300E0
:101AA000900003008D0002008B00030088000200FC
:101AB0008600020084000300810002007F00020013
:101AC0007D0002007B000200790002007700010027
:101AD0007600020074000200720001007100020032
:101AE0006F0002006D0001006C0002006A0001003E
:101AF0006900020067000100660001006500010046
:101B00006400020062000100610001006000010049
:101B10005F0002005D0001005C0001005B0001004D
:101B20005A0001005900010058000100570001004F
:101B30005600010055000100540001005300000050
:101B4000530001005200010051000100500001004B
:101B50004F0001004E0000004E0001004D0001004A
:101B60004C0001004B0000004B0001004A00010046
:101B70004900010048000000480001004700010042
:101B8000460000004600010045000000450001003D
:101B90004400010043000000430001004200000037
:101BA000420001004100000041000100400001002E
:101BB0003F0000003F0001003E0000003E00010029
:101BC0003D0000003D0001003C0000003C00000022
:101BD0003C0001003B0000003B0001003A00000017
:101BE0003A0001003900000039000100380000000F
:101BF0003800000038000100370000003700010005
:101C000036000000360000003600010035000000FC
:101C100035000000350001003400000034000000F1
:101C200034000100330000003300000033000100E5
:101C300032000000320000003200010031000000DC
:101C400031000000310001003000000030000000D1
:101C5000300001002F0000002F0000002F000000C6
:101C60002F0001002E0000002E0000002E000100B9
:101C70002D0000002D0000002D0000002D000100AF
:101C80002C0000002C0000002C0000002C000100A3
:101C90002B0000002B0000002B0000002B00010097
:101CA0002A0000002A0000002A0000002A0001008B
:101CB0002900000029000000290000002900000080
:101CC0002900010028000000280000002800000072
:101CD0002800000028000100270000002700000065
:101CE0002700000027000000270001002600000058
:101CF000260000002600000026000000260001004B
:101D0000250000002500000025000000250000003F
:101D10002500000025000100240000002400000030
:101D20002400000024000000240001002300000023
:101D30002300000023000000230000002300000017
:101D40002300000023000100220000002200000008
:101D500022000000220000002200000022000100FA
:101D600021000000210000002100000021000000EF
:101D700021000000210000002100010020000000DF
:101D800020000000200000002000000020000000D3
:101D90002000000020000000200001001F000000C3
:101DA0001F0000001F0000001F0000001F000000B7
:101DB0001F0000001F0001001E0000001E000000A8
:101DC0001E0000001E0000004D383420582059200D
:101DD0005A2045005A25752C45256C752C50256CCC
:101DE000752C5425752C4225752C005072696E7423
:101DF00065722072656164792E005072696E746537
:101E0000722072656164792E004572723A4E6F20BD
:101E100046696C616D656E7400473238205A204601
:101E20006F7262696464656E0A00473238205A2016
:101E3000466F7262696464656E0020706F736974C6
:101E4000696F6E206F7574206F662072616E6765B2
:101E50002E0A003F50726F626520004D313235000E
:101E600046696C652064656C657465643A00446518
:101E70006C6574696F6E206661696C65642C2046C0
:101E8000696C653A20006F70656E206661696C65EB
:101E9000642C2046696C653A20006F6E2E0A006F34
:101EA00066662E0A00473236204465627567200058
:101EB000452569202573005072696E746572207221
:101EC000656164792E006F6B0048656174696E67A7
:101ED00020646F6E652E0020573A00452569202545
:101EE00073005072696E7465722072656164792E38
:101EF00000496E697469616C697A65204545505284
:101F00004F4D00436F6E74726F6C00526573746F47
:101F10007265206661696C73616665004C6F61640F
:101F20002073657474696E67730053746F726520F3
:101F300073657474696E677300496E697469616C66
:101F4000697A6520454550524F4D00424C546F759B
:101F500063680046696C616D656E74004D6F7469ED
:101F60006F6E0054656D7065726174757265004DB9
:101F700061696E004D33303320553120452569208D
:101F80005325690050726568656174204142532091
:101F9000636F6E66005072656865617420504C41D5
:101FA00020636F6E6600504944204175746F7475EC
:101FB0006E6500504944204175746F74756E6500FC
:101FC0005049442D44005049442D44005049442D6B
:101FD00049005049442D49005049442D5000504972
:101FE000442D5000200820466163740020082046DC
:101FF000616374002008204D6178002008204D6145
:1020000078002008204D6178002008204D696E007E
:102010002008204D696E002008204D696E004F6633
:1020200066004F6E20004175746F74656D700046D8
:10203000616E2073706565640046616E2073706523
:1020400065640042656400426564004E6F7A7A6C94
:1020500065004E6F7A7A6C6500436F6E74726F6CB8
:102060000053746F72652073657474696E677300D2
:1020700042656400426564004E6F7A7A6C65004E7A
:102080006F7A7A6C650046616E20737065656400D6
:1020900046616E2073706565640054656D7065728D
:1020A000617475726500436172642072656D6F764C
:1020B0006564004361726420696E7365727465645F
:1020C0000000060900FE0701920321207FFF07FFA1
:1020D00007FF0000000600000107070602008080DD
:1020E0008080800080030202060105A0A00507078A
:1020F0000600005050F850F8505005070706000041
:102100002078A07028F020050707060000C0C8103E
:10211000204098180507070600006090A040A8908E
:1021200068020303060104C040800307070601009C
:102130002040808080402003070706010080402067
:102140002020408005050506000120A870A8200574
:1021500005050600012020F820200203030602FFE7
:10216000C04080050101060003F8020202060200D9
:10217000C0C00505050600010810204080050707BE
:1021800006000070888888888870030707060100A9
:1021900040C040404040E005070706000070880846
:1021A000708080F8050707060000F8102010080866
:1021B000F005070706000010305090F810100507D2
:1021C00007060000F880F008088870050707060079
:1021D00000708080F0888870050707060000F80806
:1021E00010202020200507070600007088887088CE
:1021F0008870050707060000708888780808700254
:102200000505060200C0C000C0C00206060602FFA7
:10221000C0C000C0408004070706000010204080B6
:10222000402010050303060002F800F80407070623
:102230000100804020102040800507070600007044
:10224000880810200020050707060000708808682D
:10225000A8A870050707060000708888F888888895
:10226000050707060000F08888F08888F005070752
:1022700006000070888080808870050707060000CF
:10228000F08888888888F0050707060000F88080B5
:10229000F08080F8050707060000F88080F0808055
:1022A00080050707060000708880B88888700507D9
:1022B00007060000888888F88888880107070602D2
:1022C000008080808080808005070706000038102D
:1022D00010101090600507070600008890A0C0A0AD
:1022E0009088050707060000808080808080F805C0
:1022F000070706000088D8A8888888880507070689
:1023000000008888C8A8988888050707060000701C
:10231000888888888870050707060000F08888F09C
:1023200080808005070706000070888888A890686C
:10233000050707060000F08888F0A09088050707C9
:10234000060000788080700808F005070706000086
:10235000F820202020202005070706000088888814
:102360008888887005070706000088888888885054
:10237000200507070600008888888888A850050778
:102380000706000088885020508888050707060047
:102390000088888850202020050707060000F808DC
:1023A00010204080F8030707060100E0808080804D
:1023B00080E005050506000180402010080307079E
:1023C000060100E02020202020E005030306000491
:1023D000205088050101060000F8020202060205ED
:1023E0008040050505060000700878887805070715
:1023F0000600008080B0C88888F00505050600004A
:1024000070808088700507070600000808689888B3
:1024100088780505050600007088F88070050707B4
:102420000600003048E0404040400506060600FF38
:102430007088887808700507070600008080B0C89B
:1024400088888801070706020080008080808080DD
:102450000308080601FF200020202020A0400407D8
:1024600007060000808090A0C0A090030707060127
:1024700000C04040404040E0050505060000D0A8EF
:10248000A8A8A8050505060000B0C8888888050525
:102490000506000070888888700506060600FFF0B3
:1024A0008888F080800506060600FF78888878080E
:1024B00008050505060000B0C880808005050506F2
:1024C000000070807008F00407070600004040E03C
:1024D000404040300505050600008888889868055A
:1024E00005050600008888885020050505060000BF
:1024F0008888A8A850050505060000885020508847
:102500000506060600FF8888887808700505050618
:102510000000F8102040F8030707060100204040A3
:102520008040402001070706020080808080808074
:1025300080030707060100804040204040800502DC
:1025400002060002689000000006000070012C01E5
:1025500090012701B0012201C0011D01F001180105
:102560001002130130020E01600209019002040101
:10257000C002FF000003FA004003F5008003F000F2
:10258000D003EB002004E6007004E100E004DC006E
:102590004005D700C005D2004006CD00D006C800D7
:1025A0008007C3003008BE00F008B900C009B400BD
:1025B000B00AAF00B00BAA00D00CA500000EA0001E
:1025C000500F9B00C01096005012910000148C0018
:1025D000C0158700B0178200B0197D00D01B7800AD
:1025E000001E730040206E0090226900F0246400F9
:1025F00040275F0090295A00E02B5500102E500014
:1026000020304B0010324600E033410090353C0052
:102610001037370070383200A0392D00B03A28004A
:10262000A03B2300603C1E00103D1900903D1400AB
:10263000103E0F00703E0A00C03E0500003F000043
:10264000403FFBFF803FF6FFC03FF1FF202F0020FF
:1026500042403A0020403A004D3130342053257535
:10266000004739322045257500473932205A2575F3
:102670002E2575004D3530300043616E63656C204A
:102680007072696E7400526573756D652070726941
:102690006E7400506F776572206F757461676500A6
:1026A00025753A2530327500253032753A2530329D
:1026B000750025756420253032753A253032750055
:1026C0005A004D7825643B25643B25642525200070
:1026D0004D7825643B25643B256425252000092091
:1026E000000000000000000000000000007FFFE08C
:1026F0000000000000000000000000007000E0008A
:10270000000000000000000000000061F860000010
:102710000000000000000000000041F82000000060
:1027200000000000000000000040F0200000000059
:1027300000000000000000004060200000000000D9
:10274000000000000000005801A07F800000000091
:102750000000004104005C63A0FFC0000000000016
:1027600000002082005EF7A0FFC000000000000013
:10277000002082005EF7A0FFC00000000000000003
:102780004104005C63A07F80000000000000008224
:1027900008005801A07F8000000000000001041024
:1027A00000406020FFC00000000000000104100095
:1027B00040F020FFC000000000000000820800413F
:1027C000F820FFC00000000000000041040061F894
:1027D000603F00000000000000000000007000E00A
:1027E0001E0000000000000001FFFF807FFFE00CE2
:1027F0000000000000000001FFFF8000000000005A
:10280000000000000000000000007FFFE00000006A
:102810000000000000000000007000E00000000068
:102820000000000000000000630C600000000000D9
:1028300000000000000000470E2000000000000023
:102840000000000000004F0F20000000000000000A
:1028500000000000005F0FA000000000000000006A
:10286000000000005E07A07F800000000000000064
:10287000410400406020FFC0000000000000002074
:10288000820040F020FFC000000000000000208215
:102890000040F020FFC000000000000000410400E4
:1028A0004060207F80000000000000008208005E81
:1028B00007A07F80000000000000010410005F0FEF
:1028C000A0FFC0000000000000010410004F0F2016
:1028D000FFC000000000000000820800470E20FF3B
:1028E000C000000000000000410400630C603F00D5
:1028F000000000000000000000007000E01E00006A
:10290000000000000001FFFF807FFFE00C000000DE
:102910000000000001FFFF8000000000060900FE2B
:10292000000000000001090008FE0000050808067C
:10293000000040F0C8888898781005080806000054
:10294000C0F88888888888F80505050600012030C9
:10295000F830200508080600002070F8202020200C
:10296000E00509090600FF2070A8A8B88888702033
:102970000509090600FFE080C0B0A8283028280516
:1029800009090600FFF8A88888888888A8F8050A39
:102990000A0600FE205050505088A8A888700303F3
:1029A0000306000340A04056652D6A65726B005611
:1029B000652D6A65726B0056652D6A65726B0056EF
:1029C0007A2D6A65726B00567A2D6A65726B0056B5
:1029D000792D6A65726B0056792D6A65726B0056A7
:1029E000792D6A65726B0056782D6A65726B005698
:1029F000782D6A65726B0056782D6A65726B004D92
:102A00006F74696F6E004573746570732F6D6D0020
:102A10004573746570732F6D6D005A7374657073B0
:102A20002F6D6D005A73746570732F6D6D0059733F
:102A3000746570732F6D6D005973746570732F6DAD
:102A40006D005873746570732F6D6D0058737465E5
:102A500070732F6D6D004D6F74696F6E00537465E8
:102A600070732F6D6D004A65726B00416363656C16
:102A700065726174696F6E0056656C6F6369747915
:102A8000005A204F6666736574005A204F6666735D
:102A9000657400436F6E74726F6C004F6E2000524D
:102AA000756E6F75742073656E736F7273004F6609
:102AB000660046696C2E204469612E0046696C2EC2
:102AC000204469612E004F6666004F6E200045204D
:102AD000696E206D6D3300436F6E74726F6C0043CE
:102AE000616E6E6F7420656E7465722073756264BA
:102AF00069723A2000022E2E004D61696E0020742A
:102B00006F6F206C6F6E6720657874727573696F74
:102B10006E2070726576656E7465640A0020636F5E
:102B20006C6420657874727573696F6E207072655D
:102B300076656E7465640A0020204D383531205A60
:102B4000005A2D50726F6265204F6666736574205F
:102B5000286D6D293A0A0020440020490020204DAC
:102B600033303420500020440020490020204D33D1
:102B700030312050005049442073657474696E6789
:102B8000733A0A0020460020420020480020204DD1
:102B90003134352053004D6174657269616C206871
:102BA000656174757020706172616D6574657273B2
:102BB0003A0A00205A0020204D3432302053004180
:102BC00075746F20426564204C6576656C696E672C
:102BD0003A0A00204500205A0020590020580020C1
:102BE000420020540020204D3230352053004164F3
:102BF00076616E6365643A20533C6D696E5F66650D
:102C00006564726174653E20543C6D696E5F7472D8
:102C10006176656C5F66656564726174653E2042CD
:102C20003C6D696E5F7365676D656E745F74696D29
:102C3000655F75733E20583C6D61785F78795F6A97
:102C400065726B3E205A3C6D61785F7A5F6A65728F
:102C50006B3E20453C6D61785F655F6A65726B3ED7
:102C60000A0020540020520020204D3230342050E1
:102C700000416363656C65726174696F6E202875CD
:102C80006E6974732F7332293A20503C7072696EEA
:102C9000745F616363656C3E20523C72657472615F
:102CA00063745F616363656C3E20543C747261764B
:102CB000656C5F616363656C3E0A00204500205AC5
:102CC0000020590020204D3230312058004D6178CD
:102CD000696D756D20416363656C65726174696FC0
:102CE0006E2028756E6974732F7332293A0A00209A
:102CF0004500205A0020590020204D323033205802
:102D0000004D6178696D756D2066656564726174EA
:102D100065732028756E6974732F73293A0A002031
:102D20004500205A0020590020204D3932205800FB
:102D300053746570732070657220756E69743A0AF9
:102D40000020204D3230302044300A0020204D3207
:102D500030302044002044697361626C65640A006D
:102D600046696C616D656E742073657474696E6715
:102D7000733A0020204D3134392043203B20556EDA
:102D800069747320696E2043656C736975730A00FA
:102D90002020473231202020203B20556E6974735B
:102DA00020696E206D6D0A007A5F6D696E3A2000B1
:102DB000795F6D696E3A2000785F6D696E3A200028
:102DC0005265706F7274696E6720656E6473746F9C
:102DD00070207374617475730A004D36303020486A
:102DE0006F74656E6420746F6F20636F6C64207401
:102DF0006F206368616E67652066696C616D656EE2
:102E0000740A007C3C3E5E2B3D3F2F5B5D3B2C2AD1
:102E1000225C0043616E6E6F74206F70656E20736C
:102E200075626469722000656E7175657565696E9D
:102E3000672022006563686F3A00544845524D414F
:102E40004C2052554E4157415900546865726D618E
:102E50006C2052756E61776179004D69783A25333F
:102E60006425253B25336425253B25336425250032
:102E70004772616469656E7400546F67676C6520A2
:102E80006D6978003A2533643B2533643B25336410
:102E90002525004D6978004D61696E0053746F7788
:102EA00020424C546F756368004D323830205030EA
:102EB00020533930004465706C6F7920424C546F58
:102EC000756368004D323830205030205331300067
:102ED000424C546F7563682053656C662D5465735E
:102EE00074004D323830205030205331323000528F
:102EF0006573657420424C546F756368004D3238B9
:102F0000302050302053313630004D61696E005012
:102F100072696E7420706175736564004D3132356D
:102F200000002573004D3234005072696E742061C8
:102F3000626F72746564004732382058590047390F
:102F400030004731204631303030205A323000478F
:102F50003931004E6F205344206361726400507217
:102F6000696E742066726F6D2053440053746F70E5
:102F7000207072696E740041626F757420507269BE
:102F80006E74657200526573756D65207072696E3E
:102F900074005061757365207072696E74004D69BC
:102FA00078657200436F6E74726F6C00507265705A
:102FB0006172650054756E6500496E666F207363BB
:102FC0007265656E004261627973746570205A00A3
:102FD0004D36303020423000434F4D4D554E494321
:102FE0004154494F4E0044525952554E0045525299
:102FF0004F525300494E464F004543484F00F92F6A
:10300000F42FED2FE62FD82F6F666600444542550A
:10301000473A004D3131332053004D313435205380
:103020003C696E6465783E206F7574206F6620720F
:10303000616E67652028302D31290A005072696E53
:10304000746572204F66662E00205A3A0020593A65
:103050000020436F756E7420583A0020453A0020D6
:103060005A3A0020593A00583A003A004361703AFF
:1030700000454D455247454E43595F5041525345D7
:103080005200434153455F4C494748545F425249BF
:103090004748544E45535300544F47474C455F4CA7
:1030A000494748545300534F4654574152455F5087
:1030B0004F574552004255494C445F504552434595
:1030C0004E54004C4556454C494E475F444154418F
:1030D000005A5F50524F4245004155544F4C45569F
:1030E000454C005052494E545F4A4F420050524F97
:1030F0004752455353004155544F5245504F525437
:103100005F54454D5000564F4C554D455452494320
:1031100000454550524F4D0053455249414C5F5870
:103120004F4E5F584F4646004649524D5741524513
:103130005F4E414D453A4D61726C696E20312E31C2
:103140002E3820284769746875622920534F5552DC
:1031500043455F434F44455F55524C3A6874747021
:10316000733A2F2F6769746875622E636F6D2F4DE8
:1031700061726C696E4669726D776172652F4D611F
:10318000726C696E2050524F544F434F4C5F5645FE
:103190005253494F4E3A312E30204D414348494E0B
:1031A000455F545950453A5072696E7465722045B6
:1031B000585452554445525F434F554E543A31206E
:1031C000555549443A63656465326132662D343140
:1031D00061322D343734382D396231322D63353533
:1031E0006336326633363766660A002F2F20006258
:1031F00065640A002C2073797374656D2073746F95
:103200007070656421204865617465725F49443A55
:10321000200048656174696E67206661696C656449
:103220000048656174696E67206661696C65640059
:1032300048656174696E67206661696C6564004801
:10324000656174696E67206661696C6564004572CA
:10325000723A204D494E54454D5020424544004558
:1032600072723A204D494E54454D50004D494E54CE
:10327000454D5020747269676765726564004572D8
:10328000723A204D415854454D5020424544004526
:1032900072723A204D415854454D50004D4158549A
:1032A000454D50207472696767657265640000005F
:1032B0002100240027002A002D00300033000101E6
:1032C0000000040107010A01000022002500280077
:1032D0002B002E003100340002010000050108011E
:1032E0000B01000020002300260029002C002F00E5
:1032F0003200000100000301060109010505050572
:10330000070508080808020202020A0A080804045D
:10331000040401010101010101010303030303038B
:103320000303040707070C0C0C0C0C0C0C0C02021A
:10333000020206060606060606060B0B0B0B0B0B17
:103340000B0B0102102020080810204010204080A4
:103350000201020108040201010204081020408059
:1033600080402010080402018004020180402010E7
:103370000804020108040201010204081020408030
:10338000010204081020408000000A0B02090C0D05
:103390000E08070304010000000000000000000008
:1033A000000000000000000000000000000000001D
:1033B00000000000121110000000000000000000DA
:1033C0000000000000000000000000000000536545
:1033D0007474696E672054726176656C2041636312
:1033E000656C65726174696F6E3A20005365747420
:1033F000696E67205265747261637420416363650E
:103400006C65726174696F6E3A20005365747469FB
:103410006E67205072696E7420416363656C6572DB
:103420006174696F6E3A200053657474696E672029
:103430005072696E7420616E642054726176656C9E
:1034400020416363656C65726174696F6E3A200038
:10345000205A00205900580020204D61783A200061
:10346000205A00205900580020204D696E3A200053
:103470004F6E20004F666600536F667420656E6461
:1034800073746F70733A20005761726E696E673A99
:10349000204D697820666163746F7273206D757357
:1034A000742061646420757020746F20312E302E7A
:1034B000205363616C696E672E0A00252900257C04
:1034C00000202800252920746F205A00257C002028
:1034D00028004F4E2066726F6D205A004F464600FE
:1034E0004772616469656E74204D69782000290A0D
:1034F00000466978656420706172616D65746572FB
:103500002062797465733B2063726320004669789A
:10351000656420706172616D657465722028004871
:10352000565F7365745F6F6B0A0020213D20006356
:103530007263206572726F723A20000A726561646C
:103540002066696C65206E616D653A2000290A72FB
:103550006561642066696C65206469723A200020A8
:1035600062797465733B206372632000706F7765C6
:10357000726F66662073746F72656420736574740D
:10358000696E677320726574726965766564202858
:1035900000202863616C63756C6174656429210A7D
:1035A0000020213D2000454550524F4D20435243BD
:1035B000206D69736D61746368202D202873746FAA
:1035C000726564292000290A002062797465733BC2
:1035D0002063726320002073746F726564207365CA
:1035E0007474696E67732072657472696576656458
:1035F000202800204D61726C696E3D5634303229AE
:103600000A0028454550524F4D3D00454550524F08
:103610004D2076657273696F6E206D69736D61748C
:103620006368200048617264636F64656420446568
:103630006661756C742053657474696E6773204C91
:103640006F616465640A00B80B0000B80B000032BB
:10365000000000B80B0000000096430000964300F5
:1036600000A0410000C8419A99A0429A99A1420045
:1036700000C8430080C5434D61782054656D703AA1
:1036800020313235004D696E2054656D703A203519
:1036900000544265643A4550434F53203130304B1B
:1036A000004D61782054656D703A20323635004DFA
:1036B000696E2054656D703A20350054303A2045CB
:1036C00050434F53203130304B005053553A204730
:1036D000656E657269630050726F746F636F6C3AE8
:1036E00020312E3000202020204857205665723A85
:1036F0002056004657205665723A2056322E310029
:10370000426175643A2032353030303000475432EF
:103710003536302056342E300042696C696E656152
:1037200072204C6576656C696E67004578747275B9
:10373000646572733A203100687474703A2F2F6D8B
:1037400061726C696E66772E6F7267005072696E77
:1037500074657200323031372D31322D32352031DF
:10376000323A303000312E312E38004D61726C69A2
:103770006E00546865726D6973746F727300426F86
:1037800061726420496E666F005072696E74657272
:1037900020496E666F004D61696E0020204E6F7A81
:1037A0007A6C653A200020004261636B004D696EBF
:1037B000696D756D2054656D7020697320313730E7
:1037C0002E0048656174696E67206661696C656486
:1037D00000526573756D65207072696E740045786E
:1037E0007472756465206D6F726500524553554D56
:1037F00045204F5054494F4E533A0020204E6F7A87
:103800007A6C653A20006368616E6765006F6620B8
:103810007468652066696C616D656E7400576169D6
:103820007420666F72207374617274005052494E36
:103830005420504155534544005374617274205ACA
:103840003A202534642E2564206D6D002020456EBD
:1038500064205A3A202534642E2564206D6D00289A
:103860005A203C3D2025642E256429005374617242
:1038700074206D69783A202533642525202533642A
:10388000252500285A203E3D2025642E2564290048
:103890002020456E64206D69783A20253364252503
:1038A0002025336425250046756C6C2067726164A1
:1038B00069656E74002533643B253364252500203B
:1038C00020456E64206D69783A002533643B2533CA
:1038D000642525005374617274206D69783A00473D
:1038E00072616469656E74002534642E2564206DF0
:1038F0006D002020456E64205A3A002534642E2540
:1039000064206D6D005374617274205A3A004772DE
:10391000616469656E74206D6978004D69786572BF
:10392000005654726176206D696E0056547261764D
:10393000206D696E005654726176206D696E005676
:103940006D696E00566D696E00566D696E00566D3C
:103950006178204500566D6178204500566D61788C
:10396000204500566D6178205A00566D6178205AC6
:1039700000566D6178205A00566D617820590056C6
:103980006D6178205900566D6178205900566D613F
:1039900078205800566D6178205800566D61782067
:1039A00058004D6F74696F6E00416D61782045005D
:1039B000416D6178204500416D6178205A00416D6C
:1039C0006178205A00416D6178205900416D61781D
:1039D000205900416D6178205800416D6178205870
:1039E00000412D74726176656C00412D74726176B0
:1039F000656C00412D7265747261637400412D72B3
:103A000065747261637400416363656C0041636354
:103A1000656C004D6F74696F6E004D6F7665205850
:103A2000004D6F76652059004D6F7665205A004530
:103A300078747275646572004D6F766520302E3132
:103A40006D6D004D6F766520316D6D004D6F766543
:103A50002031306D6D004D6F76652061786973009F
:103A6000486F74656E6420746F6F20636F6C6400C0
:103A70004578747275646572004D6F7665205A00E2
:103A80004D6F76652059004D6F766520580045785A
:103A9000747275646572004D6F7665205A004D6FC3
:103AA00076652059004D6F7665205800507265701C
:103AB00061726500D600E40011241FBECFEFD1E291
:103AC000DEBFCDBF00E00CBF14E0A0E0B2E0E8E153
:103AD000F0E902E00BBF02C007900D92AA32B107D5
:103AE000D9F72AE1AAE2B4E001C01D92A237B207D9
:103AF000E1F71DE1CBE5DDE100E006C0219701091A
:103B0000802FFE010F946A47CA35D10780E008076D
:103B1000A9F70F94752C0D94FB470C9400002F927D
:103B20003F924F925F926F927F928F929F92AF924D
:103B3000BF92CF92DF92EF92FF920F931F93CF939A
:103B4000DF93CDB7DEB7C559D1090FB6F894DEBF04
:103B50000FBECDBF81E090E090934F1580934E153E
:103B600080916B1A8D3411F40C947829843511F4FA
:103B70000C940338873411F00C9459388091691AE9
:103B800090916A1A8B31910509F416C6B4F4843009
:103B900091053CF482309105E4F597FF33C00C9415
:103BA00073388430910509F4C0C54A9711F00C941C
:103BB00073380E940F480C9473388A32910511F4BF
:103BC0000C94B62864F48D31910509F426C60CF4E2
:103BD0001FC64E9711F40C94F1270C9473388B3553
:103BE000910511F40C9460288C35910511F40C9416
:103BF00065288A35910511F00C94733810922E04C3
:103C00000C9473388091B60281110C947A380C941C
:103C100073382091B602222311F40C94733811E00A
:103C2000029709F010E00E94569E82E50E947646B7
:103C3000882309F44AC10E9414466B017C0140901C
:103C4000AB0D5090AC0D6090AD0D7090AE0D20910D
:103C5000AF0D3091B00D4091B10D5091B20D28AF24
:103C600039AF4AAF5BAF80910E0A90910F0AA091D5
:103C7000100AB091110A8CAF9DAFAEAFBFAF2091CB
:103C8000120A3091130A4091140A5091150A249691
:103C90002CAF3DAF4EAF5FAF249720E030E0A901DD
:103CA000C701B6010F943640882309F424C5A30147
:103CB00092016CAD7DAD8EAD9FAD0F9436408111FC
:103CC0000FC028AD39AD4AAD5BAD24966CAD7DAD6E
:103CD0008EAD9FAD24970F943640882309F40BC511
:103CE00020E030E0A901C701B6010F943640881FDB
:103CF0008827881F18130BC080E090E0A0E8BFE37E
:103D000064968CAF9DAFAEAFBFAF64970AC020E0A2
:103D100030E040E85FEB64962CAF3DAF4EAF5FAF55
:103D20006497A30192016CAD7DAD8EAD9FAD0F94F4
:103D30006E442C966CAF7DAF8EAF9FAF2C9728ADA5
:103D400039AD4AAD5BAD24966CAD7DAD8EAD9FAD0A
:103D500024970F946E4460966CAF7DAF8EAF9FAF8B
:103D600060972C962CAD3DAD4EAD5FAD2C97CA0142
:103D7000B9010F949B404B015C0160962CAD3DADA9
:103D80004EAD5FAD6097CA01B9010F949B409B0196
:103D9000AC01C501B4010F946F440F94DA46289624
:103DA0006CAF7DAF8EAF9FAF289720E030E040E052
:103DB0005FE30F949B404B015C01A7019601C70193
:103DC000B6010F949B406B017C01A5019401C501D4
:103DD000B4010F949B409B01AC01C701B6010F9445
:103DE0006E440F94DA469B01AC0164966CAD7DADD8
:103DF0008EAD9FAD64970F949B404B015C012CAD41
:103E00003DAD4EAD5FADC301B2010F946F4420E0F4
:103E100030E040E05FE30F949B406B017C016096D3
:103E20006CAD7DAD8EAD9FAD6097905828962CAD52
:103E30003DAD4EAD5FAD28970F944B459B01AC0156
:103E4000C501B4010F949B409B01AC01C701B601B1
:103E50000F946F44A30192010F946E446B017C0197
:103E600024962CAD3DAD4EAD5FAD249768AD79ADD8
:103E70008AAD9BAD0F946F4420E030E040E05FE3FB
:103E80000F949B402B013C0128962CAD3DAD4EADCF
:103E90005FAD28972C966CAD7DAD8EAD9FAD2C9708
:103EA0000F944B459B01AC01C501B4010F949B409D
:103EB0009B01AC01C301B2010F946F4428AD39AD31
:103EC0004AAD5BAD0F946E4414C089E40E947646FF
:103ED000882329F00E9414466B017C0103C0C12C89
:103EE000D12C76018AE40E9476468823F9F00E945C
:103EF000144624966CAF7DAF8EAF9FAF249720E021
:103F000030E0A901C701B6010F94364081111EC0EF
:103F100020E030E0A90124966CAD7DAD8EAD9FAD63
:103F200024970F943640811111C0E5C320E030E0A2
:103F3000A901C701B6010F943640882309F4DBC3F9
:103F400024961CAE1DAE1EAE1FAE2497D701C6012F
:103F5000B05888AF99AFAAAFBBAF24962CAD3DAD9A
:103F60004EAD5FAD249750582CAF3DAF4EAF5FAF15
:103F70009C01AD01BC01CD010F949B404B015C0144
:103F80002CAD3DAD4EAD5FADCA01B9010F949B4064
:103F90009B01AC01C501B4010F946F440F94DA4644
:103FA000AC966CAF7DAF8EAF9FAFAC978091AB0DF1
:103FB0009091AC0DA091AD0DB091AE0D28968CAF47
:103FC0009DAFAEAFBFAF2897A7019601BC01CD0151
:103FD0000F946F4464966CAF7DAF8EAF9FAF6497C4
:103FE0002091AF0D3091B00D4091B10D5091B20DB7
:103FF00060962CAF3DAF4EAF5FAF609724962CAD6F
:104000003DAD4EAD5FAD249760966CAD7DAD8EAD90
:104010009FAD60970F946F4468966CAF7DAF8EAF85
:104020009FAF689780910E0A90910F0AA091100A95
:10403000B091110A6C968CAF9DAFAEAFBFAF6C97CD
:1040400064962CAD3DAD4EAD5FAD6497BC01CD0126
:104050000F946E446B017C012091120A3091130A77
:104060004091140A5091150AA0962CAF3DAF4EAF67
:104070005FAFA09768962CAD3DAD4EAD5FAD689734
:10408000A0966CAD7DAD8EAD9FADA0970F946E44A4
:104090004B015C018091B30D9091B40DA091B50DD1
:1040A000B091B60DA4968CAF9DAFAEAFBFAFA49745
:1040B0009C01AD016091160A7091170A8091180A4F
:1040C0009091190A0F946E442C966CAF7DAF8EAF11
:1040D0009FAF2C9720911A0A30911B0A40911C0A1D
:1040E00050911D0AE0962CAF3DAF4EAF5FAFE09709
:1040F0008091B70D9091B80DA091B90DB091BA0D06
:10410000A8968CAF9DAFAEAFBFAFA897A7019601A1
:1041100068AD79AD8AAD9BAD0F949B402B013C01FE
:10412000A50194016CAD7DAD8EAD9FAD0F949B400C
:104130009B01AC01C301B2010F946F442B013C0100
:10414000A501940168AD79AD8AAD9BAD0F949B40FC
:104150004B015C01A70196016CAD7DAD8EAD9FADAD
:104160000F949B409B01AC01C501B4010F946E44B8
:10417000A30192010F94E2446B017C0120E030E046
:10418000A9010F94364087FF0AC02BED3FE049ECB0
:1041900050E4C701B6010F946F446B017C011123F9
:1041A00051F02BED3FE049EC50E4C701B6010F940C
:1041B0006E446B017C0120E030E0A901C701B6012B
:1041C0000F943640811128C06C962CAD3DAD4EAD9C
:1041D0005FAD6C9728966CAD7DAD8EAD9FAD289789
:1041E0000F943640811118C0A0962CAD3DAD4EAD58
:1041F0005FADA09760966CAD7DAD8EAD9FAD6097C5
:104200000F943640811108C09BEDC92E9FE0D92E36
:1042100099ECE92E90E4F92EAC962CAD3DAD4EAD67
:104220005FADAC97C701B6010F949B409B01AC01F9
:104230000F949B404B015C012C962CAD3DAD4EADD7
:104240005FAD2C97CA01B9010F949B409B01AC0153
:10425000C501B4010F946F440F94DA464B015C0121
:104260002FE632E143E85AE30F94364087FD3FC220
:10427000C501B4010F94E4450F94B8451B01672BA9
:1042800019F422242394312CB10180E090E00F94A2
:104290003A404B015C019B01AC01C701B6010F9490
:1042A0004B4528966CAF7DAF8EAF9FAF2897A50189
:1042B00094012C966CAD7DAD8EAD9FAD2C970F9477
:1042C0004B45AC966CAF7DAF8EAF9FAFAC97A896C9
:1042D0002CAD3DAD4EAD5FADA897E0966CAD7DAD1C
:1042E0008EAD9FADE0970F946E44A50194010F949D
:1042F0004B45E0966CAF7DAF8EAF9FAFE0972896B1
:104300002CAD3DAD4EAD5FAD2897CA01B9010F94FC
:104310009B4020E030E040E05FE30F949B409B0136
:10432000AC0160E070E080E89FE30F946E446C960F
:104330006CAF7DAF8EAF9FAF6C97A4962CAD3DADAB
:104340004EAD5FADA49729873A874B875C87A896C7
:104350008CAD9DADAEADBFADA8978D879E87AF8765
:10436000B88B60913C0270913D02072E000C880BC7
:10437000990B0F943C4020914402309145024091AA
:104380004602509147020F949B402AE037ED43E2EA
:104390005CE30F949B406CA77DA78EA79FA70E940C
:1043A0009AFD9B01AC0128533F4F4F4F5F4FA096A2
:1043B0002CAF3DAF4EAF5FAFA09748AC59AC6AACE5
:1043C0007BAC41E050E02E965FAF4EAF2E9759E1A7
:1043D00029965FAF29972E96AEADBFAD2E97A21549
:1043E000B30509F44AC10E9496F90E949AFDDC01C6
:1043F000CB01A0962CAD3DAD4EAD5FADA097821B1D
:10440000930BA40BB50BB7FD11C00E949AFD9B0145
:10441000AC0128533F4F4F4F5F4FA0962CAF3DAF9D
:104420004EAF5FAFA09780E00E94E97429963FAD40
:104430002997315029963FAF2997332309F445C076
:104440006C962CAD3DAD4EAD5FAD6C976CAD7DAD5A
:104450008EAD9FAD0F949B406B017C0128962CADD7
:104460003DAD4EAD5FAD2897B201C3010F949B40A7
:10447000A70196010F946F447B018C016C962CADC3
:104480003DAD4EAD5FAD6C97B201C3010F949B4043
:104490004B015C0128962CAD3DAD4EAD5FAD28972C
:1044A0006CAD7DAD8EAD9FAD0F949B409B01AC017B
:1044B000C501B4010F946E442B013C01C701D80122
:1044C0008CAF9DAFAEAFBFAF5BC02E964EAD5FADB4
:1044D0002E97BA0180E090E00F943A4028962CADD8
:1044E0003DAD4EAD5FAD28970F949B404B015C01F5
:1044F0000F9448456B017C01C501B4010F94D0466F
:104500004B015C01A701960168AD79AD8AAD9BAD09
:104510000F949B402B013C01A501940124966CADA6
:104520007DAD8EAD9FAD24970F949B409B01AC0158
:10453000C301B2010F946F442B013C01A50194010A
:1045400068AD79AD8AAD9BAD0F949B404B015C018A
:10455000A701960124966CAD7DAD8EAD9FAD2497DD
:104560000F949B409B01AC01C501B4010F946E44B4
:104570006CAF7DAF8EAF9FAF59E129965FAF2997A2
:104580009201A30164966CAD7DAD8EAD9FAD649735
:104590000F946F4469837A838B839C832CAD3DADEC
:1045A0004EAD5FAD68966CAD7DAD8EAD9FAD68973D
:1045B0000F946F446D837E838F839887AC962CAD68
:1045C0003DAD4EAD5FADAC9769857A858B859C8599
:1045D0000F946F4469877A878B879C87E0962CAD10
:1045E0003DAD4EAD5FADE0976D857E858F85988939
:1045F0000F946F446D877E878F87988B8091BB0265
:10460000882321F0CE0101960E94D47389819A817A
:10461000AB81BC8188A399A3AAA3BBA38D819E81F2
:10462000AF81B8858CA39DA3AEA3BFA389859A85CE
:10463000AB85BC8588A799A7AAA7BBA7CE01809602
:104640000E945E41E12C8E01045D1F4F9E01235F9D
:104650003F4FAE01485D5F4FBE016C5D7F4FCE01A5
:1046600080960F9424262E968EAD9FAD2E970196A0
:104670002E969FAF8EAF2E97AECE80910E0A909160
:104680000F0AA091100AB091110A88A399A3AAA3B6
:10469000BBA38091120A9091130AA091140AB091C1
:1046A000150A8CA39DA3AEA3BFA38091160A909177
:1046B000170AA091180AB091190A88A799A7AAA762
:1046C000BBA7CE0180960E945E41E12C8E01045D65
:1046D0001F4F2AE13AE0AE01485D5F4FBE016C5DBD
:1046E0007F4FCE0180960F9424260E9405480E9499
:1046F00066410C947338EBECF0E184918F010F5F0D
:104700001F4F882321F00E94A941F801F6CFE9E567
:10471000F2E084918F010F5F1F4F882311F40C94F6
:1047200073380E94A941F801F4CF80E50E947646D3
:10473000882329F00E943F416B017C0103C0C12CFA
:10474000D12C760183E50E947646882361F00E9491
:10475000144620E030E04AE754E40F949B400F9465
:10476000B8456B017C010E9419FB80917202811196
:1047700005C060E08FE692E00E9465AD0E94664150
:104780008091040D9091050DA091060DB091070D3B
:10479000C80ED91EEA1EFB1E0E949AFDDC01CB0149
:1047A0008C199D09AE09BF09B7FD02C00C9473387E
:1047B00080E00E94E974F0CF0E949E8681110C94E3
:1047C000733880E090E0A0E4B0E489839A83AB83FF
:1047D000BC838D839E83AF83B88780E090E0A0E2A6
:1047E000B1E489879A87AB87BC8780E50E947646CB
:1047F000882319F00E94E44501C060E068A3BE016F
:104800006F5F7F4FCE0180960E944AD60C9473381A
:1048100080E00E946C9C0C9473380E949E868111EB
:104820000C9473383090850D87E50E9447468823A5
:1048300009F41EC18091E2199091E319892BD1F4FA
:10484000EBECF0E184918F010F5F1F4F882321F083
:104850000E94A941F801F6CFEBEEF2E084918F01BE
:104860000F5F1F4F882311F40C9473380E94A941E5
:10487000F801F4CF8AE50E947646882329F00E9449
:1048800014466B017C0108C0C090B30DD090B40DEC
:10489000E090B50DF090B60D20E030E040E251EC34
:1048A000C701B6010F94954687FF03C0EBECF0E11A
:1048B0000BC020E030E040E251E4C701B6010F94A4
:1048C000364018169CF318C084918F010F5F1F4F5C
:1048D000882321F00E94A941F801F6CFEEEDF2E025
:1048E00084918F010F5F1F4F882311F40C9473384C
:1048F0000E94A941F801F4CF88E50E9476468823FA
:1049000029F00E9414462B013C0106C0412C512C79
:1049100000EC602E0FE7702E89E50E947646882312
:1049200029F00E9414464B015C0106C0812C912C99
:1049300010ECA12E1FE7B12E89E40E947646882351
:1049400019F00E94F44501C08FEF182F8AE40E94ED
:104950007646882319F00E94F44501C08FEF082F96
:10496000A3019201C301B2010F941B47811154C0EE
:10497000A5019401C501B4010F941B4781114CC0DE
:104980006091DE197091DF19072E000C880B990BCE
:104990000F943C409B01AC01C301B2010F946E44E3
:1049A00020E030E0A9010F946F4420E030E0A9013D
:1049B0000F944B450F94B345162F6091E0197091F9
:1049C000E119072E000C880B990B0F943C409B01BA
:1049D000AC01C501B4010F946E4420E030E0A901A0
:1049E0000F946F4420E030E0A9010F944B450F94E1
:1049F000B34517FD06C013300CF012E067FF06C088
:104A00000AC067FF02C00C94AA3810E0062F63307A
:104A10001CF002E001C000E0133010F00C94733879
:104A2000043010F00C94733880E00E94C940212FAC
:104A3000110F330BF901EE0FFF1FE20FF31FE00F11
:104A4000F11D07FDFA95EE0FFF1FEE0FFF1FE65455
:104A5000F64EC082D182E282F382832D0E94C94049
:104A6000332011F40C9473380E94DDF00C947338E9
:104A70008AE40E944746882321F00E9406410C9454
:104A8000733886E50E947646882329F00E94E44523
:104A90007DAF6CAF02C01DAE1CAEECADFDAD359769
:104AA00070F0E6EBF2E084918F010F5F1F4F8823D7
:104AB00011F40C9473380E94A941F801F4CF84E4F6
:104AC0000E947646882319F00E94054603C084E4BC
:104AD0000E94474621968FAF21978AE50E9476462D
:104AE000882349F00E9414466C966CAF7DAF8EAF60
:104AF0009FAF6C9706C06C961CAE1DAE1EAE1FAE6F
:104B00006C9783E50E947646882319F00E9414462C
:104B100004C060E070E08AEF95E420E030E040E718
:104B200052E40F944B45609340027093410280938E
:104B30004202909343028CE40E947646882331F02F
:104B40000E9414460F94B3455B0103C0EEE1AE2E04
:104B5000B12C82E50E947646882331F00E941446EB
:104B60000F94B3456B0103C078ECC72ED12C86E4BB
:104B70000E947646882331F00E9414460F94B34574
:104B80008B0102C004E110E082E40E947646882393
:104B900031F00E9414460F94B3457B0103C065EFCA
:104BA000E62EF12C31E0B7FC06C0C6010997A81625
:104BB000B9060CF430E021E0F6EDCF16D10434F460
:104BC000C50109968C159D050CF420E0882483947A
:104BD00017FD06C0C7010997081719070CF4812CA7
:104BE000992493944BEFE416F10434F4C801099628
:104BF0008E159F050CF4912C31110CC0222329F045
:104C000087EA92E00F94903815C0811013C091107C
:104C100017C020C08FEA92E0CB56DF4F2883C559DA
:104C2000D0400F949038CB56DF4F2881C559D040E3
:104C30002111E6CF882021F08FE992E00F9490387F
:104C4000992011F40C94733888E992E00F9490380D
:104C50000C947338CA18DB08D7FE03C05FEFC51A7F
:104C6000D50AD594C794B6010D2C000C880B990B6E
:104C70000F943C4064966CAF7DAF8EAF9FAF64974E
:104C8000E01AF10AF7FE03C08FEFE81AF80AF5946C
:104C9000E794B7010F2C000C880B990B0F943C4044
:104CA0002B013C01ACADBDADAB2B11F1E2E8F2E064
:104CB00084914F01BFEF8B1A9B0A882321F00E9439
:104CC000A941F401F5CF2196EFAD2197EE2369F0CC
:104CD000E8E7F2E084914F012FEF821A920A8823CD
:104CE00021F00E94A941F401F5CF8AE00E94A94178
:104CF0000E9419FB80E00E94C94081E00E942D3F84
:104D0000882329F0832D0E94C9400C9473380E9497
:104D10008A416091E2197091E319072E000C880B0B
:104D2000990B0F943C409B01AC0164966CAD7DAD3A
:104D30008EAD9FAD64970F943640811120C0609175
:104D4000E4197091E519072E000C880B990B0F944C
:104D50003C409B01AC01C301B2010F94364081116C
:104D60000EC08091DE199091DF19A816B90639F4AA
:104D70008091E0199091E1190817190799F00E94A4
:104D80000641D092E319C092E219F092E519E0923F
:104D9000E419B092DF19A092DE191093E119009383
:104DA000E019312C85E40E947646882319F00E9490
:104DB000054603C085E40E94474665968FAF659718
:104DC00019AE18AEC12CD12C760131E025963FAF3B
:104DD000259741E029964FAF299753E02D965FAF75
:104DE0002D97212CC501BB0CAA0BBB0BA4968CAF35
:104DF0009DAFAEAFBFAFA4979801110F440B550BF9
:104E0000A8962CAF3DAF4EAF5FAFA89725969FAD4C
:104E10002597A1E09A2725969FAF259728AD39AD14
:104E2000032E000C440B550BA0962CAF3DAF4EAF9C
:104E30005FAFA0972D96EFAD2D972E1609F4BEC04B
:104E4000A4966CAD7DAD8EAD9FADA4970F943C4004
:104E50006B017C01622D022C000C770B880B990BE7
:104E60000F943C409B01AC0164966CAD7DAD8EAD62
:104E70009FAD64970F949B409B01AC01C701B601A5
:104E80000F946F444B015C01A8966CAD7DAD8EAD67
:104E90009FADA8970F943C406B017C01A0966CAD30
:104EA0007DAD8EAD9FADA0970F943C409B01AC01B2
:104EB000C301B2010F949B409B01AC01C701B60135
:104EC0000F946F446B017C0120E030E0A901C50123
:104ED000B4010F94364087FD05C020E030E040E08B
:104EE0005FE303C020E030E0A901C501B4010F94E5
:104EF0006F440F94E44568A379A38AA39BA320E0A1
:104F000030E0A901C701B6010F94364087FD05C006
:104F100020E030E040E05FE303C020E030E0A901A2
:104F2000C701B6010F946F440F94E44569837A83F7
:104F30008B839C832CAD65964FAD6597BE016F5FEB
:104F40007F4FCE0180960E946C886B017C019B0193
:104F5000AC010F941B47882329F0832D0E94C94080
:104F60000C94CE38822D022C000C990B8C01000F72
:104F7000111F080F191F48AD59AD040F151F000F61
:104F8000111F000F111F0654164E6C962CAD3DAD2F
:104F90004EAD5FAD6C97C701B6010F946F44D80159
:104FA0006D937D938D939C93139780E00E94E97499
:104FB0002996BFAD29972B0E312C3CCF28AD39ADAA
:104FC0002230310511F40C94CE38A7019601C701A7
:104FD000B6010F941B47882311F40C94AE380C943F
:104FE000CE38C090AB0DD090AC0DE090AD0DF090F0
:104FF000AE0D88E50E947646811109C020E030E0C0
:1050000044E152E4C701B6010F946E4402C00E940D
:10501000144668A379A38AA39BA3C090AF0DD09038
:10502000B00DE090B10DF090B20D89E50E9476468A
:10503000811108C020E030E0A901C701B6010F943A
:105040006F4402C00E9414466B017C0169837A831D
:105050008B839C8388A099A0AAA0BBA02FE632E1F5
:1050600043E85AEBC501B4010F94954687FF02C08F
:105070000C94733822E430E045E553E4C501B401F3
:105080000F943640181614F40C9473382FE632E15E
:1050900043E85AEBC701B6010F94954687FF02C05B
:1050A0000C94733822E430E04AE753E4C701B601B8
:1050B0000F943640181614F40C9473380C94443939
:1050C00081E080932E040C9473380E9419FB10EC3D
:1050D000212E12E0312E0BEAE02E0DE0F02E00E042
:1050E000D12C10E0D1018D911D010E9476468823BC
:1050F00059F10E9414462B013C01F70120813181B6
:10510000428153810F946E444B015C012DEB37E3D8
:1051100046E855EB0F94954687FD0AC02DEB37E323
:1051200046E855E3C501B4010F943640181664F4FF
:10513000133019F0DD24D39401C001E0D7014D9262
:105140005D926D927C9213971F5FB4E0EB0EF11CA1
:10515000143041F6DD2019F00E94824003C0011195
:105160000E94BC840E94DDF00C9473388091B602DA
:10517000882311F40C94733889E40E947646182F22
:10518000882321F00E94E445E62E01C0E12C8AE448
:105190000E947646F82E882331F00E94E445062FBF
:1051A000111104C00BC000E01123B9F0E2E0EE15CC
:1051B00010F00C94B03CEFE0F3E003C00330D8F7FC
:1051C0000CC084918F010F5F1F4F882311F40C9442
:1051D00073380E94A941F801F4CF0E94BC46112304
:1051E000F1F02091E2193091E3194E2D4203B00104
:1051F000439F700D11242091DE193091DF19620F49
:10520000731F072E000C880B990B0F943C40609382
:105210000E0A70930F0A8093100A9093110AFF20D0
:10522000E9F02091E4193091E5190203B001039FE0
:10523000700D11248091E0199091E119680F791F88
:10524000072E000C880B990B0F943C406093120AB8
:105250007093130A8093140A9093150A80E50E94B4
:105260007646882319F00E94054603C080E50E9417
:1052700047468823C1F01123B1F020E030E044E13B
:1052800052E460910E0A70910F0A8091100A909179
:10529000110A0F946F4460930E0A70930F0A809363
:1052A000100A9093110A86E40E947646811104C088
:1052B0000E945A770C9473380E9414466B017C014B
:1052C00020E030E0A9010F94954618168CF720E0F5
:1052D00030E040E752E4C701B6010F944B456093BC
:1052E0004402709345028093460290934702E0CFB8
:1052F0008091691A90916A1A8837910509F43DC521
:105300000CF0DBC08D34910509F43EC40CF05DC097
:105310008931910509F4E0C234F58431910509F42D
:1053200088C27CF48131910509F46FC22CF4029794
:1053300008F4DFC10C947338429709F47AC40C94D2
:1053400073388631910509F4BDC20CF4B7C28731B8
:10535000910509F4BDC2489711F00C9473380E946E
:105360002C9B0C9473388F31910509F41FC394F46E
:105370008B31910509F4C2C20CF4B2C28C31910593
:1053800009F4C0C24E9711F00C9473380E94E7994B
:105390000C9473388133910509F4EEC34CF48032D8
:1053A000910509F4B9C28A9709F4A6C30C9473381D
:1053B0008B34910509F4E4C38C34910511F00C94FD
:1053C00073380E940B880C9473388C36910509F45D
:1053D000E7C3E4F58535910509F42FC4C4F482359B
:1053E000910509F41DC44CF48135910511F00C941C
:1053F00073380E9414F20C9473388335910509F4C4
:1054000013C48435910509F414C40C947338893697
:10541000910509F4D1C36CF48C35910509F411C4DC
:105420008836910511F00C9473380E9469990C9498
:1054300073388A36910509F4EBC38B36910511F068
:105440000C9473380E94EC980C9473388137910552
:1054500009F4AAC39CF48E36910509F499C30CF49F
:10546000B7C38F36910509F497C38037910511F0C2
:105470000C94733880EE93E00E947F748537910519
:1054800009F46EC46CF48237910509F463C4833760
:10549000910511F00C9473380E9496F00C947338B7
:1054A0008637910509F465C48737910511F00C948E
:1054B00073380E9488D70C9473388D3251E0950769
:1054C00009F45FC50CF085C0893C910509F464C4FA
:1054D0000CF041C08B39910509F476C3ECF48D379B
:1054E000910509F499C35CF48937910511F00C9486
:1054F00073381092CD151092CC150C9473388C38EB
:10550000910509F455C38139910511F00C94733854
:105510000E942CF20C947338863A910509F438C431
:105520006CF4833A910509F42FC4843A910511F083
:105530000C9473380F9462010C9473388E3B910570
:1055400009F44AC3883C910511F00C9473380E9409
:1055500083EF0C9473388C3D910509F429C4DCF475
:105560008C3C910509F41CC44CF48B3C910511F062
:105570000C9473380F9438050C9473388D3C910556
:1055800009F412C4833D910511F00C9473380F9403
:10559000EA030C9473388831B1E09B0709F43FC4E7
:1055A00054F48D3D910509F407C4823E910509F438
:1055B00007C40C9473388232F1E09F0709F4DDC40C
:1055C0008C32914011F00C9473380F9416030C94A4
:1055D0007338843A31E0930711F40C94DF340CF003
:1055E00040C0803951E0950711F40C94D1349CF4FB
:1055F0008F32B1E09B0709F4BFC50CF469C5803355
:10560000F1E09F0709F4E6C48336914011F40C944D
:10561000C0370C947338883931E0930711F40C9437
:10562000D83484F4813951E0950711F40C94D434C2
:105630008239914011F00C94733880E00E942D3F24
:105640000C9473388939B1E09B0711F40C94DC3465
:105650008A39914011F00C9473380F94E1020C9444
:105660007338873FF1E09F0711F40C944336ECF454
:10567000843F31E0930711F40C943D363CF4853AB5
:10568000914011F40C94AA350C947338853FA1E035
:105690009A0711F40C944036863F914011F00C9417
:1056A00073380F947F050C947338803AE3E09E07BB
:1056B00009F46FC17CF4883522E0920711F40C9450
:1056C000A7368335934011F00C947338E4E3FEE27F
:1056D0000C944F36873E43E0940711F40C94003845
:1056E000893D974011F00C9473380E94BCFF0C94D4
:1056F0007338A090671AB090681A80E50E947646C9
:10570000882359F00E943F416B017C0111E0672B17
:10571000682B692B31F410E004C010E0C12CD12CAF
:10572000760183E50E9476468823F1F00E941446B4
:1057300020E030E04AE754E40F949B400F94B845D2
:105740006B017C01111112C0672B682B692B71F45E
:10575000A114B10459F0D5018C91882339F061E08E
:10576000C5010E9483AD07C0112391F360E08CE472
:1057700093E00E9465AD83E090E090934F15809395
:105780004E1581E08093C7130E9419FB0E94664169
:10579000C114D104E104F104F1F08091040D909161
:1057A000050DA091060DB091070DC80ED91EEA1E79
:1057B000FB1E0E949AFDDC01CB018C199D09AE09EC
:1057C000BF09B7FF1EC08091C7138823D1F080E0C6
:1057D0000E94E974EECF8091C713882321F080E006
:1057E0000E94E974F8CF80915C1690915D1660E09C
:1057F000029719F48DE393E002C08EE293E00E94D9
:1058000065AD1092C7130C94733860E08FE593E098
:105810000E9465AD4298179815982E989FB7F894F6
:1058200080910B018D7F80930B019FBFA0980C94FA
:105830007338E7E7F3E084918F010F5F1F4F8823F0
:1058400021F00E94A941F801F6CF10921C19109284
:105850001B1940E050E0BA0185EA96E10E94D45B52
:105860008BE1E5EAF6E1DE01159601900D928A954D
:10587000E1F78091A3169091A4169C838B8382E01C
:1058800093E09A83898340E050E0BE016F5F7F4FD1
:105890008EEF93E00E949BE6CE0101960E94637416
:1058A000E8E6F3E084918F010F5F1F4F882311F426
:1058B0000C9473380E94A941F801F4CF0E947966D4
:1058C0000C94733810926C1610926D160C947338F9
:1058D0000E94579B0C9473380E94209B0C94733841
:1058E00080916D16882311F40C94733883E50E941F
:1058F000764681110C9499390C9473380E9425884E
:105900000C94733840E060E08091671A9091681AB7
:105910000E9432630C94733880916C1681110E943E
:1059200019FB80916D16882311F40C94733880E56F
:105930000E947646882319F00E94054603C080E540
:105940000E944746182F482F61E08091671A909176
:10595000681A0E94326383E50E947646882381F0AC
:105960000E94E445AB01BC0140939D1650939E16E6
:1059700060939F167093A01689E698E10E94D45B0D
:105980000E94156311110C9473380E9447870C9480
:1059900073388091671A9091681A21E020936B16F2
:1059A00040E060E00E9432630C9473380E94AAE5E4
:1059B000BCE3CB2ED12CE12CF12CA70196010F9446
:1059C0001144762E672ECA01B901A70196010F94E2
:1059D00011446B017C01CA01B90128E130E040E0CB
:1059E00050E00F9411444B015C01C9016DE671E078
:1059F0000F9443478E010F5F1F4F6115710599F09A
:105A00006F927F92DF92CF929F928F929F938F930C
:105A10007F936F9380EB93E09F938F931F930F93EC
:105A20000F94CF3F12C00097B1F06F927F92DF9238
:105A3000CF929F928F929F938F9380EA93E09F9350
:105A40008F931F930F930F94CF3F0FB6F894DEBF41
:105A50000FBECDBF36C081149104A104B10479F00A
:105A60006F927F92DF92CF929F928F9284E993E020
:105A70009F938F931F930F930F94CF3FE6CFC11443
:105A8000D104E104F10469F06F927F92DF92CF922A
:105A90008CE893E09F938F931F930F930F94CF3FC6
:105AA000D4CF6F927F9288E893E09F938F931F9358
:105AB0000F930F94CF3F0F900F900F900F900F9078
:105AC0000F9060E0C8010E9483ADE4E3FEE28491A0
:105AD0007F019FEFE91AF90A882321F00E94A9416A
