:100000000C9482190C94B3190C94B3190C94B31971
:100010000C94B3190C94B3190C94B3190C94B31930
:100020000C94B3190C94B3190C94B3190C94B31920
:100030000C94B3190C94B3190C94B3190C94B31910
:100040000C94B3190C94F1600C94B3190C94B3197B
:100050000C94B3190C94B3190C943BD00C946043DA
:100060000C94B3190C9469400C94B3190C94B31903
:100070000C94B3190C94B3190C94B3190C94B319D0
:100080000C94B3190C94B3190C94B3190C94B319C0
:100090000C94B3190C94B3190C94B3190C94B319B0
:1000A0000C94B3190C94B3190C94B3190C94B319A0
:1000B0000C94B3190C94B3190C94B3190C94B31990
:1000C0000C94B3190C94B3190C94B3190C94B31980
:1000D0000C94B3190C94B3190C94B3190C94B31970
:1000E0000C94B319D840DB40CA40CE40D4401241F2
:1000F000DF40E340E940ED40F140F740FB40FF4086
:100100001241054109410D417C42814286429042A3
:100110009A421343A442AC42B442BE42C842D242C5
:10012000E142EB421343F542FF420943FF72087379
:1001300012731B7324733F734C7355732D73367393
:10014000084AD73B3BCE016E84BCBFFDC12F3D6C3E
:1001500074319ABD56833DDA3D00C77F11BED9E4A4
:10016000BB4C3E916BAAAABE000000803F05A84C84
:10017000CDB2D44EB93836A9020C50B99186880850
:100180003CA6AAAA2ABE000000803F000D94AC0342
:100190000D94E8024E414E494E495459494E46CDC0
:1001A000CCCC3D0AD7233C17B7D13877CC2B32952E
:1001B00095E6241FB14F0A000020410000C842000C
:1001C000401C4620BCBE4CCA1B0E5AAEC59D744393
:1001D0004F4D4D554E49434154494F4E004452599D
:1001E00052554E004552524F525300494E464F0011
:1001F0004543484F0020746F6F206C6F6E67206519
:100200007874727573696F6E2070726576656E743E
:1002100065640A0020636F6C64206578747275737E
:10022000696F6E2070726576656E7465640A00543D
:10023000454D5020544F4F204C4F57210047322FEF
:1002400047332062616420706172616D657465720C
:10025000730A00536C6565702E2E2E0052657375FF
:100260006D696E67207072696E74005072696E7489
:1002700065722072656164792E00436C69636B203E
:10028000746F20726573756D652E2E2E004E6F2073
:100290006D6F76652E00456E642066696C65206C16
:1002A0006973740A00426567696E2066696C65202F
:1002B0006C6973740A0046696C652064656C6574CA
:1002C00065643A0044656C6574696F6E20666169A7
:1002D0006C65642C2046696C653A20006F70656E11
:1002E000206661696C65642C2046696C653A200063
:1002F0002569730025696D202569730025696820CB
:1003000025696D20256973002569642025696820A9
:1003100025696D2025697300256979202569642088
:100320002569682025696D20256973005072696E02
:10033000742074696D653A2000000125272318FF99
:100340001F211D1CFF19171B1EFFFF0C0409FFFFB7
:10035000FF2E2C0CFFFF312F302B2D2904400AFFDC
:1003600041FFFFFFFFFFFF50726F746563746564A8
:100370002050696E0A004525692025730050726976
:100380006E7465722072656164792E00F001EB0174
:10039000E401DD01CF016F66660044454255473AEE
:1003A000004B494C4C45442E20004D3131332053F5
:1003B000006F6B0048656174696E6720646F6E65DD
:1003C0002E0020573A004525692025730050726998
:1003D0006E7465722072656164792E0042656420D6
:1003E000646F6E652E0020573A00426564204865B0
:1003F0006174696E672E005072696E746572204F69
:1004000066662E00454D455247454E43595F504163
:100410005253455200434153455F4C494748545F4E
:100420004252494748544E45535300544F47474C56
:10043000455F4C494748545300534F465457415227
:10044000455F504F574552004255494C445F504517
:100450005243454E54004C4556454C494E475F4427
:10046000415441005A5F50524F4245004155544F4C
:100470004C4556454C005052494E545F4A4F42003D
:1004800050524F4752455353004155544F524550D7
:100490004F52545F54454D5000564F4C554D4554A6
:1004A00052494300454550524F4D00534552494132
:1004B0004C5F584F4E5F584F4646004649524D5785
:1004C0004152455F4E414D453A4D61726C696E2017
:1004D000312E312E382028476974687562292053DF
:1004E0004F555243455F434F44455F55524C3A6820
:1004F000747470733A2F2F6769746875622E636F16
:100500006D2F4D61726C696E4669726D77617265AF
:100510002F4D61726C696E2050524F544F434F4CB7
:100520005F56455253494F4E3A312E30204D41438C
:1005300048494E455F545950453A5072696E74654A
:10054000722045585452554445525F434F554E54BE
:100550003A3120555549443A6365646532613266E3
:100560002D343161322D343734382D396231322D0A
:100570006335356336326633363766660A002F2FA9
:1005800020007A5F6D696E3A2000795F6D696E3A7E
:100590002000785F6D696E3A20005265706F72744A
:1005A000696E6720656E6473746F70207374617414
:1005B00075730A004D31343520533C696E6465789B
:1005C0003E206F7574206F662072616E676520280B
:1005D000302D31290A005761726E696E673A204DDD
:1005E000697820666163746F7273206D757374200F
:1005F00061646420757020746F20312E302E20537A
:1006000063616C696E672E0A00252900257C002035
:100610002800252920746F205A00257C00202800FE
:100620004F4E2066726F6D205A004F46460047724B
:10063000616469656E74204D697820005365747437
:10064000696E672054726176656C20416363656CE6
:1006500065726174696F6E3A200053657474696ED7
:1006600067205265747261637420416363656C65D1
:10067000726174696F6E3A200053657474696E67B5
:10068000205072696E7420416363656C6572617499
:10069000696F6E3A200053657474696E67205072FA
:1006A000696E7420616E642054726176656C2041BD
:1006B0006363656C65726174696F6E3A20004361B3
:1006C0007365206C696768743A2000290A004669DE
:1006D00078656420706172616D65746572206279FD
:1006E0007465733B206372632000466978656420FB
:1006F000706172616D6574657220280048565F7381
:1007000065745F6F6B0A00556E6B6E6F776E20635A
:100710006F6D6D616E643A2022004C696E65204EEB
:10072000756D626572206973206E6F74204C617301
:1007300074204C696E65204E756D6265722B312C8C
:10074000204C617374204C696E653A20004B494C13
:100750004C45442E200053544F505045442E200009
:100760005072696E7465722073746F707065642066
:1007700064756520746F206572726F72732E2046E7
:10078000697820746865206572726F7220616E648A
:1007900020757365204D39393920746F2072657367
:1007A000746172742E202854656D70657261747561
:1007B00072652069732072657365742E20536574A9
:1007C0002069742061667465722072657374617249
:1007D00074696E67290A004E6F20436865636B7306
:1007E000756D2077697468206C696E65206E756D13
:1007F0006265722C204C617374204C696E653A20DE
:1008000000636865636B73756D206D69736D6174EA
:1008100063682C204C617374204C696E653A20002B
:100820004D313130004D33310047312046313030C9
:100830003020593231300047323820585900534463
:100840002072656164206572726F720A00446F6E77
:1008500065207072696E74696E672066696C650ADE
:100860000020496E76616C696420657874727564E5
:10087000657220004D31323500205A3A0020593A35
:100880000020436F756E7420583A0020453A0020CE
:100890005A3A0020593A00583A003A004361703AF7
:1008A00000200D466978656420706172616D657421
:1008B0006572206E62797465733B20637263206594
:1008C00072726F722000200D0A466978656420708C
:1008D0006172616D657465722062797465733B2025
:1008E000637263206572726F722000290A002062B1
:1008F000797465733B206372632000466978656490
:1009000020706172616D65746572202800206861D5
:100910007264776172652076657273696F6E3A00F2
:100920004B494C4C45442E2000202D20496E7661C9
:100930006C6964206578747275646572206E756D7B
:1009400062657220210A001FFFFFFFFFFFFF6000AA
:1009500000000001FF400000000000FF80000000D8
:1009600000007F83CF00000C303F87FF80000C30F9
:100970001F867980000C000F8C30C7838C30E78C89
:1009800030CFC7CC31F38C30DCECEC33B98C30D8C1
:100990006C6C33198C30D06C0C33198C30D86C0CD7
:1009A00033198C30DC6C0E3B198C30CF7C079F19CF
:1009B0008C30C77C038F19400000000000026000EB
:1009C00000000000061FFFFFFFFFFFF82020506C13
:1009D000616E6E65724275666665724279746573A2
:1009E0003A20002046726565204D656D6F72793A38
:1009F0002000436F6D70696C65643A204A616E2017
:100A0000203720323032300A00207C204175746853
:100A10006F723A20286E6F6E652C20646566617572
:100A20006C7420636F6E666967290A003230313753
:100A30002D31322D32352031323A303000204C61A8
:100A4000737420557064617465643A2000312E31EE
:100A50002E380A004D61726C696E0020536F667407
:100A6000776172652052657365740A00205761745E
:100A70006368646F672052657365740A0020427270
:100A80006F776E206F75742052657365740A00204D
:100A900045787465726E616C2052657365740A00E6
:100AA000506F77657255700A0073746172740A0032
:100AB0006572726F722077726974696E6720746FE5
:100AC0002066696C650A00456E6473746F707320EC
:100AD000256320256320256320256300205A3A00E2
:100AE00020593A0020583A00656E6473746F707331
:100AF000206869743A200047323820580066696CD3
:100B0000616D656E74206F75740A004D3332205329
:100B1000256C7520212573004D33322053256C75CB
:100B200020212F25732F2573004730204631303088
:100B300030205A25752E2575004732382059004738
:100B400032382058004D31303620205332353500B0
:100B50004D31303920543020532575004D31393016
:100B60002053257500446F6E6520736176696E674A
:100B70002066696C652E0A004D32390000002100A4
:100B8000240027002A002D0030003300010100005E
:100B9000040107010A0100002200250028002B00A3
:100BA0002E003100340002010000050108010B0194
:100BB000000020002300260029002C002F00320016
:100BC00000010000030106010901050505050705EF
:100BD00008080808020202020A0A080804040404B9
:100BE00001010101010101010303030303030303E5
:100BF000040707070C0C0C0C0C0C0C0C0202020274
:100C000006060606060606060B0B0B0B0B0B0B0B5C
:100C1000010210202008081020401020408002010E
:100C200002010804020101020408102040808040F3
:100C300020100804020180040201804020100804F2
:100C40000201080402010102040810204080010290
:100C500004081020408000000A0B02090C0D0E0849
:100C60000703040100000000000000000000000075
:100C70000000000000000000000000000000000074
:100C80000000121110000000000000000000000031
:100C900000000000000000000000000070012C01B6
:100CA00090012701B0012201C0011D01F0011801CE
:100CB0001002130130020E016002090190020401CA
:100CC000C002FF000003FA004003F5008003F000BB
:100CD000D003EB002004E6007004E100E004DC0037
:100CE0004005D700C005D2004006CD00D006C800A0
:100CF0008007C3003008BE00F008B900C009B40086
:100D0000B00AAF00B00BAA00D00CA500000EA000E6
:100D1000500F9B00C01096005012910000148C00E0
:100D2000C0158700B0178200B0197D00D01B780075
:100D3000001E730040206E0090226900F0246400C1
:100D400040275F0090295A00E02B5500102E5000DC
:100D500020304B0010324600E033410090353C001B
:100D60001037370070383200A0392D00B03A280013
:100D7000A03B2300603C1E00103D1900903D140074
:100D8000103E0F00703E0A00C03E0500003F00000C
:100D9000403FFBFF803FF6FFC03FF1FF202F0020C8
:100DA00042403A0020403A00436172642072656D0F
:100DB0006F766564004361726420696E7365727456
:100DC00065640000060900FE0701920321207FFFF1
:100DD00007FF07FF000000060000010707060200EA
:100DE00080808080800080030202060105A0A005AB
:100DF00007070600005050F850F850500507070646
:100E000000002078A07028F020050707060000C029
:100E1000C810204098180507070600006090A04001
:100E2000A89068020303060104C040800307070678
:100E300001002040808080402003070706010080D9
:100E400040202020408005050506000120A870A84C
:100E5000200505050600012020F8202002030306D6
:100E600002FFC04080050101060003F802020206ED
:100E70000200C0C0050505060001081020408005DD
:100E800007070600007088888888887003070706AF
:100E9000010040C040404040E005070706000070E8
:100EA0008808708080F8050707060000F8102010F9
:100EB0000808F005070706000010305090F81010E1
:100EC000050707060000F880F00808887005070786
:100ED000060000708080F088887005070706000013
:100EE000F8081020202020050707060000708888D9
:100EF00070888870050707060000708888780808E1
:100F000070020505060200C0C000C0C00206060649
:100F100002FFC0C000C04080040707060000102088
:100F20004080402010050303060002F800F8040783
:100F300007060100804020102040800507070600BA
:100F40000070880810200020050707060000708840
:100F50000868A8A870050707060000708888F88848
:100F60008888050707060000F08888F08888F00563
:100F700007070600007088808080887005070706D4
:100F80000000F08888888888F0050707060000F8C8
:100F90008080F08080F8050707060000F88080F068
:100FA000808080050707060000708880B8888870F8
:100FB000050707060000888888F8888888010707E1
:100FC0000602008080808080808005070706000080
:100FD000381010101090600507070600008890A0D8
:100FE000C0A0908805070706000080808080808070
:100FF000F805070706000088D8A8888888880507AC
:10100000070600008888C8A8988888050707060092
:101010000070888888888870050707060000F088B7
:1010200088F080808005070706000070888888A8FF
:101030009068050707060000F08888F0A0908805F2
:101040000707060000788080700808F0050707068B
:101050000000F82020202020200507070600008837
:10106000888888888870050707060000888888882F
:101070008850200507070600008888888888A850BF
:101080000507070600008888502050888805070754
:1010900006000088888850202020050707060000E9
:1010A000F80810204080F8030707060100E0808060
:1010B000808080E0050505060001804020100803BF
:1010C0000707060100E02020202020E0050303069A
:1010D0000004205088050101060000F80202020603
:1010E000020580400505050600007008788878052F
:1010F00007070600008080B0C88888F0050505064F
:1011000000007080808870050707060000080868E6
:10111000988888780505050600007088F8807005B5
:1011200007070600003048E040404040050606063C
:1011300000FF708888780870050707060000808027
:10114000B0C8888888010707060200800080808078
:1011500080800308080601FF200020202020A040F6
:10116000040707060000808090A0C0A09003070736
:10117000060100C04040404040E005050506000073
:10118000D0A8A8A8A8050505060000B0C8888888CA
:1011900005050506000070888888700506060600AB
:1011A000FFF08888F080800506060600FF788888B2
:1011B000780808050505060000B0C8808080050590
:1011C0000506000070807008F00407070600004064
:1011D00040E04040403005050506000088888898BA
:1011E0006805050506000088888850200505050665
:1011F00000008888A8A85005050506000088502032
:1012000050880506060600FF88888878087005055E
:1012100005060000F8102040F8030707060100202B
:101220004040804040200107070602008080808007
:1012300080808003070706010080404020404080F6
:1012400005020206000268900000000600004573D7
:10125000746570732F6D6D004573746570732F6DB9
:101260006D005A73746570732F6D6D005A737465D9
:1012700070732F6D6D005973746570732F6D6D00F1
:101280005973746570732F6D6D0058737465707346
:101290002F6D6D005873746570732F6D6D004D6FF9
:1012A00074696F6E0053746570732F6D6D004A65BD
:1012B000726B00416363656C65726174696F6E0087
:1012C00056656C6F6369747900436F6E74726F6CEE
:1012D000004F6E200052756E6F75742073656E73CB
:1012E0006F7273004F66660046696C2E2044696118
:1012F0002E0046696C2E204469612E004F66660000
:101300004F6E20004520696E206D6D3300436F6E77
:1013100074726F6C0043616E6E6F7420656E7465DD
:1013200072207375626469723A2000022E2E004D9D
:1013300061696E004D61782054656D703A203132DC
:1013400035004D696E2054656D703A203500544269
:1013500065643A4550434F53203130304B004D6166
:10136000782054656D703A20323635004D696E2014
:1013700054656D703A20350054303A204550434F43
:1013800053203130304B005053553A2047656E653D
:101390007269630050726F746F636F6C3A20312E04
:1013A0003000202020204857205665723A205600F1
:1013B0004657205665723A2056322E3000426175EB
:1013C000643A2032353030303000475432353630D0
:1013D0002056342E30004578747275646572733A05
:1013E000203100687474703A2F2F6D61726C696ED1
:1013F00066772E6F7267005072696E746572003284
:101400003031372D31322D32352031323A30300003
:10141000312E312E38004D61726C696E0024F4D487
:101420003050C38E20C2A24017828B7011127A9165
:101430000D816CD90AA861E108C75866076151435C
:10144000061E4B5D05C145A7041A411104093D98CC
:1014500003713931034036DB0265339102D43054D5
:1014600002802E1D02632CEE01752AC501B028A052
:1014700001102781018F2564012B244B01E02234C8
:1014800001AC211F018D200D01801FFC00841EED89
:1014900000971DDF00B81CD200E61BC600201BBC55
:1014A00000641AB200B219A8000A19A0006A1899BB
:1014B00000D117910040178B00B516840031167EBD
:1014C00000B31579003A157300C7146F0058146AF9
:1014D00000EE1366008813630025135E00C7125BDD
:1014E000006C12570015125400C111510070114FB9
:1014F0000021114B00D61049008D104700461044C2
:101500000002104200C00F4000800F3E00420F3C1E
:1015100000060F3B00CB0E3800930E37005C0E35F3
:1015200000270E3400F30D3200C10D3100900D3054
:1015300000600D2E00320D2D00050D2C00D90C2B56
:1015400000AE0C2900850C29005C0C2700350C2707
:10155000000E0C2600E80B2400C40B2400A00B2373
:10156000007D0B23005A0B2100390B2100180B20A2
:1015700000F80A1F00D90A1E00BB0A1E009D0A1DA2
:1015800000800A1D00630A1C00470A1B002C0A1B6E
:1015900000110A1A00F7091A00DD091900C4091917
:1015A00000AB091900920917007B0918006309179D
:1015B000004C09160036091600200916000A091504
:1015C00000F5081500E0081400CC081400B8081451
:1015D00000A4081400900813007D0812006B081383
:1015E00000580812004608120034081100230811A0
:1015F000001208110001081100F0071000E00710A8
:1016000000D0071000C0071000B0070F00A107109E
:101610000091070E0083070F0074070F0065070E87
:101620000057070E0049070E003B070D002E070E5E
:101630000020070D0013070D0006070D00F9060C2A
:1016400000ED060D00E0060C00D4060C00C8060CE8
:1016500000BC060C00B0060C00A4060B0099060C9A
:10166000008D060B0082060B0077060B006C060B44
:101670000061060A0057060B004C060A0042060AE3
:101680000038060A002E060A0024060A001A060A76
:10169000001006090007060A00FD050900F4050907
:1016A00000EB050900E2050900D9050900D005098C
:1016B00000C7050900BE050900B5050800AD05080D
:1016C00000A50509009C050800940508008C050884
:1016D00000840508007C050800740508006C0507F7
:1016E00000650508005D050700560508004E050762
:1016F00000470507004005080038050700310507C9
:10170000002A050700230507001C0506001605072B
:10171000000F0507000805060002050700FB040688
:1017200000F5040700EE040600E8040600E20407E2
:1017300000DB040600D5040600CF040600C9040639
:1017400000C3040600BD040600B7040600B104058A
:1017500000AC040600A6040600A00405009B0406D5
:101760000095040500900406008A04050085040520
:1017700000800406007A0405007504050070040565
:10178000006B04050066040500610405005C0405A7
:101790000057040500520405004D040500480405E7
:1017A00000430405003E0404003A04050035040526
:1017B00000300404002C0405002704040023040561
:1017C000001E0404001A0404001604050011040499
:1017D000000D0404000904050004040400000404CE
:1017E00000FC030400F8030400F4030400F0030405
:1017F00000EC030400E8030400E4030400E0030435
:1018000000DC030400D8030400D4030400D0030464
:1018100000CC030400C8030300C503030024F40440
:10182000D9201BC40C5C0E9804C4095F02650771C3
:1018300001F405F900FB04B30048048700C1036903
:10184000005803550003034500BE023A00840231EC
:101850000053022A002902250004022000E4011C92
:1018600000C8011900AF011700980114008401138A
:1018700000710110006101100051010E0043010DC3
:101880000036010B002B010B0020010B0015010994
:10189000000C01090003010800FB000800F3000828
:1018A00000EB000700E4000600DE000600D800069A
:1018B00000D2000600CC000500C7000500C20005EC
:1018C00000BD000400B9000400B5000400B100042C
:1018D00000AD000400A9000400A5000300A200035D
:1018E000009F0004009B0003009800030095000285
:1018F0000093000300900003008D0002008B0003A2
:1019000000880002008600020084000300810002BB
:10191000007F0002007D0002007B000200790002CF
:1019200000770001007600020074000200720001DE
:1019300000710002006F0002006D0001006C0002E7
:10194000006A0001006900020067000100660001F2
:1019500000650001006400020062000100610001F6
:1019600000600001005F0002005D0001005C0001FA
:10197000005B0001005A00010059000100580001FD
:1019800000570001005600010055000100540001FD
:1019900000530000005300010052000100510001FB
:1019A00000500001004F0001004E0000004E0001F9
:1019B000004D0001004C0001004B0000004B0001F5
:1019C000004A0001004900010048000000480001F1
:1019D00000470001004600000046000100450000ED
:1019E00000450001004400010043000000430001E5
:1019F00000420000004200010041000000410001DF
:101A000000400001003F0000003F0001003E0000D8
:101A1000003E0001003D0000003D0001003C0000D0
:101A2000003C0000003C0001003B0000003B0001C6
:101A3000003A0000003A00010039000000390001BE
:101A400000380000003800000038000100370000B6
:101A500000370001003600000036000000360001AB
:101A600000350000003500000035000100340000A2
:101A70000034000000340001003300000033000097
:101A8000003300010032000000320000003200018B
:101A90000031000000310000003100010030000082
:101AA0000030000000300001002F0000002F000077
:101AB000002F0000002F0001002E0000002E00006B
:101AC000002E0001002D0000002D0000002D000060
:101AD000002D0001002C0000002C0000002C000054
:101AE000002C0001002B0000002B0000002B000048
:101AF000002B0001002A0000002A0000002A00003C
:101B0000002A00010029000000290000002900002F
:101B10000029000000290001002800000028000022
:101B20000028000000280000002800010027000015
:101B30000027000000270000002700000027000108
:101B400000260000002600000026000000260000FD
:101B500000260001002500000025000000250000EF
:101B600000250000002500000025000100240000E1
:101B700000240000002400000024000000240001D4
:101B800000230000002300000023000000230000C9
:101B900000230000002300000023000100220000B9
:101BA00000220000002200000022000000220000AD
:101BB000002200010021000000210000002100009F
:101BC0000021000000210000002100000021000190
:101BD0000020000000200000002000000020000085
:101BE0000020000000200000002000000020000174
:101BF000001F0000001F0000001F0000001F000069
:101C0000001F0000001F0000001F0001001E000058
:101C1000001E0000001E0000001E0000004D3834B1
:101C200020582059205A2045005A25752C45256CEE
:101C3000752C50256C752C5425752C4225752C005F
:101C40005072696E7465722072656164792E0050FD
:101C500072696E7465722072656164792E004572D6
:101C6000723A4E6F2046696C616D656E74005468FF
:101C700065726D6973746F727300426F6172642074
:101C8000496E666F005072696E74657220496E66A7
:101C90006F004D61696E0020204E6F7A7A6C653A54
:101CA000200020004261636B004D696E696D756DA7
:101CB0002054656D70206973203137302E004865DF
:101CC0006174696E67206661696C6564004578744B
:101CD00072756465206D6F726500526573756D6510
:101CE000207072696E7400524553554D45204F5017
:101CF00054494F4E533A0020204E6F7A7A6C653A21
:101D000020006368616E6765006F662074686520F7
:101D100066696C616D656E74005761697420666FE9
:101D200072207374617274005052494E54205041B5
:101D3000555345440020204E6F7A7A6C653A200056
:101D4000200066696C616D656E7420756E6C6F61E4
:101D500064005761697420666F72005052494E5496
:101D6000205041555345440020204E6F7A7A6C65CF
:101D70003A20002000506C656173652077616974BA
:101D80002E2E2E0048656174696E67206E6F7A7A18
:101D90006C65005052494E54205041555345440003
:101DA00020204E6F7A7A6C653A20002000686561C9
:101DB00074206E6F7A7A6C652E0050726573732092
:101DC000627574746F6E20746F005052494E5420C7
:101DD0005041555345440020204E6F7A7A6C653A45
:101DE0002000746F20636F6E74696E75652E2E2EE1
:101DF00000616E6420707265737320627574746F15
:101E00006E00496E736572742066696C616D656EF3
:101E100074005052494E54205041555345440020BF
:101E2000204E6F7A7A6C653A2000200066696C61FA
:101E30006D656E74206C6F61640057616974206613
:101E40006F72005052494E54205041555345440042
:101E500020204E6F7A7A6C653A2000200066696C0B
:101E6000616D656E74206578747275646500576184
:101E7000697420666F72005052494E54205041558B
:101E800053454400746F20726573756D650057612A
:101E9000697420666F72207072696E7400505249C6
:101EA0004E542050415553454400496E6974696150
:101EB0006C697A6520454550524F4D00436F6E74F2
:101EC000726F6C00526573746F7265206661696C25
:101ED00073616665004C6F61642073657474696E2C
:101EE000677300496E697469616C697A652045455C
:101EF00050524F4D0053746F72652073657474694E
:101F00006E67730046696C616D656E74004D6F7429
:101F1000696F6E0054656D706572617475726500ED
:101F20004D61696E004D33303320553120452569B0
:101F300020532569005072656865617420414253E1
:101F400020636F6E66005072656865617420504C46
:101F50004120636F6E6600504944204175746F7470
:101F6000756E6500504944204175746F74756E65D7
:101F7000005049442D44005049442D4400504944E8
:101F80002D49005049442D49005049442D500050DE
:101F900049442D5000200820466163740020082029
:101FA00046616374002008204D6178002008204DB0
:101FB0006178002008204D6178002008204D696E6E
:101FC000002008204D696E002008204D696E004FEA
:101FD0006666004F6E20004175746F74656D700009
:101FE00046616E2073706565640046616E20737093
:101FF0006565640042656400426564004E6F7A7AEC
:102000006C65004E6F7A7A6C6500436F6E74726F08
:102010006C0053746F72652073657474696E6773B6
:102020000042656400426564004E6F7A7A6C650018
:102030004E6F7A7A6C650046616E207370656564D8
:102040000046616E2073706565640054656D70654F
:1020500072617475726500544845524D414C20526E
:10206000554E4157415900546865726D616C20525C
:10207000756E617761790043616E6E6F74206F7069
:10208000656E207375626469722000656E71756596
:102090007565696E672022006563686F3A004D318F
:1020A00030342053257500473932204525750047C7
:1020B0003932205A25752E2575004D3530300043B4
:1020C000616E63656C207072696E74005265737521
:1020D0006D65207072696E7400506F776572206F45
:1020E00075746167650025753A25303275002530B5
:1020F00032753A25303275002575642025303275E9
:102100003A25303275005A004D7825643B25643BF2
:102110002564252520004D7825643B25643B2564F6
:10212000252520000920000000000000000000001C
:102130000000007FFFE00000000000000000000041
:1021400000007000E000000000000000000000003F
:102150000061F860000000000000000000000000C6
:1021600041F82000000000000000000000000040D6
:10217000F0200000000000000000000000004060AF
:10218000200000000000000000000000005801A036
:102190007F80000000000000004104005C63A0FF9D
:1021A000C0000000000000002082005EF7A0FFC019
:1021B000000000000000002082005EF7A0FFC000C9
:1021C0000000000000004104005C63A07F8000006C
:1021D00000000000008208005801A07F800000007D
:1021E00000000001041000406020FFC0000000005B
:1021F00000000104100040F020FFC00000000000BB
:10220000000082080041F820FFC00000000000002C
:102210000041040061F8603F000000000000000081
:102220000000007000E01E0000000000000001FF40
:10223000FF807FFFE00C0000000000000001FFFFB6
:10224000800000000000000000000000000000000E
:102250007FFFE000000000000000000000000070B0
:1022600000E0000000000000000000000000630C1F
:1022700060000000000000000000000000470E2089
:102280000000000000000000000000004F0F2000D0
:1022900000000000000000000000005F0FA0000030
:1022A000000000000000000000005E07A07F80002A
:1022B000000000000000410400406020FFC000005A
:1022C000000000000020820040F020FFC00000005D
:1022D0000000000020820040F020FFC0000000004D
:1022E0000000004104004060207F800000000000EA
:1022F00000008208005E07A07F8000000000000050
:10230000010410005F0FA0FFC000000000000001EA
:102310000410004F0F20FFC00000000000000082EA
:102320000800470E20FFC00000000000000041042C
:1023300000630C603F00000000000000000000008F
:102340007000E01E0000000000000001FFFF807F21
:10235000FFE00C0000000000000001FFFF80000013
:102360000000060900FE000000000001090008FE50
:10237000000005080806000040F0C888889878101A
:10238000050808060000C0F88888888888F80505D0
:10239000050600012030F83020050808060000205E
:1023A00070F820202020E00509090600FF2070A811
:1023B000A8B8888870200509090600FFE080C0B031
:1023C000A8283028280509090600FFF8A888888869
:1023D0008888A8F8050A0A0600FE20505050508848
:1023E000A8A8887003030306000340A0404572724A
:1023F0006F722077726974696E6720746F2045452B
:1024000050524F4D210A00290A00206279746573E9
:102410003B20637263200053657474696E67732098
:1024200053746F7265642028004D69783A253364CF
:1024300025253B25336425253B2533642525004789
:1024400072616469656E7400546F67676C65206DB6
:102450006978003A2533643B2533643B2533642592
:1024600025004D6978004D61696E005072696E7487
:1024700020706175736564004D313235000025733D
:10248000004D3234005072696E742061626F727454
:1024900065640047323820585900473930004731C9
:1024A000204631303030205A323000473931004E2A
:1024B0006F2053442063617264005072696E74200F
:1024C00066726F6D2053440053746F702070726990
:1024D0006E740041626F7574205072696E7465721B
:1024E00000526573756D65207072696E740050617D
:1024F000757365207072696E74004D69786572003D
:10250000436F6E74726F6C0050726570617265001B
:1025100054756E6500496E666F2073637265656EF3
:10252000004261627973746570205A004D36303014
:10253000204230004368616E67652066696C616D9A
:10254000656E74004261627973746570205A00464A
:102550006C6F7700466C6F770046616E2073706514
:1025600065640046616E2073706565640042656451
:1025700000426564004E6F7A7A6C65004E6F7A7A1D
:102580006C65005370656564005370656564004D4B
:1025900061696E00205A00205900580020204D61CA
:1025A000783A2000205A00205900580020204D6918
:1025B0006E3A20004F6E20004F666600536F6674BF
:1025C00020656E6473746F70733A200020643A0063
:1025D00020693A0020703A0020643A0020693A00ED
:1025E00020703A0043290A0061626C656420286DFE
:1025F000696E2074656D702000436F6C642065788F
:102600007472756465732061726520004B642000EC
:1026100023646566696E65202044454641554C54E7
:102620005F004B69200023646566696E6520204465
:10263000454641554C545F004B702000236465664D
:10264000696E65202044454641554C545F00504911
:1026500044204175746F74756E652066696E697388
:10266000686564212050757420746865206C6173FE
:1026700074204B702C204B6920616E64204B6420C9
:10268000636F6E7374616E74732066726F6D206217
:10269000656C6F7720696E746F20436F6E66696733
:1026A00075726174696F6E2E680A0050494420414A
:1026B00075746F74756E65206661696C6564212040
:1026C00074696D656F75740A00544845524D414CEC
:1026D0002052554E4157415900546865726D616CE6
:1026E0002052756E617761790048656174696E6723
:1026F000206661696C65640048656174696E672075
:102700006661696C656400504944204175746F745A
:10271000756E65206661696C6564212054656D7015
:102720006572617475726520746F6F20686967687F
:102730000A00204B643A2000204B693A2000204BCD
:10274000703A20000A20436C61737369632050491A
:1027500044200A002054753A2000204B753A20008E
:10276000206D61783A2000206D696E3A2000206467
:102770003A200020626961733A200053442063616B
:102780007264206F6B0A006F70656E526F6F7420F9
:102790006661696C65640A00766F6C756D652E699B
:1027A0006E6974206661696C65640A00534420692F
:1027B0006E6974206661696C0A006175746F2569C1
:1027C0002E67004D3234004D32332025730057728E
:1027D0006974696E6720746F2066696C653A2000C1
:1027E0006F70656E206661696C65642C2046696C4B
:1027F000653A20006F70656E206661696C65642CB7
:102800002046696C653A200046696C652073656CEA
:1028100065637465640A002053697A653A2000464E
:10282000696C65206F70656E65643A20006F706535
:102830006E206661696C65642C2046696C653A207F
:10284000002066696C653A2000646F696E670066F7
:1028500072657368004E6F772000454E44205355D3
:1028600042524F5554494E450A002220706F730062
:102870002220706172656E743A2200535542524FA5
:102880005554494E452043414C4C20746172676554
:10289000743A22004B494C4C45442E200074727906
:1028A000696E6720746F2063616C6C207375622D94
:1028B00067636F64652066696C6573207769746807
:1028C00020746F6F206D616E79206C6576656C7316
:1028D0002E204D4158206C6576656C2069733A0056
:1028E0004572726F723A007C3C3E5E2B3D3F2F5B1F
:1028F0005D3B2C2A225C0020440020490020204D12
:1029000033303420500020440020490020204D3333
:1029100030312050005049442073657474696E67EB
:10292000733A0A0020460020420020480020204D33
:102930003134352053004D6174657269616C2068D3
:10294000656174757020706172616D657465727314
:102950003A0A00204500205A002059002058002043
:10296000420020540020204D323035205300416475
:1029700076616E6365643A20533C6D696E5F66658F
:102980006564726174653E20543C6D696E5F74725B
:102990006176656C5F66656564726174653E204250
:1029A0003C6D696E5F7365676D656E745F74696DAC
:1029B000655F75733E20583C6D61785F78795F6A1A
:1029C00065726B3E205A3C6D61785F7A5F6A657212
:1029D0006B3E20453C6D61785F655F6A65726B3E5A
:1029E0000A0020540020520020204D323034205064
:1029F00000416363656C65726174696F6E20287550
:102A00006E6974732F7332293A20503C7072696E6C
:102A1000745F616363656C3E20523C7265747261E1
:102A200063745F616363656C3E20543C74726176CD
:102A3000656C5F616363656C3E0A00204500205A47
:102A40000020590020204D3230312058004D61784F
:102A5000696D756D20416363656C65726174696F42
:102A60006E2028756E6974732F7332293A0A00201C
:102A70004500205A0020590020204D323033205884
:102A8000004D6178696D756D20666565647261746D
:102A900065732028756E6974732F73293A0A0020B4
:102AA0004500205A0020590020204D39322058007E
:102AB00053746570732070657220756E69743A0A7C
:102AC0000020204D3230302044300A0020204D328A
:102AD00030302044002044697361626C65640A00F0
:102AE00046696C616D656E742073657474696E6798
:102AF000733A0020204D3134392043203B20556E5D
:102B000069747320696E2043656C736975730A007C
:102B10002020473231202020203B20556E697473DD
:102B200020696E206D6D0A00526573656E643A20EF
:102B3000006F6B00627573793A207061757365641C
:102B400020666F7220696E7075740A006275737901
:102B50003A2070617573656420666F7220757365C5
:102B6000720A00627573793A2070726F63657373CD
:102B7000696E670A004B494C4C45442E20004B4976
:102B80004C4C2063617573656420627920746F6FAB
:102B9000206D75636820696E616374697665207461
:102BA000696D65202D2063757272656E7420636F88
:102BB0006D6D616E643A2000506C656173652072C2
:102BC00065736574005052494E5445522048414C3B
:102BD000544544005072696E7465722068616C746B
:102BE00065642E206B696C6C28292063616C6C65B0
:102BF00064210A00000020C10000A0C00000000005
:102C00000000C8420000C8420000A04100000000CF
:102C10005761726E696E673A20486F6D696E672002
:102C200042756D702044697669736F72203C203163
:102C30000A000202040000A0400000A040000000C2
:102C4000400000824300007F4300007A43FFFFFF03
:102C50004D36303020486F74656E6420746F6F207D
:102C6000636F6C6420746F206368616E67652066B3
:102C7000696C616D656E740A0020746F6F206C6FF3
:102C80006E6720657874727573696F6E20707265F7
:102C900076656E7465640A0020636F6C64206578E5
:102CA00074727573696F6E2070726576656E746587
:102CB000640A006265640A002C2073797374656D80
:102CC0002073746F7070656421204865617465724B
:102CD0005F49443A200048656174696E6720666107
:102CE000696C65640048656174696E672066616936
:102CF0006C65640048656174696E67206661696C23
:102D000065640048656174696E67206661696C6519
:102D100064004572723A204D494E54454D50204250
:102D20004544004572723A204D494E54454D50007D
:102D30004D494E54454D5020747269676765726500
:102D400064004572723A204D415854454D5020421E
:102D50004544004572723A204D415854454D50004B
:102D60004D415854454D50207472696767657265CE
:102D70006400290A57726974652066696C65206E63
:102D8000616D653A20002062797465733B2063723F
:102D9000632000506F7765726F66662053746F72A0
:102DA000656420280020213D200063726320657245
:102DB000726F723A20000A726561642066696C6500
:102DC000206E616D653A2000290A72656164206693
:102DD000696C65206469723A2000206279746573B9
:102DE0003B206372632000706F7765726F666620A8
:102DF00073746F7265642073657474696E67732091
:102E000072657472696576656420280020286361A4
:102E10006C63756C6174656429210A0020213D2072
:102E200000454550524F4D20435243206D69736D0C
:102E300061746368202D202873746F726564292083
:102E400000290A002062797465733B206372632055
:102E5000002073746F7265642073657474696E67A3
:102E60007320726574726965766564202800204D50
:102E700061726C696E3D56343032290A002845452E
:102E800050524F4D3D00454550524F4D2076657292
:102E900073696F6E206D69736D617463682000489B
:102EA000617264636F6465642044656661756C7407
:102EB0002053657474696E6773204C6F6164656438
:102EC0000A00B80B0000B80B000032000000B80B7D
:102ED000000000009643000096430000A04100005F
:102EE000C8419A99A0429A99A1420000C843008023
:102EF000C5435072656865617420504C4120456E31
:102F000064005072656865617420504C41204265D0
:102F100064005072656865617420504C41005072C5
:102F20006570617265005072656865617420414228
:102F30005320456E6400507265686561742041429B
:102F40005320426564005072656865617420414297
:102F5000530050726570617265004261636B004E90
:102F600065787420636F726E657200507265686573
:102F7000617420504C4100436F6F6C646F776E003A
:102F80005072656865617420414253004368616E08
:102F900067652066696C616D656E74004469736174
:102FA000626C65207374657070657273004D38349F
:102FB000004C6576656C20636F726E6572730041BC
:102FC00075746F20686F6D6500473238004D6F76FD
:102FD000652061786973004D61696E0056547261B5
:102FE00076206D696E005654726176206D696E00B0
:102FF0005654726176206D696E00566D696E00568A
:103000006D696E00566D696E00566D6178204500E1
:10301000566D6178204500566D6178204500566DEB
:103020006178205A00566D6178205A00566D61789B
:10303000205A00566D6178205900566D61782059EC
:1030400000566D6178205900566D61782058005601
:103050006D6178205800566D61782058004D6F746E
:10306000696F6E00416D6178204500416D61782087
:103070004500416D6178205A00416D6178205A0009
:10308000416D6178205900416D6178205900416D92
:103090006178205800416D6178205800412D74728C
:1030A0006176656C00412D74726176656C00412D0E
:1030B0007265747261637400412D7265747261632C
:1030C0007400416363656C00416363656C004D6F20
:1030D00074696F6E0056652D6A65726B0056652DBA
:1030E0006A65726B0056652D6A65726B00567A2DA3
:1030F0006A65726B00567A2D6A65726B0056792D7F
:103100006A65726B0056792D6A65726B0056792D6F
:103110006A65726B0056782D6A65726B0056782D61
:103120006A65726B0056782D6A65726B004D6F741C
:10313000696F6E005344207072696E74696E672007
:103140006279746520004E6F742053442070726958
:103150006E74696E670A00486F6D6520257325736C
:103160002573206669727374002066697273740A2D
:10317000005A0059005800486F6D65200053746173
:103180007274205A3A202534642E2564206D6D0017
:103190002020456E64205A3A202534642E25642070
:1031A0006D6D00285A203C3D2025642E25642900A1
:1031B0005374617274206D69783A20253364252533
:1031C00020253364252500285A203E3D2025642EE5
:1031D000256429002020456E64206D69783A2025F9
:1031E000336425252025336425250046756C6C2025
:1031F0006772616469656E74002533643B253364CE
:103200002525002020456E64206D69783A0025331D
:10321000643B2533642525005374617274206D6905
:10322000783A004772616469656E74002534642ED3
:103230002564206D6D002020456E64205A3A0025DB
:1032400034642E2564206D6D005374617274205AAD
:103250003A004772616469656E74206D6978004D4B
:1032600069786572004D6F76652058004D6F766500
:103270002059004D6F7665205A0045787472756448
:103280006572004D6F766520302E316D6D004D6F8B
:10329000766520316D6D004D6F76652031306D6D36
:1032A000004D6F7665206178697300486F74656EB4
:1032B0006420746F6F20636F6C640045787472755E
:1032C000646572004D6F7665205A004D6F766520FB
:1032D00059004D6F766520580045787472756465A5
:1032E00072004D6F7665205A004D6F76652059004B
:1032F0004D6F7665205800507265706172650000F0
:10330000C800C60011241FBECFEFD1E2DEBFCDBF83
:1033100000E00CBF13E0A0E0B2E0EEE0F5E202E076
:103320000BBF02C007900D92A63FB107D9F728E165
:10333000A6EFB3E001C01D92A83CB207E1F719E186
:10334000C1E8D9E100E006C021970109802FFE0104
:103350000F94DF11C038D10780E00807A9F70E9459
:1033600023F90D9476120C9400002F923F924F9205
:103370005F926F927F928F929F92AF92BF92CF9205
:10338000DF92EF92FF920F931F93CF93DF93CDB70E
:10339000DEB7CE57D1090FB6F894DEBF0FBECDBF52
:1033A00081E090E090934117809340178091C1187D
:1033B0008D3409F484C6843511F40C945830873464
:1033C00011F00C94AE308091BF189091C0188430E9
:1033D000910509F4B3C554F497FF02C00C94C830AA
:1033E00020919D02823091057CF529C08A35910596
:1033F00009F417C66CF48B31910509F4E6C54C97B6
:1034000011F00C94C83080E00E94B33E0C94C83098
:103410008B35910509F409C68C35910511F00C9492
:10342000C8300E94886046EA242E42E0342E5DE5D2
:10343000E52E58E1F52E00E0D12C10E020C6211138
:103440000C94CF300C94C830222311F40C94C83063
:1034500011E0029709F010E00E940D3982E50E9408
:103460000139882309F45CC10E949F386B017C01FB
:1034700040905D1850905E1860905F1870906018D2
:10348000209161183091621840916318509164182E
:103490002B962CAF3DAF4EAF5FAF2B97809130177F
:1034A00090913117A0913217B09133172F968CAFAE
:1034B0009DAFAEAFBFAF2F97209134173091351726
:1034C00040913617509137176B962CAF3DAF4EAFEA
:1034D0005FAF6B9720E030E0A901C701B6010F9400
:1034E000C10A882309F410C5A30192012F966CAD7F
:1034F0007DAD8EAD9FAD2F970F94C10A811111C084
:103500002B962CAD3DAD4EAD5FAD2B976B966CAD54
:103510007DAD8EAD9FAD6B970F94C10A882309F4E2
:10352000F3C420E030E0A901C701B6010F94C10A3D
:10353000881F8827881F18130BC080E090E0A0E840
:10354000BFE3A3968CAF9DAFAEAFBFAFA3970AC04A
:1035500020E030E040E85FEBA3962CAF3DAF4EAFEC
:103560005FAFA397A30192012F966CAD7DAD8EAD99
:103570009FAD2F970F94D70E67966CAF7DAF8EAF30
:103580009FAF67972B962CAD3DAD4EAD5FAD2B97A2
:103590006B966CAD7DAD8EAD9FAD6B970F94D70ED6
:1035A0006F966CAF7DAF8EAF9FAF6F9767962CAD68
:1035B0003DAD4EAD5FAD6797CA01B9010F94260BC3
:1035C0004B015C016F962CAD3DAD4EAD5FAD6F977D
:1035D000CA01B9010F94260B9B01AC01C501B401CE
:1035E0000F94D80E0F94431163966CAF7DAF8EAFDE
:1035F0009FAF639720E030E040E05FE30F94260B3D
:103600004B015C01A7019601C701B6010F94260B7F
:103610006B017C01A5019401C501B4010F94260B37
:103620009B01AC01C701B6010F94D70E0F94431153
:103630009B01AC01A3966CAD7DAD8EAD9FADA39704
:103640000F94260B4B015C012F962CAD3DAD4EAD7A
:103650005FAD2F97C301B2010F94D80E20E030E088
:1036600040E05FE30F94260B6B017C016F966CAD1D
:103670007DAD8EAD9FAD6F97905863962CAD3DADEF
:103680004EAD5FAD63970F94B40F9B01AC01C501C4
:10369000B4010F94260B9B01AC01C701B6010F9436
:1036A000D80EA30192010F94D70E6B017C016B968B
:1036B0002CAD3DAD4EAD5FAD6B972B966CAD7DAD3A
:1036C0008EAD9FAD2B970F94D80E20E030E040E0F8
:1036D0005FE30F94260B2B013C0163962CAD3DADAF
:1036E0004EAD5FAD639767966CAD7DAD8EAD9FAD12
:1036F00067970F94B40F9B01AC01C501B4010F94FF
:10370000260B9B01AC01C301B2010F94D80E2B967E
:103710002CAD3DAD4EAD5FAD2B970F94D70E14C0C1
:1037200089E40E940139882329F00E949F386B01A7
:103730007C0103C0C12CD12C76018AE40E9401399E
:103740008823F9F00E949F386B966CAF7DAF8EAFE7
:103750009FAF6B9720E030E0A901C701B6010F943D
:10376000C10A81111EC020E030E0A9016B966CAD4A
:103770007DAD8EAD9FAD6B970F94C10A811111C0C5
:10378000C3C320E030E0A901C701B6010F94C10A0C
:10379000882309F4B9C36B961CAE1DAE1EAE1FAED6
:1037A0006B97D701C601B0582B968CAF9DAFAEAFCB
:1037B000BFAF2B976B962CAD3DAD4EAD5FAD6B970C
:1037C00050582F962CAF3DAF4EAF5FAF2F979C0157
:1037D000AD01BC01CD010F94260B4B015C012F966E
:1037E0002CAD3DAD4EAD5FAD2F97CA01B9010F9421
:1037F000260B9B01AC01C501B4010F94D80E0F94A8
:103800004311E3966CAF7DAF8EAF9FAFE39780918E
:103810005D1890915E18A0915F18B0916018639642
:103820008CAF9DAFAEAFBFAF6397A7019601BC0150
:10383000CD010F94D80EA3966CAF7DAF8EAF9FAF26
:10384000A3972091611830916218409163185091AC
:1038500064186F962CAF3DAF4EAF5FAF6F976B960E
:103860002CAD3DAD4EAD5FAD6B976F966CAD7DAD44
:103870008EAD9FAD6F970F94D80EA7966CAF7DAFAE
:103880008EAF9FAFA7978091301790913117A0917D
:103890003217B0913317AB968CAF9DAFAEAFBFAFC1
:1038A000AB97A3962CAD3DAD4EAD5FADA397BC01DC
:1038B000CD010F94D70E6B017C012091341730910C
:1038C00035174091361750913717AF962CAF3DAF53
:1038D0004EAF5FAFAF97A7962CAD3DAD4EAD5FAD90
:1038E000A797AF966CAD7DAD8EAD9FADAF970F94A2
:1038F000D70E4B015C018091651890916618A091DC
:103900006718B0916818EB968CAF9DAFAEAFBFAFA4
:10391000EB979C01AD016091381770913917809138
:103920003A1790913B170F94D70E67966CAF7DAF07
:103930008EAF9FAF679720913C1730913D17409114
:103940003E1750913F17E7962CAF3DAF4EAF5FAF9C
:10395000E7978091691890916A18A0916B18B091BF
:103960006C18EF968CAF9DAFAEAFBFAFEF97A701CE
:1039700096012B966CAD7DAD8EAD9FAD2B970F94C0
:10398000260B2B013C01A50194012F966CAD7DAD5A
:103990008EAD9FAD2F970F94260B9B01AC01C301F9
:1039A000B2010F94D80E2B013C01A50194012B9676
:1039B0006CAD7DAD8EAD9FAD2B970F94260B4B015B
:1039C0005C01A70196012F966CAD7DAD8EAD9FADCC
:1039D0002F970F94260B9B01AC01C501B4010F94E6
:1039E000D70EA30192010F944B0F6B017C0120E0D5
:1039F00030E0A9010F94C10A87FF0AC02BED3FE018
:103A000049EC50E4C701B6010F94D80E6B017C015C
:103A1000112351F02BED3FE049EC50E4C701B60112
:103A20000F94D70E6B017C0120E030E0A901C701A3
:103A3000B6010F94C10A811128C0AB962CAD3DADE3
:103A40004EAD5FADAB9763966CAD7DAD8EAD9FAD6A
:103A500063970F94C10A811118C0AF962CAD3DAD8C
:103A60004EAD5FADAF976F966CAD7DAD8EAD9FAD3A
:103A70006F970F94C10A811108C07BEDC72E7FE0BC
:103A8000D72E79ECE72E70E4F72EE3962CAD3DAD02
:103A90004EAD5FADE397C701B6010F94260B9B01B6
:103AA000AC010F94260B4B015C0167962CAD3DAD2C
:103AB0004EAD5FAD6797CA01B9010F94260B9B010C
:103AC000AC01C501B4010F94D80E0F9443114B0102
:103AD0005C012FE632E143E85AE30F94C10A87FD07
:103AE0000FC2C501B4010F944D100F9421101B019A
:103AF000672B19F422242394312CB10180E090E04B
:103B00000F94C50A4B015C019B01AC01C701B601D2
:103B10000F94B40F63966CAF7DAF8EAF9FAF63977A
:103B2000A501940167966CAD7DAD8EAD9FAD679795
:103B30000F94B40FE3966CAF7DAF8EAF9FAFE3975A
:103B4000EF962CAD3DAD4EAD5FADEF97E7966CAD0A
:103B50007DAD8EAD9FADE7970F94D70EA501940173
:103B60000F94B40FE7966CAF7DAF8EAF9FAFE79722
:103B700063962CAD3DAD4EAD5FAD6397CA01B90103
:103B80000F94260B20E030E040E05FE30F94260B1B
:103B90009B01AC0160E070E080E89FE30F94D70EDA
:103BA000AB966CAF7DAF8EAF9FAFAB97EB962CAD66
:103BB0003DAD4EAD5FADEB9729873A874B875C876C
:103BC000EF968CAD9DADAEADBFADEF978D879E8767
:103BD000AF87B88B6091960270919702072E000C08
:103BE000880B990B0F94C70A2091000230910102B3
:103BF00040910202509103020F94260B2AE037ED08
:103C000043E25CE30F94260B68A379A38AA39BA3EA
:103C10000E9454439B01AC0128533F4F4F4F5F4FCD
:103C2000AF962CAF3DAF4EAF5FAFAF9728964FAC7E
:103C3000289729965FAC29972A966FAC2A972B96DE
:103C40007FAC2B9741E050E06D965FAF4EAF6D9724
:103C500059E164965FAF64976D96AEADBFAD6D9759
:103C6000A215B30509F43CC10E94E2D10E9454435D
:103C7000DC01CB01AF962CAD3DAD4EAD5FADAF9746
:103C8000821B930BA40BB50BB7FD11C00E945443CC
:103C90009B01AC0128533F4F4F4F5F4FAF962CAF66
:103CA0003DAF4EAF5FAFAF9780E00E9417B964960B
:103CB0003FAD6497315064963FAF6497332309F466
:103CC0004BC0AB962CAD3DAD4EAD5FADAB972F96D7
:103CD0006CAD7DAD8EAD9FAD2F970F94260B6B0114
:103CE0007C0163962CAD3DAD4EAD5FAD6397B201E7
:103CF000C3010F94260BA70196010F94D80E6B01F8
:103D00007C01AB962CAD3DAD4EAD5FADAB97B20136
:103D1000C3010F94260B4B015C0163962CAD3DADA6
:103D20004EAD5FAD63972F966CAD7DAD8EAD9FAD03
:103D30002F970F94260B9B01AC01C501B4010F9482
:103D4000D70E2B013C01C601D7012F968CAF9DAF3A
:103D5000AEAFBFAF2F9761C06D964EAD5FAD6D97A3
:103D6000BA0180E090E00F94C50A63962CAD3DAD9A
:103D70004EAD5FAD63970F94260B4B015C010F9422
:103D8000B10F6B017C01C501B4010F9439114B01D6
:103D90005C01A70196012B966CAD7DAD8EAD9FADFC
:103DA0002B970F94260B2B013C01A50194016B96D8
:103DB0006CAD7DAD8EAD9FAD6B970F94260B9B01C7
:103DC000AC01C301B2010F94D80E2B013C01A50137
:103DD00094012B966CAD7DAD8EAD9FAD2B970F945E
:103DE000260B4B015C01A70196016B966CAD7DAD76
:103DF0008EAD9FAD6B970F94260B9B01AC01C50157
:103E0000B4010F94D70E2F966CAF7DAF8EAF9FAFDE
:103E10002F9759E164965FAF64979201A301A3962F
:103E20006CAD7DAD8EAD9FADA3970F94D80E698319
:103E30007A838B839C832F962CAD3DAD4EAD5FADC9
:103E40002F97A7966CAD7DAD8EAD9FADA7970F94C4
:103E5000D80E6D837E838F839887E3962CAD3DAD1E
:103E60004EAD5FADE39769857A858B859C850F9410
:103E7000D80E69877A878B879C87E7962CAD3DADF6
:103E80004EAD5FADE7976D857E858F8598890F94E0
:103E9000D80E6D877E878F87988B8091A5028823A7
:103EA00021F0CE0101960E9434B7E12C8E01005E14
:103EB0001F4F9E01235F3F4FAE01475F5F4FBE0123
:103EC0006B5F7F4FCE0101960E9486F66D968EAD98
:103ED0009FAD6D9701966D969FAF8EAF6D97BCCEDF
:103EE000E12C8E01005E1F4F2CE337E148E357E1E0
:103EF00064E377E180E397E10E9486F60E94C63989
:103F00000E94D0390C94C830E0EEF8E284918F0121
:103F10000F5F1F4F882321F00E94DB39F801F6CF95
:103F2000EDE3F2E084918F010F5F1F4F882311F4BE
:103F30000C94C8300E94DB39F801F4CF80E50E9470
:103F40000139882329F00E945F386B017C0103C08E
:103F5000C12CD12C760183E50E940139882361F0C0
:103F60000E949F3820E030E04AE754E40F94260B8B
:103F70000F9421106B017C010E94886080914C029B
:103F8000811105C060E083E592E00E94A3540E9485
:103F9000D0398091281790912917A0912A17B091B4
:103FA0002B17C80ED91EEA1EFB1E0E945443DC01CB
:103FB000CB018C199D09AE09BF09B7FD02C00C9455
:103FC000C83080E00E9417B9F0CF0E94C2E581118D
:103FD0000C94C83080E090E0A0E4B0E489839A8338
:103FE000AB83BC838D839E83AF83B88780E090E0F2
:103FF000A0E2B1E489879A87AB87BC8780E50E94FD
:104000000139882319F00E946F3801C060E068A36D
:10401000BE016F5F7F4FCE0180960E9466B20C9406
:10402000C8301092FA030C94C83081E08093FA03F0
:104030000C94C8300E949F382B013C01D7012D9170
:104040003D914D915C910F94D70E4B015C012DEB8E
:1040500037E346E855EB0F94FE1087FD18C02DEBB3
:1040600037E346E855E3C501B4010F94C10A1816B9
:1040700074F01F5FF4E0EF0EF11C1430A1F0F101B9
:1040800081911F010E940139882399F3D3CF133006
:1040900019F0DD24D39401C001E0F7014082518280
:1040A00062827382E6CFDD2019F00E94EB3703C0F5
:1040B00001110E945FE60E94F43D0C94C83080918B
:1040C000BF189091C0188637910511F40C945C29A3
:1040D0000CF0DEC08D34910509F45FC50CF053C0BF
:1040E0008931910509F400C31CF58431910509F467
:1040F0007CC27CF48131910509F463C22CF40297EF
:1041000008F4D3C10C94C830429709F4ACC70C949E
:10411000C8308631910509F4B1C20CF4ABC28731C5
:10412000910509F4B1C2489709F4C4C20C94C8308F
:104130008F31910509F447C47CF48B31910509F462
:10414000E5C20CF4D5C28C31910509F4E3C24E9757
:1041500009F4EAC20C94C8308A32910509F4D9C432
:104160002CF4809709F4E5C30C94C8308B34910586
:1041700009F40FC58C34910511F00C94C8300E94DD
:104180009DE60C94C8308B36910509F4DAC60CF024
:1041900052C08535910509F49DC77CF5823591059E
:1041A00009F458C704F58135910511F00C94C83015
:1041B0000E94EDCE0E9488600E94A4B8109242181E
:1041C0001092411868EE73E080E090E00E949353F3
:1041D0000E9488600E94683760E087EF93E00E9449
:1041E000A3540C94C8308335910509F437C784353E
:1041F000910509F438C70C94C8308836910509F444
:10420000D0C47CF48C35910511F00C94C83016EABA
:10421000C12E12E0D12E0DE6E02E08E1F02E10E0C6
:1042200074C78936910509F4E9C58A36910509F400
:1042300063C60C94C8308037910509F491C584F4A5
:104240008D36910509F41EC60CF486C58E3691058F
:1042500009F4FEC48F36910509F40DC50C94C830DD
:104260008237910509F4D0C70CF47EC583379105D8
:1042700009F4CFC78537910511F00C94C83060E080
:104280008091BD189091BE180E94C1540C94C83002
:10429000823E910511F40C94342E0CF078C0863ACD
:1042A000910511F40C94D22B84F58C38910509F406
:1042B00087C59CF48837910511F40C94FF2914F4F8
:1042C0000C949B298937910511F40C94052A8D379C
:1042D000910509F448C60C94C8308B39910509F44E
:1042E000AAC53CF48139910511F40C940A2A0C9466
:1042F000C830833A910511F40C94802A843A9105D0
:1043000011F40C94F72A0C94C8308C3C910511F4EC
:104310000C94592D0CF5883C910511F40C94DD2C6E
:1043200034F48E3B910509F4CBC50C94C830893C1C
:10433000910511F40C94232D8B3C910511F00C94F4
:10434000C8308BEEE82E87E1F82E06EA12E094E002
:10435000D92ED00E0C944A2D833D910511F40C9466
:104360002E2E3CF48D3C910511F40C94C32D0C942D
:10437000C8308C3D910511F40C94312E8D3D910582
:1043800011F00C94C8300E949CA10C94C83089395B
:1043900021E0920711F40C94692E0CF046C08F3284
:1043A00041E0940711F40C94632EFCF48C32A1E0EC
:1043B0009A0711F40C94372E4CF48232914011F08C
:1043C0000C94C8300E94F7A00C94C8308D32F1E0F4
:1043D0009F0711F40C94602E8E32914011F00C94D2
:1043E000C8300E94859F0C94C830833631E0930713
:1043F00011F40C94992F4CF48033914011F00C94EB
:10440000C8300E94DB9F0C94C8308039A1E09A0725
:1044100011F40C94662E8839914011F00C94C83038
:1044200081E08093A00A0C94C830873FE1E09E07AA
:1044300011F40C94722EFCF4843F21E0920711F4E5
:104440000C946C2E4CF48A39914011F00C94C830C5
:104450000E94FC990C94C830853F51E0950711F4F7
:104460000C946F2E863F914011F00C94C8300E943E
:1044700048D30C94C830803AB3E09B0709F496C245
:104480003CF48835924011F40C947E2E0C94C83084
:10449000873E23E0920711F40C94D92F893D974071
:1044A00011F40C94EE2F0C94C830A090BD18B0906D
:1044B000BE1880E50E940139882359F00E945F38B8
:1044C0006B017C0111E0672B682B692B31F410E044
:1044D00004C010E0C12CD12C760183E50E94013983
:1044E0008823F1F00E949F3820E030E04AE754E44E
:1044F0000F94260B0F9421106B017C01111112C037
:10450000672B682B692B71F4A114B10459F0D50104
:104510008C91882339F061E0C5010E94C15407C025
:10452000112391F360E08AE792E00E94A35483E0B4
:1045300090E0909341178093401781E08093810A27
:104540000E9488600E94D039C114D104E104F104B2
:10455000F1F08091281790912917A0912A17B09116
:104560002B17C80ED91EEA1EFB1E0E945443DC0105
:10457000CB018C199D09AE09BF09B7FF1EC0809100
:10458000810A8823D1F080E00E9417B9EECF809194
:10459000810A882321F080E00E9417B9F8CF80912A
:1045A0002A1190912B1160E0029719F48BE692E0AA
:1045B00002C08CE592E00E94A3541092810A0C94F0
:1045C000C83060E08DE892E00E94A35442981798AA
:1045D00015982E989FB7F89480910B018D7F80934A
:1045E0000B019FBFA0980C94C830E5EAF2E08491DB
:1045F0008F010F5F1F4F882321F00E94DB39F801E4
:10460000F6CF1092EA131092E91340E050E0BA019D
:1046100083E791E10E94A3A88BE1E3E7F1E1DE01EA
:10462000159601900D928A95E1F780917111909104
:1046300072119C838B8386ED92E09A83898340E09C
:1046400050E0BE016F5F7F4F8BE993E00E947F7B5C
:10465000CE0101960E9491B8E6E9F2E084918F01C3
:104660000F5F1F4F882311F40C94C8300E94DB3970
:10467000F801F4CF0E940BA70C94C83010923A11A5
:1046800010923B110C94C830E091BD18F091BE1807
:104690008081882329F0803209F410823196F8CF86
:1046A00040E061E08091BD189091BE180E94CDA3BA
:1046B0000C94C83019821A821B821C8218A219A27B
:1046C0001AA21BA280914217882341F040E0BE014C
:1046D0006F5F7F4FCE0180960E9462BC0E947E81F8
:1046E0000E9482E50C94C8300E94E0370C94C830D8
:1046F00080913B11882311F40C94C83083E50E940B
:10470000013981110C94A6310C94C8300E94B7E68F
:104710000C94C83040E060E08091BD189091BE18C4
:104720000E94CDA30C94C83080913B11882311F4D2
:104730000C94C83087E393E10E94989087E393E15B
:104740000E948CA91092391110923811E090BD1876
:10475000F090BE1880913B11882311F40C94C8305E
:104760000E943F7FFE0131966F01CF010E943D8E76
:104770008FE691E190938F1180938E11D7018C91E8
:104780008F3209F060C06FE270E0C7010F943312FE
:104790008C010F5F1F4F09F45CC06FE270E0C8012D
:1047A0000F9433125C01009709F454C008171907DD
:1047B00008F050C04C01801A910AA401B801CE0142
:1047C00080960F945C12E0E2F0E0EC0FFD1FE80D24
:1047D000F91D10828E01005E1F4FF80181918F013B
:1047E000882319F00E94DB39F8CF8AE00E94DB3978
:1047F00060918E1170918F116115710511F06C5FD0
:104800007F4F21E0AE01405E5F4FCE0105960E94D2
:1048100031AF811112C0BE01605E7F4F8CED92E01E
:104820000E9407F58EE20E94DB398AE00E94DB39A4
:10483000C6010E9491B80C94C830D0928F11C092DA
:104840008E118501A6CF80E991E190938F1180931D
:104850008E11870160918E1170918F116115710514
:1048600011F06C5F7F4F18A21BA222E0A801CE01BD
:1048700080960E9431AF811102C0F12C14C0CE018C
:1048800080960E94ED7A8823C1F361E0CE01809684
:104890000E9495A9009789F325EEDC012C931BA2B9
:1048A0000E94478EF82ECE0180960E947C39FF2010
:1048B00019F1E6EBF2E084917F01BFEFEB1AFB0AFE
:1048C000882321F00E94DB39F701F5CFF8018191AF
:1048D0008F01882319F00E94DB39F8CF8AE00E940B
:1048E000DB3910926B1110926C1110926D111092B5
:1048F0006E110E94057E18C0E4ECF2E084917F0105
:104900002FEFE21AF20A882321F00E94DB39F70127
:10491000F5CFD8018D918D01882319F00E94DB39E4
:10492000F8CF8EE20E94DB39C6010E9491B80C9448
:10493000C83080913A1181110E94886080913B11AA
:10494000882311F40C94C83080E50E940139882333
:1049500019F00E94903803C080E50E94D238182FC9
:10496000482F61E08091BD189091BE180E94CDA3A0
:1049700083E50E940139882381F00E946F38AB01E2
:10498000BC0140936B1150936C1160936D11709347
:104990006E1187E393E10E94A3A80E947E8111110A
:1049A0000C94C8300E9482E50C94C8308091BD18E8
:1049B0009091BE1821E02093391140E060E00E9400
:1049C000CDA30C94C8300E9448813CE3C32ED12C67
:1049D000E12CF12CA70196010F949C0E762E672EE8
:1049E000CA01B901A70196010F949C0E6B017C01CD
:1049F000CA01B90128E130E040E050E00F949C0E7C
:104A00004B015C01C9016DE671E00F949C118E01B0
:104A10000F5F1F4F6115710599F06F927F92DF92C2
:104A2000CF929F928F929F938F937F936F9388E102
:104A300093E09F938F931F930F930F945A0A12C082
:104A40000097B1F06F927F92DF92CF929F928F92F8
:104A50009F938F9388E093E09F938F931F930F937F
:104A60000F945A0A0FB6F894DEBF0FBECDBF36C002
:104A700081149104A104B10479F06F927F92DF92C6
:104A8000CF929F928F928CEF92E09F938F931F9380
:104A90000F930F945A0AE6CFC114D104E104F10434
:104AA00069F06F927F92DF92CF9284EF92E09F93B2
:104AB0008F931F930F930F945A0AD4CF6F927F92C4
:104AC00080EF92E09F938F931F930F930F945A0A56
:104AD0000F900F900F900F900F900F9060E0C80113
:104AE0000E94C154E8E9F0E284917F019FEFE91A46
:104AF000F90A882321F00E94DB39F701F5CFB801CC
:104B00008CE293E00E9407F58AE00E94DB390C9466
:104B1000C83083E50E940139882311F40C94C83011
:104B20000E947F38E82E80E50E940139882341F0F9
:104B30000E946F388B0177FF02C00C94C83002C00E
:104B400006E010E0902FE9E3F3E08EE28E0F24916F
:104B5000921729F031968E13FACF0C94B631E0EE0D
:104B6000F8E284918F010F5F1F4F882321F00E948C
:104B7000DB39F801F6CFE7E6F3E084918F010F5FB0
:104B80001F4F882311F40C94C8300E94DB39F801C0
:104B9000F4CF0E9482E50C94C8300E944A7F0C94A6
:104BA000C83088E690E00E94F03C81110C94C83037
:104BB00080913B1483FF02C00C94C83083E50E94AF
:104BC0000139882309F440C00E949F380F941C10BB
:104BD0007093401860933F1880E00E94A2CE0E941C
:104BE0009F3820E030E04AEA52E40F94C10A1816D8
:104BF0003CF00E944A7F60E08DE793E00E94A3545E
:104C00000E949F382091820A3091830A4091840A41
:104C10005091850A0F94FE101816B4F483E393E0C4
:104C20009F938F9380916C0990E001969F938F934F
:104C300086E793E09F938F931F920E9467E50FB6DC
:104C4000F894DEBF0FBECDBF0F941F060C94C83082
:104C50008EE40E940139882311F40C94C8300E941C
:104C60006F38609355147093561480935714909333
:104C700058140C94C83083E50E94D238882359F028
:104C800083E50E940139882319F00E947F3801C012
:104C900080E080933B14E8E9F0E284918F010F5F9C
:104CA0001F4F882321F00E94DB39F801F6CFEAE993
:104CB000F3E084918F010F5F1F4F882321F00E9442
:104CC000DB39F801F6CF80913B148823A1F12CE861
:104CD000C22E23E0D22EE12CF12C20E080913B1457
:104CE00090E00E2C02C0959587950A94E2F780FF1C
:104CF00017C0BB24B394B20E222319F08CE20E9499
:104D0000DB39F60125913491F901849189010F5F16
:104D10001F4F882321F00E94DB399801F5CF2B2DFE
:104D2000FFEFEF1AFF0A32E0C30ED11C45E0E41694
:104D3000F104A1F60CC0E6E9F3E084918F010F5F66
:104D40001F4F882321F00E94DB39F801F6CF8AE05B
:104D50000E94DB390C94C83010928F020C94C8303A
:104D600081EA93E00E94ADB883E50E94013988236F
:104D700069F00E947F388D3320F4809398020C9460
:104D8000C8308CE3809398020C94C830E8E9F0E2D4
:104D900084918F010F5F1F4F882321F00E94DB3920
:104DA000F801F6CF4091980250E060E070E08AEAA6
:104DB00093E00E94C5698AE00E94DB390C94C830F8
:104DC00080913B1483FF02C00C94C83083E50E949D
:104DD0000139882311F40C94C8300E949F380F9435
:104DE0001C106E37710514F06DE770E070933E187B
:104DF00060933D180E9457CE0C94C83089E690E02D
:104E00000E94F03C811111C0E1EBF3E084918F012D
:104E10000F5F1F4F882321F00E94DB39F801F6CF86
:104E20000E94364D8AE00E94DB39109241171092A1
:104E300040170C94E23483E50E940139882311F471
:104E40000C94C8300E947F38182F8D3308F01CE373
:104E5000109325170E9454436B017C01212F30E0F1
:104E6000A8EEB3E00F94C80EC60ED71EE81EF91EBA
:104E7000C0922117D0922217E0922317F0922417A4
:104E80000C94C8308DE690E00E94F03C81110C94A7
:104E9000C83080913B1483FF02C00C94C83083E576
:104EA0000E94013968968FAF689781110C94CC31BC
:104EB00082E50E94013981110C94CC310C94C830E8
:104EC00080913B1483FF02C00C94C83060E08AEEEE
:104ED00093E00E94A35483E50E94013968968FAF46
:104EE000689781110C945E3382E50E94013981112B
:104EF0000C945E330C94C83080E50E940139811116
:104F000008C083E50E940139811109C03FEF20E00C
:104F10000AC00E947F3881110C94C830F2CF0E94E1
:104F20006F38362F272F832F922F8F3F910519F03F
:104F300010F08FEF90E090934218809341180C94FA
:104F4000C83080E50E940139811106C010924218D4
:104F5000109241180C94C8300E946F38672B11F0E2
:104F60000C94C830F3CF8CE40E94D238882319F017
:104F70000E949F3804C060E070E080E090EC6BAF6E
:104F80007CAF8DAF9EAF80E090E0A0E4B0E4898379
:104F90009A83AB83BC838D839E83AF83B88780E085
:104FA00090E0A0E2B1E489879A87AB87BC8788E567
:104FB0000E940139882379F088E50E94013988230D
:104FC00019F00E949F3803C060E070E0CB01698354
:104FD0007A838B839C8389E50E940139882379F049
:104FE00089E50E940139882319F00E949F3803C087
:104FF00060E070E0CB016D837E838F8398878AE5C4
:105000000E940139882379F08AE50E9401398823BA
:1050100019F00E949F3803C060E070E0CB016987FF
:105020007A878B879C8718A219A21AA21BA280914B
:10503000421781110C94C83000E020E0AE01405EC0
:105040005F4FBE016F5F7F4FCE01CB960E9488BB42
:105050000C94C8301092F9030C94C83081E080930E
:10506000F9030C94C83083E50E9401398823A1F02C
:105070000E949F3820E030E04AE754E40F94260B6A
:105080000F9421106093990270939A0280939B026F
:1050900090939C020C94C83088E50E94D23881110C
:1050A0000C94C33489E50E94D23881110C94C33426
:1050B0008AE50E94D23881110C94C33485E40E94A1
:1050C000D23881110C94C3340E9488600E94A4B825
:1050D0000C94C83083E50E94D238882311F40C94D4
:1050E000C8300E949F3820E030E04AE754E40F9433
:1050F000260B0F94211060932C1770932D1780931B
:105100002E1790932F170C94C830D6018D916D01F6
:105110000E94D238882309F46DC0133009F063C0AF
:105120000E949F384B015C0120E030E040EA51E4EE
:105130000F94C10A87FF4EC0A501940160917918B0
:1051400070917A1880917B1890917C180F94B40F0D
:105150002B013C019B01AC01609123187091241834
:1051600080912518909126180F94260B6093231890
:10517000709324188093251890932618A301920108
:105180006091F7177091F8178091F9179091FA17BD
:105190000F94260B6093F7177093F8178093F91705
:1051A0009093FA1760919B1870919C1880919D18AC
:1051B00090919E180F94C50AA30192010F94260B9B
:1051C0000F94211060939B1870939C1880939D18E6
:1051D00090939E188092791890927A18A0927B18DA
:1051E000B0927C1807C00E949F38F70160837183DA
:1051F000828393831F5FF4E0EF0EF11C143009F0FB
:1052000084CF0E945CF6C4C70E9488600E94F43D6F
:10521000BFC7EBEBF4E084918F010F5F1F4F882332
:1052200021F00E94DB39F801F6CF60E08BEA94E0D0
:105230000E94443D61E084EA94E00E94443D61E0C4
:1052400089E994E00E94443D61E089E894E00E948D
:10525000443D60E080E894E00E94443D61E086E7E0
:1052600094E00E94443D60E08CE694E00E94443D5E
:1052700060E084E694E00E94443D60E086E594E0CE
:105280000E94443D60E088E494E00E94443D60E078
:1052900089E394E00E94443D61E08BE294E00E9447
:1052A000443D61E085E194E00E94443D60E084E09B
:1052B00094E00E94443D6CC785E40E940139882334
:1052C00019F00E94903803C085E40E94D2388823E8
:1052D00061F0E8E9F0E284918F010F5F1F4F8823AE
:1052E00021F00E94DB39F801F6CF81E40E940139F8
:1052F000882319F00E94903803C081E40E94D238BC
:10530000882361F0EEE7F5E084918F010F5F1F4F76
:10531000882321F00E94DB39F801F6CF0091BD18F7
:105320001091BE18D8018D918D01882309F40FCDFD
:105330000E94DB39F7CFEAE9F5E084918F010F5F36
:105340001F4F882321F00E94DB39F801F6CFE2E9F4
:10535000F5E084918F010F5F1F4F882321F00E9499
:10536000DB39F801F6CF029B03C004E213E002C070
:1053700009E213E0F80181918F01882319F00E945E
:10538000DB39F8CF8AE00E94DB39EAE8F5E0849166
:105390008F010F5F1F4F882321F00E94DB39F80136
:1053A000F6CF069B03C004E213E002C009E213E05B
:1053B000D8018D918D01882319F00E94DB39F8CF37
:1053C0008AE00E94DB39E2E8F5E084918F010F5F0B
:1053D0001F4F882321F00E94DB39F801F6CF379B5D
:1053E00003C004E213E002C009E213E0F801819176
:1053F0008F01882309F4ABCC0E94DB39F7CF81E021
:1054000080930B1180930A11C3C610920B11109256
:105410000A11BEC683E50E940139882319F00E9453
:105420006F3802C060E070E08B0111270230110577
:10543000CCF0E0EEF8E284918F010F5F1F4F8823DC
:1054400021F00E94DB39F801F6CFE4EBF5E084911E
:105450008F010F5F1F4F882309F49AC60E94DB3922
:10546000F801F5CF88E40E9401398823A1F00E9459
:105470006F386A3A710534F06B3F71052CF06AEFB2
:1054800070E002C06AEA70E0F801EE0FFF1FE25719
:10549000FF4E7183608386E40E9401398823A9F05E
:1054A0000E946F38F801EE0FFF1FEE56FF4E71831A
:1054B00060836F3F710519F014F06FEF70E077FFB4
:1054C00002C060E070E07183608382E40E94013971
:1054D000882309F45DC60E946F386530710534F089
:1054E0006F3671052CF06EE670E002C065E070E08A
:1054F000000F111FF801E657FF4E7183608348C605
:1055000083E50E940139882341F00E946F388B01A6
:10551000633071050CF03CC602C000E010E080E58D
:105520000E940139882341F10E949F386B017C0160
:1055300020E030E0A9010F94C10A87FD1DC02DEBCA
:1055400037E346E855EBC701B6010F94FE1087FD1F
:105550000AC02DEB37E346E855E3C701B6010F94C7
:10556000C10A18167CF4A701960160E070E080E89B
:105570009FE30F94B40F09C0C12CD12C7601C70151
:10558000B60103C060E070E0CB01F801EE0FFF1F31
:10559000EE0FFF1FEF59FA4F60837183828393836D
:1055A0000115110581F420E030E048EC52E4C70118
:1055B000B6010F94260B0F94211070E07093901693
:1055C00060938F16E5C50130110509F0E1C520E0B3
:1055D00030E048EC52E4C701B6010F94260B0F945B
:1055E000211070E07093921660939116D1C583E5F7
:1055F0000E940139882341F00E946F388B0160318D
:1056000071050CF0C5C502C000E010E041E6A42E13
:1056100045E0B42EC12CD12C7601D5014D905D9082
:105620006D907D905D012DEB37E346E855EBC301AE
:10563000B2010F94FE1087FD0AC02DEB37E346E858
:1056400055E3C301B2010F94C10A18165CF4A3011B
:10565000920160E070E080E89FE30F94B40F9B013B
:10566000AC0103C020E030E0A901C701B6010F94EE
:10567000D80E6B017C01BDE6AB16B5E0BB0669F642
:1056800020E030E040E85FE30F94D70E4B015C016F
:105690002DEB37E346E855EB0F94FE1087FF03C070
:1056A000E6EDF5E037C02DEB37E346E855E3C501FD
:1056B000B4010F94C10A18169CF38CE0809FF0018E
:1056C000819FF00D1124EB58FB4F80916105909163
:1056D0006205A0916305B091640580839183A283E4
:1056E000B3838091650590916605A0916705B0919F
:1056F000680584839583A683B7838091690590911B
:105700006A05A0916B05B0916C0580879187A2878F
:10571000B3873EC584915F012FEFA21AB20A882396
:1057200021F00E94DB39F501F5CFA70196016091C8
:1057300061057091620580916305909164050F94F5
:10574000260B6093610570936205809363059093C7
:105750006405A701960160916505709166058091C9
:105760006705909168050F94260B6093650570930B
:1057700066058093670590936805A701960160917F
:10578000690570916A0580916B0590916C050F9485
:10579000260B6093690570936A0580936B0590935F
:1057A0006C058BCF83E50E94D238882321F00E94BC
:1057B0009038182F02C01091260281E40E9401390E
:1057C000882351F00E949F3860931C0270931D0241
:1057D00080931E0290931F028AE50E94013988235C
:1057E00051F00E949F3860932002709321028093B1
:1057F00022029093230280E50E940139882389F0D8
:105800000E946F3877FD08C00E946F3865367105B9
:105810002CF40E946F3803C060E001C064E660931E
:10582000240281E50E940139882389F00E946F38A3
:1058300077FD08C00E946F38653671052CF40E9410
:105840006F3803C060E001C064E660932502F09009
:10585000240200912502F016A1F02091200230913F
:105860002102409122025091230260911C0270910A
:105870001D0280911E0290911F020F94C10A811196
:1058800001C010E081E0809326028EE690E09093C4
:10589000901680938F16F092931600939416809131
:1058A0001C0290911D02A0911E02B0911F028093D4
:1058B000951690939616A0939716B093981680918C
:1058C000200290912102A0912202B09123028093A4
:1058D000991690939A16A0939B16B0939C16EEE29D
:1058E000F6E084917F013FEFE31AF30A882321F069
:1058F0000E94DB39F701F5CF10932602112309F43A
:105900004FC040911C0250911D0260911E02709187
:105910001F0280E296E00E94FF6960912402062E39
:10592000000C770B8DE196E00E94EEF4809124024A
:1059300004E610E0B801681B710987FD73958AE1E0
:1059400096E00E94EEF44091200250912102609175
:1059500022027091230282E196E00E94FF69609129
:105960002502062E000C770B8FE096E00E94EEF4E5
:1059700080912502B801681B710987FD73958CE041
:1059800096E00E94EEF4E9E0F6E084918F010F5F6B
:105990001F4F882309F4DBC90E94DB39F801F5CFDA
:1059A000EAE2F6E084918F010F5F1F4F882309F42C
:1059B000CEC90E94DB39F801F5CF88EC90E00E9457
:1059C000F03C8111E5C384E40E94D2388823C1F100
:1059D0000E949F3811E020E030E0A9010F94C10A35
:1059E000811101C010E01093A50A112349F10E9412
:1059F0009F38E0916C0944E0E49FF0011124EF55D9
:105A0000F54F608371838283938320E030E0A901A6
:105A10006091A10A7091A20A8091A30A9091A40AB0
:105A20000F94C10A81110CC080E090E0A0EEBFE3AA
:105A30008093A10A9093A20AA093A30AB093A40A08
:105A40000E94B5BDA5C32BEFE22E27E1F22E06EA98
:105A500012E034E0D32ED00ED8018D918D010E943A
:105A6000D238882349F00E949F380F942110F70103
:105A70006083718382839383F4E0EF0EF11CD01274
:105A8000EBCF0E942FF584C3F4E0EF0EF11CD0168B
:105A900009F47EC3D8018D918D010E94D2388823EC
:105AA00099F30E949F38F701608371838283938307
:105AB000EBCF83E50E94D2388823D9F00E949F382B
:105AC000AB01BC0140931318509314186093151840
:105AD0007093161840930B1850930C1860930D1880
